{"abi":[{"type":"constructor","inputs":[],"stateMutability":"nonpayable"},{"type":"function","name":"DOMAIN_SEPARATOR","inputs":[],"outputs":[{"name":"","type":"bytes32","internalType":"bytes32"}],"stateMutability":"view"},{"type":"function","name":"MINIMUM_LIQUIDITY","inputs":[],"outputs":[{"name":"","type":"uint256","internalType":"uint256"}],"stateMutability":"view"},{"type":"function","name":"PERMIT_TYPEHASH","inputs":[],"outputs":[{"name":"","type":"bytes32","internalType":"bytes32"}],"stateMutability":"view"},{"type":"function","name":"allowance","inputs":[{"name":"","type":"address","internalType":"address"},{"name":"","type":"address","internalType":"address"}],"outputs":[{"name":"","type":"uint256","internalType":"uint256"}],"stateMutability":"view"},{"type":"function","name":"approve","inputs":[{"name":"spender","type":"address","internalType":"address"},{"name":"value","type":"uint256","internalType":"uint256"}],"outputs":[{"name":"","type":"bool","internalType":"bool"}],"stateMutability":"nonpayable"},{"type":"function","name":"balanceOf","inputs":[{"name":"","type":"address","internalType":"address"}],"outputs":[{"name":"","type":"uint256","internalType":"uint256"}],"stateMutability":"view"},{"type":"function","name":"blockTimestampLast","inputs":[],"outputs":[{"name":"","type":"uint32","internalType":"uint32"}],"stateMutability":"view"},{"type":"function","name":"burn","inputs":[{"name":"to","type":"address","internalType":"address"}],"outputs":[{"name":"amount0","type":"uint256","internalType":"uint256"},{"name":"amount1","type":"uint256","internalType":"uint256"}],"stateMutability":"nonpayable"},{"type":"function","name":"decimals","inputs":[],"outputs":[{"name":"","type":"uint8","internalType":"uint8"}],"stateMutability":"view"},{"type":"function","name":"factory","inputs":[],"outputs":[{"name":"","type":"address","internalType":"address"}],"stateMutability":"view"},{"type":"function","name":"getReserves","inputs":[],"outputs":[{"name":"_reserve0","type":"uint112","internalType":"uint112"},{"name":"_reserve1","type":"uint112","internalType":"uint112"},{"name":"_blockTimestampLast","type":"uint32","internalType":"uint32"}],"stateMutability":"view"},{"type":"function","name":"initialize","inputs":[{"name":"_token0","type":"address","internalType":"address"},{"name":"_token1","type":"address","internalType":"address"}],"outputs":[],"stateMutability":"nonpayable"},{"type":"function","name":"kLast","inputs":[],"outputs":[{"name":"","type":"uint256","internalType":"uint256"}],"stateMutability":"view"},{"type":"function","name":"mint","inputs":[{"name":"to","type":"address","internalType":"address"}],"outputs":[{"name":"liquidity","type":"uint256","internalType":"uint256"}],"stateMutability":"nonpayable"},{"type":"function","name":"name","inputs":[],"outputs":[{"name":"","type":"string","internalType":"string"}],"stateMutability":"view"},{"type":"function","name":"nonces","inputs":[{"name":"","type":"address","internalType":"address"}],"outputs":[{"name":"","type":"uint256","internalType":"uint256"}],"stateMutability":"view"},{"type":"function","name":"permit","inputs":[{"name":"owner","type":"address","internalType":"address"},{"name":"spender","type":"address","internalType":"address"},{"name":"value","type":"uint256","internalType":"uint256"},{"name":"deadline","type":"uint256","internalType":"uint256"},{"name":"v","type":"uint8","internalType":"uint8"},{"name":"r","type":"bytes32","internalType":"bytes32"},{"name":"s","type":"bytes32","internalType":"bytes32"}],"outputs":[],"stateMutability":"nonpayable"},{"type":"function","name":"price0CumulativeLast","inputs":[],"outputs":[{"name":"","type":"uint256","internalType":"uint256"}],"stateMutability":"view"},{"type":"function","name":"price1CumulativeLast","inputs":[],"outputs":[{"name":"","type":"uint256","internalType":"uint256"}],"stateMutability":"view"},{"type":"function","name":"reserve0","inputs":[],"outputs":[{"name":"","type":"uint112","internalType":"uint112"}],"stateMutability":"view"},{"type":"function","name":"reserve1","inputs":[],"outputs":[{"name":"","type":"uint112","internalType":"uint112"}],"stateMutability":"view"},{"type":"function","name":"skim","inputs":[{"name":"to","type":"address","internalType":"address"}],"outputs":[],"stateMutability":"nonpayable"},{"type":"function","name":"swap","inputs":[{"name":"amount0Out","type":"uint256","internalType":"uint256"},{"name":"amount1Out","type":"uint256","internalType":"uint256"},{"name":"to","type":"address","internalType":"address"},{"name":"data","type":"bytes","internalType":"bytes"}],"outputs":[],"stateMutability":"nonpayable"},{"type":"function","name":"symbol","inputs":[],"outputs":[{"name":"","type":"string","internalType":"string"}],"stateMutability":"view"},{"type":"function","name":"sync","inputs":[],"outputs":[],"stateMutability":"nonpayable"},{"type":"function","name":"token0","inputs":[],"outputs":[{"name":"","type":"address","internalType":"address"}],"stateMutability":"view"},{"type":"function","name":"token1","inputs":[],"outputs":[{"name":"","type":"address","internalType":"address"}],"stateMutability":"view"},{"type":"function","name":"totalSupply","inputs":[],"outputs":[{"name":"","type":"uint256","internalType":"uint256"}],"stateMutability":"view"},{"type":"function","name":"transfer","inputs":[{"name":"to","type":"address","internalType":"address"},{"name":"value","type":"uint256","internalType":"uint256"}],"outputs":[{"name":"","type":"bool","internalType":"bool"}],"stateMutability":"nonpayable"},{"type":"function","name":"transferFrom","inputs":[{"name":"from","type":"address","internalType":"address"},{"name":"to","type":"address","internalType":"address"},{"name":"value","type":"uint256","internalType":"uint256"}],"outputs":[{"name":"","type":"bool","internalType":"bool"}],"stateMutability":"nonpayable"},{"type":"event","name":"Approval","inputs":[{"name":"owner","type":"address","indexed":true,"internalType":"address"},{"name":"spender","type":"address","indexed":true,"internalType":"address"},{"name":"value","type":"uint256","indexed":false,"internalType":"uint256"}],"anonymous":false},{"type":"event","name":"Burn","inputs":[{"name":"sender","type":"address","indexed":true,"internalType":"address"},{"name":"amount0","type":"uint256","indexed":false,"internalType":"uint256"},{"name":"amount1","type":"uint256","indexed":false,"internalType":"uint256"},{"name":"to","type":"address","indexed":true,"internalType":"address"}],"anonymous":false},{"type":"event","name":"Mint","inputs":[{"name":"sender","type":"address","indexed":true,"internalType":"address"},{"name":"amount0","type":"uint256","indexed":false,"internalType":"uint256"},{"name":"amount1","type":"uint256","indexed":false,"internalType":"uint256"}],"anonymous":false},{"type":"event","name":"Swap","inputs":[{"name":"sender","type":"address","indexed":true,"internalType":"address"},{"name":"amount0In","type":"uint256","indexed":false,"internalType":"uint256"},{"name":"amount1In","type":"uint256","indexed":false,"internalType":"uint256"},{"name":"amount0Out","type":"uint256","indexed":false,"internalType":"uint256"},{"name":"amount1Out","type":"uint256","indexed":false,"internalType":"uint256"},{"name":"to","type":"address","indexed":true,"internalType":"address"}],"anonymous":false},{"type":"event","name":"Sync","inputs":[{"name":"reserve0","type":"uint112","indexed":false,"internalType":"uint112"},{"name":"reserve1","type":"uint112","indexed":false,"internalType":"uint112"}],"anonymous":false},{"type":"event","name":"Transfer","inputs":[{"name":"from","type":"address","indexed":true,"internalType":"address"},{"name":"to","type":"address","indexed":true,"internalType":"address"},{"name":"value","type":"uint256","indexed":false,"internalType":"uint256"}],"anonymous":false}],"bytecode":{"object":"0x60806040526001600c5534801561001557600080fd5b50604080518082018252600a8152692ab734b9bbb0b8102b1960b11b6020918201528151808301835260018152603160f81b9082015281517f8b73c3c69bb8fe3d512ecc4cf759cc79239f7b179b0ffacaa9a75d522b39400f918101919091527fbfcc8ef98ffbf7b6c3fec7bf5185b566b9863e35a9d83acd49ad6824b5969738918101919091527fc89efdaa54c0f20c7adf612882df0950f5a951637e0307cdcb4c672f298b8bc660608201526000608082018190523060a08301529060c00160408051601f19818403018152919052805160209091012060035550600580546001600160a01b031916331790556122c7806101136000396000f3fe608060405234801561001057600080fd5b50600436106101da5760003560e01c80636a62784211610104578063ba9a7a56116100a2578063d21220a711610071578063d21220a7146104aa578063d505accf146104bd578063dd62ed3e146104d0578063fff6cae9146104fb57600080fd5b8063ba9a7a561461044f578063bc25cf7714610458578063c45a01551461046b578063c5700a021461047e57600080fd5b80637ecebe00116100de5780637ecebe00146103cf57806389afcb44146103ef57806395d89b4114610417578063a9059cbb1461043c57600080fd5b80636a6278421461039357806370a08231146103a65780637464fc3d146103c657600080fd5b806330adf81f1161017c578063485cc9551161014b578063485cc955146103545780635909c0d5146103675780635a3d5493146103705780635a76f25e1461037957600080fd5b806330adf81f146102df578063313ce567146103065780633644e51514610320578063443cb4bc1461032957600080fd5b8063095ea7b3116101b8578063095ea7b3146102675780630dfe16811461028a57806318160ddd146102b557806323b872dd146102cc57600080fd5b8063022c0d9f146101df57806306fdde03146101f45780630902f1ac14610233575b600080fd5b6101f26101ed366004611e59565b610503565b005b61021d6040518060400160405280600a8152602001692ab734b9bbb0b8102b1960b11b81525081565b60405161022a9190611f13565b60405180910390f35b61023b610a09565b604080516001600160701b03948516815293909216602084015263ffffffff169082015260600161022a565b61027a610275366004611f46565b610a33565b604051901515815260200161022a565b60065461029d906001600160a01b031681565b6040516001600160a01b03909116815260200161022a565b6102be60005481565b60405190815260200161022a565b61027a6102da366004611f72565b610a4a565b6102be7f6e71edae12b1b97f4d1f60370fef10105fa2faae0126114a169c64845d6126c981565b61030e601281565b60405160ff909116815260200161022a565b6102be60035481565b60085461033c906001600160701b031681565b6040516001600160701b03909116815260200161022a565b6101f2610362366004611fb3565b610ade565b6102be60095481565b6102be600a5481565b60085461033c90600160701b90046001600160701b031681565b6102be6103a1366004611fec565b610b5d565b6102be6103b4366004611fec565b60016020526000908152604090205481565b6102be600b5481565b6102be6103dd366004611fec565b60046020526000908152604090205481565b6104026103fd366004611fec565b610e25565b6040805192835260208301919091520161022a565b61021d604051806040016040528060068152602001652aa72496ab1960d11b81525081565b61027a61044a366004611f46565b61118b565b6102be6103e881565b6101f2610466366004611fec565b611198565b60055461029d906001600160a01b031681565b60085461049590600160e01b900463ffffffff1681565b60405163ffffffff909116815260200161022a565b60075461029d906001600160a01b031681565b6101f26104cb366004612009565b6112ac565b6102be6104de366004611fb3565b600260209081526000928352604080842090915290825290205481565b6101f26114c0565b600c5460011461052e5760405162461bcd60e51b815260040161052590612080565b60405180910390fd5b6000600c55841515806105415750600084115b61059b5760405162461bcd60e51b815260206004820152602560248201527f556e697377617056323a20494e53554646494349454e545f4f55545055545f416044820152641353d5539560da1b6064820152608401610525565b6000806105a6610a09565b5091509150816001600160701b0316871080156105cb5750806001600160701b031686105b6106215760405162461bcd60e51b815260206004820152602160248201527f556e697377617056323a20494e53554646494349454e545f4c495155494449546044820152605960f81b6064820152608401610525565b60065460075460009182916001600160a01b0391821691908116908916821480159061065f5750806001600160a01b0316896001600160a01b031614155b6106a35760405162461bcd60e51b8152602060048201526015602482015274556e697377617056323a20494e56414c49445f544f60581b6044820152606401610525565b8a156106b4576106b4828a8d6115e4565b89156106c5576106c5818a8c6115e4565b8615610732576040516304347a1760e21b81526001600160a01b038a16906310d1e85c906106ff9033908f908f908e908e906004016120ab565b600060405180830381600087803b15801561071957600080fd5b505af115801561072d573d6000803e3d6000fd5b505050505b6040516370a0823160e01b81523060048201526001600160a01b038316906370a0823190602401602060405180830381865afa158015610776573d6000803e3d6000fd5b505050506040513d601f19601f8201168201806040525081019061079a91906120f7565b6040516370a0823160e01b81523060048201529094506001600160a01b038216906370a0823190602401602060405180830381865afa1580156107e1573d6000803e3d6000fd5b505050506040513d601f19601f8201168201806040525081019061080591906120f7565b92505050600089856001600160701b03166108209190612126565b831161082d57600061084a565b6108408a6001600160701b038716612126565b61084a9084612126565b905060006108618a6001600160701b038716612126565b831161086e57600061088b565b6108818a6001600160701b038716612126565b61088b9084612126565b9050600082118061089c5750600081115b6108f45760405162461bcd60e51b8152602060048201526024808201527f556e697377617056323a20494e53554646494349454e545f494e5055545f414d60448201526313d5539560e21b6064820152608401610525565b600061091661090484600361172f565b610910876103e861172f565b90611796565b9050600061092861090484600361172f565b905061094d620f42406109476001600160701b038b8116908b1661172f565b9061172f565b610957838361172f565b10156109945760405162461bcd60e51b815260206004820152600c60248201526b556e697377617056323a204b60a01b6044820152606401610525565b50506109a2848488886117ec565b60408051838152602081018390529081018c9052606081018b90526001600160a01b038a169033907fd78ad95fa46c994b6551d0da85fc275fe613ce37657fb8d5e3d130840159d8229060800160405180910390a350506001600c55505050505050505050565b6008546001600160701b0380821692600160701b830490911691600160e01b900463ffffffff1690565b6000610a403384846119d8565b5060015b92915050565b6001600160a01b038316600090815260026020908152604080832033845290915281205460001914610ac9576001600160a01b0384166000908152600260209081526040808320338452909152902054610aa49083611796565b6001600160a01b03851660009081526002602090815260408083203384529091529020555b610ad4848484611a3a565b5060019392505050565b6005546001600160a01b03163314610b2f5760405162461bcd60e51b81526020600482015260146024820152732ab734b9bbb0b82b191d102327a92124a22222a760611b6044820152606401610525565b600680546001600160a01b039384166001600160a01b03199182161790915560078054929093169116179055565b6000600c54600114610b815760405162461bcd60e51b815260040161052590612080565b6000600c81905580610b91610a09565b506006546040516370a0823160e01b81523060048201529294509092506000916001600160a01b03909116906370a0823190602401602060405180830381865afa158015610be3573d6000803e3d6000fd5b505050506040513d601f19601f82011682018060405250810190610c0791906120f7565b6007546040516370a0823160e01b81523060048201529192506000916001600160a01b03909116906370a0823190602401602060405180830381865afa158015610c55573d6000803e3d6000fd5b505050506040513d601f19601f82011682018060405250810190610c7991906120f7565b90506000610c90836001600160701b038716611796565b90506000610ca7836001600160701b038716611796565b90506000610cb58787611ae0565b60008054919250819003610cef57610cdb6103e8610910610cd6878761172f565b611c1d565b9850610cea60006103e8611c8d565b610d36565b610d336001600160701b038916610d06868461172f565b610d10919061214f565b6001600160701b038916610d24868561172f565b610d2e919061214f565b611d1c565b98505b60008911610d975760405162461bcd60e51b815260206004820152602860248201527f556e697377617056323a20494e53554646494349454e545f4c495155494449546044820152671657d3525395115160c21b6064820152608401610525565b610da18a8a611c8d565b610dad86868a8a6117ec565b8115610dd757600854610dd3906001600160701b0380821691600160701b90041661172f565b600b555b604080518581526020810185905233917f4c209b5fc8ad50758f13e2e1088ba56a560dff690a1c6fef26394f4c03821c4f910160405180910390a250506001600c5550949695505050505050565b600080600c54600114610e4a5760405162461bcd60e51b815260040161052590612080565b6000600c81905580610e5a610a09565b506006546007546040516370a0823160e01b81523060048201529395509193506001600160a01b039081169291169060009083906370a0823190602401602060405180830381865afa158015610eb4573d6000803e3d6000fd5b505050506040513d601f19601f82011682018060405250810190610ed891906120f7565b6040516370a0823160e01b81523060048201529091506000906001600160a01b038416906370a0823190602401602060405180830381865afa158015610f22573d6000803e3d6000fd5b505050506040513d601f19601f82011682018060405250810190610f4691906120f7565b30600090815260016020526040812054919250610f638888611ae0565b60005490915080610f74848761172f565b610f7e919061214f565b9a5080610f8b848661172f565b610f95919061214f565b995060008b118015610fa7575060008a115b6110045760405162461bcd60e51b815260206004820152602860248201527f556e697377617056323a20494e53554646494349454e545f4c495155494449546044820152671657d0955493915160c21b6064820152608401610525565b61100e3084611d34565b611019878d8d6115e4565b611024868d8c6115e4565b6040516370a0823160e01b81523060048201526001600160a01b038816906370a0823190602401602060405180830381865afa158015611068573d6000803e3d6000fd5b505050506040513d601f19601f8201168201806040525081019061108c91906120f7565b6040516370a0823160e01b81523060048201529095506001600160a01b038716906370a0823190602401602060405180830381865afa1580156110d3573d6000803e3d6000fd5b505050506040513d601f19601f820116820180604052508101906110f791906120f7565b935061110585858b8b6117ec565b811561112f5760085461112b906001600160701b0380821691600160701b90041661172f565b600b555b604080518c8152602081018c90526001600160a01b038e169133917fdccd412f0b1252819cb1fd330b93224ca42612892bb3f4f789976e6d81936496910160405180910390a35050505050505050506001600c81905550915091565b6000610a40338484611a3a565b600c546001146111ba5760405162461bcd60e51b815260040161052590612080565b6000600c556006546007546008546040516370a0823160e01b81523060048201526001600160a01b0393841693909216916112559184918691611250916001600160701b039091169084906370a08231906024015b602060405180830381865afa15801561122c573d6000803e3d6000fd5b505050506040513d601f19601f8201168201806040525081019061091091906120f7565b6115e4565b6008546040516370a0823160e01b81523060048201526112a2918391869161125091600160701b9091046001600160701b0316906001600160a01b038516906370a082319060240161120f565b50506001600c5550565b428410156112f15760405162461bcd60e51b8152602060048201526012602482015271155b9a5cddd85c158c8e881156141254915160721b6044820152606401610525565b6003546001600160a01b038816600090815260046020526040812080549192917f6e71edae12b1b97f4d1f60370fef10105fa2faae0126114a169c64845d6126c9918b918b918b91908761134483612163565b909155506040805160208101969096526001600160a01b0394851690860152929091166060840152608083015260a082015260c0810187905260e001604051602081830303815290604052805190602001206040516020016113bd92919061190160f01b81526002810192909252602282015260420190565b60408051601f198184030181528282528051602091820120600080855291840180845281905260ff88169284019290925260608301869052608083018590529092509060019060a0016020604051602081039080840390855afa158015611428573d6000803e3d6000fd5b5050604051601f1901519150506001600160a01b0381161580159061145e5750886001600160a01b0316816001600160a01b0316145b6114aa5760405162461bcd60e51b815260206004820152601c60248201527f556e697377617056323a20494e56414c49445f5349474e4154555245000000006044820152606401610525565b6114b58989896119d8565b505050505050505050565b600c546001146114e25760405162461bcd60e51b815260040161052590612080565b6000600c556006546040516370a0823160e01b81523060048201526115dd916001600160a01b0316906370a0823190602401602060405180830381865afa158015611531573d6000803e3d6000fd5b505050506040513d601f19601f8201168201806040525081019061155591906120f7565b6007546040516370a0823160e01b81523060048201526001600160a01b03909116906370a0823190602401602060405180830381865afa15801561159d573d6000803e3d6000fd5b505050506040513d601f19601f820116820180604052508101906115c191906120f7565b6008546001600160701b0380821691600160701b9004166117ec565b6001600c55565b604080518082018252601981527f7472616e7366657228616464726573732c75696e74323536290000000000000060209182015281516001600160a01b0385811660248301526044808301869052845180840390910181526064909201845291810180516001600160e01b031663a9059cbb60e01b17905291516000928392871691611670919061217c565b6000604051808303816000865af19150503d80600081146116ad576040519150601f19603f3d011682016040523d82523d6000602084013e6116b2565b606091505b50915091508180156116dc5750805115806116dc5750808060200190518101906116dc9190612198565b6117285760405162461bcd60e51b815260206004820152601a60248201527f556e697377617056323a205452414e534645525f4641494c45440000000000006044820152606401610525565b5050505050565b60008115806117535750828261174581836121ba565b9250611751908361214f565b145b610a445760405162461bcd60e51b815260206004820152601460248201527364732d6d6174682d6d756c2d6f766572666c6f7760601b6044820152606401610525565b6000826117a38382612126565b9150811115610a445760405162461bcd60e51b815260206004820152601560248201527464732d6d6174682d7375622d756e646572666c6f7760581b6044820152606401610525565b6001600160701b03841180159061180a57506001600160701b038311155b61184c5760405162461bcd60e51b8152602060048201526013602482015272556e697377617056323a204f564552464c4f5760681b6044820152606401610525565b600061185d640100000000426121d1565b60085490915060009061187d90600160e01b900463ffffffff16836121e5565b905060008163ffffffff1611801561189d57506001600160701b03841615155b80156118b157506001600160701b03831615155b15611940578063ffffffff166118d9856118ca86611dbe565b6001600160e01b031690611dd7565b6001600160e01b03166118ec91906121ba565b600960008282546118fd9190612209565b909155505063ffffffff8116611916846118ca87611dbe565b6001600160e01b031661192991906121ba565b600a600082825461193a9190612209565b90915550505b6008805463ffffffff8416600160e01b026001600160e01b036001600160701b03898116600160701b9081026001600160e01b03199095168c83161794909417918216831794859055604080519382169282169290921783529290930490911660208201527f1c411e9a96e071241c2f21f7726b17ae89e3cab4c78be50e062b03a9fffbbad1910160405180910390a1505050505050565b6001600160a01b0383811660008181526002602090815260408083209487168084529482529182902085905590518481527f8c5be1e5ebec7d5bd14f71427d1e84f3dd0314c0f7b2291e5b200ac8c7c3b92591015b60405180910390a3505050565b6001600160a01b038316600090815260016020526040902054611a5d9082611796565b6001600160a01b038085166000908152600160205260408082209390935590841681522054611a8c9082611dec565b6001600160a01b0380841660008181526001602052604090819020939093559151908516907fddf252ad1be2c89b69c2b068fc378daa952ba7f163c4a11628f55a4df523b3ef90611a2d9085815260200190565b600080600560009054906101000a90046001600160a01b03166001600160a01b031663017e7e586040518163ffffffff1660e01b8152600401602060405180830381865afa158015611b36573d6000803e3d6000fd5b505050506040513d601f19601f82011682018060405250810190611b5a919061221c565b600b546001600160a01b038216158015945091925090611c09578015611c04576000611b95610cd66001600160701b0388811690881661172f565b90506000611ba283611c1d565b905080821115611c01576000611bc4611bbb8484611796565b6000549061172f565b90506000611bdd83611bd786600561172f565b90611dec565b90506000611beb828461214f565b90508015611bfd57611bfd8782611c8d565b5050505b50505b611c15565b8015611c15576000600b555b505092915050565b60006003821115611c7e5750806000611c3760028361214f565b611c42906001612209565b90505b81811015611c7857905080600281611c5d818661214f565b611c679190612209565b611c71919061214f565b9050611c45565b50919050565b8115611c88575060015b919050565b600054611c9a9082611dec565b60009081556001600160a01b038316815260016020526040902054611cbf9082611dec565b6001600160a01b0383166000818152600160205260408082209390935591519091907fddf252ad1be2c89b69c2b068fc378daa952ba7f163c4a11628f55a4df523b3ef90611d109085815260200190565b60405180910390a35050565b6000818310611d2b5781611d2d565b825b9392505050565b6001600160a01b038216600090815260016020526040902054611d579082611796565b6001600160a01b03831660009081526001602052604081209190915554611d7e9082611796565b60009081556040518281526001600160a01b038416907fddf252ad1be2c89b69c2b068fc378daa952ba7f163c4a11628f55a4df523b3ef90602001611d10565b6000610a44600160701b6001600160701b038416612239565b6000611d2d6001600160701b0383168461226b565b600082611df98382612209565b9150811015610a445760405162461bcd60e51b815260206004820152601460248201527364732d6d6174682d6164642d6f766572666c6f7760601b6044820152606401610525565b6001600160a01b0381168114611e5657600080fd5b50565b600080600080600060808688031215611e7157600080fd5b85359450602086013593506040860135611e8a81611e41565b9250606086013567ffffffffffffffff80821115611ea757600080fd5b818801915088601f830112611ebb57600080fd5b813581811115611eca57600080fd5b896020828501011115611edc57600080fd5b9699959850939650602001949392505050565b60005b83811015611f0a578181015183820152602001611ef2565b50506000910152565b6020815260008251806020840152611f32816040850160208701611eef565b601f01601f19169190910160400192915050565b60008060408385031215611f5957600080fd5b8235611f6481611e41565b946020939093013593505050565b600080600060608486031215611f8757600080fd5b8335611f9281611e41565b92506020840135611fa281611e41565b929592945050506040919091013590565b60008060408385031215611fc657600080fd5b8235611fd181611e41565b91506020830135611fe181611e41565b809150509250929050565b600060208284031215611ffe57600080fd5b8135611d2d81611e41565b600080600080600080600060e0888a03121561202457600080fd5b873561202f81611e41565b9650602088013561203f81611e41565b95506040880135945060608801359350608088013560ff8116811461206357600080fd5b9699959850939692959460a0840135945060c09093013592915050565b602080825260119082015270155b9a5cddd85c158c8e881313d0d2d151607a1b604082015260600190565b60018060a01b038616815284602082015283604082015260806060820152816080820152818360a0830137600081830160a090810191909152601f909201601f19160101949350505050565b60006020828403121561210957600080fd5b5051919050565b634e487b7160e01b600052601160045260246000fd5b81810381811115610a4457610a44612110565b634e487b7160e01b600052601260045260246000fd5b60008261215e5761215e612139565b500490565b60006001820161217557612175612110565b5060010190565b6000825161218e818460208701611eef565b9190910192915050565b6000602082840312156121aa57600080fd5b81518015158114611d2d57600080fd5b8082028115828204841417610a4457610a44612110565b6000826121e0576121e0612139565b500690565b63ffffffff82811682821603908082111561220257612202612110565b5092915050565b80820180821115610a4457610a44612110565b60006020828403121561222e57600080fd5b8151611d2d81611e41565b6001600160e01b0382811682821681810283169291811582850482141761226257612262612110565b50505092915050565b60006001600160e01b038381168061228557612285612139565b9216919091049291505056fea2646970667358221220186226c546efd5d11598b3d5e6da5e6718f7d760bbcfe92a153d456d223d4c3f64736f6c63430008130033","linkReferences":{}},"methodIdentifiers":{"DOMAIN_SEPARATOR()":"3644e515","MINIMUM_LIQUIDITY()":"ba9a7a56","PERMIT_TYPEHASH()":"30adf81f","allowance(address,address)":"dd62ed3e","approve(address,uint256)":"095ea7b3","balanceOf(address)":"70a08231","blockTimestampLast()":"c5700a02","burn(address)":"89afcb44","decimals()":"313ce567","factory()":"c45a0155","getReserves()":"0902f1ac","initialize(address,address)":"485cc955","kLast()":"7464fc3d","mint(address)":"6a627842","name()":"06fdde03","nonces(address)":"7ecebe00","permit(address,address,uint256,uint256,uint8,bytes32,bytes32)":"d505accf","price0CumulativeLast()":"5909c0d5","price1CumulativeLast()":"5a3d5493","reserve0()":"443cb4bc","reserve1()":"5a76f25e","skim(address)":"bc25cf77","swap(uint256,uint256,address,bytes)":"022c0d9f","symbol()":"95d89b41","sync()":"fff6cae9","token0()":"0dfe1681","token1()":"d21220a7","totalSupply()":"18160ddd","transfer(address,uint256)":"a9059cbb","transferFrom(address,address,uint256)":"23b872dd"},"id":200}