{"abi":[{"type":"function","name":"EVM_EXTRA_ARGS_V1_TAG","inputs":[],"outputs":[{"name":"","type":"bytes4","internalType":"bytes4"}],"stateMutability":"view"}],"bytecode":{"object":"0x6098610038600b82828239805160001a607314602b57634e487b7160e01b600052600060045260246000fd5b30600052607381538281f3fe730000000000000000000000000000000000000000301460806040526004361060335760003560e01c80633ab8c0d0146038575b600080fd5b60456397a657c960e01b81565b6040516001600160e01b0319909116815260200160405180910390f3fea2646970667358221220a6181c8f65b40b98d025eaa3ecb7c33aa0aac8f40a77079c18d9762167802c5064736f6c63430008130033","linkReferences":{}},"methodIdentifiers":{"EVM_EXTRA_ARGS_V1_TAG()":"3ab8c0d0"},"id":144}