{"abi":[{"type":"constructor","inputs":[{"name":"_ownerAddress","type":"address","internalType":"address"},{"name":"_initialDeployers","type":"address[]","internalType":"address[]"}],"stateMutability":"nonpayable"},{"type":"function","name":"acceptOwnership","inputs":[],"outputs":[],"stateMutability":"nonpayable"},{"type":"function","name":"addPair","inputs":[{"name":"_pairAddress","type":"address","internalType":"address"}],"outputs":[],"stateMutability":"nonpayable"},{"type":"function","name":"deployedPairsArray","inputs":[{"name":"","type":"uint256","internalType":"uint256"}],"outputs":[{"name":"","type":"address","internalType":"address"}],"stateMutability":"view"},{"type":"function","name":"deployedPairsByName","inputs":[{"name":"","type":"string","internalType":"string"}],"outputs":[{"name":"","type":"address","internalType":"address"}],"stateMutability":"view"},{"type":"function","name":"deployedPairsLength","inputs":[],"outputs":[{"name":"","type":"uint256","internalType":"uint256"}],"stateMutability":"view"},{"type":"function","name":"deployers","inputs":[{"name":"","type":"address","internalType":"address"}],"outputs":[{"name":"","type":"bool","internalType":"bool"}],"stateMutability":"view"},{"type":"function","name":"getAllPairAddresses","inputs":[],"outputs":[{"name":"_deployedPairsArray","type":"address[]","internalType":"address[]"}],"stateMutability":"view"},{"type":"function","name":"owner","inputs":[],"outputs":[{"name":"","type":"address","internalType":"address"}],"stateMutability":"view"},{"type":"function","name":"pendingOwner","inputs":[],"outputs":[{"name":"","type":"address","internalType":"address"}],"stateMutability":"view"},{"type":"function","name":"renounceOwnership","inputs":[],"outputs":[],"stateMutability":"nonpayable"},{"type":"function","name":"setDeployers","inputs":[{"name":"_deployers","type":"address[]","internalType":"address[]"},{"name":"_bool","type":"bool","internalType":"bool"}],"outputs":[],"stateMutability":"nonpayable"},{"type":"function","name":"transferOwnership","inputs":[{"name":"newOwner","type":"address","internalType":"address"}],"outputs":[],"stateMutability":"nonpayable"},{"type":"event","name":"AddPair","inputs":[{"name":"pairAddress","type":"address","indexed":false,"internalType":"address"}],"anonymous":false},{"type":"event","name":"OwnershipTransferStarted","inputs":[{"name":"previousOwner","type":"address","indexed":true,"internalType":"address"},{"name":"newOwner","type":"address","indexed":true,"internalType":"address"}],"anonymous":false},{"type":"event","name":"OwnershipTransferred","inputs":[{"name":"previousOwner","type":"address","indexed":true,"internalType":"address"},{"name":"newOwner","type":"address","indexed":true,"internalType":"address"}],"anonymous":false},{"type":"event","name":"SetDeployer","inputs":[{"name":"deployer","type":"address","indexed":false,"internalType":"address"},{"name":"_bool","type":"bool","indexed":false,"internalType":"bool"}],"anonymous":false},{"type":"error","name":"AddressIsNotDeployer","inputs":[]},{"type":"error","name":"NameMustBeUnique","inputs":[]}],"bytecode":{"object":"0x60806040523480156200001157600080fd5b5060405162000ce238038062000ce2833981016040819052620000349162000163565b6200003f33620000c2565b60005b8151811015620000ae576001600260008484815181106200006757620000676200024c565b6020908102919091018101516001600160a01b03168252810191909152604001600020805460ff191691151591909117905580620000a58162000262565b91505062000042565b50620000ba82620000c2565b50506200028a565b600180546001600160a01b0319169055620000dd81620000e0565b50565b600080546001600160a01b038381166001600160a01b0319831681178455604051919092169283917f8be0079c531659141344cd1fd0a4f28419497f9722a3daafe3b4186f6b6457e09190a35050565b80516001600160a01b03811681146200014857600080fd5b919050565b634e487b7160e01b600052604160045260246000fd5b600080604083850312156200017757600080fd5b620001828362000130565b602084810151919350906001600160401b0380821115620001a257600080fd5b818601915086601f830112620001b757600080fd5b815181811115620001cc57620001cc6200014d565b8060051b604051601f19603f83011681018181108582111715620001f457620001f46200014d565b6040529182528482019250838101850191898311156200021357600080fd5b938501935b828510156200023c576200022c8562000130565b8452938501939285019262000218565b8096505050505050509250929050565b634e487b7160e01b600052603260045260246000fd5b6000600182016200028357634e487b7160e01b600052601160045260246000fd5b5060010190565b610a48806200029a6000396000f3fe608060405234801561001057600080fd5b50600436106100b45760003560e01c8063721819fc11610071578063721819fc1461015f57806379ba5097146101935780638da5cb5b1461019b578063c2b7bbb6146101ac578063e30c3978146101bf578063f2fde38b146101d057600080fd5b80631e3ad087146100b957806331c315df146100ce57806336683100146100fe578063607b6d161461010f5780636a2385e814610124578063715018a614610157575b600080fd5b6100cc6100c736600461072f565b6101e3565b005b6100e16100dc3660046107ee565b6102cc565b6040516001600160a01b0390911681526020015b60405180910390f35b6003546040519081526020016100f5565b6101176102f6565b6040516100f59190610807565b610147610132366004610854565b60026020526000908152604090205460ff1681565b60405190151581526020016100f5565b6100cc610358565b6100e161016d36600461089e565b80516020818301810180516004825292820191909301209152546001600160a01b031681565b6100cc61036c565b6000546001600160a01b03166100e1565b6100cc6101ba366004610854565b6103eb565b6001546001600160a01b03166100e1565b6100cc6101de366004610854565b61058d565b6101eb6105fe565b60005b82518110156102c757816002600085848151811061020e5761020e61091e565b60200260200101516001600160a01b03166001600160a01b0316815260200190815260200160002060006101000a81548160ff0219169083151502179055507f41ed586a736eb89bf4aa2dda45d4d9ee10968f05b6fcc12eeea28c1da138456c8382815181106102805761028061091e565b6020026020010151836040516102ad9291906001600160a01b039290921682521515602082015260400190565b60405180910390a1806102bf81610934565b9150506101ee565b505050565b600381815481106102dc57600080fd5b6000918252602090912001546001600160a01b0316905081565b6060600380548060200260200160405190810160405280929190818152602001828054801561034e57602002820191906000526020600020905b81546001600160a01b03168152600190910190602001808311610330575b5050505050905090565b6103606105fe565b61036a6000610658565b565b60015433906001600160a01b031681146103df5760405162461bcd60e51b815260206004820152602960248201527f4f776e61626c6532537465703a2063616c6c6572206973206e6f7420746865206044820152683732bb9037bbb732b960b91b60648201526084015b60405180910390fd5b6103e881610658565b50565b3360009081526002602052604090205460ff1661041b5760405163eaffaa6560e01b815260040160405180910390fd5b6003805460018101825560009182527fc2575a0e9e593c00f959f8c92f12db2869c3395a3b0502d05e2516446f71f85b0180546001600160a01b0319166001600160a01b038416908117909155604080516306fdde0360e01b815290516306fdde039160048082019286929091908290030181865afa1580156104a2573d6000803e3d6000fd5b505050506040513d6000823e601f3d908101601f191682016040526104ca919081019061097f565b905060006001600160a01b03166004826040516104e791906109f6565b908152604051908190036020019020546001600160a01b03161461051e5760405163e99b9f6160e01b815260040160405180910390fd5b8160048260405161052f91906109f6565b9081526040516020918190038201812080546001600160a01b0319166001600160a01b0394851617905591841682527f84f21453a36d947225b71844083d0755a7939b6c09162d5ced65f7cc0ac9d42c910160405180910390a15050565b6105956105fe565b600180546001600160a01b0383166001600160a01b031990911681179091556105c66000546001600160a01b031690565b6001600160a01b03167f38d16b8cac22d99fc7c124b9cd0de2d3fa1faef420bfe791d8c362d765e2270060405160405180910390a350565b6000546001600160a01b0316331461036a5760405162461bcd60e51b815260206004820181905260248201527f4f776e61626c653a2063616c6c6572206973206e6f7420746865206f776e657260448201526064016103d6565b600180546001600160a01b03191690556103e881600080546001600160a01b038381166001600160a01b0319831681178455604051919092169283917f8be0079c531659141344cd1fd0a4f28419497f9722a3daafe3b4186f6b6457e09190a35050565b634e487b7160e01b600052604160045260246000fd5b604051601f8201601f1916810167ffffffffffffffff811182821017156106fb576106fb6106bc565b604052919050565b80356001600160a01b038116811461071a57600080fd5b919050565b8035801515811461071a57600080fd5b6000806040838503121561074257600080fd5b823567ffffffffffffffff8082111561075a57600080fd5b818501915085601f83011261076e57600080fd5b8135602082821115610782576107826106bc565b8160051b92506107938184016106d2565b82815292840181019281810190898511156107ad57600080fd5b948201945b848610156107d2576107c386610703565b825294820194908201906107b2565b96506107e1905087820161071f565b9450505050509250929050565b60006020828403121561080057600080fd5b5035919050565b6020808252825182820181905260009190848201906040850190845b818110156108485783516001600160a01b031683529284019291840191600101610823565b50909695505050505050565b60006020828403121561086657600080fd5b61086f82610703565b9392505050565b600067ffffffffffffffff821115610890576108906106bc565b50601f01601f191660200190565b6000602082840312156108b057600080fd5b813567ffffffffffffffff8111156108c757600080fd5b8201601f810184136108d857600080fd5b80356108eb6108e682610876565b6106d2565b81815285602083850101111561090057600080fd5b81602084016020830137600091810160200191909152949350505050565b634e487b7160e01b600052603260045260246000fd5b60006001820161095457634e487b7160e01b600052601160045260246000fd5b5060010190565b60005b8381101561097657818101518382015260200161095e565b50506000910152565b60006020828403121561099157600080fd5b815167ffffffffffffffff8111156109a857600080fd5b8201601f810184136109b957600080fd5b80516109c76108e682610876565b8181528560208385010111156109dc57600080fd5b6109ed82602083016020860161095b565b95945050505050565b60008251610a0881846020870161095b565b919091019291505056fea264697066735822122035d8eda2eb7f0582872cb5742d3ef02210b3ddccb1c25a5c7dc9a9f951a833a664736f6c63430008130033","linkReferences":{}},"methodIdentifiers":{"acceptOwnership()":"79ba5097","addPair(address)":"c2b7bbb6","deployedPairsArray(uint256)":"31c315df","deployedPairsByName(string)":"721819fc","deployedPairsLength()":"36683100","deployers(address)":"6a2385e8","getAllPairAddresses()":"607b6d16","owner()":"8da5cb5b","pendingOwner()":"e30c3978","renounceOwnership()":"715018a6","setDeployers(address[],bool)":"1e3ad087","transferOwnership(address)":"f2fde38b"},"id":115}