{"abi":[{"type":"constructor","inputs":[],"stateMutability":"nonpayable"},{"type":"function","name":"acceptOwnership","inputs":[],"outputs":[],"stateMutability":"nonpayable"},{"type":"function","name":"fraxlendDeployerWhitelist","inputs":[{"name":"","type":"address","internalType":"address"}],"outputs":[{"name":"","type":"bool","internalType":"bool"}],"stateMutability":"view"},{"type":"function","name":"owner","inputs":[],"outputs":[{"name":"","type":"address","internalType":"address"}],"stateMutability":"view"},{"type":"function","name":"pendingOwner","inputs":[],"outputs":[{"name":"","type":"address","internalType":"address"}],"stateMutability":"view"},{"type":"function","name":"renounceOwnership","inputs":[],"outputs":[],"stateMutability":"nonpayable"},{"type":"function","name":"setFraxlendDeployerWhitelist","inputs":[{"name":"_addresses","type":"address[]","internalType":"address[]"},{"name":"_bool","type":"bool","internalType":"bool"}],"outputs":[],"stateMutability":"nonpayable"},{"type":"function","name":"transferOwnership","inputs":[{"name":"newOwner","type":"address","internalType":"address"}],"outputs":[],"stateMutability":"nonpayable"},{"type":"event","name":"OwnershipTransferStarted","inputs":[{"name":"previousOwner","type":"address","indexed":true,"internalType":"address"},{"name":"newOwner","type":"address","indexed":true,"internalType":"address"}],"anonymous":false},{"type":"event","name":"OwnershipTransferred","inputs":[{"name":"previousOwner","type":"address","indexed":true,"internalType":"address"},{"name":"newOwner","type":"address","indexed":true,"internalType":"address"}],"anonymous":false},{"type":"event","name":"SetFraxlendDeployerWhitelist","inputs":[{"name":"_address","type":"address","indexed":true,"internalType":"address"},{"name":"_bool","type":"bool","indexed":false,"internalType":"bool"}],"anonymous":false}],"bytecode":{"object":"0x608060405234801561001057600080fd5b5061001a3361001f565b61008b565b600180546001600160a01b03191690556100388161003b565b50565b600080546001600160a01b038381166001600160a01b0319831681178455604051919092169283917f8be0079c531659141344cd1fd0a4f28419497f9722a3daafe3b4186f6b6457e09190a35050565b6105028061009a6000396000f3fe608060405234801561001057600080fd5b506004361061007d5760003560e01c80638da5cb5b1161005b5780638da5cb5b146100a7578063a3e982d8146100d1578063e30c397814610104578063f2fde38b1461011557600080fd5b8063715018a61461008257806379ba50971461008c57806384c134d714610094575b600080fd5b61008a610128565b005b61008a61013c565b61008a6100a23660046103d4565b6101bb565b6000546001600160a01b03165b6040516001600160a01b0390911681526020015b60405180910390f35b6100f46100df36600461045f565b60026020526000908152604090205460ff1681565b60405190151581526020016100c8565b6001546001600160a01b03166100b4565b61008a61012336600461045f565b6102a5565b610130610316565b61013a6000610370565b565b60015433906001600160a01b031681146101af5760405162461bcd60e51b815260206004820152602960248201527f4f776e61626c6532537465703a2063616c6c6572206973206e6f7420746865206044820152683732bb9037bbb732b960b91b60648201526084015b60405180910390fd5b6101b881610370565b50565b6101c3610316565b60005b8281101561029f5781600260008686858181106101e5576101e561048f565b90506020020160208101906101fa919061045f565b6001600160a01b031681526020810191909152604001600020805460ff19169115159190911790558383828181106102345761023461048f565b9050602002016020810190610249919061045f565b6001600160a01b03167fda0d883e158071aaff93f07b843290deebb2143a8637d6059f1fba27b06c1bf683604051610285911515815260200190565b60405180910390a280610297816104a5565b9150506101c6565b50505050565b6102ad610316565b600180546001600160a01b0383166001600160a01b031990911681179091556102de6000546001600160a01b031690565b6001600160a01b03167f38d16b8cac22d99fc7c124b9cd0de2d3fa1faef420bfe791d8c362d765e2270060405160405180910390a350565b6000546001600160a01b0316331461013a5760405162461bcd60e51b815260206004820181905260248201527f4f776e61626c653a2063616c6c6572206973206e6f7420746865206f776e657260448201526064016101a6565b600180546001600160a01b03191690556101b881600080546001600160a01b038381166001600160a01b0319831681178455604051919092169283917f8be0079c531659141344cd1fd0a4f28419497f9722a3daafe3b4186f6b6457e09190a35050565b6000806000604084860312156103e957600080fd5b833567ffffffffffffffff8082111561040157600080fd5b818601915086601f83011261041557600080fd5b81358181111561042457600080fd5b8760208260051b850101111561043957600080fd5b60209283019550935050840135801515811461045457600080fd5b809150509250925092565b60006020828403121561047157600080fd5b81356001600160a01b038116811461048857600080fd5b9392505050565b634e487b7160e01b600052603260045260246000fd5b6000600182016104c557634e487b7160e01b600052601160045260246000fd5b506001019056fea2646970667358221220b7d5d7e0547294874c39a0370c1ccfbf6b70d3ed8b3edfc5945896db120abaac64736f6c63430008130033","linkReferences":{}},"methodIdentifiers":{"acceptOwnership()":"79ba5097","fraxlendDeployerWhitelist(address)":"a3e982d8","owner()":"8da5cb5b","pendingOwner()":"e30c3978","renounceOwnership()":"715018a6","setFraxlendDeployerWhitelist(address[],bool)":"84c134d7","transferOwnership(address)":"f2fde38b"},"id":116}