{"abi":[{"type":"constructor","inputs":[{"name":"_name","type":"string","internalType":"string"},{"name":"_symbol","type":"string","internalType":"string"},{"name":"_pod","type":"address","internalType":"contract IDecentralizedIndex"},{"name":"_dexAdapter","type":"address","internalType":"contract IDexAdapter"},{"name":"_utils","type":"address","internalType":"contract IIndexUtils"},{"name":"_whitelist","type":"address","internalType":"contract IRewardsWhitelister"},{"name":"_v3TwapUtilities","type":"address","internalType":"contract IV3TwapUtilities"}],"stateMutability":"nonpayable"},{"type":"function","name":"DOMAIN_SEPARATOR","inputs":[],"outputs":[{"name":"","type":"bytes32","internalType":"bytes32"}],"stateMutability":"view"},{"type":"function","name":"allowance","inputs":[{"name":"owner","type":"address","internalType":"address"},{"name":"spender","type":"address","internalType":"address"}],"outputs":[{"name":"","type":"uint256","internalType":"uint256"}],"stateMutability":"view"},{"type":"function","name":"approve","inputs":[{"name":"spender","type":"address","internalType":"address"},{"name":"amount","type":"uint256","internalType":"uint256"}],"outputs":[{"name":"","type":"bool","internalType":"bool"}],"stateMutability":"nonpayable"},{"type":"function","name":"asset","inputs":[],"outputs":[{"name":"","type":"address","internalType":"address"}],"stateMutability":"view"},{"type":"function","name":"balanceOf","inputs":[{"name":"account","type":"address","internalType":"address"}],"outputs":[{"name":"","type":"uint256","internalType":"uint256"}],"stateMutability":"view"},{"type":"function","name":"convertToAssets","inputs":[{"name":"_shares","type":"uint256","internalType":"uint256"}],"outputs":[{"name":"_assets","type":"uint256","internalType":"uint256"}],"stateMutability":"view"},{"type":"function","name":"convertToShares","inputs":[{"name":"_assets","type":"uint256","internalType":"uint256"}],"outputs":[{"name":"_shares","type":"uint256","internalType":"uint256"}],"stateMutability":"view"},{"type":"function","name":"decimals","inputs":[],"outputs":[{"name":"","type":"uint8","internalType":"uint8"}],"stateMutability":"view"},{"type":"function","name":"decreaseAllowance","inputs":[{"name":"spender","type":"address","internalType":"address"},{"name":"subtractedValue","type":"uint256","internalType":"uint256"}],"outputs":[{"name":"","type":"bool","internalType":"bool"}],"stateMutability":"nonpayable"},{"type":"function","name":"deposit","inputs":[{"name":"_assets","type":"uint256","internalType":"uint256"},{"name":"_receiver","type":"address","internalType":"address"}],"outputs":[{"name":"_shares","type":"uint256","internalType":"uint256"}],"stateMutability":"nonpayable"},{"type":"function","name":"eip712Domain","inputs":[],"outputs":[{"name":"fields","type":"bytes1","internalType":"bytes1"},{"name":"name","type":"string","internalType":"string"},{"name":"version","type":"string","internalType":"string"},{"name":"chainId","type":"uint256","internalType":"uint256"},{"name":"verifyingContract","type":"address","internalType":"address"},{"name":"salt","type":"bytes32","internalType":"bytes32"},{"name":"extensions","type":"uint256[]","internalType":"uint256[]"}],"stateMutability":"view"},{"type":"function","name":"increaseAllowance","inputs":[{"name":"spender","type":"address","internalType":"address"},{"name":"addedValue","type":"uint256","internalType":"uint256"}],"outputs":[{"name":"","type":"bool","internalType":"bool"}],"stateMutability":"nonpayable"},{"type":"function","name":"indexUtils","inputs":[],"outputs":[{"name":"","type":"address","internalType":"contract IIndexUtils"}],"stateMutability":"view"},{"type":"function","name":"maxDeposit","inputs":[{"name":"","type":"address","internalType":"address"}],"outputs":[{"name":"maxAssets","type":"uint256","internalType":"uint256"}],"stateMutability":"pure"},{"type":"function","name":"maxMint","inputs":[{"name":"","type":"address","internalType":"address"}],"outputs":[{"name":"maxShares","type":"uint256","internalType":"uint256"}],"stateMutability":"pure"},{"type":"function","name":"maxRedeem","inputs":[{"name":"_owner","type":"address","internalType":"address"}],"outputs":[{"name":"_maxShares","type":"uint256","internalType":"uint256"}],"stateMutability":"view"},{"type":"function","name":"maxWithdraw","inputs":[{"name":"_owner","type":"address","internalType":"address"}],"outputs":[{"name":"maxAssets","type":"uint256","internalType":"uint256"}],"stateMutability":"view"},{"type":"function","name":"mint","inputs":[{"name":"_shares","type":"uint256","internalType":"uint256"},{"name":"_receiver","type":"address","internalType":"address"}],"outputs":[{"name":"_assets","type":"uint256","internalType":"uint256"}],"stateMutability":"nonpayable"},{"type":"function","name":"name","inputs":[],"outputs":[{"name":"","type":"string","internalType":"string"}],"stateMutability":"view"},{"type":"function","name":"nonces","inputs":[{"name":"owner","type":"address","internalType":"address"}],"outputs":[{"name":"","type":"uint256","internalType":"uint256"}],"stateMutability":"view"},{"type":"function","name":"owner","inputs":[],"outputs":[{"name":"","type":"address","internalType":"address"}],"stateMutability":"view"},{"type":"function","name":"permit","inputs":[{"name":"owner","type":"address","internalType":"address"},{"name":"spender","type":"address","internalType":"address"},{"name":"value","type":"uint256","internalType":"uint256"},{"name":"deadline","type":"uint256","internalType":"uint256"},{"name":"v","type":"uint8","internalType":"uint8"},{"name":"r","type":"bytes32","internalType":"bytes32"},{"name":"s","type":"bytes32","internalType":"bytes32"}],"outputs":[],"stateMutability":"nonpayable"},{"type":"function","name":"pod","inputs":[],"outputs":[{"name":"","type":"address","internalType":"contract IDecentralizedIndex"}],"stateMutability":"view"},{"type":"function","name":"previewDeposit","inputs":[{"name":"_assets","type":"uint256","internalType":"uint256"}],"outputs":[{"name":"_shares","type":"uint256","internalType":"uint256"}],"stateMutability":"view"},{"type":"function","name":"previewMint","inputs":[{"name":"_shares","type":"uint256","internalType":"uint256"}],"outputs":[{"name":"_assets","type":"uint256","internalType":"uint256"}],"stateMutability":"view"},{"type":"function","name":"previewRedeem","inputs":[{"name":"_shares","type":"uint256","internalType":"uint256"}],"outputs":[{"name":"_assets","type":"uint256","internalType":"uint256"}],"stateMutability":"view"},{"type":"function","name":"previewWithdraw","inputs":[{"name":"_assets","type":"uint256","internalType":"uint256"}],"outputs":[{"name":"_shares","type":"uint256","internalType":"uint256"}],"stateMutability":"view"},{"type":"function","name":"processAllRewardsTokensToPodLp","inputs":[{"name":"_amountLpOutMin","type":"uint256","internalType":"uint256"},{"name":"_deadline","type":"uint256","internalType":"uint256"}],"outputs":[{"name":"","type":"uint256","internalType":"uint256"}],"stateMutability":"nonpayable"},{"type":"function","name":"protocolFee","inputs":[],"outputs":[{"name":"","type":"uint16","internalType":"uint16"}],"stateMutability":"view"},{"type":"function","name":"redeem","inputs":[{"name":"_shares","type":"uint256","internalType":"uint256"},{"name":"_receiver","type":"address","internalType":"address"},{"name":"","type":"address","internalType":"address"}],"outputs":[{"name":"_assets","type":"uint256","internalType":"uint256"}],"stateMutability":"nonpayable"},{"type":"function","name":"renounceOwnership","inputs":[],"outputs":[],"stateMutability":"nonpayable"},{"type":"function","name":"rewardsWhitelister","inputs":[],"outputs":[{"name":"","type":"address","internalType":"contract IRewardsWhitelister"}],"stateMutability":"view"},{"type":"function","name":"setIndexUtils","inputs":[{"name":"_utils","type":"address","internalType":"contract IIndexUtils"}],"outputs":[],"stateMutability":"nonpayable"},{"type":"function","name":"setPod","inputs":[{"name":"_pod","type":"address","internalType":"contract IDecentralizedIndex"}],"outputs":[],"stateMutability":"nonpayable"},{"type":"function","name":"setProtocolFee","inputs":[{"name":"_newFee","type":"uint16","internalType":"uint16"}],"outputs":[],"stateMutability":"nonpayable"},{"type":"function","name":"setRewardsWhitelister","inputs":[{"name":"_wl","type":"address","internalType":"contract IRewardsWhitelister"}],"outputs":[],"stateMutability":"nonpayable"},{"type":"function","name":"setYieldConvEnabled","inputs":[{"name":"_enabled","type":"bool","internalType":"bool"}],"outputs":[],"stateMutability":"nonpayable"},{"type":"function","name":"setZapMap","inputs":[{"name":"_in","type":"address","internalType":"address"},{"name":"_out","type":"address","internalType":"address"},{"name":"_pools","type":"tuple","internalType":"struct AutoCompoundingPodLp.Pools","components":[{"name":"pool1","type":"address","internalType":"address"},{"name":"pool2","type":"address","internalType":"address"}]}],"outputs":[],"stateMutability":"nonpayable"},{"type":"function","name":"swapMaps","inputs":[{"name":"","type":"address","internalType":"address"},{"name":"","type":"address","internalType":"address"}],"outputs":[{"name":"pool1","type":"address","internalType":"address"},{"name":"pool2","type":"address","internalType":"address"}],"stateMutability":"view"},{"type":"function","name":"symbol","inputs":[],"outputs":[{"name":"","type":"string","internalType":"string"}],"stateMutability":"view"},{"type":"function","name":"totalAssets","inputs":[],"outputs":[{"name":"","type":"uint256","internalType":"uint256"}],"stateMutability":"view"},{"type":"function","name":"totalSupply","inputs":[],"outputs":[{"name":"","type":"uint256","internalType":"uint256"}],"stateMutability":"view"},{"type":"function","name":"transfer","inputs":[{"name":"to","type":"address","internalType":"address"},{"name":"amount","type":"uint256","internalType":"uint256"}],"outputs":[{"name":"","type":"bool","internalType":"bool"}],"stateMutability":"nonpayable"},{"type":"function","name":"transferFrom","inputs":[{"name":"from","type":"address","internalType":"address"},{"name":"to","type":"address","internalType":"address"},{"name":"amount","type":"uint256","internalType":"uint256"}],"outputs":[{"name":"","type":"bool","internalType":"bool"}],"stateMutability":"nonpayable"},{"type":"function","name":"transferOwnership","inputs":[{"name":"newOwner","type":"address","internalType":"address"}],"outputs":[],"stateMutability":"nonpayable"},{"type":"function","name":"withdraw","inputs":[{"name":"_assets","type":"uint256","internalType":"uint256"},{"name":"_receiver","type":"address","internalType":"address"},{"name":"","type":"address","internalType":"address"}],"outputs":[{"name":"_shares","type":"uint256","internalType":"uint256"}],"stateMutability":"nonpayable"},{"type":"function","name":"yieldConvEnabled","inputs":[],"outputs":[{"name":"","type":"bool","internalType":"bool"}],"stateMutability":"view"},{"type":"event","name":"Approval","inputs":[{"name":"owner","type":"address","indexed":true,"internalType":"address"},{"name":"spender","type":"address","indexed":true,"internalType":"address"},{"name":"value","type":"uint256","indexed":false,"internalType":"uint256"}],"anonymous":false},{"type":"event","name":"Deposit","inputs":[{"name":"sender","type":"address","indexed":true,"internalType":"address"},{"name":"owner","type":"address","indexed":true,"internalType":"address"},{"name":"assets","type":"uint256","indexed":false,"internalType":"uint256"},{"name":"shares","type":"uint256","indexed":false,"internalType":"uint256"}],"anonymous":false},{"type":"event","name":"EIP712DomainChanged","inputs":[],"anonymous":false},{"type":"event","name":"OwnershipTransferred","inputs":[{"name":"previousOwner","type":"address","indexed":true,"internalType":"address"},{"name":"newOwner","type":"address","indexed":true,"internalType":"address"}],"anonymous":false},{"type":"event","name":"TokenToPairedLpSwapError","inputs":[{"name":"rewardsToken","type":"address","indexed":false,"internalType":"address"},{"name":"pairedLpToken","type":"address","indexed":false,"internalType":"address"},{"name":"amountIn","type":"uint256","indexed":false,"internalType":"uint256"}],"anonymous":false},{"type":"event","name":"Transfer","inputs":[{"name":"from","type":"address","indexed":true,"internalType":"address"},{"name":"to","type":"address","indexed":true,"internalType":"address"},{"name":"value","type":"uint256","indexed":false,"internalType":"uint256"}],"anonymous":false},{"type":"event","name":"Withdraw","inputs":[{"name":"sender","type":"address","indexed":true,"internalType":"address"},{"name":"receiver","type":"address","indexed":true,"internalType":"address"},{"name":"owner","type":"address","indexed":true,"internalType":"address"},{"name":"assets","type":"uint256","indexed":false,"internalType":"uint256"},{"name":"shares","type":"uint256","indexed":false,"internalType":"uint256"}],"anonymous":false},{"type":"error","name":"InvalidShortString","inputs":[]},{"type":"error","name":"StringTooLong","inputs":[{"name":"str","type":"string","internalType":"string"}]}],"bytecode":{"object":"0x6101a0604052600c805462ffffff60a01b191661320160a01b1790553480156200002857600080fd5b5060405162003d1038038062003d108339810160408190526200004b916200035c565b6040805180820190915260018152603160f81b60208201528790819081896003620000778382620004c2565b506004620000868282620004c2565b5062000098915083905060056200019f565b61012052620000a98160066200019f565b61014052815160208084019190912060e052815190820120610100524660a0526200013760e05161010051604080517f8b73c3c69bb8fe3d512ecc4cf759cc79239f7b179b0ffacaa9a75d522b39400f60208201529081019290925260608201524660808201523060a082015260009060c00160405160208183030381529060405280519060200120905090565b60805250503060c052506200014c33620001d8565b6001600160a01b0393841661016052831661018052600a80546001600160a01b0319908116958516959095179055600b8054851692841692909217909155600c8054909316911617905550620005e89050565b6000602083511015620001bf57620001b7836200022a565b9050620001d2565b81620001cc8482620004c2565b5060ff90505b92915050565b600980546001600160a01b038381166001600160a01b0319831681179093556040519116919082907f8be0079c531659141344cd1fd0a4f28419497f9722a3daafe3b4186f6b6457e090600090a35050565b600080829050601f8151111562000261578260405163305a27a960e01b81526004016200025891906200058e565b60405180910390fd5b80516200026e82620005c3565b179392505050565b634e487b7160e01b600052604160045260246000fd5b60005b83811015620002a95781810151838201526020016200028f565b50506000910152565b600082601f830112620002c457600080fd5b81516001600160401b0380821115620002e157620002e162000276565b604051601f8301601f19908116603f011681019082821181831017156200030c576200030c62000276565b816040528381528660208588010111156200032657600080fd5b620003398460208301602089016200028c565b9695505050505050565b6001600160a01b03811681146200035957600080fd5b50565b600080600080600080600060e0888a0312156200037857600080fd5b87516001600160401b03808211156200039057600080fd5b6200039e8b838c01620002b2565b985060208a0151915080821115620003b557600080fd5b50620003c48a828b01620002b2565b9650506040880151620003d78162000343565b6060890151909550620003ea8162000343565b6080890151909450620003fd8162000343565b60a0890151909350620004108162000343565b60c0890151909250620004238162000343565b8091505092959891949750929550565b600181811c908216806200044857607f821691505b6020821081036200046957634e487b7160e01b600052602260045260246000fd5b50919050565b601f821115620004bd57600081815260208120601f850160051c81016020861015620004985750805b601f850160051c820191505b81811015620004b957828155600101620004a4565b5050505b505050565b81516001600160401b03811115620004de57620004de62000276565b620004f681620004ef845462000433565b846200046f565b602080601f8311600181146200052e5760008415620005155750858301515b600019600386901b1c1916600185901b178555620004b9565b600085815260208120601f198616915b828110156200055f578886015182559484019460019091019084016200053e565b50858210156200057e5787850151600019600388901b60f8161c191681555b5050505050600190811b01905550565b6020815260008251806020840152620005af8160408501602087016200028c565b601f01601f19169190910160400192915050565b80516020808301519190811015620004695760001960209190910360031b1b16919050565b60805160a05160c05160e051610100516101205161014051610160516101805161367f620006916000396000818161215f01526121ef0152600081816120cf015281816122ed01528181612355015281816123fb01528181612544015281816125a701528181612dcc0152612e210152600061084f01526000610824015260006112a801526000611280015260006111db015260006112050152600061122f015261367f6000f3fe608060405234801561001057600080fd5b50600436106102955760003560e01c806395d89b4111610167578063c6e6f592116100ce578063da04d01c11610087578063da04d01c146105f1578063dd62ed3e14610604578063e4467f3514610617578063ed0ba9421461062a578063ef8b30f714610311578063f2fde38b1461063e57600080fd5b8063c6e6f5921461057f578063ce96cb7714610592578063d0b316e5146105a5578063d23eed71146105b8578063d505accf146105cb578063d905777e146105de57600080fd5b8063b3d7f6b911610120578063b3d7f6b91461039c578063b460af9414610533578063ba08765214610546578063be8a6e2f14610559578063be9c8dbb1461056c578063c63d75b61461038957600080fd5b806395d89b411461046b578063a457c2d714610473578063a52f01e314610486578063a88dbb36146104e5578063a9059cbb146104f8578063b0e21e8a1461050b57600080fd5b8063395093511161020b57806370a08231116101c457806370a08231146103e8578063715018a6146104115780637ecebe001461041957806384b0196e1461042c5780638da5cb5b1461044757806394bf804d1461045857600080fd5b80633950935114610376578063402d267d146103895780634cdad5061461039c5780635db48b97146103af5780635efa7fc0146103c25780636e553f65146103d557600080fd5b80630a28a4771161025d5780630a28a4771461031157806318160ddd1461032457806323b872dd1461032c578063313ce5671461033f5780633644e5151461034e57806338d52e0f1461035657600080fd5b806301e1d1141461029a57806306d654ec146102b157806306fdde03146102c657806307a2d13a146102db578063095ea7b3146102ee575b600080fd5b600f545b6040519081526020015b60405180910390f35b6102c46102bf366004613034565b610651565b005b6102ce61067b565b6040516102a891906130a1565b61029e6102e93660046130b4565b61070d565b6103016102fc3660046130cd565b61073a565b60405190151581526020016102a8565b61029e61031f3660046130b4565b610752565b60025461029e565b61030161033a3660046130f9565b61075d565b604051601281526020016102a8565b61029e610783565b61035e610792565b6040516001600160a01b0390911681526020016102a8565b6103016103843660046130cd565b61079c565b61029e610397366004613034565b6107be565b61029e6103aa3660046130b4565b6107cd565b600b5461035e906001600160a01b031681565b600c5461035e906001600160a01b031681565b61029e6103e336600461313a565b6107d8565b61029e6103f6366004613034565b6001600160a01b031660009081526020819052604090205490565b6102c46107e4565b61029e610427366004613034565b6107f8565b610434610816565b6040516102a8979695949392919061316a565b6009546001600160a01b031661035e565b61029e61046636600461313a565b61089f565b6102ce6108bd565b6103016104813660046130cd565b6108cc565b6104c5610494366004613200565b600d602090815260009283526040808420909152908252902080546001909101546001600160a01b03918216911682565b604080516001600160a01b039384168152929091166020830152016102a8565b600a5461035e906001600160a01b031681565b6103016105063660046130cd565b610957565b600c5461052090600160a81b900461ffff1681565b60405161ffff90911681526020016102a8565b61029e61054136600461322e565b610965565b61029e61055436600461322e565b610984565b61029e610567366004613270565b610998565b6102c461057a366004613034565b6109ac565b61029e61058d3660046130b4565b610a13565b61029e6105a0366004613034565b610a2f565b6102c46105b33660046132d9565b610a65565b6102c46105c6366004613382565b610ac1565b6102c46105d936600461339f565b610b2d565b61029e6105ec366004613034565b610c91565b6102c46105ff366004613034565b610caf565b61029e610612366004613200565b610cd9565b6102c4610625366004613416565b610d04565b600c5461030190600160a01b900460ff1681565b6102c461064c366004613034565b610d6a565b610659610de3565b600c80546001600160a01b0319166001600160a01b0392909216919091179055565b60606003805461068a9061343a565b80601f01602080910402602001604051908101604052809291908181526020018280546106b69061343a565b80156107035780601f106106d857610100808354040283529160200191610703565b820191906000526020600020905b8154815290600101906020018083116106e657829003601f168201915b5050505050905090565b6000670de0b6b3a7640000610720610e3d565b61072a9084613484565b610734919061349b565b92915050565b600033610748818585610e8c565b5060019392505050565b600061073482610a13565b60003361076b858285610fb0565b61077685858561102a565b60019150505b9392505050565b600061078d6111ce565b905090565b600061078d6112f9565b6000336107488185856107af8383610cd9565b6107b991906134bd565b610e8c565b600061073460016000196134d0565b60006107348261070d565b600061077c8383611367565b6107ec610de3565b6107f66000611441565b565b6001600160a01b038116600090815260076020526040812054610734565b60006060808280808361084a7f00000000000000000000000000000000000000000000000000000000000000006005611493565b6108757f00000000000000000000000000000000000000000000000000000000000000006006611493565b60408051600080825260208201909252600f60f81b9b939a50919850469750309650945092509050565b60006108aa8361070d565b90506108b68183611367565b5092915050565b60606004805461068a9061343a565b600033816108da8286610cd9565b90508381101561093f5760405162461bcd60e51b815260206004820152602560248201527f45524332303a2064656372656173656420616c6c6f77616e63652062656c6f77604482015264207a65726f60d81b60648201526084015b60405180910390fd5b61094c8286868403610e8c565b506001949350505050565b60003361074881858561102a565b600061097084610a13565b905061097c818461153e565b509392505050565b6000610990848461153e565b949350505050565b60006109a2610de3565b61077c8383611617565b6109b4610de3565b600a546001600160a01b0316156109f15760405162461bcd60e51b81526020600482015260016024820152605360f81b6044820152606401610936565b600a80546001600160a01b0319166001600160a01b0392909216919091179055565b6000610a1d610e3d565b61072a670de0b6b3a764000084613484565b6000670de0b6b3a7640000610a42610e3d565b6001600160a01b03841660009081526020819052604090205461072a9190613484565b610a6d610de3565b6001600160a01b039283166000908152600d602090815260408083209486168352938152929020815181549085166001600160a01b0319918216178255929091015160019091018054919093169116179055565b610ac9610de3565b801515600c60149054906101000a900460ff16151503610b0f5760405162461bcd60e51b81526020600482015260016024820152601560fa1b6044820152606401610936565b600c8054911515600160a01b0260ff60a01b19909216919091179055565b83421115610b7d5760405162461bcd60e51b815260206004820152601d60248201527f45524332305065726d69743a206578706972656420646561646c696e650000006044820152606401610936565b60007f6e71edae12b1b97f4d1f60370fef10105fa2faae0126114a169c64845d6126c9888888610bac8c61179d565b6040805160208101969096526001600160a01b0394851690860152929091166060840152608083015260a082015260c0810186905260e0016040516020818303038152906040528051906020012090506000610c07826117c5565b90506000610c17828787876117f2565b9050896001600160a01b0316816001600160a01b031614610c7a5760405162461bcd60e51b815260206004820152601e60248201527f45524332305065726d69743a20696e76616c6964207369676e617475726500006044820152606401610936565b610c858a8a8a610e8c565b50505050505050505050565b6001600160a01b038116600090815260208190526040812054610734565b610cb7610de3565b600b80546001600160a01b0319166001600160a01b0392909216919091179055565b6001600160a01b03918216600090815260016020908152604080832093909416825291909152205490565b610d0c610de3565b6103e88161ffff161115610d485760405162461bcd60e51b815260206004820152600360248201526209a82b60eb1b6044820152606401610936565b600c805461ffff909216600160a81b0261ffff60a81b19909216919091179055565b610d72610de3565b6001600160a01b038116610dd75760405162461bcd60e51b815260206004820152602660248201527f4f776e61626c653a206e6577206f776e657220697320746865207a65726f206160448201526564647265737360d01b6064820152608401610936565b610de081611441565b50565b6009546001600160a01b031633146107f65760405162461bcd60e51b815260206004820181905260248201527f4f776e61626c653a2063616c6c6572206973206e6f7420746865206f776e65726044820152606401610936565b600080610e4960025490565b90508015610e7c5780610e5b600f5490565b610e6d90670de0b6b3a7640000613484565b610e77919061349b565b610e86565b670de0b6b3a76400005b91505090565b6001600160a01b038316610eee5760405162461bcd60e51b8152602060048201526024808201527f45524332303a20617070726f76652066726f6d20746865207a65726f206164646044820152637265737360e01b6064820152608401610936565b6001600160a01b038216610f4f5760405162461bcd60e51b815260206004820152602260248201527f45524332303a20617070726f766520746f20746865207a65726f206164647265604482015261737360f01b6064820152608401610936565b6001600160a01b0383811660008181526001602090815260408083209487168084529482529182902085905590518481527f8c5be1e5ebec7d5bd14f71427d1e84f3dd0314c0f7b2291e5b200ac8c7c3b925910160405180910390a3505050565b6000610fbc8484610cd9565b9050600019811461102457818110156110175760405162461bcd60e51b815260206004820152601d60248201527f45524332303a20696e73756666696369656e7420616c6c6f77616e63650000006044820152606401610936565b6110248484848403610e8c565b50505050565b6001600160a01b03831661108e5760405162461bcd60e51b815260206004820152602560248201527f45524332303a207472616e736665722066726f6d20746865207a65726f206164604482015264647265737360d81b6064820152608401610936565b6001600160a01b0382166110f05760405162461bcd60e51b815260206004820152602360248201527f45524332303a207472616e7366657220746f20746865207a65726f206164647260448201526265737360e81b6064820152608401610936565b6001600160a01b038316600090815260208190526040902054818110156111685760405162461bcd60e51b815260206004820152602660248201527f45524332303a207472616e7366657220616d6f756e7420657863656564732062604482015265616c616e636560d01b6064820152608401610936565b6001600160a01b03848116600081815260208181526040808320878703905593871680835291849020805487019055925185815290927fddf252ad1be2c89b69c2b068fc378daa952ba7f163c4a11628f55a4df523b3ef910160405180910390a3611024565b6000306001600160a01b037f00000000000000000000000000000000000000000000000000000000000000001614801561122757507f000000000000000000000000000000000000000000000000000000000000000046145b1561125157507f000000000000000000000000000000000000000000000000000000000000000090565b61078d604080517f8b73c3c69bb8fe3d512ecc4cf759cc79239f7b179b0ffacaa9a75d522b39400f60208201527f0000000000000000000000000000000000000000000000000000000000000000918101919091527f000000000000000000000000000000000000000000000000000000000000000060608201524660808201523060a082015260009060c00160405160208183030381529060405280519060200120905090565b600a5460408051634a6634cf60e11b815290516000926001600160a01b0316916394cc699e9160048083019260209291908290030181865afa158015611343573d6000803e3d6000fd5b505050506040513d601f19601f8201168201806040525081019061078d91906134e3565b60008260000361139d5760405162461bcd60e51b81526020600482015260016024820152604d60f81b6044820152606401610936565b6113a8600042611617565b506113b283610a13565b905082600f60008282546113c691906134bd565b909155506113eb90503330856113da6112f9565b6001600160a01b031692919061181f565b6113f5828261188a565b60408051848152602081018390526001600160a01b0384169133917fdcbc1c05240f31ff3ad067ef1ee35ce4997762752e3a095284754544f4c709d7910160405180910390a392915050565b600980546001600160a01b038381166001600160a01b0319831681179093556040519116919082907f8be0079c531659141344cd1fd0a4f28419497f9722a3daafe3b4186f6b6457e090600090a35050565b606060ff83146114ad576114a683611949565b9050610734565b8180546114b99061343a565b80601f01602080910402602001604051908101604052809291908181526020018280546114e59061343a565b80156115325780601f1061150757610100808354040283529160200191611532565b820191906000526020600020905b81548152906001019060200180831161151557829003601f168201915b50505050509050610734565b6000826000036115745760405162461bcd60e51b81526020600482015260016024820152602160f91b6044820152606401610936565b61157f600042611617565b506115898361070d565b90506115953384611988565b6115b282826115a26112f9565b6001600160a01b03169190611aba565b80600f60008282546115c491906134d0565b909155505060408051828152602081018590526001600160a01b03841691829133917ffbde797d201c681b91056529119e0b02407c7bb96a4a2c75c01fc9667232c8db910160405180910390a492915050565b600c54600090600160a01b900460ff161561073457600c546040805163326df48b60e21b815290516000926001600160a01b03169163c9b7d22c91600480830192869291908290030181865afa158015611675573d6000803e3d6000fd5b505050506040513d6000823e601f3d908101601f1916820160405261169d9190810190613500565b805190915060005b818110156117945760008382815181106116c1576116c16135b2565b60209081029190910101516040516370a0823160e01b81523060048201529091506000906001600160a01b038316906370a0823190602401602060405180830381865afa158015611716573d6000803e3d6000fd5b505050506040513d601f19601f8201168201806040525081019061173a91906135c8565b90508060000361174b575050611782565b600061175983838b8b611aea565b905061176581886134bd565b965080600f600082825461177991906134bd565b90915550505050505b8061178c816135e1565b9150506116a5565b50505092915050565b6001600160a01b03811660009081526007602052604090208054600181018255905b50919050565b60006107346117d26111ce565b8360405161190160f01b8152600281019290925260228201526042902090565b600080600061180387878787611bdf565b9150915061181081611ca3565b5095945050505050565b505050565b6040516001600160a01b03808516602483015283166044820152606481018290526110249085906323b872dd60e01b906084015b60408051601f198184030181529190526020810180516001600160e01b03166001600160e01b031990931692909217909152611ded565b6001600160a01b0382166118e05760405162461bcd60e51b815260206004820152601f60248201527f45524332303a206d696e7420746f20746865207a65726f2061646472657373006044820152606401610936565b80600260008282546118f291906134bd565b90915550506001600160a01b038216600081815260208181526040808320805486019055518481527fddf252ad1be2c89b69c2b068fc378daa952ba7f163c4a11628f55a4df523b3ef910160405180910390a35050565b6060600061195683611ec2565b604080516020808252818301909252919250600091906020820181803683375050509182525060208101929092525090565b6001600160a01b0382166119e85760405162461bcd60e51b815260206004820152602160248201527f45524332303a206275726e2066726f6d20746865207a65726f206164647265736044820152607360f81b6064820152608401610936565b6001600160a01b03821660009081526020819052604090205481811015611a5c5760405162461bcd60e51b815260206004820152602260248201527f45524332303a206275726e20616d6f756e7420657863656564732062616c616e604482015261636560f01b6064820152608401610936565b6001600160a01b0383166000818152602081815260408083208686039055600280548790039055518581529192917fddf252ad1be2c89b69c2b068fc378daa952ba7f163c4a11628f55a4df523b3ef910160405180910390a3505050565b6040516001600160a01b03831660248201526044810182905261181a90849063a9059cbb60e01b90606401611853565b600080611af986866000611eea565b600c54909150600160a81b900461ffff1615611bca57600c546000906103e890611b2e90600160a81b900461ffff1684613484565b611b38919061349b565b9050611bbc611b4f6009546001600160a01b031690565b600a5460408051634f4ce61d60e01b8152905185926001600160a01b031691634f4ce61d9160048083019260209291908290030181865afa158015611b98573d6000803e3d6000fd5b505050506040513d601f19601f820116820180604052508101906115a291906134e3565b611bc681836134d0565b9150505b611bd58185856124aa565b9695505050505050565b6000807f7fffffffffffffffffffffffffffffff5d576e7357a4501ddfe92f46681b20a0831115611c165750600090506003611c9a565b6040805160008082526020820180845289905260ff881692820192909252606081018690526080810185905260019060a0016020604051602081039080840390855afa158015611c6a573d6000803e3d6000fd5b5050604051601f1901519150506001600160a01b038116611c9357600060019250925050611c9a565b9150600090505b94509492505050565b6000816004811115611cb757611cb76135fa565b03611cbf5750565b6001816004811115611cd357611cd36135fa565b03611d205760405162461bcd60e51b815260206004820152601860248201527f45434453413a20696e76616c6964207369676e617475726500000000000000006044820152606401610936565b6002816004811115611d3457611d346135fa565b03611d815760405162461bcd60e51b815260206004820152601f60248201527f45434453413a20696e76616c6964207369676e6174757265206c656e677468006044820152606401610936565b6003816004811115611d9557611d956135fa565b03610de05760405162461bcd60e51b815260206004820152602260248201527f45434453413a20696e76616c6964207369676e6174757265202773272076616c604482015261756560f01b6064820152608401610936565b6000611e42826040518060400160405280602081526020017f5361666545524332303a206c6f772d6c6576656c2063616c6c206661696c6564815250856001600160a01b03166127669092919063ffffffff16565b9050805160001480611e63575080806020019051810190611e639190613610565b61181a5760405162461bcd60e51b815260206004820152602a60248201527f5361666545524332303a204552433230206f7065726174696f6e20646964206e6044820152691bdd081cdd58d8d9595960b21b6064820152608401610936565b600060ff8216601f81111561073457604051632cd44ac360e21b815260040160405180910390fd5b600080600a60009054906101000a90046001600160a01b03166001600160a01b0316634f4ce61d6040518163ffffffff1660e01b8152600401602060405180830381865afa158015611f40573d6000803e3d6000fd5b505050506040513d601f19601f82011682018060405250810190611f6491906134e3565b9050806001600160a01b0316856001600160a01b031603611f88578391505061077c565b600a54604080516358f4dcc360e01b815290516000926001600160a01b0316916358f4dcc39160048083019260209291908290030181865afa158015611fd2573d6000803e3d6000fd5b505050506040513d601f19601f82011682018060405250810190611ff691906134e3565b90506001600160a01b038616158015906120225750806001600160a01b0316866001600160a01b031614155b1561203c5761203386838787612775565b9250505061077c565b6001600160a01b038082166000908152600e60209081526040808320938616835292905220548061206d578561206f565b805b9550600080836001600160a01b0316856001600160a01b031610612094578385612097565b84845b60405163e3ddd77960e01b81526001600160a01b038084166004830152808316602483015261271060448301529294509092506000917f0000000000000000000000000000000000000000000000000000000000000000169063e3ddd77990606401602060405180830381865afa158015612116573d6000803e3d6000fd5b505050506040513d601f19601f8201168201806040525081019061213a91906134e3565b604051637fb4f79d60e01b81526001600160a01b0380831660048301529192506000917f00000000000000000000000000000000000000000000000000000000000000001690637fb4f79d90602401602060405180830381865afa1580156121a6573d6000803e3d6000fd5b505050506040513d601f19601f820116820180604052508101906121ca91906134e3565b60405163352fc4cd60e21b81526001600160a01b0380831660048301529192506000917f0000000000000000000000000000000000000000000000000000000000000000169063d4bf133490602401602060405180830381865afa158015612236573d6000803e3d6000fd5b505050506040513d601f19601f8201168201806040525081019061225a91906135c8565b9050896000036122de576000876001600160a01b0316866001600160a01b03161461229d578161228e600160601b8e613484565b612298919061349b565b6122b6565b600160601b6122ac8d84613484565b6122b6919061349b565b90506103e86122c66014826134d0565b6122d09083613484565b6122da919061349b565b9a50505b6123126001600160a01b0388167f00000000000000000000000000000000000000000000000000000000000000008d612a89565b6040516346aba96b60e11b81526001600160a01b03888116600483015289811660248301526127106044830152606482018d9052608482018c90523060a48301527f00000000000000000000000000000000000000000000000000000000000000001690638d5752d69060c4016020604051808303816000875af19250505080156123ba575060408051601f3d908101601f191682019092526123b7918101906135c8565b60015b612470576123c960028c61349b565b6001600160a01b038089166000818152600e60209081526040808320948e1683529390529190912091909155612420907f00000000000000000000000000000000000000000000000000000000000000008d612b36565b604080516001600160a01b03808a1682528a1660208201529081018c90527f23a939ef1a7fc23e68fdbdf50af0b9e95c2015f89c036e4ddd8f7c6886e0249b9060600160405180910390a161249b565b6001600160a01b038089166000908152600e60209081526040808320938d1683529290529081205598505b50505050505050509392505050565b600080600a60009054906101000a90046001600160a01b03166001600160a01b0316634f4ce61d6040518163ffffffff1660e01b8152600401602060405180830381865afa158015612500573d6000803e3d6000fd5b505050506040513d601f19601f8201168201806040525081019061252491906134e3565b9050600061253360028761349b565b90506125696001600160a01b0383167f000000000000000000000000000000000000000000000000000000000000000083612a89565b600a546040516383e4b89f60e01b81526001600160a01b038481166004830152918216602482015260448101839052606481018790523060848201527f0000000000000000000000000000000000000000000000000000000000000000909116906383e4b89f9060a4016020604051808303816000875af11580156125f2573d6000803e3d6000fd5b505050506040513d601f19601f8201168201806040525081019061261691906135c8565b50600a546040516370a0823160e01b81523060048201526000916001600160a01b0316906370a0823190602401602060405180830381865afa158015612660573d6000803e3d6000fd5b505050506040513d601f19601f8201168201806040525081019061268491906135c8565b600b54600a549192506126a4916001600160a01b03908116911683612a89565b600b546126be906001600160a01b03858116911684612a89565b600b54600a54604051634230a70d60e11b81526001600160a01b0391821660048201526024810184905285821660448201526064810185905260848101859052605060a482015260c481018890529116906384614e1a9060e4016020604051808303816000875af1158015612737573d6000803e3d6000fd5b505050506040513d601f19601f8201168201806040525081019061275b91906135c8565b979650505050505050565b60606109908484600085612c3f565b6001600160a01b038085166000908152600d602090815260408083208785168452825280832081518083019092528054851680835260019091015490941691810191909152909161285d5760408051600280825260608201835260009260208301908036833701905050905086816000815181106127f5576127f56135b2565b60200260200101906001600160a01b031690816001600160a01b0316815250508581600181518110612829576128296135b2565b60200260200101906001600160a01b031690816001600160a01b031681525050612854818686612d0f565b92505050610990565b6000806001600160a01b031682602001516001600160a01b031614159050600082600001516001600160a01b0316630dfe16816040518163ffffffff1660e01b8152600401602060405180830381865afa1580156128bf573d6000803e3d6000fd5b505050506040513d601f19601f820116820180604052508101906128e391906134e3565b90506000826128f35760026128f6565b60035b60ff1667ffffffffffffffff81111561291157612911613292565b60405190808252806020026020018201604052801561293a578160200160208202803683370190505b5090508881600081518110612951576129516135b2565b60200260200101906001600160a01b031690816001600160a01b0316815250508215612a0157886001600160a01b0316826001600160a01b0316146129965781612a03565b83600001516001600160a01b031663d21220a76040518163ffffffff1660e01b8152600401602060405180830381865afa1580156129d8573d6000803e3d6000fd5b505050506040513d601f19601f820116820180604052508101906129fc91906134e3565b612a03565b875b81600181518110612a1657612a166135b2565b60200260200101906001600160a01b031690816001600160a01b0316815250508215612a71578781600281518110612a5057612a506135b2565b60200260200101906001600160a01b031690816001600160a01b0316815250505b612a7c818888612d0f565b9998505050505050505050565b604051636eb1769f60e11b81523060048201526001600160a01b0383811660248301526000919085169063dd62ed3e90604401602060405180830381865afa158015612ad9573d6000803e3d6000fd5b505050506040513d601f19601f82011682018060405250810190612afd91906135c8565b90506110248463095ea7b360e01b85612b1686866134bd565b6040516001600160a01b0390921660248301526044820152606401611853565b604051636eb1769f60e11b81523060048201526001600160a01b0383811660248301526000919085169063dd62ed3e90604401602060405180830381865afa158015612b86573d6000803e3d6000fd5b505050506040513d601f19601f82011682018060405250810190612baa91906135c8565b905081811015612c0e5760405162461bcd60e51b815260206004820152602960248201527f5361666545524332303a2064656372656173656420616c6c6f77616e63652062604482015268656c6f77207a65726f60b81b6064820152608401610936565b6040516001600160a01b0384166024820152828203604482015261102490859063095ea7b360e01b90606401611853565b606082471015612ca05760405162461bcd60e51b815260206004820152602660248201527f416464726573733a20696e73756666696369656e742062616c616e636520666f6044820152651c8818d85b1b60d21b6064820152608401610936565b600080866001600160a01b03168587604051612cbc919061362d565b60006040518083038185875af1925050503d8060008114612cf9576040519150601f19603f3d011682016040523d82523d6000602084013e612cfe565b606091505b509150915061275b87838387612f81565b6000808451600314612d3b5784600181518110612d2e57612d2e6135b2565b6020026020010151612d57565b84600281518110612d4e57612d4e6135b2565b60200260200101515b6040516370a0823160e01b81523060048201529091506000906001600160a01b038316906370a0823190602401602060405180830381865afa158015612da1573d6000803e3d6000fd5b505050506040513d601f19601f82011682018060405250810190612dc591906135c8565b9050612e1f7f00000000000000000000000000000000000000000000000000000000000000008688600081518110612dff57612dff6135b2565b60200260200101516001600160a01b0316612a899092919063ffffffff16565b7f00000000000000000000000000000000000000000000000000000000000000006001600160a01b03166383e4b89f87600081518110612e6157612e616135b2565b602002602001015188600181518110612e7c57612e7c6135b2565b60209081029190910101516040516001600160e01b031960e085901b1681526001600160a01b03928316600482015291166024820152604481018890526064810187905230608482015260a4016020604051808303816000875af1158015612ee8573d6000803e3d6000fd5b505050506040513d601f19601f82011682018060405250810190612f0c91906135c8565b506040516370a0823160e01b815230600482015281906001600160a01b038416906370a0823190602401602060405180830381865afa158015612f53573d6000803e3d6000fd5b505050506040513d601f19601f82011682018060405250810190612f7791906135c8565b611bd591906134d0565b60608315612ff0578251600003612fe9576001600160a01b0385163b612fe95760405162461bcd60e51b815260206004820152601d60248201527f416464726573733a2063616c6c20746f206e6f6e2d636f6e74726163740000006044820152606401610936565b5081610990565b61099083838151156130055781518083602001fd5b8060405162461bcd60e51b815260040161093691906130a1565b6001600160a01b0381168114610de057600080fd5b60006020828403121561304657600080fd5b813561077c8161301f565b60005b8381101561306c578181015183820152602001613054565b50506000910152565b6000815180845261308d816020860160208601613051565b601f01601f19169290920160200192915050565b60208152600061077c6020830184613075565b6000602082840312156130c657600080fd5b5035919050565b600080604083850312156130e057600080fd5b82356130eb8161301f565b946020939093013593505050565b60008060006060848603121561310e57600080fd5b83356131198161301f565b925060208401356131298161301f565b929592945050506040919091013590565b6000806040838503121561314d57600080fd5b82359150602083013561315f8161301f565b809150509250929050565b60ff60f81b881681526000602060e08184015261318a60e084018a613075565b838103604085015261319c818a613075565b606085018990526001600160a01b038816608086015260a0850187905284810360c0860152855180825283870192509083019060005b818110156131ee578351835292840192918401916001016131d2565b50909c9b505050505050505050505050565b6000806040838503121561321357600080fd5b823561321e8161301f565b9150602083013561315f8161301f565b60008060006060848603121561324357600080fd5b8335925060208401356132558161301f565b915060408401356132658161301f565b809150509250925092565b6000806040838503121561328357600080fd5b50508035926020909101359150565b634e487b7160e01b600052604160045260246000fd5b604051601f8201601f1916810167ffffffffffffffff811182821017156132d1576132d1613292565b604052919050565b600080600083850360808112156132ef57600080fd5b84356132fa8161301f565b9350602085013561330a8161301f565b92506040603f198201121561331e57600080fd5b506040516040810181811067ffffffffffffffff8211171561334257613342613292565b60409081528501356133538161301f565b815260608501356133638161301f565b602082015292959194509192509050565b8015158114610de057600080fd5b60006020828403121561339457600080fd5b813561077c81613374565b600080600080600080600060e0888a0312156133ba57600080fd5b87356133c58161301f565b965060208801356133d58161301f565b95506040880135945060608801359350608088013560ff811681146133f957600080fd5b9699959850939692959460a0840135945060c09093013592915050565b60006020828403121561342857600080fd5b813561ffff8116811461077c57600080fd5b600181811c9082168061344e57607f821691505b6020821081036117bf57634e487b7160e01b600052602260045260246000fd5b634e487b7160e01b600052601160045260246000fd5b80820281158282048414176107345761073461346e565b6000826134b857634e487b7160e01b600052601260045260246000fd5b500490565b808201808211156107345761073461346e565b818103818111156107345761073461346e565b6000602082840312156134f557600080fd5b815161077c8161301f565b6000602080838503121561351357600080fd5b825167ffffffffffffffff8082111561352b57600080fd5b818501915085601f83011261353f57600080fd5b81518181111561355157613551613292565b8060051b91506135628483016132a8565b818152918301840191848101908884111561357c57600080fd5b938501935b838510156135a657845192506135968361301f565b8282529385019390850190613581565b98975050505050505050565b634e487b7160e01b600052603260045260246000fd5b6000602082840312156135da57600080fd5b5051919050565b6000600182016135f3576135f361346e565b5060010190565b634e487b7160e01b600052602160045260246000fd5b60006020828403121561362257600080fd5b815161077c81613374565b6000825161363f818460208701613051565b919091019291505056fea264697066735822122077880a7bb8dde1dd62f2ba06b259b0a1360253c17d46fd0663f3e14480b4385564736f6c63430008130033","linkReferences":{}},"methodIdentifiers":{"DOMAIN_SEPARATOR()":"3644e515","allowance(address,address)":"dd62ed3e","approve(address,uint256)":"095ea7b3","asset()":"38d52e0f","balanceOf(address)":"70a08231","convertToAssets(uint256)":"07a2d13a","convertToShares(uint256)":"c6e6f592","decimals()":"313ce567","decreaseAllowance(address,uint256)":"a457c2d7","deposit(uint256,address)":"6e553f65","eip712Domain()":"84b0196e","increaseAllowance(address,uint256)":"39509351","indexUtils()":"5db48b97","maxDeposit(address)":"402d267d","maxMint(address)":"c63d75b6","maxRedeem(address)":"d905777e","maxWithdraw(address)":"ce96cb77","mint(uint256,address)":"94bf804d","name()":"06fdde03","nonces(address)":"7ecebe00","owner()":"8da5cb5b","permit(address,address,uint256,uint256,uint8,bytes32,bytes32)":"d505accf","pod()":"a88dbb36","previewDeposit(uint256)":"ef8b30f7","previewMint(uint256)":"b3d7f6b9","previewRedeem(uint256)":"4cdad506","previewWithdraw(uint256)":"0a28a477","processAllRewardsTokensToPodLp(uint256,uint256)":"be8a6e2f","protocolFee()":"b0e21e8a","redeem(uint256,address,address)":"ba087652","renounceOwnership()":"715018a6","rewardsWhitelister()":"5efa7fc0","setIndexUtils(address)":"da04d01c","setPod(address)":"be9c8dbb","setProtocolFee(uint16)":"e4467f35","setRewardsWhitelister(address)":"06d654ec","setYieldConvEnabled(bool)":"d23eed71","setZapMap(address,address,(address,address))":"d0b316e5","swapMaps(address,address)":"a52f01e3","symbol()":"95d89b41","totalAssets()":"01e1d114","totalSupply()":"18160ddd","transfer(address,uint256)":"a9059cbb","transferFrom(address,address,uint256)":"23b872dd","transferOwnership(address)":"f2fde38b","withdraw(uint256,address,address)":"b460af94","yieldConvEnabled()":"ed0ba942"},"id":0}