{"abi":[{"type":"function","name":"getReserves","inputs":[{"name":"_pair","type":"address","internalType":"address"}],"outputs":[{"name":"_reserve0","type":"uint112","internalType":"uint112"},{"name":"_reserve1","type":"uint112","internalType":"uint112"}],"stateMutability":"view"}],"bytecode":{"object":"0x608060405234801561001057600080fd5b506101c0806100206000396000f3fe608060405234801561001057600080fd5b506004361061002b5760003560e01c80633e99c1e414610030575b600080fd5b61004361003e3660046100d8565b610067565b604080516001600160701b0393841681529290911660208301520160405180910390f35b600080826001600160a01b0316630902f1ac6040518163ffffffff1660e01b8152600401608060405180830381865afa1580156100a8573d6000803e3d6000fd5b505050506040513d601f19601f820116820180604052508101906100cc9190610136565b50919590945092505050565b6000602082840312156100ea57600080fd5b81356001600160a01b038116811461010157600080fd5b9392505050565b80516001600160701b038116811461011f57600080fd5b919050565b805161ffff8116811461011f57600080fd5b6000806000806080858703121561014c57600080fd5b61015585610108565b935061016360208601610108565b925061017160408601610124565b915061017f60608601610124565b90509295919450925056fea26469706673582212205bf404245fbd929d16572131315f98d8e977432ade3e1971a6550a876255762064736f6c63430008130033","linkReferences":{}},"methodIdentifiers":{"getReserves(address)":"3e99c1e4"},"id":91}