{"abi":[{"type":"function","name":"getReserves","inputs":[{"name":"_pair","type":"address","internalType":"address"}],"outputs":[{"name":"_reserve0","type":"uint112","internalType":"uint112"},{"name":"_reserve1","type":"uint112","internalType":"uint112"}],"stateMutability":"view"}],"bytecode":{"object":"0x608060405234801561001057600080fd5b506101a9806100206000396000f3fe608060405234801561001057600080fd5b506004361061002b5760003560e01c80633e99c1e414610030575b600080fd5b61004361003e3660046100d7565b610067565b604080516001600160701b0393841681529290911660208301520160405180910390f35b600080826001600160a01b0316630902f1ac6040518163ffffffff1660e01b8152600401606060405180830381865afa1580156100a8573d6000803e3d6000fd5b505050506040513d601f19601f820116820180604052508101906100cc9190610123565b509094909350915050565b6000602082840312156100e957600080fd5b81356001600160a01b038116811461010057600080fd5b9392505050565b80516001600160701b038116811461011e57600080fd5b919050565b60008060006060848603121561013857600080fd5b61014184610107565b925061014f60208501610107565b9150604084015163ffffffff8116811461016857600080fd5b80915050925092509256fea2646970667358221220bcfae7844f5e3e0c132a8140177950a7ba857763a297d163bf03254ab975d8cf64736f6c63430008130033","linkReferences":{}},"methodIdentifiers":{"getReserves(address)":"3e99c1e4"},"id":92}