{"abi":[{"type":"function","name":"assertFail","inputs":[],"outputs":[],"stateMutability":"pure"}],"bytecode":{"object":"0x6080604052348015600f57600080fd5b5060898061001e6000396000f3fe6080604052348015600f57600080fd5b506004361060285760003560e01c806309ccaefb14602d575b600080fd5b60336035565b005b603b603d565b565b634e487b7160e01b600052600160045260246000fdfea264697066735822122083333c413e2c51d50de130706b50f1e229891d0a12488d305bb6c2b51d861a5564736f6c63430008130033","linkReferences":{}},"methodIdentifiers":{"assertFail()":"09ccaefb"},"id":140}