{"abi":[{"type":"constructor","inputs":[{"name":"_WETH9","type":"address","internalType":"address"},{"name":"_nativeCurrencyLabelBytes","type":"bytes32","internalType":"bytes32"}],"stateMutability":"nonpayable"},{"type":"function","name":"WETH9","inputs":[],"outputs":[{"name":"","type":"address","internalType":"address"}],"stateMutability":"view"},{"type":"function","name":"flipRatio","inputs":[{"name":"token0","type":"address","internalType":"address"},{"name":"token1","type":"address","internalType":"address"},{"name":"chainId","type":"uint256","internalType":"uint256"}],"outputs":[{"name":"","type":"bool","internalType":"bool"}],"stateMutability":"view"},{"type":"function","name":"nativeCurrencyLabel","inputs":[],"outputs":[{"name":"","type":"string","internalType":"string"}],"stateMutability":"view"},{"type":"function","name":"nativeCurrencyLabelBytes","inputs":[],"outputs":[{"name":"","type":"bytes32","internalType":"bytes32"}],"stateMutability":"view"},{"type":"function","name":"tokenRatioPriority","inputs":[{"name":"token","type":"address","internalType":"address"},{"name":"chainId","type":"uint256","internalType":"uint256"}],"outputs":[{"name":"","type":"int256","internalType":"int256"}],"stateMutability":"view"},{"type":"function","name":"tokenURI","inputs":[{"name":"positionManager","type":"address","internalType":"contract INonfungiblePositionManager"},{"name":"tokenId","type":"uint256","internalType":"uint256"}],"outputs":[{"name":"","type":"string","internalType":"string"}],"stateMutability":"view"}],"bytecode":{"object":"0x60c0346200009d57601f6200618e38819003918201601f19168301916001600160401b03831184841017620000a25780849260409485528339810103126200009d578051906001600160a01b03821682036200009d57602001519060805260a0526040516160d59081620000b98239608051818181608c0152818161034f0152610acf015260a05181818161016d0152818161085d01526108b90152f35b600080fd5b634e487b7160e01b600052604160045260246000fdfe6080604052600436101561001257600080fd5b6000803560e01c9081634aa4a4fc1461007a575080637e5af771146100755780639d7b0ea814610070578063a18246e21461006b578063b7af3cdc146100665763e9dc63751461006157600080fd5b61020b565b6101df565b610155565b610122565b6100d7565b346100be57806003193601126100be577f00000000000000000000000000000000000000000000000000000000000000006001600160a01b03166080908152602090f35b80fd5b6001600160a01b038116036100d257565b600080fd5b346100d25760603660031901126100d25760206004356100f6816100c1565b61011960243591610106836100c1565b6101136044358092610ac0565b92610ac0565b12604051908152f35b346100d25760403660031901126100d257602061014d600435610144816100c1565b60243590610ac0565b604051908152f35b346100d25760003660031901126100d25760206040517f00000000000000000000000000000000000000000000000000000000000000008152f35b60005b8381106101a35750506000910152565b8181015183820152602001610193565b604091602082526101d38151809281602086015260208686019101610190565b601f01601f1916010190565b346100d25760003660031901126100d2576102076101fb610831565b604051918291826101b3565b0390f35b346100d25760403660031901126100d25760048035610229816100c1565b60405163133f757160e31b815260243581840190815290926001600160a01b039290919083169061018090859081906020010381845afa80156104e35760009081958293839184936105ef575b50906020869493926040519788809263c45a015560e01b82525afa80156104e357856020916102ee986000916105d2575b5060408051630b4c774160e11b81526001600160a01b038089168a8301908152908e16602082015262ffffff9094169184019190915298899283918c918391606090910190565b0392165afa9586156104e3576000966105a1575b5061030e468985610aad565b928315988960001461059a5780995b156105925750925b604051633850c7bd60e01b81529360e08587818b8d165afa9485156104e35760009561055b575b507f00000000000000000000000000000000000000000000000000000000000000008916908a8a169081830361054d57610384610831565b818c1693840361053e57610396610831565b915b604051936020858c8163313ce56760e01b948582525afa9485156104e35760009561051c575b506020908b6040518098819382525afa9485156104e3578d9a8d916000976104e8575b506040516334324e9f60e21b81529b6020928d92918391165afa998a156104e35760009a6104b2575b50610413610711565b60243581526001600160a01b03909e1660208f01528d6001600160a01b039091166040919091015260608d015260808c015260ff1660a08b015260ff1660c08a0152151560e089015260020b61010088015260020b61012087015260020b61014086015260020b61016085015262ffffff16610180840152166001600160a01b03166101a08201526104a490610bcd565b6040516102078192826101b3565b6104d5919a5060203d6020116104dc575b6104cd81836106ef565b810190610a99565b983861040a565b503d6104c3565b6109df565b60209291975061050d90833d8511610515575b61050581836106ef565b810190610a85565b9690916103e1565b503d6104fb565b602091955061053790823d84116105155761050581836106ef565b94906103be565b61054782615c46565b91610398565b6105568c615c46565b610384565b61057d91955060e03d811161058b575b61057581836106ef565b810190610a1d565b50505050509050933861034c565b503d61056b565b905092610325565b819961031d565b6105c491965060203d6020116105cb575b6105bc81836106ef565b8101906109eb565b9438610302565b503d6105b2565b6105e99150833d85116105cb576105bc81836106ef565b386102a7565b915096506020935084925061061e91506101803d61018011610639575b61061681836106ef565b810190610934565b50969e959b979a509298509296509294935061027692505050565b503d61060c565b634e487b7160e01b600052603260045260246000fd5b634e487b7160e01b600052601160045260246000fd5b600019811461067b5760010190565b610656565b634e487b7160e01b600052604160045260246000fd5b6060810190811067ffffffffffffffff8211176106b257604052565b610680565b6020810190811067ffffffffffffffff8211176106b257604052565b6040810190811067ffffffffffffffff8211176106b257604052565b90601f8019910116810190811067ffffffffffffffff8211176106b257604052565b604051906101c0820182811067ffffffffffffffff8211176106b257604052565b6040519061073f82610696565b565b60405190610140820182811067ffffffffffffffff8211176106b257604052565b60405190610160820182811067ffffffffffffffff8211176106b257604052565b67ffffffffffffffff81116106b257601f01601f191660200190565b604051906107ac826106b7565b60008252565b604051906107bf826106d3565b6006825260203681840137565b906107d682610783565b6107e360405191826106ef565b82815280926107f4601f1991610783565b0190602036910137565b80511561080b5760200190565b610640565b80516001101561080b5760210190565b90815181101561080b570160200190565b60005b60208110806108b2575b156108515761084c9061066c565b610834565b61085a816107cc565b907f00000000000000000000000000000000000000000000000000000000000000009060005b81811061088d5750505090565b602081101561080b5780836108ad921a6108a78287610820565b5361066c565b610880565b1561080b577f0000000000000000000000000000000000000000000000000000000000000000811a60f81b6001600160f81b031916151561083e565b519061073f826100c1565b519062ffffff821682036100d257565b51908160020b82036100d257565b51906fffffffffffffffffffffffffffffffff821682036100d257565b9190826101809103126100d25781516bffffffffffffffffffffffff811681036100d25791610965602082016108ee565b91610972604083016108ee565b9161097f606082016108ee565b9161098c608083016108f9565b9161099960a08201610909565b916109a660c08301610909565b916109b360e08201610917565b9161010082015191610120810151916109dc6101606109d56101408501610917565b9301610917565b90565b6040513d6000823e3d90fd5b908160209103126100d257516109dc816100c1565b519061ffff821682036100d257565b519060ff821682036100d257565b908160e09103126100d2578051610a33816100c1565b91610a4060208301610909565b91610a4d60408201610a00565b91610a5a60608301610a00565b91610a6760808201610a00565b9160c0610a7660a08401610a0f565b92015180151581036100d25790565b908160209103126100d2576109dc90610a0f565b908160209103126100d2576109dc90610909565b9161011381610abc9394610ac0565b1290565b6001600160a01b0390811691907f0000000000000000000000000000000000000000000000000000000000000000168214610bae57600114610b025750600090565b73a0b86991c6218b36c1d19d4a2e9eb0ce3606eb488103610b24575061012c90565b73dac17f958d2ee523a2206206994597c13d831ec78103610b45575060c890565b736b175474e89094c44da98b954eedeac495271d0f8103610b665750606490565b738daebade922df735c38c80c7ebd708af50815faa8103610b88575060c71990565b732260fac5e5542a773aa44fbcfedf7c193bc2c59903610ba95761012b1990565b600090565b505060631990565b90610bc960209282815194859201610190565b0190565b6109dc610ce9610d716020610d5d610d4f610da696610ce9610d26610d0d610180840193610ce9610c12610c0c610c07885162ffffff1690565b61245b565b83611376565b95610ce9610cef610cca610cc5610cbf610c2f6060890151610f9a565b610c6560808a01918a610c5f610c5a6101a0610c4b8751610f9a565b9301516001600160a01b031690565b6127c8565b916110af565b9689610c7b610c748251610df3565b9351610f9a565b6020610c07610caf610c5a6040610ca0610c5a610cb99689015160018060a01b031690565b9601516001600160a01b031690565b945162ffffff1690565b936111df565b966128b3565b615f7b565b986040519e8f9d8e01600990683d913730b6b2911d1160b91b81520190565b90610bb6565b71111610113232b9b1b934b83a34b7b7111d1160711b815260120190565b6c1116101134b6b0b3b2911d101160991b8152600d0190565b7f646174613a696d6167652f7376672b786d6c3b6261736536342c0000000000008152601a0190565b61227d60f01b815260020190565b0391610cc5601f19938481018352826106ef565b6040517f646174613a6170706c69636174696f6e2f6a736f6e3b6261736536342c0000006020820152938491603d8301610ce9565b039081018352826106ef565b634e487b7160e01b600052601260045260246000fd5b8015610dd757600160c01b0490565b610db2565b8015610dd7576000190490565b8115610dd7570490565b806000917a184f03e93ff9f4daa797ed6e38ed64bf6a1f01000000000000000080821015610f28575b506d04ee2d6d415b85acef810000000080831015610f19575b50662386f26fc1000080831015610f0a575b506305f5e10080831015610efb575b5061271080831015610eec575b506064821015610edc575b600a80921015610ed2575b600190816021610e8a8287016107cc565b95860101905b610e9c575b5050505090565b600019019083906f181899199a1a9b1b9c1cb0b131b232b360811b8282061a835304918215610ecd57919082610e90565b610e95565b9160010191610e79565b9190606460029104910191610e6e565b60049193920491019138610e63565b60089193920491019138610e56565b60109193920491019138610e47565b60209193920491019138610e35565b604093508104915038610e1c565b60ff1660ff811461067b5760010190565b906001820180921161067b57565b906002820180921161067b57565b906004820180921161067b57565b90600a820180921161067b57565b906020820180921161067b57565b9190820180921161067b57565b906000805b835160ff82169081101561100657610fdd610fd0610fc2601160f91b9388610820565b516001600160f81b03191690565b6001600160f81b03191690565b14610ff1575b610fec90610f36565b610f9f565b90610ffe610fec91610f36565b919050610fe3565b505060ff80911680611016575050565b611024611029918551610f8d565b6107cc565b90600093845b8151838216908110156110a65790611068610fc261108693601160f91b61105c610fd0610fc2848a610820565b1461108b575b85610820565b966110806110758261066c565b9860001a9187610820565b53610f36565b61102f565b605c6110a06110998c61066c565b9b8a610820565b53611062565b50929450505050565b906111d16109dc92610ce96111c3609b96610ce96040519889977f54686973204e465420726570726573656e74732061206c69717569646974792060208a01527f706f736974696f6e20696e206120556e6973776170205633200000000000000060408a015286516111288160598c0160208b01610190565b8901602d60f81b6059820152611148825180936020605a85019101610190565b01660103837b7b617160cd1b605a8201527f546865206f776e6572206f662074686973204e46542063616e206d6f6469667960618201527f206f722072656465656d2074686520706f736974696f6e2e5c6e0000000000006081820152016010906f02e372837b7b61020b2323932b9b99d160851b81520190565b612e3760f11b815260020190565b03601f1981018352826106ef565b6112a56112b591610ce960426111d19596986109dc986040519a8b99602a6112258c6901020b2323932b9b99d160b51b9485602083015260208151948593019101610190565b8b01612e3760f11b602a820152611246825180936020602c85019101610190565b0190602c820152611261825180936020603685019101610190565b016b02e372332b2902a34b2b91d160a51b603682015261128a8251809360208685019101610190565b0101600c906b02e372a37b5b2b71024a21d160a51b81520190565b632e372e3760e11b815260040190565b7fe29aa0efb88f20444953434c41494d45523a204475652064696c6967656e636581527f20697320696d7065726174697665207768656e20617373657373696e6720746860208201527f6973204e46542e204d616b65207375726520746f6b656e20616464726573736560408201527f73206d617463682074686520657870656374656420746f6b656e732c2061732060608201527f746f6b656e2073796d626f6c73206d617920626520696d6974617465642e00006080820152609e0190565b906113846060830151610f9a565b916113926080820151610f9a565b9060e08101906113a28251151590565b90816114ba5761010081015160020b5b6101608201926113f76113f06113c9865160020b90565b9260c08601946113da865160ff1690565b60a08801956113ea875160ff1690565b92611563565b9551151590565b92836114ac57610120015160020b935b5160020b915160ff16905160ff169161141f94611563565b6040516902ab734b9bbb0b81016960b51b6020820152948594919391602a860161144891610bb6565b6201016960ed1b815260030161145d91610bb6565b602f60f81b815260010161147091610bb6565b6201016960ed1b815260030161148591610bb6565b611e1f60f11b81526002015b61149a91610bb6565b03601f19810182526109dc90826106ef565b610100015160020b93611407565b61012081015160020b6113b2565b60020b8015610dd757620d89e7190590565b60020b8015610dd757620d89e80590565b60020b9060020b908115610dd757627fffff19811460001983141661067b570590565b9060020b9060020b02908160020b91820361067b57565b60405190611532826106d3565b600382526226a4a760e91b6020830152565b60405190611551826106d3565b600382526209a82b60eb1b6020830152565b9061157f61157982611574816114c8565b61150e565b60020b90565b908260020b9182146000146115ab575050505050156000146115a3576109dc611525565b6109dc611544565b611579816115746115bb936114da565b036115d7575050506115cf576109dc611544565b6109dc611525565b926115e46109dc94611976565b9015611df25761160c90611600906001600160a01b0316610dc8565b6001600160a01b031690565b611df2565b600160ff1b811461067b5760000390565b1561162957565b60405162461bcd60e51b81526020600482015260016024820152601560fa1b6044820152606490fd5b906ffff97272373d413259a46990580e213a9182810292818404149015171561067b57565b906ffff2e50f5f656932ef12357cf3c7fdcc9182810292818404149015171561067b57565b906fffe5caca7e10e4e61c3624eaa0941cd09182810292818404149015171561067b57565b906fffcb9843d60f6159c9db58835c9266449182810292818404149015171561067b57565b906fff973b41fa98c081472e6896dfb254c09182810292818404149015171561067b57565b906fff2ea16466c96a3843ec78b326b528619182810292818404149015171561067b57565b906ffe5dee046a99a2a811c461f1969c30539182810292818404149015171561067b57565b906ffcbe86c7900a88aedcffc83b479aa3a49182810292818404149015171561067b57565b906ff987a7253ac413176f2b074cf7815e549182810292818404149015171561067b57565b906ff3392b0822b70005940c7a398e4b70f39182810292818404149015171561067b57565b906fe7159475a2c29b7443b29c7fa6e889d99182810292818404149015171561067b57565b906fd097f3bdfd2022b8845ad8f792aa58259182810292818404149015171561067b57565b906fa9f746462d870fdf8a65dc1f90e061e59182810292818404149015171561067b57565b906f70d869a156d2a1b890bb3df62baf32f79182810292818404149015171561067b57565b906f31be135f97d08fd981231505542fcfa69182810292818404149015171561067b57565b906f09aa508b5b7a84e1c677de54f3e99bc99182810292818404149015171561067b57565b906e5d6af8dedb81196699c329225ee6049182810292818404149015171561067b57565b906d2216e584f5fa1ea926041bedfe989182810292818404149015171561067b57565b906b048a170391f7dc42444e8fa29182810292818404149015171561067b57565b908160070291600783040361067b57565b600381901b91906001600160fd1b0381160361067b57565b600181901b91906001600160ff1b0381160361067b57565b600281901b91906001600160fe1b0381160361067b57565b8181029291811591840414171561067b57565b6116006109dc9160020b60008112600014611c485761199481611611565b905b6119a5620d89e8831115611622565b6001821615611c36576001600160881b036ffffcb933bd6fad37aa2d162d1a5940015b169160028116611c23575b60048116611c10575b60088116611bfd575b60108116611bea575b60208116611bd7575b60408116611bc4575b60808116611bb1575b6101008116611b9e575b6102008116611b8b575b6104008116611b78575b6108008116611b65575b6110008116611b52575b6120008116611b3f575b6140008116611b2c575b6180008116611b19575b620100008116611b06575b620200008116611af3575b620400008116611ada575b6208000016611abd575b600012611aaf575b63ffffffff8116611aa65760ff60005b169060201c610f8d565b60ff6001611a9c565b611ab890610ddc565b611a8c565b90611ad2611acc6000926118e9565b60801c90565b919050611a84565b91611aeb611acc62080000926118c6565b929050611a7a565b91611acc611b00916118a2565b91611a6f565b91611acc611b139161187d565b91611a64565b91611acc611b2691611858565b91611a59565b91611acc611b3991611833565b91611a4f565b91611acc611b4c9161180e565b91611a45565b91611acc611b5f916117e9565b91611a3b565b91611acc611b72916117c4565b91611a31565b91611acc611b859161179f565b91611a27565b91611acc611b989161177a565b91611a1d565b91611acc611bab91611755565b91611a13565b91611acc611bbe91611730565b91611a09565b91611acc611bd19161170b565b91611a00565b91611acc611be4916116e6565b916119f7565b91611acc611bf7916116c1565b916119ee565b91611acc611c0a9161169c565b916119e5565b91611acc611c1d91611677565b916119dc565b91611acc611c3091611652565b916119d3565b6001600160881b03600160801b6119c8565b80611996565b60ff6000199116019060ff821161067b57565b60ff6003199116019060ff821161067b57565b60ff16602b039060ff821161067b57565b60ff6001199116019060ff821161067b57565b9060ff8091169116039060ff821161067b57565b60405190610100820182811067ffffffffffffffff8211176106b2576040528160e06000918281528260208201528260408201528260608201528260808201528260a08201528260c08201520152565b60ff166007019060ff821161067b57565b60ff60019116019060ff821161067b57565b60ff60029116019060ff821161067b57565b60ff60409116019060ff821161067b57565b60ff60209116019060ff821161067b57565b60ff60109116019060ff821161067b57565b60ff60089116019060ff821161067b57565b60ff60049116019060ff821161067b57565b60ff166001019060ff821161067b57565b602b0390602b821161067b57565b60001981019190821161067b57565b600503906005821161067b57565b60041981019190821161067b57565b60031981019190821161067b57565b9190820391821161067b57565b90611dfd929161237b565b90611e088280611fa1565b600160601b92909211918215611f8b57611e2190612030565b915b82836000945b611f775750611e45611e3e6109dc9495611c4e565b80926122e4565b929092611f64575b611edf9192611e5a611cac565b93848315611eeb57611ec5611eca91611ebe611eb4611eae611ea960ff88611ea36080611e91611e8c611ed49d611c74565b611cfc565b60ff1660208a01908152980160029052565b16611d9c565b610f47565b60ff1690565b60ff1660a08a0152565b5160ff1690565b611c4e565b60ff166040860152565b8352151560c0830152565b600060e082015261215b565b50600960ff821610611f3a57611f1f611ec5611f09611f2993611c61565b60ff166020880190815260056080890152611ebe565b60ff1660a0860152565b60046040850152611ed4565b611ed4565b611f5a611f3591611f4e6020880160069052565b60056040880152611c61565b60ff166060860152565b611f70611edf92610f36565b9150611e4d565b93611f83600a91610f36565b940480611e29565b611f9490611fe6565b91611e23565b156100d257565b6000198282099082810292838084109303928084039314611fdd57600160401b91838311156100d2570990828211900360c01b910360401c1790565b50505060401c90565b620186a090600019828209908281029283808410930392808403931461202757600160801b91838311156100d2570990828211900360801b910360801c1790565b50505060801c90565b72047bf19673df52e37f2410011d10000000000090600019828209908281029283808410930392808403931461202757600160801b91838311156100d2570990828211900360801b910360801c1790565b600160801b6000198183098260801b918280831092039180830392146120f2577003298b075b4b6a5240945790619b37fd4a90828211156100d2577f1f514b8ee5362595de309a65c03ce543f7e851e1625ea646b8fe88b81023b92d940990828211900360ff1b910360011c170290565b50507003298b075b4b6a5240945790619b37fd4a91500490565b7003298b075b4b6a5240945790619b37fd4a90600019828209908281029283808410930392808403931461202757600160801b91838311156100d2570990828211900360801b910360801c1790565b61216f611024611eae602084015160ff1690565b9061217d60e0820151151590565b6122c9575b60c08101516122ac575b61219d611eae608083015160ff1690565b6121b6611eae6121b160a085015160ff1690565b611d0d565b8110156121d2578060306108a76121cd9386610820565b61219d565b50915b8251156122a7576121ed611eae606085015160ff1690565b801515908161228d575b50612260575b61222861221861220f8551600a900690565b60300160ff1690565b60f81b6001600160f81b03191690565b6122526040850161223a815160ff1690565b60ff600019820181169092529260001a921684610820565b538251600a900483526121d5565b602e61228760408501612274815160ff1690565b60ff600019820181169092521684610820565b536121fd565b905060ff61229f604086015160ff1690565b1614386121f7565b915090565b60306122b7836107fe565b53602e6122c383610810565b5361218c565b60256122de6122d88451611daa565b84610820565b53612182565b6000929160ff166005811161232c575b50600a60048183061191049061231e575b620186a08114612313579190565b600a90049150600190565b61232790610f47565b612305565b6004190160ff811161067b5760ff16604d811161067b57600a0a908115610dd75704386122f4565b8181039291600013801582851316918412161761067b57565b604d811161067b57600a0a90565b60ff91821693929091166123976123928286612354565b612429565b938415158061241e575b1561240f576001928392909111156123e2576123cf906123c286841c61236d565b90838060a01b0316611963565b9316146123d857565b906109dc9061210c565b6123fe906123f186841c61236d565b90838060a01b0316610de9565b93160361073f57906109dc90612081565b50506001600160a01b03169150565b5060128511156123a1565b600081126124345790565b6109dc90611611565b6040519061244a826106d3565b6002825261302560f01b6020830152565b62ffffff80821680156127bd5761247e612473610732565b62ffffff9094168452565b6020830160009283825260408501938085525b8161249f875162ffffff1690565b16801561253757826124b2855160ff1690565b9160ff831615612515575050506124dc6124d56124d0855160ff1690565b610f36565b60ff168452565b6124e6855161066c565b85526125106125076124fb885162ffffff1690565b62ffffff600a91160490565b62ffffff168752565b612491565b600a900616612525575b506124dc565b6124d561253191610f36565b3861251f565b50945050919091612546611cac565b82519093906005811061272157509183949184936004612575845161256f611eae865160ff1690565b90611de5565b106127185760ff845b1696879261258c8551611dc7565b61259d611eae611ec5845160ff1690565b11156126a0578086612644611eae6109dc9c6126118461262d6126949e6040612625611eae6126699f6126116126639f61265e9f611eae9161264e9f61261b611eae612616611ebe9361260360806125f9611ec5995160ff1690565b60ff169701968752565b612611611eae875160ff1690565b610f8d565b611daa565b60ff1660a08b0152565b60ff16910152565b61263e611eae6121b1895160ff1690565b90610f8d565b60ff1660208b0152565b61256f611eae8751925160ff1690565b61236d565b90610de9565b8452600160e0850152519060048211156126995750611eae61268a91611dd6565b60ff166060830152565b61215b565b905061268a565b8085516126ac90611dc7565b815160ff166126ba90611c4e565b60ff166126c691611de5565b612644611eae6109dc9c6126118461262d6126949e6040612625611eae6126699f6126116126639f61265e9f611eae9161264e9f61261b611eae612616611ebe9361260360806125f9611ec599611ebe565b60ff600161257e565b612694939161266361265e6109dc98956127b16127a76127a28b611ebe6020612798611eae6127526126699d611db9565b612782612778611eae612616612772611eae60808c01611ebe8160029052565b85610f8d565b60ff1660a0880152565b61263e611eae6127938c5160ff1690565b611d1f565b60ff169201918252565b611c85565b60ff1660408b0152565b600160c08a015261264e565b5050506109dc61243d565b604051906001600160a01b03166127de82610696565b602a8252604036602084013760306127f5836107fe565b53607861280183610810565b536029905b60018211612819576109dc915015612868565b600f811690601082101561080b57612855916f181899199a1a9b1b9c1cb0b131b232b360811b901a61284b8486610820565b5360041c9161285b565b90612806565b801561067b576000190190565b1561286f57565b606460405162461bcd60e51b815260206004820152602060248201527f537472696e67733a20686578206c656e67746820696e73756666696369656e746044820152fd5b6020810180519091906128ce906001600160a01b0316612bb8565b604082018051909291906128ea906001600160a01b0316612bb8565b8451909290612901906001600160a01b0316612c18565b8451909290612918906001600160a01b0316612c18565b8651835161292e916001600160a01b0316612c75565b61293790612b60565b8651845161294d916001600160a01b0316612c75565b61295690612b8c565b8851855161296c916001600160a01b0316612c8a565b61297590612b60565b8851865191939161298e916001600160a01b0316612c8a565b61299790612b8c565b8a5187519195916129b0916001600160a01b0316612c9b565b6129b990612b60565b8a5188519199916129d2916001600160a01b0316612c9b565b6129db90612b8c565b996129e4610741565b978852602088015260408701526060860152608085015260a084015260c083015260e082015261010092838201526101209384820152612a2390612e60565b94516001600160a01b0316612a37906127c8565b93516001600160a01b0316612a4b906127c8565b6101a08201519093906001600160a01b0316926060830151906080840151610180850151612a7b9062ffffff1690565b612a849061245b565b8583015160020b9085870151612a9a9060020b90565b92610160880151612aab9060020b90565b95610140998a8a0151612abe9060020b90565b612ac9908787612b3c565b99519b612ad4610762565b9d8e5260208e01526001600160a01b031660408d015260608c015260808b015260a08a015260020b60c089015260020b60e0880152860190612b18919060020b9052565b840190612b27919060000b9052565b820152612b3390612cfe565b6109dc91612cac565b600292830b920b821215612b5257505060001990565b60020b1215610ba957600190565b6101029081810291818304149015171561067b5760ff90046010810180911161067b576109dc90610df3565b6101809081810291818304149015171561067b5760ff90046064810180911161067b576109dc90610df3565b60881c612bc36107b2565b90815190815b612bd257505090565b600f811690601082101561080b57600019830183811161067b57612c11926f181899199a1a9b1b9c1cb0b131b232b360811b901a9061284b9086610820565b9081612bc9565b612c206107b2565b90815190815b612c2f57505090565b600f811690601082101561080b57600019830183811161067b57612c6e926f181899199a1a9b1b9c1cb0b131b232b360811b901a9061284b9086610820565b9081612c26565b60ff9182612c869260101c16611963565b0690565b60ff9182612c869260201c16611963565b60ff9182612c869260301c16611963565b60266109dc916040519381612ccb869351809260208087019101610190565b8201612ce08251809360208085019101610190565b01651e17b9bb339f60d11b60208201520360068101845201826106ef565b6109dc610ce9916111d1815191610ce9612d3c6020830151612d2d606085019687516080870193845192613d98565b9551905160a0850151916142cf565b91610ce960c08201610ce9612dce612d55835160020b90565b94612dc86040612db7612d8a60e0850199612d718b5160020b90565b61010087015160020b9061012088015160000b9261459a565b96610140850199612db1612da9612da18d51610df3565b935160020b90565b915160020b90565b91614ddd565b97519201516001600160a01b031690565b90615796565b956040519a8b9960208b0190610bb6565b7f3c7376672077696474683d2732393027206865696768743d273530302720766981527f6577426f783d2730203020323930203530302720786d6c6e733d27687474703a60208201527f2f2f7777772e77332e6f72672f323030302f737667273e3c636972636c652063604082015262783d2760e81b606082015260630190565b805160409081519182602092838201612f19906081907f3c7376672077696474683d2732393027206865696768743d273530302720766981527f6577426f783d2730203020323930203530302720786d6c6e733d27687474703a60208201527f2f2f7777772e77332e6f72672f323030302f737667273e3c726563742077696460408201527f74683d27323930707827206865696768743d273530307078272066696c6c3d276060820152602360f81b60808201520190565b612f2291610bb6565b6813979f1e17b9bb339f60b91b81526009010392601f19938481018252612f4990826106ef565b612f5290615f7b565b93608081015160a082015190848301518451928392878401612f7390612ddf565b612f7c91610bb6565b65272063793d2760d01b8152600601612f9491610bb6565b722720723d273132307078272066696c6c3d272360681b8152601301612fb991610bb6565b6813979f1e17b9bb339f60b91b8152600901038581018252612fdb90826106ef565b612fe490615f7b565b60c082015160e083015184840151855192839290613003898501612ddf565b61300c91610bb6565b65272063793d2760d01b815260060161302491610bb6565b722720723d273132307078272066696c6c3d272360681b815260130161304991610bb6565b6813979f1e17b9bb339f60b91b815260090103868101825261306b90826106ef565b61307490615f7b565b90610100830151610120840151906060850151865192839289840161309890612ddf565b6130a191610bb6565b65272063793d2760d01b81526006016130b991610bb6565b722720723d273130307078272066696c6c3d272360681b81526013016130de91610bb6565b6813979f1e17b9bb339f60b91b815260090103878101825261310090826106ef565b61310990615f7b565b925193517f3c7376672077696474683d2232393022206865696768743d22353030222076699581019586527f6577426f783d2230203020323930203530302220786d6c6e733d22687474703a6020870152751797bbbbbb973b999737b933979918181817b9bb339160511b60408701529687956056017f20786d6c6e733a786c696e6b3d27687474703a2f2f7777772e77332e6f72672f81526b189c9c9c97bc3634b735939f60a11b6020820152602c01651e3232b3399f60d11b81526006017f3c66696c7465722069643d226631223e3c6665496d61676520726573756c743d81527f2270302220786c696e6b3a687265663d22646174613a696d6167652f7376672b60208201526a1e1b5b0ed8985cd94d8d0b60aa1b6040820152604b0161323291610bb6565b7f222f3e3c6665496d61676520726573756c743d2270312220786c696e6b3a687281527f65663d22646174613a696d6167652f7376672b786d6c3b6261736536342c00006020820152603e0161328791610bb6565b7f222f3e3c6665496d61676520726573756c743d2270322220786c696e6b3a687281527f65663d22646174613a696d6167652f7376672b786d6c3b6261736536342c00006020820152603e016132dc91610bb6565b631110179f60e11b81526004017f3c6665496d61676520726573756c743d2270332220786c696e6b3a687265663d81527f22646174613a696d6167652f7376672b786d6c3b6261736536342c00000000006020820152603b0161333e91610bb6565b7f22202f3e3c6665426c656e64206d6f64653d226f7665726c61792220696e3d2281527f70302220696e323d22703122202f3e3c6665426c656e64206d6f64653d22657860208201527f636c7573696f6e2220696e323d22703222202f3e3c6665426c656e64206d6f6460408201527f653d226f7665726c61792220696e323d2270332220726573756c743d22626c6560608201527f6e644f757422202f3e3c6665476175737369616e426c7572200000000000000060808201526099017f696e3d22626c656e644f75742220737464446576696174696f6e3d223432222081527f2f3e3c2f66696c7465723e203c636c6970506174682069643d22636f726e657260208201527f73223e3c726563742077696474683d2232393022206865696768743d2235303060408201527f222072783d223432222072793d22343222202f3e3c2f636c6970506174683e006060820152607f017f3c706174682069643d22746578742d706174682d612220643d224d343020313281527f204832353020413238203238203020302031203237382034302056343630204160208201527f323820323820302030203120323530203438382048343020413238203238203060408201527f20302031203132203436302056343020413238203238203020302031203430206060820152671899103d1110179f60c11b60808201526088017f3c706174682069643d226d696e696d61702220643d224d32333420343434433281527f3334203435372e393439203234322e323120343633203235332034363322202f6020820152601f60f91b60408201526041017f3c66696c7465722069643d22746f702d726567696f6e2d626c7572223e3c666581527f476175737369616e426c757220696e3d22536f7572636547726170686963222060208201527f737464446576696174696f6e3d22323422202f3e3c2f66696c7465723e0000006040820152605d017f3c6c696e6561724772616469656e742069643d22677261642d7570222078313d81527f2231222078323d2230222079313d2231222079323d2230223e3c73746f70206f60208201527f66667365743d22302e30222073746f702d636f6c6f723d2277686974652220736040820152713a37b816b7b830b1b4ba3c9e91189110179f60711b60608201526072017f3c73746f70206f66667365743d222e39222073746f702d636f6c6f723d22776881527f697465222073746f702d6f7061636974793d223022202f3e3c2f6c696e65617260208201526823b930b234b2b73a1f60b91b60408201526049017f3c6c696e6561724772616469656e742069643d22677261642d646f776e22207881527f313d2230222078323d2231222079313d2230222079323d2231223e3c73746f7060208201527f206f66667365743d22302e30222073746f702d636f6c6f723d2277686974652260408201527f2073746f702d6f7061636974793d223122202f3e3c73746f70206f666673657460608201527f3d22302e39222073746f702d636f6c6f723d227768697465222073746f702d6f60808201527f7061636974793d223022202f3e3c2f6c696e6561724772616469656e743e000060a082015260be017f3c6d61736b2069643d22666164652d757022206d61736b436f6e74656e74556e81527f6974733d226f626a656374426f756e64696e67426f78223e3c7265637420776960208201527f6474683d223122206865696768743d2231222066696c6c3d2275726c2823677260408201527030b216bab8149110179f1e17b6b0b9b59f60791b60608201526071017f3c6d61736b2069643d22666164652d646f776e22206d61736b436f6e74656e7481527f556e6974733d226f626a656374426f756e64696e67426f78223e3c726563742060208201527f77696474683d223122206865696768743d2231222066696c6c3d2275726c282360408201527433b930b216b237bbb7149110179f1e17b6b0b9b59f60591b60608201526075017f3c6d61736b2069643d226e6f6e6522206d61736b436f6e74656e74556e69747381527f3d226f626a656374426f756e64696e67426f78223e3c7265637420776964746860208201527f3d223122206865696768743d2231222066696c6c3d22776869746522202f3e3c60408201526517b6b0b9b59f60d11b60608201526066017f3c6c696e6561724772616469656e742069643d22677261642d73796d626f6c2281527f3e3c73746f70206f66667365743d22302e37222073746f702d636f6c6f723d2260208201527f7768697465222073746f702d6f7061636974793d223122202f3e3c73746f702060408201527f6f66667365743d222e3935222073746f702d636f6c6f723d227768697465222060608201527f73746f702d6f7061636974793d223022202f3e3c2f6c696e656172477261646960808201526332b73a1f60e11b60a082015260a4017f3c6d61736b2069643d22666164652d73796d626f6c22206d61736b436f6e746581527f6e74556e6974733d227573657253706163654f6e557365223e3c72656374207760208201527f696474683d22323930707822206865696768743d223230307078222066696c6c60408201527f3d2275726c2823677261642d73796d626f6c2922202f3e3c2f6d61736b3e3c2f6060820152643232b3399f60d91b60808201526085017f3c6720636c69702d706174683d2275726c2823636f726e65727329223e0000008152601d016b1e3932b1ba103334b6361e9160a11b8152600c01613b2691610bb6565b7f2220783d223070782220793d22307078222077696474683d22323930707822208152703432b4b3b43a1e911a9818383c1110179f60791b60208201526031017f3c72656374207374796c653d2266696c7465723a2075726c282366312922207881527f3d223070782220793d22307078222077696474683d223239307078222068656960208201526d33b43a1e911a9818383c1110179f60911b6040820152604e017f203c67207374796c653d2266696c7465723a75726c2823746f702d726567696f81527f6e2d626c7572293b207472616e73666f726d3a7363616c6528312e35293b207460208201527f72616e73666f726d2d6f726967696e3a63656e74657220746f703b223e0000006040820152605d017f3c726563742066696c6c3d226e6f6e652220783d223070782220793d2230707881527f222077696474683d22323930707822206865696768743d22353030707822202f6020820152601f60f91b60408201526041017f3c656c6c697073652063783d22353025222063793d22307078222072783d223181527f38307078222072793d223132307078222066696c6c3d222330303022206f706160208201527131b4ba3c9e9118171c1a9110179f1e17b39f60711b60408201526052017f3c7265637420783d22302220793d2230222077696474683d223239302220686581527f696768743d22353030222072783d223432222072793d223432222066696c6c3d60208201527f227267626128302c302c302c302922207374726f6b653d22726762612832353560408201527416191a9a96191a9a96181719149110179f1e17b39f60591b60608201526075010390810182526109dc90826106ef565b604080517f3c7465787420746578742d72656e646572696e673d226f7074696d697a65537060208201526432b2b2111f60d91b918101919091527f3c74657874506174682073746172744f66667365743d222d313030252220666960458201527f6c6c3d2277686974652220666f6e742d66616d696c793d2227436f757269657260658201527f204e6577272c206d6f6e6f73706163652220666f6e742d73697a653d2231307060858201527f782220786c696e6b3a687265663d2223746578742d706174682d61223e00000060a582015293849392613e7b60c2860182610bb6565b64010714051160dd1b8152600501613e939083610bb6565b600080516020616060833981519152815260008051602061608083398151915260208201527f6f3d22313030252220626567696e3d22307322206475723d223330732220726560408201527f70656174436f756e743d22696e646566696e69746522202f3e0000000000000060608201526079017f3c2f74657874506174683e203c74657874506174682073746172744f6666736581527f743d223025222066696c6c3d2277686974652220666f6e742d66616d696c793d60208201527f2227436f7572696572204e6577272c206d6f6e6f73706163652220666f6e742d60408201527f73697a653d22313070782220786c696e6b3a687265663d2223746578742d70616060820152653a3416b0911f60d11b6080820152608601613fb791610bb6565b64010714051160dd1b8152600501613fce91610bb6565b600080516020616060833981519152815260008051602061608083398151915260208201527f6f3d22313030252220626567696e3d22307322206475723d223330732220726560408201527f70656174436f756e743d22696e646566696e69746522202f3e203c2f746578746060820152642830ba341f60d91b60808201526085017f3c74657874506174682073746172744f66667365743d22353025222066696c6c81527f3d2277686974652220666f6e742d66616d696c793d2227436f7572696572204e60208201527f6577272c206d6f6e6f73706163652220666f6e742d73697a653d22313070782260408201527f20786c696e6b3a687265663d2223746578742d706174682d61223e00000000006060820152607b016140f29082610bb6565b64010714051160dd1b815260050161410a9083610bb6565b600080516020616060833981519152815260008051602061608083398151915260208201527f6f3d22313030252220626567696e3d22307322206475723d22333073220000006040820152605d017f20726570656174436f756e743d22696e646566696e69746522202f3e3c2f746581527f7874506174683e3c74657874506174682073746172744f66667365743d222d3560208201527f3025222066696c6c3d2277686974652220666f6e742d66616d696c793d22274360408201527f6f7572696572204e6577272c206d6f6e6f73706163652220666f6e742d73697a60608201527f653d22313070782220786c696e6b3a687265663d2223746578742d706174682d60808201526230911f60e91b60a082015260a30161422b91610bb6565b64010714051160dd1b815260050161424291610bb6565b600080516020616060833981519152815260008051602061608083398151915260208201527f6f3d22313030252220626567696e3d22307322206475723d223330732220726560408201527f70656174436f756e743d22696e646566696e69746522202f3e3c2f746578745060608201526a30ba341f1e17ba32bc3a1f60a91b6080820152608b0161149a565b6111d16144bf6144a86143fc95610ce961440d6109dc97610ce960ed806040519c8d809c7f3c67206d61736b3d2275726c2823666164652d73796d626f6c29223e3c72656360208301527f742066696c6c3d226e6f6e652220783d223070782220793d223070782220776960408301527f6474683d22323930707822206865696768743d22323030707822202f3e203c7460608301527f65787420793d22373070782220783d2233327078222066696c6c3d227768697460808301527f652220666f6e742d66616d696c793d2227436f7572696572204e6577272c206d60a08301527f6f6e6f73706163652220666f6e742d7765696768743d223230302220666f6e7460c08301526c16b9b4bd329e91199b383c111f60991b60e083015260208151948593019101610190565b8a0101600190602f60f81b81520190565b7f3c2f746578743e3c7465787420793d2231313570782220783d2233327078222081527f66696c6c3d2277686974652220666f6e742d66616d696c793d2227436f75726960208201527f6572204e6577272c206d6f6e6f73706163652220666f6e742d7765696768743d60408201527f223230302220666f6e742d73697a653d2233367078223e000000000000000000606082015260770190565b6a1e17ba32bc3a1f1e17b39f60a91b8152600b0190565b7f3c7265637420783d2231362220793d223136222077696474683d22323538222081527f6865696768743d22343638222072783d223236222072793d223236222066696c60208201527f6c3d227267626128302c302c302c302922207374726f6b653d227267626128326040820152721a9a96191a9a96191a9a96181719149110179f60691b606082015260730190565b6040519061455d826106d3565b600a82526911b330b23296b237bbb760b11b6020830152565b60405190614583826106d3565b6008825267023666164652d75760c41b6020830152565b916145c0918460000b6000600182146000146148465750506145ba614576565b93614a5c565b916145ca90614b6b565b6040516c078ce40dac2e6d67a44eae4d85609b1b60208201529283926145f3602d850182610bb6565b61149160f11b81526002017f207374796c653d227472616e73666f726d3a7472616e736c617465283732707881527f2c313839707829223e3c7265637420783d222d313670782220793d222d31367060208201527f78222077696474683d22313830707822206865696768743d223138307078222060408201527f66696c6c3d226e6f6e6522202f3e3c7061746820643d2200000000000000000060608201526077016146a09083610bb6565b7f22207374726f6b653d227267626128302c302c302c302e332922207374726f6b81527f652d77696474683d2233327078222066696c6c3d226e6f6e6522207374726f6b6020820152733296b634b732b1b0b81e913937bab7321110179f60611b6040820152605401700785ece7c78ce40dac2e6d67a44eae4d85607b1b815260110161472c91610bb6565b61149160f11b81526002017f207374796c653d227472616e73666f726d3a7472616e736c617465283732707881526816189c1cb83c14911f60b91b60208201526029017f3c7265637420783d222d313670782220793d222d31367078222077696474683d81527f22313830707822206865696768743d223138307078222066696c6c3d226e6f6e602082015264329110179f60d91b6040820152604501681e3830ba3410321e9160b91b81526009016147e491610bb6565b7f22207374726f6b653d2272676261283235352c3235352c3235352c312922206681527f696c6c3d226e6f6e6522207374726f6b652d6c696e656361703d22726f756e646020820152671110179f1e17b39f60c11b6040820152604801611491565b5019614854576145ba614550565b604051614860816106d3565b6005815264236e6f6e6560d81b60208201526145ba565b600291820b910b0390627fffff198212627fffff83131761067b57565b604051906148a1826106d3565b601882527f4d312031433120393720343920313435203134352031343500000000000000006020830152565b604051906148da826106d3565b601a82527f4d31203143312038392035372e352031343520313435203134350000000000006020830152565b60405190614913826106d3565b601882527f4d312031433920383120363520313337203134352031343500000000000000006020830152565b6040519061494c826106d3565b601982527f4d312031433137203733203733203132392031343520313435000000000000006020830152565b60405190614985826106d3565b601982527f4d312031433235203635203831203132312031343520313435000000000000006020830152565b604051906149be826106d3565b601982527f4d312031433333203537203839203131332031343520313435000000000000006020830152565b604051906149f7826106d3565b601982527f4d312031433333203439203937203131332031343520313435000000000000006020830152565b60405190614a30826106d3565b601a82527f4d312031433431203431203130352031303520313435203134350000000000006020830152565b614a6a90614a6f9392614877565b6114eb565b60020b60048113614a8357506109dc614a23565b60088113614a9457506109dc6149ea565b60108113614aa557506109dc6149b1565b60208113614ab657506109dc614978565b60408113614ac757506109dc61493f565b60808113614ad857506109dc614906565b61010012614ae8576109dc6148cd565b6109dc614894565b60405190614afd826106d3565b6002825261373360f01b6020830152565b60405190614b1b826106d3565b600382526203139360ec1b6020830152565b60405190614b3a826106d3565b600382526232313760e81b6020830152565b60405190614b59826106d3565b60038252620ccccd60ea1b6020830152565b614b73614af0565b614b7b614b0e565b91614b84614b2d565b614b8c614b4c565b9160000b600181148015614d83575b15614cb7576109dc93610ce9614c10602095610ce9614c246111d197610ce9614c10610ce99d614c5d9a600019149687600014614cb0578a5b8815614ca95782955b8915614ca15750975b15614c995750985b6040516b1e31b4b931b6329031bc1e9160a11b9d81019d8e529e8f9d600c0190565b67383c111031bc9e9160c11b815260080190565b7f70782220723d22347078222066696c6c3d22776869746522202f3e3c6369726381526636329031bc1e9160c91b602082015260270190565b7f70782220723d2232347078222066696c6c3d226e6f6e6522207374726f6b653d815269113bb434ba329110179f60b11b6020820152602a0190565b905098614bee565b905097614be6565b8195614bdd565b849a614bd4565b506040516b1e31b4b931b6329031bc1e9160a11b6020820152938493602c8501614ce091610bb6565b67383c111031bc9e9160c11b8152600801614cfa91610bb6565b7f70782220723d22347078222066696c6c3d22776869746522202f3e00000000008152601b016b1e31b4b931b6329031bc1e9160a11b8152600c01614d3e91610bb6565b67383c111031bc9e9160c11b8152600801614d5891610bb6565b7f70782220723d22347078222066696c6c3d22776869746522202f3e00000000008152601b0161149a565b506000198114614b9b565b7f707822206865696768743d2232367078222072783d22387078222072793d223881527f7078222066696c6c3d227267626128302c302c302c302e362922202f3e0000006020820152603d0190565b91614de7826153e6565b90614df1816153e6565b8451614dfc90610f63565b918351614e0890610f71565b948251614e1490610f71565b91614e1e91615674565b949093614e2a90610f63565b614e339061190a565b614e3c90610df3565b95614e4690610f63565b614e4f9061190a565b614e5890610df3565b91614e6290610f63565b614e6b9061190a565b614e7490610df3565b9160405197889760208901614ec390602d907f203c67207374796c653d227472616e73666f726d3a7472616e736c617465283281526c1cb83c1610199c1a383c14911f60991b60208201520190565b6c1e3932b1ba103bb4b23a341e9160991b8152600d01614ee291610bb6565b614eeb90614d8e565b7f3c7465787420783d22313270782220793d22313770782220666f6e742d66616d81527f696c793d2227436f7572696572204e6577272c206d6f6e6f737061636522206660208201527f6f6e742d73697a653d2231327078222066696c6c3d227768697465223e3c747360408201527f70616e2066696c6c3d2272676261283235352c3235352c3235352c302e36292260608201526c1f24a21d101e17ba39b830b71f60991b6080820152608d01614fa291610bb6565b6a1e17ba32bc3a1f1e17b39f60a91b8152600b017f203c67207374796c653d227472616e73666f726d3a7472616e736c617465283281526c1cb83c16101a189a383c14911f60991b6020820152602d016c1e3932b1ba103bb4b23a341e9160991b8152600d0161501191610bb6565b61501a90614d8e565b7f3c7465787420783d22313270782220793d22313770782220666f6e742d66616d81527f696c793d2227436f7572696572204e6577272c206d6f6e6f737061636522206660208201527f6f6e742d73697a653d2231327078222066696c6c3d227768697465223e3c747360408201527f70616e2066696c6c3d2272676261283235352c3235352c3235352c302e3629226060820152721f26b4b7102a34b1b59d101e17ba39b830b71f60691b60808201526093016150d791610bb6565b6a1e17ba32bc3a1f1e17b39f60a91b8152600b017f203c67207374796c653d227472616e73666f726d3a7472616e736c617465283281526c1cb83c16101a1a1a383c14911f60991b6020820152602d016c1e3932b1ba103bb4b23a341e9160991b8152600d0161514691610bb6565b61514f90614d8e565b7f3c7465787420783d22313270782220793d22313770782220666f6e742d66616d81527f696c793d2227436f7572696572204e6577272c206d6f6e6f737061636522206660208201527f6f6e742d73697a653d2231327078222066696c6c3d227768697465223e3c747360408201527f70616e2066696c6c3d2272676261283235352c3235352c3235352c302e3629226060820152721f26b0bc102a34b1b59d101e17ba39b830b71f60691b608082015260930161520c91610bb6565b7f3c2f746578743e3c2f673e3c67207374796c653d227472616e73666f726d3a7481527f72616e736c6174652832323670782c20343333707829223e000000000000000060208201526038017f3c726563742077696474683d223336707822206865696768743d22333670782281527f2072783d22387078222072793d22387078222066696c6c3d226e6f6e6522207360208201527f74726f6b653d2272676261283235352c3235352c3235352c302e322922202f3e60408201526060017f3c70617468207374726f6b652d6c696e656361703d22726f756e642220643d2281527f4d38203943382e30303030342032322e393439342031362e323039392032382060208201527f3237203238222066696c6c3d226e6f6e6522207374726f6b653d2277686974656040820152631110179f60e11b60608201526064017f3c636972636c65207374796c653d227472616e73666f726d3a7472616e736c618152640e8ca66c8560db1b602082015260250161538691610bb6565b630383c16160e51b815260040161539c91610bb6565b7f70782c2030707829222063783d22307078222063793d223070782220723d2234815275383c11103334b6361e913bb434ba3291179f1e17b39f60511b602082015260360161149a565b6040516153f2816106b7565b60008152908060020b60008112615451575b50602061541862ffffff6109dc9316610df3565b9260405193816154318693518092868087019101610190565b820161544582518093868085019101610190565b010380845201826106ef565b9150506000038060020b90810361067b576109dc602061541862ffffff60405161547a816106d3565b60018152602d60f81b848201529493505050615404565b9060020b9060020b0190627fffff198212627fffff83131761067b57565b604051906154bc826106d3565b60028252610c8d60f21b6020830152565b604051906154da826106d3565b6002825261323760f01b6020830152565b604051906154f8826106d3565b6002825261323160f01b6020830152565b60405190615516826106d3565b6002825261062760f31b6020830152565b60405190615534826106d3565b6002825261191b60f11b6020830152565b60405190615552826106d3565b6002825261313560f01b6020830152565b60405190615570826106d3565b6002825261323560f01b6020830152565b6040519061558e826106d3565b6002825261313360f01b6020830152565b604051906155ac826106d3565b6002825261323360f01b6020830152565b604051906155ca826106d3565b6002825261313160f01b6020830152565b604051906155e8826106d3565b6002825261031360f41b6020830152565b60405190615606826106d3565b60018252600760fb1b6020830152565b60405190615623826106d3565b600582526431342e323560d81b6020830152565b60405190615644826106d3565b600482526331302e3560e01b6020830152565b60405190615664826106d3565b60018252603760f81b6020830152565b61568a9161568191615491565b600290810b0590565b60020b6201e847198112156156ab57506156a26155f9565b906109dc615657565b620124f7198112156156c957506156c06155f9565b906109dc615637565b6161a7198112156156e657506156dd6155f9565b906109dc615616565b6113871981121561570357506156fa6155db565b906109dc615509565b600081121561571e57506157156155bd565b906109dc6154eb565b61138881121561573a5750615731615581565b906109dc61559f565b6161a8811215615756575061574d615545565b906109dc615563565b620124f8811215615773575061576a615509565b906109dc615527565b6201e848131561578e576157856154eb565b906109dc6154cd565b6157856154af565b9061584e611eae6158496158539360405160208101918783526bffffffffffffffffffffffff199060601b166040820152603481526157d481610696565b51902094806000916157e7811515611f9a565b600160801b811015615c22575b5080600160401b6002921015615c0f575b640100000000811015615bfc575b62010000811015615be9575b610100811015615bd6575b6010811015615bc3575b6004811015615bb1575b1015615ba357615c31565b611d8b565b610ddc565b1115615b9b576040516109dc816111d1615af3615a456159b661592560208601608d907f3c67207374796c653d227472616e73666f726d3a7472616e736c61746528323281527f3670782c20333932707829223e3c726563742077696474683d2233367078222060208201527f6865696768743d2233367078222072783d22387078222072793d22387078222060408201527f66696c6c3d226e6f6e6522207374726f6b653d2272676261283235352c32353560608201526c16191a9a96181719149110179f60991b60808201520190565b7f3c673e3c70617468207374796c653d227472616e73666f726d3a7472616e736c81527f617465283670782c367078292220643d224d313220304c31322e36353232203960208201527f2e35363538374c313820312e363037374c31332e373831392031302e32313831604082015272026191917199c9919901b26189a171a199a189606d1b606082015260730190565b7f31312e333437384c32342031324c31342e343334312031322e363532324c323281527f2e333932332031384c31332e373831392031332e373831394c31382032322e3360208201527f3932334c31322e363532322031342e343334314c31322032344c31312e333437604082015270382031342e343334314c362032322e333960781b606082015260710190565b7f32334c31302e323138312031332e373831394c312e363037372031384c392e3581527f363538372031322e363532324c302031324c392e35363538372031312e33343760208201527f384c312e3630373720364c31302e323138312031302e323138314c3620312e3660408201527f3037374c31312e3334373820392e35363538374c313220305a222066696c6c3d606082015269113bb434ba329110179f60b11b6080820152608a0190565b7f3c616e696d6174655472616e73666f726d206174747269627574654e616d653d81527f227472616e73666f726d2220747970653d22726f74617465222066726f6d3d2260208201527f302031382031382220746f3d2233363020313820313822206475723d2231307360408201527f2220726570656174436f756e743d22696e646566696e697465222f3e3c2f673e6060820152631e17b39f60e11b608082015260840190565b6109dc61079f565b615bac90611d0d565b615c31565b615bbd90821c92611d1f565b9161583e565b615bd09060041c92611d79565b91615834565b615be39060081c92611d67565b9161582a565b615bf69060101c92611d55565b9161581f565b615c099060201c92611d43565b91615813565b615c1c9060401c92611d31565b91615805565b60809250821c905060026157f4565b60011b906101fe60fe83169216820361067b57565b615c4f81615dde565b90815115615c5b575090565b9050615c656107b2565b906001600160a01b03166000805b60038110615c815750505090565b60139080820391821161067b57615ce0615ca885615ca1615cf99561191b565b1c60ff1690565b615cc4600f615cba60f0841684611c98565b9260041c16615cfe565b615cda615cd085611933565b91871a9189610820565b53615cfe565b6108a7615cef611ea984611933565b91851a9187610820565b615c73565b60ff16600a811015615d255760300160ff811161067b5760f81b6001600160f81b03191690565b60370160ff811161067b5760f81b6001600160f81b03191690565b3d15615d6b573d90615d5182610783565b91615d5f60405193846106ef565b82523d6000602084013e565b606090565b6020818303126100d25780519067ffffffffffffffff82116100d2570181601f820112156100d2578051615da381610783565b92615db160405194856106ef565b818452602082840101116100d2576109dc9160208085019101610190565b908160209103126100d2575190565b60008060405192602093848101906395d89b4160e01b825260048152615e03816106d3565b51915afa615e0f615d40565b90158015615e6d575b615e63578051828103615e40575080826109dc93615e3b93518301019101615dcf565b615e76565b9160408311615e54575050506109dc61079f565b806109dc938301019101615d70565b50506109dc61079f565b50805115615e18565b9060405191615e84836106d3565b6020808452803681860137600091825b828110615edc57505050615ea7816107cc565b9060005b818110615eb9575090925050565b80615eca610fc2615ed79388610820565b60001a6108a78286610820565b615eab565b81811a60f881901b6001600160f81b031916615f02575b50615efd9061066c565b615e94565b84615f15916108a7615efd94978a610820565b9390615ef3565b60405190615f2982610696565b604082527f6768696a6b6c6d6e6f707172737475767778797a303132333435363738392b2f6040837f4142434445464748494a4b4c4d4e4f505152535455565758595a61626364656660208201520152565b80511561605657615f8a615f1c565b615fa6615fa1615f9a8451610f55565b6003900490565b61194b565b91615fb361102484610f7f565b92835280815182019060208501935b82821061600457505050600390510680600114615ff357600214615fe4575090565b603d60f81b6000199091015290565b50613d3d60f01b6001199091015290565b9091936004906003809401938451600190603f9082828260121c16880101518553828282600c1c16880101518386015382828260061c1688010151600286015316850101519082015301939190615fc2565b506109dc61079f56fe203c616e696d6174652061646469746976653d2273756d22206174747269627574654e616d653d2273746172744f6666736574222066726f6d3d223025222074a2646970667358221220a0485a80d5b8cc267c74ae5672e777649264df281e4240071626490451ebc04064736f6c63430008130033","linkReferences":{}},"methodIdentifiers":{"WETH9()":"4aa4a4fc","flipRatio(address,address,uint256)":"7e5af771","nativeCurrencyLabel()":"b7af3cdc","nativeCurrencyLabelBytes()":"a18246e2","tokenRatioPriority(address,uint256)":"9d7b0ea8","tokenURI(address,uint256)":"e9dc6375"},"id":250}