{"abi":[{"type":"constructor","inputs":[{"name":"_v3TwapUtilities","type":"address","internalType":"contract IV3TwapUtilities"},{"name":"_v2Router","type":"address","internalType":"address"},{"name":"_v3Router","type":"address","internalType":"address"}],"stateMutability":"nonpayable"},{"type":"function","name":"ASYNC_INITIALIZE","inputs":[],"outputs":[{"name":"","type":"bool","internalType":"bool"}],"stateMutability":"view"},{"type":"function","name":"V2_ROUTER","inputs":[],"outputs":[{"name":"","type":"address","internalType":"address"}],"stateMutability":"view"},{"type":"function","name":"V3_ROUTER","inputs":[],"outputs":[{"name":"","type":"address","internalType":"address"}],"stateMutability":"view"},{"type":"function","name":"V3_TWAP_UTILS","inputs":[],"outputs":[{"name":"","type":"address","internalType":"contract IV3TwapUtilities"}],"stateMutability":"view"},{"type":"function","name":"WETH","inputs":[],"outputs":[{"name":"","type":"address","internalType":"address"}],"stateMutability":"view"},{"type":"function","name":"addLiquidity","inputs":[{"name":"_tokenA","type":"address","internalType":"address"},{"name":"_tokenB","type":"address","internalType":"address"},{"name":"_amountADesired","type":"uint256","internalType":"uint256"},{"name":"_amountBDesired","type":"uint256","internalType":"uint256"},{"name":"_amountAMin","type":"uint256","internalType":"uint256"},{"name":"_amountBMin","type":"uint256","internalType":"uint256"},{"name":"_to","type":"address","internalType":"address"},{"name":"_deadline","type":"uint256","internalType":"uint256"}],"outputs":[],"stateMutability":"nonpayable"},{"type":"function","name":"createV2Pool","inputs":[{"name":"_token0","type":"address","internalType":"address"},{"name":"_token1","type":"address","internalType":"address"}],"outputs":[{"name":"","type":"address","internalType":"address"}],"stateMutability":"nonpayable"},{"type":"function","name":"extraRewardsHook","inputs":[{"name":"","type":"address","internalType":"address"},{"name":"","type":"address","internalType":"address"}],"outputs":[{"name":"_t","type":"address[]","internalType":"address[]"},{"name":"_a","type":"uint256[]","internalType":"uint256[]"}],"stateMutability":"nonpayable"},{"type":"function","name":"getV2Pool","inputs":[{"name":"_token0","type":"address","internalType":"address"},{"name":"_token1","type":"address","internalType":"address"}],"outputs":[{"name":"","type":"address","internalType":"address"}],"stateMutability":"view"},{"type":"function","name":"getV3Pool","inputs":[{"name":"","type":"address","internalType":"address"},{"name":"","type":"address","internalType":"address"},{"name":"","type":"int24","internalType":"int24"}],"outputs":[{"name":"_p","type":"address","internalType":"address"}],"stateMutability":"view"},{"type":"function","name":"getV3Pool","inputs":[{"name":"_token0","type":"address","internalType":"address"},{"name":"_token1","type":"address","internalType":"address"},{"name":"","type":"uint24","internalType":"uint24"}],"outputs":[{"name":"","type":"address","internalType":"address"}],"stateMutability":"view"},{"type":"function","name":"removeLiquidity","inputs":[{"name":"_tokenA","type":"address","internalType":"address"},{"name":"_tokenB","type":"address","internalType":"address"},{"name":"_liquidity","type":"uint256","internalType":"uint256"},{"name":"_amountAMin","type":"uint256","internalType":"uint256"},{"name":"_amountBMin","type":"uint256","internalType":"uint256"},{"name":"_to","type":"address","internalType":"address"},{"name":"_deadline","type":"uint256","internalType":"uint256"}],"outputs":[],"stateMutability":"nonpayable"},{"type":"function","name":"swapV2Single","inputs":[{"name":"_tokenIn","type":"address","internalType":"address"},{"name":"_tokenOut","type":"address","internalType":"address"},{"name":"_amountIn","type":"uint256","internalType":"uint256"},{"name":"_amountOutMin","type":"uint256","internalType":"uint256"},{"name":"_recipient","type":"address","internalType":"address"}],"outputs":[{"name":"_amountOut","type":"uint256","internalType":"uint256"}],"stateMutability":"nonpayable"},{"type":"function","name":"swapV2SingleExactOut","inputs":[{"name":"_tokenIn","type":"address","internalType":"address"},{"name":"_tokenOut","type":"address","internalType":"address"},{"name":"_amountInMax","type":"uint256","internalType":"uint256"},{"name":"_amountOut","type":"uint256","internalType":"uint256"},{"name":"_recipient","type":"address","internalType":"address"}],"outputs":[{"name":"_amountInUsed","type":"uint256","internalType":"uint256"}],"stateMutability":"nonpayable"},{"type":"function","name":"swapV3Single","inputs":[{"name":"_tokenIn","type":"address","internalType":"address"},{"name":"_tokenOut","type":"address","internalType":"address"},{"name":"","type":"uint24","internalType":"uint24"},{"name":"_amountIn","type":"uint256","internalType":"uint256"},{"name":"_amountOutMin","type":"uint256","internalType":"uint256"},{"name":"_recipient","type":"address","internalType":"address"}],"outputs":[{"name":"_amountOut","type":"uint256","internalType":"uint256"}],"stateMutability":"nonpayable"}],"bytecode":{"object":"0x6101006040523480156200001257600080fd5b50604051620021b6380380620021b6833981016040819052620000359162000071565b6001600160a01b0392831660805290821660a0521660c052600160e052620000c5565b6001600160a01b03811681146200006e57600080fd5b50565b6000806000606084860312156200008757600080fd5b8351620000948162000058565b6020850151909350620000a78162000058565b6040850151909250620000ba8162000058565b809150509250925092565b60805160a05160c05160e0516120396200017d60003960006102190152600081816101b001528181610722015281816107d40152611171015260008181610150015281816104660152818161048d01528181610a0301528181610a3f01528181610b7201528181610c7301528181610cfc01528181610e8401528181610ef40152818161106c01528181611385015281816113b9015261142f015260008181610289015281816104c0015261114201526120396000f3fe608060405234801561001057600080fd5b50600436106100f55760003560e01c8063a20e9a5511610097578063c4f3e9d711610066578063c4f3e9d71461024b578063e3ddd7791461025e578063e8e3370014610271578063f191c16a1461028457600080fd5b8063a20e9a55146101d2578063ad5c4648146101f7578063baa2abde146101ff578063c3749ae51461021457600080fd5b80638d5752d6116100d35780638d5752d6146101725780639a8fadee146101855780639f4f974514610198578063a1119856146101ab57600080fd5b80630a8e060f146100fa57806383e4b89f1461012a5780638ada032e1461014b575b600080fd5b61010d610108366004611a05565b6102ab565b6040516001600160a01b0390911681526020015b60405180910390f35b61013d610138366004611a57565b6102e0565b604051908152602001610121565b61010d7f000000000000000000000000000000000000000000000000000000000000000081565b61013d610180366004611ace565b610616565b61013d610193366004611a57565b61088d565b61010d6101a6366004611b3c565b610b6e565b61010d7f000000000000000000000000000000000000000000000000000000000000000081565b6101e96101e0366004611b3c565b50606091829150565b604051610121929190611bb9565b61010d610c6f565b61021261020d366004611c10565b610cf8565b005b61023b7f000000000000000000000000000000000000000000000000000000000000000081565b6040519015158152602001610121565b61010d610259366004611b3c565b611068565b61010d61026c366004611c82565b61113e565b61021261027f366004611cc9565b611271565b61010d7f000000000000000000000000000000000000000000000000000000000000000081565b60405162461bcd60e51b8152602060048201526002602482015261049360f41b60448201526000906064015b60405180910390fd5b6040516370a0823160e01b81526001600160a01b03828116600483015260009182918716906370a0823190602401602060405180830381865afa15801561032b573d6000803e3d6000fd5b505050506040513d601f19601f8201168201806040525081019061034f9190611d45565b9050846000036103c8576040516370a0823160e01b81523060048201526001600160a01b038816906370a0823190602401602060405180830381865afa15801561039d573d6000803e3d6000fd5b505050506040513d601f19601f820116820180604052508101906103c19190611d45565b94506103df565b6103df335b6001600160a01b0389169030886116a2565b604080516002808252606082018352600092602083019080368337019050509050878160008151811061041457610414611d74565b60200260200101906001600160a01b031690816001600160a01b031681525050868160018151811061044857610448611d74565b6001600160a01b03928316602091820292909201015261048b9089167f000000000000000000000000000000000000000000000000000000000000000088611713565b7f00000000000000000000000000000000000000000000000000000000000000006001600160a01b031663ac3893ba878784887f00000000000000000000000000000000000000000000000000000000000000006001600160a01b0316638da5cb5b6040518163ffffffff1660e01b8152600401602060405180830381865afa15801561051c573d6000803e3d6000fd5b505050506040513d601f19601f820116820180604052508101906105409190611d8a565b426040518763ffffffff1660e01b815260040161056296959493929190611dae565b600060405180830381600087803b15801561057c57600080fd5b505af1158015610590573d6000803e3d6000fd5b50506040516370a0823160e01b81526001600160a01b0387811660048301528593508a1691506370a0823190602401602060405180830381865afa1580156105dc573d6000803e3d6000fd5b505050506040513d601f19601f820116820180604052508101906106009190611d45565b61060a9190611e08565b98975050505050505050565b6040516370a0823160e01b81526001600160a01b03828116600483015260009182918816906370a0823190602401602060405180830381865afa158015610661573d6000803e3d6000fd5b505050506040513d601f19601f820116820180604052508101906106859190611d45565b9050846000036106fe576040516370a0823160e01b81523060048201526001600160a01b038916906370a0823190602401602060405180830381865afa1580156106d3573d6000803e3d6000fd5b505050506040513d601f19601f820116820180604052508101906106f79190611d45565b9450610713565b6107136001600160a01b0389163330886116a2565b6107476001600160a01b0389167f000000000000000000000000000000000000000000000000000000000000000087611713565b6040805160e0810182526001600160a01b038a81168252898116602083019081528682168385019081524260608501908152608085018b815260a086018b8152600060c08801908152975163178ca23160e31b81529651861660048801529351851660248701529151841660448601525160648501525160848401525160a48301529151821660c48201527f00000000000000000000000000000000000000000000000000000000000000009091169063bc6511889060e4016020604051808303816000875af115801561081f573d6000803e3d6000fd5b505050506040513d601f19601f820116820180604052508101906108439190611d45565b506040516370a0823160e01b81526001600160a01b0384811660048301528291908916906370a0823190602401602060405180830381865afa1580156105dc573d6000803e3d6000fd5b6040516370a0823160e01b815230600482015260009081906001600160a01b038816906370a0823190602401602060405180830381865afa1580156108d6573d6000803e3d6000fd5b505050506040513d601f19601f820116820180604052508101906108fa9190611d45565b905084600003610973576040516370a0823160e01b81523060048201526001600160a01b038816906370a0823190602401602060405180830381865afa158015610948573d6000803e3d6000fd5b505050506040513d601f19601f8201168201806040525081019061096c9190611d45565b945061097c565b61097c336103cd565b60408051600280825260608201835260009260208301908036833701905050905087816000815181106109b1576109b1611d74565b60200260200101906001600160a01b031690816001600160a01b03168152505086816001815181106109e5576109e5611d74565b6001600160a01b039283166020918202929092010152610a289089167f000000000000000000000000000000000000000000000000000000000000000088611713565b604051634401edf760e11b81526001600160a01b037f00000000000000000000000000000000000000000000000000000000000000001690638803dbee90610a7c9088908a9086908a904290600401611e1b565b6000604051808303816000875af1158015610a9b573d6000803e3d6000fd5b505050506040513d6000823e601f3d908101601f19168201604052610ac39190810190611e57565b506040516370a0823160e01b815230600482015260009083906001600160a01b038b16906370a0823190602401602060405180830381865afa158015610b0d573d6000803e3d6000fd5b505050506040513d601f19601f82011682018060405250810190610b319190611d45565b610b3b9190611e08565b90508015610b5757610b576001600160a01b038a1633836117c0565b610b618188611e08565b9998505050505050505050565b60007f00000000000000000000000000000000000000000000000000000000000000006001600160a01b031663c45a01556040518163ffffffff1660e01b8152600401602060405180830381865afa158015610bce573d6000803e3d6000fd5b505050506040513d601f19601f82011682018060405250810190610bf29190611d8a565b60405163e6a4390560e01b81526001600160a01b0385811660048301528481166024830152919091169063e6a4390590604401602060405180830381865afa158015610c42573d6000803e3d6000fd5b505050506040513d601f19601f82011682018060405250810190610c669190611d8a565b90505b92915050565b60007f00000000000000000000000000000000000000000000000000000000000000006001600160a01b031663ad5c46486040518163ffffffff1660e01b8152600401602060405180830381865afa158015610ccf573d6000803e3d6000fd5b505050506040513d601f19601f82011682018060405250810190610cf39190611d8a565b905090565b60007f00000000000000000000000000000000000000000000000000000000000000006001600160a01b031663c45a01556040518163ffffffff1660e01b8152600401602060405180830381865afa158015610d58573d6000803e3d6000fd5b505050506040513d601f19601f82011682018060405250810190610d7c9190611d8a565b60405163e6a4390560e01b81526001600160a01b038a811660048301528981166024830152919091169063e6a4390590604401602060405180830381865afa158015610dcc573d6000803e3d6000fd5b505050506040513d601f19601f82011682018060405250810190610df09190611d8a565b6040516370a0823160e01b81523060048201529091506000906001600160a01b038316906370a0823190602401602060405180830381865afa158015610e3a573d6000803e3d6000fd5b505050506040513d601f19601f82011682018060405250810190610e5e9190611d45565b9050610e756001600160a01b03831633308a6116a2565b610ea96001600160a01b0383167f000000000000000000000000000000000000000000000000000000000000000089611713565b604051635d5155ef60e11b81526001600160a01b038a81166004830152898116602483015260448201899052606482018890526084820187905285811660a483015260c482018590527f0000000000000000000000000000000000000000000000000000000000000000169063baa2abde9060e40160408051808303816000875af1158015610f3c573d6000803e3d6000fd5b505050506040513d601f19601f82011682018060405250810190610f609190611f09565b50506040516370a0823160e01b815230600482015281906001600160a01b038416906370a0823190602401602060405180830381865afa158015610fa8573d6000803e3d6000fd5b505050506040513d601f19601f82011682018060405250810190610fcc9190611d45565b111561105d576040516370a0823160e01b815230600482015261105d90859083906001600160a01b038616906370a0823190602401602060405180830381865afa15801561101e573d6000803e3d6000fd5b505050506040513d601f19601f820116820180604052508101906110429190611d45565b61104c9190611e08565b6001600160a01b03851691906117c0565b505050505050505050565b60007f00000000000000000000000000000000000000000000000000000000000000006001600160a01b031663c45a01556040518163ffffffff1660e01b8152600401602060405180830381865afa1580156110c8573d6000803e3d6000fd5b505050506040513d601f19601f820116820180604052508101906110ec9190611d8a565b6040516364e329cb60e11b81526001600160a01b0385811660048301528481166024830152919091169063c9c65396906044016020604051808303816000875af1158015610c42573d6000803e3d6000fd5b60007f00000000000000000000000000000000000000000000000000000000000000006001600160a01b031663ddca45b07f00000000000000000000000000000000000000000000000000000000000000006001600160a01b031663c45a01556040518163ffffffff1660e01b8152600401602060405180830381865afa1580156111cd573d6000803e3d6000fd5b505050506040513d601f19601f820116820180604052508101906111f19190611d8a565b6040516001600160e01b031960e084901b1681526001600160a01b03918216600482015281881660248201529086166044820152606401602060405180830381865afa158015611245573d6000803e3d6000fd5b505050506040513d601f19601f820116820180604052508101906112699190611d8a565b949350505050565b6040516370a0823160e01b81523060048201526000906001600160a01b038a16906370a0823190602401602060405180830381865afa1580156112b8573d6000803e3d6000fd5b505050506040513d601f19601f820116820180604052508101906112dc9190611d45565b6040516370a0823160e01b81523060048201529091506000906001600160a01b038a16906370a0823190602401602060405180830381865afa158015611326573d6000803e3d6000fd5b505050506040513d601f19601f8201168201806040525081019061134a9190611d45565b90506113616001600160a01b038b1633308b6116a2565b6113766001600160a01b038a1633308a6116a2565b6113aa6001600160a01b038b167f00000000000000000000000000000000000000000000000000000000000000008a611713565b6113de6001600160a01b038a167f000000000000000000000000000000000000000000000000000000000000000089611713565b60405162e8e33760e81b81526001600160a01b038b811660048301528a81166024830152604482018a9052606482018990526084820188905260a4820187905285811660c483015260e482018590527f0000000000000000000000000000000000000000000000000000000000000000169063e8e3370090610104016060604051808303816000875af1158015611479573d6000803e3d6000fd5b505050506040513d601f19601f8201168201806040525081019061149d9190611f2d565b50506040516370a0823160e01b81523060048201528391506001600160a01b038c16906370a0823190602401602060405180830381865afa1580156114e6573d6000803e3d6000fd5b505050506040513d601f19601f8201168201806040525081019061150a9190611d45565b111561159b576040516370a0823160e01b815230600482015261159b90859084906001600160a01b038e16906370a0823190602401602060405180830381865afa15801561155c573d6000803e3d6000fd5b505050506040513d601f19601f820116820180604052508101906115809190611d45565b61158a9190611e08565b6001600160a01b038d1691906117c0565b6040516370a0823160e01b815230600482015281906001600160a01b038b16906370a0823190602401602060405180830381865afa1580156115e1573d6000803e3d6000fd5b505050506040513d601f19601f820116820180604052508101906116059190611d45565b1115611696576040516370a0823160e01b815230600482015261169690859083906001600160a01b038d16906370a0823190602401602060405180830381865afa158015611657573d6000803e3d6000fd5b505050506040513d601f19601f8201168201806040525081019061167b9190611d45565b6116859190611e08565b6001600160a01b038c1691906117c0565b50505050505050505050565b6040516001600160a01b038085166024830152831660448201526064810182905261170d9085906323b872dd60e01b906084015b60408051601f198184030181529190526020810180516001600160e01b03166001600160e01b0319909316929092179091526117f5565b50505050565b604051636eb1769f60e11b81523060048201526001600160a01b0383811660248301526000919085169063dd62ed3e90604401602060405180830381865afa158015611763573d6000803e3d6000fd5b505050506040513d601f19601f820116820180604052508101906117879190611d45565b905061170d8463095ea7b360e01b856117a08686611f5b565b6040516001600160a01b03909216602483015260448201526064016116d6565b6040516001600160a01b0383166024820152604481018290526117f090849063a9059cbb60e01b906064016116d6565b505050565b600061184a826040518060400160405280602081526020017f5361666545524332303a206c6f772d6c6576656c2063616c6c206661696c6564815250856001600160a01b03166118ca9092919063ffffffff16565b905080516000148061186b57508080602001905181019061186b9190611f6e565b6117f05760405162461bcd60e51b815260206004820152602a60248201527f5361666545524332303a204552433230206f7065726174696f6e20646964206e6044820152691bdd081cdd58d8d9595960b21b60648201526084016102d7565b6060611269848460008585600080866001600160a01b031685876040516118f19190611fb4565b60006040518083038185875af1925050503d806000811461192e576040519150601f19603f3d011682016040523d82523d6000602084013e611933565b606091505b50915091506119448783838761194f565b979650505050505050565b606083156119be5782516000036119b7576001600160a01b0385163b6119b75760405162461bcd60e51b815260206004820152601d60248201527f416464726573733a2063616c6c20746f206e6f6e2d636f6e747261637400000060448201526064016102d7565b5081611269565b61126983838151156119d35781518083602001fd5b8060405162461bcd60e51b81526004016102d79190611fd0565b6001600160a01b0381168114611a0257600080fd5b50565b600080600060608486031215611a1a57600080fd5b8335611a25816119ed565b92506020840135611a35816119ed565b91506040840135600281900b8114611a4c57600080fd5b809150509250925092565b600080600080600060a08688031215611a6f57600080fd5b8535611a7a816119ed565b94506020860135611a8a816119ed565b935060408601359250606086013591506080860135611aa8816119ed565b809150509295509295909350565b803562ffffff81168114611ac957600080fd5b919050565b60008060008060008060c08789031215611ae757600080fd5b8635611af2816119ed565b95506020870135611b02816119ed565b9450611b1060408801611ab6565b9350606087013592506080870135915060a0870135611b2e816119ed565b809150509295509295509295565b60008060408385031215611b4f57600080fd5b8235611b5a816119ed565b91506020830135611b6a816119ed565b809150509250929050565b600081518084526020808501945080840160005b83811015611bae5781516001600160a01b031687529582019590820190600101611b89565b509495945050505050565b604081526000611bcc6040830185611b75565b82810360208481019190915284518083528582019282019060005b81811015611c0357845183529383019391830191600101611be7565b5090979650505050505050565b600080600080600080600060e0888a031215611c2b57600080fd5b8735611c36816119ed565b96506020880135611c46816119ed565b955060408801359450606088013593506080880135925060a0880135611c6b816119ed565b8092505060c0880135905092959891949750929550565b600080600060608486031215611c9757600080fd5b8335611ca2816119ed565b92506020840135611cb2816119ed565b9150611cc060408501611ab6565b90509250925092565b600080600080600080600080610100898b031215611ce657600080fd5b8835611cf1816119ed565b97506020890135611d01816119ed565b965060408901359550606089013594506080890135935060a0890135925060c0890135611d2d816119ed565b8092505060e089013590509295985092959890939650565b600060208284031215611d5757600080fd5b5051919050565b634e487b7160e01b600052604160045260246000fd5b634e487b7160e01b600052603260045260246000fd5b600060208284031215611d9c57600080fd5b8151611da7816119ed565b9392505050565b86815285602082015260c060408201526000611dcd60c0830187611b75565b6001600160a01b03958616606084015293909416608082015260a00152949350505050565b634e487b7160e01b600052601160045260246000fd5b81810381811115610c6957610c69611df2565b85815284602082015260a060408201526000611e3a60a0830186611b75565b6001600160a01b0394909416606083015250608001529392505050565b60006020808385031215611e6a57600080fd5b825167ffffffffffffffff80821115611e8257600080fd5b818501915085601f830112611e9657600080fd5b815181811115611ea857611ea8611d5e565b8060051b604051601f19603f83011681018181108582111715611ecd57611ecd611d5e565b604052918252848201925083810185019188831115611eeb57600080fd5b938501935b8285101561060a57845184529385019392850192611ef0565b60008060408385031215611f1c57600080fd5b505080516020909101519092909150565b600080600060608486031215611f4257600080fd5b8351925060208401519150604084015190509250925092565b80820180821115610c6957610c69611df2565b600060208284031215611f8057600080fd5b81518015158114611da757600080fd5b60005b83811015611fab578181015183820152602001611f93565b50506000910152565b60008251611fc6818460208701611f90565b9190910192915050565b6020815260008251806020840152611fef816040850160208701611f90565b601f01601f1916919091016040019291505056fea2646970667358221220b1d90972145f21cfdbe7e3ca068ac64eb190372658d8eceb77cf225ce32c04f664736f6c63430008130033","linkReferences":{}},"methodIdentifiers":{"ASYNC_INITIALIZE()":"c3749ae5","V2_ROUTER()":"8ada032e","V3_ROUTER()":"a1119856","V3_TWAP_UTILS()":"f191c16a","WETH()":"ad5c4648","addLiquidity(address,address,uint256,uint256,uint256,uint256,address,uint256)":"e8e33700","createV2Pool(address,address)":"c4f3e9d7","extraRewardsHook(address,address)":"a20e9a55","getV2Pool(address,address)":"9f4f9745","getV3Pool(address,address,int24)":"0a8e060f","getV3Pool(address,address,uint24)":"e3ddd779","removeLiquidity(address,address,uint256,uint256,uint256,address,uint256)":"baa2abde","swapV2Single(address,address,uint256,uint256,address)":"83e4b89f","swapV2SingleExactOut(address,address,uint256,uint256,address)":"9a8fadee","swapV3Single(address,address,uint24,uint256,uint256,address)":"8d5752d6"},"id":20}