{"abi":[{"type":"function","name":"getPoolPriceUSDX96","inputs":[{"name":"_pricePool","type":"address","internalType":"address"},{"name":"_nativeStablePool","type":"address","internalType":"address"},{"name":"_WETH9","type":"address","internalType":"address"}],"outputs":[{"name":"","type":"uint256","internalType":"uint256"}],"stateMutability":"view"},{"type":"function","name":"getV3Pool","inputs":[{"name":"","type":"address","internalType":"address"},{"name":"","type":"address","internalType":"address"},{"name":"","type":"address","internalType":"address"},{"name":"","type":"int24","internalType":"int24"}],"outputs":[{"name":"","type":"address","internalType":"address"}],"stateMutability":"pure"},{"type":"function","name":"getV3Pool","inputs":[{"name":"","type":"address","internalType":"address"},{"name":"","type":"address","internalType":"address"},{"name":"","type":"address","internalType":"address"},{"name":"","type":"uint24","internalType":"uint24"}],"outputs":[{"name":"","type":"address","internalType":"address"}],"stateMutability":"pure"},{"type":"function","name":"getV3Pool","inputs":[{"name":"_v3Factory","type":"address","internalType":"address"},{"name":"_t0","type":"address","internalType":"address"},{"name":"_t1","type":"address","internalType":"address"}],"outputs":[{"name":"","type":"address","internalType":"address"}],"stateMutability":"view"},{"type":"function","name":"owner","inputs":[],"outputs":[{"name":"","type":"address","internalType":"address"}],"stateMutability":"view"},{"type":"function","name":"priceX96FromSqrtPriceX96","inputs":[{"name":"sqrtPriceX96","type":"uint160","internalType":"uint160"}],"outputs":[{"name":"priceX96","type":"uint256","internalType":"uint256"}],"stateMutability":"pure"},{"type":"function","name":"renounceOwnership","inputs":[],"outputs":[],"stateMutability":"nonpayable"},{"type":"function","name":"sqrtPriceX96FromPoolAndInterval","inputs":[{"name":"_poolAddress","type":"address","internalType":"address"}],"outputs":[{"name":"sqrtPriceX96","type":"uint160","internalType":"uint160"}],"stateMutability":"view"},{"type":"function","name":"sqrtPriceX96FromPoolAndPassedInterval","inputs":[{"name":"_poolAddress","type":"address","internalType":"address"},{"name":"_interval","type":"uint32","internalType":"uint32"}],"outputs":[{"name":"sqrtPriceX96","type":"uint160","internalType":"uint160"}],"stateMutability":"view"},{"type":"function","name":"transferOwnership","inputs":[{"name":"newOwner","type":"address","internalType":"address"}],"outputs":[],"stateMutability":"nonpayable"},{"type":"event","name":"OwnershipTransferred","inputs":[{"name":"previousOwner","type":"address","indexed":true,"internalType":"address"},{"name":"newOwner","type":"address","indexed":true,"internalType":"address"}],"anonymous":false},{"type":"error","name":"T","inputs":[]}],"bytecode":{"object":"0x608060405234801561001057600080fd5b5061001a3361001f565b61006f565b600080546001600160a01b038381166001600160a01b0319831681178455604051919092169283917f8be0079c531659141344cd1fd0a4f28419497f9722a3daafe3b4186f6b6457e09190a35050565b61160d8061007e6000396000f3fe608060405234801561001057600080fd5b506004361061009e5760003560e01c80638da5cb5b116100665780638da5cb5b14610116578063b5ed446314610127578063d4bf133414610148578063ddca45b01461015b578063f2fde38b1461016e57600080fd5b80630bbf9b68146100a35780632e33f332146100d35780634556bd20146100e6578063715018a6146100f95780637fb4f79d14610103575b600080fd5b6100b66100b1366004610e88565b610181565b6040516001600160a01b0390911681526020015b60405180910390f35b6100b66100e1366004610ed9565b610194565b6100b66100f4366004610f35565b6101c9565b6101016101f9565b005b6100b6610111366004610f8e565b61020d565b6000546001600160a01b03166100b6565b61013a610135366004610fab565b610221565b6040519081526020016100ca565b61013a610156366004610f8e565b61036a565b6100b6610169366004610fab565b610384565b61010161017c366004610f8e565b610446565b600061018d83836104bf565b9392505050565b60405162461bcd60e51b8152602060048201526002602482015261049360f41b60448201526000906064015b60405180910390fd5b60405162461bcd60e51b8152602060048201526002602482015261493160f01b60448201526000906064016101c0565b610201610696565b61020b60006106f0565b565b600061021b826102586104bf565b92915050565b600080836001600160a01b0316630dfe16816040518163ffffffff1660e01b8152600401602060405180830381865afa158015610262573d6000803e3d6000fd5b505050506040513d601f19601f820116820180604052508101906102869190610ff6565b9050600061031485856001600160a01b0316846001600160a01b0316146102ad5783610740565b866001600160a01b031663d21220a76040518163ffffffff1660e01b8152600401602060405180830381865afa1580156102eb573d6000803e3d6000fd5b505050506040513d601f19601f8201168201806040525081019061030f9190610ff6565b610740565b9050846001600160a01b0316866001600160a01b03160361033857915061018d9050565b60006103448786610740565b9050600160601b6103558284611029565b61035f9190611056565b979650505050505050565b600061021b6001600160a01b03831680600160601b6109ab565b6000806000836001600160a01b0316856001600160a01b0316106103a95783856103ac565b84845b9150915060006040518060400160405280846001600160a01b03168152602001836001600160a01b0316815250905061035f876001600160a01b0316633119049a6040518163ffffffff1660e01b8152600401602060405180830381865afa15801561041c573d6000803e3d6000fd5b505050506040513d601f19601f820116820180604052508101906104409190610ff6565b82610a5d565b61044e610696565b6001600160a01b0381166104b35760405162461bcd60e51b815260206004820152602660248201527f4f776e61626c653a206e6577206f776e657220697320746865207a65726f206160448201526564647265737360d01b60648201526084016101c0565b6104bc816106f0565b50565b60008263ffffffff8316820361054257806001600160a01b031663e76c01e46040518163ffffffff1660e01b815260040161010060405180830381865afa15801561050e573d6000803e3d6000fd5b505050506040513d601f19601f820116820180604052508101906105329190611092565b5095975061068f95505050505050565b60408051600280825260608201835260009260208301908036833701905050905083816000815181106105775761057761114d565b602002602001019063ffffffff16908163ffffffff16815250506000816001815181106105a6576105a661114d565b63ffffffff90921660209283029190910190910152604051639d3a524160e01b81526000906001600160a01b03841690639d3a5241906105ea908590600401611163565b600060405180830381865afa158015610607573d6000803e3d6000fd5b505050506040513d6000823e601f3d908101601f1916820160405261062f9190810190611349565b505050905061068a8560030b8260008151811061064e5761064e61114d565b6020026020010151836001815181106106695761066961114d565b602002602001015161067b919061145e565b610685919061148b565b610b50565b935050505b5092915050565b6000546001600160a01b0316331461020b5760405162461bcd60e51b815260206004820181905260248201527f4f776e61626c653a2063616c6c6572206973206e6f7420746865206f776e657260448201526064016101c0565b600080546001600160a01b038381166001600160a01b0319831681178455604051919092169283917f8be0079c531659141344cd1fd0a4f28419497f9722a3daafe3b4186f6b6457e09190a35050565b600080836001600160a01b031663d21220a76040518163ffffffff1660e01b8152600401602060405180830381865afa158015610781573d6000803e3d6000fd5b505050506040513d601f19601f820116820180604052508101906107a59190610ff6565b90506000846001600160a01b0316630dfe16816040518163ffffffff1660e01b8152600401602060405180830381865afa1580156107e7573d6000803e3d6000fd5b505050506040513d601f19601f8201168201806040525081019061080b9190610ff6565b6001600160a01b031663313ce5676040518163ffffffff1660e01b8152600401602060405180830381865afa158015610848573d6000803e3d6000fd5b505050506040513d601f19601f8201168201806040525081019061086c91906114c9565b90506000826001600160a01b031663313ce5676040518163ffffffff1660e01b8152600401602060405180830381865afa1580156108ae573d6000803e3d6000fd5b505050506040513d601f19601f820116820180604052508101906108d291906114c9565b905060006108df8761020d565b905060006108ec8261036a565b90506000876001600160a01b0316866001600160a01b03161461092857816109196002600160601b6115c8565b6109239190611056565b61092a565b815b9050876001600160a01b0316866001600160a01b0316146109745761095085600a6115c8565b61095b85600a6115c8565b6109659083611029565b61096f9190611056565b61099e565b61097f84600a6115c8565b61098a86600a6115c8565b6109949083611029565b61099e9190611056565b9998505050505050505050565b60008080600019858709858702925082811083820303915050806000036109e457600084116109d957600080fd5b50829004905061018d565b8084116109f057600080fd5b6000848688096000868103871696879004966002600389028118808a02820302808a02820302808a02820302808a02820302808a02820302808a02909103029181900381900460010186841190950394909402919094039290920491909117919091029150509392505050565b600081602001516001600160a01b031682600001516001600160a01b031610610a8557600080fd5b8282600001518360200151604051602001610ab69291906001600160a01b0392831681529116602082015260400190565b60408051601f19818403018152908290528051602091820120610b31939290917f6c1bebd370ba84753516bc1393c0d0a6c645856da55f5393ac8ab3d6dbc861d391016001600160f81b0319815260609390931b6bffffffffffffffffffffffff191660018401526015830191909152603582015260550190565b60408051601f1981840301815291905280516020909101209392505050565b60008060008360020b12610b67578260020b610b6f565b8260020b6000035b9050620d89e8811115610b95576040516315e4079d60e11b815260040160405180910390fd5b600081600116600003610bac57600160801b610bbe565b6ffffcb933bd6fad37aa2d162d1a5940015b70ffffffffffffffffffffffffffffffffff1690506002821615610bf2576ffff97272373d413259a46990580e213a0260801c5b6004821615610c11576ffff2e50f5f656932ef12357cf3c7fdcc0260801c5b6008821615610c30576fffe5caca7e10e4e61c3624eaa0941cd00260801c5b6010821615610c4f576fffcb9843d60f6159c9db58835c9266440260801c5b6020821615610c6e576fff973b41fa98c081472e6896dfb254c00260801c5b6040821615610c8d576fff2ea16466c96a3843ec78b326b528610260801c5b6080821615610cac576ffe5dee046a99a2a811c461f1969c30530260801c5b610100821615610ccc576ffcbe86c7900a88aedcffc83b479aa3a40260801c5b610200821615610cec576ff987a7253ac413176f2b074cf7815e540260801c5b610400821615610d0c576ff3392b0822b70005940c7a398e4b70f30260801c5b610800821615610d2c576fe7159475a2c29b7443b29c7fa6e889d90260801c5b611000821615610d4c576fd097f3bdfd2022b8845ad8f792aa58250260801c5b612000821615610d6c576fa9f746462d870fdf8a65dc1f90e061e50260801c5b614000821615610d8c576f70d869a156d2a1b890bb3df62baf32f70260801c5b618000821615610dac576f31be135f97d08fd981231505542fcfa60260801c5b62010000821615610dcd576f09aa508b5b7a84e1c677de54f3e99bc90260801c5b62020000821615610ded576e5d6af8dedb81196699c329225ee6040260801c5b62040000821615610e0c576d2216e584f5fa1ea926041bedfe980260801c5b62080000821615610e29576b048a170391f7dc42444e8fa20260801c5b60008460020b1315610e4a578060001981610e4657610e46611040565b0490505b640100000000810615610e5e576001610e61565b60005b60ff16602082901c0192505050919050565b6001600160a01b03811681146104bc57600080fd5b60008060408385031215610e9b57600080fd5b8235610ea681610e73565b9150602083013563ffffffff81168114610ebf57600080fd5b809150509250929050565b8060020b81146104bc57600080fd5b60008060008060808587031215610eef57600080fd5b8435610efa81610e73565b93506020850135610f0a81610e73565b92506040850135610f1a81610e73565b91506060850135610f2a81610eca565b939692955090935050565b60008060008060808587031215610f4b57600080fd5b8435610f5681610e73565b93506020850135610f6681610e73565b92506040850135610f7681610e73565b9150606085013562ffffff81168114610f2a57600080fd5b600060208284031215610fa057600080fd5b813561018d81610e73565b600080600060608486031215610fc057600080fd5b8335610fcb81610e73565b92506020840135610fdb81610e73565b91506040840135610feb81610e73565b809150509250925092565b60006020828403121561100857600080fd5b815161018d81610e73565b634e487b7160e01b600052601160045260246000fd5b808202811582820484141761021b5761021b611013565b634e487b7160e01b600052601260045260246000fd5b60008261106557611065611040565b500490565b805161ffff8116811461107c57600080fd5b919050565b805160ff8116811461107c57600080fd5b600080600080600080600080610100898b0312156110af57600080fd5b88516110ba81610e73565b60208a01519098506110cb81610eca565b96506110d960408a0161106a565b95506110e760608a0161106a565b94506110f560808a0161106a565b935061110360a08a01611081565b925061111160c08a01611081565b915060e0890151801515811461112657600080fd5b809150509295985092959890939650565b634e487b7160e01b600052604160045260246000fd5b634e487b7160e01b600052603260045260246000fd5b6020808252825182820181905260009190848201906040850190845b818110156111a157835163ffffffff168352928401929184019160010161117f565b50909695505050505050565b604051601f8201601f1916810167ffffffffffffffff811182821017156111d6576111d6611137565b604052919050565b600067ffffffffffffffff8211156111f8576111f8611137565b5060051b60200190565b600082601f83011261121357600080fd5b81516020611228611223836111de565b6111ad565b82815260059290921b8401810191818101908684111561124757600080fd5b8286015b8481101561126b57805161125e81610e73565b835291830191830161124b565b509695505050505050565b600082601f83011261128757600080fd5b81516020611297611223836111de565b82815260059290921b840181019181810190868411156112b657600080fd5b8286015b8481101561126b5780516dffffffffffffffffffffffffffff811681146112e15760008081fd5b83529183019183016112ba565b600082601f8301126112ff57600080fd5b8151602061130f611223836111de565b82815260059290921b8401810191818101908684111561132e57600080fd5b8286015b8481101561126b5780518352918301918301611332565b6000806000806080858703121561135f57600080fd5b845167ffffffffffffffff8082111561137757600080fd5b818701915087601f83011261138b57600080fd5b8151602061139b611223836111de565b82815260059290921b8401810191818101908b8411156113ba57600080fd5b948201945b838610156113e85785518060060b81146113d95760008081fd5b825294820194908201906113bf565b918a015191985090935050508082111561140157600080fd5b61140d88838901611202565b9450604087015191508082111561142357600080fd5b61142f88838901611276565b9350606087015191508082111561144557600080fd5b50611452878288016112ee565b91505092959194509250565b600682810b9082900b03667fffffffffffff198112667fffffffffffff8213171561021b5761021b611013565b60008160060b8360060b806114a2576114a2611040565b667fffffffffffff198214600019821416156114c0576114c0611013565b90059392505050565b6000602082840312156114db57600080fd5b61018d82611081565b600181815b8085111561151f57816000190482111561150557611505611013565b8085161561151257918102915b93841c93908002906114e9565b509250929050565b6000826115365750600161021b565b816115435750600061021b565b816001811461155957600281146115635761157f565b600191505061021b565b60ff84111561157457611574611013565b50506001821b61021b565b5060208310610133831016604e8410600b84101617156115a2575081810a61021b565b6115ac83836114e4565b80600019048211156115c0576115c0611013565b029392505050565b600061018d60ff84168361152756fea2646970667358221220cdc66bbfa6007e5f7c35c33d7f1d293522888d93e518b09fb5ab9f03e104467664736f6c63430008130033","linkReferences":{}},"methodIdentifiers":{"getPoolPriceUSDX96(address,address,address)":"b5ed4463","getV3Pool(address,address,address)":"ddca45b0","getV3Pool(address,address,address,int24)":"2e33f332","getV3Pool(address,address,address,uint24)":"4556bd20","owner()":"8da5cb5b","priceX96FromSqrtPriceX96(uint160)":"d4bf1334","renounceOwnership()":"715018a6","sqrtPriceX96FromPoolAndInterval(address)":"7fb4f79d","sqrtPriceX96FromPoolAndPassedInterval(address,uint32)":"0bbf9b68","transferOwnership(address)":"f2fde38b"},"id":100}