{"abi":[{"type":"constructor","inputs":[],"stateMutability":"nonpayable"},{"type":"function","name":"createPool","inputs":[{"name":"tokenA","type":"address","internalType":"address"},{"name":"tokenB","type":"address","internalType":"address"},{"name":"fee","type":"uint24","internalType":"uint24"}],"outputs":[{"name":"pool","type":"address","internalType":"address"}],"stateMutability":"nonpayable"},{"type":"function","name":"enableFeeAmount","inputs":[{"name":"fee","type":"uint24","internalType":"uint24"},{"name":"tickSpacing","type":"int24","internalType":"int24"}],"outputs":[],"stateMutability":"nonpayable"},{"type":"function","name":"feeAmountTickSpacing","inputs":[{"name":"","type":"uint24","internalType":"uint24"}],"outputs":[{"name":"","type":"int24","internalType":"int24"}],"stateMutability":"view"},{"type":"function","name":"getPool","inputs":[{"name":"","type":"address","internalType":"address"},{"name":"","type":"address","internalType":"address"},{"name":"","type":"uint24","internalType":"uint24"}],"outputs":[{"name":"","type":"address","internalType":"address"}],"stateMutability":"view"},{"type":"function","name":"owner","inputs":[],"outputs":[{"name":"","type":"address","internalType":"address"}],"stateMutability":"view"},{"type":"function","name":"parameters","inputs":[],"outputs":[{"name":"factory","type":"address","internalType":"address"},{"name":"token0","type":"address","internalType":"address"},{"name":"token1","type":"address","internalType":"address"},{"name":"fee","type":"uint24","internalType":"uint24"},{"name":"tickSpacing","type":"int24","internalType":"int24"}],"stateMutability":"view"},{"type":"function","name":"setOwner","inputs":[{"name":"_owner","type":"address","internalType":"address"}],"outputs":[],"stateMutability":"nonpayable"},{"type":"event","name":"FeeAmountEnabled","inputs":[{"name":"fee","type":"uint24","indexed":true,"internalType":"uint24"},{"name":"tickSpacing","type":"int24","indexed":true,"internalType":"int24"}],"anonymous":false},{"type":"event","name":"OwnerChanged","inputs":[{"name":"oldOwner","type":"address","indexed":true,"internalType":"address"},{"name":"newOwner","type":"address","indexed":true,"internalType":"address"}],"anonymous":false},{"type":"event","name":"PoolCreated","inputs":[{"name":"token0","type":"address","indexed":true,"internalType":"address"},{"name":"token1","type":"address","indexed":true,"internalType":"address"},{"name":"fee","type":"uint24","indexed":true,"internalType":"uint24"},{"name":"tickSpacing","type":"int24","indexed":false,"internalType":"int24"},{"name":"pool","type":"address","indexed":false,"internalType":"address"}],"anonymous":false}],"bytecode":{"object":"0x60a060405234801561001057600080fd5b5030608052600380546001600160a01b031916339081179091556040516000907fb532073b38c83145e3e5135377a08bf9aab55bc0fd7c1179cd4fb995d2a5159c908290a36101f4600081815260046020527ffb8cf1d12598d1a039dd1d106665851a96aadf67d0d9ed76fceea282119208b7805462ffffff1916600a9081179091556040519092916000805160206171c383398151915291a3610bb8600081815260046020527f72dffa9b822156d9cf4b0090fa0b656bcb9cc2b2c60eb6acfc20a34f54b31743805462ffffff1916603c9081179091556040519092916000805160206171c383398151915291a3612710600081815260046020527f8cc740d51daa94ff54f33bd779c2d20149f524c340519b49181be5a08615f829805462ffffff191660c89081179091556040519092916000805160206171c383398151915291a360805161705461016f60003960006104ad01526170546000f3fe608060405234801561001057600080fd5b506004361061007d5760003560e01c8063890357301161005b57806389035730146101245780638a7c195f146101a05780638da5cb5b146101b3578063a1671295146101c657600080fd5b806313af4035146100825780631698ee821461009757806322afcccb146100ee575b600080fd5b61009561009036600461062a565b6101d9565b005b6100d16100a536600461065f565b60056020908152600093845260408085208252928452828420905282529020546001600160a01b031681565b6040516001600160a01b0390911681526020015b60405180910390f35b6101116100fc3660046106a2565b60046020526000908152604090205460020b81565b60405160029190910b81526020016100e5565b6000546001546002805461015f936001600160a01b03908116938116929082169162ffffff600160a01b82041691600160b81b909104900b85565b604080516001600160a01b0396871681529486166020860152929094169183019190915262ffffff16606082015260029190910b608082015260a0016100e5565b6100956101ae3660046106bd565b61024c565b6003546100d1906001600160a01b031681565b6100d16101d436600461065f565b610310565b6003546001600160a01b031633146101f057600080fd5b6003546040516001600160a01b038084169216907fb532073b38c83145e3e5135377a08bf9aab55bc0fd7c1179cd4fb995d2a5159c90600090a3600380546001600160a01b0319166001600160a01b0392909216919091179055565b6003546001600160a01b0316331461026357600080fd5b620f42408262ffffff161061027757600080fd5b60008160020b13801561028e57506140008160020b125b61029757600080fd5b62ffffff821660009081526004602052604090205460020b156102b957600080fd5b62ffffff828116600081815260046020526040808220805462ffffff1916948616949094179093559151600284900b927fc66a3fdf07232cdd185febcc6579d408c241b47ae2f9907d84be655141eeaecc91a35050565b600061031a6104a2565b826001600160a01b0316846001600160a01b03160361033857600080fd5b600080846001600160a01b0316866001600160a01b03161061035b57848661035e565b85855b90925090506001600160a01b03821661037657600080fd5b62ffffff841660009081526004602052604081205460020b9081900361039b57600080fd5b6001600160a01b0383811660009081526005602090815260408083208685168452825280832062ffffff8a16845290915290205416156103da57600080fd5b6103e730848488856104d9565b6001600160a01b03848116600081815260056020818152604080842089871680865290835281852062ffffff8e168087529084528286208054988a166001600160a01b0319998a1681179091558287529484528286208787528452828620818752845294829020805490971684179096558051600289900b81529182019290925294985090937f783cca1c0412dd0d695e784568c96da2e9c22ff989357a2e8b1d9b2b4e6b7118910160405180910390a45050509392505050565b306001600160a01b037f000000000000000000000000000000000000000000000000000000000000000016146104d757600080fd5b565b6040805160a0810182526001600160a01b03878116808352878216602080850182905292881684860181905262ffffff888116606080880182905260028a810b6080998a0152600080546001600160a01b0319908116909817815560018054909816871790975580546001600160b81b0319168517600160a01b84021762ffffff60b81b1916600160b81b948c169490940293909317909255875195860193909352958401529382019390935201604051602081830303815290604052805190602001206040516105a990610600565b8190604051809103906000f59050801580156105c9573d6000803e3d6000fd5b50600080546001600160a01b0319908116909155600180549091169055600280546001600160d01b03191690559695505050505050565b61692480620006fb83390190565b80356001600160a01b038116811461062557600080fd5b919050565b60006020828403121561063c57600080fd5b6106458261060e565b9392505050565b803562ffffff8116811461062557600080fd5b60008060006060848603121561067457600080fd5b61067d8461060e565b925061068b6020850161060e565b91506106996040850161064c565b90509250925092565b6000602082840312156106b457600080fd5b6106458261064c565b600080604083850312156106d057600080fd5b6106d98361064c565b915060208301358060020b81146106ef57600080fd5b80915050925092905056fe6101606040523480156200001257600080fd5b503060805260408051630890357360e41b81529051600091339163890357309160048082019260a0929091908290030181865afa15801562000058573d6000803e3d6000fd5b505050506040513d601f19601f820116820180604052508101906200007e919062000185565b62ffffff909116610100526001600160a01b0391821660e05291811660c0529190911660a052600281900b610120529050620000ba81620000ce565b6001600160801b031661014052506200033a565b60008082620000e281620d89e71962000235565b620000ee919062000275565b90506000838062000103620d89e7196200029f565b6200010f919062000235565b6200011b919062000275565b90506000846200012c8484620002c4565b62000138919062000235565b62000145906001620002f2565b90506200015f62ffffff82166001600160801b0362000311565b95945050505050565b80516001600160a01b03811681146200018057600080fd5b919050565b600080600080600060a086880312156200019e57600080fd5b620001a98662000168565b9450620001b96020870162000168565b9350620001c96040870162000168565b9250606086015162ffffff81168114620001e257600080fd5b8092505060808601518060020b8114620001fb57600080fd5b809150509295509295909350565b634e487b7160e01b600052601260045260246000fd5b634e487b7160e01b600052601160045260246000fd5b60008160020b8360020b806200024f576200024f62000209565b627fffff198214600019821416156200026c576200026c6200021f565b90059392505050565b60008260020b8260020b028060020b91508082146200029857620002986200021f565b5092915050565b60008160020b627fffff198103620002bb57620002bb6200021f565b60000392915050565b600282810b9082900b03627fffff198112627fffff82131715620002ec57620002ec6200021f565b92915050565b62ffffff8181168382160190808211156200029857620002986200021f565b60006001600160801b03838116806200032e576200032e62000209565b92169190910492915050565b60805160a05160c05160e051610100516101205161014051616503620004216000396000818161046501528181614e250152614e5c01526000818161054e015281816109e601528181614e900152614ec20152600081816105af01528181610ae401528181611715015261174c01526000818161058801528181611030015281816117cf01528181611c97015281816121890152613b9b015260008181610198015281816111200152818161179e01528181611c0a015281816120d20152613a8201526000818161052701528181611d960152611f67015260006127b001526165036000f3fe608060405234801561001057600080fd5b506004361061018e5760003560e01c806370cf754a116100de578063c45a015511610097578063ddca3f4311610071578063ddca3f43146105aa578063f3058399146105e5578063f30dba93146105ee578063f637731d146106c257600080fd5b8063c45a015514610522578063d0c93a7c14610549578063d21220a71461058357600080fd5b806370cf754a146104605780638206a4d11461048757806385b667291461049a578063883bdbfd146104ad578063a34123a7146104ce578063a38807f2146104e157600080fd5b80633850c7bd1161014b578063490e6cbc11610125578063490e6cbc146103995780634f1eb3d8146103ac578063514ea4bf146103bf5780635339c2961461044057600080fd5b80633850c7bd146102ca5780633c8a7d8d1461036f578063461413191461038257600080fd5b80630dfe168114610193578063128acb08146101d75780631a686502146101ff5780631ad8b03b1461022a578063252c09d71461026857806332148f67146102b5575b600080fd5b6101ba7f000000000000000000000000000000000000000000000000000000000000000081565b6040516001600160a01b0390911681526020015b60405180910390f35b6101ea6101e5366004615a48565b6106d5565b604080519283526020830191909152016101ce565b600454610212906001600160801b031681565b6040516001600160801b0390911681526020016101ce565b600354610248906001600160801b0380821691600160801b90041682565b604080516001600160801b039384168152929091166020830152016101ce565b61027b610276366004615acd565b611295565b6040805163ffffffff909516855260069390930b60208501526001600160a01b0390911691830191909152151560608201526080016101ce565b6102c86102c3366004615ae6565b6112da565b005b60005461031e906001600160a01b03811690600160a01b810460020b9061ffff600160b81b8204811691600160c81b8104821691600160d81b8204169060ff600160e81b8204811691600160f01b90041687565b604080516001600160a01b03909816885260029690960b602088015261ffff94851695870195909552918316606086015291909116608084015260ff1660a0830152151560c082015260e0016101ce565b6101ea61037d366004615b33565b6113b8565b61038b60025481565b6040519081526020016101ce565b6102c86103a7366004615b81565b611692565b6102486103ba366004615beb565b611afc565b61040a6103cd366004615acd565b60076020526000908152604090208054600182015460028301546003909301546001600160801b0392831693919281811691600160801b90041685565b604080516001600160801b039687168152602081019590955284019290925283166060830152909116608082015260a0016101ce565b61038b61044e366004615c52565b60066020526000908152604090205481565b6102127f000000000000000000000000000000000000000000000000000000000000000081565b6102c8610495366004615c86565b611d46565b6102486104a8366004615cb9565b611f14565b6104c06104bb366004615cfe565b612225565b6040516101ce929190615d73565b6101ea6104dc366004615dfa565b6122ac565b6104f46104ef366004615e26565b61242d565b6040805160069490940b84526001600160a01b03909216602084015263ffffffff16908201526060016101ce565b6101ba7f000000000000000000000000000000000000000000000000000000000000000081565b6105707f000000000000000000000000000000000000000000000000000000000000000081565b60405160029190910b81526020016101ce565b6101ba7f000000000000000000000000000000000000000000000000000000000000000081565b6105d17f000000000000000000000000000000000000000000000000000000000000000081565b60405162ffffff90911681526020016101ce565b61038b60015481565b6106666105fc366004615e50565b60056020526000908152604090208054600182015460028301546003909301546001600160801b03831693600160801b909304600f0b9290600681900b90600160381b81046001600160a01b031690600160d81b810463ffffffff1690600160f81b900460ff1688565b604080516001600160801b039099168952600f9790970b602089015295870194909452606086019290925260060b60808501526001600160a01b031660a084015263ffffffff1660c0830152151560e0820152610100016101ce565b6102c86106d0366004615e6b565b61266a565b6000806106e06127a5565b8560000361071a5760405162461bcd60e51b8152602060048201526002602482015261415360f01b60448201526064015b60405180910390fd5b6040805160e0810182526000546001600160a01b0381168252600160a01b810460020b602083015261ffff600160b81b8204811693830193909352600160c81b810483166060830152600160d81b8104909216608082015260ff600160e81b8304811660a0830152600160f01b909204909116151560c082018190526107b25760405162461bcd60e51b815260040161071190615e88565b876107fd5780600001516001600160a01b0316866001600160a01b03161180156107f8575073fffd8963efd1fc6a506488495d951d5263988d266001600160a01b038716105b61082f565b80600001516001600160a01b0316866001600160a01b031610801561082f57506401000276a36001600160a01b038716115b6108615760405162461bcd60e51b815260206004820152600360248201526214d41360ea1b6044820152606401610711565b6000805460ff60f01b191681556040805160c08101909152808a6108905760048460a0015160ff16901c6108a1565b60108460a001516108a19190615ebb565b60ff1681526004546001600160801b031660208201526040014263ffffffff168152602001600060060b815260200160006001600160a01b031681526020016000151581525090506000808913905060006040518060e001604052808b81526020016000815260200185600001516001600160a01b03168152602001856020015160020b81526020018c6109375760025461093b565b6001545b815260200160006001600160801b0316815260200184602001516001600160801b031681525090505b80511580159061098a5750886001600160a01b031681604001516001600160a01b031614155b15610ddd576040805160e081018252600080825260208201819052918101829052606081018290526080810182905260a0810182905260c081019190915260408201516001600160a01b031681526060820151610a0b906006907f00000000000000000000000000000000000000000000000000000000000000008f6127dc565b1515604083015260020b60208201819052620d89e7191315610a3657620d89e7196020820152610a6a565b610a43620d89e719615ef3565b60020b816020015160020b1315610a6a57610a61620d89e719615ef3565b60020b60208201525b610a778160200151612999565b6001600160a01b031660608201526040820151610b08908d610ab1578b6001600160a01b031683606001516001600160a01b031611610acb565b8b6001600160a01b031683606001516001600160a01b0316105b610ad9578260600151610adb565b8b5b60c085015185517f0000000000000000000000000000000000000000000000000000000000000000612dba565b60c085015260a084015260808301526001600160a01b031660408301528215610b8057610b478160c001518260800151610b429190615f15565b612fd5565b82518390610b56908390615f28565b90525060a0810151610b7690610b6b90612fd5565b602084015190612feb565b6020830152610bcc565b610b8d8160a00151612fd5565b82518390610b9c908390615f4f565b90525060c08101516080820151610bc691610bbb91610b429190615f15565b602084015190613011565b60208301525b835160ff1615610c28576000846000015160ff168260c00151610bef9190615f77565b9050808260c001818151610c039190615f8b565b90525060a083018051829190610c1a908390615f9e565b6001600160801b0316905250505b60c08201516001600160801b031615610c7057610c5b8160c00151600160801b8460c001516001600160801b0316613031565b82608001818151610c6c9190615f15565b9052505b80606001516001600160a01b031682604001516001600160a01b031603610da057806040015115610d73578360a00151610cf557610cd7846040015160008760200151886040015188602001518a6060015160086130e4909695949392919063ffffffff16565b6001600160a01b0316608086015260060b6060850152600160a08501525b6000610d4182602001518e610d0c57600154610d12565b84608001515b8f610d21578560800151610d25565b6002545b608089015160608a015160408b015160059594939291906132d2565b90508c15610d5557610d5281615fbe565b90505b610d638360c00151826133e5565b6001600160801b031660c0840152505b8b610d82578060200151610d93565b60018160200151610d939190615fe4565b60020b6060830152610dd7565b80600001516001600160a01b031682604001516001600160a01b031614610dd757610dce82604001516134a5565b60020b60608301525b50610964565b836020015160020b816060015160020b14610ea757600080610e2b86604001518660400151886020015188602001518a606001518b6080015160086137df909695949392919063ffffffff16565b604085015160608601516000805463ffffffff60b81b1916600160c81b61ffff9586160261ffff60b81b191617600160b81b9590941694909402929092176001600160b81b031916600160a01b62ffffff909316929092026001600160a01b031916919091176001600160a01b0390911617905550610ecc9050565b6040810151600080546001600160a01b0319166001600160a01b039092169190911790555b8060c001516001600160801b031683602001516001600160801b031614610f125760c0810151600480546001600160801b0319166001600160801b039092169190911790555b8a15610f7d57608081015160015560a08101516001600160801b031615610f785760a081015160038054600090610f539084906001600160801b0316615f9e565b92506101000a8154816001600160801b0302191690836001600160801b031602179055505b610fe4565b608081015160025560a08101516001600160801b031615610fe45760a081015160038054601090610fbf908490600160801b90046001600160801b0316615f9e565b92506101000a8154816001600160801b0302191690836001600160801b031602179055505b8115158b1515146110055760208101518151611000908c615f28565b611017565b8051611011908b615f28565b81602001515b90965094508a1561111257600085121561105e5761105e7f00000000000000000000000000000000000000000000000000000000000000008d61105988616009565b613968565b6000611068613a68565b60405163fa461e3360e01b8152909150339063fa461e3390611094908a908a908e908e9060040161604e565b600060405180830381600087803b1580156110ae57600080fd5b505af11580156110c2573d6000803e3d6000fd5b505050506110ce613a68565b6110d88289613b66565b111561110c5760405162461bcd60e51b815260206004820152600360248201526249494160e81b6044820152606401610711565b506111f9565b6000861215611149576111497f00000000000000000000000000000000000000000000000000000000000000008d61105989616009565b6000611153613b81565b60405163fa461e3360e01b8152909150339063fa461e339061117f908a908a908e908e9060040161604e565b600060405180830381600087803b15801561119957600080fd5b505af11580156111ad573d6000803e3d6000fd5b505050506111b9613b81565b6111c38288613b66565b11156111f75760405162461bcd60e51b815260206004820152600360248201526249494160e81b6044820152606401610711565b505b60408082015160c083015160608085015184518b8152602081018b90526001600160a01b03948516958101959095526001600160801b039092169084015260020b60808301528d169033907fc42079f94a6350d7e6235f29174924f928cc2ac818eb64fed8004e115fbcca679060a00160405180910390a350506000805460ff60f01b1916600160f01b17905550919890975095505050505050565b60088161ffff81106112a657600080fd5b015463ffffffff81169150600160201b810460060b90600160581b81046001600160a01b031690600160f81b900460ff1684565b600054600160f01b900460ff166113035760405162461bcd60e51b815260040161071190615e88565b6000805460ff60f01b191690556113186127a5565b60008054600160d81b900461ffff169061133460088385613bcd565b6000805461ffff808416600160d81b810261ffff60d81b19909316929092179092559192508316146113a0576040805161ffff8085168252831660208201527fac49e518f90a358f652e4400164f05a5d8f7e35e7747279bc3a93dbf584e125a91015b60405180910390a15b50506000805460ff60f01b1916600160f01b17905550565b600080548190600160f01b900460ff166113e45760405162461bcd60e51b815260040161071190615e88565b6000805460ff60f01b191690556001600160801b03851661140457600080fd5b60008061144c60405180608001604052808c6001600160a01b031681526020018b60020b81526020018a60020b81526020016114428a600f0b613c7b565b600f0b9052613c91565b9250925050819350809250600080600086111561146e5761146b613a68565b91505b841561147f5761147c613b81565b90505b6000805160206164ae8339815191526040516114ba906020808252600b908201526a10915193d491481352539560aa1b604082015260600190565b60405180910390a160408051818152600a818301526936b9b39739b2b73232b960b11b606082015233602082015290517f26dd02fb4ad462c9fc2cc3f2f578a57dd94d2fd32ed445062f1d4b114fe50a499181900360800190a160405163d348799760e01b8152339063d34879979061153d90899089908d908d9060040161604e565b600060405180830381600087803b15801561155757600080fd5b505af115801561156b573d6000803e3d6000fd5b5050505060008611156115bd57611580613a68565b61158a8388613b66565b11156115bd5760405162461bcd60e51b815260206004820152600260248201526104d360f41b6044820152606401610711565b8415611608576115cb613b81565b6115d58287613b66565b11156116085760405162461bcd60e51b81526020600482015260026024820152614d3160f01b6044820152606401610711565b604080513381526001600160801b038b1660208201529081018790526060810186905260028b810b91908d900b906001600160a01b038f16907f7a53080ba414158be7ec69b987b5fb7d07dee101fe85488f0853ae16239d0bde9060800160405180910390a450506000805460ff60f01b1916600160f01b17905550919890975095505050505050565b600054600160f01b900460ff166116bb5760405162461bcd60e51b815260040161071190615e88565b6000805460ff60f01b191690556116d06127a5565b6004546001600160801b03168061170d5760405162461bcd60e51b81526020600482015260016024820152601360fa1b6044820152606401610711565b6000611742867f000000000000000000000000000000000000000000000000000000000000000062ffffff16620f42406142c3565b90506000611779867f000000000000000000000000000000000000000000000000000000000000000062ffffff16620f42406142c3565b90506000611785613a68565b90506000611791613b81565b905088156117c4576117c47f00000000000000000000000000000000000000000000000000000000000000008b8b613968565b87156117f5576117f57f00000000000000000000000000000000000000000000000000000000000000008b8a613968565b604051630e9cbafb60e41b8152339063e9cbafb09061181e90879087908c908c9060040161604e565b600060405180830381600087803b15801561183857600080fd5b505af115801561184c573d6000803e3d6000fd5b50505050600061185a613a68565b90506000611866613b81565b9050816118738588613b66565b11156118a65760405162461bcd60e51b8152602060048201526002602482015261046360f41b6044820152606401610711565b806118b18487613b66565b11156118e45760405162461bcd60e51b8152602060048201526002602482015261463160f01b6044820152606401610711565b60006118f08584615f8b565b905060006118fe8584615f8b565b905081156119d0576000805461192090601090600160e81b900460ff16615ebb565b9050600060ff82161561193f5761193a60ff831685615f77565b611942565b60005b90506001600160801b0381161561199657600380548291906000906119719084906001600160801b0316615f9e565b92506101000a8154816001600160801b0302191690836001600160801b031602179055505b6119b76119a38286615f8b565b600160801b8d6001600160801b0316613031565b600160008282546119c89190615f15565b909155505050505b8015611a845760008054600160e81b900460041c600f16908115611a00576119fb60ff831684615f77565b611a03565b60005b90506001600160801b03811615611a5e5760038054829190601090611a39908490600160801b90046001600160801b0316615f9e565b92506101000a8154816001600160801b0302191690836001600160801b031602179055505b611a6b6119a38285615f8b565b60026000828254611a7c9190615f15565b909155505050505b604080518e8152602081018e9052908101839052606081018290526001600160a01b038f169033907fbdbdb71d7860376ba52b25a5028beea23581364a40522f6bcfb86bb1f2dca6339060800160405180910390a350506000805460ff60f01b1916600160f01b179055505050505050505050505050565b600080548190600160f01b900460ff16611b285760405162461bcd60e51b815260040161071190615e88565b6000805460ff60f01b19168155611b42600733898961430c565b60038101549091506001600160801b0390811690861611611b635784611b72565b60038101546001600160801b03165b60038201549093506001600160801b03600160801b909104811690851611611b9a5783611bb0565b6003810154600160801b90046001600160801b03165b91506001600160801b03831615611c3957600381018054849190600090611be19084906001600160801b0316616078565b92506101000a8154816001600160801b0302191690836001600160801b03160217905550611c397f000000000000000000000000000000000000000000000000000000000000000089856001600160801b0316613968565b6001600160801b03821615611cc657818160030160108282829054906101000a90046001600160801b0316611c6e9190616078565b92506101000a8154816001600160801b0302191690836001600160801b03160217905550611cc67f000000000000000000000000000000000000000000000000000000000000000089846001600160801b0316613968565b604080516001600160a01b038a1681526001600160801b0385811660208301528416818301529051600288810b92908a900b9133917f70935338e69775456a85ddef226c395fb668b63fa0115f5f20610b388e6ca9c0919081900360600190a4506000805460ff60f01b1916600160f01b17905590969095509350505050565b600054600160f01b900460ff16611d6f5760405162461bcd60e51b815260040161071190615e88565b6000805460ff60f01b1916905560408051638da5cb5b60e01b815290516001600160a01b037f00000000000000000000000000000000000000000000000000000000000000001691638da5cb5b9160048083019260209291908290030181865afa158015611de1573d6000803e3d6000fd5b505050506040513d601f19601f82011682018060405250810190611e059190616098565b6001600160a01b0316336001600160a01b031614611e2257600080fd5b60ff82161580611e45575060048260ff1610158015611e455750600a8260ff1611155b8015611e6f575060ff81161580611e6f575060048160ff1610158015611e6f5750600a8160ff1611155b611e7857600080fd5b600054600160e81b900460ff16611e97600483901b610ff016846160b5565b6000805460ff92909216600160e81b0260ff60e81b199092169190911790557f973d8d92bb299f4af6ce49b52a8adb85ae46b9f214c4c4fc06ac77401237b133611ee2601083615ebb565b6040805160ff9283168152600f600486901c166020820152868316918101919091529084166060820152608001611397565b600080548190600160f01b900460ff16611f405760405162461bcd60e51b815260040161071190615e88565b6000805460ff60f01b1916905560408051638da5cb5b60e01b815290516001600160a01b037f00000000000000000000000000000000000000000000000000000000000000001691638da5cb5b9160048083019260209291908290030181865afa158015611fb2573d6000803e3d6000fd5b505050506040513d601f19601f82011682018060405250810190611fd69190616098565b6001600160a01b0316336001600160a01b031614611ff357600080fd5b6003546001600160801b039081169085161161200f578361201c565b6003546001600160801b03165b6003549092506001600160801b03600160801b9091048116908416116120425782612056565b600354600160801b90046001600160801b03165b90506001600160801b03821615612101576003546001600160801b039081169083160361208b5781612087816160ce565b9250505b600380548391906000906120a99084906001600160801b0316616078565b92506101000a8154816001600160801b0302191690836001600160801b031602179055506121017f000000000000000000000000000000000000000000000000000000000000000086846001600160801b0316613968565b6001600160801b038116156121b8576003546001600160801b03600160801b90910481169082160361213b5780612137816160ce565b9150505b60038054829190601090612160908490600160801b90046001600160801b0316616078565b92506101000a8154816001600160801b0302191690836001600160801b031602179055506121b87f000000000000000000000000000000000000000000000000000000000000000086836001600160801b0316613968565b604080516001600160801b038085168252831660208201526001600160a01b0387169133917f596b573906218d3411850b26a6b437d6c4522fdb43d2d2386263f86d50b8b151910160405180910390a36000805460ff60f01b1916600160f01b1790559094909350915050565b6060806122306127a5565b6122a042858580806020026020016040519081016040528093929190818152602001838360200280828437600092018290525054600454600896959450600160a01b820460020b935061ffff600160b81b8304811693506001600160801b0390911691600160c81b900416614369565b915091505b9250929050565b600080548190600160f01b900460ff166122d85760405162461bcd60e51b815260040161071190615e88565b6000805460ff60f01b1916815560408051608081018252338152600288810b602083015287900b9181019190915281908190612328906060810161231f600f8a900b613c7b565b61144290615fbe565b9250925092508161233890616009565b945061234381616009565b935060008511806123545750600084115b156123b65760038301546123729086906001600160801b0316615f9e565b6003840154612392908690600160801b90046001600160801b0316615f9e565b6001600160801b039182169116600160801b026001600160801b0319161760038401555b604080516001600160801b038816815260208101879052908101859052600288810b91908a900b9033907f0c396cd989a39f4459b5fa1aed6a9a8dcdbc45908acfd67e028cd568da98982c9060600160405180910390a450506000805460ff60f01b1916600160f01b179055509094909350915050565b600080600061243a6127a5565b61244485856144d8565b600285810b6000908152600560205260408082209287900b825281206003830154600681900b93600160381b82046001600160a01b0316928492600160d81b810463ffffffff169284929091600160f81b900460ff16806124a457600080fd5b6003820154600681900b9850600160381b81046001600160a01b03169650600160d81b810463ffffffff169450600160f81b900460ff16806124e557600080fd5b50506040805160e0810182526000546001600160a01b0381168252600160a01b8104600290810b6020840181905261ffff600160b81b8404811695850195909552600160c81b830485166060850152600160d81b8304909416608084015260ff600160e81b8304811660a0850152600160f01b909204909116151560c08301529093508e900b131590506125a35761257d86886160f1565b612587858761611e565b612591848661613e565b99509950995050505050505050612663565b8a60020b816020015160020b121561264557602081015160408201516004546060840151429360009384936125ec9360089388938793919290916001600160801b0316906130e4565b9092509050886125fc8b846160f1565b61260691906160f1565b876126118a8461611e565b61261b919061611e565b86612626898761613e565b612630919061613e565b9c509c509c5050505050505050505050612663565b61264f87876160f1565b612659868661611e565b612591858561613e565b9250925092565b6000546001600160a01b0316156126a85760405162461bcd60e51b8152602060048201526002602482015261414960f01b6044820152606401610711565b60006126b3826134a5565b604080516080808201835263ffffffff42168083526000602080850182905284860182905260016060958601819052600160f81b909317600855855160e0810187526001600160a01b038a16808252600289900b82840181905282890185905296820185905294810184905260a0810183905260c00183905281546001600160b81b0319168417600160a01b62ffffff8916021767ffffffffffffffff60b81b19166501000001000160c81b1790915584519283528201929092528251939450909283927f98636036cb66a9c19a37435efc1e90142190214e8abeb821bdba3f2990dd4c95928290030190a150505050565b306001600160a01b037f000000000000000000000000000000000000000000000000000000000000000016146127da57600080fd5b565b600080806127ea858761615b565b905060008660020b12801561280a57506128048587616195565b60020b15155b1561281d5780612819816161b7565b9150505b83156128ca5760008061282f8361459d565b90925090506000600160ff831681901b9061284a9082615f8b565b6128549190615f15565b600184900b600090815260208c905260409020548116801515965090915085612894578861288560ff851687615fe4565b61288f91906161d0565b6128bf565b8861289e826145ba565b6128a890856161f0565b6128b59060ff1687615fe4565b6128bf91906161d0565b96505050505061298f565b6000806128e06128db846001616209565b61459d565b909250905060006128f8600160ff841681901b615f8b565b600184900b600090815260208c905260409020549019908116801515965090915085612951578861292a8460ff6161f0565b60ff16612938876001616209565b6129429190616209565b61294c91906161d0565b612988565b888361295c836146a9565b61296691906161f0565b60ff16612974876001616209565b61297e9190616209565b61298891906161d0565b9650505050505b5094509492505050565b60008060008360020b126129b0578260020b6129bd565b8260020b6129bd90616009565b90506129cc620d89e719615ef3565b62ffffff16811115612a045760405162461bcd60e51b81526020600482015260016024820152601560fa1b6044820152606401610711565b600081600116600003612a1b57600160801b612a2d565b6ffffcb933bd6fad37aa2d162d1a5940015b70ffffffffffffffffffffffffffffffffff1690506002821615612a6c576080612a67826ffff97272373d413259a46990580e213a61622e565b901c90505b6004821615612a96576080612a91826ffff2e50f5f656932ef12357cf3c7fdcc61622e565b901c90505b6008821615612ac0576080612abb826fffe5caca7e10e4e61c3624eaa0941cd061622e565b901c90505b6010821615612aea576080612ae5826fffcb9843d60f6159c9db58835c92664461622e565b901c90505b6020821615612b14576080612b0f826fff973b41fa98c081472e6896dfb254c061622e565b901c90505b6040821615612b3e576080612b39826fff2ea16466c96a3843ec78b326b5286161622e565b901c90505b6080821615612b68576080612b63826ffe5dee046a99a2a811c461f1969c305361622e565b901c90505b610100821615612b93576080612b8e826ffcbe86c7900a88aedcffc83b479aa3a461622e565b901c90505b610200821615612bbe576080612bb9826ff987a7253ac413176f2b074cf7815e5461622e565b901c90505b610400821615612be9576080612be4826ff3392b0822b70005940c7a398e4b70f361622e565b901c90505b610800821615612c14576080612c0f826fe7159475a2c29b7443b29c7fa6e889d961622e565b901c90505b611000821615612c3f576080612c3a826fd097f3bdfd2022b8845ad8f792aa582561622e565b901c90505b612000821615612c6a576080612c65826fa9f746462d870fdf8a65dc1f90e061e561622e565b901c90505b614000821615612c95576080612c90826f70d869a156d2a1b890bb3df62baf32f761622e565b901c90505b618000821615612cc0576080612cbb826f31be135f97d08fd981231505542fcfa661622e565b901c90505b62010000821615612cec576080612ce7826f09aa508b5b7a84e1c677de54f3e99bc961622e565b901c90505b62020000821615612d17576080612d12826e5d6af8dedb81196699c329225ee60461622e565b901c90505b62040000821615612d41576080612d3c826d2216e584f5fa1ea926041bedfe9861622e565b901c90505b62080000821615612d69576080612d64826b048a170391f7dc42444e8fa261622e565b901c90505b60008460020b1315612d8457612d8181600019615f77565b90505b612d92600160201b82616245565b15612d9e576001612da1565b60005b612db29060ff16602083901c615f15565b949350505050565b60008080806001600160a01b03808916908a161015818712801590612e46576000612dfa89612dec8a620f4240616259565b62ffffff16620f4240613031565b905082612e1357612e0e8c8c8c60016147d4565b612e20565b612e208b8d8c6001614852565b9550858110612e31578a9650612e40565b612e3d8c8b8386614a14565b96505b50612e9a565b81612e5d57612e588b8b8b6000614852565b612e6a565b612e6a8a8c8b60006147d4565b935083612e7689616009565b10612e8357899550612e9a565b612e978b8a612e918b616009565b85614a60565b95505b6001600160a01b038a8116908716148215612efd57808015612eb95750815b612ecf57612eca878d8c6001614852565b612ed1565b855b9550808015612ede575081155b612ef457612eef878d8c60006147d4565b612ef6565b845b9450612f47565b808015612f075750815b612f1d57612f188c888c60016147d4565b612f1f565b855b9550808015612f2c575081155b612f4257612f3d8c888c6000614852565b612f44565b845b94505b81158015612f5c5750612f5989616009565b85115b15612f6d57612f6a89616009565b94505b818015612f8c57508a6001600160a01b0316876001600160a01b031614155b15612fa257612f9b868a615f8b565b9350612fc6565b612fc38662ffffff8a16612fb98b620f4240616259565b62ffffff166142c3565b93505b50505095509550955095915050565b6000600160ff1b8210612fe757600080fd5b5090565b60008082121583612ffc8482615f28565b92508213151461300b57600080fd5b92915050565b600080821215836130228482615f4f565b92508212151461300b57600080fd5b600080806000198587098587029250828110838203039150508060000361306a576000841161305f57600080fd5b5082900490506130dd565b80841161307657600080fd5b6000848688096000868103871696879004966002600389028118808a02820302808a02820302808a02820302808a02820302808a02820302808a02909103029181900381900460010186841190950394909402919094039290920491909117919091029150505b9392505050565b6000808663ffffffff1660000361318d576000898661ffff1661ffff811061310e5761310e616275565b60408051608081018252919092015463ffffffff808216808452600160201b830460060b6020850152600160581b83046001600160a01b031694840194909452600160f81b90910460ff16151560608301529092508a161461317957613176818a8988614aac565b90505b8060200151816040015192509250506132c6565b6000613199888a61613e565b90506000806131ad8c8c858c8c8c8c614b87565b91509150816000015163ffffffff168363ffffffff16036131de5781602001518260400151945094505050506132c6565b806000015163ffffffff168363ffffffff160361320b5780602001518160400151945094505050506132c6565b8151815160009161321b9161613e565b835190915060009061322d908661613e565b90508060030b8260030b8560200151856020015161324b91906160f1565b613255919061628b565b61325f91906162c0565b846020015161326e91906162e0565b8263ffffffff168263ffffffff1686604001518660400151613290919061611e565b6001600160a01b03166132a3919061622e565b6132ad9190615f77565b85604001516132bc919061630d565b9650965050505050505b97509795505050505050565b600286900b600090815260208890526040812060018101546132f49088615f8b565b600182015560028101546133089087615f8b565b6002820155600381015461332c90600160381b90046001600160a01b03168661611e565b6003820180546001600160a01b0392909216600160381b02670100000000000000600160d81b0319909216919091179081905561336c9060060b856160f1565b60038201805466ffffffffffffff191666ffffffffffffff9290921691909117908190556133a790600160d81b900463ffffffff168461613e565b60038201805463ffffffff92909216600160d81b0263ffffffff60d81b1990921691909117905554600160801b9004600f0b98975050505050505050565b60008082600f0b1215613452576001600160801b03831661340583615fbe565b61340f9085616078565b9150816001600160801b03161061344d5760405162461bcd60e51b81526020600482015260026024820152614c5360f01b6044820152606401610711565b61300b565b6001600160801b0383166134668385615f9e565b9150816001600160801b0316101561300b5760405162461bcd60e51b81526020600482015260026024820152614c4160f01b6044820152606401610711565b60006401000276a36001600160a01b038316108015906134e1575073fffd8963efd1fc6a506488495d951d5263988d266001600160a01b038316105b6135115760405162461bcd60e51b81526020600482015260016024820152602960f91b6044820152606401610711565b640100000000600160c01b03602083901b166001600160801b03811160071b81811c67ffffffffffffffff811160061b90811c63ffffffff811160051b90811c61ffff811160041b90811c60ff8111600390811b91821c600f811160021b90811c918211600190811b92831c979088119617909417909217179091171717608081106135ac576135a2607f82615f8b565b83901c91506135bd565b6135b781607f615f8b565b83901b91505b600060406135cc608084615f28565b901b9050828302607f1c92508260801c80603f1b8217915083811c935050828302607f1c92508260801c80603e1b8217915083811c935050828302607f1c92508260801c80603d1b8217915083811c935050828302607f1c92508260801c80603c1b8217915083811c935050828302607f1c92508260801c80603b1b8217915083811c935050828302607f1c92508260801c80603a1b8217915083811c935050828302607f1c92508260801c8060391b8217915083811c935050828302607f1c92508260801c8060381b8217915083811c935050828302607f1c92508260801c8060371b8217915083811c935050828302607f1c92508260801c8060361b8217915083811c935050828302607f1c92508260801c8060351b8217915083811c935050828302607f1c92508260801c8060341b8217915083811c935050828302607f1c92508260801c8060331b8217915083811c935050828302607f1c92508260801c8060321b8217915050600081693627a301d71055774c8561374f919061632d565b90506000608061376f6f028f6481ab7f045a5af012a19d003aaa84615f28565b901d905060006080613791846fdb2df09e81959a81455e260799a0632f615f4f565b901d90508060020b8260020b146137d057886001600160a01b03166137b582612999565b6001600160a01b031611156137ca57816137d2565b806137d2565b815b9998505050505050505050565b6000806000898961ffff1661ffff81106137fb576137fb616275565b60408051608081018252919092015463ffffffff808216808452600160201b830460060b6020850152600160581b83046001600160a01b031694840194909452600160f81b90910460ff16151560608301529092508916900361386457888592509250506132c6565b8461ffff168461ffff1611801561388c575061388160018661635d565b61ffff168961ffff16145b156138995783915061389d565b8491505b816138a98a6001616378565b6138b39190616393565b92506138c181898989614aac565b8a8461ffff1661ffff81106138d8576138d8616275565b825191018054602084015160408501516060909501511515600160f81b026001600160f81b036001600160a01b03909616600160581b02959095166affffffffffffffffffffff66ffffffffffffff909216600160201b026affffffffffffffffffffff1990931663ffffffff909516949094179190911716919091179190911790555097509795505050505050565b604080516001600160a01b038481166024830152604480830185905283518084039091018152606490920183526020820180516001600160e01b031663a9059cbb60e01b17905291516000928392908716916139c491906163b4565b6000604051808303816000865af19150503d8060008114613a01576040519150601f19603f3d011682016040523d82523d6000602084013e613a06565b606091505b5091509150818015613a30575080511580613a30575080806020019051810190613a3091906163e3565b613a615760405162461bcd60e51b815260206004820152600260248201526114d560f21b6044820152606401610711565b5050505050565b604051306024820152600090819081906001600160a01b037f000000000000000000000000000000000000000000000000000000000000000016906370a0823160e01b906044015b60408051601f198184030181529181526020820180516001600160e01b03166001600160e01b0319909416939093179092529051613aee91906163b4565b600060405180830381855afa9150503d8060008114613b29576040519150601f19603f3d011682016040523d82523d6000602084013e613b2e565b606091505b5091509150818015613b4257506020815110155b613b4b57600080fd5b80806020019051810190613b5f9190616400565b9250505090565b600082613b738382615f15565b915081101561300b57600080fd5b604051306024820152600090819081906001600160a01b037f000000000000000000000000000000000000000000000000000000000000000016906370a0823160e01b90604401613ab0565b6000808361ffff1611613c065760405162461bcd60e51b81526020600482015260016024820152604960f81b6044820152606401610711565b8261ffff168261ffff1611613c1c5750816130dd565b825b8261ffff168161ffff161015613c72576001858261ffff1661ffff8110613c4757613c47616275565b01805463ffffffff191663ffffffff9290921691909117905580613c6a81616419565b915050613c1e565b50909392505050565b80600f81900b8114613c8c57600080fd5b919050565b6000806000613c9e6127a5565b613cb0846020015185604001516144d8565b6040805160e0810182526000546001600160a01b0381168252600160a01b810460020b602083015261ffff600160b81b8204811683850152600160c81b820481166060840152600160d81b820416608083015260ff600160e81b8204811660a0840152600160f01b90910416151560c082015290516000805160206164ae83398151915290613d57906020808252600490820152634845524560e01b604082015260600190565b60405180910390a1613d8085600001518660200151876040015188606001518560200151614da3565b93506000805160206164ae833981519152604051613db790602080825260059082015264484552453160d81b604082015260600190565b60405180910390a16060850151600f0b1561427e57846020015160020b816020015160020b1215613e8a576000805160206164ae833981519152604051613e17906020808252600590820152642422a9229960d91b604082015260600190565b60405180910390a1613e46613e2f8660200151612999565b613e3c8760400151612999565b8760600151614f88565b92506000805160206164ae833981519152604051613e7d90602080825260059082015264484552453360d81b604082015260600190565b60405180910390a161427e565b846040015160020b816020015160020b12156141da576000805160206164ae833981519152604051613ed590602080825260059082015264121154914d60da1b604082015260600190565b60405180910390a160045460408201516001600160801b0390911690613f12904260208501516060860151608087015160089493929187916137df565b6000805463ffffffff60b81b1916600160c81b61ffff9384160261ffff60b81b191617600160b81b93909216929092021790556040805160208082526006908201526548455245346160d01b918101919091526000805160206164ae8339815191529060600160405180910390a181516040517f43671d2c0d993826f3e970219d71b4e5fb3ac0f9b0790520a35eeb4170cd355d91613fdb91604080825260059082015264737172744160d81b60608201526001600160a01b0391909116602082015260800190565b60405180910390a17f43671d2c0d993826f3e970219d71b4e5fb3ac0f9b0790520a35eeb4170cd355d6140118760400151612999565b604080518181526005818301526439b8b93a2160d91b60608201526001600160a01b03929092166020830152519081900360800190a17f136dbd02604bc79e000fc6311e974663d472924998fa2daa976901373871cf0a86606001516040516140a391906040808252600990820152686c697175696469747960b81b6060820152600f9190910b602082015260800190565b60405180910390a16140ca82600001516140c08860400151612999565b8860600151614f88565b93506000805160206164ae833981519152604051614102906020808252600690820152652422a9229a3160d11b604082015260600190565b60405180910390a161412661411a8760200151612999565b83516060890151614fca565b92506000805160206164ae83398151915260405161415e9060208082526006908201526548455245346360d01b604082015260600190565b60405180910390a16141748187606001516133e5565b600480546001600160801b03929092166001600160801b03199092169190911790556040516000805160206164ae833981519152906141cc90602080825260059082015264484552453560d81b604082015260600190565b60405180910390a15061427e565b6000805160206164ae83398151915260405161420f906020808252600590820152642422a9229b60d91b604082015260600190565b60405180910390a161423e6142278660200151612999565b6142348760400151612999565b8760600151614fca565b91506000805160206164ae83398151915260405161427590602080825260059082015264484552453760d81b604082015260600190565b60405180910390a15b6000805160206164ae8339815191526040516142b3906020808252600590820152640908aa48a760db1b604082015260600190565b60405180910390a1509193909250565b60006142d0848484613031565b9050600082806142e2576142e2615ea5565b84860911156130dd5760001981106142f957600080fd5b806143038161643a565b95945050505050565b6040805160609490941b6bffffffffffffffffffffffff191660208086019190915260e893841b60348601529190921b60378401528151601a818503018152603a9093018252825192810192909220600090815292909152902090565b60608060008361ffff16116143a45760405162461bcd60e51b81526020600482015260016024820152604960f81b6044820152606401610711565b865167ffffffffffffffff8111156143be576143be616453565b6040519080825280602002602001820160405280156143e7578160200160208202803683370190505b509150865167ffffffffffffffff81111561440457614404616453565b60405190808252806020026020018201604052801561442d578160200160208202803683370190505b50905060005b87518110156144cb576144648a8a8a848151811061445357614453616275565b60200260200101518a8a8a8a6130e4565b84838151811061447657614476616275565b6020026020010184848151811061448f5761448f616275565b60200260200101826001600160a01b03166001600160a01b03168152508260060b60060b815250505080806144c39061643a565b915050614433565b5097509795505050505050565b8060020b8260020b126145135760405162461bcd60e51b8152602060048201526003602482015262544c5560e81b6044820152606401610711565b620d89e719600283900b12156145515760405162461bcd60e51b8152602060048201526003602482015262544c4d60e81b6044820152606401610711565b61455e620d89e719615ef3565b60020b8160020b13156145995760405162461bcd60e51b815260206004820152600360248201526254554d60e81b6044820152606401610711565b5050565b600281900b60081d60006145b361010084616195565b9050915091565b60008082116145c857600080fd5b600160801b82106145e657608091821c916145e390826160b5565b90505b68010000000000000000821061460957604091821c9161460690826160b5565b90505b600160201b821061462757602091821c9161462490826160b5565b90505b62010000821061464457601091821c9161464190826160b5565b90505b610100821061466057600891821c9161465d90826160b5565b90505b6010821061467b57600491821c9161467890826160b5565b90505b6004821061469657600291821c9161469390826160b5565b90505b60028210613c8c5761300b6001826160b5565b60008082116146b757600080fd5b5060ff6001600160801b038216156146db576146d46080826161f0565b90506146e3565b608082901c91505b67ffffffffffffffff821615614705576146fe6040826161f0565b905061470d565b604082901c91505b63ffffffff82161561472b576147246020826161f0565b9050614733565b602082901c91505b61ffff82161561474f576147486010826161f0565b9050614757565b601082901c91505b60ff8216156147725761476b6008826161f0565b905061477a565b600882901c91505b600f8216156147955761478e6004826161f0565b905061479d565b600482901c91505b60038216156147b8576147b16002826161f0565b90506147c0565b600282901c91505b6001821615613c8c5761300b6001826161f0565b6000836001600160a01b0316856001600160a01b031611156147f4579293925b81614828576148236001600160801b038416614810878761611e565b6001600160a01b0316600160601b613031565b614303565b6143036001600160801b03841661483f878761611e565b6001600160a01b0316600160601b6142c3565b6000836001600160a01b0316856001600160a01b03161115614872579293925b6000805160206164ae8339815191526040516148a790602080825260059082015264484552453960d81b604082015260600190565b60405180910390a1604051600160601b600160e01b03606085901b16907fb316c8276a78bc8c9e18bff75790ef61d3686977e58208d70078a8cb4ac2332d906149189083906040808252600a90820152696e756d657261746f723160b01b6060820152602081019190915260800190565b60405180910390a1600061492c878761611e565b6001600160a01b031690507fb316c8276a78bc8c9e18bff75790ef61d3686977e58208d70078a8cb4ac2332d8160405161498d91906040808252600a9082015269373ab6b2b930ba37b91960b11b6060820152602081019190915260800190565b60405180910390a16000876001600160a01b0316116149ab57600080fd5b836149dd57866001600160a01b03166149ce8383896001600160a01b0316613031565b6149d89190615f77565b614a09565b614a096149f48383896001600160a01b03166142c3565b886001600160a01b0316808204910615150190565b979650505050505050565b600080856001600160a01b031611614a2b57600080fd5b6000846001600160801b031611614a4157600080fd5b81614a53576148238585856001614ffe565b61430385858560016150e5565b600080856001600160a01b031611614a7757600080fd5b6000846001600160801b031611614a8d57600080fd5b81614a9f5761482385858560006150e5565b6143038585856000614ffe565b6040805160808101825260008082526020820181905291810182905260608101919091528451600090614adf908661613e565b905060405180608001604052808663ffffffff1681526020018260030b8660020b614b0a91906162c0565b8860200151614b1991906162e0565b60060b81526020016000856001600160801b031611614b39576001614b3b565b845b614b5b906001600160801b031663ffffffff60801b608086901b16616469565b8860400151614b6a919061630d565b6001600160a01b0316815260016020909101529695505050505050565b604080516080810182526000808252602082018190529181018290526060810191909152604080516080810182526000808252602082018190529181018290526060810191909152888561ffff1661ffff8110614be657614be6616275565b60408051608081018252919092015463ffffffff8116808352600160201b820460060b6020840152600160581b82046001600160a01b031693830193909352600160f81b900460ff16151560608201529250614c44908990896151fc565b15614c7057815163ffffffff8881169116146132c65781614c6783898988614aac565b915091506132c6565b8883614c7d876001616378565b614c879190616393565b61ffff1661ffff8110614c9c57614c9c616275565b60408051608081018252929091015463ffffffff81168352600160201b810460060b60208401526001600160a01b03600160581b8204169183019190915260ff600160f81b90910416151560608201819052909250614d4557604080516080810182528a5463ffffffff81168252600160201b810460060b6020830152600160581b81046001600160a01b031692820192909252600160f81b90910460ff161515606082015291505b614d54888360000151896151fc565b614d865760405162461bcd60e51b815260206004820152600360248201526213d31160ea1b6044820152606401610711565b614d9389898988876152cb565b9150915097509795505050505050565b6000614db2600787878761430c565b60015460025491925090600080600f87900b15614eea57600080546004544292918291614e0f9160089186918591600160a01b820460020b9161ffff600160b81b82048116926001600160801b031691600160c81b9004166130e4565b9092509050614e4960058d8b8d8b8b87898b60007f00000000000000000000000000000000000000000000000000000000000000006154e3565b9450614e8060058c8b8d8b8b87898b60017f00000000000000000000000000000000000000000000000000000000000000006154e3565b93508415614eb457614eb460068d7f0000000000000000000000000000000000000000000000000000000000000000615699565b8315614ee657614ee660068c7f0000000000000000000000000000000000000000000000000000000000000000615699565b5050505b600080614efc60058c8c8b8a8a6156ec565b9092509050614f0d878a84846157d6565b600089600f0b1215614f79578315614f495760028b810b6000908152600560205260408120818155600181018290559182018190556003909101555b8215614f795760028a810b6000908152600560205260408120818155600181018290559182018190556003909101555b50505050505095945050505050565b60008082600f0b12614fa957614fa4610b428585856001614852565b612db2565b614fc1610b428585614fba86615fbe565b6000614852565b612db290616009565b60008082600f0b12614fe657614fa4610b4285858560016147d4565b614fc1610b428585614ff786615fbe565b60006147d4565b600081156150705760006001600160a01b038411156150345761502f84600160601b876001600160801b0316613031565b61504b565b61504b6001600160801b038616606086901b615f77565b90506150686150636001600160a01b03881683613b66565b6159ca565b915050612db2565b60006001600160a01b0384111561509e5761509984600160601b876001600160801b03166142c3565b6150bb565b6150bb606085901b6001600160801b038716808204910615150190565b905080866001600160a01b0316116150d257600080fd5b615068816001600160a01b038816615f8b565b6000826000036150f6575083612db2565b600160601b600160e01b03606085901b16821561519f5760006001600160a01b03871685615124828261622e565b92506151309083615f77565b0361516a5760006151418284615f15565b90508281106151685761515e83896001600160a01b0316836142c3565b9350505050612db2565b505b6151968261518b876151856001600160a01b038c1684615f77565b90613b66565b808204910615150190565b92505050612db2565b60006001600160a01b038716856151b6828261622e565b92506151c29083615f77565b1480156151ce57508082115b6151d757600080fd5b60006151e38284615f8b565b905061515e615063848a6001600160a01b0316846142c3565b60008363ffffffff168363ffffffff161115801561522657508363ffffffff168263ffffffff1611155b15615242578163ffffffff168363ffffffff16111590506130dd565b60008463ffffffff168463ffffffff16116152705761526b63ffffffff8516600160201b61648f565b615278565b8363ffffffff165b64ffffffffff16905060008563ffffffff168463ffffffff16116152af576152aa63ffffffff8516600160201b61648f565b6152b7565b8363ffffffff165b64ffffffffff169091111595945050505050565b604080516080810182526000808252602082018190529181018290526060810191909152604080516080810182526000808252602082018190529181018290526060810191909152600083615321866001616378565b61532b9190616393565b61ffff169050600060018561ffff16836153459190615f15565b61534f9190615f8b565b905060005b60026153608385615f15565b61536a9190615f77565b90508961537b61ffff881683616245565b61ffff811061538c5761538c616275565b60408051608081018252929091015463ffffffff81168352600160201b810460060b60208401526001600160a01b03600160581b8204169183019190915260ff600160f81b909104161515606082018190529095506153f7576153f0816001615f15565b9250615354565b8961ffff8716615408836001615f15565b6154129190616245565b61ffff811061542357615423616275565b60408051608081018252929091015463ffffffff81168352600160201b810460060b60208401526001600160a01b03600160581b8204169183019190915260ff600160f81b90910416151560608201528551909450600090615487908b908b6151fc565b90508080156154a057506154a08a8a87600001516151fc565b156154ab57506154d6565b806154c2576154bb600183615f8b565b92506154d0565b6154cd826001615f15565b93505b50615354565b5050509550959350505050565b60028a900b600090815260208c90526040812080546001600160801b03168261550c828d6133e5565b9050846001600160801b0316816001600160801b031611156155555760405162461bcd60e51b81526020600482015260026024820152614c4f60f01b6044820152606401610711565b6001600160801b0381811615908316801591909114159450600003615608578c60020b8e60020b136155f057600183018b9055600283018a905560038301805466ffffffffffffff8a166001600160f81b0319909116600160381b6001600160a01b038d16027fff00000000ffffffffffffffffffffffffffffffffffffffff00000000000000161717600160d81b63ffffffff8a16021790555b6003830180546001600160f81b0316600160f81b1790555b82546001600160801b0319166001600160801b0382161783558561564f57825461564a9061564590600160801b9004600f90810b908f900b613011565b613c7b565b61566e565b825461566e9061564590600160801b9004600f90810b908f900b612feb565b83546001600160801b03918216600160801b0291161790925550909c9b505050505050505050505050565b6156a38183616195565b60020b156156b057600080fd5b6000806156c06128db848661615b565b600191820b60009081526020979097526040909620805460ff9097169190911b90951890945550505050565b600285810b60008181526020899052604080822088850b83529082209193849391929184918291908a900b1261572d57505060018201546002830154615751565b600184015461573c9089615f8b565b915083600201548761574e9190615f8b565b90505b6000808b60020b8b60020b121561577357505060018301546002840154615797565b6001850154615782908b615f8b565b91508460020154896157949190615f8b565b90505b816157a2858c615f8b565b6157ac9190615f8b565b9750806157b9848b615f8b565b6157c39190615f8b565b9650505050505050965096945050505050565b6040805160a08101825285546001600160801b0390811682526001870154602083015260028701549282019290925260038601548083166060830152600160801b900490911660808201526000600f85900b81036158725781516001600160801b031661586a5760405162461bcd60e51b815260206004820152600260248201526104e560f41b6044820152606401610711565b508051615881565b815161587e90866133e5565b90505b60006158ab8360200151866158969190615f8b565b84516001600160801b0316600160801b613031565b905060006158d78460400151866158c29190615f8b565b85516001600160801b0316600160801b613031565b905086600f0b6000146158fe5787546001600160801b0319166001600160801b0384161788555b60018801869055600288018590556001600160801b03821615158061592c57506000816001600160801b0316115b156159c0576003880180548391906000906159519084906001600160801b0316615f9e565b92506101000a8154816001600160801b0302191690836001600160801b03160217905550808860030160108282829054906101000a90046001600160801b031661599b9190615f9e565b92506101000a8154816001600160801b0302191690836001600160801b031602179055505b5050505050505050565b806001600160a01b0381168114613c8c57600080fd5b6001600160a01b03811681146159f557600080fd5b50565b80151581146159f557600080fd5b60008083601f840112615a1857600080fd5b50813567ffffffffffffffff811115615a3057600080fd5b6020830191508360208285010111156122a557600080fd5b60008060008060008060a08789031215615a6157600080fd5b8635615a6c816159e0565b95506020870135615a7c816159f8565b9450604087013593506060870135615a93816159e0565b9250608087013567ffffffffffffffff811115615aaf57600080fd5b615abb89828a01615a06565b979a9699509497509295939492505050565b600060208284031215615adf57600080fd5b5035919050565b600060208284031215615af857600080fd5b813561ffff811681146130dd57600080fd5b8035600281900b8114613c8c57600080fd5b80356001600160801b0381168114613c8c57600080fd5b60008060008060008060a08789031215615b4c57600080fd5b8635615b57816159e0565b9550615b6560208801615b0a565b9450615b7360408801615b0a565b9350615a9360608801615b1c565b600080600080600060808688031215615b9957600080fd5b8535615ba4816159e0565b94506020860135935060408601359250606086013567ffffffffffffffff811115615bce57600080fd5b615bda88828901615a06565b969995985093965092949392505050565b600080600080600060a08688031215615c0357600080fd5b8535615c0e816159e0565b9450615c1c60208701615b0a565b9350615c2a60408701615b0a565b9250615c3860608701615b1c565b9150615c4660808701615b1c565b90509295509295909350565b600060208284031215615c6457600080fd5b81358060010b81146130dd57600080fd5b803560ff81168114613c8c57600080fd5b60008060408385031215615c9957600080fd5b615ca283615c75565b9150615cb060208401615c75565b90509250929050565b600080600060608486031215615cce57600080fd5b8335615cd9816159e0565b9250615ce760208501615b1c565b9150615cf560408501615b1c565b90509250925092565b60008060208385031215615d1157600080fd5b823567ffffffffffffffff80821115615d2957600080fd5b818501915085601f830112615d3d57600080fd5b813581811115615d4c57600080fd5b8660208260051b8501011115615d6157600080fd5b60209290920196919550909350505050565b604080825283519082018190526000906020906060840190828701845b82811015615daf57815160060b84529284019290840190600101615d90565b5050508381038285015284518082528583019183019060005b81811015615ded5783516001600160a01b031683529284019291840191600101615dc8565b5090979650505050505050565b600080600060608486031215615e0f57600080fd5b615e1884615b0a565b9250615ce760208501615b0a565b60008060408385031215615e3957600080fd5b615e4283615b0a565b9150615cb060208401615b0a565b600060208284031215615e6257600080fd5b6130dd82615b0a565b600060208284031215615e7d57600080fd5b81356130dd816159e0565b6020808252600390820152624c4f4b60e81b604082015260600190565b634e487b7160e01b600052601260045260246000fd5b600060ff831680615ece57615ece615ea5565b8060ff84160691505092915050565b634e487b7160e01b600052601160045260246000fd5b60008160020b627fffff198103615f0c57615f0c615edd565b60000392915050565b8082018082111561300b5761300b615edd565b8181036000831280158383131683831282161715615f4857615f48615edd565b5092915050565b8082018281126000831280158216821582161715615f6f57615f6f615edd565b505092915050565b600082615f8657615f86615ea5565b500490565b8181038181111561300b5761300b615edd565b6001600160801b03818116838216019080821115615f4857615f48615edd565b600081600f0b6f7fffffffffffffffffffffffffffffff198103615f0c57615f0c615edd565b600282810b9082900b03627fffff198112627fffff8213171561300b5761300b615edd565b6000600160ff1b820161601e5761601e615edd565b5060000390565b81835281816020850137506000828201602090810191909152601f909101601f19169091010190565b84815283602082015260606040820152600061606e606083018486616025565b9695505050505050565b6001600160801b03828116828216039080821115615f4857615f48615edd565b6000602082840312156160aa57600080fd5b81516130dd816159e0565b60ff818116838216019081111561300b5761300b615edd565b60006001600160801b038216806160e7576160e7615edd565b6000190192915050565b600682810b9082900b03667fffffffffffff198112667fffffffffffff8213171561300b5761300b615edd565b6001600160a01b03828116828216039080821115615f4857615f48615edd565b63ffffffff828116828216039080821115615f4857615f48615edd565b60008160020b8360020b8061617257616172615ea5565b627fffff1982146000198214161561618c5761618c615edd565b90059392505050565b60008260020b806161a8576161a8615ea5565b808360020b0791505092915050565b60008160020b627fffff1981036160e7576160e7615edd565b60008260020b8260020b028060020b9150808214615f4857615f48615edd565b60ff828116828216039081111561300b5761300b615edd565b600281810b9083900b01627fffff8113627fffff198212171561300b5761300b615edd565b808202811582820484141761300b5761300b615edd565b60008261625457616254615ea5565b500690565b62ffffff828116828216039080821115615f4857615f48615edd565b634e487b7160e01b600052603260045260246000fd5b60008160060b8360060b806162a2576162a2615ea5565b667fffffffffffff1982146000198214161561618c5761618c615edd565b60008260060b8260060b028060060b9150808214615f4857615f48615edd565b600681810b9083900b01667fffffffffffff8113667fffffffffffff198212171561300b5761300b615edd565b6001600160a01b03818116838216019080821115615f4857615f48615edd565b80820260008212600160ff1b8414161561634957616349615edd565b818105831482151761300b5761300b615edd565b61ffff828116828216039080821115615f4857615f48615edd565b61ffff818116838216019080821115615f4857615f48615edd565b600061ffff808416806163a8576163a8615ea5565b92169190910692915050565b6000825160005b818110156163d557602081860181015185830152016163bb565b506000920191825250919050565b6000602082840312156163f557600080fd5b81516130dd816159f8565b60006020828403121561641257600080fd5b5051919050565b600061ffff80831681810361643057616430615edd565b6001019392505050565b60006001820161644c5761644c615edd565b5060010190565b634e487b7160e01b600052604160045260246000fd5b60006001600160a01b038381168061648357616483615ea5565b92169190910492915050565b64ffffffffff818116838216019080821115615f4857615f48615edd56fe51a7f65c6325882f237d4aeb43228179cfad48b868511d508e24b4437a819137a2646970667358221220022361a12b67487ca6337e019ba61b6ac8fcf640bd2155c598c8ed99ec3e36bf64736f6c63430008130033a264697066735822122045608da5833a55d3c54e1c06910b329cbf47825ca216fc731bd4b4d16d1349bd64736f6c63430008130033c66a3fdf07232cdd185febcc6579d408c241b47ae2f9907d84be655141eeaecc","linkReferences":{}},"methodIdentifiers":{"createPool(address,address,uint24)":"a1671295","enableFeeAmount(uint24,int24)":"8a7c195f","feeAmountTickSpacing(uint24)":"22afcccb","getPool(address,address,uint24)":"1698ee82","owner()":"8da5cb5b","parameters()":"89035730","setOwner(address)":"13af4035"},"id":180}