{"abi":[{"type":"constructor","inputs":[{"name":"_baseToken","type":"address","internalType":"address"},{"name":"_baseIsPod","type":"bool","internalType":"bool"},{"name":"_spTKN","type":"address","internalType":"address"},{"name":"_underlyingClPool","type":"address","internalType":"address"},{"name":"_baseConversionChainlinkFeed","type":"address","internalType":"address"},{"name":"_baseConversionClPool","type":"address","internalType":"address"},{"name":"_clBaseFeed","type":"address","internalType":"address"},{"name":"_clQuoteFeed","type":"address","internalType":"address"},{"name":"_clSinglePriceOracle","type":"address","internalType":"address"},{"name":"_uniswapSinglePriceOracle","type":"address","internalType":"address"},{"name":"_v2Reserves","type":"address","internalType":"address"}],"stateMutability":"nonpayable"},{"type":"function","name":"BASE_CONVERSION_CHAINLINK_FEED","inputs":[],"outputs":[{"name":"","type":"address","internalType":"address"}],"stateMutability":"view"},{"type":"function","name":"BASE_CONVERSION_CL_POOL","inputs":[],"outputs":[{"name":"","type":"address","internalType":"address"}],"stateMutability":"view"},{"type":"function","name":"BASE_IS_POD","inputs":[],"outputs":[{"name":"","type":"bool","internalType":"bool"}],"stateMutability":"view"},{"type":"function","name":"BASE_TOKEN","inputs":[],"outputs":[{"name":"","type":"address","internalType":"address"}],"stateMutability":"view"},{"type":"function","name":"CHAINLINK_BASE_PRICE_FEED","inputs":[],"outputs":[{"name":"","type":"address","internalType":"address"}],"stateMutability":"view"},{"type":"function","name":"CHAINLINK_QUOTE_PRICE_FEED","inputs":[],"outputs":[{"name":"","type":"address","internalType":"address"}],"stateMutability":"view"},{"type":"function","name":"CHAINLINK_SINGLE_PRICE_ORACLE","inputs":[],"outputs":[{"name":"","type":"address","internalType":"address"}],"stateMutability":"view"},{"type":"function","name":"POD","inputs":[],"outputs":[{"name":"","type":"address","internalType":"address"}],"stateMutability":"view"},{"type":"function","name":"SP_TKN","inputs":[],"outputs":[{"name":"","type":"address","internalType":"address"}],"stateMutability":"view"},{"type":"function","name":"UNDERLYING_TKN","inputs":[],"outputs":[{"name":"","type":"address","internalType":"address"}],"stateMutability":"view"},{"type":"function","name":"UNDERLYING_TKN_CL_POOL","inputs":[],"outputs":[{"name":"","type":"address","internalType":"address"}],"stateMutability":"view"},{"type":"function","name":"UNISWAP_V3_SINGLE_PRICE_ORACLE","inputs":[],"outputs":[{"name":"","type":"address","internalType":"address"}],"stateMutability":"view"},{"type":"function","name":"V2_RESERVES","inputs":[],"outputs":[{"name":"","type":"address","internalType":"contract IV2Reserves"}],"stateMutability":"view"},{"type":"function","name":"getPrices","inputs":[],"outputs":[{"name":"_isBadData","type":"bool","internalType":"bool"},{"name":"_priceLow","type":"uint256","internalType":"uint256"},{"name":"_priceHigh","type":"uint256","internalType":"uint256"}],"stateMutability":"view"},{"type":"function","name":"owner","inputs":[],"outputs":[{"name":"","type":"address","internalType":"address"}],"stateMutability":"view"},{"type":"function","name":"renounceOwnership","inputs":[],"outputs":[],"stateMutability":"nonpayable"},{"type":"function","name":"setTwapInterval","inputs":[{"name":"_interval","type":"uint32","internalType":"uint32"}],"outputs":[],"stateMutability":"nonpayable"},{"type":"function","name":"transferOwnership","inputs":[{"name":"newOwner","type":"address","internalType":"address"}],"outputs":[],"stateMutability":"nonpayable"},{"type":"event","name":"OwnershipTransferred","inputs":[{"name":"previousOwner","type":"address","indexed":true,"internalType":"address"},{"name":"newOwner","type":"address","indexed":true,"internalType":"address"}],"anonymous":false}],"bytecode":{"object":"0x6102206040526000805463ffffffff60a01b1916604b60a31b1790553480156200002857600080fd5b50604051620022bb380380620022bb8339810160408190526200004b916200029a565b62000056336200022d565b6001600160a01b03871615806200007457506001600160a01b038616155b620000b45760405162461bcd60e51b8152600401620000ab9060208082526004908201526321a7a72b60e11b604082015260600190565b60405180910390fd5b6001600160a01b03808c166080528a151560a05289811660c0819052898216610100528882166101405287821661016052868216610180528582166101a0528482166101c0528382166101e05290821661020052604080516390eb391160e01b81529051600092916390eb39119160048083019260209291908290030181865afa15801562000147573d6000803e3d6000fd5b505050506040513d601f19601f820116820180604052508101906200016d919062000383565b90506000816001600160a01b0316632acada4d6040518163ffffffff1660e01b8152600401600060405180830381865afa158015620001b0573d6000803e3d6000fd5b505050506040513d6000823e601f3d908101601f19168201604052620001da91908101906200041c565b6001600160a01b03831660e0528051909150819060009062000200576200020062000523565b6020908102919091010151516001600160a01b03166101205250620005399b505050505050505050505050565b600080546001600160a01b038381166001600160a01b0319831681178455604051919092169283917f8be0079c531659141344cd1fd0a4f28419497f9722a3daafe3b4186f6b6457e09190a35050565b80516001600160a01b03811681146200029557600080fd5b919050565b60008060008060008060008060008060006101608c8e031215620002bd57600080fd5b620002c88c6200027d565b9a5060208c01518015158114620002de57600080fd5b9950620002ee60408d016200027d565b9850620002fe60608d016200027d565b97506200030e60808d016200027d565b96506200031e60a08d016200027d565b95506200032e60c08d016200027d565b94506200033e60e08d016200027d565b93506200034f6101008d016200027d565b9250620003606101208d016200027d565b9150620003716101408d016200027d565b90509295989b509295989b9093969950565b6000602082840312156200039657600080fd5b620003a1826200027d565b9392505050565b634e487b7160e01b600052604160045260246000fd5b60405160a081016001600160401b0381118282101715620003e357620003e3620003a8565b60405290565b604051601f8201601f191681016001600160401b0381118282101715620004145762000414620003a8565b604052919050565b600060208083850312156200043057600080fd5b82516001600160401b03808211156200044857600080fd5b818501915085601f8301126200045d57600080fd5b815181811115620004725762000472620003a8565b62000482848260051b01620003e9565b818152848101925060a0918202840185019188831115620004a257600080fd5b938501935b82851015620005175780858a031215620004c15760008081fd5b620004cb620003be565b620004d6866200027d565b81528587015187820152604080870151908201526060620004f98188016200027d565b908201526080868101519082015284529384019392850192620004a7565b50979650505050505050565b634e487b7160e01b600052603260045260246000fd5b60805160a05160c05160e05161010051610120516101405161016051610180516101a0516101c0516101e05161020051611c1a620006a1600039600081816102070152610ca9015260008181610326015281816107e901526108ff01526000818161027a01526110e601526000818161034d015281816104df01526110810152600081816102a1015281816104ac01526110a901526000818161022e0152818161086b01526108c201526000818161017901526107550152600081816102ff0152818161078601528181610bc80152610c310152600081816101e0015281816107ae015281816109b30152610a9f01526000818161038701528181610ba701528181610c100152610c5d0152600081816101a001526112660152600081816102c801528181611027015261118e015260008181610135015281816104070152818161052a0152818161116d015281816111b6015281816116e301526117110152611c1a6000f3fe608060405234801561001057600080fd5b50600436106101165760003560e01c8063bd9a548b116100a2578063e788abdd11610071578063e788abdd146102fa578063eb33bd3c14610321578063ef88dac114610348578063f2fde38b1461036f578063f9356a8e1461038257600080fd5b8063bd9a548b14610250578063ca5ed14c14610275578063cdbb0e691461029c578063d401178e146102c357600080fd5b8063715018a6116100e9578063715018a6146101c25780638da5cb5b146101ca5780638dd79417146101db578063aa0effc514610202578063b235c94b1461022957600080fd5b80631d27050f1461011b578063210663e41461013057806346eeb01a14610174578063580059a11461019b575b600080fd5b61012e610129366004611736565b6103a9565b005b6101577f000000000000000000000000000000000000000000000000000000000000000081565b6040516001600160a01b0390911681526020015b60405180910390f35b6101577f000000000000000000000000000000000000000000000000000000000000000081565b6101577f000000000000000000000000000000000000000000000000000000000000000081565b61012e6103d7565b6000546001600160a01b0316610157565b6101577f000000000000000000000000000000000000000000000000000000000000000081565b6101577f000000000000000000000000000000000000000000000000000000000000000081565b6101577f000000000000000000000000000000000000000000000000000000000000000081565b6102586103eb565b60408051931515845260208401929092529082015260600161016b565b6101577f000000000000000000000000000000000000000000000000000000000000000081565b6101577f000000000000000000000000000000000000000000000000000000000000000081565b6102ea7f000000000000000000000000000000000000000000000000000000000000000081565b604051901515815260200161016b565b6101577f000000000000000000000000000000000000000000000000000000000000000081565b6101577f000000000000000000000000000000000000000000000000000000000000000081565b6101577f000000000000000000000000000000000000000000000000000000000000000081565b61012e61037d366004611778565b610605565b6101577f000000000000000000000000000000000000000000000000000000000000000081565b6103b1610683565b6000805463ffffffff909216600160a01b0263ffffffff60a01b19909216919091179055565b6103df610683565b6103e960006106dd565b565b6000806000806103fb600061072d565b905080600014935060007f00000000000000000000000000000000000000000000000000000000000000006001600160a01b031663313ce5676040518163ffffffff1660e01b8152600401602060405180830381865afa158015610463573d6000803e3d6000fd5b505050506040513d601f19601f820116820180604052508101906104879190611795565b6104929060126117ce565b61049d90600a6118cb565b6104a790836118da565b9050807f00000000000000000000000000000000000000000000000000000000000000006001600160a01b03161580159061050a57507f00000000000000000000000000000000000000000000000000000000000000006001600160a01b031615155b156105db57600061051961106a565b905060006105268261072d565b90507f00000000000000000000000000000000000000000000000000000000000000006001600160a01b031663313ce5676040518163ffffffff1660e01b8152600401602060405180830381865afa158015610586573d6000803e3d6000fd5b505050506040513d601f19601f820116820180604052508101906105aa9190611795565b6105b59060126117ce565b6105c090600a6118cb565b6105ca90826118da565b925087806105d6575081155b975050505b8082116105e857816105ea565b805b94508082116105f957806105fb565b815b9350505050909192565b61060d610683565b6001600160a01b0381166106775760405162461bcd60e51b815260206004820152602660248201527f4f776e61626c653a206e6577206f776e657220697320746865207a65726f206160448201526564647265737360d01b60648201526084015b60405180910390fd5b610680816106dd565b50565b6000546001600160a01b031633146103e95760405162461bcd60e51b815260206004820181905260248201527f4f776e61626c653a2063616c6c6572206973206e6f7420746865206f776e6572604482015260640161066e565b600080546001600160a01b038381166001600160a01b0319831681178455604051919092169283917f8be0079c531659141344cd1fd0a4f28419497f9722a3daafe3b4186f6b6457e09190a35050565b60008061073861116b565b9050826000036109a35760008054604051630807aa9160e01b81527f00000000000000000000000000000000000000000000000000000000000000006001600160a01b0390811660048301527f0000000000000000000000000000000000000000000000000000000000000000811660248301527f000000000000000000000000000000000000000000000000000000000000000081166044830152600160a01b90920463ffffffff1660648201527f000000000000000000000000000000000000000000000000000000000000000090911690630807aa91906084016040805180830381865afa158015610831573d6000803e3d6000fd5b505050506040513d601f19601f8201168201806040525081019061085591906118f1565b945090508015610869575060009392505050565b7f00000000000000000000000000000000000000000000000000000000000000006001600160a01b0316156109a15760008054604051630807aa9160e01b8152600481018390526001600160a01b0385811660248301527f000000000000000000000000000000000000000000000000000000000000000081166044830152600160a01b90920463ffffffff16606482015282917f00000000000000000000000000000000000000000000000000000000000000001690630807aa91906084016040805180830381865afa158015610945573d6000803e3d6000fd5b505050506040513d601f19601f8201168201806040525081019061096991906118f1565b91509150811561097f5750600095945050505050565b8561099282670de0b6b3a76400006118da565b61099c919061193a565b955050505b505b60006109ad611262565b905060007f00000000000000000000000000000000000000000000000000000000000000006001600160a01b0316630dfe16816040518163ffffffff1660e01b8152600401602060405180830381865afa158015610a0f573d6000803e3d6000fd5b505050506040513d601f19601f82011682018060405250810190610a33919061194e565b90506000816001600160a01b031663313ce5676040518163ffffffff1660e01b8152600401602060405180830381865afa158015610a75573d6000803e3d6000fd5b505050506040513d601f19601f82011682018060405250810190610a999190611795565b905060007f00000000000000000000000000000000000000000000000000000000000000006001600160a01b031663d21220a76040518163ffffffff1660e01b8152600401602060405180830381865afa158015610afb573d6000803e3d6000fd5b505050506040513d601f19601f82011682018060405250810190610b1f919061194e565b90506000816001600160a01b031663313ce5676040518163ffffffff1660e01b8152600401602060405180830381865afa158015610b61573d6000803e3d6000fd5b505050506040513d601f19601f82011682018060405250810190610b859190611795565b90506000866001600160a01b0316836001600160a01b031614610c0b57610bed7f00000000000000000000000000000000000000000000000000000000000000007f00000000000000000000000000000000000000000000000000000000000000008b6112eb565b610c06906ec097ce7bc90715b34b9f100000000061193a565b610c56565b610c567f00000000000000000000000000000000000000000000000000000000000000007f00000000000000000000000000000000000000000000000000000000000000008b6112eb565b9050610c827f0000000000000000000000000000000000000000000000000000000000000000826115f7565b604051630fa6707960e21b81526001600160a01b03888116600483015291925060009182917f000000000000000000000000000000000000000000000000000000000000000090911690633e99c1e4906024016040805180830381865afa158015610cf1573d6000803e3d6000fd5b505050506040513d601f19601f82011682018060405250810190610d159190611987565b915091506000816001600160701b0316836001600160701b0316610d3991906118da565b90506000896001600160a01b031663d21220a76040518163ffffffff1660e01b8152600401602060405180830381865afa158015610d7b573d6000803e3d6000fd5b505050506040513d601f19601f82011682018060405250810190610d9f919061194e565b6001600160a01b031663313ce5676040518163ffffffff1660e01b8152600401602060405180830381865afa158015610ddc573d6000803e3d6000fd5b505050506040513d601f19601f82011682018060405250810190610e009190611795565b610e0b90600a6118cb565b8a6001600160a01b0316630dfe16816040518163ffffffff1660e01b8152600401602060405180830381865afa158015610e49573d6000803e3d6000fd5b505050506040513d601f19601f82011682018060405250810190610e6d919061194e565b6001600160a01b031663313ce5676040518163ffffffff1660e01b8152600401602060405180830381865afa158015610eaa573d6000803e3d6000fd5b505050506040513d601f19601f82011682018060405250810190610ece9190611795565b610ed990600a6118cb565b610ee391906118da565b90506000610f0482610ef585896118da565b610eff919061193a565b611683565b610f1290633b9aca006118da565b905060008b6001600160a01b03166318160ddd6040518163ffffffff1660e01b8152600401602060405180830381865afa158015610f54573d6000803e3d6000fd5b505050506040513d601f19601f82011682018060405250810190610f7891906119ba565b6002610f848a8d6119d3565b610f8e91906119ec565b610f9990600a6118cb565b610fa48460026118da565b610fae91906118da565b610fb8919061193a565b905060008d6001600160a01b03168a6001600160a01b031614610fdb578a610fdd565b885b60ff169050670de0b6b3a7640000610ff682600a611a0e565b61100090846118da565b61100a919061193a565b611023906ec097ce7bc90715b34b9f100000000061193a565b9e507f000000000000000000000000000000000000000000000000000000000000000015611057576110548f6116dc565b9e505b5050505050505050505050505050919050565b604051630807aa9160e01b81526001600160a01b037f0000000000000000000000000000000000000000000000000000000000000000811660048301527f0000000000000000000000000000000000000000000000000000000000000000811660248301526000604483018190526064830181905291829182917f000000000000000000000000000000000000000000000000000000000000000090911690630807aa91906084016040805180830381865afa15801561112e573d6000803e3d6000fd5b505050506040513d601f19601f8201168201806040525081019061115291906118f1565b9150915081156111655760009250505090565b92915050565b7f00000000000000000000000000000000000000000000000000000000000000007f00000000000000000000000000000000000000000000000000000000000000001561125f5760007f00000000000000000000000000000000000000000000000000000000000000006001600160a01b0316632acada4d6040518163ffffffff1660e01b8152600401600060405180830381865afa158015611212573d6000803e3d6000fd5b505050506040513d6000823e601f3d908101601f1916820160405261123a9190810190611a8a565b90508060008151811061124f5761124f611b84565b6020026020010151600001519150505b90565b60007f00000000000000000000000000000000000000000000000000000000000000006001600160a01b03166372f702f36040518163ffffffff1660e01b8152600401602060405180830381865afa1580156112c2573d6000803e3d6000fd5b505050506040513d601f19601f820116820180604052508101906112e6919061194e565b905090565b6000836001600160a01b0316636a5e26506040518163ffffffff1660e01b8152600401602060405180830381865afa15801561132b573d6000803e3d6000fd5b505050506040513d601f19601f8201168201806040525081019061134f9190611795565b60ff166001146113865760405162461bcd60e51b81526020600482015260026024820152614f5560f01b604482015260640161066e565b6001600160a01b038316611421576000846001600160a01b0316632acada4d6040518163ffffffff1660e01b8152600401600060405180830381865afa1580156113d4573d6000803e3d6000fd5b505050506040513d6000823e601f3d908101601f191682016040526113fc9190810190611a8a565b90508060008151811061141157611411611b84565b6020026020010151600001519350505b826001600160a01b031663313ce5676040518163ffffffff1660e01b8152600401602060405180830381865afa15801561145f573d6000803e3d6000fd5b505050506040513d601f19601f820116820180604052508101906114839190611795565b61148e90600a6118cb565b846001600160a01b03166318160ddd6040518163ffffffff1660e01b8152600401602060405180830381865afa1580156114cc573d6000803e3d6000fd5b505050506040513d601f19601f820116820180604052508101906114f091906119ba565b856001600160a01b031663313ce5676040518163ffffffff1660e01b8152600401602060405180830381865afa15801561152e573d6000803e3d6000fd5b505050506040513d601f19601f820116820180604052508101906115529190611795565b61155d90600a6118cb565b6040516370a0823160e01b81526001600160a01b0388811660048301528716906370a0823190602401602060405180830381865afa1580156115a3573d6000803e3d6000fd5b505050506040513d601f19601f820116820180604052508101906115c791906119ba565b6115d190866118da565b6115db91906118da565b6115e5919061193a565b6115ef919061193a565b949350505050565b600080836001600160a01b031663bdc8d0606040518163ffffffff1660e01b8152600401602060405180830381865afa158015611638573d6000803e3d6000fd5b505050506040513d601f19601f8201168201806040525081019061165c9190611b9a565b905061271061166f61ffff8316856118da565b611679919061193a565b6115ef9084611bbe565b6000806002611693846001611bd1565b61169d919061193a565b90508291505b818110156116d6579050806002816116bb818661193a565b6116c59190611bd1565b6116cf919061193a565b90506116a3565b50919050565b600061170a7f00000000000000000000000000000000000000000000000000000000000000006000846112eb565b90506111657f0000000000000000000000000000000000000000000000000000000000000000826115f7565b60006020828403121561174857600080fd5b813563ffffffff8116811461175c57600080fd5b9392505050565b6001600160a01b038116811461068057600080fd5b60006020828403121561178a57600080fd5b813561175c81611763565b6000602082840312156117a757600080fd5b815160ff8116811461175c57600080fd5b634e487b7160e01b600052601160045260246000fd5b60ff8281168282160390811115611165576111656117b8565b600181815b80851115611822578160001904821115611808576118086117b8565b8085161561181557918102915b93841c93908002906117ec565b509250929050565b60008261183957506001611165565b8161184657506000611165565b816001811461185c576002811461186657611882565b6001915050611165565b60ff841115611877576118776117b8565b50506001821b611165565b5060208310610133831016604e8410600b84101617156118a5575081810a611165565b6118af83836117e7565b80600019048211156118c3576118c36117b8565b029392505050565b600061175c60ff84168361182a565b8082028115828204841417611165576111656117b8565b6000806040838503121561190457600080fd5b8251801515811461191457600080fd5b6020939093015192949293505050565b634e487b7160e01b600052601260045260246000fd5b60008261194957611949611924565b500490565b60006020828403121561196057600080fd5b815161175c81611763565b80516001600160701b038116811461198257600080fd5b919050565b6000806040838503121561199a57600080fd5b6119a38361196b565b91506119b16020840161196b565b90509250929050565b6000602082840312156119cc57600080fd5b5051919050565b60ff8181168382160190811115611165576111656117b8565b600060ff8316806119ff576119ff611924565b8060ff84160491505092915050565b600061175c838361182a565b634e487b7160e01b600052604160045260246000fd5b60405160a0810167ffffffffffffffff81118282101715611a5357611a53611a1a565b60405290565b604051601f8201601f1916810167ffffffffffffffff81118282101715611a8257611a82611a1a565b604052919050565b60006020808385031215611a9d57600080fd5b825167ffffffffffffffff80821115611ab557600080fd5b818501915085601f830112611ac957600080fd5b815181811115611adb57611adb611a1a565b611ae9848260051b01611a59565b818152848101925060a0918202840185019188831115611b0857600080fd5b938501935b82851015611b785780858a031215611b255760008081fd5b611b2d611a30565b8551611b3881611763565b8152858701518782015260408087015190820152606080870151611b5b81611763565b908201526080868101519082015284529384019392850192611b0d565b50979650505050505050565b634e487b7160e01b600052603260045260246000fd5b600060208284031215611bac57600080fd5b815161ffff8116811461175c57600080fd5b81810381811115611165576111656117b8565b80820180821115611165576111656117b856fea2646970667358221220cddd6969e54212baa29287611ffe321a9a7a57978db2285c69fa1c0466c2daac64736f6c63430008130033","linkReferences":{}},"methodIdentifiers":{"BASE_CONVERSION_CHAINLINK_FEED()":"46eeb01a","BASE_CONVERSION_CL_POOL()":"b235c94b","BASE_IS_POD()":"d401178e","BASE_TOKEN()":"210663e4","CHAINLINK_BASE_PRICE_FEED()":"cdbb0e69","CHAINLINK_QUOTE_PRICE_FEED()":"ef88dac1","CHAINLINK_SINGLE_PRICE_ORACLE()":"ca5ed14c","POD()":"f9356a8e","SP_TKN()":"580059a1","UNDERLYING_TKN()":"e788abdd","UNDERLYING_TKN_CL_POOL()":"8dd79417","UNISWAP_V3_SINGLE_PRICE_ORACLE()":"eb33bd3c","V2_RESERVES()":"aa0effc5","getPrices()":"bd9a548b","owner()":"8da5cb5b","renounceOwnership()":"715018a6","setTwapInterval(uint32)":"1d27050f","transferOwnership(address)":"f2fde38b"},"id":43}