{"abi":[{"type":"constructor","inputs":[],"stateMutability":"nonpayable"},{"type":"function","name":"V3addLiquidity","inputs":[{"name":"_pool","type":"address","internalType":"contract UniswapV3Pool"},{"name":"amount","type":"uint256","internalType":"uint256"}],"outputs":[],"stateMutability":"nonpayable"},{"type":"function","name":"uniswapV3MintCallback","inputs":[{"name":"amount0Owed","type":"uint256","internalType":"uint256"},{"name":"amount1Owed","type":"uint256","internalType":"uint256"},{"name":"data","type":"bytes","internalType":"bytes"}],"outputs":[],"stateMutability":"nonpayable"},{"type":"event","name":"MessageAddress","inputs":[{"name":"a","type":"string","indexed":false,"internalType":"string"},{"name":"b","type":"address","indexed":false,"internalType":"address"}],"anonymous":false},{"type":"event","name":"MessageUint","inputs":[{"name":"a","type":"string","indexed":false,"internalType":"string"},{"name":"b","type":"uint256","indexed":false,"internalType":"uint256"}],"anonymous":false}],"bytecode":{"object":"0x608060405234801561001057600080fd5b506109b3806100206000396000f3fe608060405234801561001057600080fd5b50600436106100365760003560e01c8063109ba81d1461003b578063d348799714610050575b600080fd5b61004e61004936600461068b565b610063565b005b61004e61005e3660046106b7565b610295565b60006040518060600160405280846001600160a01b0316630dfe16816040518163ffffffff1660e01b8152600401602060405180830381865afa1580156100ae573d6000803e3d6000fd5b505050506040513d601f19601f820116820180604052508101906100d29190610737565b6001600160a01b03168152602001846001600160a01b031663d21220a76040518163ffffffff1660e01b8152600401602060405180830381865afa15801561011e573d6000803e3d6000fd5b505050506040513d601f19601f820116820180604052508101906101429190610737565b6001600160a01b03168152602001846001600160a01b031663ddca3f436040518163ffffffff1660e01b8152600401602060405180830381865afa15801561018e573d6000803e3d6000fd5b505050506040513d601f19601f820116820180604052508101906101b2919061076c565b62ffffff908116909152604080518082018252838152306020918201908152825185516001600160a01b0390811682850152928601518316818501528584015190941660608501525181166080808501919091528251808503909101815260a0840192839052633c8a7d8d60e01b90925292935091851691633c8a7d8d9161024c913391620d899f1991620d89a09189919060a401610789565b60408051808303816000875af115801561026a573d6000803e3d6000fd5b505050506040513d601f19601f8201168201806040525081019061028e9190610814565b5050505050565b60408051818152600b818301526a185b5bdd5b9d0c13ddd95960aa1b606082015260208101869052905160008051602061095e8339815191529181900360800190a160408051818152600b818301526a185b5bdd5b9d0c53ddd95960aa1b606082015260208101859052905160008051602061095e8339815191529181900360800190a160006103278284018461086f565b8051516040516370a0823160e01b815230600482015291925060008051602061095e833981519152916001600160a01b03909116906370a0823190602401602060405180830381865afa158015610382573d6000803e3d6000fd5b505050506040513d601f19601f820116820180604052508101906103a69190610922565b6040516103de91906040808252600e908201526d042616c616e636520546f6b656e360941b6060820152602081019190915260800190565b60405180910390a18051602001516040516370a0823160e01b815230600482015260008051602061095e833981519152916001600160a01b0316906370a0823190602401602060405180830381865afa15801561043f573d6000803e3d6000fd5b505050506040513d601f19601f820116820180604052508101906104639190610922565b60405161049b91906040808252600e908201526d42616c616e636520546f6b656e3160901b6060820152602081019190915260800190565b60405180910390a18051516040517f26dd02fb4ad462c9fc2cc3f2f578a57dd94d2fd32ed445062f1d4b114fe50a4991610500916040808252600690820152650546f6b656e360d41b60608201526001600160a01b0391909116602082015260800190565b60405180910390a18051602001516040517f26dd02fb4ad462c9fc2cc3f2f578a57dd94d2fd32ed445062f1d4b114fe50a499161056891604080825260069082015265546f6b656e3160d01b60608201526001600160a01b0391909116602082015260800190565b60405180910390a184156105ed5780515160405163a9059cbb60e01b8152336004820152602481018790526001600160a01b039091169063a9059cbb906044016020604051808303816000875af11580156105c7573d6000803e3d6000fd5b505050506040513d601f19601f820116820180604052508101906105eb919061093b565b505b831561028e5780516020015160405163a9059cbb60e01b8152336004820152602481018690526001600160a01b039091169063a9059cbb906044016020604051808303816000875af1158015610647573d6000803e3d6000fd5b505050506040513d601f19601f8201168201806040525081019061066b919061093b565b505050505050565b6001600160a01b038116811461068857600080fd5b50565b6000806040838503121561069e57600080fd5b82356106a981610673565b946020939093013593505050565b600080600080606085870312156106cd57600080fd5b8435935060208501359250604085013567ffffffffffffffff808211156106f357600080fd5b818701915087601f83011261070757600080fd5b81358181111561071657600080fd5b88602082850101111561072857600080fd5b95989497505060200194505050565b60006020828403121561074957600080fd5b815161075481610673565b9392505050565b62ffffff8116811461068857600080fd5b60006020828403121561077e57600080fd5b81516107548161075b565b60018060a01b0386168152600060208660020b818401528560020b60408401526fffffffffffffffffffffffffffffffff8516606084015260a0608084015283518060a085015260005b818110156107ef5785810183015185820160c0015282016107d3565b50600060c0828601015260c0601f19601f830116850101925050509695505050505050565b6000806040838503121561082757600080fd5b505080516020909101519092909150565b6040516060810167ffffffffffffffff8111828210171561086957634e487b7160e01b600052604160045260246000fd5b60405290565b6000818303608081121561088257600080fd5b6040516040810181811067ffffffffffffffff821117156108b357634e487b7160e01b600052604160045260246000fd5b60405260608212156108c457600080fd5b6108cc610838565b915083356108d981610673565b825260208401356108e981610673565b602083015260408401356108fc8161075b565b604083015290815260608301359061091382610673565b60208101919091529392505050565b60006020828403121561093457600080fd5b5051919050565b60006020828403121561094d57600080fd5b8151801515811461075457600080fdfe7dd4847df0f0827c4d05e1bc2425d4fdbd2a75440803d8ede37b154a4c5fa321a264697066735822122049330c01bbc9f089acec94a795b2087edadda771bebc5e73217d76d9e2f57e6b64736f6c63430008130033","linkReferences":{}},"methodIdentifiers":{"V3addLiquidity(address,uint256)":"109ba81d","uniswapV3MintCallback(uint256,uint256,bytes)":"d3487997"},"id":137}