{"abi":[{"type":"constructor","inputs":[{"name":"_v3TwapUtilities","type":"address","internalType":"contract IV3TwapUtilities"},{"name":"_v2Router","type":"address","internalType":"address"},{"name":"_v3Router","type":"address","internalType":"address"}],"stateMutability":"nonpayable"},{"type":"function","name":"ASYNC_INITIALIZE","inputs":[],"outputs":[{"name":"","type":"bool","internalType":"bool"}],"stateMutability":"view"},{"type":"function","name":"V2_ROUTER","inputs":[],"outputs":[{"name":"","type":"address","internalType":"address"}],"stateMutability":"view"},{"type":"function","name":"V3_ROUTER","inputs":[],"outputs":[{"name":"","type":"address","internalType":"address"}],"stateMutability":"view"},{"type":"function","name":"V3_TWAP_UTILS","inputs":[],"outputs":[{"name":"","type":"address","internalType":"contract IV3TwapUtilities"}],"stateMutability":"view"},{"type":"function","name":"WETH","inputs":[],"outputs":[{"name":"","type":"address","internalType":"address"}],"stateMutability":"view"},{"type":"function","name":"addLiquidity","inputs":[{"name":"_tokenA","type":"address","internalType":"address"},{"name":"_tokenB","type":"address","internalType":"address"},{"name":"_amountADesired","type":"uint256","internalType":"uint256"},{"name":"_amountBDesired","type":"uint256","internalType":"uint256"},{"name":"_amountAMin","type":"uint256","internalType":"uint256"},{"name":"_amountBMin","type":"uint256","internalType":"uint256"},{"name":"_to","type":"address","internalType":"address"},{"name":"_deadline","type":"uint256","internalType":"uint256"}],"outputs":[],"stateMutability":"nonpayable"},{"type":"function","name":"createV2Pool","inputs":[{"name":"_token0","type":"address","internalType":"address"},{"name":"_token1","type":"address","internalType":"address"}],"outputs":[{"name":"","type":"address","internalType":"address"}],"stateMutability":"nonpayable"},{"type":"function","name":"extraRewardsHook","inputs":[{"name":"_token0","type":"address","internalType":"address"},{"name":"_token1","type":"address","internalType":"address"}],"outputs":[{"name":"_tokens","type":"address[]","internalType":"address[]"},{"name":"_amounts","type":"uint256[]","internalType":"uint256[]"}],"stateMutability":"nonpayable"},{"type":"function","name":"getV2Pool","inputs":[{"name":"_token0","type":"address","internalType":"address"},{"name":"_token1","type":"address","internalType":"address"}],"outputs":[{"name":"","type":"address","internalType":"address"}],"stateMutability":"view"},{"type":"function","name":"getV3Pool","inputs":[{"name":"_token0","type":"address","internalType":"address"},{"name":"_token1","type":"address","internalType":"address"},{"name":"_tickSpacing","type":"int24","internalType":"int24"}],"outputs":[{"name":"","type":"address","internalType":"address"}],"stateMutability":"view"},{"type":"function","name":"getV3Pool","inputs":[{"name":"","type":"address","internalType":"address"},{"name":"","type":"address","internalType":"address"},{"name":"","type":"uint24","internalType":"uint24"}],"outputs":[{"name":"_p","type":"address","internalType":"address"}],"stateMutability":"view"},{"type":"function","name":"removeLiquidity","inputs":[{"name":"_tokenA","type":"address","internalType":"address"},{"name":"_tokenB","type":"address","internalType":"address"},{"name":"_liquidity","type":"uint256","internalType":"uint256"},{"name":"_amountAMin","type":"uint256","internalType":"uint256"},{"name":"_amountBMin","type":"uint256","internalType":"uint256"},{"name":"_to","type":"address","internalType":"address"},{"name":"_deadline","type":"uint256","internalType":"uint256"}],"outputs":[],"stateMutability":"nonpayable"},{"type":"function","name":"swapV2Single","inputs":[{"name":"_tokenIn","type":"address","internalType":"address"},{"name":"_tokenOut","type":"address","internalType":"address"},{"name":"_amountIn","type":"uint256","internalType":"uint256"},{"name":"_amountOutMin","type":"uint256","internalType":"uint256"},{"name":"_recipient","type":"address","internalType":"address"}],"outputs":[{"name":"_amountOut","type":"uint256","internalType":"uint256"}],"stateMutability":"nonpayable"},{"type":"function","name":"swapV2SingleExactOut","inputs":[{"name":"_tokenIn","type":"address","internalType":"address"},{"name":"_tokenOut","type":"address","internalType":"address"},{"name":"_amountInMax","type":"uint256","internalType":"uint256"},{"name":"_amountOut","type":"uint256","internalType":"uint256"},{"name":"_recipient","type":"address","internalType":"address"}],"outputs":[{"name":"_amountInUsed","type":"uint256","internalType":"uint256"}],"stateMutability":"nonpayable"},{"type":"function","name":"swapV3Single","inputs":[{"name":"_tokenIn","type":"address","internalType":"address"},{"name":"_tokenOut","type":"address","internalType":"address"},{"name":"","type":"uint24","internalType":"uint24"},{"name":"_amountIn","type":"uint256","internalType":"uint256"},{"name":"_amountOutMin","type":"uint256","internalType":"uint256"},{"name":"_recipient","type":"address","internalType":"address"}],"outputs":[{"name":"_amountOut","type":"uint256","internalType":"uint256"}],"stateMutability":"nonpayable"}],"bytecode":{"object":"0x6101006040523480156200001257600080fd5b506040516200265e3803806200265e833981016040819052620000359162000071565b6001600160a01b0392831660805290821660a0521660c052600160e052620000c5565b6001600160a01b03811681146200006e57600080fd5b50565b6000806000606084860312156200008757600080fd5b8351620000948162000058565b6020850151909350620000a78162000058565b6040850151909250620000ba8162000058565b809150509250925092565b60805160a05160c05160e0516124e86200017660003960006102150152600081816101b0015281816107dc01526108e4015260008181610150015281816104ea015281816105a3015281816105df01528181610b4a01528181610b8601528181610cb9015281816110b40152818161113d015281816112c201528181611339015281816114b2015281816116ca015281816116fe015261177d01526000818161028501526102f501526124e86000f3fe608060405234801561001057600080fd5b50600436106100f55760003560e01c8063a20e9a5511610097578063c4f3e9d711610066578063c4f3e9d714610247578063e3ddd7791461025a578063e8e337001461026d578063f191c16a1461028057600080fd5b8063a20e9a55146101d2578063ad5c4648146101f3578063baa2abde146101fb578063c3749ae51461021057600080fd5b80638d5752d6116100d35780638d5752d6146101725780639a8fadee146101855780639f4f974514610198578063a1119856146101ab57600080fd5b80630a8e060f146100fa57806383e4b89f1461012a5780638ada032e1461014b575b600080fd5b61010d610108366004611d53565b6102a7565b6040516001600160a01b0390911681526020015b60405180910390f35b61013d610138366004611da5565b61036a565b604051908152602001610121565b61010d7f000000000000000000000000000000000000000000000000000000000000000081565b61013d610180366004611e1c565b6106d0565b61013d610193366004611da5565b6109d4565b61010d6101a6366004611e8a565b610cb5565b61010d7f000000000000000000000000000000000000000000000000000000000000000081565b6101e56101e0366004611e8a565b610db3565b604051610121929190611f07565b61010d6110b0565b61020e610209366004611f5e565b611139565b005b6102377f000000000000000000000000000000000000000000000000000000000000000081565b6040519015158152602001610121565b61010d610255366004611e8a565b6114ae565b61010d610268366004611fd0565b611581565b61020e61027b366004612017565b6115b6565b61010d7f000000000000000000000000000000000000000000000000000000000000000081565b604051631719f99960e11b8152735e7bb104d84c7cb9b682aac2f3d509f5f406809a60048201526001600160a01b0384811660248301528381166044830152600283900b60648301526000917f000000000000000000000000000000000000000000000000000000000000000090911690632e33f33290608401602060405180830381865afa15801561033e573d6000803e3d6000fd5b505050506040513d601f19601f820116820180604052508101906103629190612093565b949350505050565b6040516370a0823160e01b81526001600160a01b03828116600483015260009182918716906370a0823190602401602060405180830381865afa1580156103b5573d6000803e3d6000fd5b505050506040513d601f19601f820116820180604052508101906103d991906120b7565b905084600003610452576040516370a0823160e01b81523060048201526001600160a01b038816906370a0823190602401602060405180830381865afa158015610427573d6000803e3d6000fd5b505050506040513d601f19601f8201168201806040525081019061044b91906120b7565b9450610469565b610469335b6001600160a01b0389169030886119f0565b604080516001808252818301909252600091816020015b6040805160808101825260008082526020808301829052928201819052606082015282526000199092019101816104805790505090506040518060800160405280896001600160a01b03168152602001886001600160a01b031681526020016000151581526020017f00000000000000000000000000000000000000000000000000000000000000006001600160a01b031663d4b6846d6040518163ffffffff1660e01b8152600401602060405180830381865afa158015610546573d6000803e3d6000fd5b505050506040513d601f19601f8201168201806040525081019061056a9190612093565b6001600160a01b031681525081600081518110610589576105896120e6565b60209081029190910101526105c86001600160a01b0389167f000000000000000000000000000000000000000000000000000000000000000088611a61565b604051634466c10f60e11b81526001600160a01b037f000000000000000000000000000000000000000000000000000000000000000016906388cd821e9061061c908990899086908a9042906004016120fc565b600060405180830381600087803b15801561063657600080fd5b505af115801561064a573d6000803e3d6000fd5b50506040516370a0823160e01b81526001600160a01b0387811660048301528593508a1691506370a0823190602401602060405180830381865afa158015610696573d6000803e3d6000fd5b505050506040513d601f19601f820116820180604052508101906106ba91906120b7565b6106c491906121b4565b98975050505050505050565b6040516370a0823160e01b81526001600160a01b03828116600483015260009182918816906370a0823190602401602060405180830381865afa15801561071b573d6000803e3d6000fd5b505050506040513d601f19601f8201168201806040525081019061073f91906120b7565b9050846000036107b8576040516370a0823160e01b81523060048201526001600160a01b038916906370a0823190602401602060405180830381865afa15801561078d573d6000803e3d6000fd5b505050506040513d601f19601f820116820180604052508101906107b191906120b7565b94506107cd565b6107cd6001600160a01b0389163330886119f0565b6108016001600160a01b0389167f000000000000000000000000000000000000000000000000000000000000000087611a61565b6040805160006020820181905282516001818403810182526021840181815260618501909552909391926041015b606081526020019060019003908161082f575050604080516bffffffffffffffffffffffff1960608e811b82166020840152601960eb1b60348401528d901b1660378201528151808203602b018152604b8201909252919250906108a09087908a908a908590600190606b01612217565b604051602081830303815290604052826000815181106108c2576108c26120e6565b6020908102919091010152604051630d64d59360e21b81526001600160a01b037f00000000000000000000000000000000000000000000000000000000000000001690633593564c9061091d90869086904290600401612258565b600060405180830381600087803b15801561093757600080fd5b505af115801561094b573d6000803e3d6000fd5b50506040516370a0823160e01b81526001600160a01b0389811660048301528793508d1691506370a0823190602401602060405180830381865afa158015610997573d6000803e3d6000fd5b505050506040513d601f19601f820116820180604052508101906109bb91906120b7565b6109c591906121b4565b9b9a5050505050505050505050565b6040516370a0823160e01b815230600482015260009081906001600160a01b038816906370a0823190602401602060405180830381865afa158015610a1d573d6000803e3d6000fd5b505050506040513d601f19601f82011682018060405250810190610a4191906120b7565b905084600003610aba576040516370a0823160e01b81523060048201526001600160a01b038816906370a0823190602401602060405180830381865afa158015610a8f573d6000803e3d6000fd5b505050506040513d601f19601f82011682018060405250810190610ab391906120b7565b9450610ac3565b610ac333610457565b6040805160028082526060820183526000926020830190803683370190505090508781600081518110610af857610af86120e6565b60200260200101906001600160a01b031690816001600160a01b0316815250508681600181518110610b2c57610b2c6120e6565b6001600160a01b039283166020918202929092010152610b6f9089167f000000000000000000000000000000000000000000000000000000000000000088611a61565b604051634401edf760e11b81526001600160a01b037f00000000000000000000000000000000000000000000000000000000000000001690638803dbee90610bc39088908a9086908a9042906004016122d3565b6000604051808303816000875af1158015610be2573d6000803e3d6000fd5b505050506040513d6000823e601f3d908101601f19168201604052610c0a919081019061230f565b506040516370a0823160e01b815230600482015260009083906001600160a01b038b16906370a0823190602401602060405180830381865afa158015610c54573d6000803e3d6000fd5b505050506040513d601f19601f82011682018060405250810190610c7891906120b7565b610c8291906121b4565b90508015610c9e57610c9e6001600160a01b038a163383611b0e565b610ca881886121b4565b9998505050505050505050565b60007f00000000000000000000000000000000000000000000000000000000000000006001600160a01b031663d4b6846d6040518163ffffffff1660e01b8152600401602060405180830381865afa158015610d15573d6000803e3d6000fd5b505050506040513d601f19601f82011682018060405250810190610d399190612093565b6001600160a01b0316631698ee82848460006040518463ffffffff1660e01b8152600401610d69939291906123c1565b602060405180830381865afa158015610d86573d6000803e3d6000fd5b505050506040513d601f19601f82011682018060405250810190610daa9190612093565b90505b92915050565b60608073940181a94a35a4569e4529a3cdfb74e38fd9863182600081518110610dde57610dde6120e6565b6001600160a01b0392909216602092830291909101909101526040516370a0823160e01b815230600482015260009073940181a94a35a4569e4529a3cdfb74e38fd98631906370a0823190602401602060405180830381865afa158015610e49573d6000803e3d6000fd5b505050506040513d601f19601f82011682018060405250810190610e6d91906120b7565b90506000610e7b8686610cb5565b9050600073f739e2bc37fd5c1d3614da67756deeaee00256676001600160a01b03166346c96aac6040518163ffffffff1660e01b8152600401602060405180830381865afa158015610ed1573d6000803e3d6000fd5b505050506040513d601f19601f82011682018060405250810190610ef59190612093565b60408051600180825281830190925291925060009190602080830190803683370190505060405163b9a09fd560e01b81526001600160a01b0385811660048301529192509083169063b9a09fd590602401602060405180830381865afa158015610f63573d6000803e3d6000fd5b505050506040513d601f19601f82011682018060405250810190610f879190612093565b81600081518110610f9a57610f9a6120e6565b6001600160a01b03928316602091820292909201015260405163f9f031df60e01b81529083169063f9f031df90610fd59084906004016123e9565b600060405180830381600087803b158015610fef57600080fd5b505af1158015611003573d6000803e3d6000fd5b50506040516370a0823160e01b815230600482015286925073940181a94a35a4569e4529a3cdfb74e38fd9863191506370a0823190602401602060405180830381865afa158015611058573d6000803e3d6000fd5b505050506040513d601f19601f8201168201806040525081019061107c91906120b7565b61108691906121b4565b85600081518110611099576110996120e6565b602002602001018181525050505050509250929050565b60007f00000000000000000000000000000000000000000000000000000000000000006001600160a01b0316633fc8cef36040518163ffffffff1660e01b8152600401602060405180830381865afa158015611110573d6000803e3d6000fd5b505050506040513d601f19601f820116820180604052508101906111349190612093565b905090565b60007f00000000000000000000000000000000000000000000000000000000000000006001600160a01b031663d4b6846d6040518163ffffffff1660e01b8152600401602060405180830381865afa158015611199573d6000803e3d6000fd5b505050506040513d601f19601f820116820180604052508101906111bd9190612093565b6001600160a01b0316631698ee82898960006040518463ffffffff1660e01b81526004016111ed939291906123c1565b602060405180830381865afa15801561120a573d6000803e3d6000fd5b505050506040513d601f19601f8201168201806040525081019061122e9190612093565b6040516370a0823160e01b81523060048201529091506000906001600160a01b038316906370a0823190602401602060405180830381865afa158015611278573d6000803e3d6000fd5b505050506040513d601f19601f8201168201806040525081019061129c91906120b7565b90506112b36001600160a01b03831633308a6119f0565b6112e76001600160a01b0383167f000000000000000000000000000000000000000000000000000000000000000089611a61565b60405163037b79b160e21b81526001600160a01b038a81166004830152898116602483015260006044830152606482018990526084820188905260a4820187905285811660c483015260e482018590527f00000000000000000000000000000000000000000000000000000000000000001690630dede6c4906101040160408051808303816000875af1158015611382573d6000803e3d6000fd5b505050506040513d601f19601f820116820180604052508101906113a691906123fc565b50506040516370a0823160e01b815230600482015281906001600160a01b038416906370a0823190602401602060405180830381865afa1580156113ee573d6000803e3d6000fd5b505050506040513d601f19601f8201168201806040525081019061141291906120b7565b11156114a3576040516370a0823160e01b81523060048201526114a390859083906001600160a01b038616906370a0823190602401602060405180830381865afa158015611464573d6000803e3d6000fd5b505050506040513d601f19601f8201168201806040525081019061148891906120b7565b61149291906121b4565b6001600160a01b0385169190611b0e565b505050505050505050565b60007f00000000000000000000000000000000000000000000000000000000000000006001600160a01b031663d4b6846d6040518163ffffffff1660e01b8152600401602060405180830381865afa15801561150e573d6000803e3d6000fd5b505050506040513d601f19601f820116820180604052508101906115329190612093565b6001600160a01b031663a1671295848460006040518463ffffffff1660e01b8152600401611562939291906123c1565b6020604051808303816000875af1158015610d86573d6000803e3d6000fd5b60405162461bcd60e51b8152602060048201526002602482015261049360f41b60448201526000906064015b60405180910390fd5b6040516370a0823160e01b81523060048201526000906001600160a01b038a16906370a0823190602401602060405180830381865afa1580156115fd573d6000803e3d6000fd5b505050506040513d601f19601f8201168201806040525081019061162191906120b7565b6040516370a0823160e01b81523060048201529091506000906001600160a01b038a16906370a0823190602401602060405180830381865afa15801561166b573d6000803e3d6000fd5b505050506040513d601f19601f8201168201806040525081019061168f91906120b7565b90506116a66001600160a01b038b1633308b6119f0565b6116bb6001600160a01b038a1633308a6119f0565b6116ef6001600160a01b038b167f00000000000000000000000000000000000000000000000000000000000000008a611a61565b6117236001600160a01b038a167f000000000000000000000000000000000000000000000000000000000000000089611a61565b604051635a47ddc360e01b81526001600160a01b038b811660048301528a8116602483015260006044830152606482018a90526084820189905260a4820188905260c4820187905285811660e483015261010482018590527f00000000000000000000000000000000000000000000000000000000000000001690635a47ddc390610124016060604051808303816000875af11580156117c7573d6000803e3d6000fd5b505050506040513d601f19601f820116820180604052508101906117eb9190612420565b50506040516370a0823160e01b81523060048201528391506001600160a01b038c16906370a0823190602401602060405180830381865afa158015611834573d6000803e3d6000fd5b505050506040513d601f19601f8201168201806040525081019061185891906120b7565b11156118e9576040516370a0823160e01b81523060048201526118e990859084906001600160a01b038e16906370a0823190602401602060405180830381865afa1580156118aa573d6000803e3d6000fd5b505050506040513d601f19601f820116820180604052508101906118ce91906120b7565b6118d891906121b4565b6001600160a01b038d169190611b0e565b6040516370a0823160e01b815230600482015281906001600160a01b038b16906370a0823190602401602060405180830381865afa15801561192f573d6000803e3d6000fd5b505050506040513d601f19601f8201168201806040525081019061195391906120b7565b11156119e4576040516370a0823160e01b81523060048201526119e490859083906001600160a01b038d16906370a0823190602401602060405180830381865afa1580156119a5573d6000803e3d6000fd5b505050506040513d601f19601f820116820180604052508101906119c991906120b7565b6119d391906121b4565b6001600160a01b038c169190611b0e565b50505050505050505050565b6040516001600160a01b0380851660248301528316604482015260648101829052611a5b9085906323b872dd60e01b906084015b60408051601f198184030181529190526020810180516001600160e01b03166001600160e01b031990931692909217909152611b43565b50505050565b604051636eb1769f60e11b81523060048201526001600160a01b0383811660248301526000919085169063dd62ed3e90604401602060405180830381865afa158015611ab1573d6000803e3d6000fd5b505050506040513d601f19601f82011682018060405250810190611ad591906120b7565b9050611a5b8463095ea7b360e01b85611aee868661244e565b6040516001600160a01b0390921660248301526044820152606401611a24565b6040516001600160a01b038316602482015260448101829052611b3e90849063a9059cbb60e01b90606401611a24565b505050565b6000611b98826040518060400160405280602081526020017f5361666545524332303a206c6f772d6c6576656c2063616c6c206661696c6564815250856001600160a01b0316611c189092919063ffffffff16565b9050805160001480611bb9575080806020019051810190611bb99190612461565b611b3e5760405162461bcd60e51b815260206004820152602a60248201527f5361666545524332303a204552433230206f7065726174696f6e20646964206e6044820152691bdd081cdd58d8d9595960b21b60648201526084016115ad565b6060610362848460008585600080866001600160a01b03168587604051611c3f9190612483565b60006040518083038185875af1925050503d8060008114611c7c576040519150601f19603f3d011682016040523d82523d6000602084013e611c81565b606091505b5091509150611c9287838387611c9d565b979650505050505050565b60608315611d0c578251600003611d05576001600160a01b0385163b611d055760405162461bcd60e51b815260206004820152601d60248201527f416464726573733a2063616c6c20746f206e6f6e2d636f6e747261637400000060448201526064016115ad565b5081610362565b6103628383815115611d215781518083602001fd5b8060405162461bcd60e51b81526004016115ad919061249f565b6001600160a01b0381168114611d5057600080fd5b50565b600080600060608486031215611d6857600080fd5b8335611d7381611d3b565b92506020840135611d8381611d3b565b91506040840135600281900b8114611d9a57600080fd5b809150509250925092565b600080600080600060a08688031215611dbd57600080fd5b8535611dc881611d3b565b94506020860135611dd881611d3b565b935060408601359250606086013591506080860135611df681611d3b565b809150509295509295909350565b803562ffffff81168114611e1757600080fd5b919050565b60008060008060008060c08789031215611e3557600080fd5b8635611e4081611d3b565b95506020870135611e5081611d3b565b9450611e5e60408801611e04565b9350606087013592506080870135915060a0870135611e7c81611d3b565b809150509295509295509295565b60008060408385031215611e9d57600080fd5b8235611ea881611d3b565b91506020830135611eb881611d3b565b809150509250929050565b600081518084526020808501945080840160005b83811015611efc5781516001600160a01b031687529582019590820190600101611ed7565b509495945050505050565b604081526000611f1a6040830185611ec3565b82810360208481019190915284518083528582019282019060005b81811015611f5157845183529383019391830191600101611f35565b5090979650505050505050565b600080600080600080600060e0888a031215611f7957600080fd5b8735611f8481611d3b565b96506020880135611f9481611d3b565b955060408801359450606088013593506080880135925060a0880135611fb981611d3b565b8092505060c0880135905092959891949750929550565b600080600060608486031215611fe557600080fd5b8335611ff081611d3b565b9250602084013561200081611d3b565b915061200e60408501611e04565b90509250925092565b600080600080600080600080610100898b03121561203457600080fd5b883561203f81611d3b565b9750602089013561204f81611d3b565b965060408901359550606089013594506080890135935060a0890135925060c089013561207b81611d3b565b8092505060e089013590509295985092959890939650565b6000602082840312156120a557600080fd5b81516120b081611d3b565b9392505050565b6000602082840312156120c957600080fd5b5051919050565b634e487b7160e01b600052604160045260246000fd5b634e487b7160e01b600052603260045260246000fd5b600060a0820187835260208781850152604060a08186015282885180855260c087019150838a01945060005b8181101561217257855180516001600160a01b0390811685528682015181168786015285820151151586860152606091820151169084015294840194608090920191600101612128565b50506001600160a01b0388166060870152935061218e92505050565b8260808301529695505050505050565b634e487b7160e01b600052601160045260246000fd5b81810381811115610dad57610dad61219e565b60005b838110156121e25781810151838201526020016121ca565b50506000910152565b600081518084526122038160208601602086016121c7565b601f01601f19169290920160200192915050565b60018060a01b038616815284602082015283604082015260a06060820152600061224460a08301856121eb565b905082151560808301529695505050505050565b60608152600061226b60608301866121eb565b6020838203818501528186518084528284019150828160051b85010183890160005b838110156122bb57601f198784030185526122a98383516121eb565b9486019492509085019060010161228d565b50508095505050505050826040830152949350505050565b85815284602082015260a0604082015260006122f260a0830186611ec3565b6001600160a01b0394909416606083015250608001529392505050565b6000602080838503121561232257600080fd5b825167ffffffffffffffff8082111561233a57600080fd5b818501915085601f83011261234e57600080fd5b815181811115612360576123606120d0565b8060051b604051601f19603f83011681018181108582111715612385576123856120d0565b6040529182528482019250838101850191888311156123a357600080fd5b938501935b828510156106c4578451845293850193928501926123a8565b6001600160a01b03938416815291909216602082015262ffffff909116604082015260600190565b602081526000610daa6020830184611ec3565b6000806040838503121561240f57600080fd5b505080516020909101519092909150565b60008060006060848603121561243557600080fd5b8351925060208401519150604084015190509250925092565b80820180821115610dad57610dad61219e565b60006020828403121561247357600080fd5b815180151581146120b057600080fd5b600082516124958184602087016121c7565b9190910192915050565b602081526000610daa60208301846121eb56fea26469706673582212205cfee262c9f1e3c29a9f33fcb6389ed4a9b4e9aa29cbe3a6877f0176a149b62864736f6c63430008130033","linkReferences":{}},"methodIdentifiers":{"ASYNC_INITIALIZE()":"c3749ae5","V2_ROUTER()":"8ada032e","V3_ROUTER()":"a1119856","V3_TWAP_UTILS()":"f191c16a","WETH()":"ad5c4648","addLiquidity(address,address,uint256,uint256,uint256,uint256,address,uint256)":"e8e33700","createV2Pool(address,address)":"c4f3e9d7","extraRewardsHook(address,address)":"a20e9a55","getV2Pool(address,address)":"9f4f9745","getV3Pool(address,address,int24)":"0a8e060f","getV3Pool(address,address,uint24)":"e3ddd779","removeLiquidity(address,address,uint256,uint256,uint256,address,uint256)":"baa2abde","swapV2Single(address,address,uint256,uint256,address)":"83e4b89f","swapV2SingleExactOut(address,address,uint256,uint256,address)":"9a8fadee","swapV3Single(address,address,uint24,uint256,uint256,address)":"8d5752d6"},"id":19}