{"abi":[{"type":"constructor","inputs":[{"name":"_v3TwapUtilities","type":"address","internalType":"contract IV3TwapUtilities"},{"name":"_dexAdapter","type":"address","internalType":"contract IDexAdapter"},{"name":"_V3_ROUTER","type":"address","internalType":"address"}],"stateMutability":"nonpayable"},{"type":"receive","stateMutability":"payable"},{"type":"function","name":"OHM","inputs":[],"outputs":[{"name":"","type":"address","internalType":"address"}],"stateMutability":"view"},{"type":"function","name":"curveTokenIdx","inputs":[{"name":"","type":"address","internalType":"address"},{"name":"","type":"address","internalType":"address"}],"outputs":[{"name":"","type":"int128","internalType":"int128"}],"stateMutability":"view"},{"type":"function","name":"owner","inputs":[],"outputs":[{"name":"","type":"address","internalType":"address"}],"stateMutability":"view"},{"type":"function","name":"pOHM","inputs":[],"outputs":[{"name":"","type":"address","internalType":"address"}],"stateMutability":"view"},{"type":"function","name":"renounceOwnership","inputs":[],"outputs":[],"stateMutability":"nonpayable"},{"type":"function","name":"rescueERC20","inputs":[{"name":"_token","type":"address","internalType":"contract IERC20"}],"outputs":[],"stateMutability":"nonpayable"},{"type":"function","name":"rescueETH","inputs":[],"outputs":[],"stateMutability":"nonpayable"},{"type":"function","name":"setOHM","inputs":[{"name":"_OHM","type":"address","internalType":"address"},{"name":"_pOHM","type":"address","internalType":"address"}],"outputs":[],"stateMutability":"nonpayable"},{"type":"function","name":"setSlippage","inputs":[{"name":"_slip","type":"uint256","internalType":"uint256"}],"outputs":[],"stateMutability":"nonpayable"},{"type":"function","name":"setZapMap","inputs":[{"name":"_in","type":"address","internalType":"address"},{"name":"_out","type":"address","internalType":"address"},{"name":"_pools","type":"tuple","internalType":"struct IZapper.Pools","components":[{"name":"poolType","type":"uint8","internalType":"enum IZapper.PoolType"},{"name":"pool1","type":"address","internalType":"address"},{"name":"pool2","type":"address","internalType":"address"}]}],"outputs":[],"stateMutability":"nonpayable"},{"type":"function","name":"setZapMapFromPoolSingle","inputs":[{"name":"_type","type":"uint8","internalType":"enum IZapper.PoolType"},{"name":"_pool","type":"address","internalType":"address"}],"outputs":[],"stateMutability":"nonpayable"},{"type":"function","name":"transferOwnership","inputs":[{"name":"newOwner","type":"address","internalType":"address"}],"outputs":[],"stateMutability":"nonpayable"},{"type":"function","name":"zapMap","inputs":[{"name":"","type":"address","internalType":"address"},{"name":"","type":"address","internalType":"address"}],"outputs":[{"name":"poolType","type":"uint8","internalType":"enum IZapper.PoolType"},{"name":"pool1","type":"address","internalType":"address"},{"name":"pool2","type":"address","internalType":"address"}],"stateMutability":"view"},{"type":"event","name":"Message","inputs":[{"name":"a","type":"string","indexed":false,"internalType":"string"}],"anonymous":false},{"type":"event","name":"OwnershipTransferred","inputs":[{"name":"previousOwner","type":"address","indexed":true,"internalType":"address"},{"name":"newOwner","type":"address","indexed":true,"internalType":"address"}],"anonymous":false}],"bytecode":{"object":"0x610100604052601e600255600380546001600160a01b0319167364aa3364f17a4d01c6f1751fd97c2bd3d7e7f1d51790553480156200003d57600080fd5b50604051620012db380380620012db833981016040819052620000609162000236565b6200006b33620001cd565b816001600160a01b0316638ada032e6040518163ffffffff1660e01b8152600401602060405180830381865afa158015620000aa573d6000803e3d6000fd5b505050506040513d601f19601f82011682018060405250810190620000d091906200028a565b6001600160a01b0390811660805283811660c052821660e0819052604080516315ab88c960e31b8152905163ad5c4648916004808201926020929091908290030181865afa15801562000127573d6000803e3d6000fd5b505050506040513d601f19601f820116820180604052508101906200014d91906200028a565b6001600160a01b0390811660a052600180549183166001600160a01b03199092169190911790556040517f51a7f65c6325882f237d4aeb43228179cfad48b868511d508e24b4437a81913790620001bc906020808252600490820152634865726560e01b604082015260600190565b60405180910390a1505050620002b1565b600080546001600160a01b038381166001600160a01b0319831681178455604051919092169283917f8be0079c531659141344cd1fd0a4f28419497f9722a3daafe3b4186f6b6457e09190a35050565b6001600160a01b03811681146200023357600080fd5b50565b6000806000606084860312156200024c57600080fd5b835162000259816200021d565b60208501519093506200026c816200021d565b60408501519092506200027f816200021d565b809150509250925092565b6000602082840312156200029d57600080fd5b8151620002aa816200021d565b9392505050565b60805160a05160c05160e051610ffc620002df60003960005050600050506000505060005050610ffc6000f3fe6080604052600436106100c65760003560e01c80638da5cb5b1161007f578063ccec371611610059578063ccec371614610223578063e42f534314610243578063f0fa55a9146102a8578063f2fde38b146102c857600080fd5b80638da5cb5b146101b1578063a6c41fec146101e3578063ae7eb6461461020357600080fd5b8063205b7d03146100d257806320800a00146100f457806338e781111461010957806353eedc6714610129578063715018a614610149578063816846c81461015e57600080fd5b366100cd57005b600080fd5b3480156100de57600080fd5b506100f26100ed366004610d43565b6102e8565b005b34801561010057600080fd5b506100f261036c565b34801561011557600080fd5b506100f2610124366004610d90565b6103d7565b34801561013557600080fd5b506100f2610144366004610dac565b6103ed565b34801561015557600080fd5b506100f2610488565b34801561016a57600080fd5b50610199610179366004610d43565b6006602090815260009283526040808420909152908252902054600f0b81565b604051600f9190910b81526020015b60405180910390f35b3480156101bd57600080fd5b506000546001600160a01b03165b6040516001600160a01b0390911681526020016101a8565b3480156101ef57600080fd5b506003546101cb906001600160a01b031681565b34801561020f57600080fd5b506004546101cb906001600160a01b031681565b34801561022f57600080fd5b506100f261023e366004610e68565b61049c565b34801561024f57600080fd5b5061029961025e366004610d43565b60056020908152600092835260408084209091529082529020805460019091015460ff8216916001600160a01b036101009091048116911683565b6040516101a893929190610ea2565b3480156102b457600080fd5b506100f26102c3366004610ee2565b6105a7565b3480156102d457600080fd5b506100f26102e3366004610e68565b6105f4565b6102f061066a565b6001600160a01b038216156103055781610312565b6003546001600160a01b03165b600380546001600160a01b0319166001600160a01b0392831617905581161561033b5780610348565b6004546001600160a01b03165b600480546001600160a01b0319166001600160a01b03929092169190911790555050565b61037461066a565b600080546040516001600160a01b039091169047908381818185875af1925050503d80600081146103c1576040519150601f19603f3d011682016040523d82523d6000602084013e6103c6565b606091505b50509050806103d457600080fd5b50565b6103df61066a565b6103e982826106c4565b5050565b6103f561066a565b6001600160a01b0380841660009081526005602090815260408083209386168352929052208151815483929190829060ff1916600183600281111561043c5761043c610e8c565b021790555060208201518154610100600160a81b0319166101006001600160a01b0392831602178255604090920151600190910180546001600160a01b03191691909216179055505050565b61049061066a565b61049a6000610a22565b565b6104a461066a565b6040516370a0823160e01b81523060048201526000906001600160a01b038316906370a0823190602401602060405180830381865afa1580156104eb573d6000803e3d6000fd5b505050506040513d601f19601f8201168201806040525081019061050f9190610efb565b1161051957600080fd5b6103d461052e6000546001600160a01b031690565b6040516370a0823160e01b81523060048201526001600160a01b038416906370a0823190602401602060405180830381865afa158015610572573d6000803e3d6000fd5b505050506040513d601f19601f820116820180604052508101906105969190610efb565b6001600160a01b0384169190610a72565b6105af61066a565b6103e88111156105ef5760405162461bcd60e51b8152602060048201526006602482015265424f554e445360d01b60448201526064015b60405180910390fd5b600255565b6105fc61066a565b6001600160a01b0381166106615760405162461bcd60e51b815260206004820152602660248201527f4f776e61626c653a206e6577206f776e657220697320746865207a65726f206160448201526564647265737360d01b60648201526084016105e6565b6103d481610a22565b6000546001600160a01b0316331461049a5760405162461bcd60e51b815260206004820181905260248201527f4f776e61626c653a2063616c6c6572206973206e6f7420746865206f776e657260448201526064016105e6565b600080808460028111156106da576106da610e8c565b036108115760405163c661065760e01b8152600060048201526001600160a01b0384169063c6610657906024016020604051808303816000875af1158015610726573d6000803e3d6000fd5b505050506040513d601f19601f8201168201806040525081019061074a9190610f14565b60405163c661065760e01b8152600160048201529092506001600160a01b0384169063c6610657906024016020604051808303816000875af1158015610794573d6000803e3d6000fd5b505050506040513d601f19601f820116820180604052508101906107b89190610f14565b6001600160a01b038481166000908152600660209081526040808320878516845290915280822080546fffffffffffffffffffffffffffffffff19908116909155928416825290208054909116600117905590506108da565b826001600160a01b0316630dfe16816040518163ffffffff1660e01b8152600401602060405180830381865afa15801561084f573d6000803e3d6000fd5b505050506040513d601f19601f820116820180604052508101906108739190610f14565b9150826001600160a01b031663d21220a76040518163ffffffff1660e01b8152600401602060405180830381865afa1580156108b3573d6000803e3d6000fd5b505050506040513d601f19601f820116820180604052508101906108d79190610f14565b90505b600060405180606001604052808660028111156108f9576108f9610e8c565b81526001600160a01b0380871660208084019190915260006040938401819052878316815260058252838120928716815291905220815181549293508392829060ff1916600183600281111561095157610951610e8c565b02179055506020828101518254610100600160a81b0319166101006001600160a01b0392831602178355604093840151600193840180546001600160a01b0319169183169190911790558581166000908152600583528481209188168152915291909120825181548493839160ff1916908360028111156109d4576109d4610e8c565b021790555060208201518154610100600160a81b0319166101006001600160a01b0392831602178255604090920151600190910180546001600160a01b031916919092161790555050505050565b600080546001600160a01b038381166001600160a01b0319831681178455604051919092169283917f8be0079c531659141344cd1fd0a4f28419497f9722a3daafe3b4186f6b6457e09190a35050565b604080516001600160a01b038416602482015260448082018490528251808303909101815260649091019091526020810180516001600160e01b031663a9059cbb60e01b179052610ac4908490610ac9565b505050565b6000610b1e826040518060400160405280602081526020017f5361666545524332303a206c6f772d6c6576656c2063616c6c206661696c6564815250856001600160a01b0316610b9e9092919063ffffffff16565b9050805160001480610b3f575080806020019051810190610b3f9190610f31565b610ac45760405162461bcd60e51b815260206004820152602a60248201527f5361666545524332303a204552433230206f7065726174696f6e20646964206e6044820152691bdd081cdd58d8d9595960b21b60648201526084016105e6565b6060610bad8484600085610bb5565b949350505050565b606082471015610c165760405162461bcd60e51b815260206004820152602660248201527f416464726573733a20696e73756666696369656e742062616c616e636520666f6044820152651c8818d85b1b60d21b60648201526084016105e6565b600080866001600160a01b03168587604051610c329190610f77565b60006040518083038185875af1925050503d8060008114610c6f576040519150601f19603f3d011682016040523d82523d6000602084013e610c74565b606091505b5091509150610c8587838387610c90565b979650505050505050565b60608315610cff578251600003610cf8576001600160a01b0385163b610cf85760405162461bcd60e51b815260206004820152601d60248201527f416464726573733a2063616c6c20746f206e6f6e2d636f6e747261637400000060448201526064016105e6565b5081610bad565b610bad8383815115610d145781518083602001fd5b8060405162461bcd60e51b81526004016105e69190610f93565b6001600160a01b03811681146103d457600080fd5b60008060408385031215610d5657600080fd5b8235610d6181610d2e565b91506020830135610d7181610d2e565b809150509250929050565b803560038110610d8b57600080fd5b919050565b60008060408385031215610da357600080fd5b610d6183610d7c565b600080600083850360a0811215610dc257600080fd5b8435610dcd81610d2e565b93506020850135610ddd81610d2e565b92506060603f1982011215610df157600080fd5b506040516060810181811067ffffffffffffffff82111715610e2357634e487b7160e01b600052604160045260246000fd5b8060405250610e3460408601610d7c565b81526060850135610e4481610d2e565b60208201526080850135610e5781610d2e565b604082015292959194509192509050565b600060208284031215610e7a57600080fd5b8135610e8581610d2e565b9392505050565b634e487b7160e01b600052602160045260246000fd5b6060810160038510610ec457634e487b7160e01b600052602160045260246000fd5b9381526001600160a01b039283166020820152911660409091015290565b600060208284031215610ef457600080fd5b5035919050565b600060208284031215610f0d57600080fd5b5051919050565b600060208284031215610f2657600080fd5b8151610e8581610d2e565b600060208284031215610f4357600080fd5b81518015158114610e8557600080fd5b60005b83811015610f6e578181015183820152602001610f56565b50506000910152565b60008251610f89818460208701610f53565b9190910192915050565b6020815260008251806020840152610fb2816040850160208701610f53565b601f01601f1916919091016040019291505056fea26469706673582212202db41220cfdebef5221817756c7d9a0e535dc4022e798673b9b2f6f18f6376de64736f6c63430008130033","linkReferences":{}},"methodIdentifiers":{"OHM()":"a6c41fec","curveTokenIdx(address,address)":"816846c8","owner()":"8da5cb5b","pOHM()":"ae7eb646","renounceOwnership()":"715018a6","rescueERC20(address)":"ccec3716","rescueETH()":"20800a00","setOHM(address,address)":"205b7d03","setSlippage(uint256)":"f0fa55a9","setZapMap(address,address,(uint8,address,address))":"53eedc67","setZapMapFromPoolSingle(uint8,address)":"38e78111","transferOwnership(address)":"f2fde38b","zapMap(address,address)":"e42f5343"},"id":139}