{"abi":[{"type":"function","name":"flashSource","inputs":[{"name":"","type":"address","internalType":"address"}],"outputs":[{"name":"","type":"address","internalType":"address"}],"stateMutability":"view"},{"type":"function","name":"lendingPairs","inputs":[{"name":"","type":"address","internalType":"address"}],"outputs":[{"name":"","type":"address","internalType":"address"}],"stateMutability":"view"},{"type":"function","name":"owner","inputs":[],"outputs":[{"name":"","type":"address","internalType":"address"}],"stateMutability":"view"},{"type":"function","name":"renounceOwnership","inputs":[],"outputs":[],"stateMutability":"nonpayable"},{"type":"function","name":"setFlashSource","inputs":[{"name":"_pod","type":"address","internalType":"address"},{"name":"_flashSource","type":"address","internalType":"address"}],"outputs":[],"stateMutability":"nonpayable"},{"type":"function","name":"setLendingPair","inputs":[{"name":"_pod","type":"address","internalType":"address"},{"name":"_pair","type":"address","internalType":"address"}],"outputs":[],"stateMutability":"nonpayable"},{"type":"function","name":"transferOwnership","inputs":[{"name":"newOwner","type":"address","internalType":"address"}],"outputs":[],"stateMutability":"nonpayable"},{"type":"event","name":"OwnershipTransferred","inputs":[{"name":"previousOwner","type":"address","indexed":true,"internalType":"address"},{"name":"newOwner","type":"address","indexed":true,"internalType":"address"}],"anonymous":false}],"bytecode":{"object":"0x608060405234801561001057600080fd5b5061001a3361001f565b61006f565b600080546001600160a01b038381166001600160a01b0319831681178455604051919092169283917f8be0079c531659141344cd1fd0a4f28419497f9722a3daafe3b4186f6b6457e09190a35050565b6105208061007e6000396000f3fe608060405234801561001057600080fd5b506004361061007d5760003560e01c80635ba034ba1161005b5780635ba034ba146100ef578063715018a6146101185780638da5cb5b14610120578063f2fde38b1461013157600080fd5b80631656118b1461008257806347efda2a146100975780635645e39c146100dc575b600080fd5b610095610090366004610470565b610144565b005b6100c06100a53660046104a9565b6001602052600090815260409020546001600160a01b031681565b6040516001600160a01b03909116815260200160405180910390f35b6100956100ea366004610470565b610236565b6100c06100fd3660046104a9565b6002602052600090815260409020546001600160a01b031681565b610095610324565b6000546001600160a01b03166100c0565b61009561013f3660046104a9565b610338565b61014c6103b1565b6001600160a01b038116156102085760006001600160a01b0316816001600160a01b031663c6e1c7c96040518163ffffffff1660e01b8152600401602060405180830381865afa1580156101a4573d6000803e3d6000fd5b505050506040513d601f19601f820116820180604052508101906101c891906104cd565b6001600160a01b0316036102085760405162461bcd60e51b815260206004820152600260248201526120ab60f11b60448201526064015b60405180910390fd5b6001600160a01b03918216600090815260016020526040902080546001600160a01b03191691909216179055565b61023e6103b1565b6001600160a01b038116156102f65760006001600160a01b0316816001600160a01b03166367e828bf6040518163ffffffff1660e01b8152600401602060405180830381865afa158015610296573d6000803e3d6000fd5b505050506040513d601f19601f820116820180604052508101906102ba91906104cd565b6001600160a01b0316036102f65760405162461bcd60e51b815260206004820152600360248201526241465360e81b60448201526064016101ff565b6001600160a01b03918216600090815260026020526040902080546001600160a01b03191691909216179055565b61032c6103b1565b610336600061040b565b565b6103406103b1565b6001600160a01b0381166103a55760405162461bcd60e51b815260206004820152602660248201527f4f776e61626c653a206e6577206f776e657220697320746865207a65726f206160448201526564647265737360d01b60648201526084016101ff565b6103ae8161040b565b50565b6000546001600160a01b031633146103365760405162461bcd60e51b815260206004820181905260248201527f4f776e61626c653a2063616c6c6572206973206e6f7420746865206f776e657260448201526064016101ff565b600080546001600160a01b038381166001600160a01b0319831681178455604051919092169283917f8be0079c531659141344cd1fd0a4f28419497f9722a3daafe3b4186f6b6457e09190a35050565b6001600160a01b03811681146103ae57600080fd5b6000806040838503121561048357600080fd5b823561048e8161045b565b9150602083013561049e8161045b565b809150509250929050565b6000602082840312156104bb57600080fd5b81356104c68161045b565b9392505050565b6000602082840312156104df57600080fd5b81516104c68161045b56fea264697066735822122040249168e76ba5c955bf1565b866ad72a680f0b4a082861cc6c7a3c80122a6c264736f6c63430008130033","linkReferences":{}},"methodIdentifiers":{"flashSource(address)":"5ba034ba","lendingPairs(address)":"47efda2a","owner()":"8da5cb5b","renounceOwnership()":"715018a6","setFlashSource(address,address)":"5645e39c","setLendingPair(address,address)":"1656118b","transferOwnership(address)":"f2fde38b"},"id":86}