{"abi":[{"type":"constructor","inputs":[{"name":"_peasStablePool","type":"address","internalType":"address"},{"name":"_utils","type":"address","internalType":"contract IV3TwapUtilities"}],"stateMutability":"nonpayable"},{"type":"function","name":"getConversionFactor","inputs":[{"name":"_spTKN","type":"address","internalType":"address"}],"outputs":[{"name":"_factor","type":"uint256","internalType":"uint256"},{"name":"_denomenator","type":"uint256","internalType":"uint256"}],"stateMutability":"view"}],"bytecode":{"object":"0x60c060405234801561001057600080fd5b50604051610c93380380610c9383398101604081905261002f9161005e565b6001600160a01b039182166080521660a052610098565b6001600160a01b038116811461005b57600080fd5b50565b6000806040838503121561007157600080fd5b825161007c81610046565b602084015190925061008d81610046565b809150509250929050565b60805160a051610bc86100cb600039600081816101ff015261028f01526000818161013a01526101d10152610bc86000f3fe608060405234801561001057600080fd5b506004361061002b5760003560e01c8063e73f763414610030575b600080fd5b61004361003e3660046107bc565b61005c565b6040805192835260208301919091520160405180910390f35b6000806000806100cc856001600160a01b031663aa9aa1446040518163ffffffff1660e01b8152600401602060405180830381865afa1580156100a3573d6000803e3d6000fd5b505050506040513d601f19601f820116820180604052508101906100c791906107e0565b6104a2565b915091506000856001600160a01b03166372f702f36040518163ffffffff1660e01b8152600401602060405180830381865afa158015610110573d6000803e3d6000fd5b505050506040513d601f19601f8201168201806040525081019061013491906107e0565b905060007f00000000000000000000000000000000000000000000000000000000000000006001600160a01b031663d21220a76040518163ffffffff1660e01b8152600401602060405180830381865afa158015610196573d6000803e3d6000fd5b505050506040513d601f19601f820116820180604052508101906101ba91906107e0565b604051637fb4f79d60e01b81526001600160a01b037f0000000000000000000000000000000000000000000000000000000000000000811660048301529192506000917f00000000000000000000000000000000000000000000000000000000000000001690637fb4f79d90602401602060405180830381865afa158015610246573d6000803e3d6000fd5b505050506040513d601f19601f8201168201806040525081019061026a91906107e0565b60405163352fc4cd60e21b81526001600160a01b0380831660048301529192506000917f0000000000000000000000000000000000000000000000000000000000000000169063d4bf133490602401602060405180830381865afa1580156102d6573d6000803e3d6000fd5b505050506040513d601f19601f820116820180604052508101906102fa91906107fd565b905060006001600160a01b0384167302f92800f57bcd74066f5709f1daa1a4302df8751461034157816103326002600160601b610912565b61033c9190610921565b610343565b815b90506000866103528984610943565b61035c9190610921565b9050600080876001600160a01b0316630902f1ac6040518163ffffffff1660e01b8152600401608060405180830381865afa15801561039f573d6000803e3d6000fd5b505050506040513d601f19601f820116820180604052508101906103c39190610988565b5050915091506000816001600160701b0316836001600160701b03166103e99190610943565b905060006103ff6103fa8387610943565b61074b565b610410906601000000000000610943565b9050896001600160a01b03166318160ddd6040518163ffffffff1660e01b8152600401602060405180830381865afa158015610450573d6000803e3d6000fd5b505050506040513d601f19601f8201168201806040525081019061047491906107fd565b61047f826002610943565b6104899190610921565b9f600160601b9f509d5050505050505050505050505050565b6000806000670de0b6b3a764000090506000846001600160a01b0316632acada4d6040518163ffffffff1660e01b8152600401600060405180830381865afa1580156104f2573d6000803e3d6000fd5b505050506040513d6000823e601f3d908101601f1916820160405261051a9190810190610a4c565b905060008160008151811061053157610531610b46565b6020908102919091010151516040516370a0823160e01b81526001600160a01b038881166004830152909116906370a0823190602401602060405180830381865afa158015610584573d6000803e3d6000fd5b505050506040513d601f19601f820116820180604052508101906105a891906107fd565b90506000866001600160a01b03166318160ddd6040518163ffffffff1660e01b8152600401602060405180830381865afa1580156105ea573d6000803e3d6000fd5b505050506040513d601f19601f8201168201806040525081019061060e91906107fd565b9050801561073c578260008151811061062957610629610b46565b6020026020010151600001516001600160a01b031663313ce5676040518163ffffffff1660e01b8152600401602060405180830381865afa158015610672573d6000803e3d6000fd5b505050506040513d601f19601f820116820180604052508101906106969190610b5c565b6106a190600a610912565b81886001600160a01b031663313ce5676040518163ffffffff1660e01b8152600401602060405180830381865afa1580156106e0573d6000803e3d6000fd5b505050506040513d601f19601f820116820180604052508101906107049190610b5c565b61070f90600a610912565b6107198588610943565b6107239190610943565b61072d9190610921565b6107379190610921565b61073e565b835b9793965092945050505050565b600080600261075b846001610b7f565b6107659190610921565b90508291505b8181101561079e579050806002816107838186610921565b61078d9190610b7f565b6107979190610921565b905061076b565b50919050565b6001600160a01b03811681146107b957600080fd5b50565b6000602082840312156107ce57600080fd5b81356107d9816107a4565b9392505050565b6000602082840312156107f257600080fd5b81516107d9816107a4565b60006020828403121561080f57600080fd5b5051919050565b634e487b7160e01b600052601160045260246000fd5b600181815b8085111561086757816000190482111561084d5761084d610816565b8085161561085a57918102915b93841c9390800290610831565b509250929050565b60008261087e5750600161090c565b8161088b5750600061090c565b81600181146108a157600281146108ab576108c7565b600191505061090c565b60ff8411156108bc576108bc610816565b50506001821b61090c565b5060208310610133831016604e8410600b84101617156108ea575081810a61090c565b6108f4838361082c565b806000190482111561090857610908610816565b0290505b92915050565b60006107d960ff84168361086f565b60008261093e57634e487b7160e01b600052601260045260246000fd5b500490565b808202811582820484141761090c5761090c610816565b80516001600160701b038116811461097157600080fd5b919050565b805161ffff8116811461097157600080fd5b6000806000806080858703121561099e57600080fd5b6109a78561095a565b93506109b56020860161095a565b92506109c360408601610976565b91506109d160608601610976565b905092959194509250565b634e487b7160e01b600052604160045260246000fd5b60405160a0810167ffffffffffffffff81118282101715610a1557610a156109dc565b60405290565b604051601f8201601f1916810167ffffffffffffffff81118282101715610a4457610a446109dc565b604052919050565b60006020808385031215610a5f57600080fd5b825167ffffffffffffffff80821115610a7757600080fd5b818501915085601f830112610a8b57600080fd5b815181811115610a9d57610a9d6109dc565b610aab848260051b01610a1b565b818152848101925060a0918202840185019188831115610aca57600080fd5b938501935b82851015610b3a5780858a031215610ae75760008081fd5b610aef6109f2565b8551610afa816107a4565b8152858701518782015260408087015190820152606080870151610b1d816107a4565b908201526080868101519082015284529384019392850192610acf565b50979650505050505050565b634e487b7160e01b600052603260045260246000fd5b600060208284031215610b6e57600080fd5b815160ff811681146107d957600080fd5b8082018082111561090c5761090c61081656fea26469706673582212202497d9e0d81880866555668c8472aef9d89133582fc63df6de20a694309e0ba464736f6c63430008130033","linkReferences":{}},"methodIdentifiers":{"getConversionFactor(address)":"e73f7634"},"id":104}