{"abi":[{"type":"constructor","inputs":[{"name":"_pairedLpToken","type":"address","internalType":"address"},{"name":"_rewardsToken","type":"address","internalType":"address"},{"name":"_feeRouter","type":"address","internalType":"contract IProtocolFeeRouter"},{"name":"_rewardsWhitelist","type":"address","internalType":"contract IRewardsWhitelister"},{"name":"_dexHandler","type":"address","internalType":"contract IDexAdapter"},{"name":"_v3TwapUtilities","type":"address","internalType":"contract IV3TwapUtilities"}],"stateMutability":"nonpayable"},{"type":"function","name":"REWARDS","inputs":[],"outputs":[{"name":"","type":"address","internalType":"address"}],"stateMutability":"view"},{"type":"function","name":"addOrUpdateAsset","inputs":[{"name":"_asset","type":"address","internalType":"address"},{"name":"_convFactor","type":"address","internalType":"contract IStakingConversionFactor"},{"name":"_enabled","type":"bool","internalType":"bool"}],"outputs":[],"stateMutability":"nonpayable"},{"type":"function","name":"allowance","inputs":[{"name":"owner","type":"address","internalType":"address"},{"name":"spender","type":"address","internalType":"address"}],"outputs":[{"name":"","type":"uint256","internalType":"uint256"}],"stateMutability":"view"},{"type":"function","name":"approve","inputs":[{"name":"spender","type":"address","internalType":"address"},{"name":"amount","type":"uint256","internalType":"uint256"}],"outputs":[{"name":"","type":"bool","internalType":"bool"}],"stateMutability":"nonpayable"},{"type":"function","name":"assets","inputs":[{"name":"","type":"address","internalType":"address"}],"outputs":[{"name":"enabled","type":"bool","internalType":"bool"},{"name":"convFactor","type":"address","internalType":"contract IStakingConversionFactor"}],"stateMutability":"view"},{"type":"function","name":"balanceOf","inputs":[{"name":"account","type":"address","internalType":"address"}],"outputs":[{"name":"","type":"uint256","internalType":"uint256"}],"stateMutability":"view"},{"type":"function","name":"decimals","inputs":[],"outputs":[{"name":"","type":"uint8","internalType":"uint8"}],"stateMutability":"view"},{"type":"function","name":"decreaseAllowance","inputs":[{"name":"spender","type":"address","internalType":"address"},{"name":"subtractedValue","type":"uint256","internalType":"uint256"}],"outputs":[{"name":"","type":"bool","internalType":"bool"}],"stateMutability":"nonpayable"},{"type":"function","name":"disableAsset","inputs":[{"name":"_asset","type":"address","internalType":"address"}],"outputs":[],"stateMutability":"nonpayable"},{"type":"function","name":"enableAsset","inputs":[{"name":"_asset","type":"address","internalType":"address"}],"outputs":[],"stateMutability":"nonpayable"},{"type":"function","name":"increaseAllowance","inputs":[{"name":"spender","type":"address","internalType":"address"},{"name":"addedValue","type":"uint256","internalType":"uint256"}],"outputs":[{"name":"","type":"bool","internalType":"bool"}],"stateMutability":"nonpayable"},{"type":"function","name":"lockupPeriod","inputs":[],"outputs":[{"name":"","type":"uint256","internalType":"uint256"}],"stateMutability":"view"},{"type":"function","name":"name","inputs":[],"outputs":[{"name":"","type":"string","internalType":"string"}],"stateMutability":"view"},{"type":"function","name":"owner","inputs":[],"outputs":[{"name":"","type":"address","internalType":"address"}],"stateMutability":"view"},{"type":"function","name":"processPreSwapFeesAndSwap","inputs":[],"outputs":[],"stateMutability":"nonpayable"},{"type":"function","name":"renounceOwnership","inputs":[],"outputs":[],"stateMutability":"nonpayable"},{"type":"function","name":"setLockupPeriod","inputs":[{"name":"_newLockup","type":"uint256","internalType":"uint256"}],"outputs":[],"stateMutability":"nonpayable"},{"type":"function","name":"stake","inputs":[{"name":"_asset","type":"address","internalType":"address"},{"name":"_amount","type":"uint256","internalType":"uint256"}],"outputs":[],"stateMutability":"nonpayable"},{"type":"function","name":"stakes","inputs":[{"name":"","type":"address","internalType":"address"},{"name":"","type":"address","internalType":"address"}],"outputs":[{"name":"amtStaked","type":"uint256","internalType":"uint256"},{"name":"stakedToOutputFactor","type":"uint256","internalType":"uint256"},{"name":"stakedToOutputDenomenator","type":"uint256","internalType":"uint256"},{"name":"lastStaked","type":"uint256","internalType":"uint256"}],"stateMutability":"view"},{"type":"function","name":"symbol","inputs":[],"outputs":[{"name":"","type":"string","internalType":"string"}],"stateMutability":"view"},{"type":"function","name":"totalSupply","inputs":[],"outputs":[{"name":"","type":"uint256","internalType":"uint256"}],"stateMutability":"view"},{"type":"function","name":"transfer","inputs":[{"name":"to","type":"address","internalType":"address"},{"name":"amount","type":"uint256","internalType":"uint256"}],"outputs":[{"name":"","type":"bool","internalType":"bool"}],"stateMutability":"nonpayable"},{"type":"function","name":"transferFrom","inputs":[{"name":"from","type":"address","internalType":"address"},{"name":"to","type":"address","internalType":"address"},{"name":"amount","type":"uint256","internalType":"uint256"}],"outputs":[{"name":"","type":"bool","internalType":"bool"}],"stateMutability":"nonpayable"},{"type":"function","name":"transferOwnership","inputs":[{"name":"newOwner","type":"address","internalType":"address"}],"outputs":[],"stateMutability":"nonpayable"},{"type":"function","name":"unstake","inputs":[{"name":"_asset","type":"address","internalType":"address"},{"name":"_amount","type":"uint256","internalType":"uint256"}],"outputs":[],"stateMutability":"nonpayable"},{"type":"function","name":"update","inputs":[{"name":"_user","type":"address","internalType":"address"},{"name":"_asset","type":"address","internalType":"address"}],"outputs":[{"name":"_convFctr","type":"uint256","internalType":"uint256"},{"name":"_convDenom","type":"uint256","internalType":"uint256"}],"stateMutability":"nonpayable"},{"type":"event","name":"AddStake","inputs":[{"name":"user","type":"address","indexed":true,"internalType":"address"},{"name":"asset","type":"address","indexed":false,"internalType":"address"},{"name":"amount","type":"uint256","indexed":false,"internalType":"uint256"}],"anonymous":false},{"type":"event","name":"Approval","inputs":[{"name":"owner","type":"address","indexed":true,"internalType":"address"},{"name":"spender","type":"address","indexed":true,"internalType":"address"},{"name":"value","type":"uint256","indexed":false,"internalType":"uint256"}],"anonymous":false},{"type":"event","name":"OwnershipTransferred","inputs":[{"name":"previousOwner","type":"address","indexed":true,"internalType":"address"},{"name":"newOwner","type":"address","indexed":true,"internalType":"address"}],"anonymous":false},{"type":"event","name":"Transfer","inputs":[{"name":"from","type":"address","indexed":true,"internalType":"address"},{"name":"to","type":"address","indexed":true,"internalType":"address"},{"name":"value","type":"uint256","indexed":false,"internalType":"uint256"}],"anonymous":false},{"type":"event","name":"Unstake","inputs":[{"name":"user","type":"address","indexed":true,"internalType":"address"},{"name":"asset","type":"address","indexed":false,"internalType":"address"},{"name":"amountBurned","type":"uint256","indexed":false,"internalType":"uint256"},{"name":"amountAsset","type":"uint256","indexed":false,"internalType":"uint256"}],"anonymous":false},{"type":"event","name":"Update","inputs":[{"name":"user","type":"address","indexed":true,"internalType":"address"},{"name":"asset","type":"address","indexed":false,"internalType":"address"},{"name":"conversionFactor","type":"uint256","indexed":false,"internalType":"uint256"},{"name":"conversionDenomenator","type":"uint256","indexed":false,"internalType":"uint256"}],"anonymous":false}],"bytecode":{"object":"0x60a060405262093a806006553480156200001857600080fd5b5060405162004571380380620045718339810160408190526200003b91620001cf565b6040518060400160405280600e81526020016d506561706f647320566f74696e6760901b81525060405180604001604052806006815260200165766c5045415360d01b815250816003908162000092919062000308565b506004620000a1828262000308565b505050620000be620000b86200015260201b60201c565b62000156565b83838383308a308b604051620000d490620001a8565b6001600160a01b0398891681529688166020880152948716604087015292861660608601529085166080850152841660a0840152831660c083015290911660e082015261010001604051809103906000f08015801562000138573d6000803e3d6000fd5b506001600160a01b031660805250620003d4945050505050565b3390565b600580546001600160a01b038381166001600160a01b0319831681179093556040519116919082907f8be0079c531659141344cd1fd0a4f28419497f9722a3daafe3b4186f6b6457e090600090a35050565b6126e78062001e8a83390190565b6001600160a01b0381168114620001cc57600080fd5b50565b60008060008060008060c08789031215620001e957600080fd5b8651620001f681620001b6565b60208801519096506200020981620001b6565b60408801519095506200021c81620001b6565b60608801519094506200022f81620001b6565b60808801519093506200024281620001b6565b60a08801519092506200025581620001b6565b809150509295509295509295565b634e487b7160e01b600052604160045260246000fd5b600181811c908216806200028e57607f821691505b602082108103620002af57634e487b7160e01b600052602260045260246000fd5b50919050565b601f8211156200030357600081815260208120601f850160051c81016020861015620002de5750805b601f850160051c820191505b81811015620002ff57828155600101620002ea565b5050505b505050565b81516001600160401b0381111562000324576200032462000263565b6200033c8162000335845462000279565b84620002b5565b602080601f8311600181146200037457600084156200035b5750858301515b600019600386901b1c1916600185901b178555620002ff565b600085815260208120601f198616915b82811015620003a55788860151825594840194600190910190840162000384565b5085821015620003c45787850151600019600388901b60f8161c191681555b5050505050600190811b01905550565b608051611a8c620003fe60003960008181610352015281816112a8015261135a0152611a8c6000f3fe608060405234801561001057600080fd5b506004361061018e5760003560e01c8063a4e47b66116100de578063c2a672e011610097578063dd62ed3e11610071578063dd62ed3e146103c2578063ee947a7c146103d5578063f11b8188146103de578063f2fde38b1461043057600080fd5b8063c2a672e014610374578063c640752d14610387578063c771c390146103af57600080fd5b8063a4e47b66146102b4578063a9059cbb14610314578063ab529acb14610327578063adc9772e1461033a578063bb4630271461020c578063c0034e0c1461034d57600080fd5b8063395093511161014b578063715018a611610125578063715018a61461026c5780638da5cb5b1461027457806395d89b4114610299578063a457c2d7146102a157600080fd5b8063395093511461021d578063708075281461023057806370a082311461024357600080fd5b806306fdde0314610193578063095ea7b3146101b157806318160ddd146101d457806323b872dd146101e65780632aef4024146101f9578063313ce5671461020e575b600080fd5b61019b610443565b6040516101a891906117c6565b60405180910390f35b6101c46101bf36600461180e565b6104d5565b60405190151581526020016101a8565b6002545b6040519081526020016101a8565b6101c46101f436600461183a565b6104ef565b61020c61020736600461187b565b610513565b005b604051601281526020016101a8565b6101c461022b36600461180e565b610591565b61020c61023e36600461187b565b6105b3565b6101d861025136600461187b565b6001600160a01b031660009081526020819052604090205490565b61020c610628565b6005546001600160a01b03165b6040516001600160a01b0390911681526020016101a8565b61019b61063c565b6101c46102af36600461180e565b61064b565b6102f46102c236600461189f565b600860209081526000928352604080842090915290825290208054600182015460028301546003909301549192909184565b6040805194855260208501939093529183015260608201526080016101a8565b6101c461032236600461180e565b6106c6565b61020c6103353660046118e6565b6106d4565b61020c61034836600461180e565b61073d565b6102817f000000000000000000000000000000000000000000000000000000000000000081565b61020c61038236600461180e565b610810565b61039a61039536600461189f565b610959565b604080519283526020830191909152016101a8565b61020c6103bd366004611931565b610973565b6101d86103d036600461189f565b6109b7565b6101d860065481565b6104116103ec36600461187b565b60076020526000908152604090205460ff81169061010090046001600160a01b031682565b6040805192151583526001600160a01b039091166020830152016101a8565b61020c61043e36600461187b565b6109e2565b6060600380546104529061194a565b80601f016020809104026020016040519081016040528092919081815260200182805461047e9061194a565b80156104cb5780601f106104a0576101008083540402835291602001916104cb565b820191906000526020600020905b8154815290600101906020018083116104ae57829003601f168201915b5050505050905090565b6000336104e3818585610a5b565b60019150505b92915050565b6000336104fd858285610b7f565b610508858585610bf9565b506001949350505050565b61051b610da3565b6001600160a01b03811660009081526007602052604090205460ff161561056d5760405162461bcd60e51b81526020600482015260016024820152601560fa1b60448201526064015b60405180910390fd5b6001600160a01b03166000908152600760205260409020805460ff19166001179055565b6000336104e38185856105a483836109b7565b6105ae919061199a565b610a5b565b6105bb610da3565b6001600160a01b03811660009081526007602052604090205460ff166106075760405162461bcd60e51b81526020600482015260016024820152601560fa1b6044820152606401610564565b6001600160a01b03166000908152600760205260409020805460ff19169055565b610630610da3565b61063a6000610dfd565b565b6060600480546104529061194a565b6000338161065982866109b7565b9050838110156106b95760405162461bcd60e51b815260206004820152602560248201527f45524332303a2064656372656173656420616c6c6f77616e63652062656c6f77604482015264207a65726f60d81b6064820152608401610564565b6105088286868403610a5b565b6000336104e3818585610bf9565b6106dc610da3565b60408051808201825291151582526001600160a01b0392831660208084019182529484166000908152600790955293209051815493516001600160a81b0319909416901515610100600160a81b031916176101009390921692909202179055565b600081116107715760405162461bcd60e51b81526020600482015260016024820152604160f81b6044820152606401610564565b6107866001600160a01b038316333084610e4f565b3360008181526008602090815260408083206001600160a01b03871684529091529020426003909101556107bb908383610eba565b50506107c43390565b604080516001600160a01b0385811682526020820185905292909216917fe44ffc8f4f9e4d91d97c4fa852b7ca7360f5108ec3239384e93f01a33000149f910160405180910390a25050565b600081116108445760405162461bcd60e51b81526020600482015260016024820152602960f91b6044820152606401610564565b3360009081526008602090815260408083206001600160a01b038616845290915290206006546003820154610879919061199a565b42116108ac5760405162461bcd60e51b81526020600482015260026024820152614c5560f01b6044820152606401610564565b600081600101548260020154846108c391906119ad565b6108cd91906119c4565b9050808260000160008282546108e391906119e6565b909155506108f390503384611097565b6109076001600160a01b03851633836111d5565b604080516001600160a01b038616815260208101859052808201839052905133917f18edd09e80386cd99df397e2e0d87d2bb259423eae08645e776321a36fe680ef919081900360600190a250505050565b60008061096884846000610eba565b915091509250929050565b61097b610da3565b6293a8008111156109b25760405162461bcd60e51b81526020600482015260016024820152604d60f81b6044820152606401610564565b600655565b6001600160a01b03918216600090815260016020908152604080832093909416825291909152205490565b6109ea610da3565b6001600160a01b038116610a4f5760405162461bcd60e51b815260206004820152602660248201527f4f776e61626c653a206e6577206f776e657220697320746865207a65726f206160448201526564647265737360d01b6064820152608401610564565b610a5881610dfd565b50565b6001600160a01b038316610abd5760405162461bcd60e51b8152602060048201526024808201527f45524332303a20617070726f76652066726f6d20746865207a65726f206164646044820152637265737360e01b6064820152608401610564565b6001600160a01b038216610b1e5760405162461bcd60e51b815260206004820152602260248201527f45524332303a20617070726f766520746f20746865207a65726f206164647265604482015261737360f01b6064820152608401610564565b6001600160a01b0383811660008181526001602090815260408083209487168084529482529182902085905590518481527f8c5be1e5ebec7d5bd14f71427d1e84f3dd0314c0f7b2291e5b200ac8c7c3b925910160405180910390a3505050565b6000610b8b84846109b7565b90506000198114610bf35781811015610be65760405162461bcd60e51b815260206004820152601d60248201527f45524332303a20696e73756666696369656e7420616c6c6f77616e63650000006044820152606401610564565b610bf38484848403610a5b565b50505050565b6001600160a01b038316610c5d5760405162461bcd60e51b815260206004820152602560248201527f45524332303a207472616e736665722066726f6d20746865207a65726f206164604482015264647265737360d81b6064820152608401610564565b6001600160a01b038216610cbf5760405162461bcd60e51b815260206004820152602360248201527f45524332303a207472616e7366657220746f20746865207a65726f206164647260448201526265737360e81b6064820152608401610564565b6001600160a01b03831660009081526020819052604090205481811015610d375760405162461bcd60e51b815260206004820152602660248201527f45524332303a207472616e7366657220616d6f756e7420657863656564732062604482015265616c616e636560d01b6064820152608401610564565b6001600160a01b03848116600081815260208181526040808320878703905593871680835291849020805487019055925185815290927fddf252ad1be2c89b69c2b068fc378daa952ba7f163c4a11628f55a4df523b3ef910160405180910390a3610bf3848484611205565b6005546001600160a01b0316331461063a5760405162461bcd60e51b815260206004820181905260248201527f4f776e61626c653a2063616c6c6572206973206e6f7420746865206f776e65726044820152606401610564565b600580546001600160a01b038381166001600160a01b0319831681179093556040519116919082907f8be0079c531659141344cd1fd0a4f28419497f9722a3daafe3b4186f6b6457e090600090a35050565b6040516001600160a01b0380851660248301528316604482015260648101829052610bf39085906323b872dd60e01b906084015b60408051601f198184030181529190526020810180516001600160e01b03166001600160e01b0319909316929092179091526113bb565b6001600160a01b038216600090815260076020526040812054819060ff16610f085760405162461bcd60e51b81526020600482015260016024820152604560f81b6044820152606401610564565b610f1184611490565b6001600160a01b038088166000908152600860209081526040808320938a1683529290529081208054939550919350909115610f6c57600282015460018301548354610f5d91906119ad565b610f6791906119c4565b610f6f565b60005b905084826000016000828254610f85919061199a565b9091555050600182018490556002820183905581546000908490610faa9087906119ad565b610fb491906119c4565b905081811115610fd657610fd188610fcc84846119e6565b611547565b61103d565b8082111561103d576001600160a01b03881660009081526020819052604090205461100182846119e6565b111561102f57610fd18861102a8a6001600160a01b031660009081526020819052604090205490565b611097565b61103d8861102a83856119e6565b604080516001600160a01b03898116825260208201889052918101869052908916907fb7f0ca7cd5b24651672216886135b99ff40342bcf549009a4c6fc74f059fb9a09060600160405180910390a2505050935093915050565b6001600160a01b0382166110f75760405162461bcd60e51b815260206004820152602160248201527f45524332303a206275726e2066726f6d20746865207a65726f206164647265736044820152607360f81b6064820152608401610564565b6001600160a01b0382166000908152602081905260409020548181101561116b5760405162461bcd60e51b815260206004820152602260248201527f45524332303a206275726e20616d6f756e7420657863656564732062616c616e604482015261636560f01b6064820152608401610564565b6001600160a01b0383166000818152602081815260408083208686039055600280548790039055518581529192917fddf252ad1be2c89b69c2b068fc378daa952ba7f163c4a11628f55a4df523b3ef910160405180910390a36111d083600084611205565b505050565b6040516001600160a01b0383166024820152604481018290526111d090849063a9059cbb60e01b90606401610e83565b6001600160a01b038316158061122257506001600160a01b038216155b6112535760405162461bcd60e51b8152602060048201526002602482015261139560f21b6044820152606401610564565b6001600160a01b0383161580159061127657506001600160a01b03831661dead14155b156113055760405163d6460b4b60e01b81526001600160a01b03848116600483015260248201839052600160448301527f0000000000000000000000000000000000000000000000000000000000000000169063d6460b4b90606401600060405180830381600087803b1580156112ec57600080fd5b505af1158015611300573d6000803e3d6000fd5b505050505b6001600160a01b0382161580159061132857506001600160a01b03821661dead14155b156111d05760405163d6460b4b60e01b81526001600160a01b03838116600483015260248201839052600060448301527f0000000000000000000000000000000000000000000000000000000000000000169063d6460b4b90606401600060405180830381600087803b15801561139e57600080fd5b505af11580156113b2573d6000803e3d6000fd5b50505050505050565b6000611410826040518060400160405280602081526020017f5361666545524332303a206c6f772d6c6576656c2063616c6c206661696c6564815250856001600160a01b03166116129092919063ffffffff16565b905080516000148061143157508080602001905181019061143191906119f9565b6111d05760405162461bcd60e51b815260206004820152602a60248201527f5361666545524332303a204552433230206f7065726174696f6e20646964206e6044820152691bdd081cdd58d8d9595960b21b6064820152608401610564565b6001600160a01b03818116600090815260076020526040902054600191829161010090041615611542576001600160a01b03838116600081815260076020526040908190205490516339cfdd8d60e21b8152600481019290925261010090049091169063e73f7634906024016040805180830381865afa158015611518573d6000803e3d6000fd5b505050506040513d601f19601f8201168201806040525081019061153c9190611a16565b90925090505b915091565b6001600160a01b03821661159d5760405162461bcd60e51b815260206004820152601f60248201527f45524332303a206d696e7420746f20746865207a65726f2061646472657373006044820152606401610564565b80600260008282546115af919061199a565b90915550506001600160a01b038216600081815260208181526040808320805486019055518481527fddf252ad1be2c89b69c2b068fc378daa952ba7f163c4a11628f55a4df523b3ef910160405180910390a361160e60008383611205565b5050565b60606116218484600085611629565b949350505050565b60608247101561168a5760405162461bcd60e51b815260206004820152602660248201527f416464726573733a20696e73756666696369656e742062616c616e636520666f6044820152651c8818d85b1b60d21b6064820152608401610564565b600080866001600160a01b031685876040516116a69190611a3a565b60006040518083038185875af1925050503d80600081146116e3576040519150601f19603f3d011682016040523d82523d6000602084013e6116e8565b606091505b50915091506116f987838387611704565b979650505050505050565b6060831561177357825160000361176c576001600160a01b0385163b61176c5760405162461bcd60e51b815260206004820152601d60248201527f416464726573733a2063616c6c20746f206e6f6e2d636f6e74726163740000006044820152606401610564565b5081611621565b61162183838151156117885781518083602001fd5b8060405162461bcd60e51b815260040161056491906117c6565b60005b838110156117bd5781810151838201526020016117a5565b50506000910152565b60208152600082518060208401526117e58160408501602087016117a2565b601f01601f19169190910160400192915050565b6001600160a01b0381168114610a5857600080fd5b6000806040838503121561182157600080fd5b823561182c816117f9565b946020939093013593505050565b60008060006060848603121561184f57600080fd5b833561185a816117f9565b9250602084013561186a816117f9565b929592945050506040919091013590565b60006020828403121561188d57600080fd5b8135611898816117f9565b9392505050565b600080604083850312156118b257600080fd5b82356118bd816117f9565b915060208301356118cd816117f9565b809150509250929050565b8015158114610a5857600080fd5b6000806000606084860312156118fb57600080fd5b8335611906816117f9565b92506020840135611916816117f9565b91506040840135611926816118d8565b809150509250925092565b60006020828403121561194357600080fd5b5035919050565b600181811c9082168061195e57607f821691505b60208210810361197e57634e487b7160e01b600052602260045260246000fd5b50919050565b634e487b7160e01b600052601160045260246000fd5b808201808211156104e9576104e9611984565b80820281158282048414176104e9576104e9611984565b6000826119e157634e487b7160e01b600052601260045260246000fd5b500490565b818103818111156104e9576104e9611984565b600060208284031215611a0b57600080fd5b8151611898816118d8565b60008060408385031215611a2957600080fd5b505080516020909101519092909150565b60008251611a4c8184602087016117a2565b919091019291505056fea2646970667358221220914901f0eed26665325a94029dd2bd82f8d5c3ea6b9c1d64d806340ce603d81d64736f6c634300081300336101806040523480156200001257600080fd5b50604051620026e7380380620026e78339810160408190526200003591620000d9565b7f7cdb51e9dbbc205231228146c3246e7f914aa6d4a33170e43ecc8e3593481d1a6040516200007b906020808252600390820152622baa2360e91b604082015260600190565b60405180910390a16001600160a01b0397881660c05295871660e05293861661010052918516610120528416608052831660a05282166101405216610160526200019a565b6001600160a01b0381168114620000d657600080fd5b50565b600080600080600080600080610100898b031215620000f757600080fd5b88516200010481620000c0565b60208a01519098506200011781620000c0565b60408a01519097506200012a81620000c0565b60608a01519096506200013d81620000c0565b60808a01519095506200015081620000c0565b60a08a01519094506200016381620000c0565b60c08a01519093506200017681620000c0565b60e08a01519092506200018981620000c0565b809150509295985092959890939650565b60805160a05160c05160e05161010051610120516101405161016051612400620002e7600039600081816101e6015281816102970152818161043901528181610492015281816104fa01528181610b9d01528181610cb001528181610ef5015281816118e60152818161195d01528181611b7d01528181611ea40152611f12015260008181610167015261096401526000818161067e0152818161071001528181610e2b0152611101015260008181610552015281816105e701528181610c3901528181610c680152610dbd01526000611bd5015260008181610a6a01528181611503015261199d0152600081816102c10152818161032a0152818161037201528181610463015281816104b3015281816104d90152818161078101528181610c1701528181610c8f01528181610d9b0152610eb501526000818161080a0152611c4201526124006000f3fe608060405234801561001057600080fd5b50600436106100ea5760003560e01c8063cc85bd161161008c578063d279c19111610066578063d279c19114610208578063d6460b4b1461021b578063e70b9e271461022e578063f2c03c581461027557600080fd5b8063cc85bd16146101a1578063ce7c2ac2146101c1578063d1af0c7d146101e157600080fd5b806386989038116100c857806386989038146101335780638e79fd9a1461013c57806397ad1cce1461014f578063bde308181461016257600080fd5b80633694313d146100ef5780633a98ef39146101045780633dc60e8314610120575b600080fd5b6101026100fd366004612149565b610295565b005b61010d60005481565b6040519081526020015b60405180910390f35b61010261012e366004612177565b610807565b61010d60015481565b61010d61014a3660046121a3565b610879565b61010261015d366004612177565b610914565b6101897f000000000000000000000000000000000000000000000000000000000000000081565b6040516001600160a01b039091168152602001610117565b61010d6101af3660046121dc565b60066020526000908152604090205481565b61010d6101cf3660046121dc565b60026020526000908152604090205481565b6101897f000000000000000000000000000000000000000000000000000000000000000081565b6101026102163660046121dc565b610921565b610102610229366004612207565b610961565b61026061023c3660046121a3565b60036020908152600092835260408084209091529082529020805460019091015482565b60408051928352602083019190915201610117565b61010d6102833660046121dc565b60076020526000908152604090205481565b7f00000000000000000000000000000000000000000000000000000000000000006001600160a01b03167f00000000000000000000000000000000000000000000000000000000000000006001600160a01b03160361031f5760405162461bcd60e51b81526020600482015260016024820152602960f91b60448201526064015b60405180910390fd5b801561035a5761035a7f00000000000000000000000000000000000000000000000000000000000000006001600160a01b03163330846109d8565b6040516370a0823160e01b81523060048201526000907f00000000000000000000000000000000000000000000000000000000000000006001600160a01b0316906370a0823190602401602060405180830381865afa1580156103c1573d6000803e3d6000fd5b505050506040513d601f19601f820116820180604052508101906103e59190612249565b90506000811161041b5760405162461bcd60e51b81526020600482015260016024820152604160f81b6044820152606401610316565b600061042682610a49565b90506104328183612278565b91506000807f00000000000000000000000000000000000000000000000000000000000000006001600160a01b03167f00000000000000000000000000000000000000000000000000000000000000006001600160a01b0316106104d7577f00000000000000000000000000000000000000000000000000000000000000007f000000000000000000000000000000000000000000000000000000000000000061051a565b7f00000000000000000000000000000000000000000000000000000000000000007f00000000000000000000000000000000000000000000000000000000000000005b60405163e3ddd77960e01b81526001600160a01b038084166004830152808316602483015261271060448301529294509092506000917f0000000000000000000000000000000000000000000000000000000000000000169063e3ddd77990606401602060405180830381865afa9250505080156105b5575060408051601f3d908101601f191682019092526105b29181019061228b565b60015b61065957604051630a8e060f60e01b81526001600160a01b038481166004830152838116602483015260c860448301527f00000000000000000000000000000000000000000000000000000000000000001690630a8e060f90606401602060405180830381865afa15801561062e573d6000803e3d6000fd5b505050506040513d601f19601f82011682018060405250810190610652919061228b565b905061065c565b90505b604051637fb4f79d60e01b81526001600160a01b0382811660048301526000917f000000000000000000000000000000000000000000000000000000000000000090911690637fb4f79d90602401602060405180830381865afa1580156106c7573d6000803e3d6000fd5b505050506040513d601f19601f820116820180604052508101906106eb919061228b565b60405163352fc4cd60e21b81526001600160a01b0380831660048301529192506000917f0000000000000000000000000000000000000000000000000000000000000000169063d4bf133490602401602060405180830381865afa158015610757573d6000803e3d6000fd5b505050506040513d601f19601f8201168201806040525081019061077b9190612249565b905060007f00000000000000000000000000000000000000000000000000000000000000006001600160a01b0316866001600160a01b0316146107d657816107c7600160601b8a6122a8565b6107d191906122bf565b6107ef565b600160601b6107e589846122a8565b6107ef91906122bf565b90506107fc888289610b66565b505050505050505050565b337f00000000000000000000000000000000000000000000000000000000000000006001600160a01b0316146108685760405162461bcd60e51b815260040161031690602080825260049082015263082aaa8960e31b604082015260600190565b6108753383836000610f7b565b5050565b6001600160a01b03811660009081526002602052604081205481036108a05750600061090e565b6001600160a01b0382166000908152600260205260408120546108c49085906111b1565b6001600160a01b038086166000908152600360209081526040808320938816835292905220549091508082116108ff5760009250505061090e565b6109098183612278565b925050505b92915050565b6108753383836001610f7b565b61092a816111e5565b6040516001600160a01b038216907f63e32091e4445d16e29c33a6b264577c2d86694021aa4e6f4dd590048f5792e890600090a250565b337f00000000000000000000000000000000000000000000000000000000000000006001600160a01b0316146109c85760405162461bcd60e51b815260206004820152600c60248201526b15539055551213d49256915160a21b6044820152606401610316565b6109d3838383611382565b505050565b6040516001600160a01b0380851660248301528316604482015260648101829052610a439085906323b872dd60e01b906084015b60408051601f198184030181529190526020810180516001600160e01b03166001600160e01b031990931692909217909152611427565b50505050565b600080610a546114fc565b50905080600003610a685750600092915050565b7f00000000000000000000000000000000000000000000000000000000000000006001600160a01b0316631ad8b03b6040518163ffffffff1660e01b8152600401602060405180830381865afa158015610ac6573d6000803e3d6000fd5b505050506040513d601f19601f82011682018060405250810190610aea919061228b565b6001600160a01b0316633c9a07006040518163ffffffff1660e01b8152600401602060405180830381865afa158015610b27573d6000803e3d6000fd5b505050506040513d601f19601f82011682018060405250810190610b4b9190612249565b610b5582856122a8565b610b5f91906122bf565b9392505050565b600060045411610b765782610b7a565b6004545b6040516370a0823160e01b81523060048201529093506000906001600160a01b037f000000000000000000000000000000000000000000000000000000000000000016906370a0823190602401602060405180830381865afa158015610be4573d6000803e3d6000fd5b505050506040513d601f19601f82011682018060405250810190610c089190612249565b9050610c5e6001600160a01b037f0000000000000000000000000000000000000000000000000000000000000000167f000000000000000000000000000000000000000000000000000000000000000086611662565b6001600160a01b037f000000000000000000000000000000000000000000000000000000000000000016638d5752d67f00000000000000000000000000000000000000000000000000000000000000007f0000000000000000000000000000000000000000000000000000000000000000612710886103e8610ce1601482612278565b610ceb908b6122a8565b610cf591906122bf565b6040516001600160e01b031960e088901b1681526001600160a01b03958616600482015294909316602485015262ffffff9091166044840152606483015260848201523060a482015260c4016020604051808303816000875af1925050508015610d7c575060408051601f3d908101601f19168201909252610d7991810190612249565b60015b610e1a57610d8b6002856122bf565b600455610de26001600160a01b037f0000000000000000000000000000000000000000000000000000000000000000167f00000000000000000000000000000000000000000000000000000000000000008661170f565b6040518481527fbeb9a4acf58a9a0744ebebbcf02cc2dc98c88f3fe6678767e33a0840dd892c009060200160405180910390a1610a43565b5060006004558115610edc57610edc7f00000000000000000000000000000000000000000000000000000000000000006001600160a01b0316638da5cb5b6040518163ffffffff1660e01b8152600401602060405180830381865afa158015610e87573d6000803e3d6000fd5b505050506040513d601f19601f82011682018060405250810190610eab919061228b565b6001600160a01b037f0000000000000000000000000000000000000000000000000000000000000000169084611818565b6040516370a0823160e01b8152306004820152610a43907f00000000000000000000000000000000000000000000000000000000000000009083906001600160a01b038316906370a0823190602401602060405180830381865afa158015610f48573d6000803e3d6000fd5b505050506040513d601f19601f82011682018060405250810190610f6c9190612249565b610f769190612278565b611848565b60008211610faf5760405162461bcd60e51b81526020600482015260016024820152604160f81b6044820152606401610316565b610fb883611b79565b610fe85760405162461bcd60e51b81526020600482015260016024820152602b60f91b6044820152606401610316565b8181156110e9576040516370a0823160e01b81523060048201526000906001600160a01b038616906370a0823190602401602060405180830381865afa158015611036573d6000803e3d6000fd5b505050506040513d601f19601f8201168201806040525081019061105a9190612249565b90506110716001600160a01b0386168730856109d8565b6040516370a0823160e01b815230600482015281906001600160a01b038716906370a0823190602401602060405180830381865afa1580156110b7573d6000803e3d6000fd5b505050506040513d601f19601f820116820180604052508101906110db9190612249565b6110e59190612278565b9150505b60006110f482610a49565b9050801561119f576111927f00000000000000000000000000000000000000000000000000000000000000006001600160a01b0316638da5cb5b6040518163ffffffff1660e01b8152600401602060405180830381865afa15801561115d573d6000803e3d6000fd5b505050506040513d601f19601f82011682018060405250810190611181919061228b565b6001600160a01b0387169083611818565b61119c8183612278565b91505b6111a98583611848565b505050505050565b6001600160a01b0382166000908152600560205260408120546ec097ce7bc90715b34b9f100000000090610b5590846122a8565b6001600160a01b03811660009081526002602052604081205490036112075750565b60005b60085481101561087557600060088281548110611229576112296122e1565b60009182526020822001546001600160a01b031691506112498285610879565b6001600160a01b0380841660009081526003602090815260408083209389168352929052908120600101805492935083929091906112889084906122f7565b90915550506001600160a01b0384166000908152600260205260409020546112b19083906111b1565b6001600160a01b03808416600090815260036020908152604080832093891683529290522055801561136d576001600160a01b038216600090815260066020526040812080548392906113059084906122f7565b9091555061131f90506001600160a01b0383168583611818565b816001600160a01b0316846001600160a01b03167f4fa9693cae526341d334e2862ca2413b2e503f1266255f9e0869fb36e6d89b178360405161136491815260200190565b60405180910390a35b5050808061137a9061230a565b91505061120a565b61138a611c40565b80156113e25761139a8383611caf565b826001600160a01b03167fae0577e1c96b26fbc0b9df702431f5470979d001d24f136eded791b8b6521d6f836040516113d591815260200190565b60405180910390a2505050565b6113ec8383611da9565b826001600160a01b03167fba8f3777cf908803bf1f3dd58e7f4b7d3de4dbe3c234c4ccab0975d98f7cd388836040516113d591815260200190565b600061147c826040518060400160405280602081526020017f5361666545524332303a206c6f772d6c6576656c2063616c6c206661696c6564815250856001600160a01b0316611e779092919063ffffffff16565b905080516000148061149d57508080602001905181019061149d9190612323565b6109d35760405162461bcd60e51b815260206004820152602a60248201527f5361666545524332303a204552433230206f7065726174696f6e20646964206e6044820152691bdd081cdd58d8d9595960b21b6064820152608401610316565b60008060007f00000000000000000000000000000000000000000000000000000000000000006001600160a01b0316631ad8b03b6040518163ffffffff1660e01b8152600401602060405180830381865afa15801561155f573d6000803e3d6000fd5b505050506040513d601f19601f82011682018060405250810190611583919061228b565b90506001600160a01b0381161561165d57806001600160a01b031663676011556040518163ffffffff1660e01b8152600401602060405180830381865afa1580156115d2573d6000803e3d6000fd5b505050506040513d601f19601f820116820180604052508101906115f69190612249565b9250806001600160a01b0316630389ed176040518163ffffffff1660e01b8152600401602060405180830381865afa158015611636573d6000803e3d6000fd5b505050506040513d601f19601f8201168201806040525081019061165a9190612249565b91505b509091565b604051636eb1769f60e11b81523060048201526001600160a01b0383811660248301526000919085169063dd62ed3e90604401602060405180830381865afa1580156116b2573d6000803e3d6000fd5b505050506040513d601f19601f820116820180604052508101906116d69190612249565b9050610a438463095ea7b360e01b856116ef86866122f7565b6040516001600160a01b0390921660248301526044820152606401610a0c565b604051636eb1769f60e11b81523060048201526001600160a01b0383811660248301526000919085169063dd62ed3e90604401602060405180830381865afa15801561175f573d6000803e3d6000fd5b505050506040513d601f19601f820116820180604052508101906117839190612249565b9050818110156117e75760405162461bcd60e51b815260206004820152602960248201527f5361666545524332303a2064656372656173656420616c6c6f77616e63652062604482015268656c6f77207a65726f60b81b6064820152608401610316565b6040516001600160a01b03841660248201528282036044820152610a4390859063095ea7b360e01b90606401610a0c565b6040516001600160a01b0383166024820152604481018290526109d390849063a9059cbb60e01b90606401610a0c565b6001600160a01b03821660009081526009602052604090205460ff166118ce576001600160a01b0382166000818152600960205260408120805460ff191660019081179091556008805491820181559091527ff3f7a9fe364faab93b216da50a3214154f22a0a2b415b23a84c8169e8b636ee30180546001600160a01b03191690911790555b806000036118da575050565b600054600003611952577f00000000000000000000000000000000000000000000000000000000000000006001600160a01b0316826001600160a01b0316146119495760405162461bcd60e51b81526020600482015260016024820152602960f91b6044820152606401610316565b61087581611e8e565b806001600160a01b037f0000000000000000000000000000000000000000000000000000000000000000811690841603611ab45760006119906114fc565b9150508015611ab25760007f00000000000000000000000000000000000000000000000000000000000000006001600160a01b0316631ad8b03b6040518163ffffffff1660e01b8152600401602060405180830381865afa1580156119f9573d6000803e3d6000fd5b505050506040513d601f19601f82011682018060405250810190611a1d919061228b565b6001600160a01b0316633c9a07006040518163ffffffff1660e01b8152600401602060405180830381865afa158015611a5a573d6000803e3d6000fd5b505050506040513d601f19601f82011682018060405250810190611a7e9190612249565b611a8883866122a8565b611a9291906122bf565b90508015611ab057611aa381611e8e565b611aad8184612278565b92505b505b505b6001600160a01b03831660009081526007602052604081208054839290611adc9084906122f7565b9091555050600054611afd826ec097ce7bc90715b34b9f10000000006122a8565b611b0791906122bf565b6001600160a01b03841660009081526005602052604081208054909190611b2f9084906122f7565b90915550506040518181526001600160a01b0384169033907f6f1ecfed9dbd8c39701eb5288ad020f77ec8a5b2f93133e85482bf66cb877a309060200160405180910390a3505050565b60007f00000000000000000000000000000000000000000000000000000000000000006001600160a01b0316826001600160a01b0316148061090e5750604051634d8c928d60e11b81526001600160a01b0383811660048301527f00000000000000000000000000000000000000000000000000000000000000001690639b19251a90602401602060405180830381865afa158015611c1c573d6000803e3d6000fd5b505050506040513d601f19601f8201168201806040525081019061090e9190612323565b7f00000000000000000000000000000000000000000000000000000000000000006001600160a01b031663bb4630276040518163ffffffff1660e01b8152600401600060405180830381600087803b158015611c9b57600080fd5b505af1158015610a43573d6000803e3d6000fd5b6001600160a01b03821660009081526002602052604090205415801590611cee57506001600160a01b0382166000908152600260205260409020548111155b611d1f5760405162461bcd60e51b8152602060048201526002602482015261524560f01b6044820152606401610316565b611d28826111e5565b80600080828254611d399190612278565b90915550506001600160a01b03821660009081526002602052604081208054839290611d66908490612278565b90915550506001600160a01b0382166000908152600260205260408120549003611da05760018054906000611d9a83612340565b91905055505b61087582611f3e565b6001600160a01b03821660009081526002602052604090205415611dd057611dd0826111e5565b6001600160a01b0382166000908152600260205260408120548154909183918190611dfc9084906122f7565b90915550506001600160a01b03831660009081526002602052604081208054849290611e299084906122f7565b909155505080158015611e5357506001600160a01b03831660009081526002602052604090205415155b15611e6e5760018054906000611e688361230a565b91905055505b6109d383611f3e565b6060611e868484600085611fd0565b949350505050565b604051630852cd8d60e31b8152600481018290527f00000000000000000000000000000000000000000000000000000000000000006001600160a01b0316906342966c6890602401600060405180830381600087803b158015611ef057600080fd5b505af1925050508015611f01575060015b611f3b57611f3b6001600160a01b037f00000000000000000000000000000000000000000000000000000000000000001661dead83611818565b50565b60005b60085481101561087557600060088281548110611f6057611f606122e1565b60009182526020808320909101546001600160a01b038681168452600290925260409092205491169150611f959082906111b1565b6001600160a01b0391821660009081526003602090815260408083209487168352939052919091205580611fc88161230a565b915050611f41565b6060824710156120315760405162461bcd60e51b815260206004820152602660248201527f416464726573733a20696e73756666696369656e742062616c616e636520666f6044820152651c8818d85b1b60d21b6064820152608401610316565b600080866001600160a01b0316858760405161204d919061237b565b60006040518083038185875af1925050503d806000811461208a576040519150601f19603f3d011682016040523d82523d6000602084013e61208f565b606091505b50915091506120a0878383876120ab565b979650505050505050565b6060831561211a578251600003612113576001600160a01b0385163b6121135760405162461bcd60e51b815260206004820152601d60248201527f416464726573733a2063616c6c20746f206e6f6e2d636f6e74726163740000006044820152606401610316565b5081611e86565b611e86838381511561212f5781518083602001fd5b8060405162461bcd60e51b81526004016103169190612397565b60006020828403121561215b57600080fd5b5035919050565b6001600160a01b0381168114611f3b57600080fd5b6000806040838503121561218a57600080fd5b823561219581612162565b946020939093013593505050565b600080604083850312156121b657600080fd5b82356121c181612162565b915060208301356121d181612162565b809150509250929050565b6000602082840312156121ee57600080fd5b8135610b5f81612162565b8015158114611f3b57600080fd5b60008060006060848603121561221c57600080fd5b833561222781612162565b925060208401359150604084013561223e816121f9565b809150509250925092565b60006020828403121561225b57600080fd5b5051919050565b634e487b7160e01b600052601160045260246000fd5b8181038181111561090e5761090e612262565b60006020828403121561229d57600080fd5b8151610b5f81612162565b808202811582820484141761090e5761090e612262565b6000826122dc57634e487b7160e01b600052601260045260246000fd5b500490565b634e487b7160e01b600052603260045260246000fd5b8082018082111561090e5761090e612262565b60006001820161231c5761231c612262565b5060010190565b60006020828403121561233557600080fd5b8151610b5f816121f9565b60008161234f5761234f612262565b506000190190565b60005b8381101561237257818101518382015260200161235a565b50506000910152565b6000825161238d818460208701612357565b9190910192915050565b60208152600082518060208401526123b6816040850160208701612357565b601f01601f1916919091016040019291505056fea26469706673582212206f3a9ef2d1d7293c3a81f6bb21da93542aa33ded7bf4f5e7dd8120710eb84e9364736f6c63430008130033","linkReferences":{}},"methodIdentifiers":{"REWARDS()":"c0034e0c","addOrUpdateAsset(address,address,bool)":"ab529acb","allowance(address,address)":"dd62ed3e","approve(address,uint256)":"095ea7b3","assets(address)":"f11b8188","balanceOf(address)":"70a08231","decimals()":"313ce567","decreaseAllowance(address,uint256)":"a457c2d7","disableAsset(address)":"70807528","enableAsset(address)":"2aef4024","increaseAllowance(address,uint256)":"39509351","lockupPeriod()":"ee947a7c","name()":"06fdde03","owner()":"8da5cb5b","processPreSwapFeesAndSwap()":"bb463027","renounceOwnership()":"715018a6","setLockupPeriod(uint256)":"c771c390","stake(address,uint256)":"adc9772e","stakes(address,address)":"a4e47b66","symbol()":"95d89b41","totalSupply()":"18160ddd","transfer(address,uint256)":"a9059cbb","transferFrom(address,address,uint256)":"23b872dd","transferOwnership(address)":"f2fde38b","unstake(address,uint256)":"c2a672e0","update(address,address)":"c640752d"},"id":29}