{"abi":[{"type":"function","name":"getConfig","inputs":[{"name":"_sourceToken","type":"address","internalType":"address"},{"name":"_targetChainSelector","type":"uint64","internalType":"uint64"}],"outputs":[{"name":"","type":"tuple","internalType":"struct ICCIPTokenRouter.TokenConfig","components":[{"name":"enabled","type":"bool","internalType":"bool"},{"name":"targetBridge","type":"address","internalType":"address"},{"name":"sourceToken","type":"address","internalType":"address"},{"name":"sourceTokenMintBurn","type":"bool","internalType":"bool"},{"name":"targetChain","type":"uint64","internalType":"uint64"},{"name":"targetToken","type":"address","internalType":"address"}]}],"stateMutability":"view"},{"type":"function","name":"globalEnabled","inputs":[],"outputs":[{"name":"","type":"bool","internalType":"bool"}],"stateMutability":"view"},{"type":"function","name":"owner","inputs":[],"outputs":[{"name":"","type":"address","internalType":"address"}],"stateMutability":"view"},{"type":"function","name":"renounceOwnership","inputs":[],"outputs":[],"stateMutability":"nonpayable"},{"type":"function","name":"setConfig","inputs":[{"name":"_targetBridge","type":"address","internalType":"address"},{"name":"_targetChain","type":"uint64","internalType":"uint64"},{"name":"_sourceToken","type":"address","internalType":"address"},{"name":"_sourceTokenMintBurn","type":"bool","internalType":"bool"},{"name":"_targetToken","type":"address","internalType":"address"},{"name":"_enabled","type":"bool","internalType":"bool"}],"outputs":[],"stateMutability":"nonpayable"},{"type":"function","name":"setTargetChainGasLimit","inputs":[{"name":"_gasLimit","type":"uint256","internalType":"uint256"}],"outputs":[],"stateMutability":"nonpayable"},{"type":"function","name":"targetChainGasLimit","inputs":[],"outputs":[{"name":"","type":"uint256","internalType":"uint256"}],"stateMutability":"view"},{"type":"function","name":"toggleConfigEnabled","inputs":[{"name":"_sourceToken","type":"address","internalType":"address"},{"name":"_targetChain","type":"uint64","internalType":"uint64"},{"name":"_isEnabled","type":"bool","internalType":"bool"}],"outputs":[],"stateMutability":"nonpayable"},{"type":"function","name":"toggleGlobalEnabled","inputs":[{"name":"_isEnabled","type":"bool","internalType":"bool"}],"outputs":[],"stateMutability":"nonpayable"},{"type":"function","name":"transferOwnership","inputs":[{"name":"newOwner","type":"address","internalType":"address"}],"outputs":[],"stateMutability":"nonpayable"},{"type":"event","name":"OwnershipTransferred","inputs":[{"name":"previousOwner","type":"address","indexed":true,"internalType":"address"},{"name":"newOwner","type":"address","indexed":true,"internalType":"address"}],"anonymous":false},{"type":"event","name":"SetConfigEnabled","inputs":[{"name":"wallet","type":"address","indexed":true,"internalType":"address"},{"name":"sourceToken","type":"address","indexed":false,"internalType":"address"},{"name":"targetChain","type":"uint64","indexed":false,"internalType":"uint64"},{"name":"isEnabled","type":"bool","indexed":false,"internalType":"bool"}],"anonymous":false},{"type":"event","name":"SetGlobalEnabled","inputs":[{"name":"wallet","type":"address","indexed":true,"internalType":"address"},{"name":"isEnabled","type":"bool","indexed":false,"internalType":"bool"}],"anonymous":false},{"type":"event","name":"SetTargetGasChainLimit","inputs":[{"name":"wallet","type":"address","indexed":true,"internalType":"address"},{"name":"newLimit","type":"uint256","indexed":false,"internalType":"uint256"}],"anonymous":false}],"bytecode":{"object":"0x60806040526000805460ff60a01b1916600160a01b17905562030d4060015534801561002a57600080fd5b5061003433610039565b610089565b600080546001600160a01b038381166001600160a01b0319831681178455604051919092169283917f8be0079c531659141344cd1fd0a4f28419497f9722a3daafe3b4186f6b6457e09190a35050565b610858806100986000396000f3fe608060405234801561001057600080fd5b506004361061009e5760003560e01c80638eb87afe116100665780638eb87afe1461010a578063c1fd240214610240578063ca46b94714610264578063f2fde38b14610277578063f3ee20941461028a57600080fd5b8063715018a6146100a35780637f758a0d146100ad5780638574fd6f146100c95780638861c6e0146100dc5780638da5cb5b146100ef575b600080fd5b6100ab61029d565b005b6100b660015481565b6040519081526020015b60405180910390f35b6100ab6100d73660046106e2565b6102b1565b6100ab6100ea366004610725565b61037e565b6000546040516001600160a01b0390911681526020016100c0565b6101da61011836600461073e565b6040805160c081018252600080825260208201819052918101829052606081018290526080810182905260a0810191909152506001600160a01b03918216600090815260026020818152604080842067ffffffffffffffff9586168552825292839020835160c081018552815460ff80821615158352610100909104881693820193909352600182015480881695820195909552600160a01b850490921615156060830152600160a81b9093049093166080840152015490911660a082015290565b6040516100c091908151151581526020808301516001600160a01b039081169183019190915260408084015182169083015260608084015115159083015260808084015167ffffffffffffffff169083015260a092830151169181019190915260c00190565b60005461025490600160a01b900460ff1681565b60405190151581526020016100c0565b6100ab610272366004610771565b610403565b6100ab6102853660046107e5565b610500565b6100ab610298366004610807565b610579565b6102a56105f4565b6102af600061064e565b565b6102b96105f4565b6001600160a01b038316600090815260026020908152604080832067ffffffffffffffff8616845290915290205481151560ff9091161515036102fb57600080fd5b6001600160a01b038316600081815260026020908152604080832067ffffffffffffffff871680855290835292819020805486151560ff199091168117909155815194855291840192909252828201525133917f18c282e39c0a45a78b031759c4682a26d0dec3b573eb6cb80d2fe73bd4c02248919081900360600190a2505050565b6103866105f4565b80600154036103c55760405162461bcd60e51b81526020600482015260066024820152654348414e474560d01b60448201526064015b60405180910390fd5b600181905560405181815233907f0a83f72cf48e97f6b26fef8f3970a58bdee08c3186bc4bf4ed78f6bb54a5297f906020015b60405180910390a250565b61040b6105f4565b6040805160c08101825291151582526001600160a01b0396871660208084019182529588168383018181529515156060850190815267ffffffffffffffff98891660808601818152968b1660a0870190815260009384526002808b5286852092855291909952939091209351845492518a1661010002610100600160a81b0319911515919091166001600160a81b031993841617178455945160018401805496519551909816600160a81b0267ffffffffffffffff60a81b19951515600160a01b029690921690891617949094179290921692909217909355905191018054919092166001600160a01b031991909116179055565b6105086105f4565b6001600160a01b03811661056d5760405162461bcd60e51b815260206004820152602660248201527f4f776e61626c653a206e6577206f776e657220697320746865207a65726f206160448201526564647265737360d01b60648201526084016103bc565b6105768161064e565b50565b6105816105f4565b801515600060149054906101000a900460ff161515036105a057600080fd5b6000805460ff60a01b1916600160a01b83151502179055336001600160a01b03167fb7c632dc5742715ee7b8bba2189b4f7a0fe8036e3936fcef22cca345db895f6c826040516103f8911515815260200190565b6000546001600160a01b031633146102af5760405162461bcd60e51b815260206004820181905260248201527f4f776e61626c653a2063616c6c6572206973206e6f7420746865206f776e657260448201526064016103bc565b600080546001600160a01b038381166001600160a01b0319831681178455604051919092169283917f8be0079c531659141344cd1fd0a4f28419497f9722a3daafe3b4186f6b6457e09190a35050565b80356001600160a01b03811681146106b557600080fd5b919050565b803567ffffffffffffffff811681146106b557600080fd5b803580151581146106b557600080fd5b6000806000606084860312156106f757600080fd5b6107008461069e565b925061070e602085016106ba565b915061071c604085016106d2565b90509250925092565b60006020828403121561073757600080fd5b5035919050565b6000806040838503121561075157600080fd5b61075a8361069e565b9150610768602084016106ba565b90509250929050565b60008060008060008060c0878903121561078a57600080fd5b6107938761069e565b95506107a1602088016106ba565b94506107af6040880161069e565b93506107bd606088016106d2565b92506107cb6080880161069e565b91506107d960a088016106d2565b90509295509295509295565b6000602082840312156107f757600080fd5b6108008261069e565b9392505050565b60006020828403121561081957600080fd5b610800826106d256fea2646970667358221220c7210fd25cfcbcb99600b3ef5b2fe0bd2354e092cf709c32deac87f3f6cb30c664736f6c63430008130033","linkReferences":{}},"methodIdentifiers":{"getConfig(address,uint64)":"8eb87afe","globalEnabled()":"c1fd2402","owner()":"8da5cb5b","renounceOwnership()":"715018a6","setConfig(address,uint64,address,bool,address,bool)":"ca46b947","setTargetChainGasLimit(uint256)":"8861c6e0","targetChainGasLimit()":"7f758a0d","toggleConfigEnabled(address,uint64,bool)":"8574fd6f","toggleGlobalEnabled(bool)":"f3ee2094","transferOwnership(address)":"f2fde38b"},"id":18}