{"abi":[{"type":"constructor","inputs":[{"name":"_params","type":"tuple","internalType":"struct ConstructorParams","components":[{"name":"circuitBreaker","type":"address","internalType":"address"},{"name":"comptroller","type":"address","internalType":"address"},{"name":"timelock","type":"address","internalType":"address"},{"name":"fraxlendWhitelist","type":"address","internalType":"address"},{"name":"fraxlendPairRegistry","type":"address","internalType":"address"}]}],"stateMutability":"nonpayable"},{"type":"function","name":"circuitBreakerAddress","inputs":[],"outputs":[{"name":"","type":"address","internalType":"address"}],"stateMutability":"view"},{"type":"function","name":"comptrollerAddress","inputs":[],"outputs":[{"name":"","type":"address","internalType":"address"}],"stateMutability":"view"},{"type":"function","name":"contractAddress1","inputs":[],"outputs":[{"name":"","type":"address","internalType":"address"}],"stateMutability":"view"},{"type":"function","name":"contractAddress2","inputs":[],"outputs":[{"name":"","type":"address","internalType":"address"}],"stateMutability":"view"},{"type":"function","name":"defaultSwappers","inputs":[{"name":"","type":"uint256","internalType":"uint256"}],"outputs":[{"name":"","type":"address","internalType":"address"}],"stateMutability":"view"},{"type":"function","name":"deploy","inputs":[{"name":"_configData","type":"bytes","internalType":"bytes"}],"outputs":[{"name":"_pairAddress","type":"address","internalType":"address"}],"stateMutability":"nonpayable"},{"type":"function","name":"deployedPairsArray","inputs":[{"name":"","type":"uint256","internalType":"uint256"}],"outputs":[{"name":"","type":"address","internalType":"address"}],"stateMutability":"view"},{"type":"function","name":"deployedPairsLength","inputs":[],"outputs":[{"name":"","type":"uint256","internalType":"uint256"}],"stateMutability":"view"},{"type":"function","name":"fraxlendPairRegistryAddress","inputs":[],"outputs":[{"name":"","type":"address","internalType":"address"}],"stateMutability":"view"},{"type":"function","name":"fraxlendWhitelistAddress","inputs":[],"outputs":[{"name":"","type":"address","internalType":"address"}],"stateMutability":"view"},{"type":"function","name":"getAllPairAddresses","inputs":[],"outputs":[{"name":"_deployedPairs","type":"address[]","internalType":"address[]"}],"stateMutability":"view"},{"type":"function","name":"getNextNameSymbol","inputs":[{"name":"_asset","type":"address","internalType":"address"},{"name":"_collateral","type":"address","internalType":"address"}],"outputs":[{"name":"_name","type":"string","internalType":"string"},{"name":"_symbol","type":"string","internalType":"string"}],"stateMutability":"view"},{"type":"function","name":"globalPause","inputs":[{"name":"_addresses","type":"address[]","internalType":"address[]"}],"outputs":[{"name":"_updatedAddresses","type":"address[]","internalType":"address[]"}],"stateMutability":"nonpayable"},{"type":"function","name":"owner","inputs":[],"outputs":[{"name":"","type":"address","internalType":"address"}],"stateMutability":"view"},{"type":"function","name":"renounceOwnership","inputs":[],"outputs":[],"stateMutability":"nonpayable"},{"type":"function","name":"setCircuitBreaker","inputs":[{"name":"_newAddress","type":"address","internalType":"address"}],"outputs":[],"stateMutability":"nonpayable"},{"type":"function","name":"setComptroller","inputs":[{"name":"_newAddress","type":"address","internalType":"address"}],"outputs":[],"stateMutability":"nonpayable"},{"type":"function","name":"setCreationCode","inputs":[{"name":"_creationCode","type":"bytes","internalType":"bytes"}],"outputs":[],"stateMutability":"nonpayable"},{"type":"function","name":"setDefaultSwappers","inputs":[{"name":"_swappers","type":"address[]","internalType":"address[]"}],"outputs":[],"stateMutability":"nonpayable"},{"type":"function","name":"setRegistry","inputs":[{"name":"_newAddress","type":"address","internalType":"address"}],"outputs":[],"stateMutability":"nonpayable"},{"type":"function","name":"setTimelock","inputs":[{"name":"_newAddress","type":"address","internalType":"address"}],"outputs":[],"stateMutability":"nonpayable"},{"type":"function","name":"setWhitelist","inputs":[{"name":"_newAddress","type":"address","internalType":"address"}],"outputs":[],"stateMutability":"nonpayable"},{"type":"function","name":"timelockAddress","inputs":[],"outputs":[{"name":"","type":"address","internalType":"address"}],"stateMutability":"view"},{"type":"function","name":"transferOwnership","inputs":[{"name":"newOwner","type":"address","internalType":"address"}],"outputs":[],"stateMutability":"nonpayable"},{"type":"function","name":"version","inputs":[],"outputs":[{"name":"_major","type":"uint256","internalType":"uint256"},{"name":"_minor","type":"uint256","internalType":"uint256"},{"name":"_patch","type":"uint256","internalType":"uint256"}],"stateMutability":"pure"},{"type":"event","name":"Debug","inputs":[{"name":"a","type":"string","indexed":false,"internalType":"string"}],"anonymous":false},{"type":"event","name":"LogDeploy","inputs":[{"name":"address_","type":"address","indexed":true,"internalType":"address"},{"name":"asset","type":"address","indexed":true,"internalType":"address"},{"name":"collateral","type":"address","indexed":true,"internalType":"address"},{"name":"name","type":"string","indexed":false,"internalType":"string"},{"name":"configData","type":"bytes","indexed":false,"internalType":"bytes"},{"name":"immutables","type":"bytes","indexed":false,"internalType":"bytes"},{"name":"customConfigData","type":"bytes","indexed":false,"internalType":"bytes"}],"anonymous":false},{"type":"event","name":"OwnershipTransferred","inputs":[{"name":"previousOwner","type":"address","indexed":true,"internalType":"address"},{"name":"newOwner","type":"address","indexed":true,"internalType":"address"}],"anonymous":false},{"type":"event","name":"SetCircuitBreaker","inputs":[{"name":"oldAddress","type":"address","indexed":false,"internalType":"address"},{"name":"newAddress","type":"address","indexed":false,"internalType":"address"}],"anonymous":false},{"type":"event","name":"SetComptroller","inputs":[{"name":"oldAddress","type":"address","indexed":false,"internalType":"address"},{"name":"newAddress","type":"address","indexed":false,"internalType":"address"}],"anonymous":false},{"type":"event","name":"SetRegistry","inputs":[{"name":"oldAddress","type":"address","indexed":false,"internalType":"address"},{"name":"newAddress","type":"address","indexed":false,"internalType":"address"}],"anonymous":false},{"type":"event","name":"SetTimelock","inputs":[{"name":"oldAddress","type":"address","indexed":false,"internalType":"address"},{"name":"newAddress","type":"address","indexed":false,"internalType":"address"}],"anonymous":false},{"type":"event","name":"SetWhitelist","inputs":[{"name":"oldAddress","type":"address","indexed":false,"internalType":"address"},{"name":"newAddress","type":"address","indexed":false,"internalType":"address"}],"anonymous":false},{"type":"error","name":"CircuitBreakerOnly","inputs":[]},{"type":"error","name":"Create2Failed","inputs":[]},{"type":"error","name":"WhitelistedDeployersOnly","inputs":[]}],"bytecode":{"object":"0x60806040523480156200001157600080fd5b50604051620022b0380380620022b0833981016040819052620000349162000121565b6200003f33620000b4565b8051600380546001600160a01b03199081166001600160a01b0393841617909155602083015160048054831691841691909117905560408301516005805483169184169190911790556060830151600780548316918416919091179055608090920151600680549093169116179055620001c8565b600080546001600160a01b038381166001600160a01b0319831681178455604051919092169283917f8be0079c531659141344cd1fd0a4f28419497f9722a3daafe3b4186f6b6457e09190a35050565b80516001600160a01b03811681146200011c57600080fd5b919050565b600060a082840312156200013457600080fd5b60405160a081016001600160401b03811182821017156200016557634e487b7160e01b600052604160045260246000fd5b604052620001738362000104565b8152620001836020840162000104565b6020820152620001966040840162000104565b6040820152620001a96060840162000104565b6060820152620001bc6080840162000104565b60808201529392505050565b6120d880620001d86000396000f3fe608060405234801561001057600080fd5b50600436106101725760003560e01c806368bde41f116100de57806382beee89116100975780638da5cb5b116100715780638da5cb5b14610335578063a91ee0dc14610346578063bdacb30314610359578063f2fde38b1461036c57600080fd5b806382beee89146102fc578063854cff2f1461030f5780638bad38dd1461032257600080fd5b806368bde41f1461029557806369285727146102a85780636c191eee146102bb578063715018a6146102ce5780637bc02806146102d65780637ec9e156146102e957600080fd5b80634bc66f32116101305780634bc66f32146102135780635399212a1461022657806354ea39281461024757806354fd4d501461025a5780635e7b4e401461027a578063607b6d161461028d57600080fd5b80627743601461017757806306c75b6a146101a757806331c315df146101bc57806336683100146101cf5780634793221d146101e05780634929242714610200575b600080fd5b61018a6101853660046118b5565b61037f565b6040516001600160a01b0390911681526020015b60405180910390f35b6101ba6101b5366004611935565b6105d3565b005b61018a6101ca3660046119a7565b6106d7565b60095460405190815260200161019e565b6101f36101ee3660046119d5565b610701565b60405161019e9190611a87565b60035461018a906001600160a01b031681565b60055461018a906001600160a01b031681565b610239610234366004611ad4565b61084e565b60405161019e929190611b5d565b60075461018a906001600160a01b031681565b60408051600481526001602082015260009181019190915260600161019e565b60065461018a906001600160a01b031681565b6101f3610983565b60045461018a906001600160a01b031681565b61018a6102b63660046119a7565b6109e5565b6101ba6102c93660046119d5565b6109f5565b6101ba610a14565b60015461018a906001600160a01b031681565b60025461018a906001600160a01b031681565b6101ba61030a366004611b8b565b610a28565b6101ba61031d366004611b8b565b610a99565b6101ba610330366004611b8b565b610b0a565b6000546001600160a01b031661018a565b6101ba610354366004611b8b565b610b7b565b6101ba610367366004611b8b565b610bec565b6101ba61037a366004611b8b565b610c5d565b60075460405163147d305b60e31b81523360048201526000916001600160a01b03169063a3e982d890602401602060405180830381865afa1580156103c8573d6000803e3d6000fd5b505050506040513d601f19601f820116820180604052508101906103ec9190611ba8565b610409576040516393afd58960e01b815260040160405180910390fd5b600080838060200190518101906104209190611bca565b5050505050505091509150600080610438848461084e565b600354600454600554604080516001600160a01b039485166020820152928416908301529190911660608201529193509150600090608001604051602081830303815290604052905060008383610497886001600160a01b0316610cdb565b6040516020016104a993929190611c86565b60405160208183030381529060405290506000805160206120838339815191526040516104f9906020808252600f908201526e41424f555420544f204445504c4f5960881b604082015260600190565b60405180910390a161050c888383610d9b565b60065460405163615bdddb60e11b81526001600160a01b03808416600483015292995091169063c2b7bbb690602401600060405180830381600087803b15801561055557600080fd5b505af1158015610569573d6000803e3d6000fd5b50505050846001600160a01b0316866001600160a01b0316886001600160a01b03167f9303649990c462969a3c46d4e2c758166e92f5a4b18c67f26d3e58d2b0660e67878c87876040516105c09493929190611cbf565b60405180910390a4505050505050919050565b6105db6110b7565b600061062083838080601f016020809104026020016040519081016040528093929190818152602001838380828437600092018290525092506132c891506111119050565b905061062b8161121e565b600180546001600160a01b0319166001600160a01b03929092169190911790556132c88211156106d25760006106a584848080601f0160208091040260200160405190810160405280939291908181526020018383808284376000920191909152506132c892506106a0915082905087611d2d565b611111565b90506106b08161121e565b600280546001600160a01b0319166001600160a01b0392909216919091179055505b505050565b600981815481106106e757600080fd5b6000918252602090912001546001600160a01b0316905081565b6003546060906001600160a01b0316331461072f5760405163363afff160e21b815260040160405180910390fd5b81516000908067ffffffffffffffff81111561074d5761074d611846565b604051908082528060200260200182016040528015610776578160200160208202803683370190505b50925060005b818110156108465784818151811061079657610796611d40565b60200260200101519250826001600160a01b0316638456cb596040518163ffffffff1660e01b8152600401600060405180830381600087803b1580156107db57600080fd5b505af19250505080156107ec575060015b1561083e5784818151811061080357610803611d40565b602002602001015184828151811061081d5761081d611d40565b60200260200101906001600160a01b031690816001600160a01b0316815250505b60010161077c565b505050919050565b6060806000600660009054906101000a90046001600160a01b03166001600160a01b031663366831006040518163ffffffff1660e01b8152600401602060405180830381865afa1580156108a6573d6000803e3d6000fd5b505050506040513d601f19601f820116820180604052508101906108ca9190611d56565b90506108de856001600160a01b03166112c3565b6108f0856001600160a01b031661137e565b6109036108fe846001611d6f565b6113c5565b60405160200161091593929190611d82565b6040516020818303038152906040529250610938856001600160a01b03166112c3565b61094a856001600160a01b03166112c3565b6109586108fe846001611d6f565b60405160200161096a93929190611e18565b6040516020818303038152906040529150509250929050565b606060098054806020026020016040519081016040528092919081815260200182805480156109db57602002820191906000526020600020905b81546001600160a01b031681526001909101906020018083116109bd575b5050505050905090565b600881815481106106e757600080fd5b6109fd6110b7565b8051610a109060089060208401906117cc565b5050565b610a1c6110b7565b610a266000611458565b565b610a306110b7565b600354604080516001600160a01b03928316815291831660208301527f4cb8c9e37efb94c6cdbd2a80fe36cee1957b5584d1a1986fa2bae115180af59a910160405180910390a1600380546001600160a01b0319166001600160a01b0392909216919091179055565b610aa16110b7565b600754604080516001600160a01b03928316815291831660208301527fe8664b925e623f88e598288ed83ff0a0c9b17d50f56ec07db74f075ca4c1d57b910160405180910390a1600780546001600160a01b0319166001600160a01b0392909216919091179055565b610b126110b7565b600454604080516001600160a01b03928316815291831660208301527ff45d882a72fce9d8d7a7e2e196a338d4d9d4057510b4b9ddf91a7066104d2eaf910160405180910390a1600480546001600160a01b0319166001600160a01b0392909216919091179055565b610b836110b7565b600654604080516001600160a01b03928316815291831660208301527fa6cdf06494ab3c79fae6cca5316f6324ff80979c2a51d8f239aee07a4aecd35b910160405180910390a1600680546001600160a01b0319166001600160a01b0392909216919091179055565b610bf46110b7565b600554604080516001600160a01b03928316815291831660208301527f91aa98337922135c1d3ae8654f8d0b938c01a35c402eb21e568af3755e4dcd79910160405180910390a1600580546001600160a01b0319166001600160a01b0392909216919091179055565b610c656110b7565b6001600160a01b038116610ccf5760405162461bcd60e51b815260206004820152602660248201527f4f776e61626c653a206e6577206f776e657220697320746865207a65726f206160448201526564647265737360d01b60648201526084015b60405180910390fd5b610cd881611458565b50565b60408051600481526024810182526020810180516001600160e01b031663313ce56760e01b1790529051600091829182916001600160a01b03861691610d219190611e8e565b600060405180830381855afa9150503d8060008114610d5c576040519150601f19603f3d011682016040523d82523d6000602084013e610d61565b606091505b5091509150818015610d74575080516020145b610d7f576012610d93565b80806020019051810190610d939190611eaa565b949350505050565b6000600080516020612083833981519152604051610de29060208082526015908201527447455454494e47204352454154494f4e20434f444560581b604082015260600190565b60405180910390a1600154600090610e2090610e06906001600160a01b03166114a8565b600254610e1b906001600160a01b03166114a8565b6114cf565b9050600080516020612083833981519152604051610e629060208082526010908201526f47455454494e472042595445434f444560801b604082015260600190565b60405180910390a1600081868686604051602001610e8293929190611ecd565b60408051601f1981840301815290829052610ea09291602001611f10565b6040516020818303038152906040529050600080516020612083833981519152604051610eed906020808252600c908201526b11d15515125391c814d0531560a21b604082015260600190565b60405180910390a16000868686604051602001610f0c93929190611f3f565b604051602081830303815290604052805190602001209050808251602084016000f593506001600160a01b038416610f5757604051630252d9f760e11b815260040160405180910390fd5b6009805460018101825560009182527f6e1540171b6c0c960b71a7020d9f60077f6af931a8bbf590da0223dacf75c7af0180546001600160a01b0319166001600160a01b038716179055600880546040805160208084028201810190925282815288949390929091830182828015610ff857602002820191906000526020600020905b81546001600160a01b03168152600190910190602001808311610fda575b5050505050905060005b81518110156110aa57826001600160a01b0316633f2617cb83838151811061102c5761102c611d40565b60209081029190910101516040516001600160e01b031960e084901b1681526001600160a01b03909116600482015260016024820152604401600060405180830381600087803b15801561107f57600080fd5b505af1158015611093573d6000803e3d6000fd5b5050505080806110a290611f82565b915050611002565b5050505050509392505050565b6000546001600160a01b03163314610a265760405162461bcd60e51b815260206004820181905260248201527f4f776e61626c653a2063616c6c6572206973206e6f7420746865206f776e65726044820152606401610cc6565b60608161111f81601f611d6f565b101561115e5760405162461bcd60e51b815260206004820152600e60248201526d736c6963655f6f766572666c6f7760901b6044820152606401610cc6565b6111688284611d6f565b845110156111ac5760405162461bcd60e51b8152602060048201526011602482015270736c6963655f6f75744f66426f756e647360781b6044820152606401610cc6565b6060821580156111cb5760405191506000825260208201604052611215565b6040519150601f8416801560200281840101858101878315602002848b0101015b818310156112045780518352602092830192016111ec565b5050858452601f01601f1916604052505b50949350505050565b600080826040516020016112329190611f9b565b60405160208183030381529060405290506000816040516020016112569190611fc1565b60405160208183030381529060405290508051602082016000f092506001600160a01b0383166112bc5760405162461bcd60e51b81526020600482015260116024820152701111541313d65351539517d19052531151607a1b6044820152606401610cc6565b5050919050565b60408051600481526024810182526020810180516001600160e01b03166395d89b4160e01b179052905160609160009182916001600160a01b0386169161130a9190611e8e565b600060405180830381855afa9150503d8060008114611345576040519150601f19603f3d011682016040523d82523d6000602084013e61134a565b606091505b50915091508161137557604051806040016040528060038152602001623f3f3f60e81b815250610d93565b610d938161154c565b60408051600481526024810182526020810180516001600160e01b03166306fdde0360e01b179052905160609160009182916001600160a01b0386169161130a9190611e8e565b606060006113d2836116d1565b600101905060008167ffffffffffffffff8111156113f2576113f2611846565b6040519080825280601f01601f19166020018201604052801561141c576020820181803683370190505b5090508181016020015b600019016f181899199a1a9b1b9c1cb0b131b232b360811b600a86061a8153600a850494508461142657509392505050565b600080546001600160a01b038381166001600160a01b0319831681178455604051919092169283917f8be0079c531659141344cd1fd0a4f28419497f9722a3daafe3b4186f6b6457e09190a35050565b60606114c98260016114c4816001600160a01b0384163b611d2d565b6117a9565b92915050565b6060806040519050835180825260208201818101602087015b818310156115005780518352602092830192016114e8565b50855184518101855292509050808201602086015b8183101561152d578051835260209283019201611515565b508651929092011591909101601f01601f191660405250905092915050565b6060604082511061156b57818060200190518101906114c99190611ff5565b81516020036116b25760005b60208160ff161080156115ac5750828160ff168151811061159a5761159a611d40565b01602001516001600160f81b03191615155b156115c357806115bb81612063565b915050611577565b60008160ff1667ffffffffffffffff8111156115e1576115e1611846565b6040519080825280601f01601f19166020018201604052801561160b576020820181803683370190505b509050600091505b60208260ff161080156116485750838260ff168151811061163657611636611d40565b01602001516001600160f81b03191615155b156116ab57838260ff168151811061166257611662611d40565b602001015160f81c60f81b818360ff168151811061168257611682611d40565b60200101906001600160f81b031916908160001a905350816116a381612063565b925050611613565b9392505050565b50506040805180820190915260038152623f3f3f60e81b602082015290565b60008072184f03e93ff9f4daa797ed6e38ed64bf6a1f0160401b83106117105772184f03e93ff9f4daa797ed6e38ed64bf6a1f0160401b830492506040015b6d04ee2d6d415b85acef8100000000831061173c576d04ee2d6d415b85acef8100000000830492506020015b662386f26fc10000831061175a57662386f26fc10000830492506010015b6305f5e1008310611772576305f5e100830492506008015b612710831061178657612710830492506004015b60648310611798576064830492506002015b600a83106114c95760010192915050565b60408051603f8301601f19168101909152818152818360208301863c9392505050565b828054828255906000526020600020908101928215611821579160200282015b8281111561182157825182546001600160a01b0319166001600160a01b039091161782556020909201916001909101906117ec565b5061182d929150611831565b5090565b5b8082111561182d5760008155600101611832565b634e487b7160e01b600052604160045260246000fd5b604051601f8201601f1916810167ffffffffffffffff8111828210171561188557611885611846565b604052919050565b600067ffffffffffffffff8211156118a7576118a7611846565b50601f01601f191660200190565b6000602082840312156118c757600080fd5b813567ffffffffffffffff8111156118de57600080fd5b8201601f810184136118ef57600080fd5b80356119026118fd8261188d565b61185c565b81815285602083850101111561191757600080fd5b81602084016020830137600091810160200191909152949350505050565b6000806020838503121561194857600080fd5b823567ffffffffffffffff8082111561196057600080fd5b818501915085601f83011261197457600080fd5b81358181111561198357600080fd5b86602082850101111561199557600080fd5b60209290920196919550909350505050565b6000602082840312156119b957600080fd5b5035919050565b6001600160a01b0381168114610cd857600080fd5b600060208083850312156119e857600080fd5b823567ffffffffffffffff80821115611a0057600080fd5b818501915085601f830112611a1457600080fd5b813581811115611a2657611a26611846565b8060051b9150611a3784830161185c565b8181529183018401918481019088841115611a5157600080fd5b938501935b83851015611a7b5784359250611a6b836119c0565b8282529385019390850190611a56565b98975050505050505050565b6020808252825182820181905260009190848201906040850190845b81811015611ac85783516001600160a01b031683529284019291840191600101611aa3565b50909695505050505050565b60008060408385031215611ae757600080fd5b8235611af2816119c0565b91506020830135611b02816119c0565b809150509250929050565b60005b83811015611b28578181015183820152602001611b10565b50506000910152565b60008151808452611b49816020860160208601611b0d565b601f01601f19169290920160200192915050565b604081526000611b706040830185611b31565b8281036020840152611b828185611b31565b95945050505050565b600060208284031215611b9d57600080fd5b81356116ab816119c0565b600060208284031215611bba57600080fd5b815180151581146116ab57600080fd5b60008060008060008060008060006101208a8c031215611be957600080fd5b8951611bf4816119c0565b60208b0151909950611c05816119c0565b60408b0151909850611c16816119c0565b60608b015190975063ffffffff81168114611c3057600080fd5b60808b0151909650611c41816119c0565b60a08b015190955067ffffffffffffffff81168114611c5f57600080fd5b8094505060c08a0151925060e08a015191506101008a015190509295985092959850929598565b606081526000611c996060830186611b31565b8281036020840152611cab8186611b31565b91505060ff83166040830152949350505050565b608081526000611cd26080830187611b31565b8281036020840152611ce48187611b31565b90508281036040840152611cf88186611b31565b90508281036060840152611d0c8185611b31565b979650505050505050565b634e487b7160e01b600052601160045260246000fd5b818103818111156114c9576114c9611d17565b634e487b7160e01b600052603260045260246000fd5b600060208284031215611d6857600080fd5b5051919050565b808201808211156114c9576114c9611d17565b7f467261786c656e6420496e7465726573742042656172696e6720000000000000815260008451611dba81601a850160208901611b0d565b61040560f31b601a918401918201528451611ddc81601c840160208901611b0d565b808201915050602960f81b601c8201526201016960ed1b601d8201528351611e0b816020840160208801611b0d565b0160200195945050505050565b603360f91b815260008451611e34816001850160208901611b0d565b600560fb1b6001918401918201528451611e55816002840160208901611b0d565b602960f81b60029290910191820152602d60f81b60038201528351611e81816004840160208801611b0d565b0160040195945050505050565b60008251611ea0818460208701611b0d565b9190910192915050565b600060208284031215611ebc57600080fd5b815160ff811681146116ab57600080fd5b606081526000611ee06060830186611b31565b8281036020840152611ef28186611b31565b90508281036040840152611f068185611b31565b9695505050505050565b60008351611f22818460208801611b0d565b835190830190611f36818360208801611b0d565b01949350505050565b60008451611f51818460208901611b0d565b845190830190611f65818360208901611b0d565b8451910190611f78818360208801611b0d565b0195945050505050565b600060018201611f9457611f94611d17565b5060010190565b6000815260008251611fb4816001850160208701611b0d565b9190910160010192915050565b6a600b5981380380925939f360a81b81528151600090611fe881600b850160208701611b0d565b91909101600b0192915050565b60006020828403121561200757600080fd5b815167ffffffffffffffff81111561201e57600080fd5b8201601f8101841361202f57600080fd5b805161203d6118fd8261188d565b81815285602083850101111561205257600080fd5b611b82826020830160208601611b0d565b600060ff821660ff810361207957612079611d17565b6001019291505056fe7cdb51e9dbbc205231228146c3246e7f914aa6d4a33170e43ecc8e3593481d1aa2646970667358221220325c83d4389b3d0c7e84a16cd701240f74cbdb5264731242904645f02d3d666964736f6c63430008130033","linkReferences":{}},"methodIdentifiers":{"circuitBreakerAddress()":"49292427","comptrollerAddress()":"68bde41f","contractAddress1()":"7bc02806","contractAddress2()":"7ec9e156","defaultSwappers(uint256)":"69285727","deploy(bytes)":"00774360","deployedPairsArray(uint256)":"31c315df","deployedPairsLength()":"36683100","fraxlendPairRegistryAddress()":"5e7b4e40","fraxlendWhitelistAddress()":"54ea3928","getAllPairAddresses()":"607b6d16","getNextNameSymbol(address,address)":"5399212a","globalPause(address[])":"4793221d","owner()":"8da5cb5b","renounceOwnership()":"715018a6","setCircuitBreaker(address)":"82beee89","setComptroller(address)":"8bad38dd","setCreationCode(bytes)":"06c75b6a","setDefaultSwappers(address[])":"6c191eee","setRegistry(address)":"a91ee0dc","setTimelock(address)":"bdacb303","setWhitelist(address)":"854cff2f","timelockAddress()":"4bc66f32","transferOwnership(address)":"f2fde38b","version()":"54fd4d50"},"id":132}