{"abi":[{"type":"constructor","inputs":[{"name":"_suffix","type":"string","internalType":"string"},{"name":"_vertexUtilization","type":"uint256","internalType":"uint256"},{"name":"_vertexRatePercentOfDelta","type":"uint256","internalType":"uint256"},{"name":"_minUtil","type":"uint256","internalType":"uint256"},{"name":"_maxUtil","type":"uint256","internalType":"uint256"},{"name":"_zeroUtilizationRate","type":"uint256","internalType":"uint256"},{"name":"_minFullUtilizationRate","type":"uint256","internalType":"uint256"},{"name":"_maxFullUtilizationRate","type":"uint256","internalType":"uint256"},{"name":"_rateHalfLife","type":"uint256","internalType":"uint256"}],"stateMutability":"nonpayable"},{"type":"function","name":"MAX_FULL_UTIL_RATE","inputs":[],"outputs":[{"name":"","type":"uint256","internalType":"uint256"}],"stateMutability":"view"},{"type":"function","name":"MAX_TARGET_UTIL","inputs":[],"outputs":[{"name":"","type":"uint256","internalType":"uint256"}],"stateMutability":"view"},{"type":"function","name":"MIN_FULL_UTIL_RATE","inputs":[],"outputs":[{"name":"","type":"uint256","internalType":"uint256"}],"stateMutability":"view"},{"type":"function","name":"MIN_TARGET_UTIL","inputs":[],"outputs":[{"name":"","type":"uint256","internalType":"uint256"}],"stateMutability":"view"},{"type":"function","name":"RATE_HALF_LIFE","inputs":[],"outputs":[{"name":"","type":"uint256","internalType":"uint256"}],"stateMutability":"view"},{"type":"function","name":"RATE_PREC","inputs":[],"outputs":[{"name":"","type":"uint256","internalType":"uint256"}],"stateMutability":"view"},{"type":"function","name":"UTIL_PREC","inputs":[],"outputs":[{"name":"","type":"uint256","internalType":"uint256"}],"stateMutability":"view"},{"type":"function","name":"VERTEX_RATE_PERCENT","inputs":[],"outputs":[{"name":"","type":"uint256","internalType":"uint256"}],"stateMutability":"view"},{"type":"function","name":"VERTEX_UTILIZATION","inputs":[],"outputs":[{"name":"","type":"uint256","internalType":"uint256"}],"stateMutability":"view"},{"type":"function","name":"ZERO_UTIL_RATE","inputs":[],"outputs":[{"name":"","type":"uint256","internalType":"uint256"}],"stateMutability":"view"},{"type":"function","name":"getNewRate","inputs":[{"name":"_deltaTime","type":"uint256","internalType":"uint256"},{"name":"_utilization","type":"uint256","internalType":"uint256"},{"name":"_oldFullUtilizationInterest","type":"uint64","internalType":"uint64"}],"outputs":[{"name":"_newRatePerSec","type":"uint64","internalType":"uint64"},{"name":"_newFullUtilizationInterest","type":"uint64","internalType":"uint64"}],"stateMutability":"view"},{"type":"function","name":"name","inputs":[],"outputs":[{"name":"","type":"string","internalType":"string"}],"stateMutability":"view"},{"type":"function","name":"suffix","inputs":[],"outputs":[{"name":"","type":"string","internalType":"string"}],"stateMutability":"view"},{"type":"function","name":"version","inputs":[],"outputs":[{"name":"_major","type":"uint256","internalType":"uint256"},{"name":"_minor","type":"uint256","internalType":"uint256"},{"name":"_patch","type":"uint256","internalType":"uint256"}],"stateMutability":"pure"}],"bytecode":{"object":"0x6101806040523480156200001257600080fd5b5060405162000ecf38038062000ecf83398101604081905262000035916200008f565b6000620000438a8262000241565b5060809590955260a09390935260c0959095526101205260e093909352610100929092526101409190915261016052506200030d565b634e487b7160e01b600052604160045260246000fd5b60008060008060008060008060006101208a8c031215620000af57600080fd5b89516001600160401b0380821115620000c757600080fd5b818c0191508c601f830112620000dc57600080fd5b815181811115620000f157620000f162000079565b604051601f8201601f19908116603f011681019083821181831017156200011c576200011c62000079565b81604052828152602093508f848487010111156200013957600080fd5b600091505b828210156200015d57848201840151818301850152908301906200013e565b6000848483010152809d50505050808c01519950505060408a0151965060608a0151955060808a0151945060a08a0151935060c08a0151925060e08a015191506101008a015190509295985092959850929598565b600181811c90821680620001c757607f821691505b602082108103620001e857634e487b7160e01b600052602260045260246000fd5b50919050565b601f8211156200023c57600081815260208120601f850160051c81016020861015620002175750805b601f850160051c820191505b81811015620002385782815560010162000223565b5050505b505050565b81516001600160401b038111156200025d576200025d62000079565b62000275816200026e8454620001b2565b84620001ee565b602080601f831160018114620002ad5760008415620002945750858301515b600019600386901b1c1916600185901b17855562000238565b600085815260208120601f198616915b82811015620002de57888601518255948401946001909101908401620002bd565b5085821015620002fd5787850151600019600388901b60f8161c191681555b5050505050600190811b01905550565b60805160a05160c05160e05161010051610120516101405161016051610aca62000405600039600081816102170152610329015260008181610142015281816105e80152818161062e0152818161074401526107890152600081816101e1015281816102ff015281816103ca015261040901526000818160f3015281816107d601526108090152600081816101690152818161082f01526108620152600081816102650152818161037e015281816103a601528181610439015261047a0152600081816101900152818161068b015281816106b801526106e501526000818161023e0152818161055b01526105850152610aca6000f3fe608060405234801561001057600080fd5b50600436106100e95760003560e01c80638e75618c1161008c5780639c073270116100665780639c07327014610239578063c416812514610260578063cd3181d514610287578063f7073c3a146102bb57600080fd5b80638e75618c146101dc57806391474c491461020357806395da99fc1461021257600080fd5b806331bf879d116100c857806331bf879d1461016457806340797eda1461018b57806354fd4d50146101b25780636cd3cc77146101d257600080fd5b80624c98af146100ee57806306fdde031461012857806317784ca41461013d575b600080fd5b6101157f000000000000000000000000000000000000000000000000000000000000000081565b6040519081526020015b60405180910390f35b6101306102c3565b60405161011f9190610889565b6101157f000000000000000000000000000000000000000000000000000000000000000081565b6101157f000000000000000000000000000000000000000000000000000000000000000081565b6101157f000000000000000000000000000000000000000000000000000000000000000081565b60026000806040805193845260208401929092529082015260600161011f565b610115620186a081565b6101157f000000000000000000000000000000000000000000000000000000000000000081565b610115670de0b6b3a764000081565b6101157f000000000000000000000000000000000000000000000000000000000000000081565b6101157f000000000000000000000000000000000000000000000000000000000000000081565b6101157f000000000000000000000000000000000000000000000000000000000000000081565b61029a6102953660046108d7565b6102eb565b6040805167ffffffffffffffff93841681529290911660208301520161011f565b6101306104c9565b606060006040516020016102d79190610957565b604051602081830303815290604052905090565b6000806102f9858585610557565b905060007f0000000000000000000000000000000000000000000000000000000000000000670de0b6b3a76400007f000000000000000000000000000000000000000000000000000000000000000061035c8367ffffffffffffffff8716610a2f565b6103669190610a48565b6103709190610a5f565b61037a9190610a81565b90507f0000000000000000000000000000000000000000000000000000000000000000851015610434577f00000000000000000000000000000000000000000000000000000000000000006103ef7f000000000000000000000000000000000000000000000000000000000000000083610a2f565b6103f99087610a48565b6104039190610a5f565b61042d907f0000000000000000000000000000000000000000000000000000000000000000610a81565b92506104c0565b6104617f0000000000000000000000000000000000000000000000000000000000000000620186a0610a2f565b6104758267ffffffffffffffff8516610a2f565b61049f7f000000000000000000000000000000000000000000000000000000000000000088610a2f565b6104a99190610a48565b6104b39190610a5f565b6104bd9082610a81565b92505b50935093915050565b600080546104d69061091d565b80601f01602080910402602001604051908101604052809291908181526020018280546105029061091d565b801561054f5780601f106105245761010080835404028352916020019161054f565b820191906000526020600020905b81548152906001019060200180831161053257829003601f168201915b505050505081565b60007f00000000000000000000000000000000000000000000000000000000000000008310156106895760007f00000000000000000000000000000000000000000000000000000000000000006105ae8582610a2f565b6105c090670de0b6b3a7640000610a48565b6105ca9190610a5f565b90506000856105d98380610a48565b6105e39190610a48565b61061c7f00000000000000000000000000000000000000000000000000000000000000006ec097ce7bc90715b34b9f1000000000610a48565b6106269190610a81565b9050806106627f00000000000000000000000000000000000000000000000000000000000000006ec097ce7bc90715b34b9f1000000000610a48565b6106769067ffffffffffffffff8716610a48565b6106809190610a5f565b925050506107d4565b7f00000000000000000000000000000000000000000000000000000000000000008311156107d15760006106e07f0000000000000000000000000000000000000000000000000000000000000000620186a0610a2f565b61070a7f000000000000000000000000000000000000000000000000000000000000000086610a2f565b61071c90670de0b6b3a7640000610a48565b6107269190610a5f565b90506000856107358380610a48565b61073f9190610a48565b6107787f00000000000000000000000000000000000000000000000000000000000000006ec097ce7bc90715b34b9f1000000000610a48565b6107829190610a81565b90506107bd7f00000000000000000000000000000000000000000000000000000000000000006ec097ce7bc90715b34b9f1000000000610a48565b6106768267ffffffffffffffff8716610a48565b50805b7f00000000000000000000000000000000000000000000000000000000000000008167ffffffffffffffff16111561082d57507f0000000000000000000000000000000000000000000000000000000000000000610882565b7f00000000000000000000000000000000000000000000000000000000000000008167ffffffffffffffff16101561088257507f00000000000000000000000000000000000000000000000000000000000000005b9392505050565b600060208083528351808285015260005b818110156108b65785810183015185820160400152820161089a565b506000604082860101526040601f19601f8301168501019250505092915050565b6000806000606084860312156108ec57600080fd5b8335925060208401359150604084013567ffffffffffffffff8116811461091257600080fd5b809150509250925092565b600181811c9082168061093157607f821691505b60208210810361095157634e487b7160e01b600052602260045260246000fd5b50919050565b7002b30b934b0b13632902930ba32902b191607d1b8152600060116000845481600182811c91508083168061098d57607f831692505b602080841082036109ac57634e487b7160e01b86526022600452602486fd5b8180156109c057600181146109d957610a0a565b60ff1986168a89015284151585028a0188019650610a0a565b60008b81526020902060005b86811015610a005781548c82018b01529085019083016109e5565b505087858b010196505b50949998505050505050505050565b634e487b7160e01b600052601160045260246000fd5b81810381811115610a4257610a42610a19565b92915050565b8082028115828204841417610a4257610a42610a19565b600082610a7c57634e487b7160e01b600052601260045260246000fd5b500490565b80820180821115610a4257610a42610a1956fea26469706673582212205777dacb473aa2998f079cda5a2017ce6f3e3af8585b47f5e80009c50ebbf9b264736f6c63430008130033","linkReferences":{}},"methodIdentifiers":{"MAX_FULL_UTIL_RATE()":"004c98af","MAX_TARGET_UTIL()":"40797eda","MIN_FULL_UTIL_RATE()":"31bf879d","MIN_TARGET_UTIL()":"9c073270","RATE_HALF_LIFE()":"17784ca4","RATE_PREC()":"91474c49","UTIL_PREC()":"6cd3cc77","VERTEX_RATE_PERCENT()":"95da99fc","VERTEX_UTILIZATION()":"c4168125","ZERO_UTIL_RATE()":"8e75618c","getNewRate(uint256,uint256,uint64)":"cd3181d5","name()":"06fdde03","suffix()":"f7073c3a","version()":"54fd4d50"},"id":136}