{"abi":[{"type":"function","name":"addIndex","inputs":[{"name":"_index","type":"address","internalType":"address"},{"name":"_verified","type":"bool","internalType":"bool"}],"outputs":[],"stateMutability":"nonpayable"},{"type":"function","name":"allIndexes","inputs":[],"outputs":[{"name":"","type":"tuple[]","internalType":"struct IIndexManager.IIndexAndStatus[]","components":[{"name":"index","type":"address","internalType":"address"},{"name":"verified","type":"bool","internalType":"bool"}]}],"stateMutability":"view"},{"type":"function","name":"authorized","inputs":[{"name":"","type":"address","internalType":"address"}],"outputs":[{"name":"","type":"bool","internalType":"bool"}],"stateMutability":"view"},{"type":"function","name":"indexLength","inputs":[],"outputs":[{"name":"","type":"uint256","internalType":"uint256"}],"stateMutability":"view"},{"type":"function","name":"indexes","inputs":[{"name":"","type":"uint256","internalType":"uint256"}],"outputs":[{"name":"index","type":"address","internalType":"address"},{"name":"verified","type":"bool","internalType":"bool"}],"stateMutability":"view"},{"type":"function","name":"owner","inputs":[],"outputs":[{"name":"","type":"address","internalType":"address"}],"stateMutability":"view"},{"type":"function","name":"removeIndex","inputs":[{"name":"_indexIdx","type":"uint256","internalType":"uint256"}],"outputs":[],"stateMutability":"nonpayable"},{"type":"function","name":"renounceOwnership","inputs":[],"outputs":[],"stateMutability":"nonpayable"},{"type":"function","name":"setAuthorized","inputs":[{"name":"_auth","type":"address","internalType":"address"},{"name":"_isAuthed","type":"bool","internalType":"bool"}],"outputs":[],"stateMutability":"nonpayable"},{"type":"function","name":"transferOwnership","inputs":[{"name":"newOwner","type":"address","internalType":"address"}],"outputs":[],"stateMutability":"nonpayable"},{"type":"function","name":"verifyIndex","inputs":[{"name":"_indexIdx","type":"uint256","internalType":"uint256"},{"name":"_verified","type":"bool","internalType":"bool"}],"outputs":[],"stateMutability":"nonpayable"},{"type":"event","name":"AddIndex","inputs":[{"name":"index","type":"address","indexed":true,"internalType":"address"},{"name":"verified","type":"bool","indexed":false,"internalType":"bool"}],"anonymous":false},{"type":"event","name":"OwnershipTransferred","inputs":[{"name":"previousOwner","type":"address","indexed":true,"internalType":"address"},{"name":"newOwner","type":"address","indexed":true,"internalType":"address"}],"anonymous":false},{"type":"event","name":"RemoveIndex","inputs":[{"name":"index","type":"address","indexed":true,"internalType":"address"}],"anonymous":false},{"type":"event","name":"SetVerified","inputs":[{"name":"index","type":"address","indexed":true,"internalType":"address"},{"name":"verified","type":"bool","indexed":false,"internalType":"bool"}],"anonymous":false}],"bytecode":{"object":"0x608060405234801561001057600080fd5b5061001a3361001f565b61006f565b600080546001600160a01b038381166001600160a01b0319831681178455604051919092169283917f8be0079c531659141344cd1fd0a4f28419497f9722a3daafe3b4186f6b6457e09190a35050565b610a168061007e6000396000f3fe608060405234801561001057600080fd5b50600436106100a95760003560e01c806392f8eb941161007157806392f8eb9414610117578063b918161114610149578063c0d43e921461017c578063c8bb46ab1461018f578063f2fde38b146101a0578063f53d9ec1146101b357600080fd5b8063257c4629146100ae5780636171e40d146100c3578063711bf9b2146100e1578063715018a6146100f45780638da5cb5b146100fc575b600080fd5b6100c16100bc36600461087c565b6101c6565b005b6100cb6102cb565b6040516100d891906108af565b60405180910390f35b6100c16100ef36600461087c565b610343565b6100c1610410565b6000546040516001600160a01b0390911681526020016100d8565b61012a610125366004610909565b610424565b604080516001600160a01b0390931683529015156020830152016100d8565b61016c610157366004610922565b60026020526000908152604090205460ff1681565b60405190151581526020016100d8565b6100c161018a366004610944565b610459565b6001546040519081526020016100d8565b6100c16101ae366004610922565b61059b565b6100c16101c1366004610909565b610614565b600080546001600160a01b03163314806101ef57503360009081526002602052604090205460ff165b9050806102175760405162461bcd60e51b815260040161020e90610967565b60405180910390fd5b6040805180820182526001600160a01b03858116808352851515602080850182815260018054808201825560009190915295517fb10e2d527612073b26eecdfd717e6a320cf44b4afac2b0732d9fcbe2b7fa0cf6909601805491511515600160a01b026001600160a81b031990921696909516959095179490941790925592519081527fd6c7c45c9b719d31439f7621e4f3d0864f3ec71d544b159e02df8e54f7f8644091015b60405180910390a2505050565b60606001805480602002602001604051908101604052809291908181526020016000905b8282101561033a57600084815260209081902060408051808201909152908401546001600160a01b0381168252600160a01b900460ff161515818301528252600190920191016102ef565b50505050905090565b600080546001600160a01b031633148061036c57503360009081526002602052604090205460ff165b90508061038b5760405162461bcd60e51b815260040161020e90610967565b6001600160a01b03831660009081526002602052604090205482151560ff9091161515036103e45760405162461bcd60e51b81526020600482015260066024820152654348414e474560d01b604482015260640161020e565b506001600160a01b03919091166000908152600260205260409020805460ff1916911515919091179055565b6104186107a6565b6104226000610800565b565b6001818154811061043457600080fd5b6000918252602090912001546001600160a01b0381169150600160a01b900460ff1682565b600080546001600160a01b031633148061048257503360009081526002602052604090205460ff165b9050806104a15760405162461bcd60e51b815260040161020e90610967565b811515600184815481106104b7576104b761098d565b600091825260209091200154600160a01b900460ff161515036105055760405162461bcd60e51b81526020600482015260066024820152654348414e474560d01b604482015260640161020e565b81600184815481106105195761051961098d565b60009182526020909120018054911515600160a01b0260ff60a01b1990921691909117905560018054849081106105525761055261098d565b6000918252602091829020015460405184151581526001600160a01b03909116917f10588b087899f367a886cecce4b60fe07afd4e46f9820985ce9e593b86f746bc91016102be565b6105a36107a6565b6001600160a01b0381166106085760405162461bcd60e51b815260206004820152602660248201527f4f776e61626c653a206e6577206f776e657220697320746865207a65726f206160448201526564647265737360d01b606482015260840161020e565b61061181610800565b50565b600080546001600160a01b031633148061063d57503360009081526002602052604090205460ff165b90508061065c5760405162461bcd60e51b815260040161020e90610967565b6000600183815481106106715761067161098d565b6000918252602091829020604080518082019091529101546001600160a01b0381168252600160a01b900460ff1615159181019190915260018054919250906106bb9082906109a3565b815481106106cb576106cb61098d565b90600052602060002001600184815481106106e8576106e861098d565b600091825260209091208254910180546001600160a01b039092166001600160a01b031983168117825592546001600160a81b0319909216909217600160a01b9182900460ff1615159091021790556001805480610748576107486109ca565b600082815260208120600019908301810180546001600160a81b031916905590910190915581516040516001600160a01b03909116917f2766b6cc2c2aa2812d03b4416da1f58ea9d70289993b2c8205d6a6927b4cfe5b91a2505050565b6000546001600160a01b031633146104225760405162461bcd60e51b815260206004820181905260248201527f4f776e61626c653a2063616c6c6572206973206e6f7420746865206f776e6572604482015260640161020e565b600080546001600160a01b038381166001600160a01b0319831681178455604051919092169283917f8be0079c531659141344cd1fd0a4f28419497f9722a3daafe3b4186f6b6457e09190a35050565b80356001600160a01b038116811461086757600080fd5b919050565b8035801515811461086757600080fd5b6000806040838503121561088f57600080fd5b61089883610850565b91506108a66020840161086c565b90509250929050565b602080825282518282018190526000919060409081850190868401855b828110156108fc57815180516001600160a01b0316855286015115158685015292840192908501906001016108cc565b5091979650505050505050565b60006020828403121561091b57600080fd5b5035919050565b60006020828403121561093457600080fd5b61093d82610850565b9392505050565b6000806040838503121561095757600080fd5b823591506108a66020840161086c565b6020808252600c908201526b15539055551213d49256915160a21b604082015260600190565b634e487b7160e01b600052603260045260246000fd5b818103818111156109c457634e487b7160e01b600052601160045260246000fd5b92915050565b634e487b7160e01b600052603160045260246000fdfea26469706673582212205b5b29b9ae6761d7f859d50d1d4e2e0ae6a44a127dbc7070e833ec95f7bc2c9464736f6c63430008130033","linkReferences":{}},"methodIdentifiers":{"addIndex(address,bool)":"257c4629","allIndexes()":"6171e40d","authorized(address)":"b9181611","indexLength()":"c8bb46ab","indexes(uint256)":"92f8eb94","owner()":"8da5cb5b","removeIndex(uint256)":"f53d9ec1","renounceOwnership()":"715018a6","setAuthorized(address,bool)":"711bf9b2","transferOwnership(address)":"f2fde38b","verifyIndex(uint256,bool)":"c0d43e92"},"id":5}