{"abi":[{"type":"function","name":"_getSqrtPriceX96FromPool","inputs":[{"name":"_pool","type":"address","internalType":"contract IUniswapV3Pool"},{"name":"_interval","type":"uint32","internalType":"uint32"}],"outputs":[{"name":"_sqrtPriceX96","type":"uint160","internalType":"uint160"}],"stateMutability":"view"},{"type":"function","name":"getPriceUSD18","inputs":[{"name":"_clBaseConversionPoolPriceFeed","type":"address","internalType":"address"},{"name":"_quoteToken","type":"address","internalType":"address"},{"name":"_quoteV3Pool","type":"address","internalType":"address"},{"name":"_twapInterval","type":"uint256","internalType":"uint256"}],"outputs":[{"name":"_isBadData","type":"bool","internalType":"bool"},{"name":"_price18","type":"uint256","internalType":"uint256"}],"stateMutability":"view"},{"type":"function","name":"maxOracleDelay","inputs":[],"outputs":[{"name":"","type":"uint256","internalType":"uint256"}],"stateMutability":"view"},{"type":"function","name":"owner","inputs":[],"outputs":[{"name":"","type":"address","internalType":"address"}],"stateMutability":"view"},{"type":"function","name":"renounceOwnership","inputs":[],"outputs":[],"stateMutability":"nonpayable"},{"type":"function","name":"setMaxOracleDelay","inputs":[{"name":"_newDelaySeconds","type":"uint256","internalType":"uint256"}],"outputs":[],"stateMutability":"nonpayable"},{"type":"function","name":"transferOwnership","inputs":[{"name":"newOwner","type":"address","internalType":"address"}],"outputs":[],"stateMutability":"nonpayable"},{"type":"event","name":"OwnershipTransferred","inputs":[{"name":"previousOwner","type":"address","indexed":true,"internalType":"address"},{"name":"newOwner","type":"address","indexed":true,"internalType":"address"}],"anonymous":false},{"type":"event","name":"SetMaxOracleDelay","inputs":[{"name":"_oldDelay","type":"uint256","indexed":false,"internalType":"uint256"},{"name":"_newDelay","type":"uint256","indexed":false,"internalType":"uint256"}],"anonymous":false},{"type":"error","name":"T","inputs":[]}],"bytecode":{"object":"0x60806040526201518060015534801561001757600080fd5b5061002133610026565b610076565b600080546001600160a01b038381166001600160a01b0319831681178455604051919092169283917f8be0079c531659141344cd1fd0a4f28419497f9722a3daafe3b4186f6b6457e09190a35050565b6113a5806100856000396000f3fe608060405234801561001057600080fd5b506004361061007d5760003560e01c8063715018a61161005b578063715018a6146100f35780638da5cb5b146100fd578063cd3b691c1461010e578063f2fde38b1461012157600080fd5b80630807aa911461008257806315fa572b146100b157806352f1edcc146100dc575b600080fd5b610095610090366004610d6e565b610134565b6040805192151583526020830191909152015b60405180910390f35b6100c46100bf366004610dbf565b6101a7565b6040516001600160a01b0390911681526020016100a8565b6100e560015481565b6040519081526020016100a8565b6100fb610379565b005b6000546001600160a01b03166100c4565b6100fb61011c366004610e01565b61038d565b6100fb61012f366004610e1a565b6103da565b6000806000610144868686610458565b9050670de0b6b3a7640000426001600160a01b0389161561016e5761016889610555565b90925090505b600160601b61017d8385610e4d565b6101879190610e7a565b9350600154426101979190610e8e565b8110945050505094509492505050565b60008163ffffffff1660000361022857826001600160a01b0316633850c7bd6040518163ffffffff1660e01b815260040160e060405180830381865afa1580156101f5573d6000803e3d6000fd5b505050506040513d601f19601f820116820180604052508101906102199190610ec9565b50949550610373945050505050565b604080516002808252606082018352600092602083019080368337019050509050828160008151811061025d5761025d610f7a565b602002602001019063ffffffff16908163ffffffff168152505060008160018151811061028c5761028c610f7a565b63ffffffff9092166020928302919091019091015260405163883bdbfd60e01b81526000906001600160a01b0386169063883bdbfd906102d0908590600401610f90565b600060405180830381865afa1580156102ed573d6000803e3d6000fd5b505050506040513d6000823e601f3d908101601f1916820160405261031591908101906110a3565b50905061036e8460030b8260008151811061033257610332610f7a565b60200260200101518360018151811061034d5761034d610f7a565b602002602001015161035f919061116f565b610369919061119c565b61065e565b925050505b92915050565b610381610981565b61038b60006109db565b565b610395610981565b600180549082905560408051828152602081018490527f489892ab7e2f839a8630c507bc283ea1a98549bf7a6d8a315ebdf78e45794dae910160405180910390a15050565b6103e2610981565b6001600160a01b03811661044c5760405162461bcd60e51b815260206004820152602660248201527f4f776e61626c653a206e6577206f776e657220697320746865207a65726f206160448201526564647265737360d01b60648201526084015b60405180910390fd5b610455816109db565b50565b600080836001600160a01b0316630dfe16816040518163ffffffff1660e01b8152600401602060405180830381865afa158015610499573d6000803e3d6000fd5b505050506040513d601f19601f820116820180604052508101906104bd91906111da565b905061054a8484876001600160a01b0316846001600160a01b0316146104e35783610a2b565b866001600160a01b031663d21220a76040518163ffffffff1660e01b8152600401602060405180830381865afa158015610521573d6000803e3d6000fd5b505050506040513d601f19601f8201168201806040525081019061054591906111da565b610a2b565b9150505b9392505050565b6000806000836001600160a01b031663313ce5676040518163ffffffff1660e01b8152600401602060405180830381865afa158015610598573d6000803e3d6000fd5b505050506040513d601f19601f820116820180604052508101906105bc91906111f7565b9050600080856001600160a01b031663feaf968c6040518163ffffffff1660e01b815260040160a060405180830381865afa1580156105ff573d6000803e3d6000fd5b505050506040513d601f19601f82011682018060405250810190610623919061122c565b5093505092505082600a6106379190611360565b61064990670de0b6b3a7640000610e7a565b6106539083610e4d565b969095509350505050565b60008060008360020b12610675578260020b61067d565b8260020b6000035b9050620d89e88111156106a3576040516315e4079d60e11b815260040160405180910390fd5b6000816001166000036106ba57600160801b6106cc565b6ffffcb933bd6fad37aa2d162d1a5940015b70ffffffffffffffffffffffffffffffffff1690506002821615610700576ffff97272373d413259a46990580e213a0260801c5b600482161561071f576ffff2e50f5f656932ef12357cf3c7fdcc0260801c5b600882161561073e576fffe5caca7e10e4e61c3624eaa0941cd00260801c5b601082161561075d576fffcb9843d60f6159c9db58835c9266440260801c5b602082161561077c576fff973b41fa98c081472e6896dfb254c00260801c5b604082161561079b576fff2ea16466c96a3843ec78b326b528610260801c5b60808216156107ba576ffe5dee046a99a2a811c461f1969c30530260801c5b6101008216156107da576ffcbe86c7900a88aedcffc83b479aa3a40260801c5b6102008216156107fa576ff987a7253ac413176f2b074cf7815e540260801c5b61040082161561081a576ff3392b0822b70005940c7a398e4b70f30260801c5b61080082161561083a576fe7159475a2c29b7443b29c7fa6e889d90260801c5b61100082161561085a576fd097f3bdfd2022b8845ad8f792aa58250260801c5b61200082161561087a576fa9f746462d870fdf8a65dc1f90e061e50260801c5b61400082161561089a576f70d869a156d2a1b890bb3df62baf32f70260801c5b6180008216156108ba576f31be135f97d08fd981231505542fcfa60260801c5b620100008216156108db576f09aa508b5b7a84e1c677de54f3e99bc90260801c5b620200008216156108fb576e5d6af8dedb81196699c329225ee6040260801c5b6204000082161561091a576d2216e584f5fa1ea926041bedfe980260801c5b62080000821615610937576b048a170391f7dc42444e8fa20260801c5b60008460020b131561095857806000198161095457610954610e64565b0490505b64010000000081061561096c57600161096f565b60005b60ff16602082901c0192505050919050565b6000546001600160a01b0316331461038b5760405162461bcd60e51b815260206004820181905260248201527f4f776e61626c653a2063616c6c6572206973206e6f7420746865206f776e65726044820152606401610443565b600080546001600160a01b038381166001600160a01b0319831681178455604051919092169283917f8be0079c531659141344cd1fd0a4f28419497f9722a3daafe3b4186f6b6457e09190a35050565b600080846001600160a01b031663d21220a76040518163ffffffff1660e01b8152600401602060405180830381865afa158015610a6c573d6000803e3d6000fd5b505050506040513d601f19601f82011682018060405250810190610a9091906111da565b90506000856001600160a01b0316630dfe16816040518163ffffffff1660e01b8152600401602060405180830381865afa158015610ad2573d6000803e3d6000fd5b505050506040513d601f19601f82011682018060405250810190610af691906111da565b6001600160a01b031663313ce5676040518163ffffffff1660e01b8152600401602060405180830381865afa158015610b33573d6000803e3d6000fd5b505050506040513d601f19601f82011682018060405250810190610b5791906111f7565b90506000826001600160a01b031663313ce5676040518163ffffffff1660e01b8152600401602060405180830381865afa158015610b99573d6000803e3d6000fd5b505050506040513d601f19601f82011682018060405250810190610bbd91906111f7565b90506000610bcb88886101a7565b90506000610be76001600160a01b03831680600160601b610ca7565b90506000876001600160a01b0316866001600160a01b031614610c235781610c146002600160601b611360565b610c1e9190610e7a565b610c25565b815b9050876001600160a01b0316866001600160a01b031614610c6f57610c4b85600a611360565b610c5685600a611360565b610c609083610e4d565b610c6a9190610e7a565b610c99565b610c7a84600a611360565b610c8586600a611360565b610c8f9083610e4d565b610c999190610e7a565b9a9950505050505050505050565b6000808060001985870985870292508281108382030391505080600003610ce05760008411610cd557600080fd5b50829004905061054e565b808411610cec57600080fd5b6000848688096000868103871696879004966002600389028118808a02820302808a02820302808a02820302808a02820302808a02820302808a02909103029181900381900460010186841190950394909402919094039290920491909117919091029150509392505050565b6001600160a01b038116811461045557600080fd5b60008060008060808587031215610d8457600080fd5b8435610d8f81610d59565b93506020850135610d9f81610d59565b92506040850135610daf81610d59565b9396929550929360600135925050565b60008060408385031215610dd257600080fd5b8235610ddd81610d59565b9150602083013563ffffffff81168114610df657600080fd5b809150509250929050565b600060208284031215610e1357600080fd5b5035919050565b600060208284031215610e2c57600080fd5b813561054e81610d59565b634e487b7160e01b600052601160045260246000fd5b808202811582820484141761037357610373610e37565b634e487b7160e01b600052601260045260246000fd5b600082610e8957610e89610e64565b500490565b8181038181111561037357610373610e37565b805161ffff81168114610eb357600080fd5b919050565b805160ff81168114610eb357600080fd5b600080600080600080600060e0888a031215610ee457600080fd5b8751610eef81610d59565b8097505060208801518060020b8114610f0757600080fd5b9550610f1560408901610ea1565b9450610f2360608901610ea1565b9350610f3160808901610ea1565b9250610f3f60a08901610eb8565b915060c08801518015158114610f5457600080fd5b8091505092959891949750929550565b634e487b7160e01b600052604160045260246000fd5b634e487b7160e01b600052603260045260246000fd5b6020808252825182820181905260009190848201906040850190845b81811015610fce57835163ffffffff1683529284019291840191600101610fac565b50909695505050505050565b604051601f8201601f1916810167ffffffffffffffff8111828210171561100357611003610f64565b604052919050565b600067ffffffffffffffff82111561102557611025610f64565b5060051b60200190565b600082601f83011261104057600080fd5b815160206110556110508361100b565b610fda565b82815260059290921b8401810191818101908684111561107457600080fd5b8286015b8481101561109857805161108b81610d59565b8352918301918301611078565b509695505050505050565b600080604083850312156110b657600080fd5b825167ffffffffffffffff808211156110ce57600080fd5b818501915085601f8301126110e257600080fd5b815160206110f26110508361100b565b82815260059290921b8401810191818101908984111561111157600080fd5b948201945b8386101561113f5785518060060b81146111305760008081fd5b82529482019490820190611116565b9188015191965090935050508082111561115857600080fd5b506111658582860161102f565b9150509250929050565b600682810b9082900b03667fffffffffffff198112667fffffffffffff8213171561037357610373610e37565b60008160060b8360060b806111b3576111b3610e64565b667fffffffffffff198214600019821416156111d1576111d1610e37565b90059392505050565b6000602082840312156111ec57600080fd5b815161054e81610d59565b60006020828403121561120957600080fd5b61054e82610eb8565b805169ffffffffffffffffffff81168114610eb357600080fd5b600080600080600060a0868803121561124457600080fd5b61124d86611212565b945060208601519350604086015192506060860151915061127060808701611212565b90509295509295909350565b600181815b808511156112b757816000190482111561129d5761129d610e37565b808516156112aa57918102915b93841c9390800290611281565b509250929050565b6000826112ce57506001610373565b816112db57506000610373565b81600181146112f157600281146112fb57611317565b6001915050610373565b60ff84111561130c5761130c610e37565b50506001821b610373565b5060208310610133831016604e8410600b841016171561133a575081810a610373565b611344838361127c565b806000190482111561135857611358610e37565b029392505050565b600061054e60ff8416836112bf56fea2646970667358221220fbeab6c474469ad4f875db094af849f598f387054a8baec14ca2ed5733bf120864736f6c63430008130033","linkReferences":{}},"methodIdentifiers":{"_getSqrtPriceX96FromPool(address,uint32)":"15fa572b","getPriceUSD18(address,address,address,uint256)":"0807aa91","maxOracleDelay()":"52f1edcc","owner()":"8da5cb5b","renounceOwnership()":"715018a6","setMaxOracleDelay(uint256)":"cd3b691c","transferOwnership(address)":"f2fde38b"},"id":40}