{"abi":[{"type":"function","name":"getPriceUSD18","inputs":[{"name":"_priceFeedQuote","type":"address","internalType":"address"},{"name":"_priceFeedBase","type":"address","internalType":"address"},{"name":"","type":"address","internalType":"address"},{"name":"","type":"uint256","internalType":"uint256"}],"outputs":[{"name":"_isBadData","type":"bool","internalType":"bool"},{"name":"_price18","type":"uint256","internalType":"uint256"}],"stateMutability":"view"},{"type":"function","name":"maxOracleDelay","inputs":[],"outputs":[{"name":"","type":"uint256","internalType":"uint256"}],"stateMutability":"view"},{"type":"function","name":"owner","inputs":[],"outputs":[{"name":"","type":"address","internalType":"address"}],"stateMutability":"view"},{"type":"function","name":"renounceOwnership","inputs":[],"outputs":[],"stateMutability":"nonpayable"},{"type":"function","name":"setMaxOracleDelay","inputs":[{"name":"_newDelaySeconds","type":"uint256","internalType":"uint256"}],"outputs":[],"stateMutability":"nonpayable"},{"type":"function","name":"transferOwnership","inputs":[{"name":"newOwner","type":"address","internalType":"address"}],"outputs":[],"stateMutability":"nonpayable"},{"type":"event","name":"OwnershipTransferred","inputs":[{"name":"previousOwner","type":"address","indexed":true,"internalType":"address"},{"name":"newOwner","type":"address","indexed":true,"internalType":"address"}],"anonymous":false},{"type":"event","name":"SetMaxOracleDelay","inputs":[{"name":"_oldDelay","type":"uint256","indexed":false,"internalType":"uint256"},{"name":"_newDelay","type":"uint256","indexed":false,"internalType":"uint256"}],"anonymous":false}],"bytecode":{"object":"0x60806040526201518060015534801561001757600080fd5b5061002133610026565b610076565b600080546001600160a01b038381166001600160a01b0319831681178455604051919092169283917f8be0079c531659141344cd1fd0a4f28419497f9722a3daafe3b4186f6b6457e09190a35050565b6106cd806100856000396000f3fe608060405234801561001057600080fd5b50600436106100625760003560e01c80630807aa911461006757806352f1edcc14610096578063715018a6146100ad5780638da5cb5b146100b7578063cd3b691c146100d2578063f2fde38b146100e5575b600080fd5b61007a610075366004610429565b6100f8565b6040805192151583526020830191909152015b60405180910390f35b61009f60015481565b60405190815260200161008d565b6100b561017b565b005b6000546040516001600160a01b03909116815260200161008d565b6100b56100e0366004610474565b61018f565b6100b56100f336600461048d565b6101dc565b6000806000806001544261010c91906104c5565b90506101178861025a565b828110955090935091506001600160a01b038716156101705760008061013c8961025a565b90925090508161015486670de0b6b3a76400006104de565b61015e91906104f5565b9450858061016b57508281105b955050505b505094509492505050565b610183610363565b61018d60006103bd565b565b610197610363565b600180549082905560408051828152602081018490527f489892ab7e2f839a8630c507bc283ea1a98549bf7a6d8a315ebdf78e45794dae910160405180910390a15050565b6101e4610363565b6001600160a01b03811661024e5760405162461bcd60e51b815260206004820152602660248201527f4f776e61626c653a206e6577206f776e657220697320746865207a65726f206160448201526564647265737360d01b60648201526084015b60405180910390fd5b610257816103bd565b50565b6000806000836001600160a01b031663313ce5676040518163ffffffff1660e01b8152600401602060405180830381865afa15801561029d573d6000803e3d6000fd5b505050506040513d601f19601f820116820180604052508101906102c19190610517565b9050600080856001600160a01b031663feaf968c6040518163ffffffff1660e01b815260040160a060405180830381865afa158015610304573d6000803e3d6000fd5b505050506040513d601f19601f820116820180604052508101906103289190610554565b5093505092505082600a61033c9190610688565b61034e90670de0b6b3a76400006104f5565b61035890836104de565b969095509350505050565b6000546001600160a01b0316331461018d5760405162461bcd60e51b815260206004820181905260248201527f4f776e61626c653a2063616c6c6572206973206e6f7420746865206f776e65726044820152606401610245565b600080546001600160a01b038381166001600160a01b0319831681178455604051919092169283917f8be0079c531659141344cd1fd0a4f28419497f9722a3daafe3b4186f6b6457e09190a35050565b80356001600160a01b038116811461042457600080fd5b919050565b6000806000806080858703121561043f57600080fd5b6104488561040d565b93506104566020860161040d565b92506104646040860161040d565b9396929550929360600135925050565b60006020828403121561048657600080fd5b5035919050565b60006020828403121561049f57600080fd5b6104a88261040d565b9392505050565b634e487b7160e01b600052601160045260246000fd5b818103818111156104d8576104d86104af565b92915050565b80820281158282048414176104d8576104d86104af565b60008261051257634e487b7160e01b600052601260045260246000fd5b500490565b60006020828403121561052957600080fd5b815160ff811681146104a857600080fd5b805169ffffffffffffffffffff8116811461042457600080fd5b600080600080600060a0868803121561056c57600080fd5b6105758661053a565b94506020860151935060408601519250606086015191506105986080870161053a565b90509295509295909350565b600181815b808511156105df5781600019048211156105c5576105c56104af565b808516156105d257918102915b93841c93908002906105a9565b509250929050565b6000826105f6575060016104d8565b81610603575060006104d8565b816001811461061957600281146106235761063f565b60019150506104d8565b60ff841115610634576106346104af565b50506001821b6104d8565b5060208310610133831016604e8410600b8410161715610662575081810a6104d8565b61066c83836105a4565b8060001904821115610680576106806104af565b029392505050565b60006104a860ff8416836105e756fea2646970667358221220c0bfdf3ccc95129f24c85b9e8384ef45bfbf041f09e72b133caa42b0214c668364736f6c63430008130033","linkReferences":{}},"methodIdentifiers":{"getPriceUSD18(address,address,address,uint256)":"0807aa91","maxOracleDelay()":"52f1edcc","owner()":"8da5cb5b","renounceOwnership()":"715018a6","setMaxOracleDelay(uint256)":"cd3b691c","transferOwnership(address)":"f2fde38b"},"id":39}