{"abi":[{"type":"constructor","inputs":[{"name":"_pool","type":"address","internalType":"address"},{"name":"_lvfMan","type":"address","internalType":"address"}],"stateMutability":"nonpayable"},{"type":"function","name":"LEVERAGE_MANAGER","inputs":[],"outputs":[{"name":"","type":"address","internalType":"address"}],"stateMutability":"view"},{"type":"function","name":"flash","inputs":[{"name":"_token","type":"address","internalType":"address"},{"name":"_amount","type":"uint256","internalType":"uint256"},{"name":"_recipient","type":"address","internalType":"address"},{"name":"_data","type":"bytes","internalType":"bytes"}],"outputs":[],"stateMutability":"nonpayable"},{"type":"function","name":"paymentAmount","inputs":[],"outputs":[{"name":"","type":"uint256","internalType":"uint256"}],"stateMutability":"view"},{"type":"function","name":"paymentToken","inputs":[],"outputs":[{"name":"","type":"address","internalType":"address"}],"stateMutability":"view"},{"type":"function","name":"source","inputs":[],"outputs":[{"name":"","type":"address","internalType":"address"}],"stateMutability":"view"},{"type":"function","name":"uniswapV3FlashCallback","inputs":[{"name":"_fee0","type":"uint256","internalType":"uint256"},{"name":"_fee1","type":"uint256","internalType":"uint256"},{"name":"_data","type":"bytes","internalType":"bytes"}],"outputs":[],"stateMutability":"nonpayable"}],"bytecode":{"object":"0x60a060405234801561001057600080fd5b50604051610d10380380610d1083398101604081905261002f9161007b565b6001600160a01b0390811660805260008054610100600160a81b03191661010093909216929092021790556100ae565b80516001600160a01b038116811461007657600080fd5b919050565b6000806040838503121561008e57600080fd5b6100978361005f565b91506100a56020840161005f565b90509250929050565b608051610c416100cf6000396000818160c9015261016b0152610c416000f3fe608060405234801561001057600080fd5b50600436106100625760003560e01c80633013ce291461006757806367e828bf146100975780637a05edcd146100af578063c26f10e9146100c4578063c35905c6146100eb578063e9cbafb014610102575b600080fd5b60015461007a906001600160a01b031681565b6040516001600160a01b0390911681526020015b60405180910390f35b60005461007a9061010090046001600160a01b031681565b6100c26100bd366004610882565b610115565b005b61007a7f000000000000000000000000000000000000000000000000000000000000000081565b6100f460025481565b60405190815260200161008e565b6100c26101103660046108f5565b61037b565b600160005460ff16156101545760405162461bcd60e51b8152602060048201526002602482015261046360f41b60448201526064015b60405180910390fd5b6000805460ff191660011790556001600160a01b037f000000000000000000000000000000000000000000000000000000000000000016336001600160a01b0316146101cb5760405162461bcd60e51b815260040161014b90602080825260049082015263082aaa8960e31b604082015260600190565b60006040518060a00160405280866001600160a01b03168152602001886001600160a01b0316815260200187815260200185858080601f01602080910402602001604051908101604052809392919081815260200183838082843760009201829052509385525050506020918201819052805460408051630dfe168160e01b81529051949550919384936101009092046001600160a01b031692630dfe16819260048083019391928290030181865afa15801561028c573d6000803e3d6000fd5b505050506040513d601f19601f820116820180604052508101906102b09190610948565b6001600160a01b0316896001600160a01b0316146102d0576000886102d4565b8760005b91509150600060019054906101000a90046001600160a01b03166001600160a01b031663490e6cbc3084848760405160200161031091906109bc565b6040516020818303038152906040526040518563ffffffff1660e01b815260040161033e9493929190610a18565b600060405180830381600087803b15801561035857600080fd5b505af115801561036c573d6000803e3d6000fd5b50505050505050505050505050565b6000805460ff166103b35760405162461bcd60e51b8152602060048201526002602482015261463160f01b604482015260640161014b565b6000805460ff1916905560005461010090046001600160a01b0316336001600160a01b03161461040b5760405162461bcd60e51b815260206004820152600360248201526221a12b60e91b604482015260640161014b565b600061041983850185610abf565b9050600060019054906101000a90046001600160a01b03166001600160a01b0316630dfe16816040518163ffffffff1660e01b8152600401602060405180830381865afa15801561046e573d6000803e3d6000fd5b505050506040513d601f19601f820116820180604052508101906104929190610948565b6001600160a01b031681602001516001600160a01b0316146104b457846104b6565b855b60808201528051604082015160208301516104dc926001600160a01b0390911691610565565b80600001516001600160a01b031663e98a56548260405160200161050091906109bc565b6040516020818303038152906040526040518263ffffffff1660e01b815260040161052b9190610bba565b600060405180830381600087803b15801561054557600080fd5b505af1158015610559573d6000803e3d6000fd5b50505050505050505050565b604080516001600160a01b038416602482015260448082018490528251808303909101815260649091019091526020810180516001600160e01b031663a9059cbb60e01b1790526105b79084906105bc565b505050565b6000610611826040518060400160405280602081526020017f5361666545524332303a206c6f772d6c6576656c2063616c6c206661696c6564815250856001600160a01b03166106919092919063ffffffff16565b90508051600014806106325750808060200190518101906106329190610bcd565b6105b75760405162461bcd60e51b815260206004820152602a60248201527f5361666545524332303a204552433230206f7065726174696f6e20646964206e6044820152691bdd081cdd58d8d9595960b21b606482015260840161014b565b60606106a084846000856106a8565b949350505050565b6060824710156107095760405162461bcd60e51b815260206004820152602660248201527f416464726573733a20696e73756666696369656e742062616c616e636520666f6044820152651c8818d85b1b60d21b606482015260840161014b565b600080866001600160a01b031685876040516107259190610bef565b60006040518083038185875af1925050503d8060008114610762576040519150601f19603f3d011682016040523d82523d6000602084013e610767565b606091505b509150915061077887838387610783565b979650505050505050565b606083156107f25782516000036107eb576001600160a01b0385163b6107eb5760405162461bcd60e51b815260206004820152601d60248201527f416464726573733a2063616c6c20746f206e6f6e2d636f6e7472616374000000604482015260640161014b565b50816106a0565b6106a083838151156108075781518083602001fd5b8060405162461bcd60e51b815260040161014b9190610bba565b6001600160a01b038116811461083657600080fd5b50565b60008083601f84011261084b57600080fd5b50813567ffffffffffffffff81111561086357600080fd5b60208301915083602082850101111561087b57600080fd5b9250929050565b60008060008060006080868803121561089a57600080fd5b85356108a581610821565b94506020860135935060408601356108bc81610821565b9250606086013567ffffffffffffffff8111156108d857600080fd5b6108e488828901610839565b969995985093965092949392505050565b6000806000806060858703121561090b57600080fd5b8435935060208501359250604085013567ffffffffffffffff81111561093057600080fd5b61093c87828801610839565b95989497509550505050565b60006020828403121561095a57600080fd5b815161096581610821565b9392505050565b60005b8381101561098757818101518382015260200161096f565b50506000910152565b600081518084526109a881602086016020860161096c565b601f01601f19169290920160200192915050565b60208152600060018060a01b038084511660208401528060208501511660408401525060408301516060830152606083015160a06080840152610a0260c0840182610990565b9050608084015160a08401528091505092915050565b60018060a01b0385168152836020820152826040820152608060608201526000610a456080830184610990565b9695505050505050565b634e487b7160e01b600052604160045260246000fd5b60405160a0810167ffffffffffffffff81118282101715610a8857610a88610a4f565b60405290565b604051601f8201601f1916810167ffffffffffffffff81118282101715610ab757610ab7610a4f565b604052919050565b60006020808385031215610ad257600080fd5b823567ffffffffffffffff80821115610aea57600080fd5b9084019060a08287031215610afe57600080fd5b610b06610a65565b8235610b1181610821565b815282840135610b2081610821565b8185015260408381013590820152606083013582811115610b4057600080fd5b8301601f81018813610b5157600080fd5b803583811115610b6357610b63610a4f565b610b75601f8201601f19168701610a8e565b93508084528886828401011115610b8b57600080fd5b808683018786013760008682860101525050816060820152608083013560808201528094505050505092915050565b6020815260006109656020830184610990565b600060208284031215610bdf57600080fd5b8151801515811461096557600080fd5b60008251610c0181846020870161096c565b919091019291505056fea2646970667358221220b7316d728a43dcdab528cc38c950e282f5a1d979a7f9ebd3609bfa74e8a541b964736f6c63430008130033","linkReferences":{}},"methodIdentifiers":{"LEVERAGE_MANAGER()":"c26f10e9","flash(address,uint256,address,bytes)":"7a05edcd","paymentAmount()":"c35905c6","paymentToken()":"3013ce29","source()":"67e828bf","uniswapV3FlashCallback(uint256,uint256,bytes)":"e9cbafb0"},"id":25}