{"abi":[{"type":"function","name":"borrowAsset","inputs":[{"name":"_pair","type":"address","internalType":"address"},{"name":"_borrowAmount","type":"uint256","internalType":"uint256"},{"name":"_collateralAmount","type":"uint256","internalType":"uint256"},{"name":"_receiver","type":"address","internalType":"address"}],"outputs":[],"stateMutability":"nonpayable"},{"type":"function","name":"owner","inputs":[],"outputs":[{"name":"","type":"address","internalType":"address"}],"stateMutability":"view"},{"type":"function","name":"removeCollateral","inputs":[{"name":"_pair","type":"address","internalType":"address"},{"name":"_collateralAmount","type":"uint256","internalType":"uint256"},{"name":"_receiver","type":"address","internalType":"address"}],"outputs":[],"stateMutability":"nonpayable"},{"type":"function","name":"renounceOwnership","inputs":[],"outputs":[],"stateMutability":"nonpayable"},{"type":"function","name":"transferOwnership","inputs":[{"name":"newOwner","type":"address","internalType":"address"}],"outputs":[],"stateMutability":"nonpayable"},{"type":"function","name":"withdraw","inputs":[{"name":"_token","type":"address","internalType":"address"},{"name":"_recipient","type":"address","internalType":"address"},{"name":"_amount","type":"uint256","internalType":"uint256"}],"outputs":[],"stateMutability":"nonpayable"},{"type":"event","name":"OwnershipTransferred","inputs":[{"name":"previousOwner","type":"address","indexed":true,"internalType":"address"},{"name":"newOwner","type":"address","indexed":true,"internalType":"address"}],"anonymous":false}],"bytecode":{"object":"0x608060405234801561001057600080fd5b5061001a3361001f565b61006f565b600080546001600160a01b038381166001600160a01b0319831681178455604051919092169283917f8be0079c531659141344cd1fd0a4f28419497f9722a3daafe3b4186f6b6457e09190a35050565b6109c78061007e6000396000f3fe608060405234801561001057600080fd5b50600436106100625760003560e01c80633879b0c514610067578063715018a61461007c5780638da5cb5b14610084578063cb69e270146100a3578063d9caed12146100b6578063f2fde38b146100c9575b600080fd5b61007a6100753660046107ae565b6100dc565b005b61007a61014b565b600054604080516001600160a01b039092168252519081900360200190f35b61007a6100b13660046107f0565b61015f565b61007a6100c436600461083a565b61025f565b61007a6100d736600461087b565b6102f6565b6100e4610374565b604051636a0eee4b60e11b8152600481018390526001600160a01b03828116602483015284169063d41ddc9690604401600060405180830381600087803b15801561012e57600080fd5b505af1158015610142573d6000803e3d6000fd5b50505050505050565b610153610374565b61015d60006103ce565b565b610167610374565b6101de8483866001600160a01b031663c6e1c7c96040518163ffffffff1660e01b8152600401602060405180830381865afa1580156101aa573d6000803e3d6000fd5b505050506040513d601f19601f820116820180604052508101906101ce919061089f565b6001600160a01b0316919061041e565b6040516372f89d8b60e11b815260048101849052602481018390526001600160a01b03828116604483015285169063e5f13b16906064016020604051808303816000875af1158015610234573d6000803e3d6000fd5b505050506040513d601f19601f8201168201806040525081019061025891906108bc565b5050505050565b610267610374565b801561027357806102db565b6040516370a0823160e01b81523060048201526001600160a01b038416906370a0823190602401602060405180830381865afa1580156102b7573d6000803e3d6000fd5b505050506040513d601f19601f820116820180604052508101906102db91906108bc565b90506102f16001600160a01b0384168383610504565b505050565b6102fe610374565b6001600160a01b0381166103685760405162461bcd60e51b815260206004820152602660248201527f4f776e61626c653a206e6577206f776e657220697320746865207a65726f206160448201526564647265737360d01b60648201526084015b60405180910390fd5b610371816103ce565b50565b6000546001600160a01b0316331461015d5760405162461bcd60e51b815260206004820181905260248201527f4f776e61626c653a2063616c6c6572206973206e6f7420746865206f776e6572604482015260640161035f565b600080546001600160a01b038381166001600160a01b0319831681178455604051919092169283917f8be0079c531659141344cd1fd0a4f28419497f9722a3daafe3b4186f6b6457e09190a35050565b604051636eb1769f60e11b81523060048201526001600160a01b0383811660248301526000919085169063dd62ed3e90604401602060405180830381865afa15801561046e573d6000803e3d6000fd5b505050506040513d601f19601f8201168201806040525081019061049291906108bc565b90506104fe8463095ea7b360e01b856104ab86866108d5565b6040516001600160a01b03909216602483015260448201526064015b60408051601f198184030181529190526020810180516001600160e01b03166001600160e01b031990931692909217909152610534565b50505050565b6040516001600160a01b0383166024820152604481018290526102f190849063a9059cbb60e01b906064016104c7565b6000610589826040518060400160405280602081526020017f5361666545524332303a206c6f772d6c6576656c2063616c6c206661696c6564815250856001600160a01b03166106099092919063ffffffff16565b90508051600014806105aa5750808060200190518101906105aa91906108fc565b6102f15760405162461bcd60e51b815260206004820152602a60248201527f5361666545524332303a204552433230206f7065726174696f6e20646964206e6044820152691bdd081cdd58d8d9595960b21b606482015260840161035f565b60606106188484600085610620565b949350505050565b6060824710156106815760405162461bcd60e51b815260206004820152602660248201527f416464726573733a20696e73756666696369656e742062616c616e636520666f6044820152651c8818d85b1b60d21b606482015260840161035f565b600080866001600160a01b0316858760405161069d9190610942565b60006040518083038185875af1925050503d80600081146106da576040519150601f19603f3d011682016040523d82523d6000602084013e6106df565b606091505b50915091506106f0878383876106fb565b979650505050505050565b6060831561076a578251600003610763576001600160a01b0385163b6107635760405162461bcd60e51b815260206004820152601d60248201527f416464726573733a2063616c6c20746f206e6f6e2d636f6e7472616374000000604482015260640161035f565b5081610618565b610618838381511561077f5781518083602001fd5b8060405162461bcd60e51b815260040161035f919061095e565b6001600160a01b038116811461037157600080fd5b6000806000606084860312156107c357600080fd5b83356107ce81610799565b92506020840135915060408401356107e581610799565b809150509250925092565b6000806000806080858703121561080657600080fd5b843561081181610799565b93506020850135925060408501359150606085013561082f81610799565b939692955090935050565b60008060006060848603121561084f57600080fd5b833561085a81610799565b9250602084013561086a81610799565b929592945050506040919091013590565b60006020828403121561088d57600080fd5b813561089881610799565b9392505050565b6000602082840312156108b157600080fd5b815161089881610799565b6000602082840312156108ce57600080fd5b5051919050565b808201808211156108f657634e487b7160e01b600052601160045260246000fd5b92915050565b60006020828403121561090e57600080fd5b8151801515811461089857600080fd5b60005b83811015610939578181015183820152602001610921565b50506000910152565b6000825161095481846020870161091e565b9190910192915050565b602081526000825180602084015261097d81604085016020870161091e565b601f01601f1916919091016040019291505056fea2646970667358221220550084d6f2bc00007275d97356d97ea22a9a3b6cf8b22c9cc3598611ccbbbb5a64736f6c63430008130033","linkReferences":{}},"methodIdentifiers":{"borrowAsset(address,uint256,uint256,address)":"cb69e270","owner()":"8da5cb5b","removeCollateral(address,uint256,address)":"3879b0c5","renounceOwnership()":"715018a6","transferOwnership(address)":"f2fde38b","withdraw(address,address,uint256)":"d9caed12"},"id":87}