{"abi":[{"type":"constructor","inputs":[{"name":"__asset","type":"address","internalType":"address"}],"stateMutability":"nonpayable"},{"type":"function","name":"DOMAIN_SEPARATOR","inputs":[],"outputs":[{"name":"","type":"bytes32","internalType":"bytes32"}],"stateMutability":"view"},{"type":"function","name":"addInterest","inputs":[],"outputs":[],"stateMutability":"nonpayable"},{"type":"function","name":"allowance","inputs":[{"name":"owner","type":"address","internalType":"address"},{"name":"spender","type":"address","internalType":"address"}],"outputs":[{"name":"","type":"uint256","internalType":"uint256"}],"stateMutability":"view"},{"type":"function","name":"approve","inputs":[{"name":"spender","type":"address","internalType":"address"},{"name":"amount","type":"uint256","internalType":"uint256"}],"outputs":[{"name":"","type":"bool","internalType":"bool"}],"stateMutability":"nonpayable"},{"type":"function","name":"asset","inputs":[],"outputs":[{"name":"","type":"address","internalType":"address"}],"stateMutability":"view"},{"type":"function","name":"balanceOf","inputs":[{"name":"account","type":"address","internalType":"address"}],"outputs":[{"name":"","type":"uint256","internalType":"uint256"}],"stateMutability":"view"},{"type":"function","name":"convertToAssets","inputs":[{"name":"_shares","type":"uint256","internalType":"uint256"}],"outputs":[{"name":"_assets","type":"uint256","internalType":"uint256"}],"stateMutability":"view"},{"type":"function","name":"convertToShares","inputs":[{"name":"_assets","type":"uint256","internalType":"uint256"}],"outputs":[{"name":"_shares","type":"uint256","internalType":"uint256"}],"stateMutability":"view"},{"type":"function","name":"decimals","inputs":[],"outputs":[{"name":"","type":"uint8","internalType":"uint8"}],"stateMutability":"view"},{"type":"function","name":"decreaseAllowance","inputs":[{"name":"spender","type":"address","internalType":"address"},{"name":"subtractedValue","type":"uint256","internalType":"uint256"}],"outputs":[{"name":"","type":"bool","internalType":"bool"}],"stateMutability":"nonpayable"},{"type":"function","name":"deposit","inputs":[{"name":"_assets","type":"uint256","internalType":"uint256"},{"name":"_receiver","type":"address","internalType":"address"}],"outputs":[{"name":"_shares","type":"uint256","internalType":"uint256"}],"stateMutability":"nonpayable"},{"type":"function","name":"depositFromLendingAssetVault","inputs":[{"name":"_vault","type":"address","internalType":"address"},{"name":"_amountAssets","type":"uint256","internalType":"uint256"}],"outputs":[],"stateMutability":"nonpayable"},{"type":"function","name":"eip712Domain","inputs":[],"outputs":[{"name":"fields","type":"bytes1","internalType":"bytes1"},{"name":"name","type":"string","internalType":"string"},{"name":"version","type":"string","internalType":"string"},{"name":"chainId","type":"uint256","internalType":"uint256"},{"name":"verifyingContract","type":"address","internalType":"address"},{"name":"salt","type":"bytes32","internalType":"bytes32"},{"name":"extensions","type":"uint256[]","internalType":"uint256[]"}],"stateMutability":"view"},{"type":"function","name":"increaseAllowance","inputs":[{"name":"spender","type":"address","internalType":"address"},{"name":"addedValue","type":"uint256","internalType":"uint256"}],"outputs":[{"name":"","type":"bool","internalType":"bool"}],"stateMutability":"nonpayable"},{"type":"function","name":"maxDeposit","inputs":[{"name":"","type":"address","internalType":"address"}],"outputs":[{"name":"maxAssets","type":"uint256","internalType":"uint256"}],"stateMutability":"pure"},{"type":"function","name":"maxMint","inputs":[{"name":"","type":"address","internalType":"address"}],"outputs":[{"name":"maxShares","type":"uint256","internalType":"uint256"}],"stateMutability":"pure"},{"type":"function","name":"maxRedeem","inputs":[{"name":"_owner","type":"address","internalType":"address"}],"outputs":[{"name":"_maxShares","type":"uint256","internalType":"uint256"}],"stateMutability":"view"},{"type":"function","name":"maxWithdraw","inputs":[{"name":"_owner","type":"address","internalType":"address"}],"outputs":[{"name":"_maxAssets","type":"uint256","internalType":"uint256"}],"stateMutability":"view"},{"type":"function","name":"mint","inputs":[{"name":"_shares","type":"uint256","internalType":"uint256"},{"name":"_receiver","type":"address","internalType":"address"}],"outputs":[{"name":"_assets","type":"uint256","internalType":"uint256"}],"stateMutability":"nonpayable"},{"type":"function","name":"name","inputs":[],"outputs":[{"name":"","type":"string","internalType":"string"}],"stateMutability":"view"},{"type":"function","name":"nonces","inputs":[{"name":"owner","type":"address","internalType":"address"}],"outputs":[{"name":"","type":"uint256","internalType":"uint256"}],"stateMutability":"view"},{"type":"function","name":"permit","inputs":[{"name":"owner","type":"address","internalType":"address"},{"name":"spender","type":"address","internalType":"address"},{"name":"value","type":"uint256","internalType":"uint256"},{"name":"deadline","type":"uint256","internalType":"uint256"},{"name":"v","type":"uint8","internalType":"uint8"},{"name":"r","type":"bytes32","internalType":"bytes32"},{"name":"s","type":"bytes32","internalType":"bytes32"}],"outputs":[],"stateMutability":"nonpayable"},{"type":"function","name":"previewDeposit","inputs":[{"name":"_assets","type":"uint256","internalType":"uint256"}],"outputs":[{"name":"_shares","type":"uint256","internalType":"uint256"}],"stateMutability":"view"},{"type":"function","name":"previewMint","inputs":[{"name":"_shares","type":"uint256","internalType":"uint256"}],"outputs":[{"name":"_assets","type":"uint256","internalType":"uint256"}],"stateMutability":"view"},{"type":"function","name":"previewRedeem","inputs":[{"name":"_shares","type":"uint256","internalType":"uint256"}],"outputs":[{"name":"_assets","type":"uint256","internalType":"uint256"}],"stateMutability":"view"},{"type":"function","name":"previewWithdraw","inputs":[{"name":"_assets","type":"uint256","internalType":"uint256"}],"outputs":[{"name":"_shares","type":"uint256","internalType":"uint256"}],"stateMutability":"view"},{"type":"function","name":"redeem","inputs":[{"name":"_shares","type":"uint256","internalType":"uint256"},{"name":"_receiver","type":"address","internalType":"address"},{"name":"","type":"address","internalType":"address"}],"outputs":[{"name":"_assets","type":"uint256","internalType":"uint256"}],"stateMutability":"nonpayable"},{"type":"function","name":"symbol","inputs":[],"outputs":[{"name":"","type":"string","internalType":"string"}],"stateMutability":"view"},{"type":"function","name":"totalAssets","inputs":[],"outputs":[{"name":"","type":"uint256","internalType":"uint256"}],"stateMutability":"view"},{"type":"function","name":"totalSupply","inputs":[],"outputs":[{"name":"","type":"uint256","internalType":"uint256"}],"stateMutability":"view"},{"type":"function","name":"transfer","inputs":[{"name":"to","type":"address","internalType":"address"},{"name":"amount","type":"uint256","internalType":"uint256"}],"outputs":[{"name":"","type":"bool","internalType":"bool"}],"stateMutability":"nonpayable"},{"type":"function","name":"transferFrom","inputs":[{"name":"from","type":"address","internalType":"address"},{"name":"to","type":"address","internalType":"address"},{"name":"amount","type":"uint256","internalType":"uint256"}],"outputs":[{"name":"","type":"bool","internalType":"bool"}],"stateMutability":"nonpayable"},{"type":"function","name":"withdraw","inputs":[{"name":"_assets","type":"uint256","internalType":"uint256"},{"name":"_receiver","type":"address","internalType":"address"},{"name":"","type":"address","internalType":"address"}],"outputs":[{"name":"_shares","type":"uint256","internalType":"uint256"}],"stateMutability":"nonpayable"},{"type":"function","name":"withdrawToLendingAssetVault","inputs":[{"name":"_vault","type":"address","internalType":"address"},{"name":"_amountAssets","type":"uint256","internalType":"uint256"}],"outputs":[],"stateMutability":"nonpayable"},{"type":"event","name":"Approval","inputs":[{"name":"owner","type":"address","indexed":true,"internalType":"address"},{"name":"spender","type":"address","indexed":true,"internalType":"address"},{"name":"value","type":"uint256","indexed":false,"internalType":"uint256"}],"anonymous":false},{"type":"event","name":"Deposit","inputs":[{"name":"sender","type":"address","indexed":true,"internalType":"address"},{"name":"owner","type":"address","indexed":true,"internalType":"address"},{"name":"assets","type":"uint256","indexed":false,"internalType":"uint256"},{"name":"shares","type":"uint256","indexed":false,"internalType":"uint256"}],"anonymous":false},{"type":"event","name":"EIP712DomainChanged","inputs":[],"anonymous":false},{"type":"event","name":"Transfer","inputs":[{"name":"from","type":"address","indexed":true,"internalType":"address"},{"name":"to","type":"address","indexed":true,"internalType":"address"},{"name":"value","type":"uint256","indexed":false,"internalType":"uint256"}],"anonymous":false},{"type":"event","name":"Withdraw","inputs":[{"name":"sender","type":"address","indexed":true,"internalType":"address"},{"name":"receiver","type":"address","indexed":true,"internalType":"address"},{"name":"owner","type":"address","indexed":true,"internalType":"address"},{"name":"assets","type":"uint256","indexed":false,"internalType":"uint256"},{"name":"shares","type":"uint256","indexed":false,"internalType":"uint256"}],"anonymous":false},{"type":"error","name":"InvalidShortString","inputs":[]},{"type":"error","name":"StringTooLong","inputs":[{"name":"str","type":"string","internalType":"string"}]}],"bytecode":{"object":"0x6101606040523480156200001257600080fd5b50604051620021e2380380620021e283398101604081905262000035916200023b565b6040518060400160405280600a81526020016915195cdd0815985d5b1d60b21b81525080604051806040016040528060018152602001603160f81b8152506040518060400160405280600a81526020016915195cdd0815985d5b1d60b21b815250604051806040016040528060068152602001651d159055531560d21b8152508160039081620000c6919062000312565b506004620000d5828262000312565b50620000e791508390506005620001b6565b61012052620000f8816006620001b6565b61014052815160208084019190912060e052815190820120610100524660a0526200018660e05161010051604080517f8b73c3c69bb8fe3d512ecc4cf759cc79239f7b179b0ffacaa9a75d522b39400f60208201529081019290925260608201524660808201523060a082015260009060c00160405160208183030381529060405280519060200120905090565b60805250503060c05250600980546001600160a01b0319166001600160a01b039290921691909117905562000453565b6000602083511015620001d657620001ce83620001ef565b9050620001e9565b81620001e3848262000312565b5060ff90505b92915050565b600080829050601f8151111562000226578260405163305a27a960e01b81526004016200021d9190620003de565b60405180910390fd5b805162000233826200042e565b179392505050565b6000602082840312156200024e57600080fd5b81516001600160a01b03811681146200026657600080fd5b9392505050565b634e487b7160e01b600052604160045260246000fd5b600181811c908216806200029857607f821691505b602082108103620002b957634e487b7160e01b600052602260045260246000fd5b50919050565b601f8211156200030d57600081815260208120601f850160051c81016020861015620002e85750805b601f850160051c820191505b818110156200030957828155600101620002f4565b5050505b505050565b81516001600160401b038111156200032e576200032e6200026d565b62000346816200033f845462000283565b84620002bf565b602080601f8311600181146200037e5760008415620003655750858301515b600019600386901b1c1916600185901b17855562000309565b600085815260208120601f198616915b82811015620003af578886015182559484019460019091019084016200038e565b5085821015620003ce5787850151600019600388901b60f8161c191681555b5050505050600190811b01905550565b600060208083528351808285015260005b818110156200040d57858101830151858201604001528201620003ef565b506000604082860101526040601f19601f8301168501019250505092915050565b80516020808301519190811015620002b95760001960209190910360031b1b16919050565b60805160a05160c05160e051610100516101205161014051611d34620004ae60003960006107860152600061075b01526000610fa301526000610f7b01526000610ed601526000610f0001526000610f2a0152611d346000f3fe608060405234801561001057600080fd5b50600436106102065760003560e01c80637ecebe001161011a578063ba087652116100ad578063ce96cb771161007c578063ce96cb7714610416578063d505accf14610429578063d905777e1461043c578063dd62ed3e1461044f578063ef8b30f71461027157600080fd5b8063ba087652146103dd578063c1e555cf146103f0578063c63d75b6146102e6578063c6e6f5921461040357600080fd5b8063a457c2d7116100e9578063a457c2d7146103a4578063a9059cbb146103b7578063b3d7f6b9146102f9578063b460af94146103ca57600080fd5b80637ecebe001461035b57806384b0196e1461036e57806394bf804d1461038957806395d89b411461039c57600080fd5b8063313ce5671161019d578063402d267d1161016c578063402d267d146102e65780634cdad506146102f95780636e553f651461030c57806370a082311461031f57806371c6d3021461034857600080fd5b8063313ce567146102a15780633644e515146102b057806338d52e0f146102b857806339509351146102d357600080fd5b80630a28a477116101d95780630a28a477146102715780630d09365c1461028457806318160ddd1461028657806323b872dd1461028e57600080fd5b806301e1d1141461020b57806306fdde031461022657806307a2d13a1461023b578063095ea7b31461024e575b600080fd5b610213610462565b6040519081526020015b60405180910390f35b61022e6104d4565b60405161021d9190611984565b610213610249366004611997565b610566565b61026161025c3660046119cc565b610593565b604051901515815260200161021d565b61021361027f366004611997565b6105ab565b005b600254610213565b61026161029c3660046119f6565b6105b6565b6040516012815260200161021d565b6102136105da565b6009546040516001600160a01b03909116815260200161021d565b6102616102e13660046119cc565b6105e4565b6102136102f4366004611a32565b610606565b610213610307366004611997565b610615565b61021361031a366004611a4d565b610620565b61021361032d366004611a32565b6001600160a01b031660009081526020819052604090205490565b6102846103563660046119cc565b610634565b610213610369366004611a32565b61072f565b61037661074d565b60405161021d9796959493929190611a79565b610213610397366004611a4d565b6107d6565b61022e6107f5565b6102616103b23660046119cc565b610804565b6102616103c53660046119cc565b610884565b6102136103d8366004611b0f565b610892565b6102136103eb366004611b0f565b6108b2565b6102846103fe3660046119cc565b6108c7565b610213610411366004611997565b610940565b610213610424366004611a32565b61095c565b610284610437366004611b4b565b610992565b61021361044a366004611a32565b610af6565b61021361045d366004611bbe565b610b14565b6009546040516370a0823160e01b81523060048201526000916001600160a01b0316906370a0823190602401602060405180830381865afa1580156104ab573d6000803e3d6000fd5b505050506040513d601f19601f820116820180604052508101906104cf9190611be8565b905090565b6060600380546104e390611c01565b80601f016020809104026020016040519081016040528092919081815260200182805461050f90611c01565b801561055c5780601f106105315761010080835404028352916020019161055c565b820191906000526020600020905b81548152906001019060200180831161053f57829003601f168201915b5050505050905090565b6000670de0b6b3a7640000610579610b3f565b6105839084611c4b565b61058d9190611c62565b92915050565b6000336105a1818585610b8d565b5060019392505050565b600061058d82610940565b6000336105c4858285610cb1565b6105cf858585610d25565b506001949350505050565b60006104cf610ec9565b6000336105a18185856105f78383610b14565b6106019190611c84565b610b8d565b600061058d6001600019611c97565b600061058d82610566565b600061062d838333610ff4565b9392505050565b600061063f82610940565b905061064c833083610d25565b60095460405163095ea7b360e01b81526001600160a01b038581166004830152602482018590529091169063095ea7b3906044016020604051808303816000875af115801561069f573d6000803e3d6000fd5b505050506040513d601f19601f820116820180604052508101906106c39190611caa565b50604051630c264bc360e31b8152600481018390526001600160a01b038416906361325e1890602401600060405180830381600087803b15801561070657600080fd5b505af115801561071a573d6000803e3d6000fd5b50505050610729813030611090565b50505050565b6001600160a01b03811660009081526007602052604081205461058d565b6000606080828080836107817f00000000000000000000000000000000000000000000000000000000000000006005611110565b6107ac7f00000000000000000000000000000000000000000000000000000000000000006006611110565b60408051600080825260208201909252600f60f81b9b939a50919850469750309650945092509050565b60006107e183610566565b90506107ee818333610ff4565b5092915050565b6060600480546104e390611c01565b600033816108128286610b14565b9050838110156108775760405162461bcd60e51b815260206004820152602560248201527f45524332303a2064656372656173656420616c6c6f77616e63652062656c6f77604482015264207a65726f60d81b60648201526084015b60405180910390fd5b6105cf8286868403610b8d565b6000336105a1818585610d25565b600061089d84610940565b90506108aa818433611090565b509392505050565b60006108bf848433611090565b949350505050565b60405163f556d88960e01b8152600481018290526001600160a01b0383169063f556d88990602401600060405180830381600087803b15801561090957600080fd5b505af115801561091d573d6000803e3d6000fd5b50505050600061092e823030610ff4565b905061093b308483610d25565b505050565b600061094a610b3f565b610583670de0b6b3a764000084611c4b565b6000670de0b6b3a764000061096f610b3f565b6001600160a01b0384166000908152602081905260409020546105839190611c4b565b834211156109e25760405162461bcd60e51b815260206004820152601d60248201527f45524332305065726d69743a206578706972656420646561646c696e65000000604482015260640161086e565b60007f6e71edae12b1b97f4d1f60370fef10105fa2faae0126114a169c64845d6126c9888888610a118c6111bb565b6040805160208101969096526001600160a01b0394851690860152929091166060840152608083015260a082015260c0810186905260e0016040516020818303038152906040528051906020012090506000610a6c826111e3565b90506000610a7c82878787611210565b9050896001600160a01b0316816001600160a01b031614610adf5760405162461bcd60e51b815260206004820152601e60248201527f45524332305065726d69743a20696e76616c6964207369676e61747572650000604482015260640161086e565b610aea8a8a8a610b8d565b50505050505050505050565b6001600160a01b03811660009081526020819052604081205461058d565b6001600160a01b03918216600090815260016020908152604080832093909416825291909152205490565b600080610b4b60025490565b90508015610b7d5780610b5c610462565b610b6e90670de0b6b3a7640000611c4b565b610b789190611c62565b610b87565b670de0b6b3a76400005b91505090565b6001600160a01b038316610bef5760405162461bcd60e51b8152602060048201526024808201527f45524332303a20617070726f76652066726f6d20746865207a65726f206164646044820152637265737360e01b606482015260840161086e565b6001600160a01b038216610c505760405162461bcd60e51b815260206004820152602260248201527f45524332303a20617070726f766520746f20746865207a65726f206164647265604482015261737360f01b606482015260840161086e565b6001600160a01b0383811660008181526001602090815260408083209487168084529482529182902085905590518481527f8c5be1e5ebec7d5bd14f71427d1e84f3dd0314c0f7b2291e5b200ac8c7c3b925910160405180910390a3505050565b6000610cbd8484610b14565b905060001981146107295781811015610d185760405162461bcd60e51b815260206004820152601d60248201527f45524332303a20696e73756666696369656e7420616c6c6f77616e6365000000604482015260640161086e565b6107298484848403610b8d565b6001600160a01b038316610d895760405162461bcd60e51b815260206004820152602560248201527f45524332303a207472616e736665722066726f6d20746865207a65726f206164604482015264647265737360d81b606482015260840161086e565b6001600160a01b038216610deb5760405162461bcd60e51b815260206004820152602360248201527f45524332303a207472616e7366657220746f20746865207a65726f206164647260448201526265737360e81b606482015260840161086e565b6001600160a01b03831660009081526020819052604090205481811015610e635760405162461bcd60e51b815260206004820152602660248201527f45524332303a207472616e7366657220616d6f756e7420657863656564732062604482015265616c616e636560d01b606482015260840161086e565b6001600160a01b03848116600081815260208181526040808320878703905593871680835291849020805487019055925185815290927fddf252ad1be2c89b69c2b068fc378daa952ba7f163c4a11628f55a4df523b3ef910160405180910390a3610729565b6000306001600160a01b037f000000000000000000000000000000000000000000000000000000000000000016148015610f2257507f000000000000000000000000000000000000000000000000000000000000000046145b15610f4c57507f000000000000000000000000000000000000000000000000000000000000000090565b6104cf604080517f8b73c3c69bb8fe3d512ecc4cf759cc79239f7b179b0ffacaa9a75d522b39400f60208201527f0000000000000000000000000000000000000000000000000000000000000000918101919091527f000000000000000000000000000000000000000000000000000000000000000060608201524660808201523060a082015260009060c00160405160208183030381529060405280519060200120905090565b6000610fff84610940565b905061100b8382611238565b6001600160a01b038216301461103357600954611033906001600160a01b03168330876112f7565b826001600160a01b0316826001600160a01b03167fdcbc1c05240f31ff3ad067ef1ee35ce4997762752e3a095284754544f4c709d78684604051611081929190918252602082015260400190565b60405180910390a39392505050565b600061109b84610566565b90506110a78285611362565b6009546110be906001600160a01b03168483611494565b60408051828152602081018690526001600160a01b03808616928392918616917ffbde797d201c681b91056529119e0b02407c7bb96a4a2c75c01fc9667232c8db910160405180910390a49392505050565b606060ff831461112a57611123836114c4565b905061058d565b81805461113690611c01565b80601f016020809104026020016040519081016040528092919081815260200182805461116290611c01565b80156111af5780601f10611184576101008083540402835291602001916111af565b820191906000526020600020905b81548152906001019060200180831161119257829003601f168201915b5050505050905061058d565b6001600160a01b03811660009081526007602052604090208054600181018255905b50919050565b600061058d6111f0610ec9565b8360405161190160f01b8152600281019290925260228201526042902090565b600080600061122187878787611503565b9150915061122e816115c7565b5095945050505050565b6001600160a01b03821661128e5760405162461bcd60e51b815260206004820152601f60248201527f45524332303a206d696e7420746f20746865207a65726f206164647265737300604482015260640161086e565b80600260008282546112a09190611c84565b90915550506001600160a01b038216600081815260208181526040808320805486019055518481527fddf252ad1be2c89b69c2b068fc378daa952ba7f163c4a11628f55a4df523b3ef910160405180910390a35050565b6040516001600160a01b03808516602483015283166044820152606481018290526107299085906323b872dd60e01b906084015b60408051601f198184030181529190526020810180516001600160e01b03166001600160e01b031990931692909217909152611714565b6001600160a01b0382166113c25760405162461bcd60e51b815260206004820152602160248201527f45524332303a206275726e2066726f6d20746865207a65726f206164647265736044820152607360f81b606482015260840161086e565b6001600160a01b038216600090815260208190526040902054818110156114365760405162461bcd60e51b815260206004820152602260248201527f45524332303a206275726e20616d6f756e7420657863656564732062616c616e604482015261636560f01b606482015260840161086e565b6001600160a01b0383166000818152602081815260408083208686039055600280548790039055518581529192917fddf252ad1be2c89b69c2b068fc378daa952ba7f163c4a11628f55a4df523b3ef910160405180910390a3505050565b6040516001600160a01b03831660248201526044810182905261093b90849063a9059cbb60e01b9060640161132b565b606060006114d1836117e9565b604080516020808252818301909252919250600091906020820181803683375050509182525060208101929092525090565b6000807f7fffffffffffffffffffffffffffffff5d576e7357a4501ddfe92f46681b20a083111561153a57506000905060036115be565b6040805160008082526020820180845289905260ff881692820192909252606081018690526080810185905260019060a0016020604051602081039080840390855afa15801561158e573d6000803e3d6000fd5b5050604051601f1901519150506001600160a01b0381166115b7576000600192509250506115be565b9150600090505b94509492505050565b60008160048111156115db576115db611ccc565b036115e35750565b60018160048111156115f7576115f7611ccc565b036116445760405162461bcd60e51b815260206004820152601860248201527f45434453413a20696e76616c6964207369676e61747572650000000000000000604482015260640161086e565b600281600481111561165857611658611ccc565b036116a55760405162461bcd60e51b815260206004820152601f60248201527f45434453413a20696e76616c6964207369676e6174757265206c656e67746800604482015260640161086e565b60038160048111156116b9576116b9611ccc565b036117115760405162461bcd60e51b815260206004820152602260248201527f45434453413a20696e76616c6964207369676e6174757265202773272076616c604482015261756560f01b606482015260840161086e565b50565b6000611769826040518060400160405280602081526020017f5361666545524332303a206c6f772d6c6576656c2063616c6c206661696c6564815250856001600160a01b03166118119092919063ffffffff16565b905080516000148061178a57508080602001905181019061178a9190611caa565b61093b5760405162461bcd60e51b815260206004820152602a60248201527f5361666545524332303a204552433230206f7065726174696f6e20646964206e6044820152691bdd081cdd58d8d9595960b21b606482015260840161086e565b600060ff8216601f81111561058d57604051632cd44ac360e21b815260040160405180910390fd5b60606108bf848460008585600080866001600160a01b031685876040516118389190611ce2565b60006040518083038185875af1925050503d8060008114611875576040519150601f19603f3d011682016040523d82523d6000602084013e61187a565b606091505b509150915061188b87838387611896565b979650505050505050565b606083156119055782516000036118fe576001600160a01b0385163b6118fe5760405162461bcd60e51b815260206004820152601d60248201527f416464726573733a2063616c6c20746f206e6f6e2d636f6e7472616374000000604482015260640161086e565b50816108bf565b6108bf838381511561191a5781518083602001fd5b8060405162461bcd60e51b815260040161086e9190611984565b60005b8381101561194f578181015183820152602001611937565b50506000910152565b60008151808452611970816020860160208601611934565b601f01601f19169290920160200192915050565b60208152600061062d6020830184611958565b6000602082840312156119a957600080fd5b5035919050565b80356001600160a01b03811681146119c757600080fd5b919050565b600080604083850312156119df57600080fd5b6119e8836119b0565b946020939093013593505050565b600080600060608486031215611a0b57600080fd5b611a14846119b0565b9250611a22602085016119b0565b9150604084013590509250925092565b600060208284031215611a4457600080fd5b61062d826119b0565b60008060408385031215611a6057600080fd5b82359150611a70602084016119b0565b90509250929050565b60ff60f81b881681526000602060e081840152611a9960e084018a611958565b8381036040850152611aab818a611958565b606085018990526001600160a01b038816608086015260a0850187905284810360c0860152855180825283870192509083019060005b81811015611afd57835183529284019291840191600101611ae1565b50909c9b505050505050505050505050565b600080600060608486031215611b2457600080fd5b83359250611b34602085016119b0565b9150611b42604085016119b0565b90509250925092565b600080600080600080600060e0888a031215611b6657600080fd5b611b6f886119b0565b9650611b7d602089016119b0565b95506040880135945060608801359350608088013560ff81168114611ba157600080fd5b9699959850939692959460a0840135945060c09093013592915050565b60008060408385031215611bd157600080fd5b611bda836119b0565b9150611a70602084016119b0565b600060208284031215611bfa57600080fd5b5051919050565b600181811c90821680611c1557607f821691505b6020821081036111dd57634e487b7160e01b600052602260045260246000fd5b634e487b7160e01b600052601160045260246000fd5b808202811582820484141761058d5761058d611c35565b600082611c7f57634e487b7160e01b600052601260045260246000fd5b500490565b8082018082111561058d5761058d611c35565b8181038181111561058d5761058d611c35565b600060208284031215611cbc57600080fd5b8151801515811461062d57600080fd5b634e487b7160e01b600052602160045260246000fd5b60008251611cf4818460208701611934565b919091019291505056fea2646970667358221220801d6d7ac727e9fa5689fb5dbad279e4d2cd588c36f2a1b4b5d7aba404252ea164736f6c63430008130033","linkReferences":{}},"methodIdentifiers":{"DOMAIN_SEPARATOR()":"3644e515","addInterest()":"0d09365c","allowance(address,address)":"dd62ed3e","approve(address,uint256)":"095ea7b3","asset()":"38d52e0f","balanceOf(address)":"70a08231","convertToAssets(uint256)":"07a2d13a","convertToShares(uint256)":"c6e6f592","decimals()":"313ce567","decreaseAllowance(address,uint256)":"a457c2d7","deposit(uint256,address)":"6e553f65","depositFromLendingAssetVault(address,uint256)":"c1e555cf","eip712Domain()":"84b0196e","increaseAllowance(address,uint256)":"39509351","maxDeposit(address)":"402d267d","maxMint(address)":"c63d75b6","maxRedeem(address)":"d905777e","maxWithdraw(address)":"ce96cb77","mint(uint256,address)":"94bf804d","name()":"06fdde03","nonces(address)":"7ecebe00","permit(address,address,uint256,uint256,uint8,bytes32,bytes32)":"d505accf","previewDeposit(uint256)":"ef8b30f7","previewMint(uint256)":"b3d7f6b9","previewRedeem(uint256)":"4cdad506","previewWithdraw(uint256)":"0a28a477","redeem(uint256,address,address)":"ba087652","symbol()":"95d89b41","totalAssets()":"01e1d114","totalSupply()":"18160ddd","transfer(address,uint256)":"a9059cbb","transferFrom(address,address,uint256)":"23b872dd","withdraw(uint256,address,address)":"b460af94","withdrawToLendingAssetVault(address,uint256)":"71c6d302"},"id":97}