{"abi":[{"type":"constructor","inputs":[{"name":"_pod","type":"address","internalType":"address"},{"name":"_flashPaymentToken","type":"address","internalType":"address"},{"name":"_lvfMan","type":"address","internalType":"address"}],"stateMutability":"nonpayable"},{"type":"function","name":"LEVERAGE_MANAGER","inputs":[],"outputs":[{"name":"","type":"address","internalType":"address"}],"stateMutability":"view"},{"type":"function","name":"callback","inputs":[{"name":"_data","type":"bytes","internalType":"bytes"}],"outputs":[],"stateMutability":"nonpayable"},{"type":"function","name":"flash","inputs":[{"name":"_token","type":"address","internalType":"address"},{"name":"_amount","type":"uint256","internalType":"uint256"},{"name":"_recipient","type":"address","internalType":"address"},{"name":"_data","type":"bytes","internalType":"bytes"}],"outputs":[],"stateMutability":"nonpayable"},{"type":"function","name":"paymentAmount","inputs":[],"outputs":[{"name":"","type":"uint256","internalType":"uint256"}],"stateMutability":"view"},{"type":"function","name":"paymentToken","inputs":[],"outputs":[{"name":"","type":"address","internalType":"address"}],"stateMutability":"view"},{"type":"function","name":"source","inputs":[],"outputs":[{"name":"","type":"address","internalType":"address"}],"stateMutability":"view"}],"bytecode":{"object":"0x60a060405234801561001057600080fd5b50604051610dd3380380610dd383398101604081905261002f91610093565b6001600160a01b0390811660805260008054610100600160a81b0319166101009483169490940293909317909255600180546001600160a01b031916919092161790556100d6565b80516001600160a01b038116811461008e57600080fd5b919050565b6000806000606084860312156100a857600080fd5b6100b184610077565b92506100bf60208501610077565b91506100cd60408501610077565b90509250925092565b608051610cdc6100f76000396000818160c9015261016a0152610cdc6000f3fe608060405234801561001057600080fd5b50600436106100625760003560e01c80633013ce291461006757806367e828bf146100975780637a05edcd146100af578063c26f10e9146100c4578063c35905c6146100eb578063e98a565414610101575b600080fd5b60015461007a906001600160a01b031681565b6040516001600160a01b0390911681526020015b60405180910390f35b60005461007a9061010090046001600160a01b031681565b6100c26100bd3660046108de565b610114565b005b61007a7f000000000000000000000000000000000000000000000000000000000000000081565b6100f361031a565b60405190815260200161008e565b6100c261010f36600461094d565b610397565b600160005460ff16156101535760405162461bcd60e51b8152602060048201526002602482015261046360f41b60448201526064015b60405180910390fd5b6000805460ff191660011790556001600160a01b037f000000000000000000000000000000000000000000000000000000000000000016336001600160a01b0316146101ca5760405162461bcd60e51b815260040161014a90602080825260049082015263082aaa8960e31b604082015260600190565b60006101d461031a565b90506101ee336001546001600160a01b03169030846104c1565b600054600154610211916001600160a01b03918216916101009091041683610532565b60006040518060a00160405280876001600160a01b03168152602001896001600160a01b0316815260200188815260200186868080601f016020809104026020016040519081016040528093929190818152602001838380828437600092018290525093855250505060209182018190525460405192935061010090046001600160a01b03169163bdbc91ab9130918c918c916102b0918891016109df565b6040516020818303038152906040526040518563ffffffff1660e01b81526004016102de9493929190610a3b565b600060405180830381600087803b1580156102f857600080fd5b505af115801561030c573d6000803e3d6000fd5b505050505050505050505050565b60008060019054906101000a90046001600160a01b03166001600160a01b03166393b404bd6040518163ffffffff1660e01b8152600401602060405180830381865afa15801561036e573d6000803e3d6000fd5b505050506040513d601f19601f820116820180604052508101906103929190610a78565b905090565b6000805460ff166103cf5760405162461bcd60e51b8152602060048201526002602482015261463160f01b604482015260640161014a565b6000805460ff1916905560005461010090046001600160a01b0316336001600160a01b0316146104275760405162461bcd60e51b815260206004820152600360248201526221a12b60e91b604482015260640161014a565b600061043583850185610b01565b805160408201516020830151929350610458926001600160a01b031691906105df565b8051604051633a62959560e21b81526001600160a01b039091169063e98a5654906104899087908790600401610bf8565b600060405180830381600087803b1580156104a357600080fd5b505af11580156104b7573d6000803e3d6000fd5b5050505050505050565b6040516001600160a01b038085166024830152831660448201526064810182905261052c9085906323b872dd60e01b906084015b60408051601f198184030181529190526020810180516001600160e01b03166001600160e01b031990931692909217909152610614565b50505050565b604051636eb1769f60e11b81523060048201526001600160a01b0383811660248301526000919085169063dd62ed3e90604401602060405180830381865afa158015610582573d6000803e3d6000fd5b505050506040513d601f19601f820116820180604052508101906105a69190610a78565b905061052c8463095ea7b360e01b856105bf8686610c27565b6040516001600160a01b03909216602483015260448201526064016104f5565b6040516001600160a01b03831660248201526044810182905261060f90849063a9059cbb60e01b906064016104f5565b505050565b6000610669826040518060400160405280602081526020017f5361666545524332303a206c6f772d6c6576656c2063616c6c206661696c6564815250856001600160a01b03166106e99092919063ffffffff16565b905080516000148061068a57508080602001905181019061068a9190610c4e565b61060f5760405162461bcd60e51b815260206004820152602a60248201527f5361666545524332303a204552433230206f7065726174696f6e20646964206e6044820152691bdd081cdd58d8d9595960b21b606482015260840161014a565b60606106f88484600085610700565b949350505050565b6060824710156107615760405162461bcd60e51b815260206004820152602660248201527f416464726573733a20696e73756666696369656e742062616c616e636520666f6044820152651c8818d85b1b60d21b606482015260840161014a565b600080866001600160a01b0316858760405161077d9190610c77565b60006040518083038185875af1925050503d80600081146107ba576040519150601f19603f3d011682016040523d82523d6000602084013e6107bf565b606091505b50915091506107d0878383876107db565b979650505050505050565b6060831561084a578251600003610843576001600160a01b0385163b6108435760405162461bcd60e51b815260206004820152601d60248201527f416464726573733a2063616c6c20746f206e6f6e2d636f6e7472616374000000604482015260640161014a565b50816106f8565b6106f8838381511561085f5781518083602001fd5b8060405162461bcd60e51b815260040161014a9190610c93565b80356001600160a01b038116811461089057600080fd5b919050565b60008083601f8401126108a757600080fd5b50813567ffffffffffffffff8111156108bf57600080fd5b6020830191508360208285010111156108d757600080fd5b9250929050565b6000806000806000608086880312156108f657600080fd5b6108ff86610879565b94506020860135935061091460408701610879565b9250606086013567ffffffffffffffff81111561093057600080fd5b61093c88828901610895565b969995985093965092949392505050565b6000806020838503121561096057600080fd5b823567ffffffffffffffff81111561097757600080fd5b61098385828601610895565b90969095509350505050565b60005b838110156109aa578181015183820152602001610992565b50506000910152565b600081518084526109cb81602086016020860161098f565b601f01601f19169290920160200192915050565b60208152600060018060a01b038084511660208401528060208501511660408401525060408301516060830152606083015160a06080840152610a2560c08401826109b3565b9050608084015160a08401528091505092915050565b6001600160a01b0385811682528416602082015260408101839052608060608201819052600090610a6e908301846109b3565b9695505050505050565b600060208284031215610a8a57600080fd5b5051919050565b634e487b7160e01b600052604160045260246000fd5b60405160a0810167ffffffffffffffff81118282101715610aca57610aca610a91565b60405290565b604051601f8201601f1916810167ffffffffffffffff81118282101715610af957610af9610a91565b604052919050565b60006020808385031215610b1457600080fd5b823567ffffffffffffffff80821115610b2c57600080fd5b9084019060a08287031215610b4057600080fd5b610b48610aa7565b610b5183610879565b8152610b5e848401610879565b8482015260408301356040820152606083013582811115610b7e57600080fd5b8301601f81018813610b8f57600080fd5b803583811115610ba157610ba1610a91565b610bb3601f8201601f19168701610ad0565b93508084528886828401011115610bc957600080fd5b808683018786013760008682860101525050816060820152608083013560808201528094505050505092915050565b60208152816020820152818360408301376000818301604090810191909152601f909201601f19160101919050565b80820180821115610c4857634e487b7160e01b600052601160045260246000fd5b92915050565b600060208284031215610c6057600080fd5b81518015158114610c7057600080fd5b9392505050565b60008251610c8981846020870161098f565b9190910192915050565b602081526000610c7060208301846109b356fea264697066735822122020b2f7d3bb94adcdb81566b507d9bd24c91cc2529e3d90a1b9d4483d4cacada764736f6c63430008130033","linkReferences":{}},"methodIdentifiers":{"LEVERAGE_MANAGER()":"c26f10e9","callback(bytes)":"e98a5654","flash(address,uint256,address,bytes)":"7a05edcd","paymentAmount()":"c35905c6","paymentToken()":"3013ce29","source()":"67e828bf"},"id":24}