{"abi":[{"type":"constructor","inputs":[{"name":"_name","type":"string","internalType":"string"},{"name":"_symbol","type":"string","internalType":"string"},{"name":"__asset","type":"address","internalType":"address"}],"stateMutability":"nonpayable"},{"type":"function","name":"DOMAIN_SEPARATOR","inputs":[],"outputs":[{"name":"","type":"bytes32","internalType":"bytes32"}],"stateMutability":"view"},{"type":"function","name":"allowance","inputs":[{"name":"owner","type":"address","internalType":"address"},{"name":"spender","type":"address","internalType":"address"}],"outputs":[{"name":"","type":"uint256","internalType":"uint256"}],"stateMutability":"view"},{"type":"function","name":"approve","inputs":[{"name":"spender","type":"address","internalType":"address"},{"name":"amount","type":"uint256","internalType":"uint256"}],"outputs":[{"name":"","type":"bool","internalType":"bool"}],"stateMutability":"nonpayable"},{"type":"function","name":"asset","inputs":[],"outputs":[{"name":"","type":"address","internalType":"address"}],"stateMutability":"view"},{"type":"function","name":"balanceOf","inputs":[{"name":"account","type":"address","internalType":"address"}],"outputs":[{"name":"","type":"uint256","internalType":"uint256"}],"stateMutability":"view"},{"type":"function","name":"convertToAssets","inputs":[{"name":"_shares","type":"uint256","internalType":"uint256"}],"outputs":[{"name":"_assets","type":"uint256","internalType":"uint256"}],"stateMutability":"view"},{"type":"function","name":"convertToShares","inputs":[{"name":"_assets","type":"uint256","internalType":"uint256"}],"outputs":[{"name":"_shares","type":"uint256","internalType":"uint256"}],"stateMutability":"view"},{"type":"function","name":"decimals","inputs":[],"outputs":[{"name":"","type":"uint8","internalType":"uint8"}],"stateMutability":"view"},{"type":"function","name":"decreaseAllowance","inputs":[{"name":"spender","type":"address","internalType":"address"},{"name":"subtractedValue","type":"uint256","internalType":"uint256"}],"outputs":[{"name":"","type":"bool","internalType":"bool"}],"stateMutability":"nonpayable"},{"type":"function","name":"deposit","inputs":[{"name":"_assets","type":"uint256","internalType":"uint256"},{"name":"_receiver","type":"address","internalType":"address"}],"outputs":[{"name":"_shares","type":"uint256","internalType":"uint256"}],"stateMutability":"nonpayable"},{"type":"function","name":"donate","inputs":[{"name":"_assetAmt","type":"uint256","internalType":"uint256"}],"outputs":[],"stateMutability":"nonpayable"},{"type":"function","name":"eip712Domain","inputs":[],"outputs":[{"name":"fields","type":"bytes1","internalType":"bytes1"},{"name":"name","type":"string","internalType":"string"},{"name":"version","type":"string","internalType":"string"},{"name":"chainId","type":"uint256","internalType":"uint256"},{"name":"verifyingContract","type":"address","internalType":"address"},{"name":"salt","type":"bytes32","internalType":"bytes32"},{"name":"extensions","type":"uint256[]","internalType":"uint256[]"}],"stateMutability":"view"},{"type":"function","name":"increaseAllowance","inputs":[{"name":"spender","type":"address","internalType":"address"},{"name":"addedValue","type":"uint256","internalType":"uint256"}],"outputs":[{"name":"","type":"bool","internalType":"bool"}],"stateMutability":"nonpayable"},{"type":"function","name":"lastAssetChange","inputs":[],"outputs":[{"name":"","type":"uint256","internalType":"uint256"}],"stateMutability":"view"},{"type":"function","name":"maxDeposit","inputs":[{"name":"","type":"address","internalType":"address"}],"outputs":[{"name":"maxAssets","type":"uint256","internalType":"uint256"}],"stateMutability":"pure"},{"type":"function","name":"maxMint","inputs":[{"name":"","type":"address","internalType":"address"}],"outputs":[{"name":"maxShares","type":"uint256","internalType":"uint256"}],"stateMutability":"pure"},{"type":"function","name":"maxRedeem","inputs":[{"name":"_owner","type":"address","internalType":"address"}],"outputs":[{"name":"_maxShares","type":"uint256","internalType":"uint256"}],"stateMutability":"view"},{"type":"function","name":"maxVaults","inputs":[],"outputs":[{"name":"","type":"uint8","internalType":"uint8"}],"stateMutability":"view"},{"type":"function","name":"maxWithdraw","inputs":[{"name":"_owner","type":"address","internalType":"address"}],"outputs":[{"name":"_maxAssets","type":"uint256","internalType":"uint256"}],"stateMutability":"view"},{"type":"function","name":"mint","inputs":[{"name":"_shares","type":"uint256","internalType":"uint256"},{"name":"_receiver","type":"address","internalType":"address"}],"outputs":[{"name":"_assets","type":"uint256","internalType":"uint256"}],"stateMutability":"nonpayable"},{"type":"function","name":"name","inputs":[],"outputs":[{"name":"","type":"string","internalType":"string"}],"stateMutability":"view"},{"type":"function","name":"nonces","inputs":[{"name":"owner","type":"address","internalType":"address"}],"outputs":[{"name":"","type":"uint256","internalType":"uint256"}],"stateMutability":"view"},{"type":"function","name":"owner","inputs":[],"outputs":[{"name":"","type":"address","internalType":"address"}],"stateMutability":"view"},{"type":"function","name":"permit","inputs":[{"name":"owner","type":"address","internalType":"address"},{"name":"spender","type":"address","internalType":"address"},{"name":"value","type":"uint256","internalType":"uint256"},{"name":"deadline","type":"uint256","internalType":"uint256"},{"name":"v","type":"uint8","internalType":"uint8"},{"name":"r","type":"bytes32","internalType":"bytes32"},{"name":"s","type":"bytes32","internalType":"bytes32"}],"outputs":[],"stateMutability":"nonpayable"},{"type":"function","name":"previewDeposit","inputs":[{"name":"_assets","type":"uint256","internalType":"uint256"}],"outputs":[{"name":"_shares","type":"uint256","internalType":"uint256"}],"stateMutability":"view"},{"type":"function","name":"previewMint","inputs":[{"name":"_shares","type":"uint256","internalType":"uint256"}],"outputs":[{"name":"_assets","type":"uint256","internalType":"uint256"}],"stateMutability":"view"},{"type":"function","name":"previewRedeem","inputs":[{"name":"_shares","type":"uint256","internalType":"uint256"}],"outputs":[{"name":"_assets","type":"uint256","internalType":"uint256"}],"stateMutability":"view"},{"type":"function","name":"previewWithdraw","inputs":[{"name":"_assets","type":"uint256","internalType":"uint256"}],"outputs":[{"name":"_shares","type":"uint256","internalType":"uint256"}],"stateMutability":"view"},{"type":"function","name":"redeem","inputs":[{"name":"_shares","type":"uint256","internalType":"uint256"},{"name":"_receiver","type":"address","internalType":"address"},{"name":"","type":"address","internalType":"address"}],"outputs":[{"name":"_assets","type":"uint256","internalType":"uint256"}],"stateMutability":"nonpayable"},{"type":"function","name":"renounceOwnership","inputs":[],"outputs":[],"stateMutability":"nonpayable"},{"type":"function","name":"setMaxVaults","inputs":[{"name":"_newMax","type":"uint8","internalType":"uint8"}],"outputs":[],"stateMutability":"nonpayable"},{"type":"function","name":"setUpdateInterestOnVaults","inputs":[{"name":"_exec","type":"bool","internalType":"bool"}],"outputs":[],"stateMutability":"nonpayable"},{"type":"function","name":"setVaultMaxPerc","inputs":[{"name":"_vault","type":"address","internalType":"address"},{"name":"_percentage","type":"uint256","internalType":"uint256"}],"outputs":[],"stateMutability":"nonpayable"},{"type":"function","name":"setVaultWhitelist","inputs":[{"name":"_vault","type":"address","internalType":"address"},{"name":"_allowed","type":"bool","internalType":"bool"}],"outputs":[],"stateMutability":"nonpayable"},{"type":"function","name":"symbol","inputs":[],"outputs":[{"name":"","type":"string","internalType":"string"}],"stateMutability":"view"},{"type":"function","name":"totalAssets","inputs":[],"outputs":[{"name":"","type":"uint256","internalType":"uint256"}],"stateMutability":"view"},{"type":"function","name":"totalAvailableAssets","inputs":[],"outputs":[{"name":"","type":"uint256","internalType":"uint256"}],"stateMutability":"view"},{"type":"function","name":"totalSupply","inputs":[],"outputs":[{"name":"","type":"uint256","internalType":"uint256"}],"stateMutability":"view"},{"type":"function","name":"transfer","inputs":[{"name":"to","type":"address","internalType":"address"},{"name":"amount","type":"uint256","internalType":"uint256"}],"outputs":[{"name":"","type":"bool","internalType":"bool"}],"stateMutability":"nonpayable"},{"type":"function","name":"transferFrom","inputs":[{"name":"from","type":"address","internalType":"address"},{"name":"to","type":"address","internalType":"address"},{"name":"amount","type":"uint256","internalType":"uint256"}],"outputs":[{"name":"","type":"bool","internalType":"bool"}],"stateMutability":"nonpayable"},{"type":"function","name":"transferOwnership","inputs":[{"name":"newOwner","type":"address","internalType":"address"}],"outputs":[],"stateMutability":"nonpayable"},{"type":"function","name":"vaultUtilization","inputs":[{"name":"","type":"address","internalType":"address"}],"outputs":[{"name":"","type":"uint256","internalType":"uint256"}],"stateMutability":"view"},{"type":"function","name":"vaultWhitelist","inputs":[{"name":"","type":"address","internalType":"address"}],"outputs":[{"name":"","type":"bool","internalType":"bool"}],"stateMutability":"view"},{"type":"function","name":"whitelistDeposit","inputs":[{"name":"_assetAmt","type":"uint256","internalType":"uint256"}],"outputs":[],"stateMutability":"nonpayable"},{"type":"function","name":"whitelistWithdraw","inputs":[{"name":"_assetAmt","type":"uint256","internalType":"uint256"}],"outputs":[],"stateMutability":"nonpayable"},{"type":"function","name":"withdraw","inputs":[{"name":"_assets","type":"uint256","internalType":"uint256"},{"name":"_receiver","type":"address","internalType":"address"},{"name":"","type":"address","internalType":"address"}],"outputs":[{"name":"_shares","type":"uint256","internalType":"uint256"}],"stateMutability":"nonpayable"},{"type":"event","name":"Approval","inputs":[{"name":"owner","type":"address","indexed":true,"internalType":"address"},{"name":"spender","type":"address","indexed":true,"internalType":"address"},{"name":"value","type":"uint256","indexed":false,"internalType":"uint256"}],"anonymous":false},{"type":"event","name":"Deposit","inputs":[{"name":"sender","type":"address","indexed":true,"internalType":"address"},{"name":"owner","type":"address","indexed":true,"internalType":"address"},{"name":"assets","type":"uint256","indexed":false,"internalType":"uint256"},{"name":"shares","type":"uint256","indexed":false,"internalType":"uint256"}],"anonymous":false},{"type":"event","name":"DonateAssets","inputs":[{"name":"user","type":"address","indexed":true,"internalType":"address"},{"name":"amount","type":"uint256","indexed":false,"internalType":"uint256"}],"anonymous":false},{"type":"event","name":"EIP712DomainChanged","inputs":[],"anonymous":false},{"type":"event","name":"OwnershipTransferred","inputs":[{"name":"previousOwner","type":"address","indexed":true,"internalType":"address"},{"name":"newOwner","type":"address","indexed":true,"internalType":"address"}],"anonymous":false},{"type":"event","name":"PayBackUsedAssets","inputs":[{"name":"user","type":"address","indexed":true,"internalType":"address"},{"name":"amount","type":"uint256","indexed":false,"internalType":"uint256"}],"anonymous":false},{"type":"event","name":"SetVaultMaxAlloPercentage","inputs":[{"name":"vault","type":"address","indexed":true,"internalType":"address"},{"name":"percentage","type":"uint256","indexed":false,"internalType":"uint256"}],"anonymous":false},{"type":"event","name":"SetVaultWhitelist","inputs":[{"name":"vault","type":"address","indexed":true,"internalType":"address"},{"name":"isWhitelisted","type":"bool","indexed":false,"internalType":"bool"}],"anonymous":false},{"type":"event","name":"Transfer","inputs":[{"name":"from","type":"address","indexed":true,"internalType":"address"},{"name":"to","type":"address","indexed":true,"internalType":"address"},{"name":"value","type":"uint256","indexed":false,"internalType":"uint256"}],"anonymous":false},{"type":"event","name":"WhitelistDeposit","inputs":[{"name":"user","type":"address","indexed":true,"internalType":"address"},{"name":"amount","type":"uint256","indexed":false,"internalType":"uint256"}],"anonymous":false},{"type":"event","name":"WhitelistWithdraw","inputs":[{"name":"user","type":"address","indexed":true,"internalType":"address"},{"name":"amount","type":"uint256","indexed":false,"internalType":"uint256"}],"anonymous":false},{"type":"event","name":"Withdraw","inputs":[{"name":"sender","type":"address","indexed":true,"internalType":"address"},{"name":"receiver","type":"address","indexed":true,"internalType":"address"},{"name":"owner","type":"address","indexed":true,"internalType":"address"},{"name":"assets","type":"uint256","indexed":false,"internalType":"uint256"},{"name":"shares","type":"uint256","indexed":false,"internalType":"uint256"}],"anonymous":false},{"type":"error","name":"InvalidShortString","inputs":[]},{"type":"error","name":"StringTooLong","inputs":[{"name":"str","type":"string","internalType":"string"}]}],"bytecode":{"object":"0x610160604052600d805461ffff1916610c011790553480156200002157600080fd5b5060405162002e4238038062002e42833981016040819052620000449162000312565b6040805180820190915260018152603160f81b602082015283908190818560036200007083826200042e565b5060046200007f82826200042e565b5062000091915083905060056200016e565b61012052620000a28160066200016e565b61014052815160208084019190912060e052815190820120610100524660a0526200013060e05161010051604080517f8b73c3c69bb8fe3d512ecc4cf759cc79239f7b179b0ffacaa9a75d522b39400f60208201529081019290925260608201524660808201523060a082015260009060c00160405160208183030381529060405280519060200120905090565b60805250503060c052506200014533620001a7565b600a80546001600160a01b0319166001600160a01b039290921691909117905550620005549050565b60006020835110156200018e576200018683620001f9565b9050620001a1565b816200019b84826200042e565b5060ff90505b92915050565b600980546001600160a01b038381166001600160a01b0319831681179093556040519116919082907f8be0079c531659141344cd1fd0a4f28419497f9722a3daafe3b4186f6b6457e090600090a35050565b600080829050601f8151111562000230578260405163305a27a960e01b8152600401620002279190620004fa565b60405180910390fd5b80516200023d826200052f565b179392505050565b634e487b7160e01b600052604160045260246000fd5b60005b83811015620002785781810151838201526020016200025e565b50506000910152565b600082601f8301126200029357600080fd5b81516001600160401b0380821115620002b057620002b062000245565b604051601f8301601f19908116603f01168101908282118183101715620002db57620002db62000245565b81604052838152866020858801011115620002f557600080fd5b620003088460208301602089016200025b565b9695505050505050565b6000806000606084860312156200032857600080fd5b83516001600160401b03808211156200034057600080fd5b6200034e8783880162000281565b945060208601519150808211156200036557600080fd5b50620003748682870162000281565b604086015190935090506001600160a01b03811681146200039457600080fd5b809150509250925092565b600181811c90821680620003b457607f821691505b602082108103620003d557634e487b7160e01b600052602260045260246000fd5b50919050565b601f8211156200042957600081815260208120601f850160051c81016020861015620004045750805b601f850160051c820191505b81811015620004255782815560010162000410565b5050505b505050565b81516001600160401b038111156200044a576200044a62000245565b62000462816200045b84546200039f565b84620003db565b602080601f8311600181146200049a5760008415620004815750858301515b600019600386901b1c1916600185901b17855562000425565b600085815260208120601f198616915b82811015620004cb57888601518255948401946001909101908401620004aa565b5085821015620004ea5787850151600019600388901b60f8161c191681555b5050505050600190811b01905550565b60208152600082518060208401526200051b8160408501602087016200025b565b601f01601f19169190910160400192915050565b80516020808301519190811015620003d55760001960209190910360031b1b16919050565b60805160a05160c05160e051610100516101205161014051612893620005af6000396000610b5a01526000610b2f0152600061167801526000611650015260006115ab015260006115d5015260006115ff01526128936000f3fe608060405234801561001057600080fd5b506004361061028a5760003560e01c806384b0196e1161015c578063ba087652116100ce578063d905777e11610087578063d905777e14610584578063dd62ed3e14610597578063ef8b30f7146102f1578063f14faf6f146105aa578063f2fde38b146105bd578063f556d889146105d057600080fd5b8063ba08765214610525578063c63d75b6146103b4578063c6e6f59214610538578063ce96cb771461054b578063d2c9a94f1461055e578063d505accf1461057157600080fd5b80639d6c6351116101205780639d6c6351146104b9578063a457c2d7146104d9578063a9059cbb146104ec578063b187eaf6146104ff578063b3d7f6b9146103c7578063b460af941461051257600080fd5b806384b0196e146104605780638da5cb5b1461047b5780638eea33381461048c57806394bf804d1461049e57806395d89b41146104b157600080fd5b806338d52e0f116102005780635696276a116101b95780635696276a146103ed57806361325e18146103f65780636e553f651461040957806370a082311461041c578063715018a6146104455780637ecebe001461044d57600080fd5b806338d52e0f14610359578063395093511461037e57806339daa1b214610391578063402d267d146103b45780634cdad506146103c757806350d01453146103da57600080fd5b806313b98c0f1161025257806313b98c0f1461030457806318160ddd1461030c57806323b872dd14610314578063313ce567146103275780633302a6a11461033c5780633644e5151461035157600080fd5b806301e1d1141461028f57806306fdde03146102a657806307a2d13a146102bb578063095ea7b3146102ce5780630a28a477146102f1575b600080fd5b600b545b6040519081526020015b60405180910390f35b6102ae6105e3565b60405161029d919061241e565b6102936102c9366004612431565b610675565b6102e16102dc366004612466565b6106a5565b604051901515815260200161029d565b6102936102ff366004612431565b6106bd565b6102936106c8565b600254610293565b6102e1610322366004612490565b6106df565b60125b60405160ff909116815260200161029d565b61034f61034a3660046124da565b610703565b005b610293610956565b600a546001600160a01b03165b6040516001600160a01b03909116815260200161029d565b6102e161038c366004612466565b610960565b6102e161039f366004612511565b600f6020526000908152604090205460ff1681565b6102936103c2366004612511565b610982565b6102936103d5366004612431565b610991565b61034f6103e836600461252c565b61099c565b610293600e5481565b61034f610404366004612431565b6109f5565b610293610417366004612549565b610adc565b61029361042a366004612511565b6001600160a01b031660009081526020819052604090205490565b61034f610aef565b61029361045b366004612511565b610b03565b610468610b21565b60405161029d9796959493929190612575565b6009546001600160a01b0316610366565b600d5461032a90610100900460ff1681565b6102936104ac366004612549565b610baa565b6102ae610bc8565b6102936104c7366004612511565b60106020526000908152604090205481565b6102e16104e7366004612466565b610bd7565b6102e16104fa366004612466565b610c52565b61034f61050d366004612466565b610c60565b61029361052036600461260b565b610ced565b61029361053336600461260b565b610d0c565b610293610546366004612431565b610d20565b610293610559366004612511565b610d3f565b61034f61056c366004612658565b610d78565b61034f61057f366004612673565b610dd4565b610293610592366004612511565b610f38565b6102936105a53660046126dd565b610f56565b61034f6105b8366004612431565b610f81565b61034f6105cb366004612511565b610fd6565b61034f6105de366004612431565b61104f565b6060600380546105f290612707565b80601f016020809104026020016040519081016040528092919081815260200182805461061e90612707565b801561066b5780601f106106405761010080835404028352916020019161066b565b820191906000526020600020905b81548152906001019060200180831161064e57829003601f168201915b5050505050905090565b6000676765c793fa10079d601b1b61068b6111b1565b6106959084612751565b61069f9190612768565b92915050565b6000336106b3818585611201565b5060019392505050565b600061069f82610d20565b6000600c54600b546106da919061278a565b905090565b6000336106ed858285611326565b6106f88585856113a0565b506001949350505050565b61070b611544565b6001600160a01b0382166000908152600f602052604090205481151560ff9091161515036107645760405162461bcd60e51b81526020600482015260016024820152601560fa1b60448201526064015b60405180910390fd5b6001600160a01b0382166000908152600f60205260409020805460ff1916821580159190911790915561083357600d5460135461010090910460ff1610156107d25760405162461bcd60e51b81526020600482015260016024820152604d60f81b604482015260640161075b565b601380546001600160a01b0384166000818152601460205260408120839055600183018455929092527f66de8ffda797e3de9c05e8fc57b3bf0ec28a930d40b0d285d93c06501cf6a0900180546001600160a01b031916909117905561090d565b6001600160a01b0382166000908152601460205260408120546013805491929161085f9060019061278a565b8154811061086f5761086f61279d565b600091825260209091200154601380546001600160a01b03909216925082918490811061089e5761089e61279d565b600091825260208083209190910180546001600160a01b0319166001600160a01b03948516179055918316815260149091526040902082905560138054806108e8576108e86127b3565b600082815260209020810160001990810180546001600160a01b031916905501905550505b816001600160a01b03167f116f51cdebd8bed41fe13da2a0d0bfb7b85e1067f9086579840adae790a9d5628260405161094a911515815260200190565b60405180910390a25050565b60006106da61159e565b6000336106b38185856109738383610f56565b61097d91906127c9565b611201565b600061069f600160001961278a565b600061069f82610675565b6109a4611544565b600d5481151560ff9091161515036109e25760405162461bcd60e51b81526020600482015260016024820152601560fa1b604482015260640161075b565b600d805460ff1916911515919091179055565b336000908152600f602052604090205460ff16610a395760405162461bcd60e51b815260206004820152600260248201526115d360f21b604482015260640161075b565b33610a43816116c9565b6001600160a01b03811660009081526010602052604081208054849290610a6b90849061278a565b9250508190555081600c6000828254610a84919061278a565b9091555050600a54610aa1906001600160a01b031682308561191b565b806001600160a01b03167fb6c22585684dd990935b9395908b0ee4813b361c0ca4d27ce0fdd1595c20f7d18360405161094a91815260200190565b6000610ae88383611986565b9392505050565b610af7611544565b610b016000611a25565b565b6001600160a01b03811660009081526007602052604081205461069f565b600060608082808083610b557f00000000000000000000000000000000000000000000000000000000000000006005611a77565b610b807f00000000000000000000000000000000000000000000000000000000000000006006611a77565b60408051600080825260208201909252600f60f81b9b939a50919850469750309650945092509050565b6000610bb583610675565b9050610bc18183611986565b5092915050565b6060600480546105f290612707565b60003381610be58286610f56565b905083811015610c455760405162461bcd60e51b815260206004820152602560248201527f45524332303a2064656372656173656420616c6c6f77616e63652062656c6f77604482015264207a65726f60d81b606482015260840161075b565b6106f88286868403611201565b6000336106b38185856113a0565b610c68611544565b612710811115610ca05760405162461bcd60e51b815260206004820152600360248201526209a82b60eb1b604482015260640161075b565b6001600160a01b03821660008181526011602052604090819020839055517f4257b6a87560d9e4678f26488eb8910c73149521818a875f266758b109f6238e9061094a9084815260200190565b6000610cf884610d20565b9050610d048184611b22565b509392505050565b6000610d188484611b22565b949350505050565b6000610d2a6111b1565b610695676765c793fa10079d601b1b84612751565b6000676765c793fa10079d601b1b610d556111b1565b6001600160a01b0384166000908152602081905260409020546106959190612751565b610d80611544565b60148160ff161115610db85760405162461bcd60e51b81526020600482015260016024820152604d60f81b604482015260640161075b565b600d805460ff9092166101000261ff0019909216919091179055565b83421115610e245760405162461bcd60e51b815260206004820152601d60248201527f45524332305065726d69743a206578706972656420646561646c696e65000000604482015260640161075b565b60007f6e71edae12b1b97f4d1f60370fef10105fa2faae0126114a169c64845d6126c9888888610e538c611bc2565b6040805160208101969096526001600160a01b0394851690860152929091166060840152608083015260a082015260c0810186905260e0016040516020818303038152906040528051906020012090506000610eae82611bea565b90506000610ebe82878787611c17565b9050896001600160a01b0316816001600160a01b031614610f215760405162461bcd60e51b815260206004820152601e60248201527f45524332305065726d69743a20696e76616c6964207369676e61747572650000604482015260640161075b565b610f2c8a8a8a611201565b50505050505050505050565b6001600160a01b03811660009081526020819052604081205461069f565b6001600160a01b03918216600090815260016020908152604080832093909416825291909152205490565b610f8b8130611986565b50610f9e30610f9983610d20565b611c3f565b60405181815233907f7b963553b9034760579e291412f0cea2d5aa07ce7d2a74937541188d7cb94b919060200160405180910390a250565b610fde611544565b6001600160a01b0381166110435760405162461bcd60e51b815260206004820152602660248201527f4f776e61626c653a206e6577206f776e657220697320746865207a65726f206160448201526564647265737360d01b606482015260840161075b565b61104c81611a25565b50565b336000908152600f602052604090205460ff166110935760405162461bcd60e51b815260206004820152600260248201526115d360f21b604482015260640161075b565b3361109d816116c9565b6001600160a01b038116600090815260116020908152604080832054600b5460109093529220546110cf9085906127c9565b6110db90612710612751565b6110e59190612768565b11156111195760405162461bcd60e51b815260206004820152600360248201526209a82b60eb1b604482015260640161075b565b6001600160a01b038116600090815260106020526040812080548492906111419084906127c9565b9250508190555081600c600082825461115a91906127c9565b9091555050600a54611176906001600160a01b03168284611d6e565b806001600160a01b03167fef505329317f5ae933759f15a2053c0e8999363f3256a766ffd8453e28108d0a8360405161094a91815260200190565b6000806111bd60025490565b905080156111ee5780600b54676765c793fa10079d601b1b6111df9190612751565b6111e99190612768565b6111fb565b676765c793fa10079d601b1b5b91505090565b6001600160a01b0383166112635760405162461bcd60e51b8152602060048201526024808201527f45524332303a20617070726f76652066726f6d20746865207a65726f206164646044820152637265737360e01b606482015260840161075b565b6001600160a01b0382166112c45760405162461bcd60e51b815260206004820152602260248201527f45524332303a20617070726f766520746f20746865207a65726f206164647265604482015261737360f01b606482015260840161075b565b6001600160a01b0383811660008181526001602090815260408083209487168084529482529182902085905590518481527f8c5be1e5ebec7d5bd14f71427d1e84f3dd0314c0f7b2291e5b200ac8c7c3b92591015b60405180910390a3505050565b60006113328484610f56565b9050600019811461139a578181101561138d5760405162461bcd60e51b815260206004820152601d60248201527f45524332303a20696e73756666696369656e7420616c6c6f77616e6365000000604482015260640161075b565b61139a8484848403611201565b50505050565b6001600160a01b0383166114045760405162461bcd60e51b815260206004820152602560248201527f45524332303a207472616e736665722066726f6d20746865207a65726f206164604482015264647265737360d81b606482015260840161075b565b6001600160a01b0382166114665760405162461bcd60e51b815260206004820152602360248201527f45524332303a207472616e7366657220746f20746865207a65726f206164647260448201526265737360e81b606482015260840161075b565b6001600160a01b038316600090815260208190526040902054818110156114de5760405162461bcd60e51b815260206004820152602660248201527f45524332303a207472616e7366657220616d6f756e7420657863656564732062604482015265616c616e636560d01b606482015260840161075b565b6001600160a01b03848116600081815260208181526040808320878703905593871680835291849020805487019055925185815290927fddf252ad1be2c89b69c2b068fc378daa952ba7f163c4a11628f55a4df523b3ef910160405180910390a361139a565b6009546001600160a01b03163314610b015760405162461bcd60e51b815260206004820181905260248201527f4f776e61626c653a2063616c6c6572206973206e6f7420746865206f776e6572604482015260640161075b565b6000306001600160a01b037f0000000000000000000000000000000000000000000000000000000000000000161480156115f757507f000000000000000000000000000000000000000000000000000000000000000046145b1561162157507f000000000000000000000000000000000000000000000000000000000000000090565b6106da604080517f8b73c3c69bb8fe3d512ecc4cf759cc79239f7b179b0ffacaa9a75d522b39400f60208201527f0000000000000000000000000000000000000000000000000000000000000000918101919091527f000000000000000000000000000000000000000000000000000000000000000060608201524660808201523060a082015260009060c00160405160208183030381529060405280519060200120905090565b6001600160a01b038116600081815260126020526040908190205490516303d1689d60e11b8152676765c793fa10079d601b1b60048201529091906307a2d13a90602401602060405180830381865afa15801561172a573d6000803e3d6000fd5b505050506040513d601f19601f8201168201806040525081019061174e91906127dc565b6001600160a01b038316600090815260126020526040812091909155819003611775575050565b6001600160a01b03821660009081526012602052604081205482116117df576001600160a01b038316600090815260126020526040902054676765c793fa10079d601b1b9083906117c69083612751565b6117d09190612768565b6117da919061278a565b611823565b6001600160a01b038316600090815260126020526040902054676765c793fa10079d601b1b9061180f8483612751565b6118199190612768565b611823919061278a565b6001600160a01b03841660009081526010602090815260408083205460129092529091205491925090831161188157676765c793fa10079d601b1b6118688383612751565b6118729190612768565b61187c90826127c9565b6118ab565b676765c793fa10079d601b1b6118978383612751565b6118a19190612768565b6118ab908261278a565b6001600160a01b0385166000908152601060205260409020819055600c546118d490839061278a565b6118de91906127c9565b600c556001600160a01b038416600090815260106020526040902054600b5461190890839061278a565b61191291906127c9565b600b5550505050565b6040516001600160a01b038085166024830152831660448201526064810182905261139a9085906323b872dd60e01b906084015b60408051601f198184030181529190526020810180516001600160e01b03166001600160e01b031990931692909217909152611d9e565b42600e55600061199583610d20565b905082600b60008282546119a991906127c9565b909155506119b990508282611e73565b6119d133600a546001600160a01b031690308661191b565b6119d9611f32565b60408051848152602081018390526001600160a01b0384169133917fdcbc1c05240f31ff3ad067ef1ee35ce4997762752e3a095284754544f4c709d7910160405180910390a392915050565b600980546001600160a01b038381166001600160a01b0319831681179093556040519116919082907f8be0079c531659141344cd1fd0a4f28419497f9722a3daafe3b4186f6b6457e090600090a35050565b606060ff8314611a9157611a8a83611fd1565b905061069f565b818054611a9d90612707565b80601f0160208091040260200160405190810160405280929190818152602001828054611ac990612707565b8015611b165780601f10611aeb57610100808354040283529160200191611b16565b820191906000526020600020905b815481529060010190602001808311611af957829003601f168201915b5050505050905061069f565b42600e556000611b3183610675565b9050611b3d3384611c3f565b600a54611b54906001600160a01b03168383611d6e565b80600b6000828254611b66919061278a565b90915550611b749050611f32565b60408051828152602081018590526001600160a01b03841691829133917ffbde797d201c681b91056529119e0b02407c7bb96a4a2c75c01fc9667232c8db910160405180910390a492915050565b6001600160a01b03811660009081526007602052604090208054600181018255905b50919050565b600061069f611bf761159e565b8360405161190160f01b8152600281019290925260228201526042902090565b6000806000611c2887878787612010565b91509150611c35816120d4565b5095945050505050565b6001600160a01b038216611c9f5760405162461bcd60e51b815260206004820152602160248201527f45524332303a206275726e2066726f6d20746865207a65726f206164647265736044820152607360f81b606482015260840161075b565b6001600160a01b03821660009081526020819052604090205481811015611d135760405162461bcd60e51b815260206004820152602260248201527f45524332303a206275726e20616d6f756e7420657863656564732062616c616e604482015261636560f01b606482015260840161075b565b6001600160a01b0383166000818152602081815260408083208686039055600280548790039055518581529192917fddf252ad1be2c89b69c2b068fc378daa952ba7f163c4a11628f55a4df523b3ef9101611319565b505050565b6040516001600160a01b038316602482015260448101829052611d6990849063a9059cbb60e01b9060640161194f565b6000611df3826040518060400160405280602081526020017f5361666545524332303a206c6f772d6c6576656c2063616c6c206661696c6564815250856001600160a01b031661221e9092919063ffffffff16565b9050805160001480611e14575080806020019051810190611e1491906127f5565b611d695760405162461bcd60e51b815260206004820152602a60248201527f5361666545524332303a204552433230206f7065726174696f6e20646964206e6044820152691bdd081cdd58d8d9595960b21b606482015260840161075b565b6001600160a01b038216611ec95760405162461bcd60e51b815260206004820152601f60248201527f45524332303a206d696e7420746f20746865207a65726f206164647265737300604482015260640161075b565b8060026000828254611edb91906127c9565b90915550506001600160a01b038216600081815260208181526040808320805486019055518481527fddf252ad1be2c89b69c2b068fc378daa952ba7f163c4a11628f55a4df523b3ef910160405180910390a35050565b600d5460ff16611f3e57565b60005b60135481101561104c5760138181548110611f5e57611f5e61279d565b6000918252602082200154604080516303424d9760e21b815290516001600160a01b0390921692630d09365c9260048084019382900301818387803b158015611fa657600080fd5b505af1158015611fba573d6000803e3d6000fd5b505050508080611fc990612812565b915050611f41565b60606000611fde8361222d565b604080516020808252818301909252919250600091906020820181803683375050509182525060208101929092525090565b6000807f7fffffffffffffffffffffffffffffff5d576e7357a4501ddfe92f46681b20a083111561204757506000905060036120cb565b6040805160008082526020820180845289905260ff881692820192909252606081018690526080810185905260019060a0016020604051602081039080840390855afa15801561209b573d6000803e3d6000fd5b5050604051601f1901519150506001600160a01b0381166120c4576000600192509250506120cb565b9150600090505b94509492505050565b60008160048111156120e8576120e861282b565b036120f05750565b60018160048111156121045761210461282b565b036121515760405162461bcd60e51b815260206004820152601860248201527f45434453413a20696e76616c6964207369676e61747572650000000000000000604482015260640161075b565b60028160048111156121655761216561282b565b036121b25760405162461bcd60e51b815260206004820152601f60248201527f45434453413a20696e76616c6964207369676e6174757265206c656e67746800604482015260640161075b565b60038160048111156121c6576121c661282b565b0361104c5760405162461bcd60e51b815260206004820152602260248201527f45434453413a20696e76616c6964207369676e6174757265202773272076616c604482015261756560f01b606482015260840161075b565b6060610d188484600085612255565b600060ff8216601f81111561069f57604051632cd44ac360e21b815260040160405180910390fd5b6060824710156122b65760405162461bcd60e51b815260206004820152602660248201527f416464726573733a20696e73756666696369656e742062616c616e636520666f6044820152651c8818d85b1b60d21b606482015260840161075b565b600080866001600160a01b031685876040516122d29190612841565b60006040518083038185875af1925050503d806000811461230f576040519150601f19603f3d011682016040523d82523d6000602084013e612314565b606091505b509150915061232587838387612330565b979650505050505050565b6060831561239f578251600003612398576001600160a01b0385163b6123985760405162461bcd60e51b815260206004820152601d60248201527f416464726573733a2063616c6c20746f206e6f6e2d636f6e7472616374000000604482015260640161075b565b5081610d18565b610d1883838151156123b45781518083602001fd5b8060405162461bcd60e51b815260040161075b919061241e565b60005b838110156123e95781810151838201526020016123d1565b50506000910152565b6000815180845261240a8160208601602086016123ce565b601f01601f19169290920160200192915050565b602081526000610ae860208301846123f2565b60006020828403121561244357600080fd5b5035919050565b80356001600160a01b038116811461246157600080fd5b919050565b6000806040838503121561247957600080fd5b6124828361244a565b946020939093013593505050565b6000806000606084860312156124a557600080fd5b6124ae8461244a565b92506124bc6020850161244a565b9150604084013590509250925092565b801515811461104c57600080fd5b600080604083850312156124ed57600080fd5b6124f68361244a565b91506020830135612506816124cc565b809150509250929050565b60006020828403121561252357600080fd5b610ae88261244a565b60006020828403121561253e57600080fd5b8135610ae8816124cc565b6000806040838503121561255c57600080fd5b8235915061256c6020840161244a565b90509250929050565b60ff60f81b881681526000602060e08184015261259560e084018a6123f2565b83810360408501526125a7818a6123f2565b606085018990526001600160a01b038816608086015260a0850187905284810360c0860152855180825283870192509083019060005b818110156125f9578351835292840192918401916001016125dd565b50909c9b505050505050505050505050565b60008060006060848603121561262057600080fd5b833592506126306020850161244a565b915061263e6040850161244a565b90509250925092565b803560ff8116811461246157600080fd5b60006020828403121561266a57600080fd5b610ae882612647565b600080600080600080600060e0888a03121561268e57600080fd5b6126978861244a565b96506126a56020890161244a565b955060408801359450606088013593506126c160808901612647565b925060a0880135915060c0880135905092959891949750929550565b600080604083850312156126f057600080fd5b6126f98361244a565b915061256c6020840161244a565b600181811c9082168061271b57607f821691505b602082108103611be457634e487b7160e01b600052602260045260246000fd5b634e487b7160e01b600052601160045260246000fd5b808202811582820484141761069f5761069f61273b565b60008261278557634e487b7160e01b600052601260045260246000fd5b500490565b8181038181111561069f5761069f61273b565b634e487b7160e01b600052603260045260246000fd5b634e487b7160e01b600052603160045260246000fd5b8082018082111561069f5761069f61273b565b6000602082840312156127ee57600080fd5b5051919050565b60006020828403121561280757600080fd5b8151610ae8816124cc565b6000600182016128245761282461273b565b5060010190565b634e487b7160e01b600052602160045260246000fd5b600082516128538184602087016123ce565b919091019291505056fea264697066735822122043fcdf0f02f91f5f4addc6a4e1e10494236de4921252715d446c281f1bd6c9c564736f6c63430008130033","linkReferences":{}},"methodIdentifiers":{"DOMAIN_SEPARATOR()":"3644e515","allowance(address,address)":"dd62ed3e","approve(address,uint256)":"095ea7b3","asset()":"38d52e0f","balanceOf(address)":"70a08231","convertToAssets(uint256)":"07a2d13a","convertToShares(uint256)":"c6e6f592","decimals()":"313ce567","decreaseAllowance(address,uint256)":"a457c2d7","deposit(uint256,address)":"6e553f65","donate(uint256)":"f14faf6f","eip712Domain()":"84b0196e","increaseAllowance(address,uint256)":"39509351","lastAssetChange()":"5696276a","maxDeposit(address)":"402d267d","maxMint(address)":"c63d75b6","maxRedeem(address)":"d905777e","maxVaults()":"8eea3338","maxWithdraw(address)":"ce96cb77","mint(uint256,address)":"94bf804d","name()":"06fdde03","nonces(address)":"7ecebe00","owner()":"8da5cb5b","permit(address,address,uint256,uint256,uint8,bytes32,bytes32)":"d505accf","previewDeposit(uint256)":"ef8b30f7","previewMint(uint256)":"b3d7f6b9","previewRedeem(uint256)":"4cdad506","previewWithdraw(uint256)":"0a28a477","redeem(uint256,address,address)":"ba087652","renounceOwnership()":"715018a6","setMaxVaults(uint8)":"d2c9a94f","setUpdateInterestOnVaults(bool)":"50d01453","setVaultMaxPerc(address,uint256)":"b187eaf6","setVaultWhitelist(address,bool)":"3302a6a1","symbol()":"95d89b41","totalAssets()":"01e1d114","totalAvailableAssets()":"13b98c0f","totalSupply()":"18160ddd","transfer(address,uint256)":"a9059cbb","transferFrom(address,address,uint256)":"23b872dd","transferOwnership(address)":"f2fde38b","vaultUtilization(address)":"9d6c6351","vaultWhitelist(address)":"39daa1b2","whitelistDeposit(uint256)":"61325e18","whitelistWithdraw(uint256)":"f556d889","withdraw(uint256,address,address)":"b460af94"},"id":7}