{"abi":[{"type":"function","name":"platform","inputs":[],"outputs":[{"name":"","type":"address","internalType":"contract IPlatform"}],"stateMutability":"view"},{"type":"function","name":"setPlatform","inputs":[{"name":"_platform","type":"address","internalType":"address"}],"outputs":[],"stateMutability":"nonpayable"}],"bytecode":{"object":"0x608060405234801561001057600080fd5b5060f88061001f6000396000f3fe6080604052348015600f57600080fd5b506004361060325760003560e01c80634bde38c81460375780636945c5ea146065575b600080fd5b6000546049906001600160a01b031681565b6040516001600160a01b03909116815260200160405180910390f35b609260703660046094565b600080546001600160a01b0319166001600160a01b0392909216919091179055565b005b60006020828403121560a557600080fd5b81356001600160a01b038116811460bb57600080fd5b939250505056fea2646970667358221220dae187d7c5f7fe58be09c458745229f34572bfa2f762b3efef5c6e2111aeda2964736f6c63430008130033","linkReferences":{}},"methodIdentifiers":{"platform()":"4bde38c8","setPlatform(address)":"6945c5ea"},"id":133}