{"abi":[{"type":"function","name":"DEN","inputs":[],"outputs":[{"name":"","type":"uint256","internalType":"uint256"}],"stateMutability":"view"},{"type":"function","name":"owner","inputs":[],"outputs":[{"name":"","type":"address","internalType":"address"}],"stateMutability":"view"},{"type":"function","name":"renounceOwnership","inputs":[],"outputs":[],"stateMutability":"nonpayable"},{"type":"function","name":"setYieldAdmin","inputs":[{"name":"_yieldAdmin","type":"uint256","internalType":"uint256"}],"outputs":[],"stateMutability":"nonpayable"},{"type":"function","name":"setYieldBurn","inputs":[{"name":"_yieldBurn","type":"uint256","internalType":"uint256"}],"outputs":[],"stateMutability":"nonpayable"},{"type":"function","name":"transferOwnership","inputs":[{"name":"newOwner","type":"address","internalType":"address"}],"outputs":[],"stateMutability":"nonpayable"},{"type":"function","name":"yieldAdmin","inputs":[],"outputs":[{"name":"","type":"uint256","internalType":"uint256"}],"stateMutability":"view"},{"type":"function","name":"yieldBurn","inputs":[],"outputs":[{"name":"","type":"uint256","internalType":"uint256"}],"stateMutability":"view"},{"type":"event","name":"OwnershipTransferred","inputs":[{"name":"previousOwner","type":"address","indexed":true,"internalType":"address"},{"name":"newOwner","type":"address","indexed":true,"internalType":"address"}],"anonymous":false},{"type":"event","name":"SetYieldAdmin","inputs":[{"name":"newFee","type":"uint256","indexed":false,"internalType":"uint256"}],"anonymous":false},{"type":"event","name":"SetYieldBurn","inputs":[{"name":"newFee","type":"uint256","indexed":false,"internalType":"uint256"}],"anonymous":false}],"bytecode":{"object":"0x608060405234801561001057600080fd5b5061001a3361001f565b61006f565b600080546001600160a01b038381166001600160a01b0319831681178455604051919092169283917f8be0079c531659141344cd1fd0a4f28419497f9722a3daafe3b4186f6b6457e09190a35050565b6104448061007e6000396000f3fe608060405234801561001057600080fd5b50600436106100885760003560e01c806369cbd9291161005b57806369cbd929146100d0578063715018a6146100e35780638da5cb5b146100eb578063f2fde38b1461010657600080fd5b80630389ed171461008d578063051ccbde146100a95780633c9a0700146100be57806367601155146100c7575b600080fd5b61009660025481565b6040519081526020015b60405180910390f35b6100bc6100b7366004610378565b610119565b005b61009661271081565b61009660015481565b6100bc6100de366004610378565b6101b3565b6100bc610241565b6000546040516001600160a01b0390911681526020016100a0565b6100bc610114366004610391565b610255565b6101216102ce565b606461013061271060146103c1565b61013a91906103ec565b8111156101775760405162461bcd60e51b81526020600482015260066024820152656c746532302560d01b60448201526064015b60405180910390fd5b60028190556040518181527f27676760e82c543f29ac9b71efcd6d6af2b29c395a689d2bc9a10df778d27a32906020015b60405180910390a150565b6101bb6102ce565b60646101ca61271060146103c1565b6101d491906103ec565b81111561020c5760405162461bcd60e51b81526020600482015260066024820152656c746532302560d01b604482015260640161016e565b60018190556040518181527f4f69288083036fa5c6396e399e5c3102d2c2c090e9495400c4c71301b2763cf8906020016101a8565b6102496102ce565b6102536000610328565b565b61025d6102ce565b6001600160a01b0381166102c25760405162461bcd60e51b815260206004820152602660248201527f4f776e61626c653a206e6577206f776e657220697320746865207a65726f206160448201526564647265737360d01b606482015260840161016e565b6102cb81610328565b50565b6000546001600160a01b031633146102535760405162461bcd60e51b815260206004820181905260248201527f4f776e61626c653a2063616c6c6572206973206e6f7420746865206f776e6572604482015260640161016e565b600080546001600160a01b038381166001600160a01b0319831681178455604051919092169283917f8be0079c531659141344cd1fd0a4f28419497f9722a3daafe3b4186f6b6457e09190a35050565b60006020828403121561038a57600080fd5b5035919050565b6000602082840312156103a357600080fd5b81356001600160a01b03811681146103ba57600080fd5b9392505050565b80820281158282048414176103e657634e487b7160e01b600052601160045260246000fd5b92915050565b60008261040957634e487b7160e01b600052601260045260246000fd5b50049056fea2646970667358221220cd93a3d83f4db42ee14772d50de14d59c24bacf1971e82423b82fec739fbab4364736f6c63430008130033","linkReferences":{}},"methodIdentifiers":{"DEN()":"3c9a0700","owner()":"8da5cb5b","renounceOwnership()":"715018a6","setYieldAdmin(uint256)":"69cbd929","setYieldBurn(uint256)":"051ccbde","transferOwnership(address)":"f2fde38b","yieldAdmin()":"67601155","yieldBurn()":"0389ed17"},"id":10}