{"abi":[{"type":"constructor","inputs":[{"name":"_positionName","type":"string","internalType":"string"},{"name":"_positionSymbol","type":"string","internalType":"string"},{"name":"_idxUtils","type":"address","internalType":"contract IIndexUtils_LEGACY"}],"stateMutability":"nonpayable"},{"type":"receive","stateMutability":"payable"},{"type":"function","name":"addLeverage","inputs":[{"name":"_positionId","type":"uint256","internalType":"uint256"},{"name":"_pod","type":"address","internalType":"address"},{"name":"_podAmount","type":"uint256","internalType":"uint256"},{"name":"_pairedLpDesired","type":"uint256","internalType":"uint256"},{"name":"_pairedLpAmtMin","type":"uint256","internalType":"uint256"},{"name":"_overrideBorrowAmt","type":"uint256","internalType":"uint256"},{"name":"_slippage","type":"uint256","internalType":"uint256"},{"name":"_deadline","type":"uint256","internalType":"uint256"},{"name":"_selfLendingPairPod","type":"address","internalType":"address"}],"outputs":[],"stateMutability":"nonpayable"},{"type":"function","name":"callback","inputs":[{"name":"_userData","type":"bytes","internalType":"bytes"}],"outputs":[],"stateMutability":"nonpayable"},{"type":"function","name":"closeFeePerc","inputs":[],"outputs":[{"name":"","type":"uint16","internalType":"uint16"}],"stateMutability":"view"},{"type":"function","name":"flashSource","inputs":[{"name":"","type":"address","internalType":"address"}],"outputs":[{"name":"","type":"address","internalType":"address"}],"stateMutability":"view"},{"type":"function","name":"indexUtils","inputs":[],"outputs":[{"name":"","type":"address","internalType":"contract IIndexUtils_LEGACY"}],"stateMutability":"view"},{"type":"function","name":"initializePosition","inputs":[{"name":"_pod","type":"address","internalType":"address"},{"name":"_recipient","type":"address","internalType":"address"},{"name":"_selfLendingPod","type":"address","internalType":"address"}],"outputs":[],"stateMutability":"nonpayable"},{"type":"function","name":"lendingPairs","inputs":[{"name":"","type":"address","internalType":"address"}],"outputs":[{"name":"","type":"address","internalType":"address"}],"stateMutability":"view"},{"type":"function","name":"openFeePerc","inputs":[],"outputs":[{"name":"","type":"uint16","internalType":"uint16"}],"stateMutability":"view"},{"type":"function","name":"owner","inputs":[],"outputs":[{"name":"","type":"address","internalType":"address"}],"stateMutability":"view"},{"type":"function","name":"positionNFT","inputs":[],"outputs":[{"name":"","type":"address","internalType":"contract LeveragePositions"}],"stateMutability":"view"},{"type":"function","name":"positionProps","inputs":[{"name":"","type":"uint256","internalType":"uint256"}],"outputs":[{"name":"pod","type":"address","internalType":"address"},{"name":"lendingPair","type":"address","internalType":"address"},{"name":"custodian","type":"address","internalType":"address"},{"name":"selfLendingPod","type":"address","internalType":"address"}],"stateMutability":"view"},{"type":"function","name":"removeLeverage","inputs":[{"name":"_positionId","type":"uint256","internalType":"uint256"},{"name":"_borrowAssetAmt","type":"uint256","internalType":"uint256"},{"name":"_collateralAssetRemoveAmt","type":"uint256","internalType":"uint256"},{"name":"_podAmtMin","type":"uint256","internalType":"uint256"},{"name":"_pairedAssetAmtMin","type":"uint256","internalType":"uint256"},{"name":"_dexAdapter","type":"address","internalType":"address"},{"name":"_userProvidedDebtAmtMax","type":"uint256","internalType":"uint256"}],"outputs":[],"stateMutability":"nonpayable"},{"type":"function","name":"renounceOwnership","inputs":[],"outputs":[],"stateMutability":"nonpayable"},{"type":"function","name":"rescueETH","inputs":[],"outputs":[],"stateMutability":"nonpayable"},{"type":"function","name":"rescueTokens","inputs":[{"name":"_token","type":"address","internalType":"contract IERC20"}],"outputs":[],"stateMutability":"nonpayable"},{"type":"function","name":"setCloseFeePerc","inputs":[{"name":"_newFee","type":"uint16","internalType":"uint16"}],"outputs":[],"stateMutability":"nonpayable"},{"type":"function","name":"setFlashSource","inputs":[{"name":"_pod","type":"address","internalType":"address"},{"name":"_flashSource","type":"address","internalType":"address"}],"outputs":[],"stateMutability":"nonpayable"},{"type":"function","name":"setIndexUtils","inputs":[{"name":"_utils","type":"address","internalType":"contract IIndexUtils_LEGACY"}],"outputs":[],"stateMutability":"nonpayable"},{"type":"function","name":"setLendingPair","inputs":[{"name":"_pod","type":"address","internalType":"address"},{"name":"_pair","type":"address","internalType":"address"}],"outputs":[],"stateMutability":"nonpayable"},{"type":"function","name":"setOpenFeePerc","inputs":[{"name":"_newFee","type":"uint16","internalType":"uint16"}],"outputs":[],"stateMutability":"nonpayable"},{"type":"function","name":"transferOwnership","inputs":[{"name":"newOwner","type":"address","internalType":"address"}],"outputs":[],"stateMutability":"nonpayable"},{"type":"function","name":"withdrawAssets","inputs":[{"name":"_positionId","type":"uint256","internalType":"uint256"},{"name":"_token","type":"address","internalType":"address"},{"name":"_recipient","type":"address","internalType":"address"},{"name":"_amount","type":"uint256","internalType":"uint256"}],"outputs":[],"stateMutability":"nonpayable"},{"type":"event","name":"AddLeverage","inputs":[{"name":"positionId","type":"uint256","indexed":true,"internalType":"uint256"},{"name":"user","type":"address","indexed":true,"internalType":"address"}],"anonymous":false},{"type":"event","name":"OwnershipTransferred","inputs":[{"name":"previousOwner","type":"address","indexed":true,"internalType":"address"},{"name":"newOwner","type":"address","indexed":true,"internalType":"address"}],"anonymous":false}],"bytecode":{"object":"0x60806040523480156200001157600080fd5b5060405162006377380380620063778339810160408190526200003491620001ec565b6200003f33620000c1565b600380546001600160a01b0319166001600160a01b038316179055604051839083906200006c9062000111565b62000079929190620002a7565b604051809103906000f08015801562000096573d6000803e3d6000fd5b50600480546001600160a01b0319166001600160a01b039290921691909117905550620002d9915050565b600080546001600160a01b038381166001600160a01b0319831681178455604051919092169283917f8be0079c531659141344cd1fd0a4f28419497f9722a3daafe3b4186f6b6457e09190a35050565b611201806200517683390190565b634e487b7160e01b600052604160045260246000fd5b60005b838110156200015257818101518382015260200162000138565b50506000910152565b600082601f8301126200016d57600080fd5b81516001600160401b03808211156200018a576200018a6200011f565b604051601f8301601f19908116603f01168101908282118183101715620001b557620001b56200011f565b81604052838152866020858801011115620001cf57600080fd5b620001e284602083016020890162000135565b9695505050505050565b6000806000606084860312156200020257600080fd5b83516001600160401b03808211156200021a57600080fd5b62000228878388016200015b565b945060208601519150808211156200023f57600080fd5b506200024e868287016200015b565b604086015190935090506001600160a01b03811681146200026e57600080fd5b809150509250925092565b600081518084526200029381602086016020860162000135565b601f01601f19169290920160200192915050565b604081526000620002bc604083018562000279565b8281036020840152620002d0818562000279565b95945050505050565b614e8d80620002e96000396000f3fe608060405260043610620001525760003560e01c80636cabc12f11620000b9578063e98a56541162000078578063e98a565414620003e6578063e9b2b3a3146200040b578063eccdd9751462000496578063f2fde38b14620004bb578063f5c0cf0c14620004e0578063f7ee228d146200050557600080fd5b80636cabc12f146200033f578063715018a614620003645780638da5cb5b146200037c578063a49f0c95146200039c578063da04d01c14620003c157600080fd5b806323228ecb116200011257806323228ecb146200020d57806332aeb0a5146200024c57806347efda2a14620002845780635645e39c14620002be5780635ba034ba14620002e35780635db48b97146200031d57600080fd5b8062ae3bf8146200015f5780631656118b14620001865780631c5b8e9314620001ab5780631f4e84fa14620001d057806320800a0014620001f557600080fd5b366200015a57005b600080fd5b3480156200016c57600080fd5b50620001846200017e36600462003939565b62000529565b005b3480156200019357600080fd5b5062000184620001a536600462003959565b620005b8565b348015620001b857600080fd5b5062000184620001ca36600462003997565b620006b1565b348015620001dd57600080fd5b5062000184620001ef366004620039e9565b620006c4565b3480156200020257600080fd5b5062000184620007e8565b3480156200021a57600080fd5b506004546200022f906001600160a01b031681565b6040516001600160a01b0390911681526020015b60405180910390f35b3480156200025957600080fd5b506004546200027090600160b01b900461ffff1681565b60405161ffff909116815260200162000243565b3480156200029157600080fd5b506200022f620002a336600462003939565b6001602052600090815260409020546001600160a01b031681565b348015620002cb57600080fd5b5062000184620002dd36600462003959565b62000872565b348015620002f057600080fd5b506200022f6200030236600462003939565b6002602052600090815260409020546001600160a01b031681565b3480156200032a57600080fd5b506003546200022f906001600160a01b031681565b3480156200034c57600080fd5b50620001846200035e36600462003a36565b62000968565b3480156200037157600080fd5b5062000184620009d1565b3480156200038957600080fd5b506000546001600160a01b03166200022f565b348015620003a957600080fd5b5062000184620003bb36600462003a36565b620009e9565b348015620003ce57600080fd5b5062000184620003e036600462003939565b62000a52565b348015620003f357600080fd5b50620001846200040536600462003b24565b62000a7e565b3480156200041857600080fd5b50620004626200042a36600462003bac565b60056020526000908152604090208054600182015460028301546003909301546001600160a01b039283169391831692918216911684565b604080516001600160a01b039586168152938516602085015291841691830191909152909116606082015260800162000243565b348015620004a357600080fd5b5062000184620004b536600462003bc6565b62000d42565b348015620004c857600080fd5b5062000184620004da36600462003939565b620011be565b348015620004ed57600080fd5b5062000184620004ff36600462003c48565b6200123a565b3480156200051257600080fd5b506004546200027090600160a01b900461ffff1681565b6200053362001635565b620005b5336040516370a0823160e01b81523060048201526001600160a01b038416906370a0823190602401602060405180830381865afa1580156200057d573d6000803e3d6000fd5b505050506040513d601f19601f82011682018060405250810190620005a3919062003cab565b6001600160a01b038416919062001691565b50565b620005c262001635565b6001600160a01b03811615620006835760006001600160a01b0316816001600160a01b031663c6e1c7c96040518163ffffffff1660e01b8152600401602060405180830381865afa1580156200061c573d6000803e3d6000fd5b505050506040513d601f19601f8201168201806040525081019062000642919062003cd7565b6001600160a01b031603620006835760405162461bcd60e51b815260206004820152600260248201526120ab60f11b60448201526064015b60405180910390fd5b6001600160a01b03918216600090815260016020526040902080546001600160a01b03191691909216179055565b620006be838383620016fb565b50505050565b8333600480546040516331a9108f60e11b81529182018490526001600160a01b03928316921690636352211e90602401602060405180830381865afa15801562000712573d6000803e3d6000fd5b505050506040513d601f19601f8201168201806040525081019062000738919062003cd7565b6001600160a01b031614620007615760405162461bcd60e51b81526004016200067a9062003cf7565b60008581526005602052604090819020600201549051636ce5768960e11b81526001600160a01b0386811660048301528581166024830152604482018590529091169063d9caed1290606401600060405180830381600087803b158015620007c857600080fd5b505af1158015620007dd573d6000803e3d6000fd5b505050505050505050565b620007f262001635565b604051600090339047908381818185875af1925050503d806000811462000836576040519150601f19603f3d011682016040523d82523d6000602084013e6200083b565b606091505b5050905080620005b55760405162461bcd60e51b81526020600482015260016024820152605360f81b60448201526064016200067a565b6200087c62001635565b6001600160a01b038116156200093a5760006001600160a01b0316816001600160a01b03166367e828bf6040518163ffffffff1660e01b8152600401602060405180830381865afa158015620008d6573d6000803e3d6000fd5b505050506040513d601f19601f82011682018060405250810190620008fc919062003cd7565b6001600160a01b0316036200093a5760405162461bcd60e51b815260206004820152600360248201526241465360e81b60448201526064016200067a565b6001600160a01b03918216600090815260026020526040902080546001600160a01b03191691909216179055565b6200097262001635565b60fa8161ffff161115620009af5760405162461bcd60e51b815260206004820152600360248201526209a82b60eb1b60448201526064016200067a565b6004805461ffff909216600160a01b0261ffff60a01b19909216919091179055565b620009db62001635565b620009e7600062001899565b565b620009f362001635565b60fa8161ffff16111562000a305760405162461bcd60e51b815260206004820152600360248201526209a82b60eb1b60448201526064016200067a565b6004805461ffff909216600160b01b0261ffff60b01b19909216919091179055565b62000a5c62001635565b600380546001600160a01b0319166001600160a01b0392909216919091179055565b600060065460ff1662000ab95760405162461bcd60e51b8152602060048201526002602482015261573160f01b60448201526064016200067a565b6006805460ff1916905560008280602001905181019062000adb919062003d87565b90506000816060015180602001905181019062000af9919062003e4d565b5060608101516001600160a01b0390811660009081526002602052604090205491925016331462000b3e5760405162461bcd60e51b81526004016200067a9062003cf7565b60008151600181111562000b565762000b5662003f45565b0362000ba157600062000b6985620018e9565b9050801562000b9a5762000b9a82604001518284606001516001600160a01b0316620016919092919063ffffffff16565b50620006be565b60018151600181111562000bb95762000bb962003f45565b0362000d145760008062000bcd8662001ce8565b9092509050811562000c8157600454600160b01b900461ffff161562000c59576004546000906103e89062000c0e90600160b01b900461ffff168562003f71565b62000c1a919062003f8b565b905062000c4962000c336000546001600160a01b031690565b60608601516001600160a01b0316908362001691565b62000c55818462003fae565b9250505b62000c8183604001518385606001516001600160a01b0316620016919092919063ffffffff16565b801562000d0c5762000d0c83604001518285606001516001600160a01b0316634f4ce61d6040518163ffffffff1660e01b8152600401602060405180830381865afa15801562000cd5573d6000803e3d6000fd5b505050506040513d601f19601f8201168201806040525081019062000cfb919062003cd7565b6001600160a01b0316919062001691565b5050620006be565b60405162461bcd60e51b81526020600482015260026024820152614e4960f01b60448201526064016200067a565b600160065460ff161562000d7e5760405162461bcd60e51b8152602060048201526002602482015261057360f41b60448201526064016200067a565b6006805460ff1916600117905560003390508a60000362000dae5762000da68a8285620016fb565b9a5062000fc4565b600480546040516331a9108f60e11b81529182018d90526000916001600160a01b0390911690636352211e90602401602060405180830381865afa15801562000dfb573d6000803e3d6000fd5b505050506040513d601f19601f8201168201806040525081019062000e21919062003cd7565b6004805460405163020604bf60e21b81529182018f90529192506000916001600160a01b03169063081812fc90602401602060405180830381865afa15801562000e6f573d6000803e3d6000fd5b505050506040513d601f19601f8201168201806040525081019062000e95919062003cd7565b6004805460405163e985e9c560e01b81526001600160a01b0386811693820193909352868316602482015292935060009291169063e985e9c590604401602060405180830381865afa15801562000ef0573d6000803e3d6000fd5b505050506040513d601f19601f8201168201806040525081019062000f16919062003fc4565b9050836001600160a01b0316836001600160a01b0316148062000f4a5750836001600160a01b0316826001600160a01b0316145b8062000f535750805b62000f725760405162461bcd60e51b81526004016200067a9062003cf7565b60008e8152600560205260409020546001600160a01b03169c508c62000fc05760405162461bcd60e51b8152602060048201526002602482015261282b60f11b60448201526064016200067a565b5050505b6001600160a01b038a811660009081526002602052604090205416620010135760405162461bcd60e51b81526020600482015260036024820152622329ab60e91b60448201526064016200067a565b6001600160a01b038a811660009081526001602052604090205416620010625760405162461bcd60e51b815260206004820152600360248201526204c56560ec1b60448201526064016200067a565b620010796001600160a01b038b1682308c62002156565b620010858a8262002190565b6060600060405180610160016040528060006001811115620010ab57620010ab62003f45565b81526020018e8152602001846001600160a01b031681526020018d6001600160a01b031681526020018c81526020018b81526020018a8152602001898152602001888152602001878152602001866001600160a01b0316815250826040516020016200111992919062004039565b60408051601f198184030181529181526001600160a01b03808f1660009081526002602052919091205491925016637a05edcd620011578e620022c8565b8c30856040518563ffffffff1660e01b81526004016200117b949392919062004109565b600060405180830381600087803b1580156200119657600080fd5b505af1158015620011ab573d6000803e3d6000fd5b5050505050505050505050505050505050565b620011c862001635565b6001600160a01b0381166200122f5760405162461bcd60e51b815260206004820152602660248201527f4f776e61626c653a206e6577206f776e657220697320746865207a65726f206160448201526564647265737360d01b60648201526084016200067a565b620005b58162001899565b8633600480546040516331a9108f60e11b81529182018490526001600160a01b03928316921690636352211e90602401602060405180830381865afa15801562001288573d6000803e3d6000fd5b505050506040513d601f19601f82011682018060405250810190620012ae919062003cd7565b6001600160a01b031614620012d75760405162461bcd60e51b81526004016200067a9062003cf7565b600160065460ff1615620013135760405162461bcd60e51b8152602060048201526002602482015261057360f41b60448201526064016200067a565b6006805460ff19166001179055600089815260056020908152604091829020825160808101845281546001600160a01b0390811680835260018401548216948301949094526002830154811694820194909452600390910154909216606083015262001380903362002190565b6000620013918260000151620022c8565b90506000620014438b600180600087600001516001600160a01b03166001600160a01b0316815260200190815260200160002060009054906101000a90046001600160a01b03166001600160a01b0316638285ef406040518163ffffffff1660e01b81526004016040805180830381865afa15801562001415573d6000803e3d6000fd5b505050506040513d601f19601f820116820180604052508101906200143b919062004156565b9190620023c8565b83516001600160a01b03908116600090815260016020526040902054919250620014739184821691168d62002471565b620014ed60408051610160810190915280600081526020016000815260200160006001600160a01b0316815260200160006001600160a01b0316815260200160008152602001600081526020016000815260200160008152602001600081526020016000815260200160006001600160a01b031681525090565b60018181905250602081018d9052336001600160a01b03908116604083810191909152855182166060808501919091528151602081018690529182018e905281018c9052608081018b905290891660a082015260c0810188905260009060e00160405160208183030381529060405290506002600086600001516001600160a01b03166001600160a01b0316815260200190815260200160002060009054906101000a90046001600160a01b03166001600160a01b0316637a05edcd858f308686604051602001620015c192919062004039565b6040516020818303038152906040526040518563ffffffff1660e01b8152600401620015f1949392919062004109565b600060405180830381600087803b1580156200160c57600080fd5b505af115801562001621573d6000803e3d6000fd5b505050505050505050505050505050505050565b6000546001600160a01b03163314620009e75760405162461bcd60e51b815260206004820181905260248201527f4f776e61626c653a2063616c6c6572206973206e6f7420746865206f776e657260448201526064016200067a565b6040516001600160a01b038316602482015260448101829052620016f690849063a9059cbb60e01b906064015b60408051601f198184030181529190526020810180516001600160e01b03166001600160e01b03199093169290921790915262002525565b505050565b6001600160a01b038381166000908152600160205260408120549091166200174c5760405162461bcd60e51b815260206004820152600360248201526204c56560ec1b60448201526064016200067a565b600480546040516335313c2160e11b81526001600160a01b0386811693820193909352911690636a627842906024016020604051808303816000875af11580156200179b573d6000803e3d6000fd5b505050506040513d601f19601f82011682018060405250810190620017c1919062003cab565b90506000604051620017d39062003915565b604051809103906000f080158015620017f0573d6000803e3d6000fd5b50604080516080810182526001600160a01b03978816808252600090815260016020818152848320548b16818501908152958b16848601908152988b166060850190815288845260059091529390912091518254908a166001600160a01b031991821617835593519082018054918a1691851691909117905594516002860180549189169184169190911790555160039094018054949096169316929092179093555090919050565b600080546001600160a01b038381166001600160a01b0319831681178455604051919092169283917f8be0079c531659141344cd1fd0a4f28419497f9722a3daafe3b4186f6b6457e09190a35050565b6000808280602001905181019062001902919062003d87565b90506000816060015180602001905181019062001920919062003e4d565b5090506000806200199b83606001516001600160a01b03166394cc699e6040518163ffffffff1660e01b8152600401602060405180830381865afa1580156200196d573d6000803e3d6000fd5b505050506040513d601f19601f8201168201806040525081019062001993919062003cd7565b858562002601565b5091509150808360800151620019b2919062003fae565b94506000620019c5846060015162002bf5565b600454909150600160a01b900461ffff161562001a44576004546000906103e890620019fd90600160a01b900461ffff168662003f71565b62001a09919062003f8b565b905062001a3462001a226000546001600160a01b031690565b6001600160a01b038416908362001691565b62001a40818562003fae565b9350505b60208085015160009081526005909152604090206002015462001a75906001600160a01b0383811691168562001691565b60208085015160009081526005825260408082206002015460608801516001600160a01b039081168452600190945291205460a087015160e08801519284169363cb69e270939216911162001acf578660a0015162001ad5565b8660e001515b6040516001600160e01b031960e085901b1681526001600160a01b039092166004830152602482015260448101869052306064820152608401600060405180830381600087803b15801562001b2957600080fd5b505af115801562001b3e573d6000803e3d6000fd5b5050505060008560800151866040015162001b5a9190620041b9565b60608601516001600160a01b039081166000908152600260209081526040918290205482516367e828bf60e01b8152925194955062001bfa949316926367e828bf9260048082019392918290030181865afa15801562001bbe573d6000803e3d6000fd5b505050506040513d601f19601f8201168201806040525081019062001be4919062003cd7565b60208801516001600160a01b0316908362001691565b60208601516040516370a0823160e01b81523060048201526000916001600160a01b0316906370a0823190602401602060405180830381865afa15801562001c46573d6000803e3d6000fd5b505050506040513d601f19601f8201168201806040525081019062001c6c919062003cab565b9050801562001c9d5762001c9d86604001518289602001516001600160a01b0316620016919092919063ffffffff16565b85604001516001600160a01b031686602001517f3c527a36a9b120b5adb094a5c1c58f7d9e5485153c596dcbdda53ea0d4b7510060405160405180910390a350505050505050919050565b60008060008380602001905181019062001d03919062003d87565b9050600080826060015180602001905181019062001d22919062003e4d565b915091506000806000806000808680602001905181019062001d459190620041cf565b9550955095509550955095506000600160008a606001516001600160a01b03166001600160a01b0316815260200190815260200160002060009054906101000a90046001600160a01b03169050806001600160a01b0316633d417d2d88600560008d60200151815260200190815260200160002060020160009054906101000a90046001600160a01b03166040518363ffffffff1660e01b815260040162001e009291909182526001600160a01b0316602082015260400190565b6020604051808303816000875af115801562001e20573d6000803e3d6000fd5b505050506040513d601f19601f8201168201806040525081019062001e46919062003cab565b5060208981015160009081526005909152604090819020600201549051633879b0c560e01b81526001600160a01b0383811660048301526024820189905230604483015290911690633879b0c590606401600060405180830381600087803b15801562001eb257600080fd5b505af115801562001ec7573d6000803e3d6000fd5b5050505060008062001ee08b6060015189898962002c4d565b91509150819d5062001ef68b606001516200302e565b1562002043576020808c01516000908152600590915260409020600301546001600160a01b03161562001f53576020808c015160009081526005909152604090206003015462001f50906001600160a01b0316826200312b565b90505b604051635d043b2960e11b815260048101829052306024820181905260448201526001600160a01b0384169063ba087652906064016020604051808303816000875af115801562001fa8573d6000803e3d6000fd5b505050506040513d601f19601f8201168201806040525081019062001fce919062003cab565b5060208c01516040516370a0823160e01b81523060048201526001600160a01b03909116906370a0823190602401602060405180830381865afa1580156200201a573d6000803e3d6000fd5b505050506040513d601f19601f8201168201806040525081019062002040919062003cab565b90505b60008c608001518d604001516200205b9190620041b9565b9050808210156200208757620020848c606001518d604001518f60200151898587898c6200335f565b9e505b60608c01516001600160a01b039081166000908152600260209081526040918290205482516367e828bf60e01b81529251620021269491909116926367e828bf9260048083019391928290030181865afa158015620020ea573d6000803e3d6000fd5b505050506040513d601f19601f8201168201806040525081019062002110919062003cd7565b60208f01516001600160a01b0316908362001691565b8082116200213657600062002142565b62002142818362003fae565b9d5050505050505050505050505050915091565b6040516001600160a01b0380851660248301528316604482015260648101829052620006be9085906323b872dd60e01b90608401620016be565b6001600160a01b0380831660009081526002602090815260408083205481516361ac82e360e11b81529151941693849263c35905c692600480820193918290030181865afa158015620021e7573d6000803e3d6000fd5b505050506040513d601f19601f820116820180604052508101906200220d919062003cab565b90508015620006be576000826001600160a01b0316633013ce296040518163ffffffff1660e01b8152600401602060405180830381865afa15801562002257573d6000803e3d6000fd5b505050506040513d601f19601f820116820180604052508101906200227d919062003cd7565b9050620022966001600160a01b03821685308562002156565b6001600160a01b03808616600090815260026020526040902054620022c19183811691168462002471565b5050505050565b6000620022d5826200302e565b6200234557816001600160a01b0316634f4ce61d6040518163ffffffff1660e01b8152600401602060405180830381865afa15801562002319573d6000803e3d6000fd5b505050506040513d601f19601f820116820180604052508101906200233f919062003cd7565b620023c2565b6001600160a01b038083166000908152600160209081526040918290205482516338d52e0f60e01b815292519316926338d52e0f9260048082019392918290030181865afa1580156200239c573d6000803e3d6000fd5b505050506040513d601f19601f82011682018060405250810190620023c2919062003cd7565b92915050565b82516000906001600160801b03168103620023e55750816200246a565b835160208501516001600160801b03918216916200240591168562003f71565b62002411919062003f8b565b90508180156200245457508284602001516001600160801b031685600001516001600160801b03168362002446919062003f71565b62002452919062003f8b565b105b156200246a5762002467816001620041b9565b90505b9392505050565b604051636eb1769f60e11b81523060048201526001600160a01b0383811660248301526000919085169063dd62ed3e90604401602060405180830381865afa158015620024c2573d6000803e3d6000fd5b505050506040513d601f19601f82011682018060405250810190620024e8919062003cab565b9050620006be8463095ea7b360e01b85620025048686620041b9565b6040516001600160a01b0390921660248301526044820152606401620016be565b60006200257c826040518060400160405280602081526020017f5361666545524332303a206c6f772d6c6576656c2063616c6c206661696c6564815250856001600160a01b0316620033dc9092919063ffffffff16565b9050805160001480620025a0575080806020019051810190620025a0919062003fc4565b620016f65760405162461bcd60e51b815260206004820152602a60248201527f5361666545524332303a204552433230206f7065726174696f6e20646964206e6044820152691bdd081cdd58d8d9595960b21b60648201526084016200067a565b600080600080600062002628866060015188602001518960400151896101400151620033ed565b60608801516040516370a0823160e01b81523060048201529294509092506000916001600160a01b03909116906370a0823190602401602060405180830381865afa1580156200267c573d6000803e3d6000fd5b505050506040513d601f19601f82011682018060405250810190620026a2919062003cab565b6040516370a0823160e01b81523060048201529091506000906001600160a01b038516906370a0823190602401602060405180830381865afa158015620026ed573d6000803e3d6000fd5b505050506040513d601f19601f8201168201806040525081019062002713919062003cab565b60035460808a015160608b01519293506200273c926001600160a01b0390811692169062002471565b60035462002758906001600160a01b0386811691168562002471565b600354606089015160808a015160c08b01516101008c01516101208d0151604051634230a70d60e11b81526001600160a01b0395861660048201526024810194909452898516604485015260648401899052608484019290925260a483015260c48201529116906384614e1a9060e401600060405180830381600087803b158015620027e357600080fd5b505af1158015620027f8573d6000803e3d6000fd5b5050505060006200280d896060015162002bf5565b6040516370a0823160e01b81523060048201529091506000906001600160a01b038d16906370a0823190602401602060405180830381865afa15801562002858573d6000803e3d6000fd5b505050506040513d601f19601f820116820180604052508101906200287e919062003cab565b9050620028966001600160a01b038d16838362002471565b604051636e553f6560e01b8152600481018290523060248201526001600160a01b03831690636e553f65906044016020604051808303816000875af1158015620028e4573d6000803e3d6000fd5b505050506040513d601f19601f820116820180604052508101906200290a919062003cab565b60608b01516040516370a0823160e01b8152306004820152919a506001600160a01b0316906370a0823190602401602060405180830381865afa15801562002956573d6000803e3d6000fd5b505050506040513d601f19601f820116820180604052508101906200297c919062003cab565b62002988908562003fae565b6040516370a0823160e01b81523060048201529098506001600160a01b038716906370a0823190602401602060405180830381865afa158015620029d0573d6000803e3d6000fd5b505050506040513d601f19601f82011682018060405250810190620029f6919062003cab565b62002a02908462003fae565b9650600062002a12888562003fae565b905062002a238b606001516200302e565b801562002a305750600081115b1562002be5576101408b01516001600160a01b03161562002b505760408051600080825260208201908152818301928390526101408e015163774e3ced60e11b90935290916001600160a01b031663ee9c79da62002a948585856044820162004227565b600060405180830381600087803b15801562002aaf57600080fd5b505af115801562002ac4573d6000803e3d6000fd5b5050505060608d01516001600160a01b03908116600090815260016020526040908190205490516370a0823160e01b81523060048201529116906370a0823190602401602060405180830381865afa15801562002b25573d6000803e3d6000fd5b505050506040513d601f19601f8201168201806040525081019062002b4b919062003cab565b925050505b60608b01516001600160a01b0390811660009081526001602052604090819020549051635d043b2960e11b8152600481018490523060248201819052604482015291169063ba087652906064016020604051808303816000875af115801562002bbd573d6000803e3d6000fd5b505050506040513d601f19601f8201168201806040525081019062002be3919062003cab565b505b5050505050505093509350939050565b6001600160a01b03808216600090815260016020908152604080832054815163c6e1c7c960e01b815291519394169263c6e1c7c9926004808401939192918290030181865afa1580156200239c573d6000803e3d6000fd5b6000806000866001600160a01b03166394cc699e6040518163ffffffff1660e01b8152600401602060405180830381865afa15801562002c91573d6000803e3d6000fd5b505050506040513d601f19601f8201168201806040525081019062002cb7919062003cd7565b90506000876001600160a01b0316634f4ce61d6040518163ffffffff1660e01b8152600401602060405180830381865afa15801562002cfa573d6000803e3d6000fd5b505050506040513d601f19601f8201168201806040525081019062002d20919062003cd7565b6040516370a0823160e01b81523060048201529091506000906001600160a01b038a16906370a0823190602401602060405180830381865afa15801562002d6b573d6000803e3d6000fd5b505050506040513d601f19601f8201168201806040525081019062002d91919062003cab565b6040516370a0823160e01b81523060048201529091506000906001600160a01b038416906370a0823190602401602060405180830381865afa15801562002ddc573d6000803e3d6000fd5b505050506040513d601f19601f8201168201806040525081019062002e02919062003cab565b9050600062002e118b62002bf5565b604051635d043b2960e11b8152600481018c9052306024820181905260448201526001600160a01b03919091169063ba087652906064016020604051808303816000875af115801562002e68573d6000803e3d6000fd5b505050506040513d601f19601f8201168201806040525081019062002e8e919062003cab565b60035490915062002ead906001600160a01b0387811691168362002471565b600354604051631fd8ecd960e01b81526001600160a01b038d8116600483015260248201849052604482018c9052606482018b905242608483015290911690631fd8ecd99060a401600060405180830381600087803b15801562002f1057600080fd5b505af115801562002f25573d6000803e3d6000fd5b50506040516370a0823160e01b81523060048201528592506001600160a01b038e1691506370a0823190602401602060405180830381865afa15801562002f70573d6000803e3d6000fd5b505050506040513d601f19601f8201168201806040525081019062002f96919062003cab565b62002fa2919062003fae565b6040516370a0823160e01b815230600482015290975082906001600160a01b038616906370a0823190602401602060405180830381865afa15801562002fec573d6000803e3d6000fd5b505050506040513d601f19601f8201168201806040525081019062003012919062003cab565b6200301e919062003fae565b9550505050505094509492505050565b6001600160a01b0380821660009081526001602090815260408083205481516338d52e0f60e01b81529151939416926338d52e0f926004808401939192918290030181865afa15801562003086573d6000803e3d6000fd5b505050506040513d601f19601f82011682018060405250810190620030ac919062003cd7565b6001600160a01b0316826001600160a01b0316634f4ce61d6040518163ffffffff1660e01b8152600401602060405180830381865afa158015620030f4573d6000803e3d6000fd5b505050506040513d601f19601f820116820180604052508101906200311a919062003cd7565b6001600160a01b0316141592915050565b600080836001600160a01b0316632acada4d6040518163ffffffff1660e01b8152600401600060405180830381865afa1580156200316d573d6000803e3d6000fd5b505050506040513d6000823e601f3d908101601f19168201604052620031979190810190620042bd565b6040805160018082528183019092529192506000919060208083019080368337505060408051600180825281830190925292935060009291506020808301908036833701905050905082600081518110620031f657620031f6620043c9565b60200260200101516000015182600081518110620032185762003218620043c9565b60200260200101906001600160a01b031690816001600160a01b031681525050606481600081518110620032505762003250620043c9565b60ff9092166020928302919091019091015260405163774e3ced60e11b81526001600160a01b0387169063ee9c79da90620032949088908690869060040162004227565b600060405180830381600087803b158015620032af57600080fd5b505af1158015620032c4573d6000803e3d6000fd5b5050505081600081518110620032de57620032de620043c9565b60209081029190910101516040516370a0823160e01b81523060048201526001600160a01b03909116906370a0823190602401602060405180830381865afa1580156200332f573d6000803e3d6000fd5b505050506040513d601f19601f8201168201806040525081019062003355919062003cab565b9695505050505050565b8160006200336e858762003fae565b9050808315620033b5576000828510156200338a57846200338c565b825b90506200339a818362003fae565b9150620033b36001600160a01b038b168c308462002156565b505b8015620033ce57620033cb888c8b8885620035e7565b92505b505098975050505050505050565b606062002467848460008562003789565b8282620033fa866200302e565b15620035de576001600160a01b03808716600090815260016020526040902054811692506200342d908616838362002471565b6001600160a01b0386811660009081526001602052604090819020549051636e553f6560e01b815260048101849052306024820152911690636e553f65906044016020604051808303816000875af11580156200348e573d6000803e3d6000fd5b505050506040513d601f19601f82011682018060405250810190620034b4919062003cab565b90506001600160a01b03831615620035de576001600160a01b03808716600090815260016020526040902054849350620034f19116838362002471565b6001600160a01b0386811660009081526001602052604080822054905163b08d033360e01b815290831660048201526024810184905260448101919091529084169063b08d033390606401600060405180830381600087803b1580156200355757600080fd5b505af11580156200356c573d6000803e3d6000fd5b50506040516370a0823160e01b81523060048201526001600160a01b03861692506370a082319150602401602060405180830381865afa158015620035b5573d6000803e3d6000fd5b505050506040513d601f19601f82011682018060405250810190620035db919062003cab565b90505b94509492505050565b6040516370a0823160e01b815230600482015260009081906001600160a01b038716906370a0823190602401602060405180830381865afa15801562003631573d6000803e3d6000fd5b505050506040513d601f19601f8201168201806040525081019062003657919062003cab565b90506200366f6001600160a01b038716888662002471565b604051634d47d6f760e11b81526001600160a01b03878116600483015286811660248301526044820186905260648201859052306084830152881690639a8fadee9060a4016020604051808303816000875af1158015620036d4573d6000803e3d6000fd5b505050506040513d601f19601f82011682018060405250810190620036fa919062003cab565b506040516370a0823160e01b81523060048201526001600160a01b038716906370a0823190602401602060405180830381865afa15801562003740573d6000803e3d6000fd5b505050506040513d601f19601f8201168201806040525081019062003766919062003cab565b62003772908262003fae565b6200377e908562003fae565b979650505050505050565b606082471015620037ec5760405162461bcd60e51b815260206004820152602660248201527f416464726573733a20696e73756666696369656e742062616c616e636520666f6044820152651c8818d85b1b60d21b60648201526084016200067a565b600080866001600160a01b031685876040516200380a9190620043df565b60006040518083038185875af1925050503d806000811462003849576040519150601f19603f3d011682016040523d82523d6000602084013e6200384e565b606091505b509150915062003861878383876200386e565b925050505b949350505050565b60608315620038e2578251600003620038da576001600160a01b0385163b620038da5760405162461bcd60e51b815260206004820152601d60248201527f416464726573733a2063616c6c20746f206e6f6e2d636f6e747261637400000060448201526064016200067a565b508162003866565b620038668383815115620038f95781518083602001fd5b8060405162461bcd60e51b81526004016200067a9190620043fd565b610a45806200441383390190565b6001600160a01b0381168114620005b557600080fd5b6000602082840312156200394c57600080fd5b81356200246a8162003923565b600080604083850312156200396d57600080fd5b82356200397a8162003923565b915060208301356200398c8162003923565b809150509250929050565b600080600060608486031215620039ad57600080fd5b8335620039ba8162003923565b92506020840135620039cc8162003923565b91506040840135620039de8162003923565b809150509250925092565b6000806000806080858703121562003a0057600080fd5b84359350602085013562003a148162003923565b9250604085013562003a268162003923565b9396929550929360600135925050565b60006020828403121562003a4957600080fd5b813561ffff811681146200246a57600080fd5b634e487b7160e01b600052604160045260246000fd5b60405160a0810167ffffffffffffffff8111828210171562003a985762003a9862003a5c565b60405290565b604051610160810167ffffffffffffffff8111828210171562003a985762003a9862003a5c565b604051601f8201601f1916810167ffffffffffffffff8111828210171562003af15762003af162003a5c565b604052919050565b600067ffffffffffffffff82111562003b165762003b1662003a5c565b50601f01601f191660200190565b60006020828403121562003b3757600080fd5b813567ffffffffffffffff81111562003b4f57600080fd5b8201601f8101841362003b6157600080fd5b803562003b7862003b728262003af9565b62003ac5565b81815285602083850101111562003b8e57600080fd5b81602084016020830137600091810160200191909152949350505050565b60006020828403121562003bbf57600080fd5b5035919050565b60008060008060008060008060006101208a8c03121562003be657600080fd5b8935985060208a013562003bfa8162003923565b975060408a0135965060608a0135955060808a0135945060a08a0135935060c08a0135925060e08a013591506101008a013562003c378162003923565b809150509295985092959850929598565b600080600080600080600060e0888a03121562003c6457600080fd5b873596506020880135955060408801359450606088013593506080880135925060a088013562003c948162003923565b8092505060c0880135905092959891949750929550565b60006020828403121562003cbe57600080fd5b5051919050565b805162003cd28162003923565b919050565b60006020828403121562003cea57600080fd5b81516200246a8162003923565b602080825260049082015263082aaa8960e31b604082015260600190565b60005b8381101562003d3257818101518382015260200162003d18565b50506000910152565b600082601f83011262003d4d57600080fd5b815162003d5e62003b728262003af9565b81815284602083860101111562003d7457600080fd5b6200386682602083016020870162003d15565b60006020828403121562003d9a57600080fd5b815167ffffffffffffffff8082111562003db357600080fd5b9083019060a0828603121562003dc857600080fd5b62003dd262003a72565b825162003ddf8162003923565b8152602083015162003df18162003923565b60208201526040838101519082015260608301518281111562003e1357600080fd5b62003e218782860162003d3b565b6060830152506080830151608082015280935050505092915050565b80516002811062003cd257600080fd5b60008082840361018081121562003e6357600080fd5b6101608082121562003e7457600080fd5b62003e7e62003a9e565b915062003e8b8562003e3d565b82526020850151602083015262003ea56040860162003cc5565b604083015262003eb86060860162003cc5565b60608301526080850151608083015260a085015160a083015260c085015160c083015260e085015160e083015261010080860151818401525061012080860151818401525061014062003f0d81870162003cc5565b9083015284015190925067ffffffffffffffff81111562003f2d57600080fd5b62003f3b8582860162003d3b565b9150509250929050565b634e487b7160e01b600052602160045260246000fd5b634e487b7160e01b600052601160045260246000fd5b8082028115828204841417620023c257620023c262003f5b565b60008262003fa957634e487b7160e01b600052601260045260246000fd5b500490565b81810381811115620023c257620023c262003f5b565b60006020828403121562003fd757600080fd5b815180151581146200246a57600080fd5b600281106200400757634e487b7160e01b600052602160045260246000fd5b9052565b600081518084526200402581602086016020860162003d15565b601f01601f19169290920160200192915050565b60006101806200404b83865162003fe8565b6020850151602084015260408501516200407060408501826001600160a01b03169052565b5060608501516200408c60608501826001600160a01b03169052565b506080850151608084015260a085015160a084015260c085015160c084015260e085015160e084015261010080860151818501525061012080860151818501525061014080860151620040e9828601826001600160a01b03169052565b50508061016084015262004100818401856200400b565b95945050505050565b6001600160a01b038581168252602082018590528316604082015260806060820181905260009062003355908301846200400b565b80516001600160801b038116811462003cd257600080fd5b6000604082840312156200416957600080fd5b6040516040810181811067ffffffffffffffff821117156200418f576200418f62003a5c565b6040526200419d836200413e565b8152620041ad602084016200413e565b60208201529392505050565b80820180821115620023c257620023c262003f5b565b60008060008060008060c08789031215620041e957600080fd5b865195506020870151945060408701519350606087015192506080870151620042128162003923565b8092505060a087015190509295509295509295565b6000606082018583526020606081850152818651808452608086019150828801935060005b81811015620042735784516001600160a01b0316835293830193918301916001016200424c565b50508481036040860152855180825290820192508186019060005b81811015620042af57825160ff16855293830193918301916001016200428e565b509298975050505050505050565b60006020808385031215620042d157600080fd5b825167ffffffffffffffff80821115620042ea57600080fd5b818501915085601f830112620042ff57600080fd5b81518181111562004314576200431462003a5c565b62004324848260051b0162003ac5565b818152848101925060a09182028401850191888311156200434457600080fd5b938501935b82851015620043bd5780858a031215620043635760008081fd5b6200436d62003a72565b85516200437a8162003923565b81528587015187820152604080870151908201526060808701516200439f8162003923565b90820152608086810151908201528452938401939285019262004349565b50979650505050505050565b634e487b7160e01b600052603260045260246000fd5b60008251620043f381846020870162003d15565b9190910192915050565b6020815260006200246a60208301846200400b56fe608060405234801561001057600080fd5b5061001a3361001f565b61006f565b600080546001600160a01b038381166001600160a01b0319831681178455604051919092169283917f8be0079c531659141344cd1fd0a4f28419497f9722a3daafe3b4186f6b6457e09190a35050565b6109c78061007e6000396000f3fe608060405234801561001057600080fd5b50600436106100625760003560e01c80633879b0c514610067578063715018a61461007c5780638da5cb5b14610084578063cb69e270146100a3578063d9caed12146100b6578063f2fde38b146100c9575b600080fd5b61007a6100753660046107ae565b6100dc565b005b61007a61014b565b600054604080516001600160a01b039092168252519081900360200190f35b61007a6100b13660046107f0565b61015f565b61007a6100c436600461083a565b61025f565b61007a6100d736600461087b565b6102f6565b6100e4610374565b604051636a0eee4b60e11b8152600481018390526001600160a01b03828116602483015284169063d41ddc9690604401600060405180830381600087803b15801561012e57600080fd5b505af1158015610142573d6000803e3d6000fd5b50505050505050565b610153610374565b61015d60006103ce565b565b610167610374565b6101de8483866001600160a01b031663c6e1c7c96040518163ffffffff1660e01b8152600401602060405180830381865afa1580156101aa573d6000803e3d6000fd5b505050506040513d601f19601f820116820180604052508101906101ce919061089f565b6001600160a01b0316919061041e565b6040516372f89d8b60e11b815260048101849052602481018390526001600160a01b03828116604483015285169063e5f13b16906064016020604051808303816000875af1158015610234573d6000803e3d6000fd5b505050506040513d601f19601f8201168201806040525081019061025891906108bc565b5050505050565b610267610374565b801561027357806102db565b6040516370a0823160e01b81523060048201526001600160a01b038416906370a0823190602401602060405180830381865afa1580156102b7573d6000803e3d6000fd5b505050506040513d601f19601f820116820180604052508101906102db91906108bc565b90506102f16001600160a01b0384168383610504565b505050565b6102fe610374565b6001600160a01b0381166103685760405162461bcd60e51b815260206004820152602660248201527f4f776e61626c653a206e6577206f776e657220697320746865207a65726f206160448201526564647265737360d01b60648201526084015b60405180910390fd5b610371816103ce565b50565b6000546001600160a01b0316331461015d5760405162461bcd60e51b815260206004820181905260248201527f4f776e61626c653a2063616c6c6572206973206e6f7420746865206f776e6572604482015260640161035f565b600080546001600160a01b038381166001600160a01b0319831681178455604051919092169283917f8be0079c531659141344cd1fd0a4f28419497f9722a3daafe3b4186f6b6457e09190a35050565b604051636eb1769f60e11b81523060048201526001600160a01b0383811660248301526000919085169063dd62ed3e90604401602060405180830381865afa15801561046e573d6000803e3d6000fd5b505050506040513d601f19601f8201168201806040525081019061049291906108bc565b90506104fe8463095ea7b360e01b856104ab86866108d5565b6040516001600160a01b03909216602483015260448201526064015b60408051601f198184030181529190526020810180516001600160e01b03166001600160e01b031990931692909217909152610534565b50505050565b6040516001600160a01b0383166024820152604481018290526102f190849063a9059cbb60e01b906064016104c7565b6000610589826040518060400160405280602081526020017f5361666545524332303a206c6f772d6c6576656c2063616c6c206661696c6564815250856001600160a01b03166106099092919063ffffffff16565b90508051600014806105aa5750808060200190518101906105aa91906108fc565b6102f15760405162461bcd60e51b815260206004820152602a60248201527f5361666545524332303a204552433230206f7065726174696f6e20646964206e6044820152691bdd081cdd58d8d9595960b21b606482015260840161035f565b60606106188484600085610620565b949350505050565b6060824710156106815760405162461bcd60e51b815260206004820152602660248201527f416464726573733a20696e73756666696369656e742062616c616e636520666f6044820152651c8818d85b1b60d21b606482015260840161035f565b600080866001600160a01b0316858760405161069d9190610942565b60006040518083038185875af1925050503d80600081146106da576040519150601f19603f3d011682016040523d82523d6000602084013e6106df565b606091505b50915091506106f0878383876106fb565b979650505050505050565b6060831561076a578251600003610763576001600160a01b0385163b6107635760405162461bcd60e51b815260206004820152601d60248201527f416464726573733a2063616c6c20746f206e6f6e2d636f6e7472616374000000604482015260640161035f565b5081610618565b610618838381511561077f5781518083602001fd5b8060405162461bcd60e51b815260040161035f919061095e565b6001600160a01b038116811461037157600080fd5b6000806000606084860312156107c357600080fd5b83356107ce81610799565b92506020840135915060408401356107e581610799565b809150509250925092565b6000806000806080858703121561080657600080fd5b843561081181610799565b93506020850135925060408501359150606085013561082f81610799565b939692955090935050565b60008060006060848603121561084f57600080fd5b833561085a81610799565b9250602084013561086a81610799565b929592945050506040919091013590565b60006020828403121561088d57600080fd5b813561089881610799565b9392505050565b6000602082840312156108b157600080fd5b815161089881610799565b6000602082840312156108ce57600080fd5b5051919050565b808201808211156108f657634e487b7160e01b600052601160045260246000fd5b92915050565b60006020828403121561090e57600080fd5b8151801515811461089857600080fd5b60005b83811015610939578181015183820152602001610921565b50506000910152565b6000825161095481846020870161091e565b9190910192915050565b602081526000825180602084015261097d81604085016020870161091e565b601f01601f1916919091016040019291505056fea2646970667358221220550084d6f2bc00007275d97356d97ea22a9a3b6cf8b22c9cc3598611ccbbbb5a64736f6c63430008130033a2646970667358221220fd2a4faf0fa929fb538f72e155fa01c24b69ba0258e0c095196aa9e2f0d0543464736f6c6343000813003360806040523480156200001157600080fd5b50604051620012013803806200120183398101604081905262000034916200013b565b8181600262000044838262000234565b50600362000053828262000234565b5060016000555050600980546001600160a01b0319163317905550620003009050565b634e487b7160e01b600052604160045260246000fd5b600082601f8301126200009e57600080fd5b81516001600160401b0380821115620000bb57620000bb62000076565b604051601f8301601f19908116603f01168101908282118183101715620000e657620000e662000076565b816040528381526020925086838588010111156200010357600080fd5b600091505b8382101562000127578582018301518183018401529082019062000108565b600093810190920192909252949350505050565b600080604083850312156200014f57600080fd5b82516001600160401b03808211156200016757600080fd5b62000175868387016200008c565b935060208501519150808211156200018c57600080fd5b506200019b858286016200008c565b9150509250929050565b600181811c90821680620001ba57607f821691505b602082108103620001db57634e487b7160e01b600052602260045260246000fd5b50919050565b601f8211156200022f57600081815260208120601f850160051c810160208610156200020a5750805b601f850160051c820191505b818110156200022b5782815560010162000216565b5050505b505050565b81516001600160401b0381111562000250576200025062000076565b6200026881620002618454620001a5565b84620001e1565b602080601f831160018114620002a05760008415620002875750858301515b600019600386901b1c1916600185901b1785556200022b565b600085815260208120601f198616915b82811015620002d157888601518255948401946001909101908401620002b0565b5085821015620002f05787850151600019600388901b60f8161c191681555b5050505050600190811b01905550565b610ef180620003106000396000f3fe6080604052600436106100e85760003560e01c80636352211e1161008a578063a22cb46511610059578063a22cb46514610258578063b88d4fde14610278578063c87b56dd1461028b578063e985e9c5146102ab57600080fd5b80636352211e146101e35780636a6278421461020357806370a082311461022357806395d89b411461024357600080fd5b8063095ea7b3116100c6578063095ea7b31461017c57806318160ddd1461019157806323b872dd146101bd57806342842e0e146101d057600080fd5b806301ffc9a7146100ed57806306fdde0314610122578063081812fc14610144575b600080fd5b3480156100f957600080fd5b5061010d610108366004610b41565b6102f4565b60405190151581526020015b60405180910390f35b34801561012e57600080fd5b50610137610346565b6040516101199190610bae565b34801561015057600080fd5b5061016461015f366004610bc1565b6103d8565b6040516001600160a01b039091168152602001610119565b61018f61018a366004610bf1565b610413565b005b34801561019d57600080fd5b506101af600154600054036000190190565b604051908152602001610119565b61018f6101cb366004610c1b565b610423565b61018f6101de366004610c1b565b610588565b3480156101ef57600080fd5b506101646101fe366004610bc1565b6105a8565b34801561020f57600080fd5b506101af61021e366004610c57565b6105b3565b34801561022f57600080fd5b506101af61023e366004610c57565b61061f565b34801561024f57600080fd5b50610137610665565b34801561026457600080fd5b5061018f610273366004610c72565b610674565b61018f610286366004610cc4565b6106e0565b34801561029757600080fd5b506101376102a6366004610bc1565b610721565b3480156102b757600080fd5b5061010d6102c6366004610da0565b6001600160a01b03918216600090815260076020908152604080832093909416825291909152205460ff1690565b60006301ffc9a760e01b6001600160e01b03198316148061032557506380ac58cd60e01b6001600160e01b03198316145b806103405750635b5e139f60e01b6001600160e01b03198316145b92915050565b60606002805461035590610dd3565b80601f016020809104026020016040519081016040528092919081815260200182805461038190610dd3565b80156103ce5780601f106103a3576101008083540402835291602001916103ce565b820191906000526020600020905b8154815290600101906020018083116103b157829003601f168201915b5050505050905090565b60006103e3826107a9565b6103f7576103f76333d1c03960e21b6107f5565b506000908152600660205260409020546001600160a01b031690565b61041f828260016107ff565b5050565b600061042e826108a2565b6001600160a01b0394851694909150811684146104545761045462a1148160e81b6107f5565b60008281526006602052604090208054338082146001600160a01b038816909114176104985761048486336102c6565b61049857610498632ce44b5f60e11b6107f5565b80156104a357600082555b6001600160a01b038681166000908152600560205260408082208054600019019055918716808252919020805460010190554260a01b17600160e11b17600085815260046020526040812091909155600160e11b84169003610535576001840160008181526004602052604081205490036105335760005481146105335760008181526004602052604090208490555b505b6001600160a01b0385168481887fddf252ad1be2c89b69c2b068fc378daa952ba7f163c4a11628f55a4df523b3ef600080a48060000361057f5761057f633a954ecd60e21b6107f5565b50505050505050565b6105a3838383604051806020016040528060008152506106e0565b505050565b6000610340826108a2565b6009546000906001600160a01b0316336001600160a01b03161461060b5760405162461bcd60e51b815260040161060290602080825260049082015263082aaa8960e31b604082015260600190565b60405180910390fd5b5060005461061a826001610943565b919050565b60006001600160a01b03821661063f5761063f6323d3ad8160e21b6107f5565b506001600160a01b031660009081526005602052604090205467ffffffffffffffff1690565b60606003805461035590610dd3565b3360008181526007602090815260408083206001600160a01b03871680855290835292819020805460ff191686151590811790915590519081529192917f17307eab39ab6107e8899845ad3d59bd9653f200f220920489ca2b5937696c31910160405180910390a35050565b6106eb848484610423565b6001600160a01b0383163b1561071b5761070784848484610a02565b61071b5761071b6368d2bf6b60e11b6107f5565b50505050565b606061072c826107a9565b61074057610740630a14c4b560e41b6107f5565b600061075760408051602081019091526000815290565b9050805160000361077757604051806020016040528060008152506107a2565b8061078184610ae4565b604051602001610792929190610e0d565b6040516020818303038152906040525b9392505050565b60008160011161061a5760005482101561061a5760005b50600082815260046020526040812054908190036107e8576107e183610e3c565b92506107c0565b600160e01b161592915050565b8060005260046000fd5b600061080a836105a8565b90508180156108225750336001600160a01b03821614155b156108455761083181336102c6565b610845576108456367d9dca160e11b6107f5565b60008381526006602052604080822080546001600160a01b0319166001600160a01b0388811691821790925591518693918516917f8c5be1e5ebec7d5bd14f71427d1e84f3dd0314c0f7b2291e5b200ac8c7c3b92591a450505050565b6000816001116109335750600081815260046020526040902054806000036109205760005482106108dd576108dd636f96cda160e11b6107f5565b5b506000190160008181526004602052604090205480156108de57600160e01b811660000361090b57919050565b61091b636f96cda160e11b6107f5565b6108de565b600160e01b811660000361093357919050565b61061a636f96cda160e11b6107f5565b600080549082900361095f5761095f63b562e8dd60e01b6107f5565b60008181526004602090815260408083206001600160a01b0387164260a01b6001881460e11b178117909155808452600590925282208054680100000000000000018602019055908190036109bd576109bd622e076360e81b6107f5565b818301825b808360007fddf252ad1be2c89b69c2b068fc378daa952ba7f163c4a11628f55a4df523b3ef600080a48181600101915081036109c2575060005550505050565b604051630a85bd0160e11b81526000906001600160a01b0385169063150b7a0290610a37903390899088908890600401610e61565b6020604051808303816000875af1925050508015610a72575060408051601f3d908101601f19168201909252610a6f91810190610e9e565b60015b610ac7573d808015610aa0576040519150601f19603f3d011682016040523d82523d6000602084013e610aa5565b606091505b508051600003610abf57610abf6368d2bf6b60e11b6107f5565b805181602001fd5b6001600160e01b031916630a85bd0160e11b149050949350505050565b606060a06040510180604052602081039150506000815280825b600183039250600a81066030018353600a900480610afe5750819003601f19909101908152919050565b6001600160e01b031981168114610b3e57600080fd5b50565b600060208284031215610b5357600080fd5b81356107a281610b28565b60005b83811015610b79578181015183820152602001610b61565b50506000910152565b60008151808452610b9a816020860160208601610b5e565b601f01601f19169290920160200192915050565b6020815260006107a26020830184610b82565b600060208284031215610bd357600080fd5b5035919050565b80356001600160a01b038116811461061a57600080fd5b60008060408385031215610c0457600080fd5b610c0d83610bda565b946020939093013593505050565b600080600060608486031215610c3057600080fd5b610c3984610bda565b9250610c4760208501610bda565b9150604084013590509250925092565b600060208284031215610c6957600080fd5b6107a282610bda565b60008060408385031215610c8557600080fd5b610c8e83610bda565b915060208301358015158114610ca357600080fd5b809150509250929050565b634e487b7160e01b600052604160045260246000fd5b60008060008060808587031215610cda57600080fd5b610ce385610bda565b9350610cf160208601610bda565b925060408501359150606085013567ffffffffffffffff80821115610d1557600080fd5b818701915087601f830112610d2957600080fd5b813581811115610d3b57610d3b610cae565b604051601f8201601f19908116603f01168101908382118183101715610d6357610d63610cae565b816040528281528a6020848701011115610d7c57600080fd5b82602086016020830137600060208483010152809550505050505092959194509250565b60008060408385031215610db357600080fd5b610dbc83610bda565b9150610dca60208401610bda565b90509250929050565b600181811c90821680610de757607f821691505b602082108103610e0757634e487b7160e01b600052602260045260246000fd5b50919050565b60008351610e1f818460208801610b5e565b835190830190610e33818360208801610b5e565b01949350505050565b600081610e5957634e487b7160e01b600052601160045260246000fd5b506000190190565b6001600160a01b0385811682528416602082015260408101839052608060608201819052600090610e9490830184610b82565b9695505050505050565b600060208284031215610eb057600080fd5b81516107a281610b2856fea264697066735822122065865aec190aceb3c672bca839a2c8276cb7d732f49304d9728f2ecc4259977164736f6c63430008130033","linkReferences":{}},"methodIdentifiers":{"addLeverage(uint256,address,uint256,uint256,uint256,uint256,uint256,uint256,address)":"eccdd975","callback(bytes)":"e98a5654","closeFeePerc()":"32aeb0a5","flashSource(address)":"5ba034ba","indexUtils()":"5db48b97","initializePosition(address,address,address)":"1c5b8e93","lendingPairs(address)":"47efda2a","openFeePerc()":"f7ee228d","owner()":"8da5cb5b","positionNFT()":"23228ecb","positionProps(uint256)":"e9b2b3a3","removeLeverage(uint256,uint256,uint256,uint256,uint256,address,uint256)":"f5c0cf0c","renounceOwnership()":"715018a6","rescueETH()":"20800a00","rescueTokens(address)":"00ae3bf8","setCloseFeePerc(uint16)":"a49f0c95","setFlashSource(address,address)":"5645e39c","setIndexUtils(address)":"da04d01c","setLendingPair(address,address)":"1656118b","setOpenFeePerc(uint16)":"6cabc12f","transferOwnership(address)":"f2fde38b","withdrawAssets(uint256,address,address,uint256)":"1f4e84fa"},"id":85}