{"abi":[{"type":"constructor","inputs":[{"name":"_lvfMan","type":"address","internalType":"address"}],"stateMutability":"nonpayable"},{"type":"function","name":"LEVERAGE_MANAGER","inputs":[],"outputs":[{"name":"","type":"address","internalType":"address"}],"stateMutability":"view"},{"type":"function","name":"flash","inputs":[{"name":"_token","type":"address","internalType":"address"},{"name":"_amount","type":"uint256","internalType":"uint256"},{"name":"_recipient","type":"address","internalType":"address"},{"name":"_data","type":"bytes","internalType":"bytes"}],"outputs":[],"stateMutability":"nonpayable"},{"type":"function","name":"paymentAmount","inputs":[],"outputs":[{"name":"","type":"uint256","internalType":"uint256"}],"stateMutability":"view"},{"type":"function","name":"paymentToken","inputs":[],"outputs":[{"name":"","type":"address","internalType":"address"}],"stateMutability":"view"},{"type":"function","name":"receiveFlashLoan","inputs":[{"name":"","type":"address[]","internalType":"contract IERC20[]"},{"name":"","type":"uint256[]","internalType":"uint256[]"},{"name":"_feeAmounts","type":"uint256[]","internalType":"uint256[]"},{"name":"_userData","type":"bytes","internalType":"bytes"}],"outputs":[],"stateMutability":"nonpayable"},{"type":"function","name":"source","inputs":[],"outputs":[{"name":"","type":"address","internalType":"address"}],"stateMutability":"view"}],"bytecode":{"object":"0x60a060405260008054610100600160a81b03191674ba12222222228d8ba445958a75a0704d566bf2c80017905534801561003857600080fd5b50604051610e49380380610e4983398101604081905261005791610068565b6001600160a01b0316608052610098565b60006020828403121561007a57600080fd5b81516001600160a01b038116811461009157600080fd5b9392505050565b608051610d906100b96000396000818160c9015261016b0152610d906000f3fe608060405234801561001057600080fd5b50600436106100625760003560e01c80633013ce291461006757806367e828bf146100975780637a05edcd146100af578063c26f10e9146100c4578063c35905c6146100eb578063f04f270714610102575b600080fd5b60015461007a906001600160a01b031681565b6040516001600160a01b0390911681526020015b60405180910390f35b60005461007a9061010090046001600160a01b031681565b6100c26100bd3660046107a1565b610115565b005b61007a7f000000000000000000000000000000000000000000000000000000000000000081565b6100f460025481565b60405190815260200161008e565b6100c26101103660046109b8565b61036e565b600160005460ff16156101545760405162461bcd60e51b8152602060048201526002602482015261046360f41b60448201526064015b60405180910390fd5b6000805460ff191660011790556001600160a01b037f000000000000000000000000000000000000000000000000000000000000000016336001600160a01b0316146101cb5760405162461bcd60e51b815260040161014b90602080825260049082015263082aaa8960e31b604082015260600190565b604080516001808252818301909252600091602080830190803683375050604080516001808252818301909252929350600092915060208083019080368337019050509050878260008151811061022457610224610ac3565b60200260200101906001600160a01b031690816001600160a01b031681525050868160008151811061025857610258610ac3565b60200260200101818152505060006040518060a00160405280886001600160a01b031681526020018a6001600160a01b0316815260200189815260200187878080601f016020809104026020016040519081016040528093929190818152602001838380828437600092018290525093855250505060209182018190525460405192935061010090046001600160a01b031691635c38449e9130918791879161030391889101610b29565b6040516020818303038152906040526040518563ffffffff1660e01b81526004016103319493929190610b85565b600060405180830381600087803b15801561034b57600080fd5b505af115801561035f573d6000803e3d6000fd5b50505050505050505050505050565b6000805460ff166103a65760405162461bcd60e51b8152602060048201526002602482015261463160f01b604482015260640161014b565b6000805460ff1916905560005461010090046001600160a01b0316336001600160a01b0316146103fe5760405162461bcd60e51b815260206004820152600360248201526221a12b60e91b604482015260640161014b565b6000828060200190518101906104149190610c21565b90508360008151811061042957610429610ac3565b60200260200101518160800181815250506104648160000151826040015183602001516001600160a01b03166104cd9092919063ffffffff16565b8051604051633a62959560e21b81526001600160a01b039091169063e98a565490610493908690600401610d02565b600060405180830381600087803b1580156104ad57600080fd5b505af11580156104c1573d6000803e3d6000fd5b50505050505050505050565b604080516001600160a01b038416602482015260448082018490528251808303909101815260649091019091526020810180516001600160e01b031663a9059cbb60e01b17905261051f908490610524565b505050565b6000610579826040518060400160405280602081526020017f5361666545524332303a206c6f772d6c6576656c2063616c6c206661696c6564815250856001600160a01b03166105f99092919063ffffffff16565b905080516000148061059a57508080602001905181019061059a9190610d1c565b61051f5760405162461bcd60e51b815260206004820152602a60248201527f5361666545524332303a204552433230206f7065726174696f6e20646964206e6044820152691bdd081cdd58d8d9595960b21b606482015260840161014b565b60606106088484600085610610565b949350505050565b6060824710156106715760405162461bcd60e51b815260206004820152602660248201527f416464726573733a20696e73756666696369656e742062616c616e636520666f6044820152651c8818d85b1b60d21b606482015260840161014b565b600080866001600160a01b0316858760405161068d9190610d3e565b60006040518083038185875af1925050503d80600081146106ca576040519150601f19603f3d011682016040523d82523d6000602084013e6106cf565b606091505b50915091506106e0878383876106eb565b979650505050505050565b6060831561075a578251600003610753576001600160a01b0385163b6107535760405162461bcd60e51b815260206004820152601d60248201527f416464726573733a2063616c6c20746f206e6f6e2d636f6e7472616374000000604482015260640161014b565b5081610608565b610608838381511561076f5781518083602001fd5b8060405162461bcd60e51b815260040161014b9190610d02565b6001600160a01b038116811461079e57600080fd5b50565b6000806000806000608086880312156107b957600080fd5b85356107c481610789565b94506020860135935060408601356107db81610789565b9250606086013567ffffffffffffffff808211156107f857600080fd5b818801915088601f83011261080c57600080fd5b81358181111561081b57600080fd5b89602082850101111561082d57600080fd5b9699959850939650602001949392505050565b634e487b7160e01b600052604160045260246000fd5b60405160a0810167ffffffffffffffff8111828210171561087957610879610840565b60405290565b604051601f8201601f1916810167ffffffffffffffff811182821017156108a8576108a8610840565b604052919050565b600067ffffffffffffffff8211156108ca576108ca610840565b5060051b60200190565b600082601f8301126108e557600080fd5b813560206108fa6108f5836108b0565b61087f565b82815260059290921b8401810191818101908684111561091957600080fd5b8286015b84811015610934578035835291830191830161091d565b509695505050505050565b600067ffffffffffffffff82111561095957610959610840565b50601f01601f191660200190565b600082601f83011261097857600080fd5b81356109866108f58261093f565b81815284602083860101111561099b57600080fd5b816020850160208301376000918101602001919091529392505050565b600080600080608085870312156109ce57600080fd5b843567ffffffffffffffff808211156109e657600080fd5b818701915087601f8301126109fa57600080fd5b81356020610a0a6108f5836108b0565b82815260059290921b8401810191818101908b841115610a2957600080fd5b948201945b83861015610a50578535610a4181610789565b82529482019490820190610a2e565b98505088013592505080821115610a6657600080fd5b610a72888389016108d4565b94506040870135915080821115610a8857600080fd5b610a94888389016108d4565b93506060870135915080821115610aaa57600080fd5b50610ab787828801610967565b91505092959194509250565b634e487b7160e01b600052603260045260246000fd5b60005b83811015610af4578181015183820152602001610adc565b50506000910152565b60008151808452610b15816020860160208601610ad9565b601f01601f19169290920160200192915050565b60208152600060018060a01b038084511660208401528060208501511660408401525060408301516060830152606083015160a06080840152610b6f60c0840182610afd565b9050608084015160a08401528091505092915050565b6001600160a01b0385811682526080602080840182905286519184018290526000928782019290919060a0860190855b81811015610bd3578551851683529483019491830191600101610bb5565b5050858103604087015287518082529082019350915080870160005b83811015610c0b57815185529382019390820190600101610bef565b5050505082810360608401526106e08185610afd565b60006020808385031215610c3457600080fd5b825167ffffffffffffffff80821115610c4c57600080fd5b9084019060a08287031215610c6057600080fd5b610c68610856565b8251610c7381610789565b815282840151610c8281610789565b8185015260408381015190820152606083015182811115610ca257600080fd5b83019150601f82018713610cb557600080fd5b8151610cc36108f58261093f565b8181528886838601011115610cd757600080fd5b610ce682878301888701610ad9565b6060830152506080928301519281019290925250949350505050565b602081526000610d156020830184610afd565b9392505050565b600060208284031215610d2e57600080fd5b81518015158114610d1557600080fd5b60008251610d50818460208701610ad9565b919091019291505056fea264697066735822122004711f13736878cc12e28ea1bf3cd17fbddfe7933abd39c3710d70e5c3e55e9164736f6c63430008130033","linkReferences":{}},"methodIdentifiers":{"LEVERAGE_MANAGER()":"c26f10e9","flash(address,uint256,address,bytes)":"7a05edcd","paymentAmount()":"c35905c6","paymentToken()":"3013ce29","receiveFlashLoan(address[],uint256[],uint256[],bytes)":"f04f2707","source()":"67e828bf"},"id":22}