{"abi":[{"type":"constructor","inputs":[{"name":"_fees","type":"address","internalType":"contract IProtocolFees"}],"stateMutability":"nonpayable"},{"type":"function","name":"owner","inputs":[],"outputs":[{"name":"","type":"address","internalType":"address"}],"stateMutability":"view"},{"type":"function","name":"protocolFees","inputs":[],"outputs":[{"name":"","type":"address","internalType":"contract IProtocolFees"}],"stateMutability":"view"},{"type":"function","name":"renounceOwnership","inputs":[],"outputs":[],"stateMutability":"nonpayable"},{"type":"function","name":"setProtocolFees","inputs":[{"name":"_protocolFees","type":"address","internalType":"contract IProtocolFees"}],"outputs":[],"stateMutability":"nonpayable"},{"type":"function","name":"transferOwnership","inputs":[{"name":"newOwner","type":"address","internalType":"address"}],"outputs":[],"stateMutability":"nonpayable"},{"type":"event","name":"OwnershipTransferred","inputs":[{"name":"previousOwner","type":"address","indexed":true,"internalType":"address"},{"name":"newOwner","type":"address","indexed":true,"internalType":"address"}],"anonymous":false}],"bytecode":{"object":"0x608060405234801561001057600080fd5b5060405161038d38038061038d83398101604081905261002f916100ad565b6100383361005d565b600180546001600160a01b0319166001600160a01b03929092169190911790556100dd565b600080546001600160a01b038381166001600160a01b0319831681178455604051919092169283917f8be0079c531659141344cd1fd0a4f28419497f9722a3daafe3b4186f6b6457e09190a35050565b6000602082840312156100bf57600080fd5b81516001600160a01b03811681146100d657600080fd5b9392505050565b6102a1806100ec6000396000f3fe608060405234801561001057600080fd5b50600436106100575760003560e01c80631ad8b03b1461005c5780635b8be0df1461008b578063715018a6146100a05780638da5cb5b146100a8578063f2fde38b146100b9575b600080fd5b60015461006f906001600160a01b031681565b6040516001600160a01b03909116815260200160405180910390f35b61009e610099366004610247565b6100cc565b005b61009e6100f6565b6000546001600160a01b031661006f565b61009e6100c7366004610247565b61010a565b6100d4610188565b600180546001600160a01b0319166001600160a01b0392909216919091179055565b6100fe610188565b61010860006101e2565b565b610112610188565b6001600160a01b03811661017c5760405162461bcd60e51b815260206004820152602660248201527f4f776e61626c653a206e6577206f776e657220697320746865207a65726f206160448201526564647265737360d01b60648201526084015b60405180910390fd5b610185816101e2565b50565b6000546001600160a01b031633146101085760405162461bcd60e51b815260206004820181905260248201527f4f776e61626c653a2063616c6c6572206973206e6f7420746865206f776e65726044820152606401610173565b600080546001600160a01b038381166001600160a01b0319831681178455604051919092169283917f8be0079c531659141344cd1fd0a4f28419497f9722a3daafe3b4186f6b6457e09190a35050565b6001600160a01b038116811461018557600080fd5b60006020828403121561025957600080fd5b813561026481610232565b939250505056fea2646970667358221220d607f1d83f79272c030a27cbd42b9c38527f89bad5c28c6209c2ac51ce0f5b9f64736f6c63430008130033","linkReferences":{}},"methodIdentifiers":{"owner()":"8da5cb5b","protocolFees()":"1ad8b03b","renounceOwnership()":"715018a6","setProtocolFees(address)":"5b8be0df","transferOwnership(address)":"f2fde38b"},"id":9}