{"abi":[{"type":"constructor","inputs":[{"name":"_name","type":"string","internalType":"string"},{"name":"_symbol","type":"string","internalType":"string"}],"stateMutability":"nonpayable"},{"type":"function","name":"DOMAIN_SEPARATOR","inputs":[],"outputs":[{"name":"","type":"bytes32","internalType":"bytes32"}],"stateMutability":"view"},{"type":"function","name":"allowance","inputs":[{"name":"owner","type":"address","internalType":"address"},{"name":"spender","type":"address","internalType":"address"}],"outputs":[{"name":"","type":"uint256","internalType":"uint256"}],"stateMutability":"view"},{"type":"function","name":"approve","inputs":[{"name":"spender","type":"address","internalType":"address"},{"name":"amount","type":"uint256","internalType":"uint256"}],"outputs":[{"name":"","type":"bool","internalType":"bool"}],"stateMutability":"nonpayable"},{"type":"function","name":"balanceOf","inputs":[{"name":"account","type":"address","internalType":"address"}],"outputs":[{"name":"","type":"uint256","internalType":"uint256"}],"stateMutability":"view"},{"type":"function","name":"burn","inputs":[{"name":"_amount","type":"uint256","internalType":"uint256"}],"outputs":[],"stateMutability":"nonpayable"},{"type":"function","name":"burnFrom","inputs":[{"name":"_wallet","type":"address","internalType":"address"},{"name":"_amount","type":"uint256","internalType":"uint256"}],"outputs":[],"stateMutability":"nonpayable"},{"type":"function","name":"decimals","inputs":[],"outputs":[{"name":"","type":"uint8","internalType":"uint8"}],"stateMutability":"view"},{"type":"function","name":"decreaseAllowance","inputs":[{"name":"spender","type":"address","internalType":"address"},{"name":"subtractedValue","type":"uint256","internalType":"uint256"}],"outputs":[{"name":"","type":"bool","internalType":"bool"}],"stateMutability":"nonpayable"},{"type":"function","name":"eip712Domain","inputs":[],"outputs":[{"name":"fields","type":"bytes1","internalType":"bytes1"},{"name":"name","type":"string","internalType":"string"},{"name":"version","type":"string","internalType":"string"},{"name":"chainId","type":"uint256","internalType":"uint256"},{"name":"verifyingContract","type":"address","internalType":"address"},{"name":"salt","type":"bytes32","internalType":"bytes32"},{"name":"extensions","type":"uint256[]","internalType":"uint256[]"}],"stateMutability":"view"},{"type":"function","name":"increaseAllowance","inputs":[{"name":"spender","type":"address","internalType":"address"},{"name":"addedValue","type":"uint256","internalType":"uint256"}],"outputs":[{"name":"","type":"bool","internalType":"bool"}],"stateMutability":"nonpayable"},{"type":"function","name":"mint","inputs":[{"name":"_wallet","type":"address","internalType":"address"},{"name":"_amount","type":"uint256","internalType":"uint256"}],"outputs":[],"stateMutability":"nonpayable"},{"type":"function","name":"minter","inputs":[{"name":"","type":"address","internalType":"address"}],"outputs":[{"name":"","type":"bool","internalType":"bool"}],"stateMutability":"view"},{"type":"function","name":"name","inputs":[],"outputs":[{"name":"","type":"string","internalType":"string"}],"stateMutability":"view"},{"type":"function","name":"nonces","inputs":[{"name":"owner","type":"address","internalType":"address"}],"outputs":[{"name":"","type":"uint256","internalType":"uint256"}],"stateMutability":"view"},{"type":"function","name":"owner","inputs":[],"outputs":[{"name":"","type":"address","internalType":"address"}],"stateMutability":"view"},{"type":"function","name":"permit","inputs":[{"name":"owner","type":"address","internalType":"address"},{"name":"spender","type":"address","internalType":"address"},{"name":"value","type":"uint256","internalType":"uint256"},{"name":"deadline","type":"uint256","internalType":"uint256"},{"name":"v","type":"uint8","internalType":"uint8"},{"name":"r","type":"bytes32","internalType":"bytes32"},{"name":"s","type":"bytes32","internalType":"bytes32"}],"outputs":[],"stateMutability":"nonpayable"},{"type":"function","name":"renounceOwnership","inputs":[],"outputs":[],"stateMutability":"nonpayable"},{"type":"function","name":"setMinter","inputs":[{"name":"_wallet","type":"address","internalType":"address"},{"name":"_isMinter","type":"bool","internalType":"bool"}],"outputs":[],"stateMutability":"nonpayable"},{"type":"function","name":"symbol","inputs":[],"outputs":[{"name":"","type":"string","internalType":"string"}],"stateMutability":"view"},{"type":"function","name":"totalSupply","inputs":[],"outputs":[{"name":"","type":"uint256","internalType":"uint256"}],"stateMutability":"view"},{"type":"function","name":"transfer","inputs":[{"name":"to","type":"address","internalType":"address"},{"name":"amount","type":"uint256","internalType":"uint256"}],"outputs":[{"name":"","type":"bool","internalType":"bool"}],"stateMutability":"nonpayable"},{"type":"function","name":"transferFrom","inputs":[{"name":"from","type":"address","internalType":"address"},{"name":"to","type":"address","internalType":"address"},{"name":"amount","type":"uint256","internalType":"uint256"}],"outputs":[{"name":"","type":"bool","internalType":"bool"}],"stateMutability":"nonpayable"},{"type":"function","name":"transferOwnership","inputs":[{"name":"newOwner","type":"address","internalType":"address"}],"outputs":[],"stateMutability":"nonpayable"},{"type":"event","name":"Approval","inputs":[{"name":"owner","type":"address","indexed":true,"internalType":"address"},{"name":"spender","type":"address","indexed":true,"internalType":"address"},{"name":"value","type":"uint256","indexed":false,"internalType":"uint256"}],"anonymous":false},{"type":"event","name":"Burn","inputs":[{"name":"wallet","type":"address","indexed":true,"internalType":"address"},{"name":"amount","type":"uint256","indexed":false,"internalType":"uint256"}],"anonymous":false},{"type":"event","name":"BurnFrom","inputs":[{"name":"from","type":"address","indexed":true,"internalType":"address"},{"name":"wallet","type":"address","indexed":true,"internalType":"address"},{"name":"amount","type":"uint256","indexed":false,"internalType":"uint256"}],"anonymous":false},{"type":"event","name":"EIP712DomainChanged","inputs":[],"anonymous":false},{"type":"event","name":"Mint","inputs":[{"name":"from","type":"address","indexed":true,"internalType":"address"},{"name":"wallet","type":"address","indexed":true,"internalType":"address"},{"name":"amount","type":"uint256","indexed":false,"internalType":"uint256"}],"anonymous":false},{"type":"event","name":"OwnershipTransferred","inputs":[{"name":"previousOwner","type":"address","indexed":true,"internalType":"address"},{"name":"newOwner","type":"address","indexed":true,"internalType":"address"}],"anonymous":false},{"type":"event","name":"SetMinter","inputs":[{"name":"wallet","type":"address","indexed":true,"internalType":"address"},{"name":"isMinter","type":"bool","indexed":false,"internalType":"bool"}],"anonymous":false},{"type":"event","name":"Transfer","inputs":[{"name":"from","type":"address","indexed":true,"internalType":"address"},{"name":"to","type":"address","indexed":true,"internalType":"address"},{"name":"value","type":"uint256","indexed":false,"internalType":"uint256"}],"anonymous":false},{"type":"error","name":"InvalidShortString","inputs":[]},{"type":"error","name":"StringTooLong","inputs":[{"name":"str","type":"string","internalType":"string"}]}],"bytecode":{"object":"0x6101606040523480156200001257600080fd5b5060405162001d2638038062001d268339810160408190526200003591620002e2565b6040805180820190915260018152603160f81b60208201528290819081846003620000618382620003db565b506004620000708282620003db565b5062000082915083905060056200013e565b61012052620000938160066200013e565b61014052815160208084019190912060e052815190820120610100524660a0526200012160e05161010051604080517f8b73c3c69bb8fe3d512ecc4cf759cc79239f7b179b0ffacaa9a75d522b39400f60208201529081019290925260608201524660808201523060a082015260009060c00160405160208183030381529060405280519060200120905090565b60805250503060c05250620001363362000177565b505062000501565b60006020835110156200015e576200015683620001c9565b905062000171565b816200016b8482620003db565b5060ff90505b92915050565b600980546001600160a01b038381166001600160a01b0319831681179093556040519116919082907f8be0079c531659141344cd1fd0a4f28419497f9722a3daafe3b4186f6b6457e090600090a35050565b600080829050601f8151111562000200578260405163305a27a960e01b8152600401620001f79190620004a7565b60405180910390fd5b80516200020d82620004dc565b179392505050565b634e487b7160e01b600052604160045260246000fd5b60005b83811015620002485781810151838201526020016200022e565b50506000910152565b600082601f8301126200026357600080fd5b81516001600160401b038082111562000280576200028062000215565b604051601f8301601f19908116603f01168101908282118183101715620002ab57620002ab62000215565b81604052838152866020858801011115620002c557600080fd5b620002d88460208301602089016200022b565b9695505050505050565b60008060408385031215620002f657600080fd5b82516001600160401b03808211156200030e57600080fd5b6200031c8683870162000251565b935060208501519150808211156200033357600080fd5b50620003428582860162000251565b9150509250929050565b600181811c908216806200036157607f821691505b6020821081036200038257634e487b7160e01b600052602260045260246000fd5b50919050565b601f821115620003d657600081815260208120601f850160051c81016020861015620003b15750805b601f850160051c820191505b81811015620003d257828155600101620003bd565b5050505b505050565b81516001600160401b03811115620003f757620003f762000215565b6200040f816200040884546200034c565b8462000388565b602080601f8311600181146200044757600084156200042e5750858301515b600019600386901b1c1916600185901b178555620003d2565b600085815260208120601f198616915b82811015620004785788860151825594840194600190910190840162000457565b5085821015620004975787850151600019600388901b60f8161c191681555b5050505050600190811b01905550565b6020815260008251806020840152620004c88160408501602087016200022b565b601f01601f19169190910160400192915050565b80516020808301519190811015620003825760001960209190910360031b1b16919050565b60805160a05160c05160e0516101005161012051610140516117ca6200055c60003960006106570152600061062c01526000610e1f01526000610df701526000610d5201526000610d7c01526000610da601526117ca6000f3fe608060405234801561001057600080fd5b506004361061014d5760003560e01c8063715018a6116100c3578063a457c2d71161007c578063a457c2d7146102c2578063a9059cbb146102d5578063cf456ae7146102e8578063d505accf146102fb578063dd62ed3e1461030e578063f2fde38b1461032157600080fd5b8063715018a61461025657806379cc67901461025e5780637ecebe001461027157806384b0196e146102845780638da5cb5b1461029f57806395d89b41146102ba57600080fd5b80633644e515116101155780633644e515146101c757806339509351146101cf5780633dd08c38146101e257806340c10f191461020557806342966c681461021a57806370a082311461022d57600080fd5b806306fdde0314610152578063095ea7b31461017057806318160ddd1461019357806323b872dd146101a5578063313ce567146101b8575b600080fd5b61015a610334565b60405161016791906114e1565b60405180910390f35b61018361017e366004611517565b6103c6565b6040519015158152602001610167565b6002545b604051908152602001610167565b6101836101b3366004611541565b6103e0565b60405160128152602001610167565b610197610404565b6101836101dd366004611517565b610413565b6101836101f036600461157d565b600a6020526000908152604090205460ff1681565b610218610213366004611517565b610435565b005b610218610228366004611598565b610520565b61019761023b36600461157d565b6001600160a01b031660009081526020819052604090205490565b610218610562565b61021861026c366004611517565b610576565b61019761027f36600461157d565b610600565b61028c61061e565b60405161016797969594939291906115b1565b6009546040516001600160a01b039091168152602001610167565b61015a6106a7565b6101836102d0366004611517565b6106b6565b6101836102e3366004611517565b610731565b6102186102f6366004611647565b61073f565b610218610309366004611683565b6107fa565b61019761031c3660046116f6565b61095e565b61021861032f36600461157d565b610989565b60606003805461034390611729565b80601f016020809104026020016040519081016040528092919081815260200182805461036f90611729565b80156103bc5780601f10610391576101008083540402835291602001916103bc565b820191906000526020600020905b81548152906001019060200180831161039f57829003601f168201915b5050505050905090565b6000336103d4818585610a02565b60019150505b92915050565b6000336103ee858285610b27565b6103f9858585610ba1565b506001949350505050565b600061040e610d45565b905090565b6000336103d4818585610426838361095e565b610430919061175d565b610a02565b336000908152600a602052604090205460ff1661047d5760405162461bcd60e51b81526020600482015260016024820152604d60f81b60448201526064015b60405180910390fd5b6a084595161401484a0000008161049360025490565b61049d919061175d565b11156104d15760405162461bcd60e51b815260206004820152600360248201526209a82b60eb1b6044820152606401610474565b6104db8282610e70565b6040518181526001600160a01b0383169033907fab8530f87dc9b59234c4623bf917212bb2536d647574c8e7e5da92c2ede0c9f8906020015b60405180910390a35050565b61052a3382610f28565b60405181815233907fcc16f5dbb4873280815c1ee09dbd06736cffcc184412cf7a71a0fdb75d397ca59060200160405180910390a250565b61056a611052565b61057460006110ac565b565b336000908152600a602052604090205460ff166105b95760405162461bcd60e51b81526020600482015260016024820152604d60f81b6044820152606401610474565b6105c38282610f28565b6040518181526001600160a01b0383169033907f3c7611a5be35512cb20a6f2f039b47efb0d70f9c538e3886fa3f3e9c32af924f90602001610514565b6001600160a01b0381166000908152600760205260408120546103da565b6000606080828080836106527f000000000000000000000000000000000000000000000000000000000000000060056110fe565b61067d7f000000000000000000000000000000000000000000000000000000000000000060066110fe565b60408051600080825260208201909252600f60f81b9b939a50919850469750309650945092509050565b60606004805461034390611729565b600033816106c4828661095e565b9050838110156107245760405162461bcd60e51b815260206004820152602560248201527f45524332303a2064656372656173656420616c6c6f77616e63652062656c6f77604482015264207a65726f60d81b6064820152608401610474565b6103f98286868403610a02565b6000336103d4818585610ba1565b610747611052565b6001600160a01b0382166000908152600a602052604090205481151560ff90911615150361079b5760405162461bcd60e51b81526020600482015260016024820152601560fa1b6044820152606401610474565b6001600160a01b0382166000818152600a6020908152604091829020805460ff191685151590811790915591519182527f1f96bc657d385fd83da973a43f2ad969e6d96b6779b779571a7306db7ca1cd00910160405180910390a25050565b8342111561084a5760405162461bcd60e51b815260206004820152601d60248201527f45524332305065726d69743a206578706972656420646561646c696e650000006044820152606401610474565b60007f6e71edae12b1b97f4d1f60370fef10105fa2faae0126114a169c64845d6126c98888886108798c6111a9565b6040805160208101969096526001600160a01b0394851690860152929091166060840152608083015260a082015260c0810186905260e00160405160208183030381529060405280519060200120905060006108d4826111d1565b905060006108e4828787876111fe565b9050896001600160a01b0316816001600160a01b0316146109475760405162461bcd60e51b815260206004820152601e60248201527f45524332305065726d69743a20696e76616c6964207369676e617475726500006044820152606401610474565b6109528a8a8a610a02565b50505050505050505050565b6001600160a01b03918216600090815260016020908152604080832093909416825291909152205490565b610991611052565b6001600160a01b0381166109f65760405162461bcd60e51b815260206004820152602660248201527f4f776e61626c653a206e6577206f776e657220697320746865207a65726f206160448201526564647265737360d01b6064820152608401610474565b6109ff816110ac565b50565b6001600160a01b038316610a645760405162461bcd60e51b8152602060048201526024808201527f45524332303a20617070726f76652066726f6d20746865207a65726f206164646044820152637265737360e01b6064820152608401610474565b6001600160a01b038216610ac55760405162461bcd60e51b815260206004820152602260248201527f45524332303a20617070726f766520746f20746865207a65726f206164647265604482015261737360f01b6064820152608401610474565b6001600160a01b0383811660008181526001602090815260408083209487168084529482529182902085905590518481527f8c5be1e5ebec7d5bd14f71427d1e84f3dd0314c0f7b2291e5b200ac8c7c3b92591015b60405180910390a3505050565b6000610b33848461095e565b90506000198114610b9b5781811015610b8e5760405162461bcd60e51b815260206004820152601d60248201527f45524332303a20696e73756666696369656e7420616c6c6f77616e63650000006044820152606401610474565b610b9b8484848403610a02565b50505050565b6001600160a01b038316610c055760405162461bcd60e51b815260206004820152602560248201527f45524332303a207472616e736665722066726f6d20746865207a65726f206164604482015264647265737360d81b6064820152608401610474565b6001600160a01b038216610c675760405162461bcd60e51b815260206004820152602360248201527f45524332303a207472616e7366657220746f20746865207a65726f206164647260448201526265737360e81b6064820152608401610474565b6001600160a01b03831660009081526020819052604090205481811015610cdf5760405162461bcd60e51b815260206004820152602660248201527f45524332303a207472616e7366657220616d6f756e7420657863656564732062604482015265616c616e636560d01b6064820152608401610474565b6001600160a01b03848116600081815260208181526040808320878703905593871680835291849020805487019055925185815290927fddf252ad1be2c89b69c2b068fc378daa952ba7f163c4a11628f55a4df523b3ef910160405180910390a3610b9b565b6000306001600160a01b037f000000000000000000000000000000000000000000000000000000000000000016148015610d9e57507f000000000000000000000000000000000000000000000000000000000000000046145b15610dc857507f000000000000000000000000000000000000000000000000000000000000000090565b61040e604080517f8b73c3c69bb8fe3d512ecc4cf759cc79239f7b179b0ffacaa9a75d522b39400f60208201527f0000000000000000000000000000000000000000000000000000000000000000918101919091527f000000000000000000000000000000000000000000000000000000000000000060608201524660808201523060a082015260009060c00160405160208183030381529060405280519060200120905090565b6001600160a01b038216610ec65760405162461bcd60e51b815260206004820152601f60248201527f45524332303a206d696e7420746f20746865207a65726f2061646472657373006044820152606401610474565b8060026000828254610ed8919061175d565b90915550506001600160a01b038216600081815260208181526040808320805486019055518481527fddf252ad1be2c89b69c2b068fc378daa952ba7f163c4a11628f55a4df523b3ef9101610514565b6001600160a01b038216610f885760405162461bcd60e51b815260206004820152602160248201527f45524332303a206275726e2066726f6d20746865207a65726f206164647265736044820152607360f81b6064820152608401610474565b6001600160a01b03821660009081526020819052604090205481811015610ffc5760405162461bcd60e51b815260206004820152602260248201527f45524332303a206275726e20616d6f756e7420657863656564732062616c616e604482015261636560f01b6064820152608401610474565b6001600160a01b0383166000818152602081815260408083208686039055600280548790039055518581529192917fddf252ad1be2c89b69c2b068fc378daa952ba7f163c4a11628f55a4df523b3ef9101610b1a565b6009546001600160a01b031633146105745760405162461bcd60e51b815260206004820181905260248201527f4f776e61626c653a2063616c6c6572206973206e6f7420746865206f776e65726044820152606401610474565b600980546001600160a01b038381166001600160a01b0319831681179093556040519116919082907f8be0079c531659141344cd1fd0a4f28419497f9722a3daafe3b4186f6b6457e090600090a35050565b606060ff83146111185761111183611226565b90506103da565b81805461112490611729565b80601f016020809104026020016040519081016040528092919081815260200182805461115090611729565b801561119d5780601f106111725761010080835404028352916020019161119d565b820191906000526020600020905b81548152906001019060200180831161118057829003601f168201915b505050505090506103da565b6001600160a01b03811660009081526007602052604090208054600181018255905b50919050565b60006103da6111de610d45565b8360405161190160f01b8152600281019290925260228201526042902090565b600080600061120f87878787611265565b9150915061121c81611329565b5095945050505050565b6060600061123383611473565b604080516020808252818301909252919250600091906020820181803683375050509182525060208101929092525090565b6000807f7fffffffffffffffffffffffffffffff5d576e7357a4501ddfe92f46681b20a083111561129c5750600090506003611320565b6040805160008082526020820180845289905260ff881692820192909252606081018690526080810185905260019060a0016020604051602081039080840390855afa1580156112f0573d6000803e3d6000fd5b5050604051601f1901519150506001600160a01b03811661131957600060019250925050611320565b9150600090505b94509492505050565b600081600481111561133d5761133d61177e565b036113455750565b60018160048111156113595761135961177e565b036113a65760405162461bcd60e51b815260206004820152601860248201527f45434453413a20696e76616c6964207369676e617475726500000000000000006044820152606401610474565b60028160048111156113ba576113ba61177e565b036114075760405162461bcd60e51b815260206004820152601f60248201527f45434453413a20696e76616c6964207369676e6174757265206c656e677468006044820152606401610474565b600381600481111561141b5761141b61177e565b036109ff5760405162461bcd60e51b815260206004820152602260248201527f45434453413a20696e76616c6964207369676e6174757265202773272076616c604482015261756560f01b6064820152608401610474565b600060ff8216601f8111156103da57604051632cd44ac360e21b815260040160405180910390fd5b6000815180845260005b818110156114c1576020818501810151868301820152016114a5565b506000602082860101526020601f19601f83011685010191505092915050565b6020815260006114f4602083018461149b565b9392505050565b80356001600160a01b038116811461151257600080fd5b919050565b6000806040838503121561152a57600080fd5b611533836114fb565b946020939093013593505050565b60008060006060848603121561155657600080fd5b61155f846114fb565b925061156d602085016114fb565b9150604084013590509250925092565b60006020828403121561158f57600080fd5b6114f4826114fb565b6000602082840312156115aa57600080fd5b5035919050565b60ff60f81b881681526000602060e0818401526115d160e084018a61149b565b83810360408501526115e3818a61149b565b606085018990526001600160a01b038816608086015260a0850187905284810360c0860152855180825283870192509083019060005b8181101561163557835183529284019291840191600101611619565b50909c9b505050505050505050505050565b6000806040838503121561165a57600080fd5b611663836114fb565b91506020830135801515811461167857600080fd5b809150509250929050565b600080600080600080600060e0888a03121561169e57600080fd5b6116a7886114fb565b96506116b5602089016114fb565b95506040880135945060608801359350608088013560ff811681146116d957600080fd5b9699959850939692959460a0840135945060c09093013592915050565b6000806040838503121561170957600080fd5b611712836114fb565b9150611720602084016114fb565b90509250929050565b600181811c9082168061173d57607f821691505b6020821081036111cb57634e487b7160e01b600052602260045260246000fd5b808201808211156103da57634e487b7160e01b600052601160045260246000fd5b634e487b7160e01b600052602160045260246000fdfea264697066735822122048fe2555ec69f706ea4b8df54dc4370a346bc381442308c2333ffb1d6680d72464736f6c63430008130033","linkReferences":{}},"methodIdentifiers":{"DOMAIN_SEPARATOR()":"3644e515","allowance(address,address)":"dd62ed3e","approve(address,uint256)":"095ea7b3","balanceOf(address)":"70a08231","burn(uint256)":"42966c68","burnFrom(address,uint256)":"79cc6790","decimals()":"313ce567","decreaseAllowance(address,uint256)":"a457c2d7","eip712Domain()":"84b0196e","increaseAllowance(address,uint256)":"39509351","mint(address,uint256)":"40c10f19","minter(address)":"3dd08c38","name()":"06fdde03","nonces(address)":"7ecebe00","owner()":"8da5cb5b","permit(address,address,uint256,uint256,uint8,bytes32,bytes32)":"d505accf","renounceOwnership()":"715018a6","setMinter(address,bool)":"cf456ae7","symbol()":"95d89b41","totalSupply()":"18160ddd","transfer(address,uint256)":"a9059cbb","transferFrom(address,address,uint256)":"23b872dd","transferOwnership(address)":"f2fde38b"},"id":4}