{"abi":[{"type":"function","name":"_whitelistAry","inputs":[{"name":"","type":"uint256","internalType":"uint256"}],"outputs":[{"name":"","type":"address","internalType":"address"}],"stateMutability":"view"},{"type":"function","name":"getFullWhitelist","inputs":[],"outputs":[{"name":"","type":"address[]","internalType":"address[]"}],"stateMutability":"view"},{"type":"function","name":"owner","inputs":[],"outputs":[{"name":"","type":"address","internalType":"address"}],"stateMutability":"view"},{"type":"function","name":"renounceOwnership","inputs":[],"outputs":[],"stateMutability":"nonpayable"},{"type":"function","name":"toggleRewardsToken","inputs":[{"name":"_token","type":"address","internalType":"address"},{"name":"_isWhitelisted","type":"bool","internalType":"bool"}],"outputs":[],"stateMutability":"nonpayable"},{"type":"function","name":"transferOwnership","inputs":[{"name":"newOwner","type":"address","internalType":"address"}],"outputs":[],"stateMutability":"nonpayable"},{"type":"function","name":"whitelist","inputs":[{"name":"","type":"address","internalType":"address"}],"outputs":[{"name":"","type":"bool","internalType":"bool"}],"stateMutability":"view"},{"type":"event","name":"OwnershipTransferred","inputs":[{"name":"previousOwner","type":"address","indexed":true,"internalType":"address"},{"name":"newOwner","type":"address","indexed":true,"internalType":"address"}],"anonymous":false},{"type":"event","name":"ToggleToken","inputs":[{"name":"token","type":"address","indexed":true,"internalType":"address"},{"name":"isWhitelisted","type":"bool","indexed":false,"internalType":"bool"}],"anonymous":false}],"bytecode":{"object":"0x608060405234801561001057600080fd5b5061001a3361001f565b61006f565b600080546001600160a01b038381166001600160a01b0319831681178455604051919092169283917f8be0079c531659141344cd1fd0a4f28419497f9722a3daafe3b4186f6b6457e09190a35050565b6106a68061007e6000396000f3fe608060405234801561001057600080fd5b506004361061007d5760003560e01c80638da5cb5b1161005b5780638da5cb5b146100cf5780639b19251a146100e0578063c9b7d22c14610113578063f2fde38b1461012857600080fd5b8063319bad14146100825780633c5fe695146100b2578063715018a6146100c7575b600080fd5b61009561009036600461053d565b61013b565b6040516001600160a01b0390911681526020015b60405180910390f35b6100c56100c0366004610572565b610165565b005b6100c56103a4565b6000546001600160a01b0316610095565b6101036100ee3660046105ae565b60016020526000908152604090205460ff1681565b60405190151581526020016100a9565b61011b6103b8565b6040516100a991906105d0565b6100c56101363660046105ae565b61041a565b6002818154811061014b57600080fd5b6000918252602090912001546001600160a01b0316905081565b61016d610493565b6001600160a01b03821660009081526001602052604090205481151560ff9091161515036101c85760405162461bcd60e51b815260206004820152600360248201526204f50560ec1b60448201526064015b60405180910390fd5b6001600160a01b0382166000908152600160205260409020805460ff1916821580159190911790915561025657600280546001600160a01b0384166000818152600360205260408120839055600183018455929092527f405787fa12a823e0f2b7631cc41b3ba8828b3321ca811111fa75cd3aa3bb5ace0180546001600160a01b031916909117905561035b565b6001600160a01b0382166000908152600360205260409020546002805461027f9060019061061d565b8154811061028f5761028f610644565b600091825260209091200154600280546001600160a01b0390921691839081106102bb576102bb610644565b9060005260206000200160006101000a8154816001600160a01b0302191690836001600160a01b0316021790555080600360006002848154811061030157610301610644565b60009182526020808320909101546001600160a01b0316835282019290925260400190205560028054806103375761033761065a565b600082815260209020810160001990810180546001600160a01b0319169055019055505b816001600160a01b03167f871a18e2edd16d394e16ea9b3ed4be86141246e5a376e4398dca9e63809c876482604051610398911515815260200190565b60405180910390a25050565b6103ac610493565b6103b660006104ed565b565b6060600280548060200260200160405190810160405280929190818152602001828054801561041057602002820191906000526020600020905b81546001600160a01b031681526001909101906020018083116103f2575b5050505050905090565b610422610493565b6001600160a01b0381166104875760405162461bcd60e51b815260206004820152602660248201527f4f776e61626c653a206e6577206f776e657220697320746865207a65726f206160448201526564647265737360d01b60648201526084016101bf565b610490816104ed565b50565b6000546001600160a01b031633146103b65760405162461bcd60e51b815260206004820181905260248201527f4f776e61626c653a2063616c6c6572206973206e6f7420746865206f776e657260448201526064016101bf565b600080546001600160a01b038381166001600160a01b0319831681178455604051919092169283917f8be0079c531659141344cd1fd0a4f28419497f9722a3daafe3b4186f6b6457e09190a35050565b60006020828403121561054f57600080fd5b5035919050565b80356001600160a01b038116811461056d57600080fd5b919050565b6000806040838503121561058557600080fd5b61058e83610556565b9150602083013580151581146105a357600080fd5b809150509250929050565b6000602082840312156105c057600080fd5b6105c982610556565b9392505050565b6020808252825182820181905260009190848201906040850190845b818110156106115783516001600160a01b0316835292840192918401916001016105ec565b50909695505050505050565b8181038181111561063e57634e487b7160e01b600052601160045260246000fd5b92915050565b634e487b7160e01b600052603260045260246000fd5b634e487b7160e01b600052603160045260246000fdfea2646970667358221220c7707e3369a71af8d4e3f3964fcdcfb82c5b41a1470a1d47691c224e7d36f63664736f6c63430008130033","linkReferences":{}},"methodIdentifiers":{"_whitelistAry(uint256)":"319bad14","getFullWhitelist()":"c9b7d22c","owner()":"8da5cb5b","renounceOwnership()":"715018a6","toggleRewardsToken(address,bool)":"3c5fe695","transferOwnership(address)":"f2fde38b","whitelist(address)":"9b19251a"},"id":11}