{"abi":[{"type":"constructor","inputs":[{"name":"_name","type":"string","internalType":"string"},{"name":"_symbol","type":"string","internalType":"string"}],"stateMutability":"nonpayable"},{"type":"function","name":"approve","inputs":[{"name":"to","type":"address","internalType":"address"},{"name":"tokenId","type":"uint256","internalType":"uint256"}],"outputs":[],"stateMutability":"payable"},{"type":"function","name":"balanceOf","inputs":[{"name":"owner","type":"address","internalType":"address"}],"outputs":[{"name":"","type":"uint256","internalType":"uint256"}],"stateMutability":"view"},{"type":"function","name":"getApproved","inputs":[{"name":"tokenId","type":"uint256","internalType":"uint256"}],"outputs":[{"name":"","type":"address","internalType":"address"}],"stateMutability":"view"},{"type":"function","name":"isApprovedForAll","inputs":[{"name":"owner","type":"address","internalType":"address"},{"name":"operator","type":"address","internalType":"address"}],"outputs":[{"name":"","type":"bool","internalType":"bool"}],"stateMutability":"view"},{"type":"function","name":"mint","inputs":[{"name":"_receiver","type":"address","internalType":"address"}],"outputs":[{"name":"_tokenId","type":"uint256","internalType":"uint256"}],"stateMutability":"nonpayable"},{"type":"function","name":"name","inputs":[],"outputs":[{"name":"","type":"string","internalType":"string"}],"stateMutability":"view"},{"type":"function","name":"ownerOf","inputs":[{"name":"tokenId","type":"uint256","internalType":"uint256"}],"outputs":[{"name":"","type":"address","internalType":"address"}],"stateMutability":"view"},{"type":"function","name":"safeTransferFrom","inputs":[{"name":"from","type":"address","internalType":"address"},{"name":"to","type":"address","internalType":"address"},{"name":"tokenId","type":"uint256","internalType":"uint256"}],"outputs":[],"stateMutability":"payable"},{"type":"function","name":"safeTransferFrom","inputs":[{"name":"from","type":"address","internalType":"address"},{"name":"to","type":"address","internalType":"address"},{"name":"tokenId","type":"uint256","internalType":"uint256"},{"name":"_data","type":"bytes","internalType":"bytes"}],"outputs":[],"stateMutability":"payable"},{"type":"function","name":"setApprovalForAll","inputs":[{"name":"operator","type":"address","internalType":"address"},{"name":"approved","type":"bool","internalType":"bool"}],"outputs":[],"stateMutability":"nonpayable"},{"type":"function","name":"supportsInterface","inputs":[{"name":"interfaceId","type":"bytes4","internalType":"bytes4"}],"outputs":[{"name":"","type":"bool","internalType":"bool"}],"stateMutability":"view"},{"type":"function","name":"symbol","inputs":[],"outputs":[{"name":"","type":"string","internalType":"string"}],"stateMutability":"view"},{"type":"function","name":"tokenURI","inputs":[{"name":"tokenId","type":"uint256","internalType":"uint256"}],"outputs":[{"name":"","type":"string","internalType":"string"}],"stateMutability":"view"},{"type":"function","name":"totalSupply","inputs":[],"outputs":[{"name":"result","type":"uint256","internalType":"uint256"}],"stateMutability":"view"},{"type":"function","name":"transferFrom","inputs":[{"name":"from","type":"address","internalType":"address"},{"name":"to","type":"address","internalType":"address"},{"name":"tokenId","type":"uint256","internalType":"uint256"}],"outputs":[],"stateMutability":"payable"},{"type":"event","name":"Approval","inputs":[{"name":"owner","type":"address","indexed":true,"internalType":"address"},{"name":"approved","type":"address","indexed":true,"internalType":"address"},{"name":"tokenId","type":"uint256","indexed":true,"internalType":"uint256"}],"anonymous":false},{"type":"event","name":"ApprovalForAll","inputs":[{"name":"owner","type":"address","indexed":true,"internalType":"address"},{"name":"operator","type":"address","indexed":true,"internalType":"address"},{"name":"approved","type":"bool","indexed":false,"internalType":"bool"}],"anonymous":false},{"type":"event","name":"ConsecutiveTransfer","inputs":[{"name":"fromTokenId","type":"uint256","indexed":true,"internalType":"uint256"},{"name":"toTokenId","type":"uint256","indexed":false,"internalType":"uint256"},{"name":"from","type":"address","indexed":true,"internalType":"address"},{"name":"to","type":"address","indexed":true,"internalType":"address"}],"anonymous":false},{"type":"event","name":"Transfer","inputs":[{"name":"from","type":"address","indexed":true,"internalType":"address"},{"name":"to","type":"address","indexed":true,"internalType":"address"},{"name":"tokenId","type":"uint256","indexed":true,"internalType":"uint256"}],"anonymous":false},{"type":"error","name":"ApprovalCallerNotOwnerNorApproved","inputs":[]},{"type":"error","name":"ApprovalQueryForNonexistentToken","inputs":[]},{"type":"error","name":"BalanceQueryForZeroAddress","inputs":[]},{"type":"error","name":"MintERC2309QuantityExceedsLimit","inputs":[]},{"type":"error","name":"MintToZeroAddress","inputs":[]},{"type":"error","name":"MintZeroQuantity","inputs":[]},{"type":"error","name":"NotCompatibleWithSpotMints","inputs":[]},{"type":"error","name":"OwnerQueryForNonexistentToken","inputs":[]},{"type":"error","name":"OwnershipNotInitializedForExtraData","inputs":[]},{"type":"error","name":"SequentialMintExceedsLimit","inputs":[]},{"type":"error","name":"SequentialUpToTooSmall","inputs":[]},{"type":"error","name":"SpotMintTokenIdTooSmall","inputs":[]},{"type":"error","name":"TokenAlreadyExists","inputs":[]},{"type":"error","name":"TransferCallerNotOwnerNorApproved","inputs":[]},{"type":"error","name":"TransferFromIncorrectOwner","inputs":[]},{"type":"error","name":"TransferToNonERC721ReceiverImplementer","inputs":[]},{"type":"error","name":"TransferToZeroAddress","inputs":[]},{"type":"error","name":"URIQueryForNonexistentToken","inputs":[]}],"bytecode":{"object":"0x60806040523480156200001157600080fd5b50604051620012013803806200120183398101604081905262000034916200013b565b8181600262000044838262000234565b50600362000053828262000234565b5060016000555050600980546001600160a01b0319163317905550620003009050565b634e487b7160e01b600052604160045260246000fd5b600082601f8301126200009e57600080fd5b81516001600160401b0380821115620000bb57620000bb62000076565b604051601f8301601f19908116603f01168101908282118183101715620000e657620000e662000076565b816040528381526020925086838588010111156200010357600080fd5b600091505b8382101562000127578582018301518183018401529082019062000108565b600093810190920192909252949350505050565b600080604083850312156200014f57600080fd5b82516001600160401b03808211156200016757600080fd5b62000175868387016200008c565b935060208501519150808211156200018c57600080fd5b506200019b858286016200008c565b9150509250929050565b600181811c90821680620001ba57607f821691505b602082108103620001db57634e487b7160e01b600052602260045260246000fd5b50919050565b601f8211156200022f57600081815260208120601f850160051c810160208610156200020a5750805b601f850160051c820191505b818110156200022b5782815560010162000216565b5050505b505050565b81516001600160401b0381111562000250576200025062000076565b6200026881620002618454620001a5565b84620001e1565b602080601f831160018114620002a05760008415620002875750858301515b600019600386901b1c1916600185901b1785556200022b565b600085815260208120601f198616915b82811015620002d157888601518255948401946001909101908401620002b0565b5085821015620002f05787850151600019600388901b60f8161c191681555b5050505050600190811b01905550565b610ef180620003106000396000f3fe6080604052600436106100e85760003560e01c80636352211e1161008a578063a22cb46511610059578063a22cb46514610258578063b88d4fde14610278578063c87b56dd1461028b578063e985e9c5146102ab57600080fd5b80636352211e146101e35780636a6278421461020357806370a082311461022357806395d89b411461024357600080fd5b8063095ea7b3116100c6578063095ea7b31461017c57806318160ddd1461019157806323b872dd146101bd57806342842e0e146101d057600080fd5b806301ffc9a7146100ed57806306fdde0314610122578063081812fc14610144575b600080fd5b3480156100f957600080fd5b5061010d610108366004610b41565b6102f4565b60405190151581526020015b60405180910390f35b34801561012e57600080fd5b50610137610346565b6040516101199190610bae565b34801561015057600080fd5b5061016461015f366004610bc1565b6103d8565b6040516001600160a01b039091168152602001610119565b61018f61018a366004610bf1565b610413565b005b34801561019d57600080fd5b506101af600154600054036000190190565b604051908152602001610119565b61018f6101cb366004610c1b565b610423565b61018f6101de366004610c1b565b610588565b3480156101ef57600080fd5b506101646101fe366004610bc1565b6105a8565b34801561020f57600080fd5b506101af61021e366004610c57565b6105b3565b34801561022f57600080fd5b506101af61023e366004610c57565b61061f565b34801561024f57600080fd5b50610137610665565b34801561026457600080fd5b5061018f610273366004610c72565b610674565b61018f610286366004610cc4565b6106e0565b34801561029757600080fd5b506101376102a6366004610bc1565b610721565b3480156102b757600080fd5b5061010d6102c6366004610da0565b6001600160a01b03918216600090815260076020908152604080832093909416825291909152205460ff1690565b60006301ffc9a760e01b6001600160e01b03198316148061032557506380ac58cd60e01b6001600160e01b03198316145b806103405750635b5e139f60e01b6001600160e01b03198316145b92915050565b60606002805461035590610dd3565b80601f016020809104026020016040519081016040528092919081815260200182805461038190610dd3565b80156103ce5780601f106103a3576101008083540402835291602001916103ce565b820191906000526020600020905b8154815290600101906020018083116103b157829003601f168201915b5050505050905090565b60006103e3826107a9565b6103f7576103f76333d1c03960e21b6107f5565b506000908152600660205260409020546001600160a01b031690565b61041f828260016107ff565b5050565b600061042e826108a2565b6001600160a01b0394851694909150811684146104545761045462a1148160e81b6107f5565b60008281526006602052604090208054338082146001600160a01b038816909114176104985761048486336102c6565b61049857610498632ce44b5f60e11b6107f5565b80156104a357600082555b6001600160a01b038681166000908152600560205260408082208054600019019055918716808252919020805460010190554260a01b17600160e11b17600085815260046020526040812091909155600160e11b84169003610535576001840160008181526004602052604081205490036105335760005481146105335760008181526004602052604090208490555b505b6001600160a01b0385168481887fddf252ad1be2c89b69c2b068fc378daa952ba7f163c4a11628f55a4df523b3ef600080a48060000361057f5761057f633a954ecd60e21b6107f5565b50505050505050565b6105a3838383604051806020016040528060008152506106e0565b505050565b6000610340826108a2565b6009546000906001600160a01b0316336001600160a01b03161461060b5760405162461bcd60e51b815260040161060290602080825260049082015263082aaa8960e31b604082015260600190565b60405180910390fd5b5060005461061a826001610943565b919050565b60006001600160a01b03821661063f5761063f6323d3ad8160e21b6107f5565b506001600160a01b031660009081526005602052604090205467ffffffffffffffff1690565b60606003805461035590610dd3565b3360008181526007602090815260408083206001600160a01b03871680855290835292819020805460ff191686151590811790915590519081529192917f17307eab39ab6107e8899845ad3d59bd9653f200f220920489ca2b5937696c31910160405180910390a35050565b6106eb848484610423565b6001600160a01b0383163b1561071b5761070784848484610a02565b61071b5761071b6368d2bf6b60e11b6107f5565b50505050565b606061072c826107a9565b61074057610740630a14c4b560e41b6107f5565b600061075760408051602081019091526000815290565b9050805160000361077757604051806020016040528060008152506107a2565b8061078184610ae4565b604051602001610792929190610e0d565b6040516020818303038152906040525b9392505050565b60008160011161061a5760005482101561061a5760005b50600082815260046020526040812054908190036107e8576107e183610e3c565b92506107c0565b600160e01b161592915050565b8060005260046000fd5b600061080a836105a8565b90508180156108225750336001600160a01b03821614155b156108455761083181336102c6565b610845576108456367d9dca160e11b6107f5565b60008381526006602052604080822080546001600160a01b0319166001600160a01b0388811691821790925591518693918516917f8c5be1e5ebec7d5bd14f71427d1e84f3dd0314c0f7b2291e5b200ac8c7c3b92591a450505050565b6000816001116109335750600081815260046020526040902054806000036109205760005482106108dd576108dd636f96cda160e11b6107f5565b5b506000190160008181526004602052604090205480156108de57600160e01b811660000361090b57919050565b61091b636f96cda160e11b6107f5565b6108de565b600160e01b811660000361093357919050565b61061a636f96cda160e11b6107f5565b600080549082900361095f5761095f63b562e8dd60e01b6107f5565b60008181526004602090815260408083206001600160a01b0387164260a01b6001881460e11b178117909155808452600590925282208054680100000000000000018602019055908190036109bd576109bd622e076360e81b6107f5565b818301825b808360007fddf252ad1be2c89b69c2b068fc378daa952ba7f163c4a11628f55a4df523b3ef600080a48181600101915081036109c2575060005550505050565b604051630a85bd0160e11b81526000906001600160a01b0385169063150b7a0290610a37903390899088908890600401610e61565b6020604051808303816000875af1925050508015610a72575060408051601f3d908101601f19168201909252610a6f91810190610e9e565b60015b610ac7573d808015610aa0576040519150601f19603f3d011682016040523d82523d6000602084013e610aa5565b606091505b508051600003610abf57610abf6368d2bf6b60e11b6107f5565b805181602001fd5b6001600160e01b031916630a85bd0160e11b149050949350505050565b606060a06040510180604052602081039150506000815280825b600183039250600a81066030018353600a900480610afe5750819003601f19909101908152919050565b6001600160e01b031981168114610b3e57600080fd5b50565b600060208284031215610b5357600080fd5b81356107a281610b28565b60005b83811015610b79578181015183820152602001610b61565b50506000910152565b60008151808452610b9a816020860160208601610b5e565b601f01601f19169290920160200192915050565b6020815260006107a26020830184610b82565b600060208284031215610bd357600080fd5b5035919050565b80356001600160a01b038116811461061a57600080fd5b60008060408385031215610c0457600080fd5b610c0d83610bda565b946020939093013593505050565b600080600060608486031215610c3057600080fd5b610c3984610bda565b9250610c4760208501610bda565b9150604084013590509250925092565b600060208284031215610c6957600080fd5b6107a282610bda565b60008060408385031215610c8557600080fd5b610c8e83610bda565b915060208301358015158114610ca357600080fd5b809150509250929050565b634e487b7160e01b600052604160045260246000fd5b60008060008060808587031215610cda57600080fd5b610ce385610bda565b9350610cf160208601610bda565b925060408501359150606085013567ffffffffffffffff80821115610d1557600080fd5b818701915087601f830112610d2957600080fd5b813581811115610d3b57610d3b610cae565b604051601f8201601f19908116603f01168101908382118183101715610d6357610d63610cae565b816040528281528a6020848701011115610d7c57600080fd5b82602086016020830137600060208483010152809550505050505092959194509250565b60008060408385031215610db357600080fd5b610dbc83610bda565b9150610dca60208401610bda565b90509250929050565b600181811c90821680610de757607f821691505b602082108103610e0757634e487b7160e01b600052602260045260246000fd5b50919050565b60008351610e1f818460208801610b5e565b835190830190610e33818360208801610b5e565b01949350505050565b600081610e5957634e487b7160e01b600052601160045260246000fd5b506000190190565b6001600160a01b0385811682528416602082015260408101839052608060608201819052600090610e9490830184610b82565b9695505050505050565b600060208284031215610eb057600080fd5b81516107a281610b2856fea264697066735822122065865aec190aceb3c672bca839a2c8276cb7d732f49304d9728f2ecc4259977164736f6c63430008130033","linkReferences":{}},"methodIdentifiers":{"approve(address,uint256)":"095ea7b3","balanceOf(address)":"70a08231","getApproved(uint256)":"081812fc","isApprovedForAll(address,address)":"e985e9c5","mint(address)":"6a627842","name()":"06fdde03","ownerOf(uint256)":"6352211e","safeTransferFrom(address,address,uint256)":"42842e0e","safeTransferFrom(address,address,uint256,bytes)":"b88d4fde","setApprovalForAll(address,bool)":"a22cb465","supportsInterface(bytes4)":"01ffc9a7","symbol()":"95d89b41","tokenURI(uint256)":"c87b56dd","totalSupply()":"18160ddd","transferFrom(address,address,uint256)":"23b872dd"},"id":88}