{"abi":[{"type":"function","name":"parameters","inputs":[],"outputs":[{"name":"factory","type":"address","internalType":"address"},{"name":"token0","type":"address","internalType":"address"},{"name":"token1","type":"address","internalType":"address"},{"name":"fee","type":"uint24","internalType":"uint24"},{"name":"tickSpacing","type":"int24","internalType":"int24"}],"stateMutability":"view"}],"bytecode":{"object":"0x6080604052348015600f57600080fd5b5060df8061001e6000396000f3fe6080604052348015600f57600080fd5b506004361060285760003560e01c80638903573014602d575b600080fd5b600054600154600280546067936001600160a01b03908116938116929082169162ffffff600160a01b82041691600160b81b909104900b85565b604080516001600160a01b0396871681529486166020860152929094168383015262ffffff16606083015260029290920b608082015290519081900360a00190f3fea26469706673582212207a70f8bba886f9fb0b2b3d94bcdde3548ec46211148e0290976ecaf55296d4f764736f6c63430008130033","linkReferences":{}},"methodIdentifiers":{"parameters()":"89035730"},"id":182}