{"abi":[{"type":"function","name":"getPoolPriceUSDX96","inputs":[{"name":"_pricePool","type":"address","internalType":"address"},{"name":"_nativeStablePool","type":"address","internalType":"address"},{"name":"_WETH9","type":"address","internalType":"address"}],"outputs":[{"name":"","type":"uint256","internalType":"uint256"}],"stateMutability":"view"},{"type":"function","name":"getV3Pool","inputs":[{"name":"","type":"address","internalType":"address"},{"name":"","type":"address","internalType":"address"},{"name":"","type":"address","internalType":"address"},{"name":"","type":"int24","internalType":"int24"}],"outputs":[{"name":"","type":"address","internalType":"address"}],"stateMutability":"pure"},{"type":"function","name":"getV3Pool","inputs":[{"name":"_v3Factory","type":"address","internalType":"address"},{"name":"_t0","type":"address","internalType":"address"},{"name":"_t1","type":"address","internalType":"address"},{"name":"_poolFee","type":"uint24","internalType":"uint24"}],"outputs":[{"name":"","type":"address","internalType":"address"}],"stateMutability":"pure"},{"type":"function","name":"getV3Pool","inputs":[{"name":"","type":"address","internalType":"address"},{"name":"","type":"address","internalType":"address"},{"name":"","type":"address","internalType":"address"}],"outputs":[{"name":"","type":"address","internalType":"address"}],"stateMutability":"pure"},{"type":"function","name":"owner","inputs":[],"outputs":[{"name":"","type":"address","internalType":"address"}],"stateMutability":"view"},{"type":"function","name":"priceX96FromSqrtPriceX96","inputs":[{"name":"sqrtPriceX96","type":"uint160","internalType":"uint160"}],"outputs":[{"name":"priceX96","type":"uint256","internalType":"uint256"}],"stateMutability":"pure"},{"type":"function","name":"renounceOwnership","inputs":[],"outputs":[],"stateMutability":"nonpayable"},{"type":"function","name":"sqrtPriceX96FromPoolAndInterval","inputs":[{"name":"_poolAddress","type":"address","internalType":"address"}],"outputs":[{"name":"sqrtPriceX96","type":"uint160","internalType":"uint160"}],"stateMutability":"view"},{"type":"function","name":"sqrtPriceX96FromPoolAndPassedInterval","inputs":[{"name":"_poolAddress","type":"address","internalType":"address"},{"name":"_interval","type":"uint32","internalType":"uint32"}],"outputs":[{"name":"sqrtPriceX96","type":"uint160","internalType":"uint160"}],"stateMutability":"view"},{"type":"function","name":"transferOwnership","inputs":[{"name":"newOwner","type":"address","internalType":"address"}],"outputs":[],"stateMutability":"nonpayable"},{"type":"event","name":"OwnershipTransferred","inputs":[{"name":"previousOwner","type":"address","indexed":true,"internalType":"address"},{"name":"newOwner","type":"address","indexed":true,"internalType":"address"}],"anonymous":false},{"type":"error","name":"T","inputs":[]}],"bytecode":{"object":"0x608060405234801561001057600080fd5b5061001a3361001f565b61006f565b600080546001600160a01b038381166001600160a01b0319831681178455604051919092169283917f8be0079c531659141344cd1fd0a4f28419497f9722a3daafe3b4186f6b6457e09190a35050565b6114888061007e6000396000f3fe608060405234801561001057600080fd5b506004361061009e5760003560e01c80638da5cb5b116100665780638da5cb5b14610116578063b5ed446314610127578063d4bf133414610148578063ddca45b01461015b578063f2fde38b1461016e57600080fd5b80630bbf9b68146100a35780632e33f332146100d35780634556bd20146100e6578063715018a6146100f95780637fb4f79d14610103575b600080fd5b6100b66100b1366004610e30565b610181565b6040516001600160a01b0390911681526020015b60405180910390f35b6100b66100e1366004610e81565b610194565b6100b66100f4366004610edd565b6101c9565b610101610241565b005b6100b6610111366004610f36565b610255565b6000546001600160a01b03166100b6565b61013a610135366004610f53565b610269565b6040519081526020016100ca565b61013a610156366004610f36565b6103b2565b6100b6610169366004610f53565b6103cc565b61010161017c366004610f36565b6103fc565b600061018d8383610475565b9392505050565b60405162461bcd60e51b8152602060048201526002602482015261049360f41b60448201526000906064015b60405180910390fd5b6000806000846001600160a01b0316866001600160a01b0316106101ee5784866101f1565b85855b9150915060006040518060600160405280846001600160a01b03168152602001836001600160a01b031681526020018662ffffff1681525090506102358882610648565b98975050505050505050565b610249610731565b610253600061078b565b565b600061026382610258610475565b92915050565b600080836001600160a01b0316630dfe16816040518163ffffffff1660e01b8152600401602060405180830381865afa1580156102aa573d6000803e3d6000fd5b505050506040513d601f19601f820116820180604052508101906102ce9190610f9e565b9050600061035c85856001600160a01b0316846001600160a01b0316146102f557836107db565b866001600160a01b031663d21220a76040518163ffffffff1660e01b8152600401602060405180830381865afa158015610333573d6000803e3d6000fd5b505050506040513d601f19601f820116820180604052508101906103579190610f9e565b6107db565b9050846001600160a01b0316866001600160a01b03160361038057915061018d9050565b600061038c87866107db565b9050600160601b61039d8284610fd1565b6103a79190610ffe565b979650505050505050565b60006102636001600160a01b03831680600160601b610a46565b60405162461bcd60e51b8152602060048201526002602482015261493160f01b60448201526000906064016101c0565b610404610731565b6001600160a01b0381166104695760405162461bcd60e51b815260206004820152602660248201527f4f776e61626c653a206e6577206f776e657220697320746865207a65726f206160448201526564647265737360d01b60648201526084016101c0565b6104728161078b565b50565b60008263ffffffff831682036104f657806001600160a01b0316633850c7bd6040518163ffffffff1660e01b815260040160e060405180830381865afa1580156104c3573d6000803e3d6000fd5b505050506040513d601f19601f820116820180604052508101906104e7919061103a565b50949650610641945050505050565b604080516002808252606082018352600092602083019080368337019050509050838160008151811061052b5761052b6110e4565b602002602001019063ffffffff16908163ffffffff168152505060008160018151811061055a5761055a6110e4565b63ffffffff9092166020928302919091019091015260405163883bdbfd60e01b81526000906001600160a01b0384169063883bdbfd9061059e9085906004016110fa565b600060405180830381865afa1580156105bb573d6000803e3d6000fd5b505050506040513d6000823e601f3d908101601f191682016040526105e3919081019061120d565b50905061063c8560030b82600081518110610600576106006110e4565b60200260200101518360018151811061061b5761061b6110e4565b602002602001015161062d91906112d9565b6106379190611306565b610af8565b935050505b5092915050565b600081602001516001600160a01b031682600001516001600160a01b03161061067057600080fd5b815160208084015160408086015181516001600160a01b0395861681860152949092168482015262ffffff90911660608085019190915281518085038201815260808501909252815191909201206001600160f81b031960a08401529085901b6bffffffffffffffffffffffff191660a183015260b58201527fe34f199b19b2b4f47f68442619d555527d244f78a3297ea89325f843f87b8b5460d582015260f50160408051601f1981840301815291905280516020909101209392505050565b6000546001600160a01b031633146102535760405162461bcd60e51b815260206004820181905260248201527f4f776e61626c653a2063616c6c6572206973206e6f7420746865206f776e657260448201526064016101c0565b600080546001600160a01b038381166001600160a01b0319831681178455604051919092169283917f8be0079c531659141344cd1fd0a4f28419497f9722a3daafe3b4186f6b6457e09190a35050565b600080836001600160a01b031663d21220a76040518163ffffffff1660e01b8152600401602060405180830381865afa15801561081c573d6000803e3d6000fd5b505050506040513d601f19601f820116820180604052508101906108409190610f9e565b90506000846001600160a01b0316630dfe16816040518163ffffffff1660e01b8152600401602060405180830381865afa158015610882573d6000803e3d6000fd5b505050506040513d601f19601f820116820180604052508101906108a69190610f9e565b6001600160a01b031663313ce5676040518163ffffffff1660e01b8152600401602060405180830381865afa1580156108e3573d6000803e3d6000fd5b505050506040513d601f19601f820116820180604052508101906109079190611344565b90506000826001600160a01b031663313ce5676040518163ffffffff1660e01b8152600401602060405180830381865afa158015610949573d6000803e3d6000fd5b505050506040513d601f19601f8201168201806040525081019061096d9190611344565b9050600061097a87610255565b90506000610987826103b2565b90506000876001600160a01b0316866001600160a01b0316146109c357816109b46002600160601b611443565b6109be9190610ffe565b6109c5565b815b9050876001600160a01b0316866001600160a01b031614610a0f576109eb85600a611443565b6109f685600a611443565b610a009083610fd1565b610a0a9190610ffe565b610a39565b610a1a84600a611443565b610a2586600a611443565b610a2f9083610fd1565b610a399190610ffe565b9998505050505050505050565b6000808060001985870985870292508281108382030391505080600003610a7f5760008411610a7457600080fd5b50829004905061018d565b808411610a8b57600080fd5b6000848688096000868103871696879004966002600389028118808a02820302808a02820302808a02820302808a02820302808a02820302808a02909103029181900381900460010186841190950394909402919094039290920491909117919091029150509392505050565b60008060008360020b12610b0f578260020b610b17565b8260020b6000035b9050620d89e8811115610b3d576040516315e4079d60e11b815260040160405180910390fd5b600081600116600003610b5457600160801b610b66565b6ffffcb933bd6fad37aa2d162d1a5940015b70ffffffffffffffffffffffffffffffffff1690506002821615610b9a576ffff97272373d413259a46990580e213a0260801c5b6004821615610bb9576ffff2e50f5f656932ef12357cf3c7fdcc0260801c5b6008821615610bd8576fffe5caca7e10e4e61c3624eaa0941cd00260801c5b6010821615610bf7576fffcb9843d60f6159c9db58835c9266440260801c5b6020821615610c16576fff973b41fa98c081472e6896dfb254c00260801c5b6040821615610c35576fff2ea16466c96a3843ec78b326b528610260801c5b6080821615610c54576ffe5dee046a99a2a811c461f1969c30530260801c5b610100821615610c74576ffcbe86c7900a88aedcffc83b479aa3a40260801c5b610200821615610c94576ff987a7253ac413176f2b074cf7815e540260801c5b610400821615610cb4576ff3392b0822b70005940c7a398e4b70f30260801c5b610800821615610cd4576fe7159475a2c29b7443b29c7fa6e889d90260801c5b611000821615610cf4576fd097f3bdfd2022b8845ad8f792aa58250260801c5b612000821615610d14576fa9f746462d870fdf8a65dc1f90e061e50260801c5b614000821615610d34576f70d869a156d2a1b890bb3df62baf32f70260801c5b618000821615610d54576f31be135f97d08fd981231505542fcfa60260801c5b62010000821615610d75576f09aa508b5b7a84e1c677de54f3e99bc90260801c5b62020000821615610d95576e5d6af8dedb81196699c329225ee6040260801c5b62040000821615610db4576d2216e584f5fa1ea926041bedfe980260801c5b62080000821615610dd1576b048a170391f7dc42444e8fa20260801c5b60008460020b1315610df2578060001981610dee57610dee610fe8565b0490505b640100000000810615610e06576001610e09565b60005b60ff16602082901c0192505050919050565b6001600160a01b038116811461047257600080fd5b60008060408385031215610e4357600080fd5b8235610e4e81610e1b565b9150602083013563ffffffff81168114610e6757600080fd5b809150509250929050565b8060020b811461047257600080fd5b60008060008060808587031215610e9757600080fd5b8435610ea281610e1b565b93506020850135610eb281610e1b565b92506040850135610ec281610e1b565b91506060850135610ed281610e72565b939692955090935050565b60008060008060808587031215610ef357600080fd5b8435610efe81610e1b565b93506020850135610f0e81610e1b565b92506040850135610f1e81610e1b565b9150606085013562ffffff81168114610ed257600080fd5b600060208284031215610f4857600080fd5b813561018d81610e1b565b600080600060608486031215610f6857600080fd5b8335610f7381610e1b565b92506020840135610f8381610e1b565b91506040840135610f9381610e1b565b809150509250925092565b600060208284031215610fb057600080fd5b815161018d81610e1b565b634e487b7160e01b600052601160045260246000fd5b808202811582820484141761026357610263610fbb565b634e487b7160e01b600052601260045260246000fd5b60008261100d5761100d610fe8565b500490565b805161ffff8116811461102457600080fd5b919050565b805160ff8116811461102457600080fd5b600080600080600080600060e0888a03121561105557600080fd5b875161106081610e1b565b602089015190975061107181610e72565b955061107f60408901611012565b945061108d60608901611012565b935061109b60808901611012565b92506110a960a08901611029565b915060c088015180151581146110be57600080fd5b8091505092959891949750929550565b634e487b7160e01b600052604160045260246000fd5b634e487b7160e01b600052603260045260246000fd5b6020808252825182820181905260009190848201906040850190845b8181101561113857835163ffffffff1683529284019291840191600101611116565b50909695505050505050565b604051601f8201601f1916810167ffffffffffffffff8111828210171561116d5761116d6110ce565b604052919050565b600067ffffffffffffffff82111561118f5761118f6110ce565b5060051b60200190565b600082601f8301126111aa57600080fd5b815160206111bf6111ba83611175565b611144565b82815260059290921b840181019181810190868411156111de57600080fd5b8286015b848110156112025780516111f581610e1b565b83529183019183016111e2565b509695505050505050565b6000806040838503121561122057600080fd5b825167ffffffffffffffff8082111561123857600080fd5b818501915085601f83011261124c57600080fd5b8151602061125c6111ba83611175565b82815260059290921b8401810191818101908984111561127b57600080fd5b948201945b838610156112a95785518060060b811461129a5760008081fd5b82529482019490820190611280565b918801519196509093505050808211156112c257600080fd5b506112cf85828601611199565b9150509250929050565b600682810b9082900b03667fffffffffffff198112667fffffffffffff8213171561026357610263610fbb565b60008160060b8360060b8061131d5761131d610fe8565b667fffffffffffff1982146000198214161561133b5761133b610fbb565b90059392505050565b60006020828403121561135657600080fd5b61018d82611029565b600181815b8085111561139a57816000190482111561138057611380610fbb565b8085161561138d57918102915b93841c9390800290611364565b509250929050565b6000826113b157506001610263565b816113be57506000610263565b81600181146113d457600281146113de576113fa565b6001915050610263565b60ff8411156113ef576113ef610fbb565b50506001821b610263565b5060208310610133831016604e8410600b841016171561141d575081810a610263565b611427838361135f565b806000190482111561143b5761143b610fbb565b029392505050565b600061018d60ff8416836113a256fea26469706673582212205badf9abedb0f19ac90835cb25d0369beba346d4d41c3b56bc0053d57272fd1164736f6c63430008130033","linkReferences":{}},"methodIdentifiers":{"getPoolPriceUSDX96(address,address,address)":"b5ed4463","getV3Pool(address,address,address)":"ddca45b0","getV3Pool(address,address,address,int24)":"2e33f332","getV3Pool(address,address,address,uint24)":"4556bd20","owner()":"8da5cb5b","priceX96FromSqrtPriceX96(uint160)":"d4bf1334","renounceOwnership()":"715018a6","sqrtPriceX96FromPoolAndInterval(address)":"7fb4f79d","sqrtPriceX96FromPoolAndPassedInterval(address,uint32)":"0bbf9b68","transferOwnership(address)":"f2fde38b"},"id":102}