{"abi":[{"type":"function","name":"getConstants","inputs":[],"outputs":[{"name":"_calldata","type":"bytes","internalType":"bytes"}],"stateMutability":"pure"},{"type":"function","name":"getNewRate","inputs":[{"name":"_data","type":"bytes","internalType":"bytes"},{"name":"_initData","type":"bytes","internalType":"bytes"}],"outputs":[{"name":"_newRatePerSec","type":"uint64","internalType":"uint64"}],"stateMutability":"pure"},{"type":"function","name":"name","inputs":[],"outputs":[{"name":"","type":"string","internalType":"string"}],"stateMutability":"pure"},{"type":"function","name":"requireValidInitData","inputs":[{"name":"_initData","type":"bytes","internalType":"bytes"}],"outputs":[],"stateMutability":"pure"}],"bytecode":{"object":"0x608060405234801561001057600080fd5b506106f8806100206000396000f3fe608060405234801561001057600080fd5b506004361061004c5760003560e01c806306fdde03146100515780631b54c1a314610093578063453f31d5146100bf5780639a295e73146100d4575b600080fd5b6040805180820190915260148152734c696e65617220496e746572657374205261746560601b60208201525b60405161008a91906104bc565b60405180910390f35b6100a66100a136600461051f565b610114565b60405167ffffffffffffffff909116815260200161008a565b6100d26100cd36600461058b565b610220565b005b604080516000602082015264220d17250981830152620186a0606082018190526080808301919091528251808303909101815260a090910190915261007d565b60006101208383610220565b600061012e858701876105cd565b50925060009150819050808061014687890189610615565b9350935093509350808510156101a757600081620186a0610167878761065d565b6101719190610676565b61017b919061068d565b9050620186a061018b8288610676565b610195919061068d565b61019f90866106af565b965050610213565b8085111561020f5760006101be82620186a061065d565b620186a06101cc868661065d565b6101d69190610676565b6101e0919061068d565b9050620186a0816101f1848961065d565b6101fb9190610676565b610205919061068d565b61019f90856106af565b8295505b5050505050949350505050565b600080808061023185870187610615565b935093509350935064220d1725098410801561024d5750828411155b8015610257575060015b6103055760405162461bcd60e51b815260206004820152606860248201527f4c696e656172496e746572657374526174653a205f6d696e496e74657265737460448201527f203c204d41585f494e54202626205f6d696e496e746572657374203c3d205f7660648201527f6572746578496e746572657374202626205f6d696e496e746572657374203e3d6084820152670813525397d2539560c21b60a482015260c4015b60405180910390fd5b64220d172509821115801561031a5750818311155b80156103265750600082115b6103cf5760405162461bcd60e51b815260206004820152606860248201527f4c696e656172496e746572657374526174653a205f6d6178496e74657265737460448201527f203c3d204d41585f494e54202626205f766572746578496e746572657374203c60648201527f3d205f6d6178496e746572657374202626205f6d6178496e746572657374203e6084820152670813525397d2539560c21b60a482015260c4016102fc565b620186a0811080156103e15750600081115b61046e5760405162461bcd60e51b815260206004820152605260248201527f4c696e656172496e746572657374526174653a205f7665727465785574696c6960448201527f7a6174696f6e203c204d41585f5645525445585f5554494c202626205f76657260648201527107465785574696c697a6174696f6e203e20360741b608482015260a4016102fc565b505050505050565b6000815180845260005b8181101561049c57602081850181015186830182015201610480565b506000602082860101526020601f19601f83011685010191505092915050565b6020815260006104cf6020830184610476565b9392505050565b60008083601f8401126104e857600080fd5b50813567ffffffffffffffff81111561050057600080fd5b60208301915083602082850101111561051857600080fd5b9250929050565b6000806000806040858703121561053557600080fd5b843567ffffffffffffffff8082111561054d57600080fd5b610559888389016104d6565b9096509450602087013591508082111561057257600080fd5b5061057f878288016104d6565b95989497509550505050565b6000806020838503121561059e57600080fd5b823567ffffffffffffffff8111156105b557600080fd5b6105c1858286016104d6565b90969095509350505050565b600080600080608085870312156105e357600080fd5b843567ffffffffffffffff811681146105fb57600080fd5b966020860135965060408601359560600135945092505050565b6000806000806080858703121561062b57600080fd5b5050823594602084013594506040840135936060013592509050565b634e487b7160e01b600052601160045260246000fd5b8181038181111561067057610670610647565b92915050565b808202811582820484141761067057610670610647565b6000826106aa57634e487b7160e01b600052601260045260246000fd5b500490565b808201808211156106705761067061064756fea2646970667358221220277f2318473a1fb4a23a51f92771b70affb12623b6bf3aa9adac6977b39d9d7164736f6c63430008130033","linkReferences":{}},"methodIdentifiers":{"getConstants()":"9a295e73","getNewRate(bytes,bytes)":"1b54c1a3","name()":"06fdde03","requireValidInitData(bytes)":"453f31d5"},"id":135}