{"abi":[{"type":"constructor","inputs":[{"name":"_tokens","type":"address[]","internalType":"address[]"},{"name":"_weights","type":"uint256[]","internalType":"uint256[]"},{"name":"_rewardsToken","type":"address","internalType":"address"},{"name":"_dexHandler","type":"address","internalType":"address"},{"name":"_config","type":"tuple","internalType":"struct IDecentralizedIndex.Config","components":[{"name":"partner","type":"address","internalType":"address"},{"name":"hasTransferTax","type":"bool","internalType":"bool"},{"name":"blacklistTKNpTKNPoolV2","type":"bool","internalType":"bool"}]},{"name":"_fees","type":"tuple","internalType":"struct IDecentralizedIndex.Fees","components":[{"name":"burn","type":"uint16","internalType":"uint16"},{"name":"bond","type":"uint16","internalType":"uint16"},{"name":"debond","type":"uint16","internalType":"uint16"},{"name":"buy","type":"uint16","internalType":"uint16"},{"name":"sell","type":"uint16","internalType":"uint16"},{"name":"partner","type":"uint16","internalType":"uint16"}]}],"stateMutability":"nonpayable"},{"type":"receive","stateMutability":"payable"},{"type":"function","name":"BOND_FEE","inputs":[],"outputs":[{"name":"","type":"uint16","internalType":"uint16"}],"stateMutability":"view"},{"type":"function","name":"DEBOND_FEE","inputs":[],"outputs":[{"name":"","type":"uint16","internalType":"uint16"}],"stateMutability":"view"},{"type":"function","name":"DEX_HANDLER","inputs":[],"outputs":[{"name":"","type":"address","internalType":"contract IDexAdapter"}],"stateMutability":"view"},{"type":"function","name":"DOMAIN_SEPARATOR","inputs":[],"outputs":[{"name":"","type":"bytes32","internalType":"bytes32"}],"stateMutability":"view"},{"type":"function","name":"FLASH_FEE_AMOUNT_DAI","inputs":[],"outputs":[{"name":"","type":"uint256","internalType":"uint256"}],"stateMutability":"view"},{"type":"function","name":"PAIRED_LP_TOKEN","inputs":[],"outputs":[{"name":"","type":"address","internalType":"address"}],"stateMutability":"view"},{"type":"function","name":"addLiquidityV2","inputs":[{"name":"_idxLPTokens","type":"uint256","internalType":"uint256"},{"name":"_pairedLPTokens","type":"uint256","internalType":"uint256"},{"name":"_slippage","type":"uint256","internalType":"uint256"},{"name":"_deadline","type":"uint256","internalType":"uint256"}],"outputs":[{"name":"","type":"uint256","internalType":"uint256"}],"stateMutability":"nonpayable"},{"type":"function","name":"allowance","inputs":[{"name":"owner","type":"address","internalType":"address"},{"name":"spender","type":"address","internalType":"address"}],"outputs":[{"name":"","type":"uint256","internalType":"uint256"}],"stateMutability":"view"},{"type":"function","name":"approve","inputs":[{"name":"spender","type":"address","internalType":"address"},{"name":"amount","type":"uint256","internalType":"uint256"}],"outputs":[{"name":"","type":"bool","internalType":"bool"}],"stateMutability":"nonpayable"},{"type":"function","name":"balanceOf","inputs":[{"name":"account","type":"address","internalType":"address"}],"outputs":[{"name":"","type":"uint256","internalType":"uint256"}],"stateMutability":"view"},{"type":"function","name":"bond","inputs":[{"name":"_token","type":"address","internalType":"address"},{"name":"_amount","type":"uint256","internalType":"uint256"},{"name":"_amountMintMin","type":"uint256","internalType":"uint256"}],"outputs":[],"stateMutability":"nonpayable"},{"type":"function","name":"burn","inputs":[{"name":"_amount","type":"uint256","internalType":"uint256"}],"outputs":[],"stateMutability":"nonpayable"},{"type":"function","name":"config","inputs":[],"outputs":[{"name":"partner","type":"address","internalType":"address"},{"name":"hasTransferTax","type":"bool","internalType":"bool"},{"name":"blacklistTKNpTKNPoolV2","type":"bool","internalType":"bool"}],"stateMutability":"view"},{"type":"function","name":"created","inputs":[],"outputs":[{"name":"","type":"uint256","internalType":"uint256"}],"stateMutability":"view"},{"type":"function","name":"debond","inputs":[{"name":"_amount","type":"uint256","internalType":"uint256"},{"name":"","type":"address[]","internalType":"address[]"},{"name":"","type":"uint8[]","internalType":"uint8[]"}],"outputs":[],"stateMutability":"nonpayable"},{"type":"function","name":"decimals","inputs":[],"outputs":[{"name":"","type":"uint8","internalType":"uint8"}],"stateMutability":"view"},{"type":"function","name":"decreaseAllowance","inputs":[{"name":"spender","type":"address","internalType":"address"},{"name":"subtractedValue","type":"uint256","internalType":"uint256"}],"outputs":[{"name":"","type":"bool","internalType":"bool"}],"stateMutability":"nonpayable"},{"type":"function","name":"eip712Domain","inputs":[],"outputs":[{"name":"fields","type":"bytes1","internalType":"bytes1"},{"name":"name","type":"string","internalType":"string"},{"name":"version","type":"string","internalType":"string"},{"name":"chainId","type":"uint256","internalType":"uint256"},{"name":"verifyingContract","type":"address","internalType":"address"},{"name":"salt","type":"bytes32","internalType":"bytes32"},{"name":"extensions","type":"uint256[]","internalType":"uint256[]"}],"stateMutability":"view"},{"type":"function","name":"fees","inputs":[],"outputs":[{"name":"burn","type":"uint16","internalType":"uint16"},{"name":"bond","type":"uint16","internalType":"uint16"},{"name":"debond","type":"uint16","internalType":"uint16"},{"name":"buy","type":"uint16","internalType":"uint16"},{"name":"sell","type":"uint16","internalType":"uint16"},{"name":"partner","type":"uint16","internalType":"uint16"}],"stateMutability":"view"},{"type":"function","name":"flash","inputs":[{"name":"_recipient","type":"address","internalType":"address"},{"name":"_token","type":"address","internalType":"address"},{"name":"_amount","type":"uint256","internalType":"uint256"},{"name":"_data","type":"bytes","internalType":"bytes"}],"outputs":[],"stateMutability":"nonpayable"},{"type":"function","name":"getAllAssets","inputs":[],"outputs":[{"name":"","type":"tuple[]","internalType":"struct IDecentralizedIndex.IndexAssetInfo[]","components":[{"name":"token","type":"address","internalType":"address"},{"name":"weighting","type":"uint256","internalType":"uint256"},{"name":"basePriceUSDX96","type":"uint256","internalType":"uint256"},{"name":"c1","type":"address","internalType":"address"},{"name":"q1","type":"uint256","internalType":"uint256"}]}],"stateMutability":"view"},{"type":"function","name":"getIdxPriceUSDX96","inputs":[],"outputs":[{"name":"","type":"uint256","internalType":"uint256"},{"name":"","type":"uint256","internalType":"uint256"}],"stateMutability":"view"},{"type":"function","name":"getInitialAmount","inputs":[{"name":"_sourceToken","type":"address","internalType":"address"},{"name":"_sourceAmount","type":"uint256","internalType":"uint256"},{"name":"_targetToken","type":"address","internalType":"address"}],"outputs":[{"name":"","type":"uint256","internalType":"uint256"}],"stateMutability":"view"},{"type":"function","name":"getTokenPriceUSDX96","inputs":[{"name":"_token","type":"address","internalType":"address"}],"outputs":[{"name":"","type":"uint256","internalType":"uint256"}],"stateMutability":"view"},{"type":"function","name":"increaseAllowance","inputs":[{"name":"spender","type":"address","internalType":"address"},{"name":"addedValue","type":"uint256","internalType":"uint256"}],"outputs":[{"name":"","type":"bool","internalType":"bool"}],"stateMutability":"nonpayable"},{"type":"function","name":"indexTokens","inputs":[{"name":"","type":"uint256","internalType":"uint256"}],"outputs":[{"name":"token","type":"address","internalType":"address"},{"name":"weighting","type":"uint256","internalType":"uint256"},{"name":"basePriceUSDX96","type":"uint256","internalType":"uint256"},{"name":"c1","type":"address","internalType":"address"},{"name":"q1","type":"uint256","internalType":"uint256"}],"stateMutability":"view"},{"type":"function","name":"indexType","inputs":[],"outputs":[{"name":"","type":"uint8","internalType":"enum IDecentralizedIndex.IndexType"}],"stateMutability":"view"},{"type":"function","name":"initialize","inputs":[],"outputs":[],"stateMutability":"nonpayable"},{"type":"function","name":"isAsset","inputs":[{"name":"_token","type":"address","internalType":"address"}],"outputs":[{"name":"","type":"bool","internalType":"bool"}],"stateMutability":"view"},{"type":"function","name":"lpRewardsToken","inputs":[],"outputs":[{"name":"","type":"address","internalType":"address"}],"stateMutability":"view"},{"type":"function","name":"lpStakingPool","inputs":[],"outputs":[{"name":"","type":"address","internalType":"address"}],"stateMutability":"view"},{"type":"function","name":"name","inputs":[],"outputs":[{"name":"","type":"string","internalType":"string"}],"stateMutability":"view"},{"type":"function","name":"nonces","inputs":[{"name":"owner","type":"address","internalType":"address"}],"outputs":[{"name":"","type":"uint256","internalType":"uint256"}],"stateMutability":"view"},{"type":"function","name":"partner","inputs":[],"outputs":[{"name":"","type":"address","internalType":"address"}],"stateMutability":"view"},{"type":"function","name":"permit","inputs":[{"name":"owner","type":"address","internalType":"address"},{"name":"spender","type":"address","internalType":"address"},{"name":"value","type":"uint256","internalType":"uint256"},{"name":"deadline","type":"uint256","internalType":"uint256"},{"name":"v","type":"uint8","internalType":"uint8"},{"name":"r","type":"bytes32","internalType":"bytes32"},{"name":"s","type":"bytes32","internalType":"bytes32"}],"outputs":[],"stateMutability":"nonpayable"},{"type":"function","name":"processPreSwapFeesAndSwap","inputs":[],"outputs":[],"stateMutability":"nonpayable"},{"type":"function","name":"removeLiquidityV2","inputs":[{"name":"_lpTokens","type":"uint256","internalType":"uint256"},{"name":"_minIdxTokens","type":"uint256","internalType":"uint256"},{"name":"_minPairedLpToken","type":"uint256","internalType":"uint256"},{"name":"_deadline","type":"uint256","internalType":"uint256"}],"outputs":[],"stateMutability":"nonpayable"},{"type":"function","name":"rescueERC20","inputs":[{"name":"_token","type":"address","internalType":"address"}],"outputs":[],"stateMutability":"nonpayable"},{"type":"function","name":"rescueETH","inputs":[],"outputs":[],"stateMutability":"nonpayable"},{"type":"function","name":"setPartner","inputs":[{"name":"_partner","type":"address","internalType":"address"}],"outputs":[],"stateMutability":"nonpayable"},{"type":"function","name":"setPartnerFee","inputs":[{"name":"_fee","type":"uint16","internalType":"uint16"}],"outputs":[],"stateMutability":"nonpayable"},{"type":"function","name":"symbol","inputs":[],"outputs":[{"name":"","type":"string","internalType":"string"}],"stateMutability":"view"},{"type":"function","name":"totalSupply","inputs":[],"outputs":[{"name":"","type":"uint256","internalType":"uint256"}],"stateMutability":"view"},{"type":"function","name":"transfer","inputs":[{"name":"to","type":"address","internalType":"address"},{"name":"amount","type":"uint256","internalType":"uint256"}],"outputs":[{"name":"","type":"bool","internalType":"bool"}],"stateMutability":"nonpayable"},{"type":"function","name":"transferFrom","inputs":[{"name":"from","type":"address","internalType":"address"},{"name":"to","type":"address","internalType":"address"},{"name":"amount","type":"uint256","internalType":"uint256"}],"outputs":[{"name":"","type":"bool","internalType":"bool"}],"stateMutability":"nonpayable"},{"type":"function","name":"unlocked","inputs":[],"outputs":[{"name":"","type":"uint8","internalType":"uint8"}],"stateMutability":"view"},{"type":"event","name":"AddLiquidity","inputs":[{"name":"wallet","type":"address","indexed":true,"internalType":"address"},{"name":"amountTokens","type":"uint256","indexed":false,"internalType":"uint256"},{"name":"amountDAI","type":"uint256","indexed":false,"internalType":"uint256"}],"anonymous":false},{"type":"event","name":"Approval","inputs":[{"name":"owner","type":"address","indexed":true,"internalType":"address"},{"name":"spender","type":"address","indexed":true,"internalType":"address"},{"name":"value","type":"uint256","indexed":false,"internalType":"uint256"}],"anonymous":false},{"type":"event","name":"Bond","inputs":[{"name":"wallet","type":"address","indexed":true,"internalType":"address"},{"name":"token","type":"address","indexed":true,"internalType":"address"},{"name":"amountTokensBonded","type":"uint256","indexed":false,"internalType":"uint256"},{"name":"amountTokensMinted","type":"uint256","indexed":false,"internalType":"uint256"}],"anonymous":false},{"type":"event","name":"Create","inputs":[{"name":"newIdx","type":"address","indexed":true,"internalType":"address"},{"name":"wallet","type":"address","indexed":true,"internalType":"address"}],"anonymous":false},{"type":"event","name":"Debond","inputs":[{"name":"wallet","type":"address","indexed":true,"internalType":"address"},{"name":"amountDebonded","type":"uint256","indexed":false,"internalType":"uint256"}],"anonymous":false},{"type":"event","name":"Debug","inputs":[{"name":"a","type":"string","indexed":false,"internalType":"string"}],"anonymous":false},{"type":"event","name":"DebugAddress","inputs":[{"name":"a","type":"string","indexed":false,"internalType":"string"},{"name":"b","type":"address","indexed":false,"internalType":"address"}],"anonymous":false},{"type":"event","name":"DebugBool","inputs":[{"name":"a","type":"string","indexed":false,"internalType":"string"},{"name":"b","type":"bool","indexed":false,"internalType":"bool"}],"anonymous":false},{"type":"event","name":"DebugUint","inputs":[{"name":"a","type":"string","indexed":false,"internalType":"string"},{"name":"b","type":"uint256","indexed":false,"internalType":"uint256"}],"anonymous":false},{"type":"event","name":"EIP712DomainChanged","inputs":[],"anonymous":false},{"type":"event","name":"FlashLoan","inputs":[{"name":"executor","type":"address","indexed":true,"internalType":"address"},{"name":"recipient","type":"address","indexed":true,"internalType":"address"},{"name":"token","type":"address","indexed":false,"internalType":"address"},{"name":"amount","type":"uint256","indexed":false,"internalType":"uint256"}],"anonymous":false},{"type":"event","name":"Initialize","inputs":[{"name":"wallet","type":"address","indexed":true,"internalType":"address"},{"name":"v2Pool","type":"address","indexed":false,"internalType":"address"}],"anonymous":false},{"type":"event","name":"RemoveLiquidity","inputs":[{"name":"wallet","type":"address","indexed":true,"internalType":"address"},{"name":"amountLiquidity","type":"uint256","indexed":false,"internalType":"uint256"}],"anonymous":false},{"type":"event","name":"SetPartner","inputs":[{"name":"wallet","type":"address","indexed":true,"internalType":"address"},{"name":"newPartner","type":"address","indexed":false,"internalType":"address"}],"anonymous":false},{"type":"event","name":"SetPartnerFee","inputs":[{"name":"wallet","type":"address","indexed":true,"internalType":"address"},{"name":"newFee","type":"uint16","indexed":false,"internalType":"uint16"}],"anonymous":false},{"type":"event","name":"Transfer","inputs":[{"name":"from","type":"address","indexed":true,"internalType":"address"},{"name":"to","type":"address","indexed":true,"internalType":"address"},{"name":"value","type":"uint256","indexed":false,"internalType":"uint256"}],"anonymous":false},{"type":"error","name":"InvalidShortString","inputs":[]},{"type":"error","name":"StringTooLong","inputs":[{"name":"str","type":"string","internalType":"string"}]}],"bytecode":{"object":"0x610280604052600a805460ff60a01b1916600160a01b1790556011805460ff60881b1916600160881b1790553480156200003857600080fd5b506040516200c0a73803806200c0a78339810160408190526200005b91620013cf565b6040518060400160405280601781526020017f7a576569676874656420426c75652043686970204964780000000000000000008152506040518060400160405280600a815260200169777a544553545454424360b01b8152508383898960008a8a6000898960008a8a888888888880604051806040016040528060018152602001603160f81b8152508b8b8160039081620000f791906200157a565b5060046200010682826200157a565b50620001189150839050600562000e61565b610120526200012981600662000e61565b61014052815160208084019190912060e052815190820120610100524660a052620001b760e05161010051604080517f8b73c3c69bb8fe3d512ecc4cf759cc79239f7b179b0ffacaa9a75d522b39400f60208201529081019290925260608201524660808201523060a082015260009060c00160405160208183030381529060405280519060200120905090565b60805250503060c052506064620001d261271060146200165c565b620001de919062001676565b856060015161ffff161115620001f357600080fd5b60646200020461271060146200165c565b62000210919062001676565b856080015161ffff1611156200022557600080fd5b60646200023661271060466200165c565b62000242919062001676565b855161ffff1611156200025457600080fd5b60646200026561271060636200165c565b62000271919062001676565b856020015161ffff1611156200028657600080fd5b60646200029761271060636200165c565b620002a3919062001676565b856040015161ffff161115620002b857600080fd5b6064620002c961271060056200165c565b620002d5919062001676565b8560a0015161ffff161115620002ea57600080fd5b866001811115620002ff57620002ff62001699565b61022081600181111562000317576200031762001699565b90525042610240528451600c80546020808901516040808b015160608c015160808d015160a08e015161ffff9081166a01000000000000000000000261ffff60501b1992821668010000000000000000029290921663ffffffff60401b1993821666010000000000000261ffff60301b19958316640100000000029590951663ffffffff60201b19978316620100000263ffffffff19909a1692909b1691909117979097179490941697909717179590951692909217919091179091558751600b80548a8401518b8601511515600160a81b0260ff60a81b19911515600160a01b026001600160a81b03199093166001600160a01b039586161792909217161790558581166102605284166101a0819052825163456d019760e11b815292516000939192638ada032e92600481810193918290030181865afa15801562000462573d6000803e3d6000fd5b505050506040513d601f19601f82011682018060405250810190620004889190620016af565b9050806001600160a01b03166101c0816001600160a01b0316815250506101a0516001600160a01b031663a11198566040518163ffffffff1660e01b8152600401602060405180830381865afa158015620004e7573d6000803e3d6000fd5b505050506040513d601f19601f820116820180604052508101906200050d9190620016af565b6001600160a01b039081166101e0526000908616156200052e578562000544565b736b175474e89094c44da98b954eedeac495271d0f5b9050806001600160a01b0316610180816001600160a01b031681525050736b175474e89094c44da98b954eedeac495271d0f6001600160a01b031663313ce5676040518163ffffffff1660e01b8152600401602060405180830381865afa158015620005b4573d6000803e3d6000fd5b505050506040513d601f19601f82011682018060405250810190620005da9190620016d4565b620005e790600a620017f6565b620005f490600a6200165c565b610160526040516000805160206200c08783398151915290620006489060208082526019908201527f4245464f5245205354414b494e4720504f4f4c20544f4b454e00000000000000604082015260600190565b60405180910390a18a6040516020016200066391906200182d565b6040516020818303038152906040528a6040516020016200068591906200185e565b604051602081830303815290604052826102605186620006a7576000620006a9565b335b737d544dd34abbe24c8832db27820ff53c151e949b73ec0eb48d2d638f241c1a7f109e38ef2901e9450f6101a05173024ff47d552cb222b265d68c7aeb26e586d5229d604051620006fa9062001175565b6200070e99989796959493929190620018b7565b604051809103906000f0801580156200072b573d6000803e3d6000fd5b50600a80546001600160a01b03929092166001600160a01b03199092169190911790556040516000805160206200c087833981519152906200079e9060208082526018908201527f4146544552205354414b494e4720504f4f4c20544f4b454e0000000000000000604082015260600190565b60405180910390a16101a0516001600160a01b031663c3749ae56040518163ffffffff1660e01b8152600401602060405180830381865afa158015620007e8573d6000803e3d6000fd5b505050506040513d601f19601f820116820180604052508101906200080e91906200192f565b6200081d576200081d62000e9a565b836001600160a01b031663ad5c46486040518163ffffffff1660e01b8152600401602060405180830381865afa1580156200085c573d6000803e3d6000fd5b505050506040513d601f19601f82011682018060405250810190620008829190620016af565b6001600160a01b031661020052604051339030907f96b5b9b8a7193304150caccf9b80d150675fa3d6af57761d8d8ef1d6f9a1a90990600090a350505050505050505050508451865114620009025760405162461bcd60e51b81526020600482015260016024820152602b60f91b60448201526064015b60405180910390fd5b855160005b818160ff16101562000cde57600e6000898360ff16815181106200092f576200092f6200194d565b6020908102919091018101516001600160a01b031682528101919091526040016000205460ff1615620009895760405162461bcd60e51b81526020600482015260016024820152601160fa1b6044820152606401620008f9565b6000878260ff1681518110620009a357620009a36200194d565b602002602001015111620009de5760405162461bcd60e51b81526020600482015260016024820152605760f81b6044820152606401620008f9565b600d6040518060a001604052808a8460ff168151811062000a035762000a036200194d565b60200260200101516001600160a01b03168152602001898460ff168151811062000a315762000a316200194d565b602090810291909101810151825260008282018190526040808401829052606093840182905285546001818101885596835291839020855160059093020180546001600160a01b039384166001600160a01b03199182161782559386015196810196909655840151600286015591830151600385018054919093169116179055608001516004909101558651879060ff831690811062000ad55762000ad56200194d565b60200260200101516012600082825462000af0919062001963565b9250508190555080600f60008a8460ff168151811062000b145762000b146200194d565b60200260200101516001600160a01b03166001600160a01b0316815260200190815260200160002060006101000a81548160ff021916908360ff1602179055506001600e60008a8460ff168151811062000b725762000b726200194d565b60200260200101516001600160a01b03166001600160a01b0316815260200190815260200160002060006101000a81548160ff0219169083151502179055508960400151801562000bf45750856001600160a01b0316888260ff168151811062000be05762000be06200194d565b60200260200101516001600160a01b031614155b1562000cc9576000846001600160a01b031663c4f3e9d7308b8560ff168151811062000c245762000c246200194d565b60200260200101516040518363ffffffff1660e01b815260040162000c5f9291906001600160a01b0392831681529116602082015260400190565b6020604051808303816000875af115801562000c7f573d6000803e3d6000fd5b505050506040513d601f19601f8201168201806040525081019062000ca59190620016af565b6001600160a01b03166000908152601060205260409020805460ff19166001179055505b8062000cd58162001979565b91505062000907565b5060008660008151811062000cf75762000cf76200194d565b60200260200101516012546c0100000000000000000000000062000d1c91906200165c565b62000d28919062001676565b905060005b8281101562000e485760125489828151811062000d4e5762000d4e6200194d565b60200260200101516001600160a01b031663313ce5676040518163ffffffff1660e01b8152600401602060405180830381865afa15801562000d94573d6000803e3d6000fd5b505050506040513d601f19601f8201168201806040525081019062000dba9190620016d4565b62000dc790600a620017f6565b838a848151811062000ddd5762000ddd6200194d565b602002602001015162000df191906200165c565b62000dfd91906200165c565b62000e09919062001676565b600d828154811062000e1f5762000e1f6200194d565b60009182526020909120600460059092020101558062000e3f816200199b565b91505062000d2d565b50505050505050505050505050505050505050620019f1565b600060208351101562000e815762000e798362001132565b905062000e94565b8162000e8e84826200157a565b5060ff90505b92915050565b601154600160901b900460ff161562000eda5760405162461bcd60e51b81526020600482015260016024820152604f60f81b6044820152606401620008f9565b6011805460ff60901b1916600160901b1790556101a05161018051604051639f4f974560e01b81523060048201526001600160a01b0391821660248201526000929190911690639f4f974590604401602060405180830381865afa15801562000f47573d6000803e3d6000fd5b505050506040513d601f19601f8201168201806040525081019062000f6d9190620016af565b90506001600160a01b03811662000ffe576101a0516101805160405163c4f3e9d760e01b81523060048201526001600160a01b03918216602482015291169063c4f3e9d7906044016020604051808303816000875af115801562000fd5573d6000803e3d6000fd5b505050506040513d601f19601f8201168201806040525081019062000ffb9190620016af565b90505b600a54604051631e9b12ef60e01b81526001600160a01b03838116600483015290911690631e9b12ef90602401600060405180830381600087803b1580156200104657600080fd5b505af11580156200105b573d6000803e3d6000fd5b50505050600a60009054906101000a90046001600160a01b03166001600160a01b031663715018a66040518163ffffffff1660e01b8152600401600060405180830381600087803b158015620010b057600080fd5b505af1158015620010c5573d6000803e3d6000fd5b5050600980546001600160a01b0319166001600160a01b03851617905550620010ed90503390565b6040516001600160a01b03838116825291909116907fdc90fed0326ba91706deeac7eb34ac9f8b680734f9d782864dc29704d23bed6a9060200160405180910390a250565b600080829050601f8151111562001160578260405163305a27a960e01b8152600401620008f99190620019b7565b80516200116d82620019cc565b179392505050565b614751806200793683390190565b634e487b7160e01b600052604160045260246000fd5b604051601f8201601f191681016001600160401b0381118282101715620011c457620011c462001183565b604052919050565b60006001600160401b03821115620011e857620011e862001183565b5060051b60200190565b80516001600160a01b03811681146200120a57600080fd5b919050565b600082601f8301126200122157600080fd5b815160206200123a6200123483620011cc565b62001199565b82815260059290921b840181019181810190868411156200125a57600080fd5b8286015b848110156200127757805183529183019183016200125e565b509695505050505050565b805180151581146200120a57600080fd5b600060608284031215620012a657600080fd5b604051606081016001600160401b0381118282101715620012cb57620012cb62001183565b604052905080620012dc83620011f2565b8152620012ec6020840162001282565b6020820152620012ff6040840162001282565b60408201525092915050565b805161ffff811681146200120a57600080fd5b600060c082840312156200133157600080fd5b60405160c081016001600160401b038111828210171562001356576200135662001183565b60405290508062001367836200130b565b815262001377602084016200130b565b60208201526200138a604084016200130b565b60408201526200139d606084016200130b565b6060820152620013b0608084016200130b565b6080820152620013c360a084016200130b565b60a08201525092915050565b6000806000806000806101a08789031215620013ea57600080fd5b86516001600160401b03808211156200140257600080fd5b818901915089601f8301126200141757600080fd5b815160206200142a6200123483620011cc565b82815260059290921b8401810191818101908d8411156200144a57600080fd5b948201945b8386101562001473576200146386620011f2565b825294820194908201906200144f565b918c0151919a509093505050808211156200148d57600080fd5b506200149c89828a016200120f565b955050620014ad60408801620011f2565b9350620014bd60608801620011f2565b9250620014ce886080890162001293565b9150620014df8860e089016200131e565b90509295509295509295565b600181811c908216806200150057607f821691505b6020821081036200152157634e487b7160e01b600052602260045260246000fd5b50919050565b601f8211156200157557600081815260208120601f850160051c81016020861015620015505750805b601f850160051c820191505b8181101562001571578281556001016200155c565b5050505b505050565b81516001600160401b0381111562001596576200159662001183565b620015ae81620015a78454620014eb565b8462001527565b602080601f831160018114620015e65760008415620015cd5750858301515b600019600386901b1c1916600185901b17855562001571565b600085815260208120601f198616915b828110156200161757888601518255948401946001909101908401620015f6565b5085821015620016365787850151600019600388901b60f8161c191681555b5050505050600190811b01905550565b634e487b7160e01b600052601160045260246000fd5b808202811582820484141762000e945762000e9462001646565b6000826200169457634e487b7160e01b600052601260045260246000fd5b500490565b634e487b7160e01b600052602160045260246000fd5b600060208284031215620016c257600080fd5b620016cd82620011f2565b9392505050565b600060208284031215620016e757600080fd5b815160ff81168114620016cd57600080fd5b600181815b808511156200173a5781600019048211156200171e576200171e62001646565b808516156200172c57918102915b93841c9390800290620016fe565b509250929050565b600082620017535750600162000e94565b81620017625750600062000e94565b81600181146200177b57600281146200178657620017a6565b600191505062000e94565b60ff8411156200179a576200179a62001646565b50506001821b62000e94565b5060208310610133831016604e8410600b8410161715620017cb575081810a62000e94565b620017d78383620016f9565b8060001904821115620017ee57620017ee62001646565b029392505050565b6000620016cd60ff84168362001742565b60005b83811015620018245781810151838201526020016200180a565b50506000910152565b66029ba30b5b2b2160cd1b8152600082516200185181600785016020870162001807565b9190910160070192915050565b607360f81b8152600082516200187c81600185016020870162001807565b9190910160010192915050565b60008151808452620018a381602086016020860162001807565b601f01601f19169290920160200192915050565b6000610120808352620018cd8184018d62001889565b90508281036020840152620018e3818c62001889565b6001600160a01b039a8b166040850152988a1660608401525050948716608086015292861660a085015290851660c0840152841660e08301529092166101009092019190915292915050565b6000602082840312156200194257600080fd5b620016cd8262001282565b634e487b7160e01b600052603260045260246000fd5b8082018082111562000e945762000e9462001646565b600060ff821660ff810362001992576200199262001646565b60010192915050565b600060018201620019b057620019b062001646565b5060010190565b602081526000620016cd602083018462001889565b80516020808301519190811015620015215760001960209190910360031b1b16919050565b60805160a05160c05160e05161010051610120516101405161016051610180516101a0516101c0516101e05161020051610220516102405161026051615d4162001bf560003960008181610521015281816121c90152818161232c0152614d97015260008181610394015261418f015260006104e0015260008181613954015281816139dc01528181613c52015261476f01526000505060006131b901526000818161063e015281816112c8015281816115c701528181611606015281816117210152818161186b01528181611a7b01528181612e4901528181612ed801528181613632015281816136f1015281816139ad0152818161472b01528181614ba40152614d250152600081816104940152818161124a015281816113180152818161141c0152818161151101528181611568015281816115a5015281816116350152818161174901528181611847015281816118e50152818161197901528181611a0001528181611aaa0152818161220d01528181612e8c015281816136610152818161372001528181614c5c01528181614ce401528181614dc101528181614e1201528181614ea60152614f3901526000818161069a015281816122f00152818161237401526123c101526000610ee901526000610ebe015260006134470152600061341f0152600061337a015260006133a4015260006133ce0152615d416000f3fe6080604052600436106102815760003560e01c806393b404bd1161014f578063bdbc91ab116100c1578063d757a9fb1161007a578063d757a9fb14610942578063dd62ed3e14610962578063e4b5495714610982578063ee9c79da146109a2578063f6823996146109c2578063ff140ca6146109e257600080fd5b8063bdbc91ab1461085b578063bdc8d0601461087b578063be10862b146108ab578063c87fa42a146108c9578063ccec371614610902578063d505accf1461092257600080fd5b8063a16d596011610113578063a16d5960146107a6578063a457c2d7146107c6578063a9059cbb146107e6578063a9e9c8bc14610806578063b08d033314610826578063bb4630271461084657600080fd5b806393b404bd1461068857806394cc699e146106bc57806395b3921e146106dc57806395d89b41146107065780639af1d35a1461071b57600080fd5b806342966c68116101f357806370a08231116101ac57806370a082311461056457806379502c551461059a5780637ecebe00146105f75780638129fc1c14610617578063822631d81461062c57806384b0196e1461066057600080fd5b806342966c681461040b5780634a437f881461042b5780634f4ce61d1461048257806353f50447146104ce57806358f4dcc31461050f5780636a5e26501461054357600080fd5b80632acada4d116102455780632acada4d1461033e578063313ce56714610360578063325a19f1146103825780633644e515146103b657806339509351146103cb57806341dc1253146103eb57600080fd5b806306fdde031461028d578063095ea7b3146102b857806318160ddd146102e857806320800a001461030757806323b872dd1461031e57600080fd5b3661028857005b600080fd5b34801561029957600080fd5b506102a2610a01565b6040516102af91906153b4565b60405180910390f35b3480156102c457600080fd5b506102d86102d33660046153e3565b610a93565b60405190151581526020016102af565b3480156102f457600080fd5b506002545b6040519081526020016102af565b34801561031357600080fd5b5061031c610aad565b005b34801561032a57600080fd5b506102d861033936600461540f565b610c32565b34801561034a57600080fd5b50610353610c56565b6040516102af9190615450565b34801561036c57600080fd5b5060125b60405160ff90911681526020016102af565b34801561038e57600080fd5b506102f97f000000000000000000000000000000000000000000000000000000000000000081565b3480156103c257600080fd5b506102f9610ced565b3480156103d757600080fd5b506102d86103e63660046153e3565b610cfc565b3480156103f757600080fd5b5061031c6104063660046154cc565b610d1e565b34801561041757600080fd5b5061031c6104263660046154f0565b610df8565b34801561043757600080fd5b5061044b6104463660046154f0565b610e3b565b604080516001600160a01b03968716815260208101959095528401929092529092166060820152608081019190915260a0016102af565b34801561048e57600080fd5b506104b67f000000000000000000000000000000000000000000000000000000000000000081565b6040516001600160a01b0390911681526020016102af565b3480156104da57600080fd5b506105027f000000000000000000000000000000000000000000000000000000000000000081565b6040516102af919061551f565b34801561051b57600080fd5b506104b67f000000000000000000000000000000000000000000000000000000000000000081565b34801561054f57600080fd5b50600a5461037090600160a01b900460ff1681565b34801561057057600080fd5b506102f961057f366004615547565b6001600160a01b031660009081526020819052604090205490565b3480156105a657600080fd5b50600b546105d0906001600160a01b0381169060ff600160a01b8204811691600160a81b90041683565b604080516001600160a01b03909416845291151560208401521515908201526060016102af565b34801561060357600080fd5b506102f9610612366004615547565b610e88565b34801561062357600080fd5b5061031c610ea6565b34801561063857600080fd5b506104b67f000000000000000000000000000000000000000000000000000000000000000081565b34801561066c57600080fd5b50610675610eb0565b6040516102af9796959493929190615564565b34801561069457600080fd5b506102f97f000000000000000000000000000000000000000000000000000000000000000081565b3480156106c857600080fd5b50600a546104b6906001600160a01b031681565b3480156106e857600080fd5b506106f1610f39565b604080519283526020830191909152016102af565b34801561071257600080fd5b506102a261109f565b34801561072757600080fd5b50600c546107699061ffff808216916201000081048216916401000000008204811691600160301b8104821691600160401b8204811691600160501b90041686565b6040805161ffff978816815295871660208701529386169385019390935290841660608401528316608083015290911660a082015260c0016102af565b3480156107b257600080fd5b5061031c6107c1366004615547565b6110ae565b3480156107d257600080fd5b506102d86107e13660046153e3565b611145565b3480156107f257600080fd5b506102d86108013660046153e3565b6111c0565b34801561081257600080fd5b506102f96108213660046155fa565b6111ce565b34801561083257600080fd5b5061031c61084136600461562c565b611bc7565b34801561085257600080fd5b5061031c61200d565b34801561086757600080fd5b5061031c610876366004615661565b6120d0565b34801561088757600080fd5b50600c54640100000000900461ffff165b60405161ffff90911681526020016102af565b3480156108b757600080fd5b50600b546001600160a01b03166104b6565b3480156108d557600080fd5b506102d86108e4366004615547565b6001600160a01b03166000908152600e602052604090205460ff1690565b34801561090e57600080fd5b5061031c61091d366004615547565b61261a565b34801561092e57600080fd5b5061031c61093d36600461570f565b6127a7565b34801561094e57600080fd5b506102f961095d366004615547565b61290b565b34801561096e57600080fd5b506102f961097d366004615780565b612916565b34801561098e57600080fd5b506102f961099d3660046157b9565b612941565b3480156109ae57600080fd5b5061031c6109bd3660046158da565b612ac1565b3480156109ce57600080fd5b5061031c6109dd3660046155fa565b612d1c565b3480156109ee57600080fd5b50600c5462010000900461ffff16610898565b606060038054610a10906159a7565b80601f0160208091040260200160405190810160405280929190818152602001828054610a3c906159a7565b8015610a895780601f10610a5e57610100808354040283529160200191610a89565b820191906000526020600020905b815481529060010190602001808311610a6c57829003601f168201915b5050505050905090565b600033610aa1818585612faf565b60019150505b92915050565b600a54600160a01b900460ff16600114610ae25760405162461bcd60e51b8152600401610ad9906159db565b60405180910390fd5b600a805460ff60a01b1916905547610b205760405162461bcd60e51b81526020600482015260016024820152604560f81b6044820152606401610ad9565b600073024ff47d552cb222b265d68c7aeb26e586d5229d6001600160a01b0316638da5cb5b6040518163ffffffff1660e01b8152600401602060405180830381865afa158015610b74573d6000803e3d6000fd5b505050506040513d601f19601f82011682018060405250810190610b9891906159f6565b6001600160a01b03164760405160006040518083038185875af1925050503d8060008114610be2576040519150601f19603f3d011682016040523d82523d6000602084013e610be7565b606091505b5050905080610c1c5760405162461bcd60e51b81526020600482015260016024820152605360f81b6044820152606401610ad9565b50600a805460ff60a01b1916600160a01b179055565b600033610c408582856130d4565b610c4b85858561314e565b506001949350505050565b6060600d805480602002602001604051908101604052809291908181526020016000905b82821015610ce45760008481526020908190206040805160a0810182526005860290920180546001600160a01b0390811684526001808301548587015260028301549385019390935260038201541660608401526004015460808301529083529092019101610c7a565b50505050905090565b6000610cf761336d565b905090565b600033610aa1818585610d0f8383612916565b610d199190615a29565b612faf565b600b546001600160a01b0316336001600160a01b031614610d655760405162461bcd60e51b81526020600482015260016024820152600560fc1b6044820152606401610ad9565b600c5461ffff600160501b909104811690821610610d955760405162461bcd60e51b8152600401610ad9906159db565b600c805461ffff60501b1916600160501b61ffff8416021790553360405161ffff831681526001600160a01b0391909116907ffc0cb6bfc0e2e72ceb9097dc52c953b7d46c4f1d173de188581cba3fab46ad4a906020015b60405180910390a250565b600a54600160a01b900460ff16600114610e245760405162461bcd60e51b8152600401610ad9906159db565b600a805460ff60a01b19169055610c1c3382613498565b600d8181548110610e4b57600080fd5b6000918252602090912060059091020180546001820154600283015460038401546004909401546001600160a01b03938416955091939092169085565b6001600160a01b038116600090815260076020526040812054610aa7565b610eae6135c7565b565b600060608082808083610ee47f000000000000000000000000000000000000000000000000000000000000000060056138a5565b610f0f7f000000000000000000000000000000000000000000000000000000000000000060066138a5565b60408051600080825260208201909252600f60f81b9b939a50919850469750309650945092509050565b600d5460009081908190600160301b90825b8181101561109157600083610f8b600d8481548110610f6c57610f6c615a3c565b60009182526020909120600590910201546001600160a01b0316613950565b610f959190615a52565b905083600d8381548110610fab57610fab615a3c565b6000918252602091829020600590910201546040805163313ce56760e01b815290516001600160a01b039092169263313ce567926004808401938290030181865afa158015610ffe573d6000803e3d6000fd5b505050506040513d601f19601f820116820180604052508101906110229190615a74565b61102d90600a615b75565b600d848154811061104057611040615a3c565b9060005260206000209060050201600401548361105d9190615b84565b6110679190615a52565b6110719190615a52565b61107b9086615a29565b945050808061108990615b9b565b915050610f4b565b506000959294509192505050565b606060048054610a10906159a7565b600b546001600160a01b0316336001600160a01b0316146110f55760405162461bcd60e51b81526020600482015260016024820152600560fc1b6044820152606401610ad9565b600b80546001600160a01b0319166001600160a01b03831690811790915560405190815233907f4b74c6905f914d7a5f408442bc16a267312648abfc3909c994cc6c2643ae5c9690602001610ded565b600033816111538286612916565b9050838110156111b35760405162461bcd60e51b815260206004820152602560248201527f45524332303a2064656372656173656420616c6c6f77616e63652062656c6f77604482015264207a65726f60d81b6064820152608401610ad9565b610c4b8286868403612faf565b600033610aa181858561314e565b600a54600090600160a01b900460ff166001146111fd5760405162461bcd60e51b8152600401610ad9906159db565b600a805460ff60a01b191690556011805460ff60881b19169055306000908152602081905260408120546040516370a0823160e01b81523060048201529091506000906001600160a01b037f000000000000000000000000000000000000000000000000000000000000000016906370a0823190602401602060405180830381865afa158015611291573d6000803e3d6000fd5b505050506040513d601f19601f820116820180604052508101906112b59190615bb4565b90506112c2333089613d3d565b6112ed307f000000000000000000000000000000000000000000000000000000000000000089612faf565b7f2c78221d853bf45521bf53ad2802eb4470185a3cad34373f42e4639a8fdeb1976001600160a01b037f0000000000000000000000000000000000000000000000000000000000000000166370a08231336040516001600160e01b031960e084901b1681526001600160a01b039091166004820152602401602060405180830381865afa158015611382573d6000803e3d6000fd5b505050506040513d601f19601f820116820180604052508101906113a69190615bb4565b6040516113ed919060408082526017908201527f5041495245445f4c505f544f4b454e2042414c414e43450000000000000000006060820152602081019190915260800190565b60405180910390a160408051818152600f818301526e2820a4a922a22fa6282faa27a5a2a760891b60608201527f00000000000000000000000000000000000000000000000000000000000000006001600160a01b0316602082015290517fb3f7d6c63a62ab0e6ae5263ef1deb9c5a64f4689288c380db949c116314a55409181900360800190a1604080518181526009818301526836b99739b2b73232b960b91b606082015233602082015290517fb3f7d6c63a62ab0e6ae5263ef1deb9c5a64f4689288c380db949c116314a55409181900360800190a160408051818152601681830152755041495245445f4c505f544f4b454e2069732044414960501b6060820152736b175474e89094c44da98b954eedeac495271d0f6001600160a01b037f00000000000000000000000000000000000000000000000000000000000000001614602082015290517fc0971de8d615669ce336a81fbc0043ac15834948dd39e24e22f73d3304db2e159181900360800190a16115987f00000000000000000000000000000000000000000000000000000000000000006001600160a01b0316333089613ee1565b6115ec6001600160a01b037f0000000000000000000000000000000000000000000000000000000000000000167f000000000000000000000000000000000000000000000000000000000000000088613f4c565b604051639f4f974560e01b81526000906001600160a01b037f00000000000000000000000000000000000000000000000000000000000000001690639f4f97459061165d9030907f000000000000000000000000000000000000000000000000000000000000000090600401615bcd565b602060405180830381865afa15801561167a573d6000803e3d6000fd5b505050506040513d601f19601f8201168201806040525081019061169e91906159f6565b6001600160a01b03166370a08231336040516001600160e01b031960e084901b1681526001600160a01b039091166004820152602401602060405180830381865afa1580156116f1573d6000803e3d6000fd5b505050506040513d601f19601f820116820180604052508101906117159190615bb4565b90506001600160a01b037f00000000000000000000000000000000000000000000000000000000000000001663e8e33700307f00000000000000000000000000000000000000000000000000000000000000008b8b6103e86117778d82615be7565b8f6117829190615b84565b61178c9190615a52565b6103e86117998e82615be7565b8f6117a49190615b84565b6117ae9190615a52565b3360405160e089901b6001600160e01b03191681526001600160a01b039788166004820152958716602487015260448601949094526064850192909252608484015260a483015290911660c482015260e4810188905261010401600060405180830381600087803b15801561182257600080fd5b505af1158015611836573d6000803e3d6000fd5b506118919250506001600160a01b037f00000000000000000000000000000000000000000000000000000000000000001690507f00000000000000000000000000000000000000000000000000000000000000006000613ff7565b306000908152602081905260409020548310156118ce576118ce30333060009081526020819052604090205486906118c99190615be7565b613d3d565b6040516370a0823160e01b815230600482015282907f00000000000000000000000000000000000000000000000000000000000000006001600160a01b0316906370a0823190602401602060405180830381865afa158015611934573d6000803e3d6000fd5b505050506040513d601f19601f820116820180604052508101906119589190615bb4565b1115611a2757611a27336040516370a0823160e01b815230600482015284907f00000000000000000000000000000000000000000000000000000000000000006001600160a01b0316906370a0823190602401602060405180830381865afa1580156119c8573d6000803e3d6000fd5b505050506040513d601f19601f820116820180604052508101906119ec9190615bb4565b6119f69190615be7565b6001600160a01b037f000000000000000000000000000000000000000000000000000000000000000016919061410b565b604080518981526020810189905233917f06239653922ac7bea6aa2b19dc486b9361821d37712eb796adfd38d81de278ca910160405180910390a2604051639f4f974560e01b815281906001600160a01b037f00000000000000000000000000000000000000000000000000000000000000001690639f4f974590611ad29030907f000000000000000000000000000000000000000000000000000000000000000090600401615bcd565b602060405180830381865afa158015611aef573d6000803e3d6000fd5b505050506040513d601f19601f82011682018060405250810190611b1391906159f6565b6001600160a01b03166370a08231336040516001600160e01b031960e084901b1681526001600160a01b039091166004820152602401602060405180830381865afa158015611b66573d6000803e3d6000fd5b505050506040513d601f19601f82011682018060405250810190611b8a9190615bb4565b611b949190615be7565b93505050506011805460ff60881b1916600160881b179055600a805460ff60a01b1916600160a01b179055949350505050565b600a54600160a01b900460ff16600114611bf35760405162461bcd60e51b8152600401610ad9906159db565b600a805460ff60a01b191690556011805460ff60881b191690556001600160a01b0383166000908152600e602052604090205460ff16611c5a5760405162461bcd60e51b8152602060048201526002602482015261125560f21b6044820152606401610ad9565b6001600160a01b0383166000818152600f60205260408082205490516370a0823160e01b815230600482015260ff90911692906370a0823190602401602060405180830381865afa158015611cb3573d6000803e3d6000fd5b505050506040513d601f19601f82011682018060405250810190611cd79190615bb4565b90506000611ce361413b565b9050600081611d0a5782611cfb600160601b88615b84565b611d059190615a52565b611d10565b600160601b5b905060008215611d7b57600d8581548110611d2d57611d2d615a3c565b906000526020600020906005020160040154611d47601290565b611d5290600a615b75565b611d60600160601b8a615b84565b611d6a9190615b84565b611d749190615a52565b9050611da1565b600160601b82611d8a60025490565b611d949190615b84565b611d9e9190615a52565b90505b6000611dac3361414c565b611dda57600c5461271090611dcb9062010000900461ffff1684615b84565b611dd59190615a52565b611ddd565b60005b905086611dea8284615be7565b1015611e1c5760405162461bcd60e51b81526020600482015260016024820152604d60f81b6044820152606401610ad9565b611e2f33611e2a8385615be7565b6141c0565b8015611e4857611e3f30826141c0565b611e488161427f565b600d5460005b81811015611f8c57600086611f0957600160601b86600d8481548110611e7657611e76615a3c565b60009182526020909120600590910201546040516370a0823160e01b81523060048201526001600160a01b03909116906370a0823190602401602060405180830381865afa158015611ecc573d6000803e3d6000fd5b505050506040513d601f19601f82011682018060405250810190611ef09190615bb4565b611efa9190615b84565b611f049190615a52565b611f40565b611f408c8c600d8581548110611f2157611f21615a3c565b60009182526020909120600590910201546001600160a01b0316612941565b9050611f79600d8381548110611f5857611f58615a3c565b60009182526020909120600590910201546001600160a01b031633836142c5565b5080611f8481615b9b565b915050611e4e565b50611f956143ec565b604080518a8152602081018590526001600160a01b038c169133917fad49529616fd9fe4b34e00ac3f98d5cc3531e1232a95f249113b23fdf13c7e85910160405180910390a350506011805460ff60881b1916600160881b1790555050600a805460ff60a01b1916600160a01b179055505050505050565b600a60009054906101000a90046001600160a01b03166001600160a01b031663f5996fe46040518163ffffffff1660e01b8152600401602060405180830381865afa158015612060573d6000803e3d6000fd5b505050506040513d601f19601f8201168201806040525081019061208491906159f6565b6001600160a01b0316336001600160a01b0316146120c85760405162461bcd60e51b81526020600482015260016024820152602960f91b6044820152606401610ad9565b610eae61447a565b600a54600160a01b900460ff166001146120fc5760405162461bcd60e51b8152600401610ad9906159db565b600a805460ff60a01b191690556001600160a01b0384166000908152600e602052604090205460ff166121555760405162461bcd60e51b81526020600482015260016024820152600b60fb1b6044820152606401610ad9565b600a5460408051633d665bf960e21b815290516000926001600160a01b03169163f5996fe49160048083019260209291908290030181865afa15801561219f573d6000803e3d6000fd5b505050506040513d601f19601f820116820180604052508101906121c391906159f6565b905060007f00000000000000000000000000000000000000000000000000000000000000006001600160a01b0316736b175474e89094c44da98b954eedeac495271d0f146122d0577f00000000000000000000000000000000000000000000000000000000000000006001600160a01b0316736b175474e89094c44da98b954eedeac495271d0f146122ca5773024ff47d552cb222b265d68c7aeb26e586d5229d6001600160a01b0316638da5cb5b6040518163ffffffff1660e01b8152600401602060405180830381865afa1580156122a1573d6000803e3d6000fd5b505050506040513d601f19601f820116820180604052508101906122c591906159f6565b6122d2565b816122d2565b305b9050612314736b175474e89094c44da98b954eedeac495271d0f33837f0000000000000000000000000000000000000000000000000000000000000000613ee1565b736b175474e89094c44da98b954eedeac495271d0e197f00000000000000000000000000000000000000000000000000000000000000006001600160a01b03160161242c57612398736b175474e89094c44da98b954eedeac495271d0f837f0000000000000000000000000000000000000000000000000000000000000000613f4c565b604051634bd68e6760e11b8152736b175474e89094c44da98b954eedeac495271d0f60048201527f000000000000000000000000000000000000000000000000000000000000000060248201526001600160a01b038316906397ad1cce90604401600060405180830381600087803b15801561241357600080fd5b505af1158015612427573d6000803e3d6000fd5b505050505b6040516370a0823160e01b81523060048201526000906001600160a01b038816906370a0823190602401602060405180830381865afa158015612473573d6000803e3d6000fd5b505050506040513d601f19601f820116820180604052508101906124979190615bb4565b90506124ad6001600160a01b038816898861410b565b604051633a62959560e21b81526001600160a01b0389169063e98a5654906124db9088908890600401615bfa565b600060405180830381600087803b1580156124f557600080fd5b505af1158015612509573d6000803e3d6000fd5b50506040516370a0823160e01b81523060048201528392506001600160a01b038a1691506370a0823190602401602060405180830381865afa158015612553573d6000803e3d6000fd5b505050506040513d601f19601f820116820180604052508101906125779190615bb4565b10156125aa5760405162461bcd60e51b8152602060048201526002602482015261464160f01b6044820152606401610ad9565b6001600160a01b03881633604080516001600160a01b038b81168252602082018b905292909216917f5a9eeaf8949838813289046091e8ea8a9196a2265ac24841464a2d27026a8549910160405180910390a35050600a805460ff60a01b1916600160a01b179055505050505050565b600a54600160a01b900460ff166001146126465760405162461bcd60e51b8152600401610ad9906159db565b600a805460ff60a01b191690556001600160a01b0381166000908152600e602052604090205460ff1615801561268557506001600160a01b0381163014155b6126b55760405162461bcd60e51b81526020600482015260016024820152605560f81b6044820152606401610ad9565b610c1c73024ff47d552cb222b265d68c7aeb26e586d5229d6001600160a01b0316638da5cb5b6040518163ffffffff1660e01b8152600401602060405180830381865afa15801561270a573d6000803e3d6000fd5b505050506040513d601f19601f8201168201806040525081019061272e91906159f6565b6040516370a0823160e01b81523060048201526001600160a01b038416906370a0823190602401602060405180830381865afa158015612772573d6000803e3d6000fd5b505050506040513d601f19601f820116820180604052508101906127969190615bb4565b6001600160a01b038416919061410b565b834211156127f75760405162461bcd60e51b815260206004820152601d60248201527f45524332305065726d69743a206578706972656420646561646c696e650000006044820152606401610ad9565b60007f6e71edae12b1b97f4d1f60370fef10105fa2faae0126114a169c64845d6126c98888886128268c61463d565b6040805160208101969096526001600160a01b0394851690860152929091166060840152608083015260a082015260c0810186905260e001604051602081830303815290604052805190602001209050600061288182614665565b9050600061289182878787614692565b9050896001600160a01b0316816001600160a01b0316146128f45760405162461bcd60e51b815260206004820152601e60248201527f45524332305065726d69743a20696e76616c6964207369676e617475726500006044820152606401610ad9565b6128ff8a8a8a612faf565b50505050505050505050565b6000610aa782613950565b6001600160a01b03918216600090815260016020908152604080832093909416825291909152205490565b6001600160a01b038084166000818152600f6020908152604080832054948616835280832054815163313ce56760e01b81529151939560ff90811695911693909263313ce56792600480820193918290030181865afa1580156129a8573d6000803e3d6000fd5b505050506040513d601f19601f820116820180604052508101906129cc9190615a74565b6129d790600a615b75565b600d83815481106129ea576129ea615a3c565b906000526020600020906005020160010154856001600160a01b031663313ce5676040518163ffffffff1660e01b8152600401602060405180830381865afa158015612a3a573d6000803e3d6000fd5b505050506040513d601f19601f82011682018060405250810190612a5e9190615a74565b612a6990600a615b75565b600d8481548110612a7c57612a7c615a3c565b90600052602060002090600502016001015488612a999190615b84565b612aa39190615b84565b612aad9190615a52565b612ab79190615a52565b9695505050505050565b600a54600160a01b900460ff16600114612aed5760405162461bcd60e51b8152600401610ad9906159db565b600a805460ff60a01b191690556011805460ff60881b191690556000612b12846146bc565b612b5057600c5461271090612b3390640100000000900461ffff1682615c29565b612b419061ffff1686615b84565b612b4b9190615a52565b612b52565b835b90506000612b5f60025490565b612b6d600160601b84615b84565b612b779190615a52565b9050612b8433308761314e565b612b8e3083613498565b612ba0612b9b8387615be7565b61427f565b600d5460005b81811015612cb0576000600d8281548110612bc357612bc3615a3c565b60009182526020909120600590910201546040516370a0823160e01b81523060048201526001600160a01b03909116906370a0823190602401602060405180830381865afa158015612c19573d6000803e3d6000fd5b505050506040513d601f19601f82011682018060405250810190612c3d9190615bb4565b90506000600160601b612c508684615b84565b612c5a9190615a52565b90508015612c9b57612c9b3382600d8681548110612c7a57612c7a615a3c565b60009182526020909120600590910201546001600160a01b0316919061410b565b50508080612ca890615b9b565b915050612ba6565b50612cb961447a565b60405186815233907fe4bf69c2fff7ace5eed72842e9abf52af2218a3a78cb83d7824f999dbfd75e719060200160405180910390a250506011805460ff60881b1916600160881b1790555050600a805460ff60a01b1916600160a01b1790555050565b600a54600160a01b900460ff16600114612d485760405162461bcd60e51b8152600401610ad9906159db565b600a805460ff60a01b191690556011805460ff60881b191690558315612d6e5783612de8565b6009546001600160a01b03166370a08231336040516001600160e01b031960e084901b1681526001600160a01b039091166004820152602401602060405180830381865afa158015612dc4573d6000803e3d6000fd5b505050506040513d601f19601f82011682018060405250810190612de89190615bb4565b935060008411612e1f5760405162461bcd60e51b8152602060048201526002602482015261131560f21b6044820152606401610ad9565b612e37336009546001600160a01b0316903087613ee1565b600954612e6e906001600160a01b03167f000000000000000000000000000000000000000000000000000000000000000086613f4c565b60408051635d5155ef60e11b81523060048201526001600160a01b037f0000000000000000000000000000000000000000000000000000000000000000811660248301526044820187905260648201869052608482018590523360a483015260c4820184905291517f00000000000000000000000000000000000000000000000000000000000000009092169163baa2abde9160e48082019260009290919082900301818387803b158015612f2257600080fd5b505af1158015612f36573d6000803e3d6000fd5b50505050612f413390565b6001600160a01b03167fdfdd120ded9b7afc0c23dd5310e93aaa3e1c3b9f75af9b805fab3030842439f285604051612f7b91815260200190565b60405180910390a250506011805460ff60881b1916600160881b1790555050600a805460ff60a01b1916600160a01b179055565b6001600160a01b0383166130115760405162461bcd60e51b8152602060048201526024808201527f45524332303a20617070726f76652066726f6d20746865207a65726f206164646044820152637265737360e01b6064820152608401610ad9565b6001600160a01b0382166130725760405162461bcd60e51b815260206004820152602260248201527f45524332303a20617070726f766520746f20746865207a65726f206164647265604482015261737360f01b6064820152608401610ad9565b6001600160a01b0383811660008181526001602090815260408083209487168084529482529182902085905590518481527f8c5be1e5ebec7d5bd14f71427d1e84f3dd0314c0f7b2291e5b200ac8c7c3b92591015b60405180910390a3505050565b60006130e08484612916565b90506000198114613148578181101561313b5760405162461bcd60e51b815260206004820152601d60248201527f45524332303a20696e73756666696369656e7420616c6c6f77616e63650000006044820152606401610ad9565b6131488484848403612faf565b50505050565b6001600160a01b03821660009081526010602052604090205460ff161561319c5760405162461bcd60e51b8152602060048201526002602482015261424b60f01b6044820152606401610ad9565b6009546000906001600160a01b0385811691161480156131ee57507f00000000000000000000000000000000000000000000000000000000000000006001600160a01b0316836001600160a01b031614155b6009546011549192506001600160a01b038581169116149060009060ff600160801b9091041615801561322d5750601154600160881b900460ff166001145b1561334d576009546001600160a01b0387811691161461324f5761324f61447a565b8280156132685750600c54600160301b900461ffff1615155b156132a057600c546127109061328990600160301b900461ffff1686615b84565b6132939190615a52565b90506132a0863083613d3d565b8180156132b95750600c54600160401b900461ffff1615155b156132f157600c54612710906132da90600160401b900461ffff1686615b84565b6132e49190615a52565b90506132f1863083613d3d565b821580156132fd575081155b80156133125750600b54600160a01b900460ff165b1561334d5761332361271085615a52565b9050801580156133335750600084115b61333d5780613340565b60015b905061334d863083613d3d565b6133568161427f565b61336586866118c98488615be7565b505050505050565b6000306001600160a01b037f0000000000000000000000000000000000000000000000000000000000000000161480156133c657507f000000000000000000000000000000000000000000000000000000000000000046145b156133f057507f000000000000000000000000000000000000000000000000000000000000000090565b610cf7604080517f8b73c3c69bb8fe3d512ecc4cf759cc79239f7b179b0ffacaa9a75d522b39400f60208201527f0000000000000000000000000000000000000000000000000000000000000000918101919091527f000000000000000000000000000000000000000000000000000000000000000060608201524660808201523060a082015260009060c00160405160208183030381529060405280519060200120905090565b6001600160a01b0382166134f85760405162461bcd60e51b815260206004820152602160248201527f45524332303a206275726e2066726f6d20746865207a65726f206164647265736044820152607360f81b6064820152608401610ad9565b6001600160a01b0382166000908152602081905260409020548181101561356c5760405162461bcd60e51b815260206004820152602260248201527f45524332303a206275726e20616d6f756e7420657863656564732062616c616e604482015261636560f01b6064820152608401610ad9565b6001600160a01b0383166000818152602081815260408083208686039055600280548790039055518581529192917fddf252ad1be2c89b69c2b068fc378daa952ba7f163c4a11628f55a4df523b3ef91016130c7565b505050565b601154600160901b900460ff16156136055760405162461bcd60e51b81526020600482015260016024820152604f60f81b6044820152606401610ad9565b6011805460ff60901b1916600160901b179055604051639f4f974560e01b81526000906001600160a01b037f00000000000000000000000000000000000000000000000000000000000000001690639f4f9745906136899030907f000000000000000000000000000000000000000000000000000000000000000090600401615bcd565b602060405180830381865afa1580156136a6573d6000803e3d6000fd5b505050506040513d601f19601f820116820180604052508101906136ca91906159f6565b90506001600160a01b03811661378e5760405163c4f3e9d760e01b81526001600160a01b037f0000000000000000000000000000000000000000000000000000000000000000169063c4f3e9d7906137489030907f000000000000000000000000000000000000000000000000000000000000000090600401615bcd565b6020604051808303816000875af1158015613767573d6000803e3d6000fd5b505050506040513d601f19601f8201168201806040525081019061378b91906159f6565b90505b600a54604051631e9b12ef60e01b81526001600160a01b03838116600483015290911690631e9b12ef90602401600060405180830381600087803b1580156137d557600080fd5b505af11580156137e9573d6000803e3d6000fd5b50505050600a60009054906101000a90046001600160a01b03166001600160a01b031663715018a66040518163ffffffff1660e01b8152600401600060405180830381600087803b15801561383d57600080fd5b505af1158015613851573d6000803e3d6000fd5b5050600980546001600160a01b0319166001600160a01b0385169081179091556040519081523392507fdc90fed0326ba91706deeac7eb34ac9f8b680734f9d782864dc29704d23bed6a9150602001610ded565b606060ff83146138bf576138b8836146e7565b9050610aa7565b8180546138cb906159a7565b80601f01602080910402602001604051908101604052809291908181526020018280546138f7906159a7565b80156139445780601f1061391957610100808354040283529160200191613944565b820191906000526020600020905b81548152906001019060200180831161392757829003601f168201915b50505050509050610aa7565b60007f00000000000000000000000000000000000000000000000000000000000000006001600160a01b0316826001600160a01b03160361399357610aa7614726565b604051639f4f974560e01b81526000906001600160a01b037f00000000000000000000000000000000000000000000000000000000000000001690639f4f974590613a049086907f000000000000000000000000000000000000000000000000000000000000000090600401615bcd565b602060405180830381865afa158015613a21573d6000803e3d6000fd5b505050506040513d601f19601f82011682018060405250810190613a4591906159f6565b90506000816001600160a01b0316630dfe16816040518163ffffffff1660e01b8152600401602060405180830381865afa158015613a87573d6000803e3d6000fd5b505050506040513d601f19601f82011682018060405250810190613aab91906159f6565b90506000816001600160a01b031663313ce5676040518163ffffffff1660e01b8152600401602060405180830381865afa158015613aed573d6000803e3d6000fd5b505050506040513d601f19601f82011682018060405250810190613b119190615a74565b90506000836001600160a01b031663d21220a76040518163ffffffff1660e01b8152600401602060405180830381865afa158015613b53573d6000803e3d6000fd5b505050506040513d601f19601f82011682018060405250810190613b7791906159f6565b6001600160a01b031663313ce5676040518163ffffffff1660e01b8152600401602060405180830381865afa158015613bb4573d6000803e3d6000fd5b505050506040513d601f19601f82011682018060405250810190613bd89190615a74565b9050600080856001600160a01b0316630902f1ac6040518163ffffffff1660e01b8152600401606060405180830381865afa158015613c1b573d6000803e3d6000fd5b505050506040513d601f19601f82011682018060405250810190613c3f9190615c67565b50915091506000613c4e614726565b90507f00000000000000000000000000000000000000000000000000000000000000006001600160a01b0316866001600160a01b031614613cdf57613c9484600a615b75565b6001600160701b038416613ca987600a615b75565b613cbc6001600160701b03861685615b84565b613cc69190615b84565b613cd09190615a52565b613cda9190615a52565b613d30565b613cea85600a615b75565b6001600160701b038316613cff86600a615b75565b613d126001600160701b03871685615b84565b613d1c9190615b84565b613d269190615a52565b613d309190615a52565b9998505050505050505050565b6001600160a01b038316613da15760405162461bcd60e51b815260206004820152602560248201527f45524332303a207472616e736665722066726f6d20746865207a65726f206164604482015264647265737360d81b6064820152608401610ad9565b6001600160a01b038216613e035760405162461bcd60e51b815260206004820152602360248201527f45524332303a207472616e7366657220746f20746865207a65726f206164647260448201526265737360e81b6064820152608401610ad9565b6001600160a01b03831660009081526020819052604090205481811015613e7b5760405162461bcd60e51b815260206004820152602660248201527f45524332303a207472616e7366657220616d6f756e7420657863656564732062604482015265616c616e636560d01b6064820152608401610ad9565b6001600160a01b03848116600081815260208181526040808320878703905593871680835291849020805487019055925185815290927fddf252ad1be2c89b69c2b068fc378daa952ba7f163c4a11628f55a4df523b3ef910160405180910390a3613148565b6040516001600160a01b03808516602483015283166044820152606481018290526131489085906323b872dd60e01b906084015b60408051601f198184030181529190526020810180516001600160e01b03166001600160e01b031990931692909217909152614ac9565b604051636eb1769f60e11b81526000906001600160a01b0385169063dd62ed3e90613f7d9030908790600401615bcd565b602060405180830381865afa158015613f9a573d6000803e3d6000fd5b505050506040513d601f19601f82011682018060405250810190613fbe9190615bb4565b90506131488463095ea7b360e01b85613fd78686615a29565b6040516001600160a01b0390921660248301526044820152606401613f15565b8015806140705750604051636eb1769f60e11b81526001600160a01b0384169063dd62ed3e9061402d9030908690600401615bcd565b602060405180830381865afa15801561404a573d6000803e3d6000fd5b505050506040513d601f19601f8201168201806040525081019061406e9190615bb4565b155b6140db5760405162461bcd60e51b815260206004820152603660248201527f5361666545524332303a20617070726f76652066726f6d206e6f6e2d7a65726f60448201527520746f206e6f6e2d7a65726f20616c6c6f77616e636560501b6064820152608401610ad9565b6040516001600160a01b0383166024820152604481018290526135c290849063095ea7b360e01b90606401613f15565b6040516001600160a01b0383166024820152604481018290526135c290849063a9059cbb60e01b90606401613f15565b600061414660025490565b15919050565b600061415661413b565b80610aa75750600b546001600160a01b038381169116148015614183575060115467ffffffffffffffff16155b8015610aa757506141b77f000000000000000000000000000000000000000000000000000000000000000062093a80615a29565b42111592915050565b6001600160a01b0382166142165760405162461bcd60e51b815260206004820152601f60248201527f45524332303a206d696e7420746f20746865207a65726f2061646472657373006044820152606401610ad9565b80600260008282546142289190615a29565b90915550506001600160a01b038216600081815260208181526040808320805486019055518481527fddf252ad1be2c89b69c2b068fc378daa952ba7f163c4a11628f55a4df523b3ef910160405180910390a35050565b8015806142905750600c5461ffff16155b156142985750565b600c546142c2903090612710906142b39061ffff1685615b84565b6142bd9190615a52565b613498565b50565b6040516370a0823160e01b81523060048201526000906001600160a01b038516906370a0823190602401602060405180830381865afa15801561430c573d6000803e3d6000fd5b505050506040513d601f19601f820116820180604052508101906143309190615bb4565b90506143476001600160a01b038516843085613ee1565b6143518282615a29565b6040516370a0823160e01b81523060048201526001600160a01b038616906370a0823190602401602060405180830381865afa158015614395573d6000803e3d6000fd5b505050506040513d601f19601f820116820180604052508101906143b99190615bb4565b10156131485760405162461bcd60e51b81526020600482015260026024820152612a2b60f11b6044820152606401610ad9565b601154600160901b900460ff166144295760405162461bcd60e51b81526020600482015260016024820152604960f81b6044820152606401610ad9565b60115467ffffffffffffffff161580156144565750600b546001600160a01b0316336001600160a01b0316145b15610eae576011805467ffffffffffffffff19164267ffffffffffffffff16179055565b60115460009061449d90601490600160401b900467ffffffffffffffff16615cac565b67ffffffffffffffff1642119050806144b35750565b30600090815260208190526040812054908190036144cf575050565b6009546001600160a01b03166000908152602081905260408120549060014614614504576144ff610fa083615a52565b614510565b6145106103e883615a52565b9050600061451f606484615a52565b90508184101580156145315750600083115b15614636576011805467ffffffffffffffff4216600160401b0270ffffffffffffffffff00000000000000001990911617600160801b1790556000818511614579578461457b565b815b600c54909150600090600160501b900461ffff16158015906145a75750600b546001600160a01b031615155b80156145ce5750600b546001600160a01b031660009081526010602052604090205460ff16155b1561461457600c54612710906145ef90600160501b900461ffff1684615b84565b6145f99190615a52565b600b549091506146149030906001600160a01b031683613d3d565b6146266146218284615be7565b614b9e565b50506011805460ff60801b191690555b5050505050565b6001600160a01b03811660009081526007602052604090208054600181018255905b50919050565b6000610aa761467261336d565b8360405161190160f01b8152600281019290925260228201526042902090565b60008060006146a38787878761500b565b915091506146b0816150cf565b5090505b949350505050565b600060646146c960025490565b6146d4906062615b84565b6146de9190615a52565b90911015919050565b606060006146f483615219565b604080516020808252818301909252919250600091906020820181803683375050509182525060208101929092525090565b6000807f00000000000000000000000000000000000000000000000000000000000000006001600160a01b0316639f4f9745736b175474e89094c44da98b954eedeac495271d0f7f00000000000000000000000000000000000000000000000000000000000000006040518363ffffffff1660e01b81526004016147ab929190615bcd565b602060405180830381865afa1580156147c8573d6000803e3d6000fd5b505050506040513d601f19601f820116820180604052508101906147ec91906159f6565b90506000816001600160a01b0316630dfe16816040518163ffffffff1660e01b8152600401602060405180830381865afa15801561482e573d6000803e3d6000fd5b505050506040513d601f19601f8201168201806040525081019061485291906159f6565b9050600080826001600160a01b031663313ce5676040518163ffffffff1660e01b8152600401602060405180830381865afa158015614895573d6000803e3d6000fd5b505050506040513d601f19601f820116820180604052508101906148b99190615a74565b846001600160a01b031663d21220a76040518163ffffffff1660e01b8152600401602060405180830381865afa1580156148f7573d6000803e3d6000fd5b505050506040513d601f19601f8201168201806040525081019061491b91906159f6565b6001600160a01b031663313ce5676040518163ffffffff1660e01b8152600401602060405180830381865afa158015614958573d6000803e3d6000fd5b505050506040513d601f19601f8201168201806040525081019061497c9190615a74565b91509150600080856001600160a01b0316630902f1ac6040518163ffffffff1660e01b8152600401606060405180830381865afa1580156149c1573d6000803e3d6000fd5b505050506040513d601f19601f820116820180604052508101906149e59190615c67565b5090925090506001600160a01b038516736b175474e89094c44da98b954eedeac495271d0f14614a6957614a1a83600a615b75565b6001600160701b038316614a2f86600a615b75565b614a466001600160701b038516600160601b615b84565b614a509190615b84565b614a5a9190615a52565b614a649190615a52565b614abe565b614a7484600a615b75565b6001600160701b038216614a8985600a615b75565b614aa06001600160701b038616600160601b615b84565b614aaa9190615b84565b614ab49190615a52565b614abe9190615a52565b965050505050505090565b6000614b1e826040518060400160405280602081526020017f5361666545524332303a206c6f772d6c6576656c2063616c6c206661696c6564815250856001600160a01b03166152419092919063ffffffff16565b9050805160001480614b3f575080806020019051810190614b3f9190615ccd565b6135c25760405162461bcd60e51b815260206004820152602a60248201527f5361666545524332303a204552433230206f7065726174696f6e20646964206e6044820152691bdd081cdd58d8d9595960b21b6064820152608401610ad9565b614bc9307f000000000000000000000000000000000000000000000000000000000000000083612faf565b600a5460408051633d665bf960e21b815290516000926001600160a01b03169163f5996fe49160048083019260209291908290030181865afa158015614c13573d6000803e3d6000fd5b505050506040513d601f19601f82011682018060405250810190614c3791906159f6565b6040516370a0823160e01b81526001600160a01b0380831660048301529192506000917f000000000000000000000000000000000000000000000000000000000000000016906370a0823190602401602060405180830381865afa158015614ca3573d6000803e3d6000fd5b505050506040513d601f19601f82011682018060405250810190614cc79190615bb4565b6040516383e4b89f60e01b81523060048201526001600160a01b037f000000000000000000000000000000000000000000000000000000000000000081166024830152604482018690526000606483015284811660848301529192507f0000000000000000000000000000000000000000000000000000000000000000909116906383e4b89f9060a4016020604051808303816000875af1158015614d70573d6000803e3d6000fd5b505050506040513d601f19601f82011682018060405250810190614d949190615bb4565b507f00000000000000000000000000000000000000000000000000000000000000006001600160a01b03167f00000000000000000000000000000000000000000000000000000000000000006001600160a01b031603614f17576040516370a0823160e01b81526001600160a01b03838116600483015260009183917f000000000000000000000000000000000000000000000000000000000000000016906370a0823190602401602060405180830381865afa158015614e59573d6000803e3d6000fd5b505050506040513d601f19601f82011682018060405250810190614e7d9190615bb4565b614e879190615be7565b9050801561314857604051633dc60e8360e01b81526001600160a01b037f00000000000000000000000000000000000000000000000000000000000000008116600483015260248201839052841690633dc60e8390604401600060405180830381600087803b158015614ef957600080fd5b505af1158015614f0d573d6000803e3d6000fd5b5050505050505050565b6040516370a0823160e01b81526001600160a01b0383811660048301526000917f0000000000000000000000000000000000000000000000000000000000000000909116906370a0823190602401602060405180830381865afa158015614f82573d6000803e3d6000fd5b505050506040513d601f19601f82011682018060405250810190614fa69190615bb4565b11156135c257604051633694313d60e01b8152600060048201526001600160a01b03831690633694313d90602401600060405180830381600087803b158015614fee57600080fd5b505af1158015615002573d6000803e3d6000fd5b50505050505050565b6000807f7fffffffffffffffffffffffffffffff5d576e7357a4501ddfe92f46681b20a083111561504257506000905060036150c6565b6040805160008082526020820180845289905260ff881692820192909252606081018690526080810185905260019060a0016020604051602081039080840390855afa158015615096573d6000803e3d6000fd5b5050604051601f1901519150506001600160a01b0381166150bf576000600192509250506150c6565b9150600090505b94509492505050565b60008160048111156150e3576150e3615509565b036150eb5750565b60018160048111156150ff576150ff615509565b0361514c5760405162461bcd60e51b815260206004820152601860248201527f45434453413a20696e76616c6964207369676e617475726500000000000000006044820152606401610ad9565b600281600481111561516057615160615509565b036151ad5760405162461bcd60e51b815260206004820152601f60248201527f45434453413a20696e76616c6964207369676e6174757265206c656e677468006044820152606401610ad9565b60038160048111156151c1576151c1615509565b036142c25760405162461bcd60e51b815260206004820152602260248201527f45434453413a20696e76616c6964207369676e6174757265202773272076616c604482015261756560f01b6064820152608401610ad9565b600060ff8216601f811115610aa757604051632cd44ac360e21b815260040160405180910390fd5b60606146b4848460008585600080866001600160a01b031685876040516152689190615cef565b60006040518083038185875af1925050503d80600081146152a5576040519150601f19603f3d011682016040523d82523d6000602084013e6152aa565b606091505b50915091506152bb878383876152c6565b979650505050505050565b6060831561533557825160000361532e576001600160a01b0385163b61532e5760405162461bcd60e51b815260206004820152601d60248201527f416464726573733a2063616c6c20746f206e6f6e2d636f6e74726163740000006044820152606401610ad9565b50816146b4565b6146b4838381511561534a5781518083602001fd5b8060405162461bcd60e51b8152600401610ad991906153b4565b60005b8381101561537f578181015183820152602001615367565b50506000910152565b600081518084526153a0816020860160208601615364565b601f01601f19169290920160200192915050565b6020815260006153c76020830184615388565b9392505050565b6001600160a01b03811681146142c257600080fd5b600080604083850312156153f657600080fd5b8235615401816153ce565b946020939093013593505050565b60008060006060848603121561542457600080fd5b833561542f816153ce565b9250602084013561543f816153ce565b929592945050506040919091013590565b602080825282518282018190526000919060409081850190868401855b828110156154bf57815180516001600160a01b03908116865287820151888701528682015187870152606080830151909116908601526080908101519085015260a0909301929085019060010161546d565b5091979650505050505050565b6000602082840312156154de57600080fd5b813561ffff811681146153c757600080fd5b60006020828403121561550257600080fd5b5035919050565b634e487b7160e01b600052602160045260246000fd5b602081016002831061554157634e487b7160e01b600052602160045260246000fd5b91905290565b60006020828403121561555957600080fd5b81356153c7816153ce565b60ff60f81b881681526000602060e08184015261558460e084018a615388565b8381036040850152615596818a615388565b606085018990526001600160a01b038816608086015260a0850187905284810360c0860152855180825283870192509083019060005b818110156155e8578351835292840192918401916001016155cc565b50909c9b505050505050505050505050565b6000806000806080858703121561561057600080fd5b5050823594602084013594506040840135936060013592509050565b60008060006060848603121561564157600080fd5b833561564c816153ce565b95602085013595506040909401359392505050565b60008060008060006080868803121561567957600080fd5b8535615684816153ce565b94506020860135615694816153ce565b935060408601359250606086013567ffffffffffffffff808211156156b857600080fd5b818801915088601f8301126156cc57600080fd5b8135818111156156db57600080fd5b8960208285010111156156ed57600080fd5b9699959850939650602001949392505050565b60ff811681146142c257600080fd5b600080600080600080600060e0888a03121561572a57600080fd5b8735615735816153ce565b96506020880135615745816153ce565b95506040880135945060608801359350608088013561576381615700565b9699959850939692959460a0840135945060c09093013592915050565b6000806040838503121561579357600080fd5b823561579e816153ce565b915060208301356157ae816153ce565b809150509250929050565b6000806000606084860312156157ce57600080fd5b83356157d9816153ce565b92506020840135915060408401356157f0816153ce565b809150509250925092565b634e487b7160e01b600052604160045260246000fd5b604051601f8201601f1916810167ffffffffffffffff8111828210171561583a5761583a6157fb565b604052919050565b600067ffffffffffffffff82111561585c5761585c6157fb565b5060051b60200190565b600082601f83011261587757600080fd5b8135602061588c61588783615842565b615811565b82815260059290921b840181019181810190868411156158ab57600080fd5b8286015b848110156158cf5780356158c281615700565b83529183019183016158af565b509695505050505050565b6000806000606084860312156158ef57600080fd5b8335925060208085013567ffffffffffffffff8082111561590f57600080fd5b818701915087601f83011261592357600080fd5b813561593161588782615842565b81815260059190911b8301840190848101908a83111561595057600080fd5b938501935b82851015615977578435615968816153ce565b82529385019390850190615955565b96505050604087013592508083111561598f57600080fd5b505061599d86828701615866565b9150509250925092565b600181811c908216806159bb57607f821691505b60208210810361465f57634e487b7160e01b600052602260045260246000fd5b6020808252600190820152601360fa1b604082015260600190565b600060208284031215615a0857600080fd5b81516153c7816153ce565b634e487b7160e01b600052601160045260246000fd5b80820180821115610aa757610aa7615a13565b634e487b7160e01b600052603260045260246000fd5b600082615a6f57634e487b7160e01b600052601260045260246000fd5b500490565b600060208284031215615a8657600080fd5b81516153c781615700565b600181815b80851115615acc578160001904821115615ab257615ab2615a13565b80851615615abf57918102915b93841c9390800290615a96565b509250929050565b600082615ae357506001610aa7565b81615af057506000610aa7565b8160018114615b065760028114615b1057615b2c565b6001915050610aa7565b60ff841115615b2157615b21615a13565b50506001821b610aa7565b5060208310610133831016604e8410600b8410161715615b4f575081810a610aa7565b615b598383615a91565b8060001904821115615b6d57615b6d615a13565b029392505050565b60006153c760ff841683615ad4565b8082028115828204841417610aa757610aa7615a13565b600060018201615bad57615bad615a13565b5060010190565b600060208284031215615bc657600080fd5b5051919050565b6001600160a01b0392831681529116602082015260400190565b81810381811115610aa757610aa7615a13565b60208152816020820152818360408301376000818301604090810191909152601f909201601f19160101919050565b61ffff828116828216039080821115615c4457615c44615a13565b5092915050565b80516001600160701b0381168114615c6257600080fd5b919050565b600080600060608486031215615c7c57600080fd5b615c8584615c4b565b9250615c9360208501615c4b565b9150604084015163ffffffff811681146157f057600080fd5b67ffffffffffffffff818116838216019080821115615c4457615c44615a13565b600060208284031215615cdf57600080fd5b815180151581146153c757600080fd5b60008251615d01818460208701615364565b919091019291505056fea26469706673582212206af4e8a093d2023bcf3f947ecc89642acfcfdae485503c115587ef2cb98d662464736f6c634300081300336101006040523480156200001257600080fd5b5060405162004751380380620047518339810160408190526200003591620003a0565b8888600362000045838262000521565b50600462000054828262000521565b505050620000716200006b6200024c60201b60201c565b62000250565b60008051602062004731833981519152604051620000c09060208082526014908201527f4245464f524520544f4b454e2052455741524453000000000000000000000000604082015260600190565b60405180910390a1600680546001600160a01b0319166001600160a01b038716179055620000eb3390565b6001600160a01b0390811660805282811660c052811660e0526040516000805160206200473183398151915290620001549060208082526014908201527f4245464f524520544f4b454e2052455741524453000000000000000000000000604082015260600190565b60405180910390a1838383836080518b308c6040516200017490620002a2565b6001600160a01b0398891681529688166020880152948716604087015292861660608601529085166080850152841660a0840152831660c083015290911660e082015261010001604051809103906000f080158015620001d8573d6000803e3d6000fd5b506001600160a01b031660a0526040516000805160206200473183398151915290620002359060208082526013908201527f414654455220544f4b454e205245574152445300000000000000000000000000604082015260600190565b60405180910390a1505050505050505050620005ed565b3390565b600580546001600160a01b038381166001600160a01b0319831681179093556040519116919082907f8be0079c531659141344cd1fd0a4f28419497f9722a3daafe3b4186f6b6457e090600090a35050565b6126e7806200204a83390190565b634e487b7160e01b600052604160045260246000fd5b600082601f830112620002d857600080fd5b81516001600160401b0380821115620002f557620002f5620002b0565b604051601f8301601f19908116603f01168101908282118183101715620003205762000320620002b0565b816040528381526020925086838588010111156200033d57600080fd5b600091505b8382101562000361578582018301518183018401529082019062000342565b600093810190920192909252949350505050565b6001600160a01b03811681146200038b57600080fd5b50565b80516200039b8162000375565b919050565b60008060008060008060008060006101208a8c031215620003c057600080fd5b89516001600160401b0380821115620003d857600080fd5b620003e68d838e01620002c6565b9a5060208c0151915080821115620003fd57600080fd5b506200040c8c828d01620002c6565b98505060408a01516200041f8162000375565b60608b0151909750620004328162000375565b95506200044260808b016200038e565b94506200045260a08b016200038e565b93506200046260c08b016200038e565b92506200047260e08b016200038e565b9150620004836101008b016200038e565b90509295985092959850929598565b600181811c90821680620004a757607f821691505b602082108103620004c857634e487b7160e01b600052602260045260246000fd5b50919050565b601f8211156200051c57600081815260208120601f850160051c81016020861015620004f75750805b601f850160051c820191505b81811015620005185782815560010162000503565b5050505b505050565b81516001600160401b038111156200053d576200053d620002b0565b62000555816200054e845462000492565b84620004ce565b602080601f8311600181146200058d5760008415620005745750858301515b600019600386901b1c1916600185901b17855562000518565b600085815260208120601f198616915b82811015620005be578886015182559484019460019091019084016200059d565b5085821015620005dd5787850151600019600388901b60f8161c191681555b5050505050600190811b01905550565b60805160a05160c05160e051611a076200064360003960006106bb015260006105cb0152600081816102b4015281816103d00152818161128201526113340152600081816102eb01526103420152611a076000f3fe608060405234801561001057600080fd5b506004361061018e5760003560e01c80638da5cb5b116100de578063adc9772e11610097578063dba802d911610071578063dba802d914610392578063dd62ed3e146103a5578063f2fde38b146103b8578063f5996fe4146103cb57600080fd5b8063adc9772e14610364578063c56e0ad814610377578063da0e1dab1461037f57600080fd5b80638da5cb5b146102d857806390eb3911146102e957806395d89b411461030f578063a457c2d714610317578063a9059cbb1461032a578063aa9aa1441461033d57600080fd5b8063313ce5671161014b57806370a082311161012557806370a0823114610256578063715018a61461027f57806372f702f3146102875780638bc6beb2146102b257600080fd5b8063313ce5671461022157806339509351146102305780635a8980801461024357600080fd5b806306fdde0314610193578063095ea7b3146101b157806318160ddd146101d45780631e9b12ef146101e657806323b872dd146101fb5780632e17de781461020e575b600080fd5b61019b6103f2565b6040516101a8919061161e565b60405180910390f35b6101c46101bf366004611666565b610484565b60405190151581526020016101a8565b6002545b6040519081526020016101a8565b6101f96101f4366004611692565b61049e565b005b6101c46102093660046116b6565b61050a565b6101f961021c3660046116f7565b61052e565b604051601281526020016101a8565b6101c461023e366004611666565b610587565b6101f9610251366004611710565b6105a9565b6101d8610264366004611692565b6001600160a01b031660009081526020819052604090205490565b6101f961088f565b60075461029a906001600160a01b031681565b6040516001600160a01b0390911681526020016101a8565b7f000000000000000000000000000000000000000000000000000000000000000061029a565b6005546001600160a01b031661029a565b7f000000000000000000000000000000000000000000000000000000000000000061029a565b61019b6108a3565b6101c4610325366004611666565b6108b2565b6101c4610338366004611666565b61092d565b61029a7f000000000000000000000000000000000000000000000000000000000000000081565b6101f9610372366004611666565b61093b565b6101f9610a2f565b60065461029a906001600160a01b031681565b6101f96103a0366004611692565b610a88565b6101d86103b3366004611710565b610af1565b6101f96103c6366004611692565b610b1c565b61029a7f000000000000000000000000000000000000000000000000000000000000000081565b60606003805461040190611749565b80601f016020809104026020016040519081016040528092919081815260200182805461042d90611749565b801561047a5780601f1061044f5761010080835404028352916020019161047a565b820191906000526020600020905b81548152906001019060200180831161045d57829003601f168201915b5050505050905090565b600033610492818585610b95565b60019150505b92915050565b6104a6610cb9565b6007546001600160a01b0316156104e85760405162461bcd60e51b81526020600482015260016024820152605360f81b60448201526064015b60405180910390fd5b600780546001600160a01b0319166001600160a01b0392909216919091179055565b600033610518858285610d13565b610523858585610d8d565b506001949350505050565b6105383382610f37565b61054f336007546001600160a01b03169083611075565b60405181815233907f85082129d87b2fe11527cb1b3b7a520aeb5aa6913f88a3d8757fe40d1db02fdd9060200160405180910390a250565b60003361049281858561059a8383610af1565b6105a49190611799565b610b95565b6040516001600160a01b038381166024830152828116604483015260009182917f0000000000000000000000000000000000000000000000000000000000000000169060640160408051601f198184030181529181526020820180516001600160e01b031663a20e9a5560e01b1790525161062491906117ac565b600060405180830381855af49150503d806000811461065f576040519150601f19603f3d011682016040523d82523d6000602084013e610664565b606091505b50915091508161069c5760405162461bcd60e51b8152602060048201526003602482015262554e5360e81b60448201526064016104df565b600080828060200190518101906106b3919061189e565b9150915060007f00000000000000000000000000000000000000000000000000000000000000006001600160a01b0316638da5cb5b6040518163ffffffff1660e01b8152600401602060405180830381865afa158015610717573d6000803e3d6000fd5b505050506040513d601f19601f8201168201806040525081019061073b9190611963565b905060005b83518110156108855760006001600160a01b031684828151811061076657610766611980565b60200260200101516001600160a01b031603610823576000826001600160a01b031684838151811061079a5761079a611980565b602002602001015160405160006040518083038185875af1925050503d80600081146107e2576040519150601f19603f3d011682016040523d82523d6000602084013e6107e7565b606091505b505090508061081d5760405162461bcd60e51b8152602060048201526002602482015261455360f01b60448201526064016104df565b50610873565b6108738284838151811061083957610839611980565b602002602001015186848151811061085357610853611980565b60200260200101516001600160a01b03166110759092919063ffffffff16565b8061087d81611996565b915050610740565b5050505050505050565b610897610cb9565b6108a160006110d8565b565b60606004805461040190611749565b600033816108c08286610af1565b9050838110156109205760405162461bcd60e51b815260206004820152602560248201527f45524332303a2064656372656173656420616c6c6f77616e63652062656c6f77604482015264207a65726f60d81b60648201526084016104df565b6105238286868403610b95565b600033610492818585610d8d565b6007546001600160a01b03166109775760405162461bcd60e51b81526020600482015260016024820152604960f81b60448201526064016104df565b6006546001600160a01b0316156109c9576006546001600160a01b038381169116146109c95760405162461bcd60e51b81526020600482015260016024820152605560f81b60448201526064016104df565b6109d3828261112a565b6109eb336007546001600160a01b03169030846111f5565b6040518181526001600160a01b0383169033907f99039fcf0a98f484616c5196ee8b2ecfa971babf0b519848289ea4db381f85f79060200160405180910390a35050565b6006546001600160a01b0316336001600160a01b031614610a765760405162461bcd60e51b81526020600482015260016024820152602960f91b60448201526064016104df565b600680546001600160a01b0319169055565b6006546001600160a01b0316336001600160a01b031614610acf5760405162461bcd60e51b81526020600482015260016024820152602960f91b60448201526064016104df565b600680546001600160a01b0319166001600160a01b0392909216919091179055565b6001600160a01b03918216600090815260016020908152604080832093909416825291909152205490565b610b24610cb9565b6001600160a01b038116610b895760405162461bcd60e51b815260206004820152602660248201527f4f776e61626c653a206e6577206f776e657220697320746865207a65726f206160448201526564647265737360d01b60648201526084016104df565b610b92816110d8565b50565b6001600160a01b038316610bf75760405162461bcd60e51b8152602060048201526024808201527f45524332303a20617070726f76652066726f6d20746865207a65726f206164646044820152637265737360e01b60648201526084016104df565b6001600160a01b038216610c585760405162461bcd60e51b815260206004820152602260248201527f45524332303a20617070726f766520746f20746865207a65726f206164647265604482015261737360f01b60648201526084016104df565b6001600160a01b0383811660008181526001602090815260408083209487168084529482529182902085905590518481527f8c5be1e5ebec7d5bd14f71427d1e84f3dd0314c0f7b2291e5b200ac8c7c3b925910160405180910390a3505050565b6005546001600160a01b031633146108a15760405162461bcd60e51b815260206004820181905260248201527f4f776e61626c653a2063616c6c6572206973206e6f7420746865206f776e657260448201526064016104df565b6000610d1f8484610af1565b90506000198114610d875781811015610d7a5760405162461bcd60e51b815260206004820152601d60248201527f45524332303a20696e73756666696369656e7420616c6c6f77616e636500000060448201526064016104df565b610d878484848403610b95565b50505050565b6001600160a01b038316610df15760405162461bcd60e51b815260206004820152602560248201527f45524332303a207472616e736665722066726f6d20746865207a65726f206164604482015264647265737360d81b60648201526084016104df565b6001600160a01b038216610e535760405162461bcd60e51b815260206004820152602360248201527f45524332303a207472616e7366657220746f20746865207a65726f206164647260448201526265737360e81b60648201526084016104df565b6001600160a01b03831660009081526020819052604090205481811015610ecb5760405162461bcd60e51b815260206004820152602660248201527f45524332303a207472616e7366657220616d6f756e7420657863656564732062604482015265616c616e636560d01b60648201526084016104df565b6001600160a01b03848116600081815260208181526040808320878703905593871680835291849020805487019055925185815290927fddf252ad1be2c89b69c2b068fc378daa952ba7f163c4a11628f55a4df523b3ef910160405180910390a3610d8784848461122d565b6001600160a01b038216610f975760405162461bcd60e51b815260206004820152602160248201527f45524332303a206275726e2066726f6d20746865207a65726f206164647265736044820152607360f81b60648201526084016104df565b6001600160a01b0382166000908152602081905260409020548181101561100b5760405162461bcd60e51b815260206004820152602260248201527f45524332303a206275726e20616d6f756e7420657863656564732062616c616e604482015261636560f01b60648201526084016104df565b6001600160a01b0383166000818152602081815260408083208686039055600280548790039055518581529192917fddf252ad1be2c89b69c2b068fc378daa952ba7f163c4a11628f55a4df523b3ef910160405180910390a36110708360008461122d565b505050565b6040516001600160a01b03831660248201526044810182905261107090849063a9059cbb60e01b906064015b60408051601f198184030181529190526020810180516001600160e01b03166001600160e01b031990931692909217909152611395565b600580546001600160a01b038381166001600160a01b0319831681179093556040519116919082907f8be0079c531659141344cd1fd0a4f28419497f9722a3daafe3b4186f6b6457e090600090a35050565b6001600160a01b0382166111805760405162461bcd60e51b815260206004820152601f60248201527f45524332303a206d696e7420746f20746865207a65726f20616464726573730060448201526064016104df565b80600260008282546111929190611799565b90915550506001600160a01b038216600081815260208181526040808320805486019055518481527fddf252ad1be2c89b69c2b068fc378daa952ba7f163c4a11628f55a4df523b3ef910160405180910390a36111f16000838361122d565b5050565b6040516001600160a01b0380851660248301528316604482015260648101829052610d879085906323b872dd60e01b906084016110a1565b6001600160a01b0383161580159061125057506001600160a01b03831661dead14155b156112df5760405163d6460b4b60e01b81526001600160a01b03848116600483015260248201839052600160448301527f0000000000000000000000000000000000000000000000000000000000000000169063d6460b4b90606401600060405180830381600087803b1580156112c657600080fd5b505af11580156112da573d6000803e3d6000fd5b505050505b6001600160a01b0382161580159061130257506001600160a01b03821661dead14155b156110705760405163d6460b4b60e01b81526001600160a01b03838116600483015260248201839052600060448301527f0000000000000000000000000000000000000000000000000000000000000000169063d6460b4b90606401600060405180830381600087803b15801561137857600080fd5b505af115801561138c573d6000803e3d6000fd5b50505050505050565b60006113ea826040518060400160405280602081526020017f5361666545524332303a206c6f772d6c6576656c2063616c6c206661696c6564815250856001600160a01b031661146a9092919063ffffffff16565b905080516000148061140b57508080602001905181019061140b91906119af565b6110705760405162461bcd60e51b815260206004820152602a60248201527f5361666545524332303a204552433230206f7065726174696f6e20646964206e6044820152691bdd081cdd58d8d9595960b21b60648201526084016104df565b60606114798484600085611481565b949350505050565b6060824710156114e25760405162461bcd60e51b815260206004820152602660248201527f416464726573733a20696e73756666696369656e742062616c616e636520666f6044820152651c8818d85b1b60d21b60648201526084016104df565b600080866001600160a01b031685876040516114fe91906117ac565b60006040518083038185875af1925050503d806000811461153b576040519150601f19603f3d011682016040523d82523d6000602084013e611540565b606091505b50915091506115518783838761155c565b979650505050505050565b606083156115cb5782516000036115c4576001600160a01b0385163b6115c45760405162461bcd60e51b815260206004820152601d60248201527f416464726573733a2063616c6c20746f206e6f6e2d636f6e747261637400000060448201526064016104df565b5081611479565b61147983838151156115e05781518083602001fd5b8060405162461bcd60e51b81526004016104df919061161e565b60005b838110156116155781810151838201526020016115fd565b50506000910152565b602081526000825180602084015261163d8160408501602087016115fa565b601f01601f19169190910160400192915050565b6001600160a01b0381168114610b9257600080fd5b6000806040838503121561167957600080fd5b823561168481611651565b946020939093013593505050565b6000602082840312156116a457600080fd5b81356116af81611651565b9392505050565b6000806000606084860312156116cb57600080fd5b83356116d681611651565b925060208401356116e681611651565b929592945050506040919091013590565b60006020828403121561170957600080fd5b5035919050565b6000806040838503121561172357600080fd5b823561172e81611651565b9150602083013561173e81611651565b809150509250929050565b600181811c9082168061175d57607f821691505b60208210810361177d57634e487b7160e01b600052602260045260246000fd5b50919050565b634e487b7160e01b600052601160045260246000fd5b8082018082111561049857610498611783565b600082516117be8184602087016115fa565b9190910192915050565b634e487b7160e01b600052604160045260246000fd5b604051601f8201601f1916810167ffffffffffffffff81118282101715611807576118076117c8565b604052919050565b600067ffffffffffffffff821115611829576118296117c8565b5060051b60200190565b600082601f83011261184457600080fd5b815160206118596118548361180f565b6117de565b82815260059290921b8401810191818101908684111561187857600080fd5b8286015b84811015611893578051835291830191830161187c565b509695505050505050565b600080604083850312156118b157600080fd5b825167ffffffffffffffff808211156118c957600080fd5b818501915085601f8301126118dd57600080fd5b815160206118ed6118548361180f565b82815260059290921b8401810191818101908984111561190c57600080fd5b948201945b8386101561193357855161192481611651565b82529482019490820190611911565b9188015191965090935050508082111561194c57600080fd5b5061195985828601611833565b9150509250929050565b60006020828403121561197557600080fd5b81516116af81611651565b634e487b7160e01b600052603260045260246000fd5b6000600182016119a8576119a8611783565b5060010190565b6000602082840312156119c157600080fd5b815180151581146116af57600080fdfea2646970667358221220eca58f626496f6eea83739d19905caede731fafe326595491a3ec3aad6d85f8f64736f6c634300081300336101806040523480156200001257600080fd5b50604051620026e7380380620026e78339810160408190526200003591620000d9565b7f7cdb51e9dbbc205231228146c3246e7f914aa6d4a33170e43ecc8e3593481d1a6040516200007b906020808252600390820152622baa2360e91b604082015260600190565b60405180910390a16001600160a01b0397881660c05295871660e05293861661010052918516610120528416608052831660a05282166101405216610160526200019a565b6001600160a01b0381168114620000d657600080fd5b50565b600080600080600080600080610100898b031215620000f757600080fd5b88516200010481620000c0565b60208a01519098506200011781620000c0565b60408a01519097506200012a81620000c0565b60608a01519096506200013d81620000c0565b60808a01519095506200015081620000c0565b60a08a01519094506200016381620000c0565b60c08a01519093506200017681620000c0565b60e08a01519092506200018981620000c0565b809150509295985092959890939650565b60805160a05160c05160e05161010051610120516101405161016051612400620002e7600039600081816101e6015281816102970152818161043901528181610492015281816104fa01528181610b9d01528181610cb001528181610ef5015281816118e60152818161195d01528181611b7d01528181611ea40152611f12015260008181610167015261096401526000818161067e0152818161071001528181610e2b0152611101015260008181610552015281816105e701528181610c3901528181610c680152610dbd01526000611bd5015260008181610a6a01528181611503015261199d0152600081816102c10152818161032a0152818161037201528181610463015281816104b3015281816104d90152818161078101528181610c1701528181610c8f01528181610d9b0152610eb501526000818161080a0152611c4201526124006000f3fe608060405234801561001057600080fd5b50600436106100ea5760003560e01c8063cc85bd161161008c578063d279c19111610066578063d279c19114610208578063d6460b4b1461021b578063e70b9e271461022e578063f2c03c581461027557600080fd5b8063cc85bd16146101a1578063ce7c2ac2146101c1578063d1af0c7d146101e157600080fd5b806386989038116100c857806386989038146101335780638e79fd9a1461013c57806397ad1cce1461014f578063bde308181461016257600080fd5b80633694313d146100ef5780633a98ef39146101045780633dc60e8314610120575b600080fd5b6101026100fd366004612149565b610295565b005b61010d60005481565b6040519081526020015b60405180910390f35b61010261012e366004612177565b610807565b61010d60015481565b61010d61014a3660046121a3565b610879565b61010261015d366004612177565b610914565b6101897f000000000000000000000000000000000000000000000000000000000000000081565b6040516001600160a01b039091168152602001610117565b61010d6101af3660046121dc565b60066020526000908152604090205481565b61010d6101cf3660046121dc565b60026020526000908152604090205481565b6101897f000000000000000000000000000000000000000000000000000000000000000081565b6101026102163660046121dc565b610921565b610102610229366004612207565b610961565b61026061023c3660046121a3565b60036020908152600092835260408084209091529082529020805460019091015482565b60408051928352602083019190915201610117565b61010d6102833660046121dc565b60076020526000908152604090205481565b7f00000000000000000000000000000000000000000000000000000000000000006001600160a01b03167f00000000000000000000000000000000000000000000000000000000000000006001600160a01b03160361031f5760405162461bcd60e51b81526020600482015260016024820152602960f91b60448201526064015b60405180910390fd5b801561035a5761035a7f00000000000000000000000000000000000000000000000000000000000000006001600160a01b03163330846109d8565b6040516370a0823160e01b81523060048201526000907f00000000000000000000000000000000000000000000000000000000000000006001600160a01b0316906370a0823190602401602060405180830381865afa1580156103c1573d6000803e3d6000fd5b505050506040513d601f19601f820116820180604052508101906103e59190612249565b90506000811161041b5760405162461bcd60e51b81526020600482015260016024820152604160f81b6044820152606401610316565b600061042682610a49565b90506104328183612278565b91506000807f00000000000000000000000000000000000000000000000000000000000000006001600160a01b03167f00000000000000000000000000000000000000000000000000000000000000006001600160a01b0316106104d7577f00000000000000000000000000000000000000000000000000000000000000007f000000000000000000000000000000000000000000000000000000000000000061051a565b7f00000000000000000000000000000000000000000000000000000000000000007f00000000000000000000000000000000000000000000000000000000000000005b60405163e3ddd77960e01b81526001600160a01b038084166004830152808316602483015261271060448301529294509092506000917f0000000000000000000000000000000000000000000000000000000000000000169063e3ddd77990606401602060405180830381865afa9250505080156105b5575060408051601f3d908101601f191682019092526105b29181019061228b565b60015b61065957604051630a8e060f60e01b81526001600160a01b038481166004830152838116602483015260c860448301527f00000000000000000000000000000000000000000000000000000000000000001690630a8e060f90606401602060405180830381865afa15801561062e573d6000803e3d6000fd5b505050506040513d601f19601f82011682018060405250810190610652919061228b565b905061065c565b90505b604051637fb4f79d60e01b81526001600160a01b0382811660048301526000917f000000000000000000000000000000000000000000000000000000000000000090911690637fb4f79d90602401602060405180830381865afa1580156106c7573d6000803e3d6000fd5b505050506040513d601f19601f820116820180604052508101906106eb919061228b565b60405163352fc4cd60e21b81526001600160a01b0380831660048301529192506000917f0000000000000000000000000000000000000000000000000000000000000000169063d4bf133490602401602060405180830381865afa158015610757573d6000803e3d6000fd5b505050506040513d601f19601f8201168201806040525081019061077b9190612249565b905060007f00000000000000000000000000000000000000000000000000000000000000006001600160a01b0316866001600160a01b0316146107d657816107c7600160601b8a6122a8565b6107d191906122bf565b6107ef565b600160601b6107e589846122a8565b6107ef91906122bf565b90506107fc888289610b66565b505050505050505050565b337f00000000000000000000000000000000000000000000000000000000000000006001600160a01b0316146108685760405162461bcd60e51b815260040161031690602080825260049082015263082aaa8960e31b604082015260600190565b6108753383836000610f7b565b5050565b6001600160a01b03811660009081526002602052604081205481036108a05750600061090e565b6001600160a01b0382166000908152600260205260408120546108c49085906111b1565b6001600160a01b038086166000908152600360209081526040808320938816835292905220549091508082116108ff5760009250505061090e565b6109098183612278565b925050505b92915050565b6108753383836001610f7b565b61092a816111e5565b6040516001600160a01b038216907f63e32091e4445d16e29c33a6b264577c2d86694021aa4e6f4dd590048f5792e890600090a250565b337f00000000000000000000000000000000000000000000000000000000000000006001600160a01b0316146109c85760405162461bcd60e51b815260206004820152600c60248201526b15539055551213d49256915160a21b6044820152606401610316565b6109d3838383611382565b505050565b6040516001600160a01b0380851660248301528316604482015260648101829052610a439085906323b872dd60e01b906084015b60408051601f198184030181529190526020810180516001600160e01b03166001600160e01b031990931692909217909152611427565b50505050565b600080610a546114fc565b50905080600003610a685750600092915050565b7f00000000000000000000000000000000000000000000000000000000000000006001600160a01b0316631ad8b03b6040518163ffffffff1660e01b8152600401602060405180830381865afa158015610ac6573d6000803e3d6000fd5b505050506040513d601f19601f82011682018060405250810190610aea919061228b565b6001600160a01b0316633c9a07006040518163ffffffff1660e01b8152600401602060405180830381865afa158015610b27573d6000803e3d6000fd5b505050506040513d601f19601f82011682018060405250810190610b4b9190612249565b610b5582856122a8565b610b5f91906122bf565b9392505050565b600060045411610b765782610b7a565b6004545b6040516370a0823160e01b81523060048201529093506000906001600160a01b037f000000000000000000000000000000000000000000000000000000000000000016906370a0823190602401602060405180830381865afa158015610be4573d6000803e3d6000fd5b505050506040513d601f19601f82011682018060405250810190610c089190612249565b9050610c5e6001600160a01b037f0000000000000000000000000000000000000000000000000000000000000000167f000000000000000000000000000000000000000000000000000000000000000086611662565b6001600160a01b037f000000000000000000000000000000000000000000000000000000000000000016638d5752d67f00000000000000000000000000000000000000000000000000000000000000007f0000000000000000000000000000000000000000000000000000000000000000612710886103e8610ce1601482612278565b610ceb908b6122a8565b610cf591906122bf565b6040516001600160e01b031960e088901b1681526001600160a01b03958616600482015294909316602485015262ffffff9091166044840152606483015260848201523060a482015260c4016020604051808303816000875af1925050508015610d7c575060408051601f3d908101601f19168201909252610d7991810190612249565b60015b610e1a57610d8b6002856122bf565b600455610de26001600160a01b037f0000000000000000000000000000000000000000000000000000000000000000167f00000000000000000000000000000000000000000000000000000000000000008661170f565b6040518481527fbeb9a4acf58a9a0744ebebbcf02cc2dc98c88f3fe6678767e33a0840dd892c009060200160405180910390a1610a43565b5060006004558115610edc57610edc7f00000000000000000000000000000000000000000000000000000000000000006001600160a01b0316638da5cb5b6040518163ffffffff1660e01b8152600401602060405180830381865afa158015610e87573d6000803e3d6000fd5b505050506040513d601f19601f82011682018060405250810190610eab919061228b565b6001600160a01b037f0000000000000000000000000000000000000000000000000000000000000000169084611818565b6040516370a0823160e01b8152306004820152610a43907f00000000000000000000000000000000000000000000000000000000000000009083906001600160a01b038316906370a0823190602401602060405180830381865afa158015610f48573d6000803e3d6000fd5b505050506040513d601f19601f82011682018060405250810190610f6c9190612249565b610f769190612278565b611848565b60008211610faf5760405162461bcd60e51b81526020600482015260016024820152604160f81b6044820152606401610316565b610fb883611b79565b610fe85760405162461bcd60e51b81526020600482015260016024820152602b60f91b6044820152606401610316565b8181156110e9576040516370a0823160e01b81523060048201526000906001600160a01b038616906370a0823190602401602060405180830381865afa158015611036573d6000803e3d6000fd5b505050506040513d601f19601f8201168201806040525081019061105a9190612249565b90506110716001600160a01b0386168730856109d8565b6040516370a0823160e01b815230600482015281906001600160a01b038716906370a0823190602401602060405180830381865afa1580156110b7573d6000803e3d6000fd5b505050506040513d601f19601f820116820180604052508101906110db9190612249565b6110e59190612278565b9150505b60006110f482610a49565b9050801561119f576111927f00000000000000000000000000000000000000000000000000000000000000006001600160a01b0316638da5cb5b6040518163ffffffff1660e01b8152600401602060405180830381865afa15801561115d573d6000803e3d6000fd5b505050506040513d601f19601f82011682018060405250810190611181919061228b565b6001600160a01b0387169083611818565b61119c8183612278565b91505b6111a98583611848565b505050505050565b6001600160a01b0382166000908152600560205260408120546ec097ce7bc90715b34b9f100000000090610b5590846122a8565b6001600160a01b03811660009081526002602052604081205490036112075750565b60005b60085481101561087557600060088281548110611229576112296122e1565b60009182526020822001546001600160a01b031691506112498285610879565b6001600160a01b0380841660009081526003602090815260408083209389168352929052908120600101805492935083929091906112889084906122f7565b90915550506001600160a01b0384166000908152600260205260409020546112b19083906111b1565b6001600160a01b03808416600090815260036020908152604080832093891683529290522055801561136d576001600160a01b038216600090815260066020526040812080548392906113059084906122f7565b9091555061131f90506001600160a01b0383168583611818565b816001600160a01b0316846001600160a01b03167f4fa9693cae526341d334e2862ca2413b2e503f1266255f9e0869fb36e6d89b178360405161136491815260200190565b60405180910390a35b5050808061137a9061230a565b91505061120a565b61138a611c40565b80156113e25761139a8383611caf565b826001600160a01b03167fae0577e1c96b26fbc0b9df702431f5470979d001d24f136eded791b8b6521d6f836040516113d591815260200190565b60405180910390a2505050565b6113ec8383611da9565b826001600160a01b03167fba8f3777cf908803bf1f3dd58e7f4b7d3de4dbe3c234c4ccab0975d98f7cd388836040516113d591815260200190565b600061147c826040518060400160405280602081526020017f5361666545524332303a206c6f772d6c6576656c2063616c6c206661696c6564815250856001600160a01b0316611e779092919063ffffffff16565b905080516000148061149d57508080602001905181019061149d9190612323565b6109d35760405162461bcd60e51b815260206004820152602a60248201527f5361666545524332303a204552433230206f7065726174696f6e20646964206e6044820152691bdd081cdd58d8d9595960b21b6064820152608401610316565b60008060007f00000000000000000000000000000000000000000000000000000000000000006001600160a01b0316631ad8b03b6040518163ffffffff1660e01b8152600401602060405180830381865afa15801561155f573d6000803e3d6000fd5b505050506040513d601f19601f82011682018060405250810190611583919061228b565b90506001600160a01b0381161561165d57806001600160a01b031663676011556040518163ffffffff1660e01b8152600401602060405180830381865afa1580156115d2573d6000803e3d6000fd5b505050506040513d601f19601f820116820180604052508101906115f69190612249565b9250806001600160a01b0316630389ed176040518163ffffffff1660e01b8152600401602060405180830381865afa158015611636573d6000803e3d6000fd5b505050506040513d601f19601f8201168201806040525081019061165a9190612249565b91505b509091565b604051636eb1769f60e11b81523060048201526001600160a01b0383811660248301526000919085169063dd62ed3e90604401602060405180830381865afa1580156116b2573d6000803e3d6000fd5b505050506040513d601f19601f820116820180604052508101906116d69190612249565b9050610a438463095ea7b360e01b856116ef86866122f7565b6040516001600160a01b0390921660248301526044820152606401610a0c565b604051636eb1769f60e11b81523060048201526001600160a01b0383811660248301526000919085169063dd62ed3e90604401602060405180830381865afa15801561175f573d6000803e3d6000fd5b505050506040513d601f19601f820116820180604052508101906117839190612249565b9050818110156117e75760405162461bcd60e51b815260206004820152602960248201527f5361666545524332303a2064656372656173656420616c6c6f77616e63652062604482015268656c6f77207a65726f60b81b6064820152608401610316565b6040516001600160a01b03841660248201528282036044820152610a4390859063095ea7b360e01b90606401610a0c565b6040516001600160a01b0383166024820152604481018290526109d390849063a9059cbb60e01b90606401610a0c565b6001600160a01b03821660009081526009602052604090205460ff166118ce576001600160a01b0382166000818152600960205260408120805460ff191660019081179091556008805491820181559091527ff3f7a9fe364faab93b216da50a3214154f22a0a2b415b23a84c8169e8b636ee30180546001600160a01b03191690911790555b806000036118da575050565b600054600003611952577f00000000000000000000000000000000000000000000000000000000000000006001600160a01b0316826001600160a01b0316146119495760405162461bcd60e51b81526020600482015260016024820152602960f91b6044820152606401610316565b61087581611e8e565b806001600160a01b037f0000000000000000000000000000000000000000000000000000000000000000811690841603611ab45760006119906114fc565b9150508015611ab25760007f00000000000000000000000000000000000000000000000000000000000000006001600160a01b0316631ad8b03b6040518163ffffffff1660e01b8152600401602060405180830381865afa1580156119f9573d6000803e3d6000fd5b505050506040513d601f19601f82011682018060405250810190611a1d919061228b565b6001600160a01b0316633c9a07006040518163ffffffff1660e01b8152600401602060405180830381865afa158015611a5a573d6000803e3d6000fd5b505050506040513d601f19601f82011682018060405250810190611a7e9190612249565b611a8883866122a8565b611a9291906122bf565b90508015611ab057611aa381611e8e565b611aad8184612278565b92505b505b505b6001600160a01b03831660009081526007602052604081208054839290611adc9084906122f7565b9091555050600054611afd826ec097ce7bc90715b34b9f10000000006122a8565b611b0791906122bf565b6001600160a01b03841660009081526005602052604081208054909190611b2f9084906122f7565b90915550506040518181526001600160a01b0384169033907f6f1ecfed9dbd8c39701eb5288ad020f77ec8a5b2f93133e85482bf66cb877a309060200160405180910390a3505050565b60007f00000000000000000000000000000000000000000000000000000000000000006001600160a01b0316826001600160a01b0316148061090e5750604051634d8c928d60e11b81526001600160a01b0383811660048301527f00000000000000000000000000000000000000000000000000000000000000001690639b19251a90602401602060405180830381865afa158015611c1c573d6000803e3d6000fd5b505050506040513d601f19601f8201168201806040525081019061090e9190612323565b7f00000000000000000000000000000000000000000000000000000000000000006001600160a01b031663bb4630276040518163ffffffff1660e01b8152600401600060405180830381600087803b158015611c9b57600080fd5b505af1158015610a43573d6000803e3d6000fd5b6001600160a01b03821660009081526002602052604090205415801590611cee57506001600160a01b0382166000908152600260205260409020548111155b611d1f5760405162461bcd60e51b8152602060048201526002602482015261524560f01b6044820152606401610316565b611d28826111e5565b80600080828254611d399190612278565b90915550506001600160a01b03821660009081526002602052604081208054839290611d66908490612278565b90915550506001600160a01b0382166000908152600260205260408120549003611da05760018054906000611d9a83612340565b91905055505b61087582611f3e565b6001600160a01b03821660009081526002602052604090205415611dd057611dd0826111e5565b6001600160a01b0382166000908152600260205260408120548154909183918190611dfc9084906122f7565b90915550506001600160a01b03831660009081526002602052604081208054849290611e299084906122f7565b909155505080158015611e5357506001600160a01b03831660009081526002602052604090205415155b15611e6e5760018054906000611e688361230a565b91905055505b6109d383611f3e565b6060611e868484600085611fd0565b949350505050565b604051630852cd8d60e31b8152600481018290527f00000000000000000000000000000000000000000000000000000000000000006001600160a01b0316906342966c6890602401600060405180830381600087803b158015611ef057600080fd5b505af1925050508015611f01575060015b611f3b57611f3b6001600160a01b037f00000000000000000000000000000000000000000000000000000000000000001661dead83611818565b50565b60005b60085481101561087557600060088281548110611f6057611f606122e1565b60009182526020808320909101546001600160a01b038681168452600290925260409092205491169150611f959082906111b1565b6001600160a01b0391821660009081526003602090815260408083209487168352939052919091205580611fc88161230a565b915050611f41565b6060824710156120315760405162461bcd60e51b815260206004820152602660248201527f416464726573733a20696e73756666696369656e742062616c616e636520666f6044820152651c8818d85b1b60d21b6064820152608401610316565b600080866001600160a01b0316858760405161204d919061237b565b60006040518083038185875af1925050503d806000811461208a576040519150601f19603f3d011682016040523d82523d6000602084013e61208f565b606091505b50915091506120a0878383876120ab565b979650505050505050565b6060831561211a578251600003612113576001600160a01b0385163b6121135760405162461bcd60e51b815260206004820152601d60248201527f416464726573733a2063616c6c20746f206e6f6e2d636f6e74726163740000006044820152606401610316565b5081611e86565b611e86838381511561212f5781518083602001fd5b8060405162461bcd60e51b81526004016103169190612397565b60006020828403121561215b57600080fd5b5035919050565b6001600160a01b0381168114611f3b57600080fd5b6000806040838503121561218a57600080fd5b823561219581612162565b946020939093013593505050565b600080604083850312156121b657600080fd5b82356121c181612162565b915060208301356121d181612162565b809150509250929050565b6000602082840312156121ee57600080fd5b8135610b5f81612162565b8015158114611f3b57600080fd5b60008060006060848603121561221c57600080fd5b833561222781612162565b925060208401359150604084013561223e816121f9565b809150509250925092565b60006020828403121561225b57600080fd5b5051919050565b634e487b7160e01b600052601160045260246000fd5b8181038181111561090e5761090e612262565b60006020828403121561229d57600080fd5b8151610b5f81612162565b808202811582820484141761090e5761090e612262565b6000826122dc57634e487b7160e01b600052601260045260246000fd5b500490565b634e487b7160e01b600052603260045260246000fd5b8082018082111561090e5761090e612262565b60006001820161231c5761231c612262565b5060010190565b60006020828403121561233557600080fd5b8151610b5f816121f9565b60008161234f5761234f612262565b506000190190565b60005b8381101561237257818101518382015260200161235a565b50506000910152565b6000825161238d818460208701612357565b9190910192915050565b60208152600082518060208401526123b6816040850160208701612357565b601f01601f1916919091016040019291505056fea2646970667358221220ff77efa0deeb1d2d0d4af2b1dc48afa5a1b243072a2129ba240ba7bc73f91e5664736f6c634300081300337cdb51e9dbbc205231228146c3246e7f914aa6d4a33170e43ecc8e3593481d1a7cdb51e9dbbc205231228146c3246e7f914aa6d4a33170e43ecc8e3593481d1a","linkReferences":{}},"methodIdentifiers":{"BOND_FEE()":"ff140ca6","DEBOND_FEE()":"bdc8d060","DEX_HANDLER()":"822631d8","DOMAIN_SEPARATOR()":"3644e515","FLASH_FEE_AMOUNT_DAI()":"93b404bd","PAIRED_LP_TOKEN()":"4f4ce61d","addLiquidityV2(uint256,uint256,uint256,uint256)":"a9e9c8bc","allowance(address,address)":"dd62ed3e","approve(address,uint256)":"095ea7b3","balanceOf(address)":"70a08231","bond(address,uint256,uint256)":"b08d0333","burn(uint256)":"42966c68","config()":"79502c55","created()":"325a19f1","debond(uint256,address[],uint8[])":"ee9c79da","decimals()":"313ce567","decreaseAllowance(address,uint256)":"a457c2d7","eip712Domain()":"84b0196e","fees()":"9af1d35a","flash(address,address,uint256,bytes)":"bdbc91ab","getAllAssets()":"2acada4d","getIdxPriceUSDX96()":"95b3921e","getInitialAmount(address,uint256,address)":"e4b54957","getTokenPriceUSDX96(address)":"d757a9fb","increaseAllowance(address,uint256)":"39509351","indexTokens(uint256)":"4a437f88","indexType()":"53f50447","initialize()":"8129fc1c","isAsset(address)":"c87fa42a","lpRewardsToken()":"58f4dcc3","lpStakingPool()":"94cc699e","name()":"06fdde03","nonces(address)":"7ecebe00","partner()":"be10862b","permit(address,address,uint256,uint256,uint8,bytes32,bytes32)":"d505accf","processPreSwapFeesAndSwap()":"bb463027","removeLiquidityV2(uint256,uint256,uint256,uint256)":"f6823996","rescueERC20(address)":"ccec3716","rescueETH()":"20800a00","setPartner(address)":"a16d5960","setPartnerFee(uint16)":"41dc1253","symbol()":"95d89b41","totalSupply()":"18160ddd","transfer(address,uint256)":"a9059cbb","transferFrom(address,address,uint256)":"23b872dd","unlocked()":"6a5e2650"},"id":55}