{"abi":[{"type":"constructor","inputs":[{"name":"_aspTKN","type":"address","internalType":"address"},{"name":"_baseToken","type":"address","internalType":"address"},{"name":"_baseIsPod","type":"bool","internalType":"bool"},{"name":"_spTKN","type":"address","internalType":"address"},{"name":"_underlyingClPool","type":"address","internalType":"address"},{"name":"_baseConversionChainlinkFeed","type":"address","internalType":"address"},{"name":"_baseConversionClPool","type":"address","internalType":"address"},{"name":"_clBaseFeed","type":"address","internalType":"address"},{"name":"_clQuoteFeed","type":"address","internalType":"address"},{"name":"_clSinglePriceOracle","type":"address","internalType":"address"},{"name":"_uniswapSinglePriceOracle","type":"address","internalType":"address"},{"name":"_v2Reserves","type":"address","internalType":"address"}],"stateMutability":"nonpayable"},{"type":"function","name":"ASP_TKN","inputs":[],"outputs":[{"name":"","type":"address","internalType":"address"}],"stateMutability":"view"},{"type":"function","name":"BASE_CONVERSION_CHAINLINK_FEED","inputs":[],"outputs":[{"name":"","type":"address","internalType":"address"}],"stateMutability":"view"},{"type":"function","name":"BASE_CONVERSION_CL_POOL","inputs":[],"outputs":[{"name":"","type":"address","internalType":"address"}],"stateMutability":"view"},{"type":"function","name":"BASE_IS_POD","inputs":[],"outputs":[{"name":"","type":"bool","internalType":"bool"}],"stateMutability":"view"},{"type":"function","name":"BASE_TOKEN","inputs":[],"outputs":[{"name":"","type":"address","internalType":"address"}],"stateMutability":"view"},{"type":"function","name":"CHAINLINK_BASE_PRICE_FEED","inputs":[],"outputs":[{"name":"","type":"address","internalType":"address"}],"stateMutability":"view"},{"type":"function","name":"CHAINLINK_QUOTE_PRICE_FEED","inputs":[],"outputs":[{"name":"","type":"address","internalType":"address"}],"stateMutability":"view"},{"type":"function","name":"CHAINLINK_SINGLE_PRICE_ORACLE","inputs":[],"outputs":[{"name":"","type":"address","internalType":"address"}],"stateMutability":"view"},{"type":"function","name":"POD","inputs":[],"outputs":[{"name":"","type":"address","internalType":"address"}],"stateMutability":"view"},{"type":"function","name":"SP_TKN","inputs":[],"outputs":[{"name":"","type":"address","internalType":"address"}],"stateMutability":"view"},{"type":"function","name":"UNDERLYING_TKN","inputs":[],"outputs":[{"name":"","type":"address","internalType":"address"}],"stateMutability":"view"},{"type":"function","name":"UNDERLYING_TKN_CL_POOL","inputs":[],"outputs":[{"name":"","type":"address","internalType":"address"}],"stateMutability":"view"},{"type":"function","name":"UNISWAP_V3_SINGLE_PRICE_ORACLE","inputs":[],"outputs":[{"name":"","type":"address","internalType":"address"}],"stateMutability":"view"},{"type":"function","name":"V2_RESERVES","inputs":[],"outputs":[{"name":"","type":"address","internalType":"contract IV2Reserves"}],"stateMutability":"view"},{"type":"function","name":"getPrices","inputs":[],"outputs":[{"name":"_isBadData","type":"bool","internalType":"bool"},{"name":"_priceLow","type":"uint256","internalType":"uint256"},{"name":"_priceHigh","type":"uint256","internalType":"uint256"}],"stateMutability":"view"},{"type":"function","name":"owner","inputs":[],"outputs":[{"name":"","type":"address","internalType":"address"}],"stateMutability":"view"},{"type":"function","name":"renounceOwnership","inputs":[],"outputs":[],"stateMutability":"nonpayable"},{"type":"function","name":"setTwapInterval","inputs":[{"name":"_interval","type":"uint32","internalType":"uint32"}],"outputs":[],"stateMutability":"nonpayable"},{"type":"function","name":"transferOwnership","inputs":[{"name":"newOwner","type":"address","internalType":"address"}],"outputs":[],"stateMutability":"nonpayable"},{"type":"event","name":"OwnershipTransferred","inputs":[{"name":"previousOwner","type":"address","indexed":true,"internalType":"address"},{"name":"newOwner","type":"address","indexed":true,"internalType":"address"}],"anonymous":false}],"bytecode":{"object":"0x6102406040526000805463ffffffff60a01b1916604b60a31b1790553480156200002857600080fd5b5060405162002430380380620024308339810160408190526200004b91620002d8565b8a8a8a8a8a8a8a8a8a8a8a62000061336200026b565b6001600160a01b03871615806200007f57506001600160a01b038616155b620000bf5760405162461bcd60e51b8152600401620000b69060208082526004908201526321a7a72b60e11b604082015260600190565b60405180910390fd5b6001600160a01b03808c166080528a151560a05289811660c0819052898216610100528882166101405287821661016052868216610180528582166101a0528482166101c0528382166101e05290821661020052604080516390eb391160e01b81529051600092916390eb39119160048083019260209291908290030181865afa15801562000152573d6000803e3d6000fd5b505050506040513d601f19601f82011682018060405250810190620001789190620003d3565b90506000816001600160a01b0316632acada4d6040518163ffffffff1660e01b8152600401600060405180830381865afa158015620001bb573d6000803e3d6000fd5b505050506040513d6000823e601f3d908101601f19168201604052620001e591908101906200046c565b6001600160a01b03831660e052805190915081906000906200020b576200020b62000573565b6020026020010151600001516001600160a01b0316610120816001600160a01b031681525050505050505050505050505050508b6001600160a01b0316610220816001600160a01b03168152505050505050505050505050505062000589565b600080546001600160a01b038381166001600160a01b0319831681178455604051919092169283917f8be0079c531659141344cd1fd0a4f28419497f9722a3daafe3b4186f6b6457e09190a35050565b80516001600160a01b0381168114620002d357600080fd5b919050565b6000806000806000806000806000806000806101808d8f031215620002fc57600080fd5b620003078d620002bb565b9b506200031760208e01620002bb565b9a5060408d015180151581146200032d57600080fd5b99506200033d60608e01620002bb565b98506200034d60808e01620002bb565b97506200035d60a08e01620002bb565b96506200036d60c08e01620002bb565b95506200037d60e08e01620002bb565b94506200038e6101008e01620002bb565b93506200039f6101208e01620002bb565b9250620003b06101408e01620002bb565b9150620003c16101608e01620002bb565b90509295989b509295989b509295989b565b600060208284031215620003e657600080fd5b620003f182620002bb565b9392505050565b634e487b7160e01b600052604160045260246000fd5b60405160a081016001600160401b0381118282101715620004335762000433620003f8565b60405290565b604051601f8201601f191681016001600160401b0381118282101715620004645762000464620003f8565b604052919050565b600060208083850312156200048057600080fd5b82516001600160401b03808211156200049857600080fd5b818501915085601f830112620004ad57600080fd5b815181811115620004c257620004c2620003f8565b620004d2848260051b0162000439565b818152848101925060a0918202840185019188831115620004f257600080fd5b938501935b82851015620005675780858a031215620005115760008081fd5b6200051b6200040e565b6200052686620002bb565b8152858701518782015260408087015190820152606062000549818801620002bb565b908201526080868101519082015284529384019392850192620004f7565b50979650505050505050565b634e487b7160e01b600052603260045260246000fd5b60805160a05160c05160e05161010051610120516101405161016051610180516101a0516101c0516101e0516102005161022051611d2d620007036000396000818161012b015261044d0152600081816102390152610dbc015260008181610358015281816108fc0152610a120152600081816102ac01526111f901526000818161037f0152818161071a01526111940152600081816102d3015281816106e701526111bc0152600081816102600152818161097e01526109d50152600081816101ab01526108680152600081816103310152818161089901528181610cdb0152610d44015260008181610212015281816108c101528181610ac60152610bb20152600081816103b901528181610cba01528181610d230152610d700152600081816101d201526113790152600081816102fa0152818161113a01526112a1015260008181610184015281816106420152818161076501528181611280015281816112c9015281816117f601526118240152611d2d6000f3fe608060405234801561001057600080fd5b50600436106101215760003560e01c8063b235c94b116100ad578063e788abdd11610071578063e788abdd1461032c578063eb33bd3c14610353578063ef88dac11461037a578063f2fde38b146103a1578063f9356a8e146103b457600080fd5b8063b235c94b1461025b578063bd9a548b14610282578063ca5ed14c146102a7578063cdbb0e69146102ce578063d401178e146102f557600080fd5b8063580059a1116100f4578063580059a1146101cd578063715018a6146101f45780638da5cb5b146101fc5780638dd794171461020d578063aa0effc51461023457600080fd5b8063163f2c54146101265780631d27050f1461016a578063210663e41461017f57806346eeb01a146101a6575b600080fd5b61014d7f000000000000000000000000000000000000000000000000000000000000000081565b6040516001600160a01b0390911681526020015b60405180910390f35b61017d610178366004611849565b6103db565b005b61014d7f000000000000000000000000000000000000000000000000000000000000000081565b61014d7f000000000000000000000000000000000000000000000000000000000000000081565b61014d7f000000000000000000000000000000000000000000000000000000000000000081565b61017d610409565b6000546001600160a01b031661014d565b61014d7f000000000000000000000000000000000000000000000000000000000000000081565b61014d7f000000000000000000000000000000000000000000000000000000000000000081565b61014d7f000000000000000000000000000000000000000000000000000000000000000081565b61028a61041d565b604080519315158452602084019290925290820152606001610161565b61014d7f000000000000000000000000000000000000000000000000000000000000000081565b61014d7f000000000000000000000000000000000000000000000000000000000000000081565b61031c7f000000000000000000000000000000000000000000000000000000000000000081565b6040519015158152602001610161565b61014d7f000000000000000000000000000000000000000000000000000000000000000081565b61014d7f000000000000000000000000000000000000000000000000000000000000000081565b61014d7f000000000000000000000000000000000000000000000000000000000000000081565b61017d6103af36600461188b565b6104fe565b61014d7f000000000000000000000000000000000000000000000000000000000000000081565b6103e361057c565b6000805463ffffffff909216600160a01b0263ffffffff60a01b19909216919091179055565b61041161057c565b61041b60006105d6565b565b6040516363737ac960e11b8152670de0b6b3a7640000600482018190526000918291829182906001600160a01b037f0000000000000000000000000000000000000000000000000000000000000000169063c6e6f59290602401602060405180830381865afa158015610494573d6000803e3d6000fd5b505050506040513d601f19601f820116820180604052508101906104b891906118a8565b90506104c2610626565b91965094509250806104d483866118d7565b6104de9190611904565b9350806104eb83856118d7565b6104f59190611904565b92505050909192565b61050661057c565b6001600160a01b0381166105705760405162461bcd60e51b815260206004820152602660248201527f4f776e61626c653a206e6577206f776e657220697320746865207a65726f206160448201526564647265737360d01b60648201526084015b60405180910390fd5b610579816105d6565b50565b6000546001600160a01b0316331461041b5760405162461bcd60e51b815260206004820181905260248201527f4f776e61626c653a2063616c6c6572206973206e6f7420746865206f776e65726044820152606401610567565b600080546001600160a01b038381166001600160a01b0319831681178455604051919092169283917f8be0079c531659141344cd1fd0a4f28419497f9722a3daafe3b4186f6b6457e09190a35050565b6000806000806106366000610840565b905080600014935060007f00000000000000000000000000000000000000000000000000000000000000006001600160a01b031663313ce5676040518163ffffffff1660e01b8152600401602060405180830381865afa15801561069e573d6000803e3d6000fd5b505050506040513d601f19601f820116820180604052508101906106c29190611918565b6106cd90601261193b565b6106d890600a611a38565b6106e290836118d7565b9050807f00000000000000000000000000000000000000000000000000000000000000006001600160a01b03161580159061074557507f00000000000000000000000000000000000000000000000000000000000000006001600160a01b031615155b1561081657600061075461117d565b9050600061076182610840565b90507f00000000000000000000000000000000000000000000000000000000000000006001600160a01b031663313ce5676040518163ffffffff1660e01b8152600401602060405180830381865afa1580156107c1573d6000803e3d6000fd5b505050506040513d601f19601f820116820180604052508101906107e59190611918565b6107f090601261193b565b6107fb90600a611a38565b61080590826118d7565b92508780610811575081155b975050505b8082116108235781610825565b805b94508082116108345780610836565b815b9350505050909192565b60008061084b61127e565b905082600003610ab65760008054604051630807aa9160e01b81527f00000000000000000000000000000000000000000000000000000000000000006001600160a01b0390811660048301527f0000000000000000000000000000000000000000000000000000000000000000811660248301527f000000000000000000000000000000000000000000000000000000000000000081166044830152600160a01b90920463ffffffff1660648201527f000000000000000000000000000000000000000000000000000000000000000090911690630807aa91906084016040805180830381865afa158015610944573d6000803e3d6000fd5b505050506040513d601f19601f820116820180604052508101906109689190611a47565b94509050801561097c575060009392505050565b7f00000000000000000000000000000000000000000000000000000000000000006001600160a01b031615610ab45760008054604051630807aa9160e01b8152600481018390526001600160a01b0385811660248301527f000000000000000000000000000000000000000000000000000000000000000081166044830152600160a01b90920463ffffffff16606482015282917f00000000000000000000000000000000000000000000000000000000000000001690630807aa91906084016040805180830381865afa158015610a58573d6000803e3d6000fd5b505050506040513d601f19601f82011682018060405250810190610a7c9190611a47565b915091508115610a925750600095945050505050565b85610aa582670de0b6b3a76400006118d7565b610aaf9190611904565b955050505b505b6000610ac0611375565b905060007f00000000000000000000000000000000000000000000000000000000000000006001600160a01b0316630dfe16816040518163ffffffff1660e01b8152600401602060405180830381865afa158015610b22573d6000803e3d6000fd5b505050506040513d601f19601f82011682018060405250810190610b469190611a7a565b90506000816001600160a01b031663313ce5676040518163ffffffff1660e01b8152600401602060405180830381865afa158015610b88573d6000803e3d6000fd5b505050506040513d601f19601f82011682018060405250810190610bac9190611918565b905060007f00000000000000000000000000000000000000000000000000000000000000006001600160a01b031663d21220a76040518163ffffffff1660e01b8152600401602060405180830381865afa158015610c0e573d6000803e3d6000fd5b505050506040513d601f19601f82011682018060405250810190610c329190611a7a565b90506000816001600160a01b031663313ce5676040518163ffffffff1660e01b8152600401602060405180830381865afa158015610c74573d6000803e3d6000fd5b505050506040513d601f19601f82011682018060405250810190610c989190611918565b90506000866001600160a01b0316836001600160a01b031614610d1e57610d007f00000000000000000000000000000000000000000000000000000000000000007f00000000000000000000000000000000000000000000000000000000000000008b6113fe565b610d19906ec097ce7bc90715b34b9f1000000000611904565b610d69565b610d697f00000000000000000000000000000000000000000000000000000000000000007f00000000000000000000000000000000000000000000000000000000000000008b6113fe565b9050610d957f00000000000000000000000000000000000000000000000000000000000000008261170a565b604051630fa6707960e21b81526001600160a01b03888116600483015291925060009182917f000000000000000000000000000000000000000000000000000000000000000090911690633e99c1e4906024016040805180830381865afa158015610e04573d6000803e3d6000fd5b505050506040513d601f19601f82011682018060405250810190610e289190611ab3565b915091506000816001600160701b0316836001600160701b0316610e4c91906118d7565b90506000896001600160a01b031663d21220a76040518163ffffffff1660e01b8152600401602060405180830381865afa158015610e8e573d6000803e3d6000fd5b505050506040513d601f19601f82011682018060405250810190610eb29190611a7a565b6001600160a01b031663313ce5676040518163ffffffff1660e01b8152600401602060405180830381865afa158015610eef573d6000803e3d6000fd5b505050506040513d601f19601f82011682018060405250810190610f139190611918565b610f1e90600a611a38565b8a6001600160a01b0316630dfe16816040518163ffffffff1660e01b8152600401602060405180830381865afa158015610f5c573d6000803e3d6000fd5b505050506040513d601f19601f82011682018060405250810190610f809190611a7a565b6001600160a01b031663313ce5676040518163ffffffff1660e01b8152600401602060405180830381865afa158015610fbd573d6000803e3d6000fd5b505050506040513d601f19601f82011682018060405250810190610fe19190611918565b610fec90600a611a38565b610ff691906118d7565b905060006110178261100885896118d7565b6110129190611904565b611796565b61102590633b9aca006118d7565b905060008b6001600160a01b03166318160ddd6040518163ffffffff1660e01b8152600401602060405180830381865afa158015611067573d6000803e3d6000fd5b505050506040513d601f19601f8201168201806040525081019061108b91906118a8565b60026110978a8d611ae6565b6110a19190611aff565b6110ac90600a611a38565b6110b78460026118d7565b6110c191906118d7565b6110cb9190611904565b905060008d6001600160a01b03168a6001600160a01b0316146110ee578a6110f0565b885b60ff169050670de0b6b3a764000061110982600a611b21565b61111390846118d7565b61111d9190611904565b611136906ec097ce7bc90715b34b9f1000000000611904565b9e507f00000000000000000000000000000000000000000000000000000000000000001561116a576111678f6117ef565b9e505b5050505050505050505050505050919050565b604051630807aa9160e01b81526001600160a01b037f0000000000000000000000000000000000000000000000000000000000000000811660048301527f0000000000000000000000000000000000000000000000000000000000000000811660248301526000604483018190526064830181905291829182917f000000000000000000000000000000000000000000000000000000000000000090911690630807aa91906084016040805180830381865afa158015611241573d6000803e3d6000fd5b505050506040513d601f19601f820116820180604052508101906112659190611a47565b9150915081156112785760009250505090565b92915050565b7f00000000000000000000000000000000000000000000000000000000000000007f0000000000000000000000000000000000000000000000000000000000000000156113725760007f00000000000000000000000000000000000000000000000000000000000000006001600160a01b0316632acada4d6040518163ffffffff1660e01b8152600401600060405180830381865afa158015611325573d6000803e3d6000fd5b505050506040513d6000823e601f3d908101601f1916820160405261134d9190810190611b9d565b90508060008151811061136257611362611c97565b6020026020010151600001519150505b90565b60007f00000000000000000000000000000000000000000000000000000000000000006001600160a01b03166372f702f36040518163ffffffff1660e01b8152600401602060405180830381865afa1580156113d5573d6000803e3d6000fd5b505050506040513d601f19601f820116820180604052508101906113f99190611a7a565b905090565b6000836001600160a01b0316636a5e26506040518163ffffffff1660e01b8152600401602060405180830381865afa15801561143e573d6000803e3d6000fd5b505050506040513d601f19601f820116820180604052508101906114629190611918565b60ff166001146114995760405162461bcd60e51b81526020600482015260026024820152614f5560f01b6044820152606401610567565b6001600160a01b038316611534576000846001600160a01b0316632acada4d6040518163ffffffff1660e01b8152600401600060405180830381865afa1580156114e7573d6000803e3d6000fd5b505050506040513d6000823e601f3d908101601f1916820160405261150f9190810190611b9d565b90508060008151811061152457611524611c97565b6020026020010151600001519350505b826001600160a01b031663313ce5676040518163ffffffff1660e01b8152600401602060405180830381865afa158015611572573d6000803e3d6000fd5b505050506040513d601f19601f820116820180604052508101906115969190611918565b6115a190600a611a38565b846001600160a01b03166318160ddd6040518163ffffffff1660e01b8152600401602060405180830381865afa1580156115df573d6000803e3d6000fd5b505050506040513d601f19601f8201168201806040525081019061160391906118a8565b856001600160a01b031663313ce5676040518163ffffffff1660e01b8152600401602060405180830381865afa158015611641573d6000803e3d6000fd5b505050506040513d601f19601f820116820180604052508101906116659190611918565b61167090600a611a38565b6040516370a0823160e01b81526001600160a01b0388811660048301528716906370a0823190602401602060405180830381865afa1580156116b6573d6000803e3d6000fd5b505050506040513d601f19601f820116820180604052508101906116da91906118a8565b6116e490866118d7565b6116ee91906118d7565b6116f89190611904565b6117029190611904565b949350505050565b600080836001600160a01b031663bdc8d0606040518163ffffffff1660e01b8152600401602060405180830381865afa15801561174b573d6000803e3d6000fd5b505050506040513d601f19601f8201168201806040525081019061176f9190611cad565b905061271061178261ffff8316856118d7565b61178c9190611904565b6117029084611cd1565b60008060026117a6846001611ce4565b6117b09190611904565b90508291505b818110156117e9579050806002816117ce8186611904565b6117d89190611ce4565b6117e29190611904565b90506117b6565b50919050565b600061181d7f00000000000000000000000000000000000000000000000000000000000000006000846113fe565b90506112787f00000000000000000000000000000000000000000000000000000000000000008261170a565b60006020828403121561185b57600080fd5b813563ffffffff8116811461186f57600080fd5b9392505050565b6001600160a01b038116811461057957600080fd5b60006020828403121561189d57600080fd5b813561186f81611876565b6000602082840312156118ba57600080fd5b5051919050565b634e487b7160e01b600052601160045260246000fd5b8082028115828204841417611278576112786118c1565b634e487b7160e01b600052601260045260246000fd5b600082611913576119136118ee565b500490565b60006020828403121561192a57600080fd5b815160ff8116811461186f57600080fd5b60ff8281168282160390811115611278576112786118c1565b600181815b8085111561198f578160001904821115611975576119756118c1565b8085161561198257918102915b93841c9390800290611959565b509250929050565b6000826119a657506001611278565b816119b357506000611278565b81600181146119c957600281146119d3576119ef565b6001915050611278565b60ff8411156119e4576119e46118c1565b50506001821b611278565b5060208310610133831016604e8410600b8410161715611a12575081810a611278565b611a1c8383611954565b8060001904821115611a3057611a306118c1565b029392505050565b600061186f60ff841683611997565b60008060408385031215611a5a57600080fd5b82518015158114611a6a57600080fd5b6020939093015192949293505050565b600060208284031215611a8c57600080fd5b815161186f81611876565b80516001600160701b0381168114611aae57600080fd5b919050565b60008060408385031215611ac657600080fd5b611acf83611a97565b9150611add60208401611a97565b90509250929050565b60ff8181168382160190811115611278576112786118c1565b600060ff831680611b1257611b126118ee565b8060ff84160491505092915050565b600061186f8383611997565b634e487b7160e01b600052604160045260246000fd5b60405160a0810167ffffffffffffffff81118282101715611b6657611b66611b2d565b60405290565b604051601f8201601f1916810167ffffffffffffffff81118282101715611b9557611b95611b2d565b604052919050565b60006020808385031215611bb057600080fd5b825167ffffffffffffffff80821115611bc857600080fd5b818501915085601f830112611bdc57600080fd5b815181811115611bee57611bee611b2d565b611bfc848260051b01611b6c565b818152848101925060a0918202840185019188831115611c1b57600080fd5b938501935b82851015611c8b5780858a031215611c385760008081fd5b611c40611b43565b8551611c4b81611876565b8152858701518782015260408087015190820152606080870151611c6e81611876565b908201526080868101519082015284529384019392850192611c20565b50979650505050505050565b634e487b7160e01b600052603260045260246000fd5b600060208284031215611cbf57600080fd5b815161ffff8116811461186f57600080fd5b81810381811115611278576112786118c1565b80820180821115611278576112786118c156fea2646970667358221220483c8eb0cddd05c18bf680f5bfe590b9c8128725d525ff46c765ace4c4ea508364736f6c63430008130033","linkReferences":{}},"methodIdentifiers":{"ASP_TKN()":"163f2c54","BASE_CONVERSION_CHAINLINK_FEED()":"46eeb01a","BASE_CONVERSION_CL_POOL()":"b235c94b","BASE_IS_POD()":"d401178e","BASE_TOKEN()":"210663e4","CHAINLINK_BASE_PRICE_FEED()":"cdbb0e69","CHAINLINK_QUOTE_PRICE_FEED()":"ef88dac1","CHAINLINK_SINGLE_PRICE_ORACLE()":"ca5ed14c","POD()":"f9356a8e","SP_TKN()":"580059a1","UNDERLYING_TKN()":"e788abdd","UNDERLYING_TKN_CL_POOL()":"8dd79417","UNISWAP_V3_SINGLE_PRICE_ORACLE()":"eb33bd3c","V2_RESERVES()":"aa0effc5","getPrices()":"bd9a548b","owner()":"8da5cb5b","renounceOwnership()":"715018a6","setTwapInterval(uint32)":"1d27050f","transferOwnership(address)":"f2fde38b"},"id":42}