{"abi":[{"type":"function","name":"bulkProcessPendingYield","inputs":[{"name":"_idx","type":"address[]","internalType":"contract IDecentralizedIndex[]"}],"outputs":[],"stateMutability":"nonpayable"},{"type":"function","name":"bulkTransferEmpty","inputs":[{"name":"_token","type":"address[]","internalType":"contract IERC20[]"}],"outputs":[],"stateMutability":"nonpayable"}],"bytecode":{"object":"0x608060405234801561001057600080fd5b506107b1806100206000396000f3fe608060405234801561001057600080fd5b50600436106100365760003560e01c80635d1fc1e81461003b57806398a9ab1114610050575b600080fd5b61004e610049366004610562565b610063565b005b61004e61005e3660046105f6565b6101c8565b60005b81518110156101c457600082828151811061008357610083610685565b60200260200101516001600160a01b03166394cc699e6040518163ffffffff1660e01b8152600401602060405180830381865afa1580156100c8573d6000803e3d6000fd5b505050506040513d601f19601f820116820180604052508101906100ec919061069b565b90506000816001600160a01b031663f5996fe46040518163ffffffff1660e01b8152600401602060405180830381865afa15801561012e573d6000803e3d6000fd5b505050506040513d601f19601f82011682018060405250810190610152919061069b565b604051633694313d60e01b8152600060048201529091506001600160a01b03821690633694313d90602401600060405180830381600087803b15801561019757600080fd5b505af11580156101ab573d6000803e3d6000fd5b50505050505080806101bc906106bf565b915050610066565b5050565b60005b81518110156101c45761020c3060008484815181106101ec576101ec610685565b60200260200101516001600160a01b031661021e9092919063ffffffff16565b80610216816106bf565b9150506101cb565b604080516001600160a01b038416602482015260448082018490528251808303909101815260649091019091526020810180516001600160e01b031663a9059cbb60e01b179052610270908490610275565b505050565b60006102ca826040518060400160405280602081526020017f5361666545524332303a206c6f772d6c6576656c2063616c6c206661696c6564815250856001600160a01b031661034f9092919063ffffffff16565b90508051600014806102eb5750808060200190518101906102eb91906106e6565b6102705760405162461bcd60e51b815260206004820152602a60248201527f5361666545524332303a204552433230206f7065726174696f6e20646964206e6044820152691bdd081cdd58d8d9595960b21b60648201526084015b60405180910390fd5b606061035e8484600085610366565b949350505050565b6060824710156103c75760405162461bcd60e51b815260206004820152602660248201527f416464726573733a20696e73756666696369656e742062616c616e636520666f6044820152651c8818d85b1b60d21b6064820152608401610346565b600080866001600160a01b031685876040516103e3919061072c565b60006040518083038185875af1925050503d8060008114610420576040519150601f19603f3d011682016040523d82523d6000602084013e610425565b606091505b509150915061043687838387610441565b979650505050505050565b606083156104b05782516000036104a9576001600160a01b0385163b6104a95760405162461bcd60e51b815260206004820152601d60248201527f416464726573733a2063616c6c20746f206e6f6e2d636f6e74726163740000006044820152606401610346565b508161035e565b61035e83838151156104c55781518083602001fd5b8060405162461bcd60e51b81526004016103469190610748565b634e487b7160e01b600052604160045260246000fd5b604051601f8201601f1916810167ffffffffffffffff8111828210171561051e5761051e6104df565b604052919050565b600067ffffffffffffffff821115610540576105406104df565b5060051b60200190565b6001600160a01b038116811461055f57600080fd5b50565b6000602080838503121561057557600080fd5b823567ffffffffffffffff81111561058c57600080fd5b8301601f8101851361059d57600080fd5b80356105b06105ab82610526565b6104f5565b81815260059190911b820183019083810190878311156105cf57600080fd5b928401925b828410156104365783356105e78161054a565b825292840192908401906105d4565b6000602080838503121561060957600080fd5b823567ffffffffffffffff81111561062057600080fd5b8301601f8101851361063157600080fd5b803561063f6105ab82610526565b81815260059190911b8201830190838101908783111561065e57600080fd5b928401925b828410156104365783356106768161054a565b82529284019290840190610663565b634e487b7160e01b600052603260045260246000fd5b6000602082840312156106ad57600080fd5b81516106b88161054a565b9392505050565b6000600182016106df57634e487b7160e01b600052601160045260246000fd5b5060010190565b6000602082840312156106f857600080fd5b815180151581146106b857600080fd5b60005b8381101561072357818101518382015260200161070b565b50506000910152565b6000825161073e818460208701610708565b9190910192915050565b6020815260008251806020840152610767816040850160208701610708565b601f01601f1916919091016040019291505056fea2646970667358221220a04fdc92b4562d1c07aed311ff8067cc3a73990d62d7a450674c52fc709555fb64736f6c63430008130033","linkReferences":{}},"methodIdentifiers":{"bulkProcessPendingYield(address[])":"5d1fc1e8","bulkTransferEmpty(address[])":"98a9ab11"},"id":2}