{"abi":[{"type":"constructor","inputs":[{"name":"_v3TwapUtilities","type":"address","internalType":"contract IV3TwapUtilities"},{"name":"_dexAdapter","type":"address","internalType":"contract IDexAdapter"},{"name":"_V3_ROUTER","type":"address","internalType":"address"}],"stateMutability":"nonpayable"},{"type":"receive","stateMutability":"payable"},{"type":"function","name":"OHM","inputs":[],"outputs":[{"name":"","type":"address","internalType":"address"}],"stateMutability":"view"},{"type":"function","name":"addLPAndStake","inputs":[{"name":"_indexFund","type":"address","internalType":"contract IDecentralizedIndex"},{"name":"_amountIdxTokens","type":"uint256","internalType":"uint256"},{"name":"_pairedLpTokenProvided","type":"address","internalType":"address"},{"name":"_amtPairedLpTokenProvided","type":"uint256","internalType":"uint256"},{"name":"_amountPairedLpTokenMin","type":"uint256","internalType":"uint256"},{"name":"_slippage","type":"uint256","internalType":"uint256"},{"name":"_deadline","type":"uint256","internalType":"uint256"}],"outputs":[{"name":"_amountOut","type":"uint256","internalType":"uint256"}],"stateMutability":"payable"},{"type":"function","name":"bond","inputs":[{"name":"_indexFund","type":"address","internalType":"contract IDecentralizedIndex"},{"name":"_token","type":"address","internalType":"address"},{"name":"_amount","type":"uint256","internalType":"uint256"},{"name":"_amountMintMin","type":"uint256","internalType":"uint256"}],"outputs":[],"stateMutability":"nonpayable"},{"type":"function","name":"bondWeightedFromNative","inputs":[{"name":"_indexFund","type":"address","internalType":"contract IDecentralizedIndex"},{"name":"_assetIdx","type":"uint256","internalType":"uint256"},{"name":"_amountTokensForAssetIdx","type":"uint256","internalType":"uint256"},{"name":"_amountMintMin","type":"uint256","internalType":"uint256"},{"name":"_amountPairedLpTokenMin","type":"uint256","internalType":"uint256"},{"name":"_slippage","type":"uint256","internalType":"uint256"},{"name":"_deadline","type":"uint256","internalType":"uint256"},{"name":"_stakeAsWell","type":"bool","internalType":"bool"}],"outputs":[],"stateMutability":"payable"},{"type":"function","name":"claimRewardsMulti","inputs":[{"name":"_rewards","type":"address[]","internalType":"address[]"}],"outputs":[],"stateMutability":"nonpayable"},{"type":"function","name":"curveTokenIdx","inputs":[{"name":"","type":"address","internalType":"address"},{"name":"","type":"address","internalType":"address"}],"outputs":[{"name":"","type":"int128","internalType":"int128"}],"stateMutability":"view"},{"type":"function","name":"owner","inputs":[],"outputs":[{"name":"","type":"address","internalType":"address"}],"stateMutability":"view"},{"type":"function","name":"pOHM","inputs":[],"outputs":[{"name":"","type":"address","internalType":"address"}],"stateMutability":"view"},{"type":"function","name":"renounceOwnership","inputs":[],"outputs":[],"stateMutability":"nonpayable"},{"type":"function","name":"rescueERC20","inputs":[{"name":"_token","type":"address","internalType":"contract IERC20"}],"outputs":[],"stateMutability":"nonpayable"},{"type":"function","name":"rescueETH","inputs":[],"outputs":[],"stateMutability":"nonpayable"},{"type":"function","name":"setOHM","inputs":[{"name":"_OHM","type":"address","internalType":"address"},{"name":"_pOHM","type":"address","internalType":"address"}],"outputs":[],"stateMutability":"nonpayable"},{"type":"function","name":"setSlippage","inputs":[{"name":"_slip","type":"uint256","internalType":"uint256"}],"outputs":[],"stateMutability":"nonpayable"},{"type":"function","name":"setZapMap","inputs":[{"name":"_in","type":"address","internalType":"address"},{"name":"_out","type":"address","internalType":"address"},{"name":"_pools","type":"tuple","internalType":"struct IZapper.Pools","components":[{"name":"poolType","type":"uint8","internalType":"enum IZapper.PoolType"},{"name":"pool1","type":"address","internalType":"address"},{"name":"pool2","type":"address","internalType":"address"}]}],"outputs":[],"stateMutability":"nonpayable"},{"type":"function","name":"setZapMapFromPoolSingle","inputs":[{"name":"_type","type":"uint8","internalType":"enum IZapper.PoolType"},{"name":"_pool","type":"address","internalType":"address"}],"outputs":[],"stateMutability":"nonpayable"},{"type":"function","name":"transferOwnership","inputs":[{"name":"newOwner","type":"address","internalType":"address"}],"outputs":[],"stateMutability":"nonpayable"},{"type":"function","name":"unstakeAndRemoveLP","inputs":[{"name":"_indexFund","type":"address","internalType":"contract IDecentralizedIndex"},{"name":"_amountStakedTokens","type":"uint256","internalType":"uint256"},{"name":"_minLPTokens","type":"uint256","internalType":"uint256"},{"name":"_minPairedLpToken","type":"uint256","internalType":"uint256"},{"name":"_deadline","type":"uint256","internalType":"uint256"}],"outputs":[],"stateMutability":"nonpayable"},{"type":"function","name":"zapMap","inputs":[{"name":"","type":"address","internalType":"address"},{"name":"","type":"address","internalType":"address"}],"outputs":[{"name":"poolType","type":"uint8","internalType":"enum IZapper.PoolType"},{"name":"pool1","type":"address","internalType":"address"},{"name":"pool2","type":"address","internalType":"address"}],"stateMutability":"view"},{"type":"event","name":"Message","inputs":[{"name":"a","type":"string","indexed":false,"internalType":"string"}],"anonymous":false},{"type":"event","name":"OwnershipTransferred","inputs":[{"name":"previousOwner","type":"address","indexed":true,"internalType":"address"},{"name":"newOwner","type":"address","indexed":true,"internalType":"address"}],"anonymous":false}],"bytecode":{"object":"0x610100604052601e600255600380546001600160a01b0319167364aa3364f17a4d01c6f1751fd97c2bd3d7e7f1d51790553480156200003d57600080fd5b50604051620059243803806200592483398101604081905262000060916200023c565b8282826200006e33620001d3565b816001600160a01b0316638ada032e6040518163ffffffff1660e01b8152600401602060405180830381865afa158015620000ad573d6000803e3d6000fd5b505050506040513d601f19601f82011682018060405250810190620000d3919062000290565b6001600160a01b0390811660805283811660c052821660e0819052604080516315ab88c960e31b8152905163ad5c4648916004808201926020929091908290030181865afa1580156200012a573d6000803e3d6000fd5b505050506040513d601f19601f8201168201806040525081019062000150919062000290565b6001600160a01b0390811660a052600180549183166001600160a01b03199092169190911790556040517f51a7f65c6325882f237d4aeb43228179cfad48b868511d508e24b4437a81913790620001bf906020808252600490820152634865726560e01b604082015260600190565b60405180910390a1505050505050620002b7565b600080546001600160a01b038381166001600160a01b0319831681178455604051919092169283917f8be0079c531659141344cd1fd0a4f28419497f9722a3daafe3b4186f6b6457e09190a35050565b6001600160a01b03811681146200023957600080fd5b50565b6000806000606084860312156200025257600080fd5b83516200025f8162000223565b6020850151909350620002728162000223565b6040850151909250620002858162000223565b809150509250925092565b600060208284031215620002a357600080fd5b8151620002b08162000223565b9392505050565b60805160a05160c05160e0516155bf6200036560003960008181610e3c01528181611c570152818161340001528181613e6601528181613ebb015281816143cd01528181614464015281816146d0015281816146f70152818161485b0152614bdb015260006145210152600081816123cb015281816123ee015281816124a40152818161258c01528181613a8601528181613af501528181613b7c01526148e50152600050506155bf6000f3fe60806040526004361061010d5760003560e01c8063a1879d9011610095578063d71f11fb11610064578063d71f11fb146102eb578063e42f53431461030b578063e679daf514610370578063f0fa55a914610383578063f2fde38b146103a357600080fd5b8063a1879d901461026b578063a6c41fec1461028b578063ae7eb646146102ab578063ccec3716146102cb57600080fd5b806353eedc67116100dc57806353eedc6714610190578063715018a6146101b0578063816846c8146101c557806384614e1a146102185780638da5cb5b1461023957600080fd5b80631fd8ecd914610119578063205b7d031461013b57806320800a001461015b57806338e781111461017057600080fd5b3661011457005b600080fd5b34801561012557600080fd5b50610139610134366004614e77565b6103c3565b005b34801561014757600080fd5b50610139610156366004614ebb565b610809565b34801561016757600080fd5b5061013961088d565b34801561017c57600080fd5b5061013961018b366004614f08565b6108f8565b34801561019c57600080fd5b506101396101ab366004614f94565b61090e565b3480156101bc57600080fd5b506101396109a9565b3480156101d157600080fd5b506102006101e0366004614ebb565b6006602090815260009283526040808420909152908252902054600f0b81565b604051600f9190910b81526020015b60405180910390f35b61022b610226366004615042565b6109bd565b60405190815260200161020f565b34801561024557600080fd5b506000546001600160a01b03165b6040516001600160a01b03909116815260200161020f565b34801561027757600080fd5b506101396102863660046150cb565b61104f565b34801561029757600080fd5b50600354610253906001600160a01b031681565b3480156102b757600080fd5b50600454610253906001600160a01b031681565b3480156102d757600080fd5b506101396102e636600461515f565b6110fc565b3480156102f757600080fd5b5061013961030636600461517c565b611207565b34801561031757600080fd5b50610361610326366004614ebb565b60056020908152600092835260408084209091529082529020805460019091015460ff8216916001600160a01b036101009091048116911683565b60405161020f939291906151d8565b61013961037e366004615226565b6117fe565b34801561038f57600080fd5b5061013961039e366004615299565b611a96565b3480156103af57600080fd5b506101396103be36600461515f565b611ade565b6000856001600160a01b03166394cc699e6040518163ffffffff1660e01b8152600401602060405180830381865afa158015610403573d6000803e3d6000fd5b505050506040513d601f19601f8201168201806040525081019061042791906152b2565b90506000866001600160a01b0316634f4ce61d6040518163ffffffff1660e01b8152600401602060405180830381865afa158015610469573d6000803e3d6000fd5b505050506040513d601f19601f8201168201806040525081019061048d91906152b2565b6040516370a0823160e01b81523060048201529091506000906001600160a01b038416906370a0823190602401602060405180830381865afa1580156104d7573d6000803e3d6000fd5b505050506040513d601f19601f820116820180604052508101906104fb91906152cf565b6040516370a0823160e01b81523060048201529091506000906001600160a01b038416906370a0823190602401602060405180830381865afa158015610545573d6000803e3d6000fd5b505050506040513d601f19601f8201168201806040525081019061056991906152cf565b90506105806001600160a01b03851633308b611b54565b6040516370a0823160e01b8152306004820152600090610607908b90879086906001600160a01b038316906370a0823190602401602060405180830381865afa1580156105d1573d6000803e3d6000fd5b505050506040513d601f19601f820116820180604052508101906105f591906152cf565b6105ff91906152fe565b8b8b8b611bc5565b6040516370a0823160e01b815230600482015290915081906001600160a01b038c16906370a0823190602401602060405180830381865afa158015610650573d6000803e3d6000fd5b505050506040513d601f19601f8201168201806040525081019061067491906152cf565b111561070457610704335b6040516370a0823160e01b815230600482015283906001600160a01b038e16906370a0823190602401602060405180830381865afa1580156106c5573d6000803e3d6000fd5b505050506040513d601f19601f820116820180604052508101906106e991906152cf565b6106f391906152fe565b6001600160a01b038d169190611f76565b6040516370a0823160e01b815230600482015282906001600160a01b038616906370a0823190602401602060405180830381865afa15801561074a573d6000803e3d6000fd5b505050506040513d601f19601f8201168201806040525081019061076e91906152cf565b11156107fd576107fd336040516370a0823160e01b815230600482015284906001600160a01b038816906370a0823190602401602060405180830381865afa1580156107be573d6000803e3d6000fd5b505050506040513d601f19601f820116820180604052508101906107e291906152cf565b6107ec91906152fe565b6001600160a01b0387169190611f76565b50505050505050505050565b610811611fa6565b6001600160a01b038216156108265781610833565b6003546001600160a01b03165b600380546001600160a01b0319166001600160a01b0392831617905581161561085c5780610869565b6004546001600160a01b03165b600480546001600160a01b0319166001600160a01b03929092169190911790555050565b610895611fa6565b600080546040516001600160a01b039091169047908381818185875af1925050503d80600081146108e2576040519150601f19603f3d011682016040523d82523d6000602084013e6108e7565b606091505b50509050806108f557600080fd5b50565b610900611fa6565b61090a8282612000565b5050565b610916611fa6565b6001600160a01b0380841660009081526005602090815260408083209386168352929052208151815483929190829060ff1916600183600281111561095d5761095d6151c2565b021790555060208201518154610100600160a81b0319166101006001600160a01b0392831602178255604090920151600190910180546001600160a01b03191691909216179055505050565b6109b1611fa6565b6109bb600061235e565b565b6000808890506000896001600160a01b0316634f4ce61d6040518163ffffffff1660e01b8152600401602060405180830381865afa158015610a03573d6000803e3d6000fd5b505050506040513d601f19601f82011682018060405250810190610a2791906152b2565b6040516370a0823160e01b81523060048201529091506000906001600160a01b038416906370a0823190602401602060405180830381865afa158015610a71573d6000803e3d6000fd5b505050506040513d601f19601f82011682018060405250810190610a9591906152cf565b6040516370a0823160e01b81523060048201529091506000906001600160a01b038416906370a0823190602401602060405180830381865afa158015610adf573d6000803e3d6000fd5b505050506040513d601f19601f82011682018060405250810190610b0391906152cf565b90506000610b1134476152fe565b9050610b286001600160a01b03861633308f611b54565b6001600160a01b038b16610b7d5760003411610b755760405162461bcd60e51b815260206004820152600760248201526609c8a8a888aa8960cb1b60448201526064015b60405180910390fd5b349950610b92565b610b926001600160a01b038c1633308d611b54565b836001600160a01b03168b6001600160a01b031614610bb957610bb78b858c8c6123ae565b505b6040516370a0823160e01b8152306004820152610c4490869084906001600160a01b038816906370a0823190602401602060405180830381865afa158015610c05573d6000803e3d6000fd5b505050506040513d601f19601f82011682018060405250810190610c2991906152cf565b610c3391906152fe565b6001600160a01b0387169190612cd6565b6040516370a0823160e01b81523060048201526001600160a01b03808f169163a9e9c8bc918691908916906370a0823190602401602060405180830381865afa158015610c95573d6000803e3d6000fd5b505050506040513d601f19601f82011682018060405250810190610cb991906152cf565b610cc391906152fe565b6040516370a0823160e01b815230600482015285906001600160a01b038916906370a0823190602401602060405180830381865afa158015610d09573d6000803e3d6000fd5b505050506040513d601f19601f82011682018060405250810190610d2d91906152cf565b610d3791906152fe565b6040516001600160e01b031960e085901b16815260048101929092526024820152604481018b9052606481018a90526084016020604051808303816000875af1158015610d88573d6000803e3d6000fd5b505050506040513d601f19601f82011682018060405250810190610dac91906152cf565b9550610eb98d6001600160a01b03166394cc699e6040518163ffffffff1660e01b8152600401602060405180830381865afa158015610def573d6000803e3d6000fd5b505050506040513d601f19601f82011682018060405250810190610e1391906152b2565b604051639f4f974560e01b81526001600160a01b038881166004830152878116602483015289917f000000000000000000000000000000000000000000000000000000000000000090911690639f4f974590604401602060405180830381865afa158015610e85573d6000803e3d6000fd5b505050506040513d601f19601f82011682018060405250810190610ea991906152b2565b6001600160a01b03169190612cd6565b8c6001600160a01b03166394cc699e6040518163ffffffff1660e01b8152600401602060405180830381865afa158015610ef7573d6000803e3d6000fd5b505050506040513d601f19601f82011682018060405250810190610f1b91906152b2565b6001600160a01b031663adc9772e336040516001600160e01b031960e084901b1681526001600160a01b03909116600482015260248101899052604401600060405180830381600087803b158015610f7257600080fd5b505af1158015610f86573d6000803e3d6000fd5b505050508047111561102957600033610f9f83476152fe565b604051600081818185875af1925050503d8060008114610fdb576040519150601f19603f3d011682016040523d82523d6000602084013e610fe0565b606091505b50509050808015610ff15750814710155b6110275760405162461bcd60e51b81526020600482015260076024820152660a89e9e9aaa86960cb1b6044820152606401610b6c565b505b611034338685612d83565b61103f338584612d83565b5050505050979650505050505050565b805160005b818110156110f75782818151811061106e5761106e615311565b60200260200101516001600160a01b031663d279c19161108b3390565b6040516001600160e01b031960e084901b1681526001600160a01b039091166004820152602401600060405180830381600087803b1580156110cc57600080fd5b505af11580156110e0573d6000803e3d6000fd5b5050505080806110ef90615327565b915050611054565b505050565b611104611fa6565b6040516370a0823160e01b81523060048201526000906001600160a01b038316906370a0823190602401602060405180830381865afa15801561114b573d6000803e3d6000fd5b505050506040513d601f19601f8201168201806040525081019061116f91906152cf565b1161117957600080fd5b6108f561118e6000546001600160a01b031690565b6040516370a0823160e01b81523060048201526001600160a01b038416906370a0823190602401602060405180830381865afa1580156111d2573d6000803e3d6000fd5b505050506040513d601f19601f820116820180604052508101906111f691906152cf565b6001600160a01b0384169190611f76565b6000846001600160a01b0316632acada4d6040518163ffffffff1660e01b8152600401600060405180830381865afa158015611247573d6000803e3d6000fd5b505050506040513d6000823e601f3d908101601f1916820160405261126f9190810190615340565b90506000815167ffffffffffffffff81111561128d5761128d614f24565b6040519080825280602002602001820160405280156112b6578160200160208202803683370190505b506040516370a0823160e01b81526001600160a01b0388811660048301529192506000918716906370a0823190602401602060405180830381865afa158015611303573d6000803e3d6000fd5b505050506040513d601f19601f8201168201806040525081019061132791906152cf565b90506000876001600160a01b03166318160ddd6040518163ffffffff1660e01b8152600401602060405180830381865afa158015611369573d6000803e3d6000fd5b505050506040513d601f19601f8201168201806040525081019061138d91906152cf565b156113b057816113a1600160601b88615424565b6113ab919061543b565b6113b6565b600160601b5b845190915060005b818110156116b05760008a6001600160a01b03166318160ddd6040518163ffffffff1660e01b8152600401602060405180830381865afa158015611406573d6000803e3d6000fd5b505050506040513d601f19601f8201168201806040525081019061142a91906152cf565b156114d757600160601b8488848151811061144757611447615311565b6020908102919091010151516040516370a0823160e01b81526001600160a01b038f81166004830152909116906370a0823190602401602060405180830381865afa15801561149a573d6000803e3d6000fd5b505050506040513d601f19601f820116820180604052508101906114be91906152cf565b6114c89190615424565b6114d2919061543b565b61157f565b8a6001600160a01b031663e4b549578b8b8a86815181106114fa576114fa615311565b6020908102919091010151516040516001600160e01b031960e086901b1681526001600160a01b0393841660048201526024810192909252919091166044820152606401602060405180830381865afa15801561155b573d6000803e3d6000fd5b505050506040513d601f19601f8201168201806040525081019061157f91906152cf565b905086828151811061159357611593615311565b6020908102919091010151516040516370a0823160e01b81523060048201526001600160a01b03909116906370a0823190602401602060405180830381865afa1580156115e4573d6000803e3d6000fd5b505050506040513d601f19601f8201168201806040525081019061160891906152cf565b86838151811061161a5761161a615311565b60209081029190910101526116623330838a868151811061163d5761163d615311565b6020026020010151600001516001600160a01b0316611b54909392919063ffffffff16565b61169d8b8289858151811061167957611679615311565b6020026020010151600001516001600160a01b0316612cd69092919063ffffffff16565b50806116a881615327565b9150506113be565b506040516370a0823160e01b81523060048201526000906001600160a01b038b16906370a0823190602401602060405180830381865afa1580156116f8573d6000803e3d6000fd5b505050506040513d601f19601f8201168201806040525081019061171c91906152cf565b60405163b08d033360e01b81526001600160a01b038b81166004830152602482018b9052604482018a9052919250908b169063b08d033390606401600060405180830381600087803b15801561177157600080fd5b505af1158015611785573d6000803e3d6000fd5b5050505061179361067f3390565b60005b828110156117f1576117df338883815181106117b4576117b4615311565b6020026020010151600001518884815181106117d2576117d2615311565b6020026020010151612d83565b806117e981615327565b915050611796565b5050505050505050505050565b600034116118375760405162461bcd60e51b81526020600482015260066024820152654e415449564560d01b6044820152606401610b6c565b600061184334476152fe565b90506000896001600160a01b0316632acada4d6040518163ffffffff1660e01b8152600401600060405180830381865afa158015611885573d6000803e3d6000fd5b505050506040513d6000823e601f3d908101601f191682016040526118ad9190810190615340565b90506000806118d48c866118c157346118cc565b6118cc60023461543b565b858e8e612e17565b9150915060005b835181101561192d57808c1461191b5761191b8d83838151811061190157611901615311565b602002602001015186848151811061167957611679615311565b8061192581615327565b9150506118db565b50600061197e8d858e8151811061194657611946615311565b602002602001015160000151848f8151811061196457611964615311565b60200260200101518d8a6119785733613080565b30613080565b9050851561199f5761199f338e8361199760023461543b565b8d8d8d613214565b60005b84518110156119f1576119df338683815181106119c1576119c1615311565b6020026020010151600001518684815181106117d2576117d2615311565b806119e981615327565b9150506119a2565b5084471115611a8757600033611a0787476152fe565b604051600081818185875af1925050503d8060008114611a43576040519150601f19603f3d011682016040523d82523d6000602084013e611a48565b606091505b5050905080611a855760405162461bcd60e51b815260206004820152600960248201526811551214915195539160ba1b6044820152606401610b6c565b505b50505050505050505050505050565b611a9e611fa6565b6103e8811115611ad95760405162461bcd60e51b8152602060048201526006602482015265424f554e445360d01b6044820152606401610b6c565b600255565b611ae6611fa6565b6001600160a01b038116611b4b5760405162461bcd60e51b815260206004820152602660248201527f4f776e61626c653a206e6577206f776e657220697320746865207a65726f206160448201526564647265737360d01b6064820152608401610b6c565b6108f58161235e565b6040516001600160a01b0380851660248301528316604482015260648101829052611bbf9085906323b872dd60e01b906084015b60408051601f198184030181529190526020810180516001600160e01b03166001600160e01b03199093169290921790915261398f565b50505050565b600080876001600160a01b0316634f4ce61d6040518163ffffffff1660e01b8152600401602060405180830381865afa158015611c06573d6000803e3d6000fd5b505050506040513d601f19601f82011682018060405250810190611c2a91906152b2565b604051639f4f974560e01b81526001600160a01b038a8116600483015280831660248301529192506000917f00000000000000000000000000000000000000000000000000000000000000001690639f4f974590604401602060405180830381865afa158015611c9e573d6000803e3d6000fd5b505050506040513d601f19601f82011682018060405250810190611cc291906152b2565b6040516370a0823160e01b81523060048201529091506000906001600160a01b038316906370a0823190602401602060405180830381865afa158015611d0c573d6000803e3d6000fd5b505050506040513d601f19601f82011682018060405250810190611d3091906152cf565b6040516305c2fbcf60e31b8152600481018a90529091506001600160a01b038a1690632e17de7890602401600060405180830381600087803b158015611d7557600080fd5b505af1158015611d89573d6000803e3d6000fd5b50506040516370a0823160e01b81523060048201526001600160a01b038d1692506370a082319150602401602060405180830381865afa158015611dd1573d6000803e3d6000fd5b505050506040513d601f19601f82011682018060405250810190611df591906152cf565b6040516370a0823160e01b8152306004820152909450611e84908b9083906001600160a01b038616906370a08231906024015b602060405180830381865afa158015611e45573d6000803e3d6000fd5b505050506040513d601f19601f82011682018060405250810190611e6991906152cf565b611e7391906152fe565b6001600160a01b0385169190612cd6565b6040516370a0823160e01b81523060048201526001600160a01b03808c169163f6823996918491908616906370a0823190602401602060405180830381865afa158015611ed5573d6000803e3d6000fd5b505050506040513d601f19601f82011682018060405250810190611ef991906152cf565b611f0391906152fe565b6040516001600160e01b031960e084901b1681526004810191909152602481018a90526044810189905260648101889052608401600060405180830381600087803b158015611f5157600080fd5b505af1158015611f65573d6000803e3d6000fd5b505050505050509695505050505050565b6040516001600160a01b0383166024820152604481018290526110f790849063a9059cbb60e01b90606401611b88565b6000546001600160a01b031633146109bb5760405162461bcd60e51b815260206004820181905260248201527f4f776e61626c653a2063616c6c6572206973206e6f7420746865206f776e65726044820152606401610b6c565b60008080846002811115612016576120166151c2565b0361214d5760405163c661065760e01b8152600060048201526001600160a01b0384169063c6610657906024016020604051808303816000875af1158015612062573d6000803e3d6000fd5b505050506040513d601f19601f8201168201806040525081019061208691906152b2565b60405163c661065760e01b8152600160048201529092506001600160a01b0384169063c6610657906024016020604051808303816000875af11580156120d0573d6000803e3d6000fd5b505050506040513d601f19601f820116820180604052508101906120f491906152b2565b6001600160a01b038481166000908152600660209081526040808320878516845290915280822080546fffffffffffffffffffffffffffffffff1990811690915592841682529020805490911660011790559050612216565b826001600160a01b0316630dfe16816040518163ffffffff1660e01b8152600401602060405180830381865afa15801561218b573d6000803e3d6000fd5b505050506040513d601f19601f820116820180604052508101906121af91906152b2565b9150826001600160a01b031663d21220a76040518163ffffffff1660e01b8152600401602060405180830381865afa1580156121ef573d6000803e3d6000fd5b505050506040513d601f19601f8201168201806040525081019061221391906152b2565b90505b60006040518060600160405280866002811115612235576122356151c2565b81526001600160a01b0380871660208084019190915260006040938401819052878316815260058252838120928716815291905220815181549293508392829060ff1916600183600281111561228d5761228d6151c2565b02179055506020828101518254610100600160a81b0319166101006001600160a01b0392831602178355604093840151600193840180546001600160a01b0319169183169190911790558581166000908152600583528481209188168152915291909120825181548493839160ff191690836002811115612310576123106151c2565b021790555060208201518154610100600160a81b0319166101006001600160a01b0392831602178255604090920151600190910180546001600160a01b031916919092161790555050505050565b600080546001600160a01b038381166001600160a01b0319831681178455604051919092169283917f8be0079c531659141344cd1fd0a4f28419497f9722a3daafe3b4186f6b6457e09190a35050565b60006001600160a01b03851661242c576123c783613a64565b92507f000000000000000000000000000000000000000000000000000000000000000094507f00000000000000000000000000000000000000000000000000000000000000006001600160a01b0316846001600160a01b03160361242c575081612cce565b6004546000906001600160a01b0380871691160361245657506003546001600160a01b0316935060015b6001600160a01b038516731bed97cbc3c24a4fb5c069c6e311a967386131f7148061249d57506001600160a01b03851673583019ff0f430721ada9cfb4fac8f06ca104d0b4145b1561253e577f00000000000000000000000000000000000000000000000000000000000000006001600160a01b0316866001600160a01b03161461250c5760405162461bcd60e51b81526020600482015260066024820152652ca2aa2424a760d11b6044820152606401610b6c565b61253684846001600160a01b03881673583019ff0f430721ada9cfb4fac8f06ca104d0b414613c02565b915050612cce565b6001600160a01b038616731bed97cbc3c24a4fb5c069c6e311a967386131f7148061258557506001600160a01b03861673583019ff0f430721ada9cfb4fac8f06ca104d0b4145b1561261f577f00000000000000000000000000000000000000000000000000000000000000006001600160a01b0316856001600160a01b0316146125f55760405162461bcd60e51b81526020600482015260076024820152661651551213d55560ca1b6044820152606401610b6c565b61253684846001600160a01b038916731bed97cbc3c24a4fb5c069c6e311a967386131f714613ce7565b6001600160a01b03808716600090815260056020908152604080832093891683529290528181208251606081019093528054919291829060ff16600281111561266a5761266a6151c2565b600281111561267b5761267b6151c2565b815281546001600160a01b036101009091048116602080840191909152600190930154811660409092019190915290820151919250166127515760408051600280825260608201835260009260208301908036833701905050905087816000815181106126ea576126ea615311565b60200260200101906001600160a01b031690816001600160a01b031681525050868160018151811061271e5761271e615311565b60200260200101906001600160a01b031690816001600160a01b031681525050612749818787613da9565b935050612b40565b60408101516001600160a01b03161515600082516002811115612776576127766151c2565b036127db57602080830180516001600160a01b038082166000908152600680865260408083208f85168452875280832054955184168352908652808220928d16825291909452909220546127d49291600f90810b91900b8989614025565b9350612b3e565b6001825160028111156127f0576127f06151c2565b036129ff57600082602001516001600160a01b0316630dfe16816040518163ffffffff1660e01b8152600401602060405180830381865afa158015612839573d6000803e3d6000fd5b505050506040513d601f19601f8201168201806040525081019061285d91906152b2565b905060008261286d576002612870565b60035b60ff1667ffffffffffffffff81111561288b5761288b614f24565b6040519080825280602002602001820160405280156128b4578160200160208202803683370190505b50905089816000815181106128cb576128cb615311565b60200260200101906001600160a01b031690816001600160a01b031681525050821561297b57896001600160a01b0316826001600160a01b031614612910578161297d565b83602001516001600160a01b031663d21220a76040518163ffffffff1660e01b8152600401602060405180830381865afa158015612952573d6000803e3d6000fd5b505050506040513d601f19601f8201168201806040525081019061297691906152b2565b61297d565b885b8160018151811061299057612990615311565b60200260200101906001600160a01b031690816001600160a01b03168152505082156129eb5788816002815181106129ca576129ca615311565b60200260200101906001600160a01b031690816001600160a01b0316815250505b6129f6818989613da9565b95505050612b3e565b8015612b2257600082602001516001600160a01b0316630dfe16816040518163ffffffff1660e01b8152600401602060405180830381865afa158015612a49573d6000803e3d6000fd5b505050506040513d601f19601f82011682018060405250810190612a6d91906152b2565b9050612b1a89612a808560200151614112565b8b6001600160a01b0316846001600160a01b031614612a9f5783612b05565b85602001516001600160a01b031663d21220a76040518163ffffffff1660e01b8152600401602060405180830381865afa158015612ae1573d6000803e3d6000fd5b505050506040513d601f19601f82011682018060405250810190612b0591906152b2565b612b128760400151614112565b8c8c8c61418d565b945050612b3e565b612b3b88612b338460200151614112565b898989614391565b93505b505b81612b4c575050612cce565b600480546040516370a0823160e01b815230928101929092526000916001600160a01b03909116906370a0823190602401602060405180830381865afa158015612b9a573d6000803e3d6000fd5b505050506040513d601f19601f82011682018060405250810190612bbe91906152cf565b600454600354919250612bde916001600160a01b03908116911686612cd6565b6004805460035460405163b08d033360e01b81526001600160a01b03918216938101939093526024830187905260006044840152169063b08d033390606401600060405180830381600087803b158015612c3757600080fd5b505af1158015612c4b573d6000803e3d6000fd5b5050600480546040516370a0823160e01b815230928101929092528493506001600160a01b031691506370a0823190602401602060405180830381865afa158015612c9a573d6000803e3d6000fd5b505050506040513d601f19601f82011682018060405250810190612cbe91906152cf565b612cc891906152fe565b93505050505b949350505050565b604051636eb1769f60e11b81523060048201526001600160a01b0383811660248301526000919085169063dd62ed3e90604401602060405180830381865afa158015612d26573d6000803e3d6000fd5b505050506040513d601f19601f82011682018060405250810190612d4a91906152cf565b9050611bbf8463095ea7b360e01b85612d63868661545d565b6040516001600160a01b0390921660248301526044820152606401611b88565b6040516370a0823160e01b81523060048201526000906001600160a01b038416906370a0823190602401602060405180830381865afa158015612dca573d6000803e3d6000fd5b505050506040513d601f19601f82011682018060405250810190612dee91906152cf565b905081811115611bbf57611bbf84612e0684846152fe565b6001600160a01b0386169190611f76565b6060806000855167ffffffffffffffff811115612e3657612e36614f24565b604051908082528060200260200182016040528015612e5f578160200160208202803683370190505b5090506000865167ffffffffffffffff811115612e7e57612e7e614f24565b604051908082528060200260200182016040528015612ea7578160200160208202803683370190505b5090506000878781518110612ebe57612ebe615311565b6020908102919091010151516040516370a0823160e01b81526001600160a01b038c81166004830152909116906370a0823190602401602060405180830381865afa158015612f11573d6000803e3d6000fd5b505050506040513d601f19601f82011682018060405250810190612f3591906152cf565b905060008a6001600160a01b03166318160ddd6040518163ffffffff1660e01b8152600401602060405180830381865afa158015612f77573d6000803e3d6000fd5b505050506040513d601f19601f82011682018060405250810190612f9b91906152cf565b15612fbe5781612faf600160601b89615424565b612fb9919061543b565b612fc4565b600160601b5b89519091508a9060005b8181101561306c5761301e8e8d8d81518110612fec57612fec615311565b6020026020010151600001518c8f858151811061300b5761300b615311565b6020026020010151600001518888614853565b89848151811061303057613030615311565b6020026020010189858151811061304957613049615311565b60209081029190910101919091525292508061306481615327565b915050612fce565b50949c939b50929950505050505050505050565b6040516370a0823160e01b815230600482015260009081906001600160a01b038816906370a0823190602401602060405180830381865afa1580156130c9573d6000803e3d6000fd5b505050506040513d601f19601f820116820180604052508101906130ed91906152cf565b90506131036001600160a01b0387168887612cd6565b60405163b08d033360e01b81526001600160a01b038781166004830152602482018790526044820186905288169063b08d033390606401600060405180830381600087803b15801561315457600080fd5b505af1158015613168573d6000803e3d6000fd5b50506040516370a0823160e01b8152306004820152600092508391506001600160a01b038a16906370a0823190602401602060405180830381865afa1580156131b5573d6000803e3d6000fd5b505050506040513d601f19601f820116820180604052508101906131d991906152cf565b6131e391906152fe565b90506001600160a01b0384163014613209576132096001600160a01b0389168583611f76565b979650505050505050565b6000866001600160a01b0316634f4ce61d6040518163ffffffff1660e01b8152600401602060405180830381865afa158015613254573d6000803e3d6000fd5b505050506040513d601f19601f8201168201806040525081019061327891906152b2565b6040516370a0823160e01b815230600482015290915060009087906001600160a01b038a16906370a0823190602401602060405180830381865afa1580156132c4573d6000803e3d6000fd5b505050506040513d601f19601f820116820180604052508101906132e891906152cf565b6132f291906152fe565b6040516370a0823160e01b81523060048201529091506000906001600160a01b038416906370a0823190602401602060405180830381865afa15801561333c573d6000803e3d6000fd5b505050506040513d601f19601f8201168201806040525081019061336091906152cf565b90506000896001600160a01b03166394cc699e6040518163ffffffff1660e01b8152600401602060405180830381865afa1580156133a2573d6000803e3d6000fd5b505050506040513d601f19601f820116820180604052508101906133c691906152b2565b90506133d56000858a8a6123ae565b50604051639f4f974560e01b81526001600160a01b038b8116600483015285811660248301526000917f000000000000000000000000000000000000000000000000000000000000000090911690639f4f974590604401602060405180830381865afa158015613449573d6000803e3d6000fd5b505050506040513d601f19601f8201168201806040525081019061346d91906152b2565b6040516370a0823160e01b81523060048201529091506000906001600160a01b038316906370a0823190602401602060405180830381865afa1580156134b7573d6000803e3d6000fd5b505050506040513d601f19601f820116820180604052508101906134db91906152cf565b6040516370a0823160e01b8152306004820152909150613569908d9086906001600160a01b038a16906370a0823190602401602060405180830381865afa15801561352a573d6000803e3d6000fd5b505050506040513d601f19601f8201168201806040525081019061354e91906152cf565b61355891906152fe565b6001600160a01b0389169190612cd6565b6040516370a0823160e01b81523060048201526001600160a01b03808e169163a9e9c8bc918e9188918b16906370a0823190602401602060405180830381865afa1580156135bb573d6000803e3d6000fd5b505050506040513d601f19601f820116820180604052508101906135df91906152cf565b6135e991906152fe565b6040516001600160e01b031960e085901b16815260048101929092526024820152604481018b9052606481018a90526084016020604051808303816000875af115801561363a573d6000803e3d6000fd5b505050506040513d601f19601f8201168201806040525081019061365e91906152cf565b506040516370a0823160e01b815230600482015261369390849083906001600160a01b038616906370a0823190602401611e28565b826001600160a01b031663adc9772e8e83856001600160a01b03166370a08231306040518263ffffffff1660e01b81526004016136df91906001600160a01b0391909116815260200190565b602060405180830381865afa1580156136fc573d6000803e3d6000fd5b505050506040513d601f19601f8201168201806040525081019061372091906152cf565b61372a91906152fe565b6040516001600160e01b031960e085901b1681526001600160a01b0390921660048301526024820152604401600060405180830381600087803b15801561377057600080fd5b505af1158015613784573d6000803e3d6000fd5b50506040516370a0823160e01b81523060048201528792506001600160a01b038f1691506370a0823190602401602060405180830381865afa1580156137ce573d6000803e3d6000fd5b505050506040513d601f19601f820116820180604052508101906137f291906152cf565b1115613894576138948d868e6001600160a01b03166370a08231306040518263ffffffff1660e01b815260040161383891906001600160a01b0391909116815260200190565b602060405180830381865afa158015613855573d6000803e3d6000fd5b505050506040513d601f19601f8201168201806040525081019061387991906152cf565b61388391906152fe565b6001600160a01b038f169190611f76565b6040516370a0823160e01b815230600482015284906001600160a01b038816906370a0823190602401602060405180830381865afa1580156138da573d6000803e3d6000fd5b505050506040513d601f19601f820116820180604052508101906138fe91906152cf565b1115611a87576040516370a0823160e01b8152306004820152611a87908e9086906001600160a01b038a16906370a0823190602401602060405180830381865afa158015613950573d6000803e3d6000fd5b505050506040513d601f19601f8201168201806040525081019061397491906152cf565b61397e91906152fe565b6001600160a01b0389169190611f76565b60006139e4826040518060400160405280602081526020017f5361666545524332303a206c6f772d6c6576656c2063616c6c206661696c6564815250856001600160a01b0316614d4f9092919063ffffffff16565b9050805160001480613a05575080806020019051810190613a059190615470565b6110f75760405162461bcd60e51b815260206004820152602a60248201527f5361666545524332303a204552433230206f7065726174696f6e20646964206e6044820152691bdd081cdd58d8d9595960b21b6064820152608401610b6c565b6040516370a0823160e01b815230600482015260009081906001600160a01b037f000000000000000000000000000000000000000000000000000000000000000016906370a0823190602401602060405180830381865afa158015613acd573d6000803e3d6000fd5b505050506040513d601f19601f82011682018060405250810190613af191906152cf565b90507f00000000000000000000000000000000000000000000000000000000000000006001600160a01b031663d0e30db0846040518263ffffffff1660e01b81526004016000604051808303818588803b158015613b4e57600080fd5b505af1158015613b62573d6000803e3d6000fd5b50506040516370a0823160e01b81523060048201528493507f00000000000000000000000000000000000000000000000000000000000000006001600160a01b031692506370a082319150602401602060405180830381865afa158015613bcd573d6000803e3d6000fd5b505050506040513d601f19601f82011682018060405250810190613bf191906152cf565b613bfb91906152fe565b9392505050565b600080613c287369accb968b19a53790f43e57558f5e443a91af22600060018888614025565b90508215612cce57613c63731bed97cbc3c24a4fb5c069c6e311a967386131f773583019ff0f430721ada9cfb4fac8f06ca104d0b483612cd6565b604051636e553f6560e01b81526004810182905230602482015273583019ff0f430721ada9cfb4fac8f06ca104d0b490636e553f65906044016020604051808303816000875af1158015613cbb573d6000803e3d6000fd5b505050506040513d601f19601f82011682018060405250810190613cdf91906152cf565b915050613bfb565b6000808215613cf7575083613d7d565b604051635d043b2960e11b8152600481018690523060248201819052604482015273583019ff0f430721ada9cfb4fac8f06ca104d0b49063ba087652906064016020604051808303816000875af1158015613d56573d6000803e3d6000fd5b505050506040513d601f19601f82011682018060405250810190613d7a91906152cf565b90505b613da07369accb968b19a53790f43e57558f5e443a91af22600160008488614025565b95945050505050565b6000808451600314613dd55784600181518110613dc857613dc8615311565b6020026020010151613df1565b84600281518110613de857613de8615311565b60200260200101515b6040516370a0823160e01b81523060048201529091506000906001600160a01b038316906370a0823190602401602060405180830381865afa158015613e3b573d6000803e3d6000fd5b505050506040513d601f19601f82011682018060405250810190613e5f91906152cf565b9050613eb97f00000000000000000000000000000000000000000000000000000000000000008688600081518110613e9957613e99615311565b60200260200101516001600160a01b0316612cd69092919063ffffffff16565b7f00000000000000000000000000000000000000000000000000000000000000006001600160a01b03166383e4b89f87600081518110613efb57613efb615311565b602002602001015188600181518110613f1657613f16615311565b60209081029190910101516040516001600160e01b031960e085901b1681526001600160a01b03928316600482015291166024820152604481018890526064810187905230608482015260a4016020604051808303816000875af1158015613f82573d6000803e3d6000fd5b505050506040513d601f19601f82011682018060405250810190613fa691906152cf565b506040516370a0823160e01b815230600482015281906001600160a01b038416906370a0823190602401602060405180830381865afa158015613fed573d6000803e3d6000fd5b505050506040513d601f19601f8201168201806040525081019061401191906152cf565b61401b91906152fe565b9695505050505050565b60405163c661065760e01b81526fffffffffffffffffffffffffffffffff8516600482015260009061408890879085906001600160a01b0383169063c6610657906024016020604051808303816000875af1158015610e85573d6000803e3d6000fd5b60405163ddc1f59d60e01b8152600f86810b600483015285900b602482015260448101849052606481018390523060848201526001600160a01b0387169063ddc1f59d9060a4016020604051808303816000875af11580156140ee573d6000803e3d6000fd5b505050506040513d601f19601f8201168201806040525081019061401b91906152cf565b60004661a4b11461418457816001600160a01b031663ddca3f436040518163ffffffff1660e01b8152600401602060405180830381865afa15801561415b573d6000803e3d6000fd5b505050506040513d601f19601f8201168201806040525081019061417f919061548d565b614187565b60005b92915050565b6040516370a0823160e01b815230600482015260009081906001600160a01b038616906370a0823190602401602060405180830381865afa1580156141d6573d6000803e3d6000fd5b505050506040513d601f19601f820116820180604052508101906141fa91906152cf565b600154909150614217906001600160a01b038b8116911686612cd6565b6040516bffffffffffffffffffffffff1960608b811b821660208401526001600160e81b031960e88c811b821660348601528b831b841660378601528a901b16604b84015287901b16604e82015260009060620160408051601f1981840301815260015460a08401835281845230602085015242848401526060840189905260808401889052915163c04b8d5960e01b81529093506001600160a01b039091169163c04b8d59916142cb9190600401615502565b6020604051808303816000875af11580156142ea573d6000803e3d6000fd5b505050506040513d601f19601f8201168201806040525081019061430e91906152cf565b506040516370a0823160e01b815230600482015282906001600160a01b038816906370a0823190602401602060405180830381865afa158015614355573d6000803e3d6000fd5b505050506040513d601f19601f8201168201806040525081019061437991906152cf565b61438391906152fe565b9a9950505050505050505050565b6000816000036146545760405163e3ddd77960e01b81526001600160a01b038781166004830152858116602483015261271060448301526000917f00000000000000000000000000000000000000000000000000000000000000009091169063e3ddd77990606401602060405180830381865afa925050508015614432575060408051601f3d908101601f1916820190925261442f918101906152b2565b60015b6144d657604051630a8e060f60e01b81526001600160a01b038881166004830152868116602483015260c860448301527f00000000000000000000000000000000000000000000000000000000000000001690630a8e060f90606401602060405180830381865afa1580156144ab573d6000803e3d6000fd5b505050506040513d601f19601f820116820180604052508101906144cf91906152b2565b90506144d9565b90505b6000856001600160a01b0316886001600160a01b0316106144fa57856144fc565b875b604051637fb4f79d60e01b81526001600160a01b0384811660048301529192506000917f0000000000000000000000000000000000000000000000000000000000000000169063d4bf1334908290637fb4f79d90602401602060405180830381865afa158015614570573d6000803e3d6000fd5b505050506040513d601f19601f8201168201806040525081019061459491906152b2565b6040516001600160e01b031960e084901b1681526001600160a01b039091166004820152602401602060405180830381865afa1580156145d8573d6000803e3d6000fd5b505050506040513d601f19601f820116820180604052508101906145fc91906152cf565b9050816001600160a01b0316896001600160a01b0316146146355780614626600160601b88615424565b614630919061543b565b61464e565b600160601b6146448783615424565b61464e919061543b565b94505050505b6040516370a0823160e01b81523060048201526000906001600160a01b038616906370a0823190602401602060405180830381865afa15801561469b573d6000803e3d6000fd5b505050506040513d601f19601f820116820180604052508101906146bf91906152cf565b90506146f56001600160a01b0388167f000000000000000000000000000000000000000000000000000000000000000086612cd6565b7f00000000000000000000000000000000000000000000000000000000000000006001600160a01b0316638d5752d6888789886103e86002546103e861473b91906152fe565b614745908b615424565b61474f919061543b565b6040516001600160e01b031960e088901b1681526001600160a01b03958616600482015294909316602485015262ffffff9091166044840152606483015260848201523060a482015260c4016020604051808303816000875af11580156147ba573d6000803e3d6000fd5b505050506040513d601f19601f820116820180604052508101906147de91906152cf565b506040516370a0823160e01b815230600482015281906001600160a01b038716906370a0823190602401602060405180830381865afa158015614825573d6000803e3d6000fd5b505050506040513d601f19601f8201168201806040525081019061484991906152cf565b61320991906152fe565b6000806000807f00000000000000000000000000000000000000000000000000000000000000006001600160a01b031663ad5c46486040518163ffffffff1660e01b8152600401602060405180830381865afa1580156148b7573d6000803e3d6000fd5b505050506040513d601f19601f820116820180604052508101906148db91906152b2565b90504715614958577f00000000000000000000000000000000000000000000000000000000000000006001600160a01b031663d0e30db0476040518263ffffffff1660e01b81526004016000604051808303818588803b15801561493e57600080fd5b505af1158015614952573d6000803e3d6000fd5b50505050505b6040516370a0823160e01b81523060048201526000906001600160a01b038316906370a0823190602401602060405180830381865afa15801561499f573d6000803e3d6000fd5b505050506040513d601f19601f820116820180604052508101906149c391906152cf565b6040516370a0823160e01b81523060048201529091506001600160a01b038916906370a0823190602401602060405180830381865afa158015614a0a573d6000803e3d6000fd5b505050506040513d601f19601f82011682018060405250810190614a2e91906152cf565b935060008b6001600160a01b03166318160ddd6040518163ffffffff1660e01b8152600401602060405180830381865afa158015614a70573d6000803e3d6000fd5b505050506040513d601f19601f82011682018060405250810190614a9491906152cf565b15614b24576040516370a0823160e01b81526001600160a01b038d81166004830152600160601b918a918c16906370a0823190602401602060405180830381865afa158015614ae7573d6000803e3d6000fd5b505050506040513d601f19601f82011682018060405250810190614b0b91906152cf565b614b159190615424565b614b1f919061543b565b614b9d565b60405163e4b5495760e01b81526001600160a01b038c81166004830152602482018c90528a811660448301528d169063e4b5495790606401602060405180830381865afa158015614b79573d6000803e3d6000fd5b505050506040513d601f19601f82011682018060405250810190614b9d91906152cf565b6040516383e4b89f60e01b81526001600160a01b0385811660048301528b81166024830152604482018a9052606482018390523060848301529192507f0000000000000000000000000000000000000000000000000000000000000000909116906383e4b89f9060a4016020604051808303816000875af1158015614c26573d6000803e3d6000fd5b505050506040513d601f19601f82011682018060405250810190614c4a91906152cf565b506040516370a0823160e01b81523060048201526001600160a01b038416906370a0823190602401602060405180830381865afa158015614c8f573d6000803e3d6000fd5b505050506040513d601f19601f82011682018060405250810190614cb391906152cf565b614cbd90836152fe565b614cc790886152fe565b6040516370a0823160e01b815230600482015290965085906001600160a01b038b16906370a0823190602401602060405180830381865afa158015614d10573d6000803e3d6000fd5b505050506040513d601f19601f82011682018060405250810190614d3491906152cf565b614d3e91906152fe565b935050505096509650969350505050565b6060612cce848460008585600080866001600160a01b03168587604051614d76919061555a565b60006040518083038185875af1925050503d8060008114614db3576040519150601f19603f3d011682016040523d82523d6000602084013e614db8565b606091505b50915091506132098783838760608315614e33578251600003614e2c576001600160a01b0385163b614e2c5760405162461bcd60e51b815260206004820152601d60248201527f416464726573733a2063616c6c20746f206e6f6e2d636f6e74726163740000006044820152606401610b6c565b5081612cce565b612cce8383815115614e485781518083602001fd5b8060405162461bcd60e51b8152600401610b6c9190615576565b6001600160a01b03811681146108f557600080fd5b600080600080600060a08688031215614e8f57600080fd5b8535614e9a81614e62565b97602087013597506040870135966060810135965060800135945092505050565b60008060408385031215614ece57600080fd5b8235614ed981614e62565b91506020830135614ee981614e62565b809150509250929050565b803560038110614f0357600080fd5b919050565b60008060408385031215614f1b57600080fd5b614ed983614ef4565b634e487b7160e01b600052604160045260246000fd5b60405160a0810167ffffffffffffffff81118282101715614f5d57614f5d614f24565b60405290565b604051601f8201601f1916810167ffffffffffffffff81118282101715614f8c57614f8c614f24565b604052919050565b600080600083850360a0811215614faa57600080fd5b8435614fb581614e62565b93506020850135614fc581614e62565b92506060603f1982011215614fd957600080fd5b506040516060810181811067ffffffffffffffff82111715614ffd57614ffd614f24565b806040525061500e60408601614ef4565b8152606085013561501e81614e62565b6020820152608085013561503181614e62565b604082015292959194509192509050565b600080600080600080600060e0888a03121561505d57600080fd5b873561506881614e62565b965060208801359550604088013561507f81614e62565b969995985095966060810135965060808101359560a0820135955060c0909101359350915050565b600067ffffffffffffffff8211156150c1576150c1614f24565b5060051b60200190565b600060208083850312156150de57600080fd5b823567ffffffffffffffff8111156150f557600080fd5b8301601f8101851361510657600080fd5b8035615119615114826150a7565b614f63565b81815260059190911b8201830190838101908783111561513857600080fd5b928401925b8284101561320957833561515081614e62565b8252928401929084019061513d565b60006020828403121561517157600080fd5b8135613bfb81614e62565b6000806000806080858703121561519257600080fd5b843561519d81614e62565b935060208501356151ad81614e62565b93969395505050506040820135916060013590565b634e487b7160e01b600052602160045260246000fd5b60608101600385106151fa57634e487b7160e01b600052602160045260246000fd5b9381526001600160a01b039283166020820152911660409091015290565b80151581146108f557600080fd5b600080600080600080600080610100898b03121561524357600080fd5b883561524e81614e62565b97506020890135965060408901359550606089013594506080890135935060a0890135925060c0890135915060e089013561528881615218565b809150509295985092959890939650565b6000602082840312156152ab57600080fd5b5035919050565b6000602082840312156152c457600080fd5b8151613bfb81614e62565b6000602082840312156152e157600080fd5b5051919050565b634e487b7160e01b600052601160045260246000fd5b81810381811115614187576141876152e8565b634e487b7160e01b600052603260045260246000fd5b600060018201615339576153396152e8565b5060010190565b6000602080838503121561535357600080fd5b825167ffffffffffffffff81111561536a57600080fd5b8301601f8101851361537b57600080fd5b8051615389615114826150a7565b81815260a091820283018401918482019190888411156153a857600080fd5b938501935b838510156154185780858a0312156153c55760008081fd5b6153cd614f3a565b85516153d881614e62565b81528587015187820152604080870151908201526060808701516153fb81614e62565b9082015260808681015190820152835293840193918501916153ad565b50979650505050505050565b8082028115828204841417614187576141876152e8565b60008261545857634e487b7160e01b600052601260045260246000fd5b500490565b80820180821115614187576141876152e8565b60006020828403121561548257600080fd5b8151613bfb81615218565b60006020828403121561549f57600080fd5b815162ffffff81168114613bfb57600080fd5b60005b838110156154cd5781810151838201526020016154b5565b50506000910152565b600081518084526154ee8160208601602086016154b2565b601f01601f19169290920160200192915050565b602081526000825160a0602084015261551e60c08401826154d6565b905060018060a01b0360208501511660408401526040840151606084015260608401516080840152608084015160a08401528091505092915050565b6000825161556c8184602087016154b2565b9190910192915050565b602081526000613bfb60208301846154d656fea2646970667358221220adee29c77d20f6e72b82967dfc36410b62e10cffc8fdb57e1071a2fcdf9e4d9864736f6c63430008130033","linkReferences":{}},"methodIdentifiers":{"OHM()":"a6c41fec","addLPAndStake(address,uint256,address,uint256,uint256,uint256,uint256)":"84614e1a","bond(address,address,uint256,uint256)":"d71f11fb","bondWeightedFromNative(address,uint256,uint256,uint256,uint256,uint256,uint256,bool)":"e679daf5","claimRewardsMulti(address[])":"a1879d90","curveTokenIdx(address,address)":"816846c8","owner()":"8da5cb5b","pOHM()":"ae7eb646","renounceOwnership()":"715018a6","rescueERC20(address)":"ccec3716","rescueETH()":"20800a00","setOHM(address,address)":"205b7d03","setSlippage(uint256)":"f0fa55a9","setZapMap(address,address,(uint8,address,address))":"53eedc67","setZapMapFromPoolSingle(uint8,address)":"38e78111","transferOwnership(address)":"f2fde38b","unstakeAndRemoveLP(address,uint256,uint256,uint256,uint256)":"1fd8ecd9","zapMap(address,address)":"e42f5343"},"id":136}