{"abi":[{"type":"constructor","inputs":[{"name":"_configData","type":"bytes","internalType":"bytes"},{"name":"_immutables","type":"bytes","internalType":"bytes"},{"name":"_customConfigData","type":"bytes","internalType":"bytes"}],"stateMutability":"nonpayable"},{"type":"function","name":"DEPLOYER_ADDRESS","inputs":[],"outputs":[{"name":"","type":"address","internalType":"address"}],"stateMutability":"view"},{"type":"function","name":"DEVIATION_PRECISION","inputs":[],"outputs":[{"name":"","type":"uint256","internalType":"uint256"}],"stateMutability":"view"},{"type":"function","name":"EXCHANGE_PRECISION","inputs":[],"outputs":[{"name":"","type":"uint256","internalType":"uint256"}],"stateMutability":"view"},{"type":"function","name":"FEE_PRECISION","inputs":[],"outputs":[{"name":"","type":"uint256","internalType":"uint256"}],"stateMutability":"view"},{"type":"function","name":"LIQ_PRECISION","inputs":[],"outputs":[{"name":"","type":"uint256","internalType":"uint256"}],"stateMutability":"view"},{"type":"function","name":"LTV_PRECISION","inputs":[],"outputs":[{"name":"","type":"uint256","internalType":"uint256"}],"stateMutability":"view"},{"type":"function","name":"MAX_PROTOCOL_FEE","inputs":[],"outputs":[{"name":"","type":"uint256","internalType":"uint256"}],"stateMutability":"view"},{"type":"function","name":"RATE_PRECISION","inputs":[],"outputs":[{"name":"","type":"uint256","internalType":"uint256"}],"stateMutability":"view"},{"type":"function","name":"UTIL_PREC","inputs":[],"outputs":[{"name":"","type":"uint256","internalType":"uint256"}],"stateMutability":"view"},{"type":"function","name":"acceptOwnership","inputs":[],"outputs":[],"stateMutability":"nonpayable"},{"type":"function","name":"acceptTransferTimelock","inputs":[],"outputs":[],"stateMutability":"nonpayable"},{"type":"function","name":"addCollateral","inputs":[{"name":"_collateralAmount","type":"uint256","internalType":"uint256"},{"name":"_borrower","type":"address","internalType":"address"}],"outputs":[],"stateMutability":"nonpayable"},{"type":"function","name":"addInterest","inputs":[{"name":"_returnAccounting","type":"bool","internalType":"bool"}],"outputs":[{"name":"_interestEarned","type":"uint256","internalType":"uint256"},{"name":"_feesAmount","type":"uint256","internalType":"uint256"},{"name":"_feesShare","type":"uint256","internalType":"uint256"},{"name":"_currentRateInfo","type":"tuple","internalType":"struct FraxlendPairCore.CurrentRateInfo","components":[{"name":"lastBlock","type":"uint32","internalType":"uint32"},{"name":"feeToProtocolRate","type":"uint32","internalType":"uint32"},{"name":"lastTimestamp","type":"uint64","internalType":"uint64"},{"name":"ratePerSec","type":"uint64","internalType":"uint64"},{"name":"fullUtilizationRate","type":"uint64","internalType":"uint64"}]},{"name":"_totalAsset","type":"tuple","internalType":"struct VaultAccount","components":[{"name":"amount","type":"uint128","internalType":"uint128"},{"name":"shares","type":"uint128","internalType":"uint128"}]},{"name":"_totalBorrow","type":"tuple","internalType":"struct VaultAccount","components":[{"name":"amount","type":"uint128","internalType":"uint128"},{"name":"shares","type":"uint128","internalType":"uint128"}]}],"stateMutability":"nonpayable"},{"type":"function","name":"allowance","inputs":[{"name":"owner","type":"address","internalType":"address"},{"name":"spender","type":"address","internalType":"address"}],"outputs":[{"name":"","type":"uint256","internalType":"uint256"}],"stateMutability":"view"},{"type":"function","name":"approve","inputs":[{"name":"spender","type":"address","internalType":"address"},{"name":"amount","type":"uint256","internalType":"uint256"}],"outputs":[{"name":"","type":"bool","internalType":"bool"}],"stateMutability":"nonpayable"},{"type":"function","name":"asset","inputs":[],"outputs":[{"name":"","type":"address","internalType":"address"}],"stateMutability":"view"},{"type":"function","name":"balanceOf","inputs":[{"name":"account","type":"address","internalType":"address"}],"outputs":[{"name":"","type":"uint256","internalType":"uint256"}],"stateMutability":"view"},{"type":"function","name":"borrowAsset","inputs":[{"name":"_borrowAmount","type":"uint256","internalType":"uint256"},{"name":"_collateralAmount","type":"uint256","internalType":"uint256"},{"name":"_receiver","type":"address","internalType":"address"}],"outputs":[{"name":"_shares","type":"uint256","internalType":"uint256"}],"stateMutability":"nonpayable"},{"type":"function","name":"borrowLimit","inputs":[],"outputs":[{"name":"","type":"uint256","internalType":"uint256"}],"stateMutability":"view"},{"type":"function","name":"changeFee","inputs":[{"name":"_newFee","type":"uint32","internalType":"uint32"}],"outputs":[],"stateMutability":"nonpayable"},{"type":"function","name":"circuitBreakerAddress","inputs":[],"outputs":[{"name":"","type":"address","internalType":"address"}],"stateMutability":"view"},{"type":"function","name":"cleanLiquidationFee","inputs":[],"outputs":[{"name":"","type":"uint256","internalType":"uint256"}],"stateMutability":"view"},{"type":"function","name":"collateralContract","inputs":[],"outputs":[{"name":"","type":"address","internalType":"contract IERC20"}],"stateMutability":"view"},{"type":"function","name":"convertToAssets","inputs":[{"name":"_shares","type":"uint256","internalType":"uint256"}],"outputs":[{"name":"_assets","type":"uint256","internalType":"uint256"}],"stateMutability":"view"},{"type":"function","name":"convertToShares","inputs":[{"name":"_assets","type":"uint256","internalType":"uint256"}],"outputs":[{"name":"_shares","type":"uint256","internalType":"uint256"}],"stateMutability":"view"},{"type":"function","name":"currentRateInfo","inputs":[],"outputs":[{"name":"lastBlock","type":"uint32","internalType":"uint32"},{"name":"feeToProtocolRate","type":"uint32","internalType":"uint32"},{"name":"lastTimestamp","type":"uint64","internalType":"uint64"},{"name":"ratePerSec","type":"uint64","internalType":"uint64"},{"name":"fullUtilizationRate","type":"uint64","internalType":"uint64"}],"stateMutability":"view"},{"type":"function","name":"decimals","inputs":[],"outputs":[{"name":"","type":"uint8","internalType":"uint8"}],"stateMutability":"view"},{"type":"function","name":"decreaseAllowance","inputs":[{"name":"spender","type":"address","internalType":"address"},{"name":"subtractedValue","type":"uint256","internalType":"uint256"}],"outputs":[{"name":"","type":"bool","internalType":"bool"}],"stateMutability":"nonpayable"},{"type":"function","name":"deposit","inputs":[{"name":"_amount","type":"uint256","internalType":"uint256"},{"name":"_receiver","type":"address","internalType":"address"}],"outputs":[{"name":"_sharesReceived","type":"uint256","internalType":"uint256"}],"stateMutability":"nonpayable"},{"type":"function","name":"depositLimit","inputs":[],"outputs":[{"name":"","type":"uint256","internalType":"uint256"}],"stateMutability":"view"},{"type":"function","name":"dirtyLiquidationFee","inputs":[],"outputs":[{"name":"","type":"uint256","internalType":"uint256"}],"stateMutability":"view"},{"type":"function","name":"exchangeRateInfo","inputs":[],"outputs":[{"name":"oracle","type":"address","internalType":"address"},{"name":"maxOracleDeviation","type":"uint32","internalType":"uint32"},{"name":"lastTimestamp","type":"uint184","internalType":"uint184"},{"name":"lowExchangeRate","type":"uint256","internalType":"uint256"},{"name":"highExchangeRate","type":"uint256","internalType":"uint256"}],"stateMutability":"view"},{"type":"function","name":"externalAssetVault","inputs":[],"outputs":[{"name":"","type":"address","internalType":"contract IERC4626Extended"}],"stateMutability":"view"},{"type":"function","name":"getConstants","inputs":[],"outputs":[{"name":"_LTV_PRECISION","type":"uint256","internalType":"uint256"},{"name":"_LIQ_PRECISION","type":"uint256","internalType":"uint256"},{"name":"_UTIL_PREC","type":"uint256","internalType":"uint256"},{"name":"_FEE_PRECISION","type":"uint256","internalType":"uint256"},{"name":"_EXCHANGE_PRECISION","type":"uint256","internalType":"uint256"},{"name":"_DEVIATION_PRECISION","type":"uint256","internalType":"uint256"},{"name":"_RATE_PRECISION","type":"uint256","internalType":"uint256"},{"name":"_MAX_PROTOCOL_FEE","type":"uint256","internalType":"uint256"}],"stateMutability":"pure"},{"type":"function","name":"getPairAccounting","inputs":[],"outputs":[{"name":"_totalAssetAmount","type":"uint128","internalType":"uint128"},{"name":"_totalAssetShares","type":"uint128","internalType":"uint128"},{"name":"_totalBorrowAmount","type":"uint128","internalType":"uint128"},{"name":"_totalBorrowShares","type":"uint128","internalType":"uint128"},{"name":"_totalCollateral","type":"uint256","internalType":"uint256"}],"stateMutability":"view"},{"type":"function","name":"getUserSnapshot","inputs":[{"name":"_address","type":"address","internalType":"address"}],"outputs":[{"name":"_userAssetShares","type":"uint256","internalType":"uint256"},{"name":"_userBorrowShares","type":"uint256","internalType":"uint256"},{"name":"_userCollateralBalance","type":"uint256","internalType":"uint256"}],"stateMutability":"view"},{"type":"function","name":"increaseAllowance","inputs":[{"name":"spender","type":"address","internalType":"address"},{"name":"addedValue","type":"uint256","internalType":"uint256"}],"outputs":[{"name":"","type":"bool","internalType":"bool"}],"stateMutability":"nonpayable"},{"type":"function","name":"isBorrowAccessControlRevoked","inputs":[],"outputs":[{"name":"","type":"bool","internalType":"bool"}],"stateMutability":"view"},{"type":"function","name":"isDepositAccessControlRevoked","inputs":[],"outputs":[{"name":"","type":"bool","internalType":"bool"}],"stateMutability":"view"},{"type":"function","name":"isInterestAccessControlRevoked","inputs":[],"outputs":[{"name":"","type":"bool","internalType":"bool"}],"stateMutability":"view"},{"type":"function","name":"isInterestPaused","inputs":[],"outputs":[{"name":"","type":"bool","internalType":"bool"}],"stateMutability":"view"},{"type":"function","name":"isLiquidateAccessControlRevoked","inputs":[],"outputs":[{"name":"","type":"bool","internalType":"bool"}],"stateMutability":"view"},{"type":"function","name":"isLiquidatePaused","inputs":[],"outputs":[{"name":"","type":"bool","internalType":"bool"}],"stateMutability":"view"},{"type":"function","name":"isLiquidationFeeSetterRevoked","inputs":[],"outputs":[{"name":"","type":"bool","internalType":"bool"}],"stateMutability":"view"},{"type":"function","name":"isMaxLTVSetterRevoked","inputs":[],"outputs":[{"name":"","type":"bool","internalType":"bool"}],"stateMutability":"view"},{"type":"function","name":"isOracleSetterRevoked","inputs":[],"outputs":[{"name":"","type":"bool","internalType":"bool"}],"stateMutability":"view"},{"type":"function","name":"isRateContractSetterRevoked","inputs":[],"outputs":[{"name":"","type":"bool","internalType":"bool"}],"stateMutability":"view"},{"type":"function","name":"isRepayAccessControlRevoked","inputs":[],"outputs":[{"name":"","type":"bool","internalType":"bool"}],"stateMutability":"view"},{"type":"function","name":"isRepayPaused","inputs":[],"outputs":[{"name":"","type":"bool","internalType":"bool"}],"stateMutability":"view"},{"type":"function","name":"isWithdrawAccessControlRevoked","inputs":[],"outputs":[{"name":"","type":"bool","internalType":"bool"}],"stateMutability":"view"},{"type":"function","name":"isWithdrawPaused","inputs":[],"outputs":[{"name":"","type":"bool","internalType":"bool"}],"stateMutability":"view"},{"type":"function","name":"leveragedPosition","inputs":[{"name":"_swapperAddress","type":"address","internalType":"address"},{"name":"_borrowAmount","type":"uint256","internalType":"uint256"},{"name":"_initialCollateralAmount","type":"uint256","internalType":"uint256"},{"name":"_amountCollateralOutMin","type":"uint256","internalType":"uint256"},{"name":"_path","type":"address[]","internalType":"address[]"}],"outputs":[{"name":"_totalCollateralBalance","type":"uint256","internalType":"uint256"}],"stateMutability":"nonpayable"},{"type":"function","name":"liquidate","inputs":[{"name":"_sharesToLiquidate","type":"uint128","internalType":"uint128"},{"name":"_deadline","type":"uint256","internalType":"uint256"},{"name":"_borrower","type":"address","internalType":"address"}],"outputs":[{"name":"_collateralForLiquidator","type":"uint256","internalType":"uint256"}],"stateMutability":"nonpayable"},{"type":"function","name":"maxDeposit","inputs":[{"name":"","type":"address","internalType":"address"}],"outputs":[{"name":"_maxAssets","type":"uint256","internalType":"uint256"}],"stateMutability":"view"},{"type":"function","name":"maxLTV","inputs":[],"outputs":[{"name":"","type":"uint256","internalType":"uint256"}],"stateMutability":"view"},{"type":"function","name":"maxMint","inputs":[{"name":"","type":"address","internalType":"address"}],"outputs":[{"name":"_maxShares","type":"uint256","internalType":"uint256"}],"stateMutability":"view"},{"type":"function","name":"maxRedeem","inputs":[{"name":"_owner","type":"address","internalType":"address"}],"outputs":[{"name":"_maxShares","type":"uint256","internalType":"uint256"}],"stateMutability":"view"},{"type":"function","name":"maxWithdraw","inputs":[{"name":"_owner","type":"address","internalType":"address"}],"outputs":[{"name":"_maxAssets","type":"uint256","internalType":"uint256"}],"stateMutability":"view"},{"type":"function","name":"mint","inputs":[{"name":"_shares","type":"uint256","internalType":"uint256"},{"name":"_receiver","type":"address","internalType":"address"}],"outputs":[{"name":"_amount","type":"uint256","internalType":"uint256"}],"stateMutability":"nonpayable"},{"type":"function","name":"name","inputs":[],"outputs":[{"name":"","type":"string","internalType":"string"}],"stateMutability":"view"},{"type":"function","name":"owner","inputs":[],"outputs":[{"name":"","type":"address","internalType":"address"}],"stateMutability":"view"},{"type":"function","name":"pause","inputs":[],"outputs":[],"stateMutability":"nonpayable"},{"type":"function","name":"pauseBorrow","inputs":[],"outputs":[],"stateMutability":"nonpayable"},{"type":"function","name":"pauseDeposit","inputs":[],"outputs":[],"stateMutability":"nonpayable"},{"type":"function","name":"pauseInterest","inputs":[{"name":"_isPaused","type":"bool","internalType":"bool"}],"outputs":[],"stateMutability":"nonpayable"},{"type":"function","name":"pauseLiquidate","inputs":[{"name":"_isPaused","type":"bool","internalType":"bool"}],"outputs":[],"stateMutability":"nonpayable"},{"type":"function","name":"pauseRepay","inputs":[{"name":"_isPaused","type":"bool","internalType":"bool"}],"outputs":[],"stateMutability":"nonpayable"},{"type":"function","name":"pauseWithdraw","inputs":[{"name":"_isPaused","type":"bool","internalType":"bool"}],"outputs":[],"stateMutability":"nonpayable"},{"type":"function","name":"pendingOwner","inputs":[],"outputs":[{"name":"","type":"address","internalType":"address"}],"stateMutability":"view"},{"type":"function","name":"pendingTimelockAddress","inputs":[],"outputs":[{"name":"","type":"address","internalType":"address"}],"stateMutability":"view"},{"type":"function","name":"previewAddInterest","inputs":[],"outputs":[{"name":"_interestEarned","type":"uint256","internalType":"uint256"},{"name":"_feesAmount","type":"uint256","internalType":"uint256"},{"name":"_feesShare","type":"uint256","internalType":"uint256"},{"name":"_newCurrentRateInfo","type":"tuple","internalType":"struct FraxlendPairCore.CurrentRateInfo","components":[{"name":"lastBlock","type":"uint32","internalType":"uint32"},{"name":"feeToProtocolRate","type":"uint32","internalType":"uint32"},{"name":"lastTimestamp","type":"uint64","internalType":"uint64"},{"name":"ratePerSec","type":"uint64","internalType":"uint64"},{"name":"fullUtilizationRate","type":"uint64","internalType":"uint64"}]},{"name":"_totalAsset","type":"tuple","internalType":"struct VaultAccount","components":[{"name":"amount","type":"uint128","internalType":"uint128"},{"name":"shares","type":"uint128","internalType":"uint128"}]},{"name":"_totalBorrow","type":"tuple","internalType":"struct VaultAccount","components":[{"name":"amount","type":"uint128","internalType":"uint128"},{"name":"shares","type":"uint128","internalType":"uint128"}]}],"stateMutability":"view"},{"type":"function","name":"previewDeposit","inputs":[{"name":"_assets","type":"uint256","internalType":"uint256"}],"outputs":[{"name":"_sharesReceived","type":"uint256","internalType":"uint256"}],"stateMutability":"view"},{"type":"function","name":"previewMint","inputs":[{"name":"_shares","type":"uint256","internalType":"uint256"}],"outputs":[{"name":"_amount","type":"uint256","internalType":"uint256"}],"stateMutability":"view"},{"type":"function","name":"previewRedeem","inputs":[{"name":"_shares","type":"uint256","internalType":"uint256"}],"outputs":[{"name":"_assets","type":"uint256","internalType":"uint256"}],"stateMutability":"view"},{"type":"function","name":"previewWithdraw","inputs":[{"name":"_amount","type":"uint256","internalType":"uint256"}],"outputs":[{"name":"_sharesToBurn","type":"uint256","internalType":"uint256"}],"stateMutability":"view"},{"type":"function","name":"pricePerShare","inputs":[],"outputs":[{"name":"_amount","type":"uint256","internalType":"uint256"}],"stateMutability":"view"},{"type":"function","name":"protocolLiquidationFee","inputs":[],"outputs":[{"name":"","type":"uint256","internalType":"uint256"}],"stateMutability":"view"},{"type":"function","name":"rateContract","inputs":[],"outputs":[{"name":"","type":"address","internalType":"contract IRateCalculatorV2"}],"stateMutability":"view"},{"type":"function","name":"redeem","inputs":[{"name":"_shares","type":"uint256","internalType":"uint256"},{"name":"_receiver","type":"address","internalType":"address"},{"name":"_owner","type":"address","internalType":"address"}],"outputs":[{"name":"_amountToReturn","type":"uint256","internalType":"uint256"}],"stateMutability":"nonpayable"},{"type":"function","name":"removeCollateral","inputs":[{"name":"_collateralAmount","type":"uint256","internalType":"uint256"},{"name":"_receiver","type":"address","internalType":"address"}],"outputs":[],"stateMutability":"nonpayable"},{"type":"function","name":"renounceOwnership","inputs":[],"outputs":[],"stateMutability":"nonpayable"},{"type":"function","name":"renounceTimelock","inputs":[],"outputs":[],"stateMutability":"nonpayable"},{"type":"function","name":"repayAsset","inputs":[{"name":"_shares","type":"uint256","internalType":"uint256"},{"name":"_borrower","type":"address","internalType":"address"}],"outputs":[{"name":"_amountToRepay","type":"uint256","internalType":"uint256"}],"stateMutability":"nonpayable"},{"type":"function","name":"repayAssetWithCollateral","inputs":[{"name":"_swapperAddress","type":"address","internalType":"address"},{"name":"_collateralToSwap","type":"uint256","internalType":"uint256"},{"name":"_amountAssetOutMin","type":"uint256","internalType":"uint256"},{"name":"_path","type":"address[]","internalType":"address[]"}],"outputs":[{"name":"_amountAssetOut","type":"uint256","internalType":"uint256"}],"stateMutability":"nonpayable"},{"type":"function","name":"revokeBorrowLimitAccessControl","inputs":[{"name":"_borrowLimit","type":"uint256","internalType":"uint256"}],"outputs":[],"stateMutability":"nonpayable"},{"type":"function","name":"revokeDepositLimitAccessControl","inputs":[{"name":"_depositLimit","type":"uint256","internalType":"uint256"}],"outputs":[],"stateMutability":"nonpayable"},{"type":"function","name":"revokeInterestAccessControl","inputs":[],"outputs":[],"stateMutability":"nonpayable"},{"type":"function","name":"revokeLiquidateAccessControl","inputs":[],"outputs":[],"stateMutability":"nonpayable"},{"type":"function","name":"revokeLiquidationFeeSetter","inputs":[],"outputs":[],"stateMutability":"nonpayable"},{"type":"function","name":"revokeMaxLTVSetter","inputs":[],"outputs":[],"stateMutability":"nonpayable"},{"type":"function","name":"revokeOracleInfoSetter","inputs":[],"outputs":[],"stateMutability":"nonpayable"},{"type":"function","name":"revokeRateContractSetter","inputs":[],"outputs":[],"stateMutability":"nonpayable"},{"type":"function","name":"revokeRepayAccessControl","inputs":[],"outputs":[],"stateMutability":"nonpayable"},{"type":"function","name":"revokeWithdrawAccessControl","inputs":[],"outputs":[],"stateMutability":"nonpayable"},{"type":"function","name":"setBorrowLimit","inputs":[{"name":"_limit","type":"uint256","internalType":"uint256"}],"outputs":[],"stateMutability":"nonpayable"},{"type":"function","name":"setCircuitBreaker","inputs":[{"name":"_newCircuitBreaker","type":"address","internalType":"address"}],"outputs":[],"stateMutability":"nonpayable"},{"type":"function","name":"setDepositLimit","inputs":[{"name":"_limit","type":"uint256","internalType":"uint256"}],"outputs":[],"stateMutability":"nonpayable"},{"type":"function","name":"setExternalAssetVault","inputs":[{"name":"vault","type":"address","internalType":"contract IERC4626Extended"}],"outputs":[],"stateMutability":"nonpayable"},{"type":"function","name":"setLiquidationFees","inputs":[{"name":"_newCleanLiquidationFee","type":"uint256","internalType":"uint256"},{"name":"_newDirtyLiquidationFee","type":"uint256","internalType":"uint256"},{"name":"_newProtocolLiquidationFee","type":"uint256","internalType":"uint256"}],"outputs":[],"stateMutability":"nonpayable"},{"type":"function","name":"setMaxLTV","inputs":[{"name":"_newMaxLTV","type":"uint256","internalType":"uint256"}],"outputs":[],"stateMutability":"nonpayable"},{"type":"function","name":"setOracle","inputs":[{"name":"_newOracle","type":"address","internalType":"address"},{"name":"_newMaxOracleDeviation","type":"uint32","internalType":"uint32"}],"outputs":[],"stateMutability":"nonpayable"},{"type":"function","name":"setRateContract","inputs":[{"name":"_newRateContract","type":"address","internalType":"address"}],"outputs":[],"stateMutability":"nonpayable"},{"type":"function","name":"setSwapper","inputs":[{"name":"_swapper","type":"address","internalType":"address"},{"name":"_approval","type":"bool","internalType":"bool"}],"outputs":[],"stateMutability":"nonpayable"},{"type":"function","name":"swappers","inputs":[{"name":"","type":"address","internalType":"address"}],"outputs":[{"name":"","type":"bool","internalType":"bool"}],"stateMutability":"view"},{"type":"function","name":"symbol","inputs":[],"outputs":[{"name":"","type":"string","internalType":"string"}],"stateMutability":"view"},{"type":"function","name":"timelockAddress","inputs":[],"outputs":[{"name":"","type":"address","internalType":"address"}],"stateMutability":"view"},{"type":"function","name":"toAssetAmount","inputs":[{"name":"_shares","type":"uint256","internalType":"uint256"},{"name":"_roundUp","type":"bool","internalType":"bool"},{"name":"_previewInterest","type":"bool","internalType":"bool"}],"outputs":[{"name":"_amount","type":"uint256","internalType":"uint256"}],"stateMutability":"view"},{"type":"function","name":"toAssetShares","inputs":[{"name":"_amount","type":"uint256","internalType":"uint256"},{"name":"_roundUp","type":"bool","internalType":"bool"},{"name":"_previewInterest","type":"bool","internalType":"bool"}],"outputs":[{"name":"_shares","type":"uint256","internalType":"uint256"}],"stateMutability":"view"},{"type":"function","name":"toBorrowAmount","inputs":[{"name":"_shares","type":"uint256","internalType":"uint256"},{"name":"_roundUp","type":"bool","internalType":"bool"},{"name":"_previewInterest","type":"bool","internalType":"bool"}],"outputs":[{"name":"_amount","type":"uint256","internalType":"uint256"}],"stateMutability":"view"},{"type":"function","name":"toBorrowShares","inputs":[{"name":"_amount","type":"uint256","internalType":"uint256"},{"name":"_roundUp","type":"bool","internalType":"bool"},{"name":"_previewInterest","type":"bool","internalType":"bool"}],"outputs":[{"name":"_shares","type":"uint256","internalType":"uint256"}],"stateMutability":"view"},{"type":"function","name":"totalAsset","inputs":[],"outputs":[{"name":"amount","type":"uint128","internalType":"uint128"},{"name":"shares","type":"uint128","internalType":"uint128"}],"stateMutability":"view"},{"type":"function","name":"totalAssets","inputs":[],"outputs":[{"name":"","type":"uint256","internalType":"uint256"}],"stateMutability":"view"},{"type":"function","name":"totalBorrow","inputs":[],"outputs":[{"name":"amount","type":"uint128","internalType":"uint128"},{"name":"shares","type":"uint128","internalType":"uint128"}],"stateMutability":"view"},{"type":"function","name":"totalCollateral","inputs":[],"outputs":[{"name":"","type":"uint256","internalType":"uint256"}],"stateMutability":"view"},{"type":"function","name":"totalSupply","inputs":[],"outputs":[{"name":"","type":"uint256","internalType":"uint256"}],"stateMutability":"view"},{"type":"function","name":"transfer","inputs":[{"name":"to","type":"address","internalType":"address"},{"name":"amount","type":"uint256","internalType":"uint256"}],"outputs":[{"name":"","type":"bool","internalType":"bool"}],"stateMutability":"nonpayable"},{"type":"function","name":"transferFrom","inputs":[{"name":"from","type":"address","internalType":"address"},{"name":"to","type":"address","internalType":"address"},{"name":"amount","type":"uint256","internalType":"uint256"}],"outputs":[{"name":"","type":"bool","internalType":"bool"}],"stateMutability":"nonpayable"},{"type":"function","name":"transferOwnership","inputs":[{"name":"newOwner","type":"address","internalType":"address"}],"outputs":[],"stateMutability":"nonpayable"},{"type":"function","name":"transferTimelock","inputs":[{"name":"_newTimelock","type":"address","internalType":"address"}],"outputs":[],"stateMutability":"nonpayable"},{"type":"function","name":"unpause","inputs":[],"outputs":[],"stateMutability":"nonpayable"},{"type":"function","name":"updateExchangeRate","inputs":[],"outputs":[{"name":"_isBorrowAllowed","type":"bool","internalType":"bool"},{"name":"_lowExchangeRate","type":"uint256","internalType":"uint256"},{"name":"_highExchangeRate","type":"uint256","internalType":"uint256"}],"stateMutability":"nonpayable"},{"type":"function","name":"userBorrowShares","inputs":[{"name":"","type":"address","internalType":"address"}],"outputs":[{"name":"","type":"uint256","internalType":"uint256"}],"stateMutability":"view"},{"type":"function","name":"userCollateralBalance","inputs":[{"name":"","type":"address","internalType":"address"}],"outputs":[{"name":"","type":"uint256","internalType":"uint256"}],"stateMutability":"view"},{"type":"function","name":"version","inputs":[],"outputs":[{"name":"_major","type":"uint256","internalType":"uint256"},{"name":"_minor","type":"uint256","internalType":"uint256"},{"name":"_patch","type":"uint256","internalType":"uint256"}],"stateMutability":"pure"},{"type":"function","name":"withdraw","inputs":[{"name":"_amount","type":"uint256","internalType":"uint256"},{"name":"_receiver","type":"address","internalType":"address"},{"name":"_owner","type":"address","internalType":"address"}],"outputs":[{"name":"_sharesToBurn","type":"uint256","internalType":"uint256"}],"stateMutability":"nonpayable"},{"type":"function","name":"withdrawFees","inputs":[{"name":"_shares","type":"uint128","internalType":"uint128"},{"name":"_recipient","type":"address","internalType":"address"}],"outputs":[{"name":"_amountToTransfer","type":"uint256","internalType":"uint256"}],"stateMutability":"nonpayable"},{"type":"event","name":"AddCollateral","inputs":[{"name":"sender","type":"address","indexed":true,"internalType":"address"},{"name":"borrower","type":"address","indexed":true,"internalType":"address"},{"name":"collateralAmount","type":"uint256","indexed":false,"internalType":"uint256"}],"anonymous":false},{"type":"event","name":"AddInterest","inputs":[{"name":"interestEarned","type":"uint256","indexed":false,"internalType":"uint256"},{"name":"rate","type":"uint256","indexed":false,"internalType":"uint256"},{"name":"feesAmount","type":"uint256","indexed":false,"internalType":"uint256"},{"name":"feesShare","type":"uint256","indexed":false,"internalType":"uint256"}],"anonymous":false},{"type":"event","name":"Approval","inputs":[{"name":"owner","type":"address","indexed":true,"internalType":"address"},{"name":"spender","type":"address","indexed":true,"internalType":"address"},{"name":"value","type":"uint256","indexed":false,"internalType":"uint256"}],"anonymous":false},{"type":"event","name":"BorrowAsset","inputs":[{"name":"_borrower","type":"address","indexed":true,"internalType":"address"},{"name":"_receiver","type":"address","indexed":true,"internalType":"address"},{"name":"_borrowAmount","type":"uint256","indexed":false,"internalType":"uint256"},{"name":"_sharesAdded","type":"uint256","indexed":false,"internalType":"uint256"}],"anonymous":false},{"type":"event","name":"ChangeFee","inputs":[{"name":"newFee","type":"uint32","indexed":false,"internalType":"uint32"}],"anonymous":false},{"type":"event","name":"Deposit","inputs":[{"name":"caller","type":"address","indexed":true,"internalType":"address"},{"name":"owner","type":"address","indexed":true,"internalType":"address"},{"name":"assets","type":"uint256","indexed":false,"internalType":"uint256"},{"name":"shares","type":"uint256","indexed":false,"internalType":"uint256"}],"anonymous":false},{"type":"event","name":"LeveragedPosition","inputs":[{"name":"_borrower","type":"address","indexed":true,"internalType":"address"},{"name":"_swapperAddress","type":"address","indexed":false,"internalType":"address"},{"name":"_borrowAmount","type":"uint256","indexed":false,"internalType":"uint256"},{"name":"_borrowShares","type":"uint256","indexed":false,"internalType":"uint256"},{"name":"_initialCollateralAmount","type":"uint256","indexed":false,"internalType":"uint256"},{"name":"_amountCollateralOut","type":"uint256","indexed":false,"internalType":"uint256"}],"anonymous":false},{"type":"event","name":"Liquidate","inputs":[{"name":"_borrower","type":"address","indexed":true,"internalType":"address"},{"name":"_collateralForLiquidator","type":"uint256","indexed":false,"internalType":"uint256"},{"name":"_sharesToLiquidate","type":"uint256","indexed":false,"internalType":"uint256"},{"name":"_amountLiquidatorToRepay","type":"uint256","indexed":false,"internalType":"uint256"},{"name":"_feesAmount","type":"uint256","indexed":false,"internalType":"uint256"},{"name":"_sharesToAdjust","type":"uint256","indexed":false,"internalType":"uint256"},{"name":"_amountToAdjust","type":"uint256","indexed":false,"internalType":"uint256"}],"anonymous":false},{"type":"event","name":"OwnershipTransferStarted","inputs":[{"name":"previousOwner","type":"address","indexed":true,"internalType":"address"},{"name":"newOwner","type":"address","indexed":true,"internalType":"address"}],"anonymous":false},{"type":"event","name":"OwnershipTransferred","inputs":[{"name":"previousOwner","type":"address","indexed":true,"internalType":"address"},{"name":"newOwner","type":"address","indexed":true,"internalType":"address"}],"anonymous":false},{"type":"event","name":"PauseInterest","inputs":[{"name":"isPaused","type":"bool","indexed":false,"internalType":"bool"}],"anonymous":false},{"type":"event","name":"PauseLiquidate","inputs":[{"name":"isPaused","type":"bool","indexed":false,"internalType":"bool"}],"anonymous":false},{"type":"event","name":"PauseRepay","inputs":[{"name":"isPaused","type":"bool","indexed":false,"internalType":"bool"}],"anonymous":false},{"type":"event","name":"PauseWithdraw","inputs":[{"name":"isPaused","type":"bool","indexed":false,"internalType":"bool"}],"anonymous":false},{"type":"event","name":"RemoveCollateral","inputs":[{"name":"_sender","type":"address","indexed":true,"internalType":"address"},{"name":"_collateralAmount","type":"uint256","indexed":false,"internalType":"uint256"},{"name":"_receiver","type":"address","indexed":true,"internalType":"address"},{"name":"_borrower","type":"address","indexed":true,"internalType":"address"}],"anonymous":false},{"type":"event","name":"RepayAsset","inputs":[{"name":"payer","type":"address","indexed":true,"internalType":"address"},{"name":"borrower","type":"address","indexed":true,"internalType":"address"},{"name":"amountToRepay","type":"uint256","indexed":false,"internalType":"uint256"},{"name":"shares","type":"uint256","indexed":false,"internalType":"uint256"}],"anonymous":false},{"type":"event","name":"RepayAssetWithCollateral","inputs":[{"name":"_borrower","type":"address","indexed":true,"internalType":"address"},{"name":"_swapperAddress","type":"address","indexed":false,"internalType":"address"},{"name":"_collateralToSwap","type":"uint256","indexed":false,"internalType":"uint256"},{"name":"_amountAssetOut","type":"uint256","indexed":false,"internalType":"uint256"},{"name":"_sharesRepaid","type":"uint256","indexed":false,"internalType":"uint256"}],"anonymous":false},{"type":"event","name":"RevokeBorrowAccessControl","inputs":[{"name":"borrowLimit","type":"uint256","indexed":false,"internalType":"uint256"}],"anonymous":false},{"type":"event","name":"RevokeDepositAccessControl","inputs":[{"name":"depositLimit","type":"uint256","indexed":false,"internalType":"uint256"}],"anonymous":false},{"type":"event","name":"RevokeInterestAccessControl","inputs":[],"anonymous":false},{"type":"event","name":"RevokeLiquidateAccessControl","inputs":[],"anonymous":false},{"type":"event","name":"RevokeLiquidationFeeSetter","inputs":[],"anonymous":false},{"type":"event","name":"RevokeMaxLTVSetter","inputs":[],"anonymous":false},{"type":"event","name":"RevokeOracleInfoSetter","inputs":[],"anonymous":false},{"type":"event","name":"RevokeRateContractSetter","inputs":[],"anonymous":false},{"type":"event","name":"RevokeRepayAccessControl","inputs":[],"anonymous":false},{"type":"event","name":"RevokeWithdrawAccessControl","inputs":[],"anonymous":false},{"type":"event","name":"SetBorrowLimit","inputs":[{"name":"limit","type":"uint256","indexed":false,"internalType":"uint256"}],"anonymous":false},{"type":"event","name":"SetCircuitBreaker","inputs":[{"name":"oldCircuitBreaker","type":"address","indexed":false,"internalType":"address"},{"name":"newCircuitBreaker","type":"address","indexed":false,"internalType":"address"}],"anonymous":false},{"type":"event","name":"SetDepositLimit","inputs":[{"name":"limit","type":"uint256","indexed":false,"internalType":"uint256"}],"anonymous":false},{"type":"event","name":"SetExternalAssetVault","inputs":[{"name":"oldVault","type":"address","indexed":false,"internalType":"address"},{"name":"newVault","type":"address","indexed":false,"internalType":"address"}],"anonymous":false},{"type":"event","name":"SetLiquidationFees","inputs":[{"name":"oldCleanLiquidationFee","type":"uint256","indexed":false,"internalType":"uint256"},{"name":"oldDirtyLiquidationFee","type":"uint256","indexed":false,"internalType":"uint256"},{"name":"oldProtocolLiquidationFee","type":"uint256","indexed":false,"internalType":"uint256"},{"name":"newCleanLiquidationFee","type":"uint256","indexed":false,"internalType":"uint256"},{"name":"newDirtyLiquidationFee","type":"uint256","indexed":false,"internalType":"uint256"},{"name":"newProtocolLiquidationFee","type":"uint256","indexed":false,"internalType":"uint256"}],"anonymous":false},{"type":"event","name":"SetMaxLTV","inputs":[{"name":"oldMaxLTV","type":"uint256","indexed":false,"internalType":"uint256"},{"name":"newMaxLTV","type":"uint256","indexed":false,"internalType":"uint256"}],"anonymous":false},{"type":"event","name":"SetOracleInfo","inputs":[{"name":"oldOracle","type":"address","indexed":false,"internalType":"address"},{"name":"oldMaxOracleDeviation","type":"uint32","indexed":false,"internalType":"uint32"},{"name":"newOracle","type":"address","indexed":false,"internalType":"address"},{"name":"newMaxOracleDeviation","type":"uint32","indexed":false,"internalType":"uint32"}],"anonymous":false},{"type":"event","name":"SetRateContract","inputs":[{"name":"oldRateContract","type":"address","indexed":false,"internalType":"address"},{"name":"newRateContract","type":"address","indexed":false,"internalType":"address"}],"anonymous":false},{"type":"event","name":"SetSwapper","inputs":[{"name":"swapper","type":"address","indexed":false,"internalType":"address"},{"name":"approval","type":"bool","indexed":false,"internalType":"bool"}],"anonymous":false},{"type":"event","name":"TimelockTransferStarted","inputs":[{"name":"previousTimelock","type":"address","indexed":true,"internalType":"address"},{"name":"newTimelock","type":"address","indexed":true,"internalType":"address"}],"anonymous":false},{"type":"event","name":"TimelockTransferred","inputs":[{"name":"previousTimelock","type":"address","indexed":true,"internalType":"address"},{"name":"newTimelock","type":"address","indexed":true,"internalType":"address"}],"anonymous":false},{"type":"event","name":"Transfer","inputs":[{"name":"from","type":"address","indexed":true,"internalType":"address"},{"name":"to","type":"address","indexed":true,"internalType":"address"},{"name":"value","type":"uint256","indexed":false,"internalType":"uint256"}],"anonymous":false},{"type":"event","name":"UpdateExchangeRate","inputs":[{"name":"lowExchangeRate","type":"uint256","indexed":false,"internalType":"uint256"},{"name":"highExchangeRate","type":"uint256","indexed":false,"internalType":"uint256"}],"anonymous":false},{"type":"event","name":"UpdateRate","inputs":[{"name":"oldRatePerSec","type":"uint256","indexed":false,"internalType":"uint256"},{"name":"oldFullUtilizationRate","type":"uint256","indexed":false,"internalType":"uint256"},{"name":"newRatePerSec","type":"uint256","indexed":false,"internalType":"uint256"},{"name":"newFullUtilizationRate","type":"uint256","indexed":false,"internalType":"uint256"}],"anonymous":false},{"type":"event","name":"WarnOracleData","inputs":[{"name":"oracle","type":"address","indexed":false,"internalType":"address"}],"anonymous":false},{"type":"event","name":"Withdraw","inputs":[{"name":"caller","type":"address","indexed":true,"internalType":"address"},{"name":"receiver","type":"address","indexed":true,"internalType":"address"},{"name":"owner","type":"address","indexed":true,"internalType":"address"},{"name":"assets","type":"uint256","indexed":false,"internalType":"uint256"},{"name":"shares","type":"uint256","indexed":false,"internalType":"uint256"}],"anonymous":false},{"type":"event","name":"WithdrawFees","inputs":[{"name":"shares","type":"uint128","indexed":false,"internalType":"uint128"},{"name":"recipient","type":"address","indexed":false,"internalType":"address"},{"name":"amountToTransfer","type":"uint256","indexed":false,"internalType":"uint256"},{"name":"collateralAmount","type":"uint256","indexed":false,"internalType":"uint256"}],"anonymous":false},{"type":"error","name":"AccessControlRevoked","inputs":[]},{"type":"error","name":"BadProtocolFee","inputs":[]},{"type":"error","name":"BadSwapper","inputs":[]},{"type":"error","name":"BorrowerSolvent","inputs":[]},{"type":"error","name":"ExceedsBorrowLimit","inputs":[]},{"type":"error","name":"ExceedsDepositLimit","inputs":[]},{"type":"error","name":"ExceedsMaxOracleDeviation","inputs":[]},{"type":"error","name":"ExternalAssetVaultOnly","inputs":[]},{"type":"error","name":"Insolvent","inputs":[{"name":"_borrow","type":"uint256","internalType":"uint256"},{"name":"_collateral","type":"uint256","internalType":"uint256"},{"name":"_exchangeRate","type":"uint256","internalType":"uint256"}]},{"type":"error","name":"InsufficientAssetsInContract","inputs":[{"name":"_assets","type":"uint256","internalType":"uint256"},{"name":"_request","type":"uint256","internalType":"uint256"}]},{"type":"error","name":"InterestPaused","inputs":[]},{"type":"error","name":"InvalidPath","inputs":[{"name":"_expected","type":"address","internalType":"address"},{"name":"_actual","type":"address","internalType":"address"}]},{"type":"error","name":"InvalidReceiver","inputs":[]},{"type":"error","name":"LiquidatePaused","inputs":[]},{"type":"error","name":"OnlyPendingTimelock","inputs":[]},{"type":"error","name":"OnlyProtocolOrOwner","inputs":[]},{"type":"error","name":"OnlyTimelock","inputs":[]},{"type":"error","name":"OnlyTimelockOrOwner","inputs":[]},{"type":"error","name":"PastDeadline","inputs":[{"name":"_blockTimestamp","type":"uint256","internalType":"uint256"},{"name":"_deadline","type":"uint256","internalType":"uint256"}]},{"type":"error","name":"RepayPaused","inputs":[]},{"type":"error","name":"SetterRevoked","inputs":[]},{"type":"error","name":"SlippageTooHigh","inputs":[{"name":"_minOut","type":"uint256","internalType":"uint256"},{"name":"_actual","type":"uint256","internalType":"uint256"}]},{"type":"error","name":"WithdrawPaused","inputs":[]}],"bytecode":{"object":"0x6101006040526000196006556000196008553480156200001e57600080fd5b506040516200812838038062008128833981016040819052620000419162000f46565b604080516020808201835260008083528351918201909352918252600180546001600160a01b031916331790558491849184918362000087620000813390565b62000320565b600080600083806020019051810190620000a2919062000fef565b91945092509050620000b4816200033e565b620000bf8262000320565b505033608052600480546001600160a01b0319166001600160a01b039290921691909117905550600d620000f48382620010c7565b50600e620001038282620010c7565b5050506001600f8190555060008060008060008060008060008b806020019051810190620001329190620011ab565b985098509850985098509850985098509850886001600160a01b031660a0816001600160a01b031681525050876001600160a01b031660c0816001600160a01b0316815250506000601860000160046101000a81548163ffffffff021916908363ffffffff16021790555083601860000160186101000a8154816001600160401b0302191690836001600160401b03160217905550600142620001d691906200126b565b601880546001600160401b03929092166801000000000000000002600160401b600160801b0319909216919091179055620002136001436200126b565b6018805463ffffffff191663ffffffff928316179055601980546001600160a01b038a81166001600160c01b031990921691909117600160a01b938a1693909302929092179055601480546001600160a01b0319169187169190911790556011829055620186a0620002898362015f9062001281565b6200029591906200129b565b601255601355506010555050845160009450849350839250620002c3915085016020908101908601620012be565b919450925090506016620002d88482620010c7565b506017620002e78382620010c7565b5060ff811660e052620002f96200039a565b50505050506200030e6200063360201b60201c565b50505050505050505050505062001413565b600380546001600160a01b03191690556200033b816200086a565b50565b6001546040516001600160a01b038084169216907f31b6c5a04b069b6ec1b3cef44c4e7c1eadd721349cda9823d0b1877b3551cdc690600090a3600180546001600160a01b0319166001600160a01b0392909216919091179055565b6040805160a0810182526000808252602082018190529181018290526060810182905260808101829052819081908190506040805160a08101825260185463ffffffff808216835264010000000082041660208301526001600160401b03680100000000000000008204811693830193909352600160801b810483166060830152600160c01b9004909116608082015260006200043782620008bc565b8051909150156200062b578060000151955080606001519450806080015193508060a0015192507fc63977c8e2362a31182dc8e89a52252f9836922738e0abcfc0de6924972eafe58260600151836080015183602001518460400151604051620004ca94939291906001600160401b03948516815292841660208401529083166040830152909116606082015260800190565b60405180910390a17f2b5229f33f1d24d5baab718e1e25d0d86195a9b6d786c2c0868edfb21a460e2585826020015186866040516200052b94939291909384526001600160401b039290921660208401526040830152606082015260800190565b60405180910390a16020818101516001600160401b0390811660608501819052604080850151831660808701819052429093169086018190524363ffffffff90811680885260188054898801516001600160401b0319909116909217640100000000929093169190910291909117600160401b600160c01b03191668010000000000000000909202600160801b600160c01b03191691909117600160801b928302176001600160c01b0316600160c01b9093029290921790915560c08301518051908301516001600160801b03918216908216830217601d5560e0840151805193015192811692160217601e5582156200062b576200062b308462000c9c565b509091929394565b6040805160a0810182526019546001600160a01b0381168252600160a01b900463ffffffff166020820152601a546001600160b81b0316918101829052601b546060820152601c5460808201526000918291829142146200080657600081600001516001600160a01b031663bd9a548b6040518163ffffffff1660e01b8152600401606060405180830381865afa158015620006d3573d6000803e3d6000fd5b505050506040513d601f19601f82011682018060405250810190620006f9919062001343565b909550935090508015620007475781516040516001600160a01b0390911681527ffc131c36b7e444dacda44901fd43641dcdcfdc43fe9e2601b3c1dd87061db9e59060200160405180910390a15b6001600160b81b03421660408084018290526060840186905260808401859052835160198054602087015163ffffffff16600160a01b026001600160c01b03199091166001600160a01b0390931692909217919091179055601a80546001600160b81b031916909217909155601b859055601c849055517fc1f41e029acf5127d111625602160c4cee3e1a4d38e691e50544d1f7c68b77be90620007f79086908690918252602082015260400190565b60405180910390a15062000815565b80606001519250806080015191505b60808101516060820151600091906200082f90826200126b565b6200083e90620186a062001281565b6200084a91906200129b565b9050816020015163ffffffff1681116200086357600194505b5050909192565b600280546001600160a01b038381166001600160a01b0319831681179093556040519116919082907f8be0079c531659141344cd1fd0a4f28419497f9722a3daafe3b4186f6b6457e090600090a35050565b6200091f604080516101008101825260008082526020808301829052828401829052606083018290526080830182905260a083018290528351808501855282815280820183905260c084015283518085019094528184528301529060e082015290565b4282604001516001600160401b0316141580156200094b5750600954670100000000000000900460ff16155b1562000c975760018152604080518082018252601d546001600160801b038082168352600160801b91829004811660208085019190915260c086019390935283518085018552601e54808316825292909204169181019190915260e0830152820151600090620009c5906001600160401b0316426200126b565b60055460c0840151919250600091620009e7916001600160a01b031662000d65565b90506000811562000a245760e084015151829062000a12906001600160801b0316620186a062001281565b62000a1e91906200129b565b62000a27565b60005b601454608087015160405163cd3181d560e01b815260048101879052602481018490526001600160401b0390911660448201529192506001600160a01b03169063cd3181d5906064016040805180830381865afa15801562000a8d573d6000803e3d6000fd5b505050506040513d601f19601f8201168201806040525081019062000ab3919062001381565b6001600160401b039081166040870152166020850181905260e085015151670de0b6b3a7640000919062000af1906001600160801b03168662001281565b62000afd919062001281565b62000b0991906200129b565b606085018190521580159062000b40575060e08401515160608501516001600160801b039162000b3d9190831690620013b9565b11155b801562000b66575060608401516001600160801b039062000b63908490620013b9565b11155b1562000c9357606084015162000b7c9062000e0d565b60e0850151805162000b90908390620013cf565b6001600160801b0316905250606084015162000bac9062000e0d565b60c0850151805162000bc0908390620013cf565b6001600160801b0316905250602085015163ffffffff161562000c9357620186a0856020015163ffffffff16856060015162000bfd919062001281565b62000c0991906200129b565b6080850181905260c085015162000c2290600062000d65565b62000c2e91906200126b565b8460c00151602001516001600160801b0316856080015162000c51919062001281565b62000c5d91906200129b565b60a0850181905262000c6f9062000e0d565b8460c0015160200181815162000c869190620013cf565b6001600160801b03169052505b5050505b919050565b6001600160a01b03821662000cf85760405162461bcd60e51b815260206004820152601f60248201527f45524332303a206d696e7420746f20746865207a65726f20616464726573730060448201526064015b60405180910390fd5b80600c600082825462000d0c9190620013b9565b90915550506001600160a01b0382166000818152600a60209081526040808320805486019055518481527fddf252ad1be2c89b69c2b068fc378daa952ba7f163c4a11628f55a4df523b3ef910160405180910390a35050565b60006001600160a01b03821662000d88575081516001600160801b031662000e07565b816001600160a01b03166313b98c0f6040518163ffffffff1660e01b8152600401602060405180830381865afa15801562000dc7573d6000803e3d6000fd5b505050506040513d601f19601f8201168201806040525081019062000ded9190620013f9565b835162000e0491906001600160801b0316620013b9565b90505b92915050565b60006001600160801b0382111562000e785760405162461bcd60e51b815260206004820152602760248201527f53616665436173743a2076616c756520646f65736e27742066697420696e20316044820152663238206269747360c81b606482015260840162000cef565b5090565b505050565b634e487b7160e01b600052604160045260246000fd5b600082601f83011262000ea957600080fd5b81516001600160401b038082111562000ec65762000ec662000e81565b604051601f8301601f19908116603f0116810190828211818310171562000ef15762000ef162000e81565b8160405283815260209250868385880101111562000f0e57600080fd5b600091505b8382101562000f32578582018301518183018401529082019062000f13565b600093810190920192909252949350505050565b60008060006060848603121562000f5c57600080fd5b83516001600160401b038082111562000f7457600080fd5b62000f828783880162000e97565b9450602086015191508082111562000f9957600080fd5b62000fa78783880162000e97565b9350604086015191508082111562000fbe57600080fd5b5062000fcd8682870162000e97565b9150509250925092565b80516001600160a01b038116811462000c9757600080fd5b6000806000606084860312156200100557600080fd5b620010108462000fd7565b9250620010206020850162000fd7565b9150620010306040850162000fd7565b90509250925092565b600181811c908216806200104e57607f821691505b6020821081036200106f57634e487b7160e01b600052602260045260246000fd5b50919050565b601f82111562000e7c57600081815260208120601f850160051c810160208610156200109e5750805b601f850160051c820191505b81811015620010bf57828155600101620010aa565b505050505050565b81516001600160401b03811115620010e357620010e362000e81565b620010fb81620010f4845462001039565b8462001075565b602080601f8311600181146200113357600084156200111a5750858301515b600019600386901b1c1916600185901b178555620010bf565b600085815260208120601f198616915b82811015620011645788860151825594840194600190910190840162001143565b5085821015620011835787850151600019600388901b60f8161c191681555b5050505050600190811b01905550565b80516001600160401b038116811462000c9757600080fd5b60008060008060008060008060006101208a8c031215620011cb57600080fd5b620011d68a62000fd7565b9850620011e660208b0162000fd7565b9750620011f660408b0162000fd7565b965060608a015163ffffffff811681146200121057600080fd5b95506200122060808b0162000fd7565b94506200123060a08b0162001193565b935060c08a0151925060e08a015191506101008a015190509295985092959850929598565b634e487b7160e01b600052601160045260246000fd5b8181038181111562000e075762000e0762001255565b808202811582820484141762000e075762000e0762001255565b600082620012b957634e487b7160e01b600052601260045260246000fd5b500490565b600080600060608486031215620012d457600080fd5b83516001600160401b0380821115620012ec57600080fd5b620012fa8783880162000e97565b945060208601519150808211156200131157600080fd5b50620013208682870162000e97565b925050604084015160ff811681146200133857600080fd5b809150509250925092565b6000806000606084860312156200135957600080fd5b835180151581146200136a57600080fd5b602085015160409095015190969495509392505050565b600080604083850312156200139557600080fd5b620013a08362001193565b9150620013b06020840162001193565b90509250929050565b8082018082111562000e075762000e0762001255565b6001600160801b03818116838216019080821115620013f257620013f262001255565b5092915050565b6000602082840312156200140c57600080fd5b5051919050565b60805160a05160c05160e051616c87620014a16000396000610953015260008181610ee20152818161256e01528181612de40152818161501a01526150ff0152600081816109930152818161254c01528181612dc20152818161478301528181614dc4015281816154050152818161566f0152615c86015260008181610fa00152614be70152616c876000f3fe608060405234801561001057600080fd5b50600436106107795760003560e01c80638456cb59116103d4578063c6e1c7c91161020a578063e551d11d11610125578063eee24219116100b8578063f384bd0511610087578063f384bd05146110e5578063f6ccaad4146110ee578063f9557ccb146110f6578063fbbbf94c1461111457600080fd5b8063eee2421914611098578063ef8b30f7146110ab578063f211c390146110be578063f2fde38b146110d257600080fd5b8063e8596f72116100f4578063e8596f721461106b578063eafecffa14611073578063ebd462cb1461107c578063ecf708581461108f57600080fd5b8063e551d11d1461103c578063e5f13b1614611045578063e63a391f14610a56578063e7a331741461105857600080fd5b8063d41ddc961161019d578063e1e927751161016c578063e1e927751461100e578063e203641714611016578063e30c397814611023578063e4b000701461103457600080fd5b8063d41ddc9614610fc2578063d905777e14610fd5578063daf33f2a14610fe8578063dd62ed3e14610ffb57600080fd5b8063cadac479116101d9578063cadac47914610f32578063cdd72d5214610f45578063ce96cb7714610f88578063d2a156e014610f9b57600080fd5b8063c6e1c7c914610edd578063c6e6f59214610f04578063ca2298fe14610f17578063cacf3b5814610f2a57600080fd5b8063a457c2d7116102fa578063b8ca3b831161028d578063c0a7e8921161025c578063c0a7e8921461093d578063c158e88d14610ea1578063c58e4df614610eb4578063c63d75b614610eca57600080fd5b8063b8ca3b8314610e5e578063ba08765214610e67578063bbb0962414610e7a578063bdc8144b14610e8e57600080fd5b8063b5af3062116102c9578063b5af306214610e1a578063b68d0a0914610e39578063b78294dd14610a56578063b7db54f514610e4c57600080fd5b8063a457c2d714610de1578063a9059cbb14610df4578063b3d7f6b914610aaa578063b460af9414610e0757600080fd5b806394bf804d116103725780639a295e73116103415780639a295e7314610d6a5780639bc6ab8614610dba5780639fe34bdc14610a56578063a053db6814610dce57600080fd5b806394bf804d14610cc657806395d14ca814610cd957806395d89b4114610d5a57806399530b0614610d6257600080fd5b80638cad7fbe116103ae5780638cad7fbe14610c6c5780638da5cb5b14610c8f5780638f791f8b14610ca057806393f46f6414610cb357600080fd5b80638456cb5914610c3e578063858f1e6814610c46578063886c033a14610c5957600080fd5b806345014095116105b457806369026e88116104cf5780637bcad14c116104625780637ecefa6e116104315780637ecefa6e14610bd25780638142dd5314610bda5780638285ef4014610bed57806382beee8914610c2b57600080fd5b80637bcad14c14610b865780637d37bdd714610b995780637d63fbc214610bac5780637ec4b57114610bbf57600080fd5b806370a082311161049e57806370a0823114610b50578063715018a614610b63578063721b0a4714610b6b57806379ba509714610b7e57600080fd5b806369026e8814610b225780636b96668f14610b2a5780636cd3cc7714610a565780636e553f6514610b3d57600080fd5b80634c18a4fb116105475780634fd422df116105165780634fd422df14610ac557806354fd4d5014610ae557806364e51d5d14610b0657806367800b5f14610b0e57600080fd5b80634c18a4fb14610a8f5780634c41799514610aa25780634cdad50614610aaa5780634f8b4ae714610abd57600080fd5b806349eb7af61161058357806349eb7af614610a565780634ac8eb5f14610a605780634b4b418e14610a695780634bc66f3214610a7c57600080fd5b80634501409514610a1357806345757e4a14610a265780634732428c14610a3a5780634929242714610a4357600080fd5b806311a2e4bc116106a457806334680fe5116106375780633d417d2d116106065780633d417d2d146109d25780633f2617cb146109e55780633f4ba83a146109f8578063402d267d14610a0057600080fd5b806334680fe51461097d57806338d52e0f1461099157806339030864146109b757806339509351146109bf57600080fd5b80631c6c9597116106735780631c6c95971461090557806323b872dd1461092a5780632b3ba6811461093d578063313ce5671461094c57600080fd5b806311a2e4bc146108be57806318160ddd146108c75780631bc23cf9146108df5780631c2591d3146108f257600080fd5b806308a0c3751161071c5780630a67918c116106eb5780630a67918c1461087f5780630b4aecf01461088c5780630c70661d14610899578063115a334c146108ac57600080fd5b806308a0c3751461080b578063090f3f501461081e578063095ea7b3146108495780630a28a4771461086c57600080fd5b80630475260e116107585780630475260e146107d357806306fdde03146107db57806307a2d13a146107f05780630880b2f01461080357600080fd5b8062348d181461077e57806301e1d1141461079357806302ce728f146107ae575b600080fd5b61079161078c366004616312565b611192565b005b61079b6111a6565b6040519081526020015b60405180910390f35b6107b66111d7565b6040805193151584526020840192909252908201526060016107a5565b610791611201565b6107e3611213565b6040516107a5919061634f565b61079b6107fe366004616312565b6112a5565b6107916112ba565b610791610819366004616312565b611300565b600054610831906001600160a01b031681565b6040516001600160a01b0390911681526020016107a5565b61085c610857366004616397565b611372565b60405190151581526020016107a5565b61079b61087a366004616312565b61138a565b60075461085c9060ff1681565b60225461085c9060ff1681565b60095461085c9062010000900460ff1681565b60095461085c90610100900460ff1681565b61079b60115481565b601d54600160801b90046001600160801b031661079b565b6107916108ed3660046163c3565b6113b9565b61079b6109003660046163fd565b611456565b61091861091336600461643f565b6114c7565b6040516107a59695949392919061645c565b61085c61093836600461650c565b61159b565b61079b670de0b6b3a764000081565b60405160ff7f00000000000000000000000000000000000000000000000000000000000000001681526020016107a5565b60095461085c90600160301b900460ff1681565b7f0000000000000000000000000000000000000000000000000000000000000000610831565b6107916115bf565b61085c6109cd366004616397565b611601565b61079b6109e036600461654d565b611623565b6107916109f336600461657d565b6116eb565b610791611757565b61079b610a0e3660046165ab565b611801565b610791610a213660046165ab565b611868565b60095461085c90600160401b900460ff1681565b61079b60125481565b600454610831906001600160a01b031681565b61079b620186a081565b61079b601f5481565b610791610a7736600461643f565b611879565b600154610831906001600160a01b031681565b610791610a9d36600461643f565b6118c7565b610791611916565b61079b610ab8366004616312565b611926565b61079161194e565b61079b610ad33660046165ab565b60216020526000908152604090205481565b60036000805b604080519384526020840192909252908201526060016107a5565b610791611972565b60095461085c906301000000900460ff1681565b610791611982565b610791610b383660046165ab565b6119b8565b61079b610b4b36600461654d565b611a53565b61079b610b5e3660046165ab565b611b2c565b610791611b47565b61079b610b793660046165df565b611b59565b610791611efd565b600554610831906001600160a01b031681565b61079b610ba73660046163fd565b611f74565b60225461085c9062010000900460ff1681565b61079b610bcd3660046163fd565b611fd5565b610791612036565b610791610be8366004616628565b612046565b601e54610c0b906001600160801b0380821691600160801b90041682565b604080516001600160801b039384168152929091166020830152016107a5565b610791610c393660046165ab565b612111565b610791612122565b610791610c5436600461643f565b6121ca565b610791610c67366004616312565b612226565b61085c610c7a3660046165ab565b60156020526000908152604090205460ff1681565b6002546001600160a01b0316610831565b610791610cae366004616643565b612237565b61079b610cc13660046163fd565b61238d565b61079b610cd436600461654d565b6123ee565b601854610d1c9063ffffffff80821691600160201b8104909116906001600160401b03600160401b8204811691600160801b8104821691600160c01b9091041685565b6040805163ffffffff96871681529590941660208601526001600160401b03928316938501939093528116606084015216608082015260a0016107a5565b6107e36124c1565b61079b6124d0565b620186a0808080670de0b6b3a7640000818161c350604080519889526020890197909752958701949094526060860192909252608085015260a084015260c083015260e0820152610100016107a5565b60225461085c906301000000900460ff1681565b61079b610ddc3660046166e1565b6124ec565b61085c610def366004616397565b612a53565b61085c610e02366004616397565b612ace565b61079b610e153660046167b1565b612adc565b61079b610e283660046165ab565b602080526000908152604090205481565b610aeb610e473660046165ab565b612ba8565b60225461085c90610100900460ff1681565b61079b61c35081565b61079b610e753660046167b1565b612be5565b60095461085c90600160201b900460ff1681565b610791610e9c366004616312565b612c9d565b610791610eaf3660046165ab565b612cd2565b60095461085c9065010000000000900460ff1681565b61079b610ed83660046165ab565b612ce3565b6108317f000000000000000000000000000000000000000000000000000000000000000081565b61079b610f12366004616312565b612d54565b61079b610f253660046167e8565b612d63565b610918613250565b610791610f4036600461654d565b6133be565b610f4d613413565b604080516001600160801b0396871681529486166020860152928516928401929092529092166060820152608081019190915260a0016107a5565b61079b610f963660046165ab565b61346c565b6108317f000000000000000000000000000000000000000000000000000000000000000081565b610791610fd036600461654d565b613518565b61079b610fe33660046165ab565b613661565b61079b610ff6366004616880565b6136e7565b61079b6110093660046168ac565b613819565b610791613844565b60095461085c9060ff1681565b6003546001600160a01b0316610831565b610791613884565b61079b60065481565b61079b6110533660046168ca565b6138c8565b610791611066366004616312565b613a51565b610791613a86565b61079b60135481565b61079161108a36600461643f565b613abc565b61079b60085481565b601454610831906001600160a01b031681565b61079b6110b9366004616312565b613b0b565b60095461085c90600160381b900460ff1681565b6107916110e03660046165ab565b613b33565b61079b60105481565b610791613ba4565b601d54610c0b906001600160801b0380821691600160801b90041682565b601954601a54601b54601c5461114d936001600160a01b03811693600160a01b90910463ffffffff16926001600160b81b039091169185565b604080516001600160a01b03909616865263ffffffff90941660208601526001600160b81b03909216928401929092526060830191909152608082015260a0016107a5565b61119a613bb4565b6111a381613bdf565b50565b6000806111b1613250565b506005549095506111d194508593506001600160a01b0316915050613c23565b91505090565b60008060006111e4613cbb565b6111ec613d14565b9250925092506111fc6001600f55565b909192565b611209613bb4565b611211613f3d565b565b606060168054611222906168f8565b80601f016020809104026020016040519081016040528092919081815260200182805461124e906168f8565b801561129b5780601f106112705761010080835404028352916020019161129b565b820191906000526020600020905b81548152906001019060200180831161127e57829003601f168201915b5050505050905090565b60006112b48260006001611f74565b92915050565b6112c2613bb4565b6022805463ff000000191663010000001790556040517f1cd8398e5a04411acbddcb6451a57b51c242322c538947cea5e4a1a506700b8790600090a1565b611308613bb4565b602254610100900460ff161561133157604051631186953760e31b815260040160405180910390fd5b60105460408051918252602082018390527fe796e9ae748449310fcd1cc6718aab236c9b8d2e0e04dacb232ba564d5b338cc910160405180910390a1601055565b600033611380818585613f7c565b5060019392505050565b600080611395613250565b509450505050506113b2836001836140a19092919063ffffffff16565b9392505050565b6113c1613bb4565b6022546301000000900460ff16156113ec57604051631186953760e31b815260040160405180910390fd5b60115460125460135460408051938452602084019290925282820152606082018590526080820184905260a08201839052517fc9aa62b60be8f25ac9f285edbb80bde64199b3c53e1da1027058551d32695fca9181900360c00190a1601192909255601255601355565b6000811561148c576000611468613250565b509450505050506114848585836140a19092919063ffffffff16565b9150506113b2565b60408051808201909152601d546001600160801b038082168352600160801b9091041660208201526114bf9085856140a1565b949350505050565b6040805160a08101825260008082526020820181905291810182905260608101829052608081018290528190819060408051808201909152600080825260208201526040805180820190915260008082526020820152611525613cbb565b61152d614132565b92995090975095509350508615611588575050604080518082018252601d546001600160801b038082168352600160801b9182900481166020808501919091528451808601909552601e548083168652929092041690830152905b6115926001600f55565b91939550919395565b6000336115a98582856143ce565b6115b4858585614448565b506001949350505050565b6115c7613bb4565b6022805461ff0019166101001790556040517f0af6d9d6ea0e3f0cdb71562ce1fce30aa597445ea04f5b25a939cfe0a252171c90600090a1565b6000336113808185856116148383613819565b61161e9190616942565b613f7c565b600061162d613cbb565b6001600160a01b03821661165457604051631e4ec46b60e01b815260040160405180910390fd5b600954610100900460ff161561167d57604051631e61c1e960e11b815260040160405180910390fd5b611685614132565b505060408051808201909152601e546001600160801b038082168352600160801b90910416602082015292506116c191508290508560016145f3565b91506116e0816116d08461466b565b6116d98761466b565b33876146d8565b506112b46001600f55565b6116f361491f565b6001600160a01b038216600081815260156020908152604091829020805460ff19168515159081179091558251938452908301527fea1eefb4fd58778d7b274fe54045a9feeec8f2847899c2e71126d3a74d486da591015b60405180910390a15050565b61175f614979565b60075460ff16611774576117746000196149bd565b60095460ff16611789576117896000196149f2565b60095462010000900460ff166117a3576117a36000614a27565b600954600160201b900460ff166117be576117be6000614a70565b600954600160301b900460ff166117d9576117d96000614abd565b600954600160401b900460ff16611211576117f2614132565b50505050506112116000614b0e565b60008061180c613250565b50600854600554919650945061183093508592506001600160a01b03169050613c23565b101561185f5760055461184d9082906001600160a01b0316613c23565b60085461185a9190616955565b6113b2565b60009392505050565b611870613bb4565b6111a381614b5f565b801561188c57611887614baf565b611894565b611894614979565b60095462010000900460ff16156118be5760405163035b48f760e31b815260040160405180910390fd5b6111a381614a27565b80156118da576118d5614baf565b6118e2565b6118e2614979565b600954600160301b900460ff161561190d5760405163035b48f760e31b815260040160405180910390fd5b6111a381614abd565b61191e613bb4565b611211614c3f565b600080611931613250565b509450505050506113b2836000836145f39092919063ffffffff16565b611956613bb4565b61195e614c7b565b6119686000614b5f565b6112116000614ca6565b61197a613bb4565b611211614d02565b61198a614baf565b60095460ff16156119ae5760405163035b48f760e31b815260040160405180910390fd5b61121160006149f2565b6119c0613bb4565b60225462010000900460ff16156119ea57604051631186953760e31b815260040160405180910390fd5b601454604080516001600160a01b03928316815291831660208301527faeae842c8b3cd009fbb602e1ed072dc1aec69750e431ceae97f7543b466cd04c910160405180910390a1601480546001600160a01b0319166001600160a01b0392909216919091179055565b6000611a5d613cbb565b6001600160a01b038216611a8457604051631e4ec46b60e01b815260040160405180910390fd5b611a8c614132565b505060408051808201909152601d546001600160801b038082168352600160801b909104166020820152600554909350869250611ad4915083906001600160a01b0316613c23565b611ade9190616942565b6008541015611b0057604051630aad288560e21b815260040160405180910390fd5b611b0c818560006140a1565b91506116e081611b1b8661466b565b611b248561466b565b866001614d45565b6001600160a01b03166000908152600a602052604090205490565b611b4f61491f565b6112116000614e4c565b6000611b63613cbb565b6001600160a01b038216611b8a57604051631e4ec46b60e01b815260040160405180910390fd5b60095465010000000000900460ff1615611bb757604051631b4b0d7760e21b815260040160405180910390fd5b82421115611be657604051635ba2a8d560e01b8152426004820152602481018490526044015b60405180910390fd5b611bee614132565b50505050506000611bfd613d14565b50915050611c0b8382614e65565b15611c2957604051633af2cafd60e11b815260040160405180910390fd5b604080518082018252601e546001600160801b038082168352600160801b909104166020808301919091526001600160a01b03861660009081528180528381205460219092529283205491929091611c809061466b565b905060008080670de0b6b3a764000087611ca4886001600160801b038f16856145f3565b611cae9190616968565b611cb8919061697f565b90506000620186a0601154620186a0611cd19190616942565b611cdb9084616968565b611ce5919061697f565b9050611cf081614f4e565b611cf987614f4e565b611d0391906169a1565b93506000841315611d3c57620186a0601254620186a0611d239190616942565b611d2d9084616968565b611d37919061697f565b611d3e565b855b60135490995015611d7457620186a089601354611d5b9190616968565b611d65919061697f565b9250611d71838a616955565b98505b5060009050611d96611d91876001600160801b038e1660016145f3565b61466b565b905060008060008513611e3557611dad8d876169c8565b91506001600160801b03821615611e3557611dd6611d91896001600160801b03851660006145f3565b90508088600001818151611dea91906169c8565b6001600160801b03908116909152601d80548493509091600091611e10918591166169c8565b92506101000a8154816001600160801b0302191690836001600160801b031602179055505b8a6001600160a01b03167f821de4e13fff1938b3806eb2859b6a5d55111f00dcf286f8a793584228ff36f88b8f86888787604051611ea9969594939291909586526001600160801b03948516602087015292841660408601526060850191909152821660808401521660a082015260c00190565b60405180910390a250611eca8783838f611ec391906169e8565b338e6146d8565b611ed589338c614fb8565b611ee083308c614fb8565b611eeb30843061509d565b50505050505050506113b26001600f55565b60035433906001600160a01b03168114611f6b5760405162461bcd60e51b815260206004820152602960248201527f4f776e61626c6532537465703a2063616c6c6572206973206e6f7420746865206044820152683732bb9037bbb732b960b91b6064820152608401611bdd565b6111a381614e4c565b60008115611fa2576000611f86613250565b509450505050506114848585836145f39092919063ffffffff16565b60408051808201909152601d546001600160801b038082168352600160801b9091041660208201526114bf9085856145f3565b60008115612003576000611fe7613250565b955050505050506114848585836145f39092919063ffffffff16565b60408051808201909152601e546001600160801b038082168352600160801b9091041660208201526114bf9085856145f3565b61203e613bb4565b61121161516c565b61204e613bb4565b600954600160381b900460ff16156120795760405163a02a2bcd60e01b815260040160405180910390fd5b61c3508163ffffffff1611156120a25760405163da0afa5760e01b815260040160405180910390fd5b6120aa614132565b50506018805467ffffffff000000001916600160201b63ffffffff8716908102919091179091556040519081527f58a58c712558f3d6e20bed57421eb8f73048d881dea9e5bb80efb37c49680d1c935060200191506121069050565b60405180910390a150565b612119613bb4565b6111a3816151ad565b61212a614baf565b60075460ff1661213e5761213e60006149bd565b60095460ff166121525761215260006149f2565b60095462010000900460ff1661216c5761216c6001614a27565b600954600160201b900460ff16612187576121876001614a70565b600954600160301b900460ff166121a2576121a26001614abd565b600954600160401b900460ff16611211576121bb614132565b50505050506112116001614b0e565b80156121dd576121d8614baf565b6121e5565b6121e5614979565b600954600160401b900460ff16156122105760405163035b48f760e31b815260040160405180910390fd5b612218614132565b50505050506111a381614b0e565b61222e613bb4565b6111a381615207565b61223f613bb4565b60225460ff161561226357604051631186953760e31b815260040160405180910390fd5b6040805160a0810182526019546001600160a01b03811680835263ffffffff600160a01b9092049190911660208301819052601a546001600160b81b031683850152601b546060840152601c546080840152925191927f78ba1c32ac8ea4b3d51133dd0b6f5d8f98e23797aade6afc381ea317d5d4f28b92612315929190879087906001600160a01b03948516815263ffffffff93841660208201529190931660408201529116606082015260800190565b60405180910390a16001600160a01b039290921680835263ffffffff9190911660208301819052601980546001600160c01b031916909217600160a01b9091021790556040810151601a80546001600160b81b0319166001600160b81b039092169190911790556060810151601b5560800151601c55565b600081156123bb57600061239f613250565b955050505050506114848585836140a19092919063ffffffff16565b60408051808201909152601e546001600160801b038082168352600160801b9091041660208201526114bf9085856140a1565b60006123f8613cbb565b6001600160a01b03821661241f57604051631e4ec46b60e01b815260040160405180910390fd5b612427614132565b505060408051808201909152601d546001600160801b038082168352600160801b909104166020820152925061246391508290508560006145f3565b600554909250829061247f9083906001600160a01b0316613c23565b6124899190616942565b60085410156124ab57604051630aad288560e21b815260040160405180910390fd5b6116e0816124b88461466b565b611b248761466b565b606060178054611222906168f8565b60006124e7670de0b6b3a764000060006001611f74565b905090565b60006124f6613cbb565b336124ff614132565b5050505050600061250e613d14565b50509050806125305760405163345513d960e01b815260040160405180910390fd5b506001600160a01b0387166000908152601560205260409020547f0000000000000000000000000000000000000000000000000000000000000000907f00000000000000000000000000000000000000000000000000000000000000009060ff166125ae57604051631311dc6d60e01b815260040160405180910390fd5b816001600160a01b0316856000815181106125cb576125cb616a08565b60200260200101516001600160a01b03161461262d5781856000815181106125f5576125f5616a08565b602002602001015160405163b0b3262d60e01b8152600401611bdd9291906001600160a01b0392831681529116602082015260400190565b806001600160a01b031685600187516126469190616955565b8151811061265657612656616a08565b60200260200101516001600160a01b03161461268c5780856001875161267c9190616955565b815181106125f5576125f5616a08565b861561269d5761269d33883361509d565b60006126b16126ab8a61466b565b3061524b565b60405163095ea7b360e01b81526001600160a01b038c81166004830152602482018c90529192509084169063095ea7b3906044016020604051808303816000875af1158015612704573d6000803e3d6000fd5b505050506040513d601f19601f820116820180604052508101906127289190616a1e565b506040516370a0823160e01b81523060048201526000906001600160a01b038416906370a0823190602401602060405180830381865afa158015612770573d6000803e3d6000fd5b505050506040513d601f19601f820116820180604052508101906127949190616a3b565b6040516338ed173960e01b81529091506001600160a01b038c16906338ed1739906127cb908d908c908c9030904290600401616a54565b6000604051808303816000875af11580156127ea573d6000803e3d6000fd5b505050506040513d6000823e601f3d908101601f191682016040526128129190810190616ac5565b506040516370a0823160e01b81523060048201526000906001600160a01b038516906370a0823190602401602060405180830381865afa15801561285a573d6000803e3d6000fd5b505050506040513d601f19601f8201168201806040525081019061287e9190616a3b565b9050600061288c8383616955565b9050898110156128b957604051633b5d56ed60e11b8152600481018b905260248101829052604401611bdd565b6128c430823361509d565b6128ce818c616942565b9750336001600160a01b03167fb19ca0df3f3a01af950d8e6ad62aeff167cf14c73e98af6c52afef1add5c97ed8e8e878f8660405161293a9594939291906001600160a01b03959095168552602085019390935260408401919091526060830152608082015260a00190565b60405180910390a250506040805160a0810182526019546001600160a01b0381168252600160a01b900463ffffffff166020820152601a546001600160b81b031691810191909152601b546060820152601c54608082018190529094506129a693508592509050614e65565b612a3e576001600160a01b038216600090815260216020908152604091829020548251808401909352601e546001600160801b038082168552600160801b90910416918301919091526129fb919060016145f3565b6001600160a01b03831660009081526020805260409081902054601c549151633b49de0f60e21b8152600481019390935260248301526044820152606401611bdd565b5050612a4a6001600f55565b95945050505050565b60003381612a618286613819565b905083811015612ac15760405162461bcd60e51b815260206004820152602560248201527f45524332303a2064656372656173656420616c6c6f77616e63652062656c6f77604482015264207a65726f60d81b6064820152608401611bdd565b6115b48286868403613f7c565b600033611380818585614448565b6000612ae6613cbb565b6001600160a01b038316612b0d57604051631e4ec46b60e01b815260040160405180910390fd5b6009546301000000900460ff1615612b385760405163e0a3980360e01b815260040160405180910390fd5b612b40614132565b505060408051808201909152601d546001600160801b038082168352600160801b9091041660208201529250612b7c91508290508660016140a1565b9150612b9d81612b8b8761466b565b612b948561466b565b8787600061548d565b506113b26001600f55565b6000806000612bb684611b2c565b6001600160a01b0390941660009081526021602090815260408083205491805290912054949590949350915050565b6000612bef613cbb565b6001600160a01b038316612c1657604051631e4ec46b60e01b815260040160405180910390fd5b6009546301000000900460ff1615612c415760405163e0a3980360e01b815260040160405180910390fd5b612c49614132565b505060408051808201909152601d546001600160801b038082168352600160801b9091041660208201529250612c8591508290508660006145f3565b9150612b9d81612c948461466b565b612b948861466b565b612ca5614979565b60095460ff1615612cc95760405163035b48f760e31b815260040160405180910390fd5b6111a3816149f2565b612cda613bb4565b6111a3816156fd565b600080612cee613250565b50600854600554919650600095509350612d1492508591506001600160a01b0316613c23565b1015612d4357600554612d319083906001600160a01b0316613c23565b600854612d3e9190616955565b612d46565b60005b90506114bf828260006140a1565b60006112b48260006001611456565b6000612d6d613cbb565b33612d76614132565b50505050506000612d85613d14565b5050905080612da75760405163345513d960e01b815260040160405180910390fd5b6001600160a01b0388166000908152601560205260409020547f0000000000000000000000000000000000000000000000000000000000000000907f00000000000000000000000000000000000000000000000000000000000000009060ff16612e2457604051631311dc6d60e01b815260040160405180910390fd5b806001600160a01b031687876000818110612e4157612e41616a08565b9050602002016020810190612e5691906165ab565b6001600160a01b031614612eb9578087876000818110612e7857612e78616a08565b9050602002016020810190612e8d91906165ab565b60405163b0b3262d60e01b81526001600160a01b03928316600482015291166024820152604401611bdd565b6001600160a01b0382168787612ed0600182616955565b818110612edf57612edf616a08565b9050602002016020810190612ef491906165ab565b6001600160a01b031614612f1f57818787612f10600182616955565b818110612e7857612e78616a08565b612f2a893033614fb8565b60405163095ea7b360e01b81526001600160a01b038b81166004830152602482018b905282169063095ea7b3906044016020604051808303816000875af1158015612f79573d6000803e3d6000fd5b505050506040513d601f19601f82011682018060405250810190612f9d9190616a1e565b506040516370a0823160e01b81523060048201526000906001600160a01b038416906370a0823190602401602060405180830381865afa158015612fe5573d6000803e3d6000fd5b505050506040513d601f19601f820116820180604052508101906130099190616a3b565b6040516338ed173960e01b81529091506001600160a01b038c16906338ed173990613042908d908d908d908d9030904290600401616b4a565b6000604051808303816000875af1158015613061573d6000803e3d6000fd5b505050506040513d6000823e601f3d908101601f191682016040526130899190810190616ac5565b506040516370a0823160e01b81523060048201526000906001600160a01b038516906370a0823190602401602060405180830381865afa1580156130d1573d6000803e3d6000fd5b505050506040513d601f19601f820116820180604052508101906130f59190616a3b565b90506131018282616955565b96508987101561312e57604051633b5d56ed60e11b8152600481018b905260248101889052604401611bdd565b60408051808201909152601e546001600160801b038082168352600160801b9091041660208201526000613163828a836140a1565b9050613182826131728b61466b565b61317b8461466b565b30336146d8565b336001600160a01b03167fe947f0f9b6255bdcf76d13d1257d34fbe380e0d5d4daa75e61c783a41e1607ba8f8f8c856040516131e294939291906001600160a01b0394909416845260208401929092526040830152606082015260800190565b60405180910390a250506040805160a0810182526019546001600160a01b0381168252600160a01b900463ffffffff166020820152601a546001600160b81b031691810191909152601b546060820152601c54608082018190529095506129a694508693509150614e659050565b6040805160a081018252600080825260208201819052918101829052606081018290526080810182905281908190604080518082019091526000808252602082015260408051808201909152600080825260208201526040805160a08101825260185463ffffffff8082168352600160201b82041660208301526001600160401b03600160401b8204811693830193909352600160801b810483166060830152600160c01b900490911660808201529250600061330c84615757565b80519091501561336a5760608082015160808084015160a085015160208601516001600160401b03908116958a019590955260408601519094169188019190915260c084015160e0850151929a5090985091965090935091506133b5565b604080518082018252601d546001600160801b038082168352600160801b9182900481166020808501919091528451808601909552601e548083168652929092041690830152935091505b50909192939495565b6133c6613cbb565b6001600160a01b0381166133ed57604051631e4ec46b60e01b815260040160405180910390fd5b6133f5614132565b505050505061340533838361509d565b61340f6001600f55565b5050565b6000806000806000806000613426613250565b600554919750955061344b9450611d9193508692506001600160a01b03169050613c23565b60209283015182519290930151601f54919993985091965090945092509050565b6009546000906301000000900460ff161561348957506000919050565b6000806000613496613250565b9550955050945050506000306001600160a01b0316866001600160a01b0316146134c8576134c386611b2c565b6134dc565b836134d287611b2c565b6134dc9190616942565b905060006134ec84846001615aa2565b905060006134fb8584836145f3565b905080821061350a578061350c565b815b98975050505050505050565b613520613cbb565b336001600160a01b03821661354857604051631e4ec46b60e01b815260040160405180910390fd5b613550614132565b50503360009081526021602052604090205415925061359a915050576000613576613d14565b50509050806135985760405163345513d960e01b815260040160405180910390fd5b505b6135a5838333614fb8565b6040805160a0810182526019546001600160a01b0381168252600160a01b900463ffffffff166020820152601a546001600160b81b031691810191909152601b546060820152601c5460808201819052613600908390614e65565b613655576001600160a01b038216600090815260216020908152604091829020548251808401909352601e546001600160801b038082168552600160801b90910416918301919091526129fb919060016145f3565b505061340f6001600f55565b6009546000906301000000900460ff161561367e57506000919050565b600080600061368b613250565b95509550509450505060006136a283836001615aa2565b905060006136b18483836140a1565b905060006001600160a01b03881630146136d3576136ce88611b2c565b6134fb565b856136dd89611b2c565b6134fb9190616942565b60006136f161491f565b6001600160a01b03821661371857604051631e4ec46b60e01b815260040160405180910390fd5b60408051808201909152601d546001600160801b038082168352600160801b90910481166020830152841660000361375957613756611d9130611b2c565b93505b61376e816001600160801b03861660016145f3565b91506137843033866001600160801b0316613f7c565b61379b816137918461466b565b868630600061548d565b306000818152602080526040902054906137b89082908690614fb8565b604080516001600160801b03871681526001600160a01b0386166020820152908101849052606081018290527faf48306b6b4f0ba30d00f05b21559d8d29934142980a553d8a014780c6c7e4529060800160405180910390a1505092915050565b6001600160a01b039182166000908152600b6020908152604080832093909416825291909152205490565b61384c613bb4565b6022805460ff191660011790556040517faa96740f913149dce2173396218295b4c082e86fabacc37ac8d45305239d26f390600090a1565b61388c613bb4565b6022805462ff00001916620100001790556040517f70328969870b42d0fc62ce5946530c50a466c5ad21af004a9f2f3a8eda9a4a0c90600090a1565b60006138d2613cbb565b336001600160a01b0383166138fa57604051631e4ec46b60e01b815260040160405180910390fd5b613902614132565b5050601e5461391f93508892506001600160801b03169050616942565b6006541015613941576040516397ba4de360e01b815260040160405180910390fd5b600061394b613d14565b505090508061396d5760405163345513d960e01b815260040160405180910390fd5b841561397e5761397e33863361509d565b61399061398a8761466b565b8561524b565b6040805160a0810182526019546001600160a01b0381168252600160a01b900463ffffffff166020820152601a546001600160b81b031691810191909152601b546060820152601c546080820181905291945091506139f0908390614e65565b613a45576001600160a01b038216600090815260216020908152604091829020548251808401909352601e546001600160801b038082168552600160801b90910416918301919091526129fb919060016145f3565b50506113b26001600f55565b613a59614979565b60075460ff1615613a7d5760405163035b48f760e31b815260040160405180910390fd5b6111a3816149bd565b613a8e614baf565b60075460ff1615613ab25760405163035b48f760e31b815260040160405180910390fd5b61121160006149bd565b8015613acf57613aca614baf565b613ad7565b613ad7614979565b600954600160201b900460ff1615613b025760405163035b48f760e31b815260040160405180910390fd5b6111a381614a70565b600080613b16613250565b509450505050506113b2836000836140a19092919063ffffffff16565b613b3b61491f565b600380546001600160a01b0383166001600160a01b03199091168117909155613b6c6002546001600160a01b031690565b6001600160a01b03167f38d16b8cac22d99fc7c124b9cd0de2d3fa1faef420bfe791d8c362d765e2270060405160405180910390a350565b613bac614c7b565b611211615aff565b6001546001600160a01b0316331461121157604051630e05f48560e11b815260040160405180910390fd5b6007805460ff1916600117905560068190556040517fee4b3f9e70b2c6499288c7b5fbef140756009cf8839be64c473b1c7cb6d616c4906121069083815260200190565b60006001600160a01b038216613c44575081516001600160801b03166112b4565b816001600160a01b03166313b98c0f6040518163ffffffff1660e01b8152600401602060405180830381865afa158015613c82573d6000803e3d6000fd5b505050506040513d601f19601f82011682018060405250810190613ca69190616a3b565b83516113b291906001600160801b0316616942565b6002600f5403613d0d5760405162461bcd60e51b815260206004820152601f60248201527f5265656e7472616e637947756172643a207265656e7472616e742063616c6c006044820152606401611bdd565b6002600f55565b6040805160a0810182526019546001600160a01b0381168252600160a01b900463ffffffff166020820152601a546001600160b81b0316918101829052601b546060820152601c546080820152600091829182914214613ee057600081600001516001600160a01b031663bd9a548b6040518163ffffffff1660e01b8152600401606060405180830381865afa158015613db2573d6000803e3d6000fd5b505050506040513d601f19601f82011682018060405250810190613dd69190616bbd565b909550935090508015613e235781516040516001600160a01b0390911681527ffc131c36b7e444dacda44901fd43641dcdcfdc43fe9e2601b3c1dd87061db9e59060200160405180910390a15b6001600160b81b03421660408084018290526060840186905260808401859052835160198054602087015163ffffffff16600160a01b026001600160c01b03199091166001600160a01b0390931692909217919091179055601a80546001600160b81b031916909217909155601b859055601c849055517fc1f41e029acf5127d111625602160c4cee3e1a4d38e691e50544d1f7c68b77be90613ed29086908690918252602082015260400190565b60405180910390a150613eef565b80606001519250806080015191505b6080810151606082015160009190613f079082616955565b613f1490620186a0616968565b613f1e919061697f565b9050816020015163ffffffff168111613f3657600194505b5050909192565b6009805464ff000000001916600160201b1790556040517fb949af551d0c88280e648f9205b986bb5f1d899c425498238655ee37617c0c3990600090a1565b6001600160a01b038316613fde5760405162461bcd60e51b8152602060048201526024808201527f45524332303a20617070726f76652066726f6d20746865207a65726f206164646044820152637265737360e01b6064820152608401611bdd565b6001600160a01b03821661403f5760405162461bcd60e51b815260206004820152602260248201527f45524332303a20617070726f766520746f20746865207a65726f206164647265604482015261737360f01b6064820152608401611bdd565b6001600160a01b038381166000818152600b602090815260408083209487168084529482529182902085905590518481527f8c5be1e5ebec7d5bd14f71427d1e84f3dd0314c0f7b2291e5b200ac8c7c3b92591015b60405180910390a3505050565b82516000906001600160801b031681036140bc5750816113b2565b835160208501516001600160801b03918216916140da911685616968565b6140e4919061697f565b905081801561412257508284602001516001600160801b031685600001516001600160801b0316836141169190616968565b614120919061697f565b105b156113b2576114bf816001616942565b6000806000806141696040805160a08101825260008082526020820181905291810182905260608101829052608081019190915290565b506040805160a08101825260185463ffffffff8082168352600160201b82041660208301526001600160401b03600160401b8204811693830193909352600160801b810483166060830152600160c01b9004909116608082015260006141ce82615757565b8051909150156143c6578060000151955080606001519450806080015193508060a0015192507fc63977c8e2362a31182dc8e89a52252f9836922738e0abcfc0de6924972eafe5826060015183608001518360200151846040015160405161425f94939291906001600160401b03948516815292841660208401529083166040830152909116606082015260800190565b60405180910390a17f2b5229f33f1d24d5baab718e1e25d0d86195a9b6d786c2c0868edfb21a460e2585826020015186866040516142bf94939291909384526001600160401b039290921660208401526040830152606082015260800190565b60405180910390a16020818101516001600160401b0390811660608501819052604080850151831660808701819052429093169086018190524363ffffffff908116808852601880548988015167ffffffffffffffff19909116909217600160201b92909316919091029190911777ffffffffffffffffffffffffffffffff00000000000000001916600160401b90920267ffffffffffffffff60801b191691909117600160801b928302176001600160c01b0316600160c01b9093029290921790915560c08301518051908301516001600160801b03918216908216830217601d5560e0840151805193015192811692160217601e5582156143c6576143c63084615b18565b509091929394565b60006143da8484613819565b9050600019811461444257818110156144355760405162461bcd60e51b815260206004820152601d60248201527f45524332303a20696e73756666696369656e7420616c6c6f77616e63650000006044820152606401611bdd565b6144428484848403613f7c565b50505050565b6001600160a01b0383166144ac5760405162461bcd60e51b815260206004820152602560248201527f45524332303a207472616e736665722066726f6d20746865207a65726f206164604482015264647265737360d81b6064820152608401611bdd565b6001600160a01b03821661450e5760405162461bcd60e51b815260206004820152602360248201527f45524332303a207472616e7366657220746f20746865207a65726f206164647260448201526265737360e81b6064820152608401611bdd565b6001600160a01b0383166000908152600a6020526040902054818110156145865760405162461bcd60e51b815260206004820152602660248201527f45524332303a207472616e7366657220616d6f756e7420657863656564732062604482015265616c616e636560d01b6064820152608401611bdd565b6001600160a01b038085166000818152600a602052604080822086860390559286168082529083902080548601905591517fddf252ad1be2c89b69c2b068fc378daa952ba7f163c4a11628f55a4df523b3ef906145e69086815260200190565b60405180910390a3614442565b600083602001516001600160801b03166000036146115750816113b2565b602084015184516001600160801b039182169161462f911685616968565b614639919061697f565b905081801561412257508284600001516001600160801b031685602001516001600160801b0316836141169190616968565b60006001600160801b038211156146d45760405162461bcd60e51b815260206004820152602760248201527f53616665436173743a2076616c756520646f65736e27742066697420696e20316044820152663238206269747360c81b6064820152608401611bdd565b5090565b83856000018181516146ea91906169c8565b6001600160801b031690525060208501805184919061470a9083906169c8565b6001600160801b039081169091526001600160a01b03831660009081526021602052604081208054928716935091614743908490616955565b9091555050845160208601516001600160801b03908116600160801b02911617601e556001600160a01b03821630146147b4576147b46001600160a01b037f00000000000000000000000000000000000000000000000000000000000000001683306001600160801b038816615bde565b600560009054906101000a90046001600160a01b03166001600160a01b031663131a6df36040518163ffffffff1660e01b8152600401600060405180830381600087803b15801561480457600080fd5b505af1158015614818573d6000803e3d6000fd5b5050600554604051639d6c635160e01b8152306004820152600093506001600160a01b039091169150639d6c635190602401602060405180830381865afa158015614867573d6000803e3d6000fd5b505050506040513d601f19601f8201168201806040525081019061488b9190616a3b565b905080156148c4576000856001600160801b031682116148ab57816148b6565b856001600160801b03165b90506148c181615bea565b50505b604080516001600160801b038088168252861660208201526001600160a01b0380851692908616917f9dc1449a0ff0c152e18e8289d865b47acc6e1b76b1ecb239c13d6ee22a9206a7910160405180910390a3505050505050565b6002546001600160a01b031633146112115760405162461bcd60e51b815260206004820181905260248201527f4f776e61626c653a2063616c6c6572206973206e6f7420746865206f776e65726044820152606401611bdd565b6002546001600160a01b0316331480159061499f57506001546001600160a01b03163314155b1561121157604051636f54526960e01b815260040160405180910390fd5b60068190556040518181527fbf1ce7fb3a8e648b70ea830f99b52f7ea31554186d29763280751f42e77f638690602001612106565b60088190556040518181527f854df3eb95564502c8bc871ebdd15310ee26270f955f6c6bd8cea68e75045bc090602001612106565b600980548215156101000261ff00199091161790556040517f34a71a12fa81891b738d910d4d44ffabeeb12f8bc026844db237ea8bf8ebe8be9061210690831515815260200190565b6009805482151563010000000263ff000000199091161790556040517fc56dd3e14f5af3a74c61b7cdf855a3d8ab4401c78c0622a4d312de8a8f8736a29061210690831515815260200190565b60098054821515650100000000000265ff0000000000199091161790556040517f28bc4f9e24da61e7ba3aa697dfaefd0167093d2425c00b6190a7d3152ee6dfaa9061210690831515815260200190565b60098054821515600160381b0267ff00000000000000199091161790556040517fdea8bb46eee4300a7d2de86939c245f568dc5994576194cbfb69969e010dcb679061210690831515815260200190565b600080546001600160a01b0319166001600160a01b03838116918217835560015460405192939116917f162998b90abc2507f3953aa797827b03a14c42dbd9a35f09feaf02e0d592773a9190a350565b6004546001600160a01b03163314801590614bd557506002546001600160a01b03163314155b8015614c0a5750336001600160a01b037f00000000000000000000000000000000000000000000000000000000000000001614155b8015614c2157506001546001600160a01b03163314155b1561121157604051631d1e647b60e01b815260040160405180910390fd5b6009805462ff00001916620100001790556040517f269ac55859865c2ff127a862e95c81ce7e3b9b13582036d3df419df5c07ec8b490600090a1565b6000546001600160a01b0316331461121157604051633d71279960e21b815260040160405180910390fd5b6001546040516001600160a01b038084169216907f31b6c5a04b069b6ec1b3cef44c4e7c1eadd721349cda9823d0b1877b3551cdc690600090a3600180546001600160a01b0319166001600160a01b0392909216919091179055565b6009805468ff00000000000000001916600160401b1790556040517f16c0a933c76f28f1abdcef88bcea1650397c5f4bb4bf491a0d451a65cae016b690600090a1565b8385600001818151614d5791906169e8565b6001600160801b0316905250602085018051849190614d779083906169e8565b6001600160801b03908116909152614d93915083908516615b18565b845160208601516001600160801b03908116600160801b02911617601d558015614df557614df56001600160a01b037f00000000000000000000000000000000000000000000000000000000000000001633306001600160801b038816615bde565b604080516001600160801b038087168252851660208201526001600160a01b0384169133917fdcbc1c05240f31ff3ad067ef1ee35ce4997762752e3a095284754544f4c709d7910160405180910390a35050505050565b600380546001600160a01b03191690556111a381615d5a565b6000601054600003614e79575060016112b4565b6001600160a01b0383166000908152602160209081526040808320548151808301909252601e546001600160801b038082168452600160801b9091041692820192909252614ec89160016145f3565b905080600003614edc5760019150506112b4565b6001600160a01b038416600090815260208052604081205490819003614f07576000925050506112b4565b600081620186a0670de0b6b3a7640000614f218887616968565b614f2b919061697f565b614f359190616968565b614f3f919061697f565b60105410159695505050505050565b60006001600160ff1b038211156146d45760405162461bcd60e51b815260206004820152602860248201527f53616665436173743a2076616c756520646f65736e27742066697420696e2061604482015267371034b73a191a9b60c11b6064820152608401611bdd565b6001600160a01b038116600090815260208052604081208054859290614fdf908490616955565b9250508190555082601f6000828254614ff89190616955565b90915550506001600160a01b0382163014615041576150416001600160a01b037f0000000000000000000000000000000000000000000000000000000000000000168385615dac565b806001600160a01b0316826001600160a01b0316336001600160a01b03167fbc290bb45104f73cf92115c9603987c3f8fd30c182a13603d8cffa49b5f599528660405161509091815260200190565b60405180910390a4505050565b6001600160a01b0381166000908152602080526040812080548492906150c4908490616942565b9250508190555081601f60008282546150dd9190616942565b90915550506001600160a01b0383163014615127576151276001600160a01b037f000000000000000000000000000000000000000000000000000000000000000016843085615bde565b806001600160a01b0316836001600160a01b03167fa32435755c235de2976ed44a75a2f85cb01faf0c894f639fe0c32bb9455fea8f8460405161409491815260200190565b6009805466ff0000000000001916600160301b1790556040517f60c2acdf5b421891c8cc7302420292f2680f0e835fc76dd15f35a7bb0dd5cbc890600090a1565b600480546001600160a01b038381166001600160a01b031983168117909355604080519190921680825260208201939093527f4cb8c9e37efb94c6cdbd2a80fe36cee1957b5584d1a1986fa2bae115180af59a910161174b565b6009805460ff1916600117905560088190556040517f3ff713beec3d10b4dfe28953471682eab1f857ba2fdb6367366252381888a750906121069083815260200190565b604080518082018252601e546001600160801b038082168352600160801b9182900481166020808501919091528451808601909552601d54808316865292909204169083015260009182906152a290836001615aa2565b9050846001600160801b03168110156152e0576040516362ddb6d760e11b8152600481018290526001600160801b0386166024820152604401611bdd565b60408051808201909152601d546001600160801b038082168352600160801b909104166020820152600090615316908483615aa2565b9050856001600160801b031681101561534c57600061533e826001600160801b038916616955565b905061534981615db7565b50505b615361836001600160801b03881660016140a1565b9350858360000181815161537591906169e8565b6001600160801b031690525061538a8461466b565b8360200181815161539b91906169e8565b6001600160801b0390811690915284516020808701518316600160801b029190921617601e5533600090815260219091526040812080548793509091906153e3908490616942565b90915550506001600160a01b0385163014615435576154356001600160a01b037f000000000000000000000000000000000000000000000000000000000000000016866001600160801b038916615dac565b604080516001600160801b0388168152602081018690526001600160a01b0387169133917f01348584ec81ac7acd52b7d66d9ade986dd909f3d513881c190fc31c90527efe910160405180910390a350505092915050565b336001600160a01b038316148015906154a4575080155b156154da5760006154b58333613819565b905060001981146154d8576154d8833361161e6001600160801b03891685616955565b505b60408051808201909152601e546001600160801b038082168352600160801b9091041660208201526000906155129088906001615aa2565b9050856001600160801b0316811015615550576040516362ddb6d760e11b8152600481018290526001600160801b0387166024820152604401611bdd565b6005546001600160a01b038481169116146155fe5760408051808201909152601e546001600160801b038082168352600160801b90910416602082015260009061559c90899083615aa2565b9050866001600160801b03168110156155fc5760006155c4826001600160801b038a16616955565b90506155cf81615db7565b505060408051808201909152601d546001600160801b038082168352600160801b90910416602082015297505b505b858760000181815161561091906169c8565b6001600160801b03169052506020870180518691906156309083906169c8565b6001600160801b03908116909152885160208a01518216600160801b0290821617601d55615662915084908716615ec3565b61569f6001600160a01b037f000000000000000000000000000000000000000000000000000000000000000016856001600160801b038916615dac565b604080516001600160801b038089168252871660208201526001600160a01b03808616929087169133917ffbde797d201c681b91056529119e0b02407c7bb96a4a2c75c01fc9667232c8db910160405180910390a450505050505050565b600580546001600160a01b038381166001600160a01b031983168117909355604080519190921680825260208201939093527f555b230d631cc610f418cd672052f049221d785a7c2fba40a3bfe97f6180b5cb910161174b565b61575f61628a565b4282604001516001600160401b0316141580156157865750600954600160381b900460ff16155b15615a9d5760018152604080518082018252601d546001600160801b038082168352600160801b91829004811660208085019190915260c086019390935283518085018552601e54808316825292909204169181019190915260e08301528201516000906157fd906001600160401b031642616955565b60055460c084015191925060009161581d916001600160a01b0316613c23565b9050600081156158545760e0840151518290615845906001600160801b0316620186a0616968565b61584f919061697f565b615857565b60005b601454608087015160405163cd3181d560e01b815260048101879052602481018490526001600160401b0390911660448201529192506001600160a01b03169063cd3181d5906064016040805180830381865afa1580156158bc573d6000803e3d6000fd5b505050506040513d601f19601f820116820180604052508101906158e09190616c0b565b6001600160401b039081166040870152166020850181905260e085015151670de0b6b3a7640000919061591c906001600160801b031686616968565b6159269190616968565b615930919061697f565b6060850181905215801590615964575060e08401515160608501516001600160801b03916159619190831690616942565b11155b8015615987575060608401516001600160801b0390615984908490616942565b11155b15615a9957615999846060015161466b565b60e085015180516159ab9083906169e8565b6001600160801b031690525060608401516159c59061466b565b60c085015180516159d79083906169e8565b6001600160801b0316905250602085015163ffffffff1615615a9957620186a0856020015163ffffffff168560600151615a119190616968565b615a1b919061697f565b6080850181905260c0850151615a32906000613c23565b615a3c9190616955565b8460c00151602001516001600160801b03168560800151615a5d9190616968565b615a67919061697f565b60a08501819052615a779061466b565b8460c00151602001818151615a8c91906169e8565b6001600160801b03169052505b5050505b919050565b60008115615ae05782516005546001600160801b0390911690615acf9086906001600160a01b0316613c23565b615ad99190616955565b90506113b2565b82518451615aee91906169c8565b6001600160801b0316949350505050565b600080546001600160a01b031916905561121133614ca6565b6001600160a01b038216615b6e5760405162461bcd60e51b815260206004820152601f60248201527f45524332303a206d696e7420746f20746865207a65726f2061646472657373006044820152606401611bdd565b80600c6000828254615b809190616942565b90915550506001600160a01b0382166000818152600a60209081526040808320805486019055518481527fddf252ad1be2c89b69c2b068fc378daa952ba7f163c4a11628f55a4df523b3ef910160405180910390a35050565b505050565b61444284848484615ff7565b6000615bf4614132565b505060408051808201909152601d546001600160801b038082168352600160801b9091041660208201529250615c3091508290508460016140a1565b9150615c5d81615c3f8561466b565b615c488561466b565b60055430906001600160a01b0316600161548d565b60055460405163095ea7b360e01b81526001600160a01b039182166004820152602481018590527f00000000000000000000000000000000000000000000000000000000000000009091169063095ea7b3906044016020604051808303816000875af1158015615cd1573d6000803e3d6000fd5b505050506040513d601f19601f82011682018060405250810190615cf59190616a1e565b50600554604051630c264bc360e31b8152600481018590526001600160a01b03909116906361325e1890602401600060405180830381600087803b158015615d3c57600080fd5b505af1158015615d50573d6000803e3d6000fd5b5050505050919050565b600280546001600160a01b038381166001600160a01b0319831681179093556040519116919082907f8be0079c531659141344cd1fd0a4f28419497f9722a3daafe3b4186f6b6457e090600090a35050565b615bd9838383616062565b6000615dc1614132565b505060408051808201909152601d546001600160801b038082168352600160801b909104166020820152600554909350615e0792508391506001600160a01b0316613c23565b6008541015615e2957604051630aad288560e21b815260040160405180910390fd5b615e35818460006140a1565b60055460405163f556d88960e01b8152600481018690529193506001600160a01b03169063f556d88990602401600060405180830381600087803b158015615e7c57600080fd5b505af1158015615e90573d6000803e3d6000fd5b50505050615ebd81615ea18561466b565b615eaa8561466b565b6005546001600160a01b03166000614d45565b50919050565b6001600160a01b038216615f235760405162461bcd60e51b815260206004820152602160248201527f45524332303a206275726e2066726f6d20746865207a65726f206164647265736044820152607360f81b6064820152608401611bdd565b6001600160a01b0382166000908152600a602052604090205481811015615f975760405162461bcd60e51b815260206004820152602260248201527f45524332303a206275726e20616d6f756e7420657863656564732062616c616e604482015261636560f01b6064820152608401611bdd565b6001600160a01b0383166000818152600a602090815260408083208686039055600c80548790039055518581529192917fddf252ad1be2c89b69c2b068fc378daa952ba7f163c4a11628f55a4df523b3ef910160405180910390a3505050565b6040516001600160a01b03808516602483015283166044820152606481018290526144429085906323b872dd60e01b906084015b60408051601f198184030181529190526020810180516001600160e01b03166001600160e01b031990931692909217909152616092565b6040516001600160a01b038316602482015260448101829052615bd990849063a9059cbb60e01b9060640161602b565b60006160e7826040518060400160405280602081526020017f5361666545524332303a206c6f772d6c6576656c2063616c6c206661696c6564815250856001600160a01b03166161679092919063ffffffff16565b90508051600014806161085750808060200190518101906161089190616a1e565b615bd95760405162461bcd60e51b815260206004820152602a60248201527f5361666545524332303a204552433230206f7065726174696f6e20646964206e6044820152691bdd081cdd58d8d9595960b21b6064820152608401611bdd565b60606114bf848460008585600080866001600160a01b0316858760405161618e9190616c35565b60006040518083038185875af1925050503d80600081146161cb576040519150601f19603f3d011682016040523d82523d6000602084013e6161d0565b606091505b50915091506161e1878383876161ec565b979650505050505050565b6060831561625b578251600003616254576001600160a01b0385163b6162545760405162461bcd60e51b815260206004820152601d60248201527f416464726573733a2063616c6c20746f206e6f6e2d636f6e74726163740000006044820152606401611bdd565b50816114bf565b6114bf83838151156162705781518083602001fd5b8060405162461bcd60e51b8152600401611bdd919061634f565b60405180610100016040528060001515815260200160006001600160401b0316815260200160006001600160401b031681526020016000815260200160008152602001600081526020016162ee604080518082019091526000808252602082015290565b815260200161630d604080518082019091526000808252602082015290565b905290565b60006020828403121561632457600080fd5b5035919050565b60005b8381101561634657818101518382015260200161632e565b50506000910152565b602081526000825180602084015261636e81604085016020870161632b565b601f01601f19169190910160400192915050565b6001600160a01b03811681146111a357600080fd5b600080604083850312156163aa57600080fd5b82356163b581616382565b946020939093013593505050565b6000806000606084860312156163d857600080fd5b505081359360208301359350604090920135919050565b80151581146111a357600080fd5b60008060006060848603121561641257600080fd5b833592506020840135616424816163ef565b91506040840135616434816163ef565b809150509250925092565b60006020828403121561645157600080fd5b81356113b2816163ef565b60006101808201905087825286602083015285604083015263ffffffff8086511660608401528060208701511660808401525060408501516001600160401b0380821660a08501528060608801511660c08501528060808801511660e085015250506164e261010083018580516001600160801b03908116835260209182015116910152565b82516001600160801b03908116610140840152602084015116610160830152979650505050505050565b60008060006060848603121561652157600080fd5b833561652c81616382565b9250602084013561653c81616382565b929592945050506040919091013590565b6000806040838503121561656057600080fd5b82359150602083013561657281616382565b809150509250929050565b6000806040838503121561659057600080fd5b823561659b81616382565b91506020830135616572816163ef565b6000602082840312156165bd57600080fd5b81356113b281616382565b80356001600160801b0381168114615a9d57600080fd5b6000806000606084860312156165f457600080fd5b6165fd846165c8565b925060208401359150604084013561643481616382565b803563ffffffff81168114615a9d57600080fd5b60006020828403121561663a57600080fd5b6113b282616614565b6000806040838503121561665657600080fd5b823561666181616382565b915061666f60208401616614565b90509250929050565b634e487b7160e01b600052604160045260246000fd5b604051601f8201601f191681016001600160401b03811182821017156166b6576166b6616678565b604052919050565b60006001600160401b038211156166d7576166d7616678565b5060051b60200190565b600080600080600060a086880312156166f957600080fd5b853561670481616382565b94506020868101359450604087013593506060870135925060808701356001600160401b0381111561673557600080fd5b8701601f8101891361674657600080fd5b8035616759616754826166be565b61668e565b81815260059190911b8201830190838101908b83111561677857600080fd5b928401925b8284101561679f57833561679081616382565b8252928401929084019061677d565b80955050505050509295509295909350565b6000806000606084860312156167c657600080fd5b8335925060208401356167d881616382565b9150604084013561643481616382565b60008060008060006080868803121561680057600080fd5b853561680b81616382565b9450602086013593506040860135925060608601356001600160401b038082111561683557600080fd5b818801915088601f83011261684957600080fd5b81358181111561685857600080fd5b8960208260051b850101111561686d57600080fd5b9699959850939650602001949392505050565b6000806040838503121561689357600080fd5b61689c836165c8565b9150602083013561657281616382565b600080604083850312156168bf57600080fd5b823561689c81616382565b6000806000606084860312156168df57600080fd5b8335925060208401359150604084013561643481616382565b600181811c9082168061690c57607f821691505b602082108103615ebd57634e487b7160e01b600052602260045260246000fd5b634e487b7160e01b600052601160045260246000fd5b808201808211156112b4576112b461692c565b818103818111156112b4576112b461692c565b80820281158282048414176112b4576112b461692c565b60008261699c57634e487b7160e01b600052601260045260246000fd5b500490565b81810360008312801583831316838312821617156169c1576169c161692c565b5092915050565b6001600160801b038281168282160390808211156169c1576169c161692c565b6001600160801b038181168382160190808211156169c1576169c161692c565b634e487b7160e01b600052603260045260246000fd5b600060208284031215616a3057600080fd5b81516113b2816163ef565b600060208284031215616a4d57600080fd5b5051919050565b600060a082018783526020878185015260a0604085015281875180845260c086019150828901935060005b81811015616aa45784516001600160a01b031683529383019391830191600101616a7f565b50506001600160a01b03969096166060850152505050608001529392505050565b60006020808385031215616ad857600080fd5b82516001600160401b03811115616aee57600080fd5b8301601f81018513616aff57600080fd5b8051616b0d616754826166be565b81815260059190911b82018301908381019087831115616b2c57600080fd5b928401925b828410156161e157835182529284019290840190616b31565b868152602080820187905260a0604083018190528201859052600090869060c08401835b88811015616b9c578335616b8181616382565b6001600160a01b031682529282019290820190600101616b6e565b506001600160a01b0396909616606085015250505060800152949350505050565b600080600060608486031215616bd257600080fd5b8351616bdd816163ef565b602085015160409095015190969495509392505050565b80516001600160401b0381168114615a9d57600080fd5b60008060408385031215616c1e57600080fd5b616c2783616bf4565b915061666f60208401616bf4565b60008251616c4781846020870161632b565b919091019291505056fea2646970667358221220d700d43cdc256267e583933421408d52651ca30540612152b6a9e27975d4a54964736f6c63430008130033","linkReferences":{}},"methodIdentifiers":{"DEPLOYER_ADDRESS()":"d2a156e0","DEVIATION_PRECISION()":"49eb7af6","EXCHANGE_PRECISION()":"c0a7e892","FEE_PRECISION()":"e63a391f","LIQ_PRECISION()":"9fe34bdc","LTV_PRECISION()":"b78294dd","MAX_PROTOCOL_FEE()":"b8ca3b83","RATE_PRECISION()":"2b3ba681","UTIL_PREC()":"6cd3cc77","acceptOwnership()":"79ba5097","acceptTransferTimelock()":"f6ccaad4","addCollateral(uint256,address)":"cadac479","addInterest(bool)":"1c6c9597","allowance(address,address)":"dd62ed3e","approve(address,uint256)":"095ea7b3","asset()":"38d52e0f","balanceOf(address)":"70a08231","borrowAsset(uint256,uint256,address)":"e5f13b16","borrowLimit()":"e551d11d","changeFee(uint32)":"8142dd53","circuitBreakerAddress()":"49292427","cleanLiquidationFee()":"11a2e4bc","collateralContract()":"c6e1c7c9","convertToAssets(uint256)":"07a2d13a","convertToShares(uint256)":"c6e6f592","currentRateInfo()":"95d14ca8","decimals()":"313ce567","decreaseAllowance(address,uint256)":"a457c2d7","deposit(uint256,address)":"6e553f65","depositLimit()":"ecf70858","dirtyLiquidationFee()":"4732428c","exchangeRateInfo()":"fbbbf94c","externalAssetVault()":"7bcad14c","getConstants()":"9a295e73","getPairAccounting()":"cdd72d52","getUserSnapshot(address)":"b68d0a09","increaseAllowance(address,uint256)":"39509351","isBorrowAccessControlRevoked()":"0a67918c","isDepositAccessControlRevoked()":"e2036417","isInterestAccessControlRevoked()":"45757e4a","isInterestPaused()":"f211c390","isLiquidateAccessControlRevoked()":"34680fe5","isLiquidatePaused()":"c58e4df6","isLiquidationFeeSetterRevoked()":"9bc6ab86","isMaxLTVSetterRevoked()":"b7db54f5","isOracleSetterRevoked()":"0b4aecf0","isRateContractSetterRevoked()":"7d63fbc2","isRepayAccessControlRevoked()":"0c70661d","isRepayPaused()":"115a334c","isWithdrawAccessControlRevoked()":"bbb09624","isWithdrawPaused()":"67800b5f","leveragedPosition(address,uint256,uint256,uint256,address[])":"a053db68","liquidate(uint128,uint256,address)":"721b0a47","maxDeposit(address)":"402d267d","maxLTV()":"f384bd05","maxMint(address)":"c63d75b6","maxRedeem(address)":"d905777e","maxWithdraw(address)":"ce96cb77","mint(uint256,address)":"94bf804d","name()":"06fdde03","owner()":"8da5cb5b","pause()":"8456cb59","pauseBorrow()":"e8596f72","pauseDeposit()":"69026e88","pauseInterest(bool)":"858f1e68","pauseLiquidate(bool)":"4c18a4fb","pauseRepay(bool)":"4b4b418e","pauseWithdraw(bool)":"ebd462cb","pendingOwner()":"e30c3978","pendingTimelockAddress()":"090f3f50","previewAddInterest()":"cacf3b58","previewDeposit(uint256)":"ef8b30f7","previewMint(uint256)":"b3d7f6b9","previewRedeem(uint256)":"4cdad506","previewWithdraw(uint256)":"0a28a477","pricePerShare()":"99530b06","protocolLiquidationFee()":"eafecffa","rateContract()":"eee24219","redeem(uint256,address,address)":"ba087652","removeCollateral(uint256,address)":"d41ddc96","renounceOwnership()":"715018a6","renounceTimelock()":"4f8b4ae7","repayAsset(uint256,address)":"3d417d2d","repayAssetWithCollateral(address,uint256,uint256,address[])":"ca2298fe","revokeBorrowLimitAccessControl(uint256)":"00348d18","revokeDepositLimitAccessControl(uint256)":"886c033a","revokeInterestAccessControl()":"64e51d5d","revokeLiquidateAccessControl()":"7ecefa6e","revokeLiquidationFeeSetter()":"0880b2f0","revokeMaxLTVSetter()":"39030864","revokeOracleInfoSetter()":"e1e92775","revokeRateContractSetter()":"e4b00070","revokeRepayAccessControl()":"4c417995","revokeWithdrawAccessControl()":"0475260e","setBorrowLimit(uint256)":"e7a33174","setCircuitBreaker(address)":"82beee89","setDepositLimit(uint256)":"bdc8144b","setExternalAssetVault(address)":"c158e88d","setLiquidationFees(uint256,uint256,uint256)":"1bc23cf9","setMaxLTV(uint256)":"08a0c375","setOracle(address,uint32)":"8f791f8b","setRateContract(address)":"6b96668f","setSwapper(address,bool)":"3f2617cb","swappers(address)":"8cad7fbe","symbol()":"95d89b41","timelockAddress()":"4bc66f32","toAssetAmount(uint256,bool,bool)":"7d37bdd7","toAssetShares(uint256,bool,bool)":"1c2591d3","toBorrowAmount(uint256,bool,bool)":"7ec4b571","toBorrowShares(uint256,bool,bool)":"93f46f64","totalAsset()":"f9557ccb","totalAssets()":"01e1d114","totalBorrow()":"8285ef40","totalCollateral()":"4ac8eb5f","totalSupply()":"18160ddd","transfer(address,uint256)":"a9059cbb","transferFrom(address,address,uint256)":"23b872dd","transferOwnership(address)":"f2fde38b","transferTimelock(address)":"45014095","unpause()":"3f4ba83a","updateExchangeRate()":"02ce728f","userBorrowShares(address)":"4fd422df","userCollateralBalance(address)":"b5af3062","version()":"54fd4d50","withdraw(uint256,address,address)":"b460af94","withdrawFees(uint128,address)":"daf33f2a"},"id":127}