{"abi":[{"type":"constructor","inputs":[{"name":"_ccipRouter","type":"address","internalType":"contract IRouterClient"},{"name":"_tokenRouter","type":"address","internalType":"contract ICCIPTokenRouter"}],"stateMutability":"nonpayable"},{"type":"function","name":"bridgeTokens","inputs":[{"name":"_chainSelector","type":"uint64","internalType":"uint64"},{"name":"_tokenReceiver","type":"address","internalType":"address"},{"name":"_token","type":"address","internalType":"address"},{"name":"_amount","type":"uint256","internalType":"uint256"}],"outputs":[{"name":"_messageId","type":"bytes32","internalType":"bytes32"}],"stateMutability":"payable"},{"type":"function","name":"ccipReceive","inputs":[{"name":"message","type":"tuple","internalType":"struct Client.Any2EVMMessage","components":[{"name":"messageId","type":"bytes32","internalType":"bytes32"},{"name":"sourceChainSelector","type":"uint64","internalType":"uint64"},{"name":"sender","type":"bytes","internalType":"bytes"},{"name":"data","type":"bytes","internalType":"bytes"},{"name":"destTokenAmounts","type":"tuple[]","internalType":"struct Client.EVMTokenAmount[]","components":[{"name":"token","type":"address","internalType":"address"},{"name":"amount","type":"uint256","internalType":"uint256"}]}]}],"outputs":[],"stateMutability":"nonpayable"},{"type":"function","name":"ccipRouter","inputs":[],"outputs":[{"name":"","type":"address","internalType":"contract IRouterClient"}],"stateMutability":"view"},{"type":"function","name":"getMessageFee","inputs":[{"name":"_bridgeConf","type":"tuple","internalType":"struct ICCIPTokenRouter.TokenConfig","components":[{"name":"enabled","type":"bool","internalType":"bool"},{"name":"targetBridge","type":"address","internalType":"address"},{"name":"sourceToken","type":"address","internalType":"address"},{"name":"sourceTokenMintBurn","type":"bool","internalType":"bool"},{"name":"targetChain","type":"uint64","internalType":"uint64"},{"name":"targetToken","type":"address","internalType":"address"}]},{"name":"_tokenReceiver","type":"address","internalType":"address"},{"name":"_amount","type":"uint256","internalType":"uint256"}],"outputs":[{"name":"","type":"uint256","internalType":"uint256"}],"stateMutability":"view"},{"type":"function","name":"getRouter","inputs":[],"outputs":[{"name":"","type":"address","internalType":"address"}],"stateMutability":"view"},{"type":"function","name":"supportsInterface","inputs":[{"name":"interfaceId","type":"bytes4","internalType":"bytes4"}],"outputs":[{"name":"","type":"bool","internalType":"bool"}],"stateMutability":"pure"},{"type":"function","name":"tokenRouter","inputs":[],"outputs":[{"name":"","type":"address","internalType":"contract ICCIPTokenRouter"}],"stateMutability":"view"},{"type":"event","name":"TokensReceived","inputs":[{"name":"messageId","type":"bytes32","indexed":true,"internalType":"bytes32"},{"name":"chainSelector","type":"uint64","indexed":true,"internalType":"uint64"},{"name":"receiver","type":"address","indexed":false,"internalType":"address"},{"name":"token","type":"address","indexed":false,"internalType":"address"},{"name":"amount","type":"uint256","indexed":false,"internalType":"uint256"}],"anonymous":false},{"type":"event","name":"TokensSent","inputs":[{"name":"messageId","type":"bytes32","indexed":true,"internalType":"bytes32"},{"name":"chainSelector","type":"uint64","indexed":true,"internalType":"uint64"},{"name":"receiver","type":"address","indexed":false,"internalType":"address"},{"name":"token","type":"address","indexed":false,"internalType":"address"},{"name":"amountDesired","type":"uint256","indexed":false,"internalType":"uint256"},{"name":"amountActual","type":"uint256","indexed":false,"internalType":"uint256"},{"name":"fees","type":"uint256","indexed":false,"internalType":"uint256"}],"anonymous":false},{"type":"error","name":"InvalidRouter","inputs":[{"name":"router","type":"address","internalType":"address"}]}],"bytecode":{"object":"0x60e06040523480156200001157600080fd5b50604051620018773803806200187783398101604081905262000034916200009b565b816001600160a01b03811662000064576040516335fdcccd60e21b81526000600482015260240160405180910390fd5b6001600160a01b0390811660805291821660a0521660c052620000da565b6001600160a01b03811681146200009857600080fd5b50565b60008060408385031215620000af57600080fd5b8251620000bc8162000082565b6020840151909250620000cf8162000082565b809150509250929050565b60805160a05160c051611736620001416000396000818161016b0152818161021301528181610302015281816108300152818161092a0152610bdc01526000818160bc015281816104bc015261062901526000818161019c01526105ba01526117366000f3fe6080604052600436106100705760003560e01c80635411fcea1161004e5780635411fcea1461012457806385572ffb14610137578063a562bdba14610159578063b0f479a11461018d57600080fd5b806301ffc9a7146100755780630de22984146100aa578063293e01c5146100f6575b600080fd5b34801561008157600080fd5b50610095610090366004610ffd565b6101c0565b60405190151581526020015b60405180910390f35b3480156100b657600080fd5b506100de7f000000000000000000000000000000000000000000000000000000000000000081565b6040516001600160a01b0390911681526020016100a1565b34801561010257600080fd5b50610116610111366004611133565b6101f7565b6040519081526020016100a1565b6101166101323660046111eb565b61020f565b34801561014357600080fd5b5061015761015236600461123c565b6105af565b005b34801561016557600080fd5b506100de7f000000000000000000000000000000000000000000000000000000000000000081565b34801561019957600080fd5b507f00000000000000000000000000000000000000000000000000000000000000006100de565b60006001600160e01b031982166385572ffb60e01b14806101f157506001600160e01b031982166301ffc9a760e01b145b92915050565b60008061020585858561060e565b9695505050505050565b60007f00000000000000000000000000000000000000000000000000000000000000006001600160a01b031663c1fd24026040518163ffffffff1660e01b8152600401602060405180830381865afa15801561026f573d6000803e3d6000fd5b505050506040513d601f19601f820116820180604052508101906102939190611276565b6102d15760405162461bcd60e51b815260206004820152600a60248201526911d3111254d05093115160b21b60448201526064015b60405180910390fd5b60405163475c3d7f60e11b81526001600160a01b0384811660048301526001600160401b03871660248301526000917f000000000000000000000000000000000000000000000000000000000000000090911690638eb87afe9060440160c0604051808303816000875af115801561034d573d6000803e3d6000fd5b505050506040513d601f19601f820116820180604052508101906103719190611293565b80519091506103af5760405162461bcd60e51b815260206004820152600a6024820152691094911254d05093115160b21b60448201526064016102c8565b60006103c185338685606001516106c7565b90506000806103d184898561060e565b915091508034101561040e5760405162461bcd60e51b81526004016102c8906020808252600490820152634645455360e01b604082015260600190565b600061041a8234611320565b905080156104a557604051600090339083908381818185875af1925050503d8060008114610464576040519150601f19603f3d011682016040523d82523d6000602084013e610469565b606091505b50509050806104a35760405162461bcd60e51b815260206004820152600660248201526514915195539160d21b60448201526064016102c8565b505b6040516396f4e9f960e01b81526001600160a01b037f000000000000000000000000000000000000000000000000000000000000000016906396f4e9f99084906104f5908e908890600401611391565b60206040518083038185885af1158015610513573d6000803e3d6000fd5b50505050506040513d601f19601f82011682018060405250810190610538919061146a565b604080516001600160a01b03808d1682528b16602082015290810189905260608101869052608081018490529096506001600160401b038b169087907f91b10d36e17569d523ee1ecc1338adc3d1730d6458dd8e7a13978ac25caee61f9060a00160405180910390a350505050505b949350505050565b336001600160a01b037f000000000000000000000000000000000000000000000000000000000000000016146105fa576040516335fdcccd60e21b81523360048201526024016102c8565b61060b6106068261159e565b61082e565b50565b610616610fc5565b600080610624868686610ae8565b9050807f00000000000000000000000000000000000000000000000000000000000000006001600160a01b03166320487ded8860800151846040518363ffffffff1660e01b8152600401610679929190611391565b602060405180830381865afa158015610696573d6000803e3d6000fd5b505050506040513d601f19601f820116820180604052508101906106ba919061146a565b9250925050935093915050565b6040516370a0823160e01b815230600482015260009081906001600160a01b038716906370a0823190602401602060405180830381865afa158015610710573d6000803e3d6000fd5b505050506040513d601f19601f82011682018060405250810190610734919061146a565b905061074b6001600160a01b038716863087610ca6565b6040516370a0823160e01b815230600482015260009082906001600160a01b038916906370a0823190602401602060405180830381865afa158015610794573d6000803e3d6000fd5b505050506040513d601f19601f820116820180604052508101906107b8919061146a565b6107c29190611320565b9050831561020557604051630852cd8d60e31b8152600481018690526001600160a01b038816906342966c6890602401600060405180830381600087803b15801561080c57600080fd5b505af1158015610820573d6000803e3d6000fd5b505050509695505050505050565b7f00000000000000000000000000000000000000000000000000000000000000006001600160a01b031663c1fd24026040518163ffffffff1660e01b8152600401602060405180830381865afa15801561088c573d6000803e3d6000fd5b505050506040513d601f19601f820116820180604052508101906108b09190611276565b6108e95760405162461bcd60e51b815260206004820152600a60248201526911d3111254d05093115160b21b60448201526064016102c8565b60008160600151806020019051810190610903919061164a565b6020808201519084015160405163475c3d7f60e11b81529293506000926001600160a01b037f00000000000000000000000000000000000000000000000000000000000000001692638eb87afe9261097a926004016001600160a01b039290921682526001600160401b0316602082015260400190565b60c0604051808303816000875af1158015610999573d6000803e3d6000fd5b505050506040513d601f19601f820116820180604052508101906109bd9190611293565b80519091506109fb5760405162461bcd60e51b815260206004820152600a6024820152691094911254d05093115160b21b60448201526064016102c8565b80602001516001600160a01b03168360400151806020019051810190610a2191906116b4565b6001600160a01b031614610a605760405162461bcd60e51b81526004016102c890602080825260049082015263082aaa8960e31b604082015260600190565b8151602083015160408401516060840151610a8090839085908490610d17565b6020808701518751604080516001600160a01b03808916825287169481019490945283018490526001600160401b03909116917f1eb7d864650f669fdc7cb97942971fadf1983930d028aaa76b73c62547adcf589060600160405180910390a3505050505050565b610af0610fc5565b6040805160a080820183526020878101516001600160a01b0390811660c0808601919091528551808603909101815260e0850186528452845160608082018752898316808352948b01518316828501908152918701898152875180860196909652915190921684870152518382015284518084039091018152608092909201845280830191909152825160008082529181018452909282019083610bb6565b6040805180820190915260008082526020820152815260200190600190039081610b8f5790505b50815260200160006001600160a01b03168152602001610c9b60405180602001604052807f00000000000000000000000000000000000000000000000000000000000000006001600160a01b0316637f758a0d6040518163ffffffff1660e01b8152600401602060405180830381865afa158015610c38573d6000803e3d6000fd5b505050506040513d601f19601f82011682018060405250810190610c5c919061146a565b905260408051915160248084019190915281518084039091018152604490920190526020810180516001600160e01b03166397a657c960e01b17905290565b905295945050505050565b6040516001600160a01b0380851660248301528316604482015260648101829052610d119085906323b872dd60e01b906084015b60408051601f198184030181529190526020810180516001600160e01b03166001600160e01b031990931692909217909152610d98565b50505050565b8015610d84576040516340c10f1960e01b81526001600160a01b038481166004830152602482018490528516906340c10f1990604401600060405180830381600087803b158015610d6757600080fd5b505af1158015610d7b573d6000803e3d6000fd5b50505050610d11565b610d116001600160a01b0385168484610e72565b6000610ded826040518060400160405280602081526020017f5361666545524332303a206c6f772d6c6576656c2063616c6c206661696c6564815250856001600160a01b0316610ea29092919063ffffffff16565b9050805160001480610e0e575080806020019051810190610e0e9190611276565b610e6d5760405162461bcd60e51b815260206004820152602a60248201527f5361666545524332303a204552433230206f7065726174696f6e20646964206e6044820152691bdd081cdd58d8d9595960b21b60648201526084016102c8565b505050565b6040516001600160a01b038316602482015260448101829052610e6d90849063a9059cbb60e01b90606401610cda565b60606105a7848460008585600080866001600160a01b03168587604051610ec991906116d1565b60006040518083038185875af1925050503d8060008114610f06576040519150601f19603f3d011682016040523d82523d6000602084013e610f0b565b606091505b5091509150610f1c87838387610f27565b979650505050505050565b60608315610f96578251600003610f8f576001600160a01b0385163b610f8f5760405162461bcd60e51b815260206004820152601d60248201527f416464726573733a2063616c6c20746f206e6f6e2d636f6e747261637400000060448201526064016102c8565b50816105a7565b6105a78383815115610fab5781518083602001fd5b8060405162461bcd60e51b81526004016102c891906116ed565b6040518060a0016040528060608152602001606081526020016060815260200160006001600160a01b03168152602001606081525090565b60006020828403121561100f57600080fd5b81356001600160e01b03198116811461102757600080fd5b9392505050565b634e487b7160e01b600052604160045260246000fd5b60405160c081016001600160401b03811182821017156110665761106661102e565b60405290565b604080519081016001600160401b03811182821017156110665761106661102e565b60405160a081016001600160401b03811182821017156110665761106661102e565b604051601f8201601f191681016001600160401b03811182821017156110d8576110d861102e565b604052919050565b801515811461060b57600080fd5b6001600160a01b038116811461060b57600080fd5b803561110e816110ee565b919050565b6001600160401b038116811461060b57600080fd5b803561110e81611113565b600080600083850361010081121561114a57600080fd5b60c081121561115857600080fd5b50611161611044565b843561116c816110e0565b8152602085013561117c816110ee565b6020820152604085013561118f816110ee565b604082015260608501356111a2816110e0565b606082015260808501356111b581611113565b608082015260a08501356111c8816110ee565b60a082015292506111db60c08501611103565b915060e084013590509250925092565b6000806000806080858703121561120157600080fd5b843561120c81611113565b9350602085013561121c816110ee565b9250604085013561122c816110ee565b9396929550929360600135925050565b60006020828403121561124e57600080fd5b81356001600160401b0381111561126457600080fd5b820160a0818503121561102757600080fd5b60006020828403121561128857600080fd5b8151611027816110e0565b600060c082840312156112a557600080fd5b6112ad611044565b82516112b8816110e0565b815260208301516112c8816110ee565b602082015260408301516112db816110ee565b604082015260608301516112ee816110e0565b6060820152608083015161130181611113565b608082015260a0830151611314816110ee565b60a08201529392505050565b818103818111156101f157634e487b7160e01b600052601160045260246000fd5b60005b8381101561135c578181015183820152602001611344565b50506000910152565b6000815180845261137d816020860160208601611341565b601f01601f19169290920160200192915050565b600060406001600160401b038516835260208181850152845160a0838601526113bd60e0860182611365565b905081860151603f19808784030160608801526113da8383611365565b88860151888203830160808a01528051808352908601945060009350908501905b8084101561142d57845180516001600160a01b03168352860151868301529385019360019390930192908601906113fb565b5060608901516001600160a01b031660a08901526080890151888203830160c08a0152955061145c8187611365565b9a9950505050505050505050565b60006020828403121561147c57600080fd5b5051919050565b600082601f83011261149457600080fd5b81356001600160401b038111156114ad576114ad61102e565b6114c0601f8201601f19166020016110b0565b8181528460208386010111156114d557600080fd5b816020850160208301376000918101602001919091529392505050565b600082601f83011261150357600080fd5b813560206001600160401b0382111561151e5761151e61102e565b61152c818360051b016110b0565b82815260069290921b8401810191818101908684111561154b57600080fd5b8286015b8481101561159357604081890312156115685760008081fd5b61157061106c565b813561157b816110ee565b8152818501358582015283529183019160400161154f565b509695505050505050565b600060a082360312156115b057600080fd5b6115b861108e565b823581526115c860208401611128565b602082015260408301356001600160401b03808211156115e757600080fd5b6115f336838701611483565b6040840152606085013591508082111561160c57600080fd5b61161836838701611483565b6060840152608085013591508082111561163157600080fd5b5061163e368286016114f2565b60808301525092915050565b60006060828403121561165c57600080fd5b604051606081018181106001600160401b038211171561167e5761167e61102e565b604052825161168c816110ee565b8152602083015161169c816110ee565b60208201526040928301519281019290925250919050565b6000602082840312156116c657600080fd5b8151611027816110ee565b600082516116e3818460208701611341565b9190910192915050565b602081526000611027602083018461136556fea2646970667358221220c7594c3c6f5b4106bb5d4a2a789a46ad16f52ba39040bf071c214d95b923d13864736f6c63430008130033","linkReferences":{}},"methodIdentifiers":{"bridgeTokens(uint64,address,address,uint256)":"5411fcea","ccipReceive((bytes32,uint64,bytes,bytes,(address,uint256)[]))":"85572ffb","ccipRouter()":"0de22984","getMessageFee((bool,address,address,bool,uint64,address),address,uint256)":"293e01c5","getRouter()":"b0f479a1","supportsInterface(bytes4)":"01ffc9a7","tokenRouter()":"a562bdba"},"id":17}