{"abi":[{"type":"function","name":"callback","inputs":[{"name":"_data","type":"bytes","internalType":"bytes"}],"outputs":[],"stateMutability":"nonpayable"},{"type":"function","name":"tryFlash","inputs":[{"name":"_source","type":"address","internalType":"contract IFlashLoanSource"},{"name":"_token","type":"address","internalType":"address"},{"name":"_amount","type":"uint256","internalType":"uint256"}],"outputs":[],"stateMutability":"nonpayable"}],"bytecode":{"object":"0x608060405234801561001057600080fd5b50610a6d806100206000396000f3fe608060405234801561001057600080fd5b50600436106100365760003560e01c80638823a6cb1461003b578063e98a565414610050575b600080fd5b61004e6100493660046106bb565b610063565b005b61004e61005e366004610794565b6101e6565b6000836001600160a01b031663c35905c66040518163ffffffff1660e01b8152600401602060405180830381865afa1580156100a3573d6000803e3d6000fd5b505050506040513d601f19601f820116820180604052508101906100c79190610814565b90508015610160576000846001600160a01b0316633013ce296040518163ffffffff1660e01b8152600401602060405180830381865afa15801561010f573d6000803e3d6000fd5b505050506040513d601f19601f82011682018060405250810190610133919061082d565b905061014a6001600160a01b0382163330856102f0565b61015e6001600160a01b0382168684610361565b505b604080516001600160a01b03861660208083018290528351808403909101815282840193849052637a05edcd60e01b90935290637a05edcd906101ad9087908790309087906044016108a1565b600060405180830381600087803b1580156101c757600080fd5b505af11580156101db573d6000803e3d6000fd5b505050505050505050565b6000818060200190518101906101fc91906108de565b905060008160600151806020019051810190610218919061082d565b9050336001600160a01b0382161461025d5760405162461bcd60e51b815260206004820152600360248201526253524360e81b60448201526064015b60405180910390fd5b6102eb336001600160a01b03166367e828bf6040518163ffffffff1660e01b8152600401602060405180830381865afa15801561029e573d6000803e3d6000fd5b505050506040513d601f19601f820116820180604052508101906102c2919061082d565b836080015184604001516102d691906109bf565b60208501516001600160a01b0316919061040e565b505050565b6040516001600160a01b038085166024830152831660448201526064810182905261035b9085906323b872dd60e01b906084015b60408051601f198184030181529190526020810180516001600160e01b03166001600160e01b03199093169290921790915261043e565b50505050565b604051636eb1769f60e11b81523060048201526001600160a01b0383811660248301526000919085169063dd62ed3e90604401602060405180830381865afa1580156103b1573d6000803e3d6000fd5b505050506040513d601f19601f820116820180604052508101906103d59190610814565b905061035b8463095ea7b360e01b856103ee86866109bf565b6040516001600160a01b0390921660248301526044820152606401610324565b6040516001600160a01b0383166024820152604481018290526102eb90849063a9059cbb60e01b90606401610324565b6000610493826040518060400160405280602081526020017f5361666545524332303a206c6f772d6c6576656c2063616c6c206661696c6564815250856001600160a01b03166105139092919063ffffffff16565b90508051600014806104b45750808060200190518101906104b491906109e6565b6102eb5760405162461bcd60e51b815260206004820152602a60248201527f5361666545524332303a204552433230206f7065726174696f6e20646964206e6044820152691bdd081cdd58d8d9595960b21b6064820152608401610254565b6060610522848460008561052a565b949350505050565b60608247101561058b5760405162461bcd60e51b815260206004820152602660248201527f416464726573733a20696e73756666696369656e742062616c616e636520666f6044820152651c8818d85b1b60d21b6064820152608401610254565b600080866001600160a01b031685876040516105a79190610a08565b60006040518083038185875af1925050503d80600081146105e4576040519150601f19603f3d011682016040523d82523d6000602084013e6105e9565b606091505b50915091506105fa87838387610605565b979650505050505050565b6060831561067457825160000361066d576001600160a01b0385163b61066d5760405162461bcd60e51b815260206004820152601d60248201527f416464726573733a2063616c6c20746f206e6f6e2d636f6e74726163740000006044820152606401610254565b5081610522565b61052283838151156106895781518083602001fd5b8060405162461bcd60e51b81526004016102549190610a24565b6001600160a01b03811681146106b857600080fd5b50565b6000806000606084860312156106d057600080fd5b83356106db816106a3565b925060208401356106eb816106a3565b929592945050506040919091013590565b634e487b7160e01b600052604160045260246000fd5b60405160a0810167ffffffffffffffff81118282101715610735576107356106fc565b60405290565b604051601f8201601f1916810167ffffffffffffffff81118282101715610764576107646106fc565b604052919050565b600067ffffffffffffffff821115610786576107866106fc565b50601f01601f191660200190565b6000602082840312156107a657600080fd5b813567ffffffffffffffff8111156107bd57600080fd5b8201601f810184136107ce57600080fd5b80356107e16107dc8261076c565b61073b565b8181528560208385010111156107f657600080fd5b81602084016020830137600091810160200191909152949350505050565b60006020828403121561082657600080fd5b5051919050565b60006020828403121561083f57600080fd5b815161084a816106a3565b9392505050565b60005b8381101561086c578181015183820152602001610854565b50506000910152565b6000815180845261088d816020860160208601610851565b601f01601f19169290920160200192915050565b6001600160a01b03858116825260208201859052831660408201526080606082018190526000906108d490830184610875565b9695505050505050565b600060208083850312156108f157600080fd5b825167ffffffffffffffff8082111561090957600080fd5b9084019060a0828703121561091d57600080fd5b610925610712565b8251610930816106a3565b81528284015161093f816106a3565b818501526040838101519082015260608301518281111561095f57600080fd5b83019150601f8201871361097257600080fd5b81516109806107dc8261076c565b818152888683860101111561099457600080fd5b6109a382878301888701610851565b6060830152506080928301519281019290925250949350505050565b808201808211156109e057634e487b7160e01b600052601160045260246000fd5b92915050565b6000602082840312156109f857600080fd5b8151801515811461084a57600080fd5b60008251610a1a818460208701610851565b9190910192915050565b60208152600061084a602083018461087556fea26469706673582212200add5ccbbaac8288d63890044ecf249a02158e30c487ca2bac955cb91b8e143f64736f6c63430008130033","linkReferences":{}},"methodIdentifiers":{"callback(bytes)":"e98a5654","tryFlash(address,address,uint256)":"8823a6cb"},"id":95}