{"abi":[{"type":"function","name":"getConversionFactor","inputs":[{"name":"_pod","type":"address","internalType":"address"}],"outputs":[{"name":"_factor","type":"uint256","internalType":"uint256"},{"name":"_denomenator","type":"uint256","internalType":"uint256"}],"stateMutability":"view"}],"bytecode":{"object":"0x608060405234801561001057600080fd5b5061068d806100206000396000f3fe608060405234801561001057600080fd5b506004361061002b5760003560e01c8063e73f763414610030575b600080fd5b61004361003e366004610333565b61005c565b6040805192835260208301919091520160405180910390f35b60008061006883610072565b9094909350915050565b6000806000670de0b6b3a764000090506000846001600160a01b0316632acada4d6040518163ffffffff1660e01b8152600401600060405180830381865afa1580156100c2573d6000803e3d6000fd5b505050506040513d6000823e601f3d908101601f191682016040526100ea91908101906103c7565b9050600081600081518110610101576101016104c1565b6020908102919091010151516040516370a0823160e01b81526001600160a01b038881166004830152909116906370a0823190602401602060405180830381865afa158015610154573d6000803e3d6000fd5b505050506040513d601f19601f8201168201806040525081019061017891906104d7565b90506000866001600160a01b03166318160ddd6040518163ffffffff1660e01b8152600401602060405180830381865afa1580156101ba573d6000803e3d6000fd5b505050506040513d601f19601f820116820180604052508101906101de91906104d7565b9050801561030c57826000815181106101f9576101f96104c1565b6020026020010151600001516001600160a01b031663313ce5676040518163ffffffff1660e01b8152600401602060405180830381865afa158015610242573d6000803e3d6000fd5b505050506040513d601f19601f8201168201806040525081019061026691906104f0565b61027190600a61060f565b81886001600160a01b031663313ce5676040518163ffffffff1660e01b8152600401602060405180830381865afa1580156102b0573d6000803e3d6000fd5b505050506040513d601f19601f820116820180604052508101906102d491906104f0565b6102df90600a61060f565b6102e9858861061e565b6102f3919061061e565b6102fd9190610635565b6103079190610635565b61030e565b835b9793965092945050505050565b6001600160a01b038116811461033057600080fd5b50565b60006020828403121561034557600080fd5b81356103508161031b565b9392505050565b634e487b7160e01b600052604160045260246000fd5b60405160a0810167ffffffffffffffff8111828210171561039057610390610357565b60405290565b604051601f8201601f1916810167ffffffffffffffff811182821017156103bf576103bf610357565b604052919050565b600060208083850312156103da57600080fd5b825167ffffffffffffffff808211156103f257600080fd5b818501915085601f83011261040657600080fd5b81518181111561041857610418610357565b610426848260051b01610396565b818152848101925060a091820284018501918883111561044557600080fd5b938501935b828510156104b55780858a0312156104625760008081fd5b61046a61036d565b85516104758161031b565b81528587015187820152604080870151908201526060808701516104988161031b565b90820152608086810151908201528452938401939285019261044a565b50979650505050505050565b634e487b7160e01b600052603260045260246000fd5b6000602082840312156104e957600080fd5b5051919050565b60006020828403121561050257600080fd5b815160ff8116811461035057600080fd5b634e487b7160e01b600052601160045260246000fd5b600181815b8085111561056457816000190482111561054a5761054a610513565b8085161561055757918102915b93841c939080029061052e565b509250929050565b60008261057b57506001610609565b8161058857506000610609565b816001811461059e57600281146105a8576105c4565b6001915050610609565b60ff8411156105b9576105b9610513565b50506001821b610609565b5060208310610133831016604e8410600b84101617156105e7575081810a610609565b6105f18383610529565b806000190482111561060557610605610513565b0290505b92915050565b600061035060ff84168361056c565b808202811582820484141761060957610609610513565b60008261065257634e487b7160e01b600052601260045260246000fd5b50049056fea26469706673582212204a163269710ec9edb3fce83a098e7a89ae73c2df6378ed88bb6fa9425de8788d64736f6c63430008130033","linkReferences":{}},"methodIdentifiers":{"getConversionFactor(address)":"e73f7634"},"id":103}