{"abi":[{"type":"constructor","inputs":[],"stateMutability":"nonpayable"},{"type":"function","name":"CREATED","inputs":[],"outputs":[{"name":"","type":"uint256","internalType":"uint256"}],"stateMutability":"view"},{"type":"function","name":"addTime","inputs":[{"name":"_secs","type":"uint256","internalType":"uint256"}],"outputs":[],"stateMutability":"nonpayable"},{"type":"function","name":"collect","inputs":[{"name":"_lpId","type":"uint256","internalType":"uint256"}],"outputs":[],"stateMutability":"nonpayable"},{"type":"function","name":"getUnlockTime","inputs":[],"outputs":[{"name":"","type":"uint256","internalType":"uint256"}],"stateMutability":"view"},{"type":"function","name":"lockedTime","inputs":[],"outputs":[{"name":"","type":"uint256","internalType":"uint256"}],"stateMutability":"view"},{"type":"function","name":"owner","inputs":[],"outputs":[{"name":"","type":"address","internalType":"address"}],"stateMutability":"view"},{"type":"function","name":"renounceOwnership","inputs":[],"outputs":[],"stateMutability":"nonpayable"},{"type":"function","name":"transferOwnership","inputs":[{"name":"newOwner","type":"address","internalType":"address"}],"outputs":[],"stateMutability":"nonpayable"},{"type":"function","name":"unlock","inputs":[{"name":"_lpId","type":"uint256","internalType":"uint256"}],"outputs":[],"stateMutability":"nonpayable"},{"type":"event","name":"OwnershipTransferred","inputs":[{"name":"previousOwner","type":"address","indexed":true,"internalType":"address"},{"name":"newOwner","type":"address","indexed":true,"internalType":"address"}],"anonymous":false}],"bytecode":{"object":"0x60c060405234801561001057600080fd5b5061001a3361003b565b4260805273c36442b4a4522e871399cd717abdd847ab11fe8860a05261008b565b600080546001600160a01b038381166001600160a01b0319831681178455604051919092169283917f8be0079c531659141344cd1fd0a4f28419497f9722a3daafe3b4186f6b6457e09190a35050565b60805160a0516105a46100c4600039600081816101ed01526102ad01526000818160e00152818161017d01526101bc01526105a46000f3fe608060405234801561001057600080fd5b50600436106100935760003560e01c8063715018a611610066578063715018a6146101025780638da5cb5b1461010a578063a8b3820514610125578063ce3f865f1461012e578063f2fde38b1461014157600080fd5b80630502ca6b14610098578063602bc62b146100ad5780636198e339146100c8578063697e0ef2146100db575b600080fd5b6100ab6100a63660046104da565b610154565b005b6100b5610176565b6040519081526020015b60405180910390f35b6100ab6100d63660046104da565b6101ab565b6100b57f000000000000000000000000000000000000000000000000000000000000000081565b6100ab610297565b6000546040516001600160a01b0390911681526020016100bf565b6100b560015481565b6100ab61013c3660046104da565b6102ab565b6100ab61014f3660046104f3565b6103b2565b61015c610430565b806001600082825461016e9190610523565b909155505050565b60006001547f00000000000000000000000000000000000000000000000000000000000000006101a69190610523565b905090565b6101b3610430565b6001546101e0907f0000000000000000000000000000000000000000000000000000000000000000610523565b42116101eb57600080fd5b7f00000000000000000000000000000000000000000000000000000000000000006001600160a01b03166323b872dd3061022d6000546001600160a01b031690565b6040516001600160e01b031960e085901b1681526001600160a01b0392831660048201529116602482015260448101849052606401600060405180830381600087803b15801561027c57600080fd5b505af1158015610290573d6000803e3d6000fd5b5050505050565b61029f610430565b6102a9600061048a565b565b7f00000000000000000000000000000000000000000000000000000000000000006001600160a01b031663fc6f786560405180608001604052808481526020016102fd6000546001600160a01b031690565b6001600160a01b0390811682526fffffffffffffffffffffffffffffffff60208084018290526040938401829052835160e087901b6001600160e01b031916815285516004820152908501519092166024830152918301518216604482015260609092015116606482015260840160408051808303816000875af1158015610389573d6000803e3d6000fd5b505050506040513d601f19601f820116820180604052508101906103ad919061054a565b505050565b6103ba610430565b6001600160a01b0381166104245760405162461bcd60e51b815260206004820152602660248201527f4f776e61626c653a206e6577206f776e657220697320746865207a65726f206160448201526564647265737360d01b60648201526084015b60405180910390fd5b61042d8161048a565b50565b6000546001600160a01b031633146102a95760405162461bcd60e51b815260206004820181905260248201527f4f776e61626c653a2063616c6c6572206973206e6f7420746865206f776e6572604482015260640161041b565b600080546001600160a01b038381166001600160a01b0319831681178455604051919092169283917f8be0079c531659141344cd1fd0a4f28419497f9722a3daafe3b4186f6b6457e09190a35050565b6000602082840312156104ec57600080fd5b5035919050565b60006020828403121561050557600080fd5b81356001600160a01b038116811461051c57600080fd5b9392505050565b8082018082111561054457634e487b7160e01b600052601160045260246000fd5b92915050565b6000806040838503121561055d57600080fd5b50508051602090910151909290915056fea2646970667358221220350896a4655ecafecf1d0f439242999db13388be9b2cee8d441bc5059e937ab764736f6c63430008130033","linkReferences":{}},"methodIdentifiers":{"CREATED()":"697e0ef2","addTime(uint256)":"0502ca6b","collect(uint256)":"ce3f865f","getUnlockTime()":"602bc62b","lockedTime()":"a8b38205","owner()":"8da5cb5b","renounceOwnership()":"715018a6","transferOwnership(address)":"f2fde38b","unlock(uint256)":"6198e339"},"id":14}